{
  "_format": "hh-sol-artifact-1",
  "contractName": "ZombieElectrico",
  "sourceName": "contracts/ZombieElectrico.sol",
  "abi": [
    {
      "anonymous": false,
      "inputs": [
        {
          "indexed": false,
          "internalType": "uint256",
          "name": "zombieId",
          "type": "uint256"
        },
        {
          "indexed": false,
          "internalType": "string",
          "name": "name",
          "type": "string"
        },
        {
          "indexed": false,
          "internalType": "uint256",
          "name": "dna",
          "type": "uint256"
        }
      ],
      "name": "NewZombie",
      "type": "event"
    },
    {
      "inputs": [
        {
          "internalType": "uint256",
          "name": "_zombieId",
          "type": "uint256"
        },
        {
          "internalType": "address",
          "name": "direccion",
          "type": "address"
        }
      ],
      "name": "_setAddressToZombie",
      "outputs": [],
      "stateMutability": "nonpayable",
      "type": "function"
    },
    {
      "inputs": [
        {
          "internalType": "string",
          "name": "_name",
          "type": "string"
        }
      ],
      "name": "crearRandomZombie",
      "outputs": [],
      "stateMutability": "nonpayable",
      "type": "function"
    },
    {
      "inputs": [
        {
          "internalType": "string",
          "name": "_name",
          "type": "string"
        },
        {
          "internalType": "address",
          "name": "direccion",
          "type": "address"
        }
      ],
      "name": "crearZombieElectrico",
      "outputs": [],
      "stateMutability": "nonpayable",
      "type": "function"
    },
    {
      "inputs": [],
      "name": "cuantosZombiesTengo",
      "outputs": [
        {
          "internalType": "uint256",
          "name": "",
          "type": "uint256"
        }
      ],
      "stateMutability": "view",
      "type": "function"
    },
    {
      "inputs": [
        {
          "internalType": "address",
          "name": "",
          "type": "address"
        }
      ],
      "name": "direccionToZombie",
      "outputs": [
        {
          "internalType": "uint256",
          "name": "",
          "type": "uint256"
        }
      ],
      "stateMutability": "view",
      "type": "function"
    },
    {
      "inputs": [
        {
          "internalType": "uint256",
          "name": "_zombieId",
          "type": "uint256"
        },
        {
          "internalType": "uint256",
          "name": "_targetDna",
          "type": "uint256"
        }
      ],
      "name": "feedAndMultiply",
      "outputs": [],
      "stateMutability": "nonpayable",
      "type": "function"
    },
    {
      "inputs": [],
      "name": "getMyNumber",
      "outputs": [
        {
          "internalType": "uint256",
          "name": "",
          "type": "uint256"
        }
      ],
      "stateMutability": "view",
      "type": "function"
    },
    {
      "inputs": [
        {
          "internalType": "address",
          "name": "direccion",
          "type": "address"
        }
      ],
      "name": "getZombieId",
      "outputs": [
        {
          "internalType": "uint256",
          "name": "",
          "type": "uint256"
        }
      ],
      "stateMutability": "view",
      "type": "function"
    },
    {
      "inputs": [
        {
          "internalType": "uint256",
          "name": "_myNumber",
          "type": "uint256"
        }
      ],
      "name": "setMyNumber",
      "outputs": [],
      "stateMutability": "nonpayable",
      "type": "function"
    },
    {
      "inputs": [
        {
          "internalType": "uint256",
          "name": "",
          "type": "uint256"
        }
      ],
      "name": "zombieToDireccion",
      "outputs": [
        {
          "internalType": "address",
          "name": "",
          "type": "address"
        }
      ],
      "stateMutability": "view",
      "type": "function"
    },
    {
      "inputs": [
        {
          "internalType": "uint256",
          "name": "",
          "type": "uint256"
        }
      ],
      "name": "zombieToOwner",
      "outputs": [
        {
          "internalType": "address",
          "name": "",
          "type": "address"
        }
      ],
      "stateMutability": "view",
      "type": "function"
    },
    {
      "inputs": [
        {
          "internalType": "uint256",
          "name": "",
          "type": "uint256"
        }
      ],
      "name": "zombies",
      "outputs": [
        {
          "internalType": "string",
          "name": "name",
          "type": "string"
        },
        {
          "internalType": "uint256",
          "name": "dna",
          "type": "uint256"
        }
      ],
      "stateMutability": "view",
      "type": "function"
    }
  ],
  "bytecode": "0x6080604052601060008190556200001890600a62000144565b6001553480156200002857600080fd5b5062000159565b634e487b7160e01b600052601160045260246000fd5b600181815b80851115620000865781600019048211156200006a576200006a6200002f565b808516156200007857918102915b93841c93908002906200004a565b509250929050565b6000826200009f575060016200013e565b81620000ae575060006200013e565b8160018114620000c75760028114620000d257620000f2565b60019150506200013e565b60ff841115620000e657620000e66200002f565b50506001821b6200013e565b5060208310610133831016604e8410600b841016171562000117575081810a6200013e565b62000123838362000045565b80600019048211156200013a576200013a6200002f565b0290505b92915050565b60006200015283836200008e565b9392505050565b610ee280620001696000396000f3fe608060405234801561001057600080fd5b50600436106100d45760003560e01c80636ffd773c11610081578063aa5ddcdd1161005b578063aa5ddcdd146101f1578063ab88ddf214610204578063b32e737f1461022457600080fd5b80636ffd773c146101b65780637168b5a8146101d6578063a6a2c234146101e957600080fd5b8063528b7b8f116100b2578063528b7b8f1461015957806355d42133146101825780635c184725146101a357600080fd5b80630dedffb8146100d95780632052465e146100ee57806351d240d314610118575b600080fd5b6100ec6100e7366004610a56565b610239565b005b6101016100fc366004610a78565b6102f6565b60405161010f929190610ae9565b60405180910390f35b610141610126366004610a78565b6006602052600090815260409020546001600160a01b031681565b6040516001600160a01b03909116815260200161010f565b610141610167366004610a78565b6003602052600090815260409020546001600160a01b031681565b610195610190366004610b27565b6103b2565b60405190815260200161010f565b6100ec6101b1366004610be5565b61040f565b6100ec6101c4366004610a78565b33600090815260056020526040902055565b6100ec6101e4366004610c22565b610483565b6101956104ec565b6100ec6101ff366004610c4e565b610540565b610195610212366004610b27565b60076020526000908152604090205481565b33600090815260056020526040902054610195565b6000828152600360205260409020546001600160a01b0316331461025c57600080fd5b60006002838154811061027157610271610c93565b906000526020600020906002020190506001548261028f9190610cbf565b9150600060028383600101546102a59190610ce9565b6102af9190610d01565b90506102f06040518060400160405280600681526020017f4e6f4e616d6500000000000000000000000000000000000000000000000000008152508261056c565b50505050565b6002818154811061030657600080fd5b906000526020600020906002020160009150905080600001805461032990610d15565b80601f016020809104026020016040519081016040528092919081815260200182805461035590610d15565b80156103a25780601f10610377576101008083540402835291602001916103a2565b820191906000526020600020905b81548152906001019060200180831161038557829003601f168201915b5050505050908060010154905082565b60006103f36040518060400160405280600e81526020017f456e206765745a6f6d62696549640000000000000000000000000000000000008152508361073f565b506001600160a01b031660009081526007602052604090205490565b61044e6040518060400160405280601481526020017f456e20637265617252616e646f6d5a6f6d6269650000000000000000000000008152508261079d565b336000908152600460205260409020541561046857600080fd5b6000610473826107fb565b905061047f828261056c565b5050565b6000828152600360205260409020546001600160a01b031633146104a657600080fd5b600082815260066020908152604080832080546001600160a01b0390951673ffffffffffffffffffffffffffffffffffffffff1990951685179055928252600790522055565b600061052c6040518060400160405280601681526020017f456e206375616e746f735a6f6d6269657354656e676f0000000000000000000081525061087f565b503360009081526004602052604090205490565b6105498261040f565b60025460009061055b90600190610d50565b90506105678183610483565b505050565b6105e26040518060400160405280601681526020017f456e205f63726561725a6f6d626965205f6e616d653a00000000000000000000815250836040518060400160405280600581526020017f5f646e613a000000000000000000000000000000000000000000000000000000815250846108de565b604080518082019091528281526020808201839052600280546001810182556000829052835180518594929093027f405787fa12a823e0f2b7631cc41b3ba8828b3321ca811111fa75cd3aa3bb5ace019261064092849201906109bd565b506020919091015160019182015560025460009161065d91610d50565b90507f88f026aacbbecc90c18411df4b1185fd8d9be2470f1962f192bf84a27d0704b781858560405161069293929190610d67565b60405180910390a16000818152600360209081526040808320805473ffffffffffffffffffffffffffffffffffffffff1916339081179091558352600490915281208054916106e083610d90565b9091555050336000818152600460209081526040918290205482518084019093528183527f50726f706965746172696f202573207469656e65202564207a6f6d626965732e9183019190915291610738919083610940565b5050505050565b61047f8282604051602401610755929190610dab565b60408051601f198184030181529190526020810180516001600160e01b03167f319af3330000000000000000000000000000000000000000000000000000000017905261099c565b61047f82826040516024016107b3929190610dd6565b60408051601f198184030181529190526020810180516001600160e01b03167f4b5c42770000000000000000000000000000000000000000000000000000000017905261099c565b600061083c6040518060400160405280601581526020017f456e205f67656e657261746552616e646f6d446e6100000000000000000000008152508361079d565b60008260405160200161084f9190610e04565b6040516020818303038152906040528051906020012060001c9050600154816108789190610cbf565b9392505050565b6108db816040516024016108939190610e20565b60408051601f198184030181529190526020810180516001600160e01b03167f41304fac0000000000000000000000000000000000000000000000000000000017905261099c565b50565b6102f0848484846040516024016108f89493929190610e33565b60408051601f198184030181529190526020810180516001600160e01b03167f8eafb02b0000000000000000000000000000000000000000000000000000000017905261099c565b61056783838360405160240161095893929190610e7e565b60408051601f198184030181529190526020810180516001600160e01b03167f0d26b925000000000000000000000000000000000000000000000000000000001790525b80516a636f6e736f6c652e6c6f67602083016000808483855afa5050505050565b8280546109c990610d15565b90600052602060002090601f0160209004810192826109eb5760008555610a31565b82601f10610a0457805160ff1916838001178555610a31565b82800160010185558215610a31579182015b82811115610a31578251825591602001919060010190610a16565b50610a3d929150610a41565b5090565b5b80821115610a3d5760008155600101610a42565b60008060408385031215610a6957600080fd5b50508035926020909101359150565b600060208284031215610a8a57600080fd5b5035919050565b60005b83811015610aac578181015183820152602001610a94565b838111156102f05750506000910152565b60008151808452610ad5816020860160208601610a91565b601f01601f19169290920160200192915050565b604081526000610afc6040830185610abd565b90508260208301529392505050565b80356001600160a01b0381168114610b2257600080fd5b919050565b600060208284031215610b3957600080fd5b61087882610b0b565b634e487b7160e01b600052604160045260246000fd5b600082601f830112610b6957600080fd5b813567ffffffffffffffff80821115610b8457610b84610b42565b604051601f8301601f19908116603f01168101908282118183101715610bac57610bac610b42565b81604052838152866020858801011115610bc557600080fd5b836020870160208301376000602085830101528094505050505092915050565b600060208284031215610bf757600080fd5b813567ffffffffffffffff811115610c0e57600080fd5b610c1a84828501610b58565b949350505050565b60008060408385031215610c3557600080fd5b82359150610c4560208401610b0b565b90509250929050565b60008060408385031215610c6157600080fd5b823567ffffffffffffffff811115610c7857600080fd5b610c8485828601610b58565b925050610c4560208401610b0b565b634e487b7160e01b600052603260045260246000fd5b634e487b7160e01b600052601260045260246000fd5b600082610cce57610cce610ca9565b500690565b634e487b7160e01b600052601160045260246000fd5b60008219821115610cfc57610cfc610cd3565b500190565b600082610d1057610d10610ca9565b500490565b600181811c90821680610d2957607f821691505b60208210811415610d4a57634e487b7160e01b600052602260045260246000fd5b50919050565b600082821015610d6257610d62610cd3565b500390565b838152606060208201526000610d806060830185610abd565b9050826040830152949350505050565b6000600019821415610da457610da4610cd3565b5060010190565b604081526000610dbe6040830185610abd565b90506001600160a01b03831660208301529392505050565b604081526000610de96040830185610abd565b8281036020840152610dfb8185610abd565b95945050505050565b60008251610e16818460208701610a91565b9190910192915050565b6020815260006108786020830184610abd565b608081526000610e466080830187610abd565b8281036020840152610e588187610abd565b90508281036040840152610e6c8186610abd565b91505082606083015295945050505050565b606081526000610e916060830186610abd565b6001600160a01b03949094166020830152506040015291905056fea2646970667358221220c7d79040c392e51d500467aa2c7f598b183669ea491af3b1fd318dbef0c3081764736f6c63430008090033",
  "linkReferences": {},
  "deployedLinkReferences": {}
}