{
  "_format": "hh-sol-artifact-1",
  "contractName": "ZombieElectrico",
  "sourceName": "contracts/ZombieElectrico.sol",
  "abi": [
    {
      "anonymous": false,
      "inputs": [
        {
          "indexed": false,
          "internalType": "uint256",
          "name": "zombieId",
          "type": "uint256"
        },
        {
          "indexed": false,
          "internalType": "string",
          "name": "name",
          "type": "string"
        },
        {
          "indexed": false,
          "internalType": "uint256",
          "name": "dna",
          "type": "uint256"
        }
      ],
      "name": "NewZombie",
      "type": "event"
    },
    {
      "inputs": [
        {
          "internalType": "uint256",
          "name": "_zombieId",
          "type": "uint256"
        },
        {
          "internalType": "address",
          "name": "direccion",
          "type": "address"
        }
      ],
      "name": "_setAddressToZombie",
      "outputs": [],
      "stateMutability": "nonpayable",
      "type": "function"
    },
    {
      "inputs": [
        {
          "internalType": "string",
          "name": "_name",
          "type": "string"
        }
      ],
      "name": "crearRandomZombie",
      "outputs": [],
      "stateMutability": "nonpayable",
      "type": "function"
    },
    {
      "inputs": [
        {
          "internalType": "string",
          "name": "_name",
          "type": "string"
        },
        {
          "internalType": "address",
          "name": "direccion",
          "type": "address"
        }
      ],
      "name": "crearZombieElectrico",
      "outputs": [],
      "stateMutability": "nonpayable",
      "type": "function"
    },
    {
      "inputs": [],
      "name": "cuantosZombiesTengo",
      "outputs": [
        {
          "internalType": "uint256",
          "name": "",
          "type": "uint256"
        }
      ],
      "stateMutability": "view",
      "type": "function"
    },
    {
      "inputs": [
        {
          "internalType": "address",
          "name": "",
          "type": "address"
        }
      ],
      "name": "direccionToZombie",
      "outputs": [
        {
          "internalType": "uint256",
          "name": "",
          "type": "uint256"
        }
      ],
      "stateMutability": "view",
      "type": "function"
    },
    {
      "inputs": [
        {
          "internalType": "uint256",
          "name": "_zombieId",
          "type": "uint256"
        },
        {
          "internalType": "uint256",
          "name": "_targetDna",
          "type": "uint256"
        }
      ],
      "name": "feedAndMultiply",
      "outputs": [],
      "stateMutability": "nonpayable",
      "type": "function"
    },
    {
      "inputs": [],
      "name": "getMyNumber",
      "outputs": [
        {
          "internalType": "uint256",
          "name": "",
          "type": "uint256"
        }
      ],
      "stateMutability": "view",
      "type": "function"
    },
    {
      "inputs": [
        {
          "internalType": "address",
          "name": "direccion",
          "type": "address"
        }
      ],
      "name": "getZombieId",
      "outputs": [
        {
          "internalType": "uint256",
          "name": "",
          "type": "uint256"
        }
      ],
      "stateMutability": "view",
      "type": "function"
    },
    {
      "inputs": [
        {
          "internalType": "uint256",
          "name": "_myNumber",
          "type": "uint256"
        }
      ],
      "name": "setMyNumber",
      "outputs": [],
      "stateMutability": "nonpayable",
      "type": "function"
    },
    {
      "inputs": [
        {
          "internalType": "uint256",
          "name": "",
          "type": "uint256"
        }
      ],
      "name": "zombieToDireccion",
      "outputs": [
        {
          "internalType": "address",
          "name": "",
          "type": "address"
        }
      ],
      "stateMutability": "view",
      "type": "function"
    },
    {
      "inputs": [
        {
          "internalType": "uint256",
          "name": "",
          "type": "uint256"
        }
      ],
      "name": "zombieToOwner",
      "outputs": [
        {
          "internalType": "address",
          "name": "",
          "type": "address"
        }
      ],
      "stateMutability": "view",
      "type": "function"
    },
    {
      "inputs": [
        {
          "internalType": "uint256",
          "name": "",
          "type": "uint256"
        }
      ],
      "name": "zombies",
      "outputs": [
        {
          "internalType": "string",
          "name": "name",
          "type": "string"
        },
        {
          "internalType": "uint256",
          "name": "dna",
          "type": "uint256"
        }
      ],
      "stateMutability": "view",
      "type": "function"
    }
  ],
  "bytecode": "0x60806040526010600055600054600a6200001a91906200008c565b6001553480156200002a57600080fd5b506200020f565b6000808291508390505b600185111562000083578086048111156200005b576200005a620001d3565b5b60018516156200006b5780820291505b80810290506200007b8562000202565b94506200003b565b94509492505050565b60006200009982620001c9565b9150620000a683620001c9565b9250620000d57fffffffffffffffffffffffffffffffffffffffffffffffffffffffffffffffff8484620000dd565b905092915050565b600082620000ef5760019050620001c2565b81620000ff5760009050620001c2565b8160018114620001185760028114620001235762000159565b6001915050620001c2565b60ff841115620001385762000137620001d3565b5b8360020a915084821115620001525762000151620001d3565b5b50620001c2565b5060208310610133831016604e8410600b8410161715620001935782820a9050838111156200018d576200018c620001d3565b5b620001c2565b620001a2848484600162000031565b92509050818404811115620001bc57620001bb620001d3565b5b81810290505b9392505050565b6000819050919050565b7f4e487b7100000000000000000000000000000000000000000000000000000000600052601160045260246000fd5b60008160011c9050919050565b61172f806200021f6000396000f3fe608060405234801561001057600080fd5b50600436106100b45760003560e01c80636ffd773c116100715780636ffd773c146101b25780637168b5a8146101ce578063a6a2c234146101ea578063aa5ddcdd14610208578063ab88ddf214610224578063b32e737f14610254576100b4565b80630dedffb8146100b95780632052465e146100d557806351d240d314610106578063528b7b8f1461013657806355d42133146101665780635c18472514610196575b600080fd5b6100d360048036038101906100ce91906110cb565b610272565b005b6100ef60048036038101906100ea9190611066565b61039e565b6040516100fd9291906112e2565b60405180910390f35b610120600480360381019061011b9190611066565b61045a565b60405161012d91906111a6565b60405180910390f35b610150600480360381019061014b9190611066565b61048d565b60405161015d91906111a6565b60405180910390f35b610180600480360381019061017b9190610fa8565b6104c0565b60405161018d9190611312565b60405180910390f35b6101b060048036038101906101ab9190610fd1565b610548565b005b6101cc60048036038101906101c79190611066565b6105ee565b005b6101e860048036038101906101e3919061108f565b610635565b005b6101f261073a565b6040516101ff9190611312565b60405180910390f35b610222600480360381019061021d9190611012565b6107bf565b005b61023e60048036038101906102399190610fa8565b6107ed565b60405161024b9190611312565b60405180910390f35b61025c610805565b6040516102699190611312565b60405180910390f35b6003600083815260200190815260200160002060009054906101000a900473ffffffffffffffffffffffffffffffffffffffff1673ffffffffffffffffffffffffffffffffffffffff163373ffffffffffffffffffffffffffffffffffffffff16146102dd57600080fd5b600060028381548110610319577f4e487b7100000000000000000000000000000000000000000000000000000000600052603260045260246000fd5b906000526020600020906002020190506001548261033791906115cd565b91506000600283836001015461034d91906113e8565b610357919061143e565b90506103986040518060400160405280600681526020017f4e6f4e616d6500000000000000000000000000000000000000000000000000008152508261084c565b50505050565b600281815481106103ae57600080fd5b90600052602060002090600202016000915090508060000180546103d190611521565b80601f01602080910402602001604051908101604052809291908181526020018280546103fd90611521565b801561044a5780601f1061041f5761010080835404028352916020019161044a565b820191906000526020600020905b81548152906001019060200180831161042d57829003601f168201915b5050505050908060010154905082565b60066020528060005260406000206000915054906101000a900473ffffffffffffffffffffffffffffffffffffffff1681565b60036020528060005260406000206000915054906101000a900473ffffffffffffffffffffffffffffffffffffffff1681565b60006105016040518060400160405280600e81526020017f456e206765745a6f6d626965496400000000000000000000000000000000000081525083610ab3565b600760008373ffffffffffffffffffffffffffffffffffffffff1673ffffffffffffffffffffffffffffffffffffffff168152602001908152602001600020549050919050565b6105876040518060400160405280601481526020017f456e20637265617252616e646f6d5a6f6d62696500000000000000000000000081525082610b4f565b6000600460003373ffffffffffffffffffffffffffffffffffffffff1673ffffffffffffffffffffffffffffffffffffffff16815260200190815260200160002054146105d357600080fd5b60006105de82610beb565b90506105ea828261084c565b5050565b80600560003373ffffffffffffffffffffffffffffffffffffffff1673ffffffffffffffffffffffffffffffffffffffff1681526020019081526020016000208190555050565b6003600083815260200190815260200160002060009054906101000a900473ffffffffffffffffffffffffffffffffffffffff1673ffffffffffffffffffffffffffffffffffffffff163373ffffffffffffffffffffffffffffffffffffffff16146106a057600080fd5b806006600084815260200190815260200160002060006101000a81548173ffffffffffffffffffffffffffffffffffffffff021916908373ffffffffffffffffffffffffffffffffffffffff16021790555081600760008373ffffffffffffffffffffffffffffffffffffffff1673ffffffffffffffffffffffffffffffffffffffff168152602001908152602001600020819055505050565b600061077a6040518060400160405280601681526020017f456e206375616e746f735a6f6d6269657354656e676f00000000000000000000815250610c70565b600460003373ffffffffffffffffffffffffffffffffffffffff1673ffffffffffffffffffffffffffffffffffffffff16815260200190815260200160002054905090565b6107c882610548565b600060016002805490506107dc919061146f565b90506107e88183610635565b505050565b60076020528060005260406000206000915090505481565b6000600560003373ffffffffffffffffffffffffffffffffffffffff1673ffffffffffffffffffffffffffffffffffffffff16815260200190815260200160002054905090565b6108c26040518060400160405280601681526020017f456e205f63726561725a6f6d626965205f6e616d653a00000000000000000000815250836040518060400160405280600581526020017f5f646e613a00000000000000000000000000000000000000000000000000000081525084610d09565b6000604051806040016040528084815260200183815250905060028190806001815401808255809150506001900390600052602060002090600202016000909190919091506000820151816000019080519060200190610923929190610e73565b5060208201518160010155505060006001600280549050610944919061146f565b90507f88f026aacbbecc90c18411df4b1185fd8d9be2470f1962f192bf84a27d0704b78185856040516109799392919061132d565b60405180910390a1336003600083815260200190815260200160002060006101000a81548173ffffffffffffffffffffffffffffffffffffffff021916908373ffffffffffffffffffffffffffffffffffffffff160217905550600460003373ffffffffffffffffffffffffffffffffffffffff1673ffffffffffffffffffffffffffffffffffffffff1681526020019081526020016000206000815480929190610a2390611584565b91905055506000600460003373ffffffffffffffffffffffffffffffffffffffff1673ffffffffffffffffffffffffffffffffffffffff168152602001908152602001600020549050610aac6040518060400160405280602081526020017f50726f706965746172696f202573207469656e65202564207a6f6d626965732e8152503383610dab565b5050505050565b610b4b8282604051602401610ac99291906111e3565b6040516020818303038152906040527f319af333000000000000000000000000000000000000000000000000000000007bffffffffffffffffffffffffffffffffffffffffffffffffffffffff19166020820180517bffffffffffffffffffffffffffffffffffffffffffffffffffffffff8381831617835250505050610e4a565b5050565b610be78282604051602401610b65929190611251565b6040516020818303038152906040527f4b5c4277000000000000000000000000000000000000000000000000000000007bffffffffffffffffffffffffffffffffffffffffffffffffffffffff19166020820180517bffffffffffffffffffffffffffffffffffffffffffffffffffffffff8381831617835250505050610e4a565b5050565b6000610c2c6040518060400160405280601581526020017f456e205f67656e657261746552616e646f6d446e61000000000000000000000081525083610b4f565b600082604051602001610c3f919061118f565b6040516020818303038152906040528051906020012060001c905060015481610c6891906115cd565b915050919050565b610d0681604051602401610c8491906111c1565b6040516020818303038152906040527f41304fac000000000000000000000000000000000000000000000000000000007bffffffffffffffffffffffffffffffffffffffffffffffffffffffff19166020820180517bffffffffffffffffffffffffffffffffffffffffffffffffffffffff8381831617835250505050610e4a565b50565b610da584848484604051602401610d239493929190611288565b6040516020818303038152906040527f8eafb02b000000000000000000000000000000000000000000000000000000007bffffffffffffffffffffffffffffffffffffffffffffffffffffffff19166020820180517bffffffffffffffffffffffffffffffffffffffffffffffffffffffff8381831617835250505050610e4a565b50505050565b610e45838383604051602401610dc393929190611213565b6040516020818303038152906040527f0d26b925000000000000000000000000000000000000000000000000000000007bffffffffffffffffffffffffffffffffffffffffffffffffffffffff19166020820180517bffffffffffffffffffffffffffffffffffffffffffffffffffffffff8381831617835250505050610e4a565b505050565b60008151905060006a636f6e736f6c652e6c6f679050602083016000808483855afa5050505050565b828054610e7f90611521565b90600052602060002090601f016020900481019282610ea15760008555610ee8565b82601f10610eba57805160ff1916838001178555610ee8565b82800160010185558215610ee8579182015b82811115610ee7578251825591602001919060010190610ecc565b5b509050610ef59190610ef9565b5090565b5b80821115610f12576000816000905550600101610efa565b5090565b6000610f29610f2484611390565b61136b565b905082815260208101848484011115610f4157600080fd5b610f4c8482856114df565b509392505050565b600081359050610f63816116cb565b92915050565b600082601f830112610f7a57600080fd5b8135610f8a848260208601610f16565b91505092915050565b600081359050610fa2816116e2565b92915050565b600060208284031215610fba57600080fd5b6000610fc884828501610f54565b91505092915050565b600060208284031215610fe357600080fd5b600082013567ffffffffffffffff811115610ffd57600080fd5b61100984828501610f69565b91505092915050565b6000806040838503121561102557600080fd5b600083013567ffffffffffffffff81111561103f57600080fd5b61104b85828601610f69565b925050602061105c85828601610f54565b9150509250929050565b60006020828403121561107857600080fd5b600061108684828501610f93565b91505092915050565b600080604083850312156110a257600080fd5b60006110b085828601610f93565b92505060206110c185828601610f54565b9150509250929050565b600080604083850312156110de57600080fd5b60006110ec85828601610f93565b92505060206110fd85828601610f93565b9150509250929050565b611110816114a3565b82525050565b6000611121826113c1565b61112b81856113cc565b935061113b8185602086016114ee565b611144816116ba565b840191505092915050565b600061115a826113c1565b61116481856113dd565b93506111748185602086016114ee565b80840191505092915050565b611189816114d5565b82525050565b600061119b828461114f565b915081905092915050565b60006020820190506111bb6000830184611107565b92915050565b600060208201905081810360008301526111db8184611116565b905092915050565b600060408201905081810360008301526111fd8185611116565b905061120c6020830184611107565b9392505050565b6000606082019050818103600083015261122d8186611116565b905061123c6020830185611107565b6112496040830184611180565b949350505050565b6000604082019050818103600083015261126b8185611116565b9050818103602083015261127f8184611116565b90509392505050565b600060808201905081810360008301526112a28187611116565b905081810360208301526112b68186611116565b905081810360408301526112ca8185611116565b90506112d96060830184611180565b95945050505050565b600060408201905081810360008301526112fc8185611116565b905061130b6020830184611180565b9392505050565b60006020820190506113276000830184611180565b92915050565b60006060820190506113426000830186611180565b81810360208301526113548185611116565b90506113636040830184611180565b949350505050565b6000611375611386565b90506113818282611553565b919050565b6000604051905090565b600067ffffffffffffffff8211156113ab576113aa61168b565b5b6113b4826116ba565b9050602081019050919050565b600081519050919050565b600082825260208201905092915050565b600081905092915050565b60006113f3826114d5565b91506113fe836114d5565b9250827fffffffffffffffffffffffffffffffffffffffffffffffffffffffffffffffff03821115611433576114326115fe565b5b828201905092915050565b6000611449826114d5565b9150611454836114d5565b9250826114645761146361162d565b5b828204905092915050565b600061147a826114d5565b9150611485836114d5565b925082821015611498576114976115fe565b5b828203905092915050565b60006114ae826114b5565b9050919050565b600073ffffffffffffffffffffffffffffffffffffffff82169050919050565b6000819050919050565b82818337600083830152505050565b60005b8381101561150c5780820151818401526020810190506114f1565b8381111561151b576000848401525b50505050565b6000600282049050600182168061153957607f821691505b6020821081141561154d5761154c61165c565b5b50919050565b61155c826116ba565b810181811067ffffffffffffffff8211171561157b5761157a61168b565b5b80604052505050565b600061158f826114d5565b91507fffffffffffffffffffffffffffffffffffffffffffffffffffffffffffffffff8214156115c2576115c16115fe565b5b600182019050919050565b60006115d8826114d5565b91506115e3836114d5565b9250826115f3576115f261162d565b5b828206905092915050565b7f4e487b7100000000000000000000000000000000000000000000000000000000600052601160045260246000fd5b7f4e487b7100000000000000000000000000000000000000000000000000000000600052601260045260246000fd5b7f4e487b7100000000000000000000000000000000000000000000000000000000600052602260045260246000fd5b7f4e487b7100000000000000000000000000000000000000000000000000000000600052604160045260246000fd5b6000601f19601f8301169050919050565b6116d4816114a3565b81146116df57600080fd5b50565b6116eb816114d5565b81146116f657600080fd5b5056fea2646970667358221220cc8808724e47fdae3fedada80a572ebf2dfedc2a105fa79fdb5eb99daf81790c64736f6c63430008040033",
  "linkReferences": {},
  "deployedLinkReferences": {}
}