{
  "_format": "hh-sol-artifact-1",
  "contractName": "TicketSystem",
  "sourceName": "contracts/TicketSystem.sol",
  "abi": [
    {
      "inputs": [
        {
          "internalType": "uint256",
          "name": "_priceToPay",
          "type": "uint256"
        }
      ],
      "stateMutability": "payable",
      "type": "constructor"
    },
    {
      "anonymous": false,
      "inputs": [
        {
          "indexed": true,
          "internalType": "address",
          "name": "owner",
          "type": "address"
        },
        {
          "indexed": true,
          "internalType": "address",
          "name": "approved",
          "type": "address"
        },
        {
          "indexed": true,
          "internalType": "uint256",
          "name": "tokenId",
          "type": "uint256"
        }
      ],
      "name": "Approval",
      "type": "event"
    },
    {
      "anonymous": false,
      "inputs": [
        {
          "indexed": true,
          "internalType": "address",
          "name": "owner",
          "type": "address"
        },
        {
          "indexed": true,
          "internalType": "address",
          "name": "operator",
          "type": "address"
        },
        {
          "indexed": false,
          "internalType": "bool",
          "name": "approved",
          "type": "bool"
        }
      ],
      "name": "ApprovalForAll",
      "type": "event"
    },
    {
      "anonymous": false,
      "inputs": [
        {
          "indexed": true,
          "internalType": "address",
          "name": "previousOwner",
          "type": "address"
        },
        {
          "indexed": true,
          "internalType": "address",
          "name": "newOwner",
          "type": "address"
        }
      ],
      "name": "OwnershipTransferred",
      "type": "event"
    },
    {
      "anonymous": false,
      "inputs": [
        {
          "indexed": true,
          "internalType": "address",
          "name": "from",
          "type": "address"
        },
        {
          "indexed": true,
          "internalType": "address",
          "name": "to",
          "type": "address"
        },
        {
          "indexed": true,
          "internalType": "uint256",
          "name": "tokenId",
          "type": "uint256"
        }
      ],
      "name": "Transfer",
      "type": "event"
    },
    {
      "inputs": [
        {
          "internalType": "address",
          "name": "to",
          "type": "address"
        },
        {
          "internalType": "uint256",
          "name": "tokenId",
          "type": "uint256"
        }
      ],
      "name": "approve",
      "outputs": [],
      "stateMutability": "nonpayable",
      "type": "function"
    },
    {
      "inputs": [
        {
          "internalType": "address",
          "name": "owner",
          "type": "address"
        }
      ],
      "name": "balanceOf",
      "outputs": [
        {
          "internalType": "uint256",
          "name": "",
          "type": "uint256"
        }
      ],
      "stateMutability": "view",
      "type": "function"
    },
    {
      "inputs": [],
      "name": "buyToken",
      "outputs": [],
      "stateMutability": "payable",
      "type": "function"
    },
    {
      "inputs": [
        {
          "internalType": "uint256",
          "name": "",
          "type": "uint256"
        }
      ],
      "name": "clientData",
      "outputs": [
        {
          "internalType": "string",
          "name": "fullName",
          "type": "string"
        },
        {
          "internalType": "string",
          "name": "fisicalAddress",
          "type": "string"
        },
        {
          "internalType": "string",
          "name": "telefone",
          "type": "string"
        }
      ],
      "stateMutability": "view",
      "type": "function"
    },
    {
      "inputs": [],
      "name": "contractAddress",
      "outputs": [
        {
          "internalType": "address payable",
          "name": "",
          "type": "address"
        }
      ],
      "stateMutability": "view",
      "type": "function"
    },
    {
      "inputs": [
        {
          "internalType": "string",
          "name": "_fullName",
          "type": "string"
        },
        {
          "internalType": "string",
          "name": "_fisicalAddress",
          "type": "string"
        },
        {
          "internalType": "string",
          "name": "_telefone",
          "type": "string"
        }
      ],
      "name": "createClient",
      "outputs": [],
      "stateMutability": "nonpayable",
      "type": "function"
    },
    {
      "inputs": [
        {
          "internalType": "address",
          "name": "_account",
          "type": "address"
        },
        {
          "internalType": "uint256",
          "name": "_tokenId",
          "type": "uint256"
        }
      ],
      "name": "createTokenDNA",
      "outputs": [
        {
          "internalType": "uint256",
          "name": "",
          "type": "uint256"
        }
      ],
      "stateMutability": "pure",
      "type": "function"
    },
    {
      "inputs": [
        {
          "internalType": "uint256",
          "name": "tokenId",
          "type": "uint256"
        }
      ],
      "name": "getApproved",
      "outputs": [
        {
          "internalType": "address",
          "name": "",
          "type": "address"
        }
      ],
      "stateMutability": "view",
      "type": "function"
    },
    {
      "inputs": [],
      "name": "getBalance",
      "outputs": [
        {
          "internalType": "uint256",
          "name": "",
          "type": "uint256"
        }
      ],
      "stateMutability": "view",
      "type": "function"
    },
    {
      "inputs": [
        {
          "internalType": "address",
          "name": "owner",
          "type": "address"
        },
        {
          "internalType": "address",
          "name": "operator",
          "type": "address"
        }
      ],
      "name": "isApprovedForAll",
      "outputs": [
        {
          "internalType": "bool",
          "name": "",
          "type": "bool"
        }
      ],
      "stateMutability": "view",
      "type": "function"
    },
    {
      "inputs": [],
      "name": "name",
      "outputs": [
        {
          "internalType": "string",
          "name": "",
          "type": "string"
        }
      ],
      "stateMutability": "view",
      "type": "function"
    },
    {
      "inputs": [],
      "name": "owner",
      "outputs": [
        {
          "internalType": "address",
          "name": "",
          "type": "address"
        }
      ],
      "stateMutability": "view",
      "type": "function"
    },
    {
      "inputs": [],
      "name": "ownerAddress",
      "outputs": [
        {
          "internalType": "address payable",
          "name": "",
          "type": "address"
        }
      ],
      "stateMutability": "view",
      "type": "function"
    },
    {
      "inputs": [
        {
          "internalType": "uint256",
          "name": "tokenId",
          "type": "uint256"
        }
      ],
      "name": "ownerOf",
      "outputs": [
        {
          "internalType": "address",
          "name": "",
          "type": "address"
        }
      ],
      "stateMutability": "view",
      "type": "function"
    },
    {
      "inputs": [],
      "name": "priceToPay",
      "outputs": [
        {
          "internalType": "uint256",
          "name": "",
          "type": "uint256"
        }
      ],
      "stateMutability": "view",
      "type": "function"
    },
    {
      "inputs": [
        {
          "internalType": "uint256",
          "name": "tokenId",
          "type": "uint256"
        }
      ],
      "name": "redeem",
      "outputs": [],
      "stateMutability": "nonpayable",
      "type": "function"
    },
    {
      "inputs": [],
      "name": "renounceOwnership",
      "outputs": [],
      "stateMutability": "nonpayable",
      "type": "function"
    },
    {
      "inputs": [],
      "name": "safeMint",
      "outputs": [],
      "stateMutability": "nonpayable",
      "type": "function"
    },
    {
      "inputs": [
        {
          "internalType": "address",
          "name": "from",
          "type": "address"
        },
        {
          "internalType": "address",
          "name": "to",
          "type": "address"
        },
        {
          "internalType": "uint256",
          "name": "tokenId",
          "type": "uint256"
        }
      ],
      "name": "safeTransferFrom",
      "outputs": [],
      "stateMutability": "nonpayable",
      "type": "function"
    },
    {
      "inputs": [
        {
          "internalType": "address",
          "name": "from",
          "type": "address"
        },
        {
          "internalType": "address",
          "name": "to",
          "type": "address"
        },
        {
          "internalType": "uint256",
          "name": "tokenId",
          "type": "uint256"
        },
        {
          "internalType": "bytes",
          "name": "data",
          "type": "bytes"
        }
      ],
      "name": "safeTransferFrom",
      "outputs": [],
      "stateMutability": "nonpayable",
      "type": "function"
    },
    {
      "inputs": [],
      "name": "sendClient",
      "outputs": [
        {
          "components": [
            {
              "internalType": "string",
              "name": "fullName",
              "type": "string"
            },
            {
              "internalType": "string",
              "name": "fisicalAddress",
              "type": "string"
            },
            {
              "internalType": "string",
              "name": "telefone",
              "type": "string"
            }
          ],
          "internalType": "struct TicketSystem.client",
          "name": "",
          "type": "tuple"
        }
      ],
      "stateMutability": "view",
      "type": "function"
    },
    {
      "inputs": [
        {
          "internalType": "address payable",
          "name": "_to",
          "type": "address"
        },
        {
          "internalType": "uint256",
          "name": "_priceToPay",
          "type": "uint256"
        }
      ],
      "name": "sendEther",
      "outputs": [
        {
          "internalType": "bool",
          "name": "",
          "type": "bool"
        }
      ],
      "stateMutability": "payable",
      "type": "function"
    },
    {
      "inputs": [
        {
          "internalType": "address",
          "name": "operator",
          "type": "address"
        },
        {
          "internalType": "bool",
          "name": "approved",
          "type": "bool"
        }
      ],
      "name": "setApprovalForAll",
      "outputs": [],
      "stateMutability": "nonpayable",
      "type": "function"
    },
    {
      "inputs": [
        {
          "internalType": "uint256",
          "name": "_priceToPay",
          "type": "uint256"
        }
      ],
      "name": "setPriceToPay",
      "outputs": [],
      "stateMutability": "nonpayable",
      "type": "function"
    },
    {
      "inputs": [
        {
          "internalType": "bytes4",
          "name": "interfaceId",
          "type": "bytes4"
        }
      ],
      "name": "supportsInterface",
      "outputs": [
        {
          "internalType": "bool",
          "name": "",
          "type": "bool"
        }
      ],
      "stateMutability": "view",
      "type": "function"
    },
    {
      "inputs": [],
      "name": "symbol",
      "outputs": [
        {
          "internalType": "string",
          "name": "",
          "type": "string"
        }
      ],
      "stateMutability": "view",
      "type": "function"
    },
    {
      "inputs": [
        {
          "internalType": "uint256",
          "name": "index",
          "type": "uint256"
        }
      ],
      "name": "tokenByIndex",
      "outputs": [
        {
          "internalType": "uint256",
          "name": "",
          "type": "uint256"
        }
      ],
      "stateMutability": "view",
      "type": "function"
    },
    {
      "inputs": [
        {
          "internalType": "address",
          "name": "owner",
          "type": "address"
        },
        {
          "internalType": "uint256",
          "name": "index",
          "type": "uint256"
        }
      ],
      "name": "tokenOfOwnerByIndex",
      "outputs": [
        {
          "internalType": "uint256",
          "name": "",
          "type": "uint256"
        }
      ],
      "stateMutability": "view",
      "type": "function"
    },
    {
      "inputs": [
        {
          "internalType": "uint256",
          "name": "",
          "type": "uint256"
        }
      ],
      "name": "tokenSerial",
      "outputs": [
        {
          "internalType": "uint256",
          "name": "",
          "type": "uint256"
        }
      ],
      "stateMutability": "view",
      "type": "function"
    },
    {
      "inputs": [
        {
          "internalType": "uint256",
          "name": "tokenId",
          "type": "uint256"
        }
      ],
      "name": "tokenURI",
      "outputs": [
        {
          "internalType": "string",
          "name": "",
          "type": "string"
        }
      ],
      "stateMutability": "view",
      "type": "function"
    },
    {
      "inputs": [],
      "name": "totalSupply",
      "outputs": [
        {
          "internalType": "uint256",
          "name": "",
          "type": "uint256"
        }
      ],
      "stateMutability": "view",
      "type": "function"
    },
    {
      "inputs": [
        {
          "internalType": "address",
          "name": "from",
          "type": "address"
        },
        {
          "internalType": "address",
          "name": "to",
          "type": "address"
        },
        {
          "internalType": "uint256",
          "name": "tokenId",
          "type": "uint256"
        }
      ],
      "name": "transferFrom",
      "outputs": [],
      "stateMutability": "nonpayable",
      "type": "function"
    },
    {
      "inputs": [
        {
          "internalType": "address",
          "name": "newOwner",
          "type": "address"
        }
      ],
      "name": "transferOwnership",
      "outputs": [],
      "stateMutability": "nonpayable",
      "type": "function"
    },
    {
      "inputs": [],
      "name": "withdrawBalance",
      "outputs": [],
      "stateMutability": "nonpayable",
      "type": "function"
    },
    {
      "inputs": [
        {
          "internalType": "address payable",
          "name": "_to",
          "type": "address"
        },
        {
          "internalType": "uint256",
          "name": "_amount",
          "type": "uint256"
        }
      ],
      "name": "withdrawEther",
      "outputs": [
        {
          "internalType": "bool",
          "name": "",
          "type": "bool"
        }
      ],
      "stateMutability": "payable",
      "type": "function"
    },
    {
      "stateMutability": "payable",
      "type": "receive"
    }
  ],
  "bytecode": "0x60806040526000600b60006101000a81548160ff021916908315150217905550604051620054d0380380620054d0833981810160405281019062000044919062000329565b6040518060400160405280600981526020017f546f6b656e4e616d6500000000000000000000000000000000000000000000008152506040518060400160405280600381526020017f544e4d00000000000000000000000000000000000000000000000000000000008152508160009080519060200190620000c892919062000262565b508060019080519060200190620000e192919062000262565b50505062000104620000f86200019460201b60201c565b6200019c60201b60201c565b8060118190555033601260006101000a81548173ffffffffffffffffffffffffffffffffffffffff021916908373ffffffffffffffffffffffffffffffffffffffff16021790555030601360006101000a81548173ffffffffffffffffffffffffffffffffffffffff021916908373ffffffffffffffffffffffffffffffffffffffff16021790555050620003de565b600033905090565b6000600660009054906101000a900473ffffffffffffffffffffffffffffffffffffffff16905081600660006101000a81548173ffffffffffffffffffffffffffffffffffffffff021916908373ffffffffffffffffffffffffffffffffffffffff1602179055508173ffffffffffffffffffffffffffffffffffffffff168173ffffffffffffffffffffffffffffffffffffffff167f8be0079c531659141344cd1fd0a4f28419497f9722a3daafe3b4186f6b6457e060405160405180910390a35050565b82805462000270906200035f565b90600052602060002090601f016020900481019282620002945760008555620002e0565b82601f10620002af57805160ff1916838001178555620002e0565b82800160010185558215620002e0579182015b82811115620002df578251825591602001919060010190620002c2565b5b509050620002ef9190620002f3565b5090565b5b808211156200030e576000816000905550600101620002f4565b5090565b6000815190506200032381620003c4565b92915050565b6000602082840312156200033c57600080fd5b60006200034c8482850162000312565b91505092915050565b6000819050919050565b600060028204905060018216806200037857607f821691505b602082108114156200038f576200038e62000395565b5b50919050565b7f4e487b7100000000000000000000000000000000000000000000000000000000600052602260045260246000fd5b620003cf8162000355565b8114620003db57600080fd5b50565b6150e280620003ee6000396000f3fe6080604052600436106102085760003560e01c80636871ee4011610118578063a4821719116100a0578063c87b56dd1161006f578063c87b56dd14610761578063db006a751461079e578063e985e9c5146107c7578063f2fde38b14610804578063f6b4dfb41461082d5761020f565b8063a4821719146106bf578063b88d4fde146106c9578063bd8edf15146106f2578063c1756a2c146107315761020f565b80638da5cb5b116100e75780638da5cb5b146105d85780638f84aa091461060357806395d89b411461062e5780639b3ee2c314610659578063a22cb465146106965761020f565b80636871ee401461054257806370a0823114610559578063715018a614610596578063760839a0146105ad5761020f565b806323b872dd1161019b57806342842e0e1161016a57806342842e0e146104585780634f6ccce714610481578063522f6815146104be5780635fd8c710146104ee5780636352211e146105055761020f565b806323b872dd146103a05780632eed7269146103c95780632f745c59146103f2578063351bec6b1461042f5761020f565b8063098215e5116101d7578063098215e5146102e257806312065fe01461030d578063177e40251461033857806318160ddd146103755761020f565b806301ffc9a71461021457806306fdde0314610251578063081812fc1461027c578063095ea7b3146102b95761020f565b3661020f57005b600080fd5b34801561022057600080fd5b5061023b60048036038101906102369190613ac6565b610858565b60405161024891906141f5565b60405180910390f35b34801561025d57600080fd5b5061026661086a565b6040516102739190614210565b60405180910390f35b34801561028857600080fd5b506102a3600480360381019061029e9190613baf565b6108fc565b6040516102b09190614173565b60405180910390f35b3480156102c557600080fd5b506102e060048036038101906102db9190613a8a565b610942565b005b3480156102ee57600080fd5b506102f7610a5a565b60405161030491906145a0565b60405180910390f35b34801561031957600080fd5b50610322610a60565b60405161032f91906145a0565b60405180910390f35b34801561034457600080fd5b5061035f600480360381019061035a9190613a8a565b610a68565b60405161036c91906145a0565b60405180910390f35b34801561038157600080fd5b5061038a610ace565b60405161039791906145a0565b60405180910390f35b3480156103ac57600080fd5b506103c760048036038101906103c29190613984565b610adb565b005b3480156103d557600080fd5b506103f060048036038101906103eb9190613b18565b610b3b565b005b3480156103fe57600080fd5b5061041960048036038101906104149190613a8a565b610be9565b60405161042691906145a0565b60405180910390f35b34801561043b57600080fd5b5061045660048036038101906104519190613baf565b610c8e565b005b34801561046457600080fd5b5061047f600480360381019061047a9190613984565b610ca0565b005b34801561048d57600080fd5b506104a860048036038101906104a39190613baf565b610cc0565b6040516104b591906145a0565b60405180910390f35b6104d860048036038101906104d3919061390c565b610d57565b6040516104e591906141f5565b60405180910390f35b3480156104fa57600080fd5b50610503610ed7565b005b34801561051157600080fd5b5061052c60048036038101906105279190613baf565b610f76565b6040516105399190614173565b60405180910390f35b34801561054e57600080fd5b50610557610ffd565b005b34801561056557600080fd5b50610580600480360381019061057b91906138e3565b61104b565b60405161058d91906145a0565b60405180910390f35b3480156105a257600080fd5b506105ab611103565b005b3480156105b957600080fd5b506105c2611117565b6040516105cf919061457e565b60405180910390f35b3480156105e457600080fd5b506105ed6112e7565b6040516105fa9190614173565b60405180910390f35b34801561060f57600080fd5b50610618611311565b604051610625919061418e565b60405180910390f35b34801561063a57600080fd5b50610643611337565b6040516106509190614210565b60405180910390f35b34801561066557600080fd5b50610680600480360381019061067b9190613baf565b6113c9565b60405161068d91906145a0565b60405180910390f35b3480156106a257600080fd5b506106bd60048036038101906106b89190613a4e565b6113e1565b005b6106c76113f7565b005b3480156106d557600080fd5b506106f060048036038101906106eb91906139d3565b6114f4565b005b3480156106fe57600080fd5b5061071960048036038101906107149190613baf565b611556565b60405161072893929190614232565b60405180910390f35b61074b6004803603810190610746919061390c565b611718565b60405161075891906141f5565b60405180910390f35b34801561076d57600080fd5b5061078860048036038101906107839190613baf565b611898565b6040516107959190614210565b60405180910390f35b3480156107aa57600080fd5b506107c560048036038101906107c09190613baf565b611938565b005b3480156107d357600080fd5b506107ee60048036038101906107e99190613948565b611a5c565b6040516107fb91906141f5565b60405180910390f35b34801561081057600080fd5b5061082b600480360381019061082691906138e3565b611af0565b005b34801561083957600080fd5b50610842611b74565b60405161084f919061418e565b60405180910390f35b600061086382611b9a565b9050919050565b6060600080546108799061487e565b80601f01602080910402602001604051908101604052809291908181526020018280546108a59061487e565b80156108f25780601f106108c7576101008083540402835291602001916108f2565b820191906000526020600020905b8154815290600101906020018083116108d557829003601f168201915b5050505050905090565b600061090782611c14565b6004600083815260200190815260200160002060009054906101000a900473ffffffffffffffffffffffffffffffffffffffff169050919050565b600061094d82610f76565b90508073ffffffffffffffffffffffffffffffffffffffff168373ffffffffffffffffffffffffffffffffffffffff1614156109be576040517f08c379a00000000000000000000000000000000000000000000000000000000081526004016109b59061447e565b60405180910390fd5b8073ffffffffffffffffffffffffffffffffffffffff166109dd611c5f565b73ffffffffffffffffffffffffffffffffffffffff161480610a0c5750610a0b81610a06611c5f565b611a5c565b5b610a4b576040517f08c379a0000000000000000000000000000000000000000000000000000000008152600401610a42906144be565b60405180910390fd5b610a558383611c67565b505050565b60115481565b600047905090565b6000808373ffffffffffffffffffffffffffffffffffffffff1683610a8d91906146a1565b9050600081604051602001610aa29190614158565b60405160208183030381529060405290506000818051906020012090508060001c935050505092915050565b6000600980549050905090565b610aec610ae6611c5f565b82611d20565b610b2b576040517f08c379a0000000000000000000000000000000000000000000000000000000008152600401610b229061427e565b60405180910390fd5b610b36838383611db5565b505050565b610b436120af565b6000610b4f600d61212d565b9050604051806060016040528085815260200184815260200183815250601060008381526020019081526020016000206000820151816000019080519060200190610b9b929190613644565b506020820151816001019080519060200190610bb8929190613644565b506040820151816002019080519060200190610bd5929190613644565b50905050610be3600d61213b565b50505050565b6000610bf48361104b565b8210610c35576040517f08c379a0000000000000000000000000000000000000000000000000000000008152600401610c2c9061429e565b60405180910390fd5b600760008473ffffffffffffffffffffffffffffffffffffffff1673ffffffffffffffffffffffffffffffffffffffff168152602001908152602001600020600083815260200190815260200160002054905092915050565b610c966120af565b8060118190555050565b610cbb838383604051806020016040528060008152506114f4565b505050565b6000610cca610ace565b8210610d0b576040517f08c379a0000000000000000000000000000000000000000000000000000000008152600401610d02906144de565b60405180910390fd5b60098281548110610d45577f4e487b7100000000000000000000000000000000000000000000000000000000600052603260045260246000fd5b90600052602060002001549050919050565b6000600b60009054906101000a900460ff1615610da9576040517f08c379a0000000000000000000000000000000000000000000000000000000008152600401610da09061451e565b60405180910390fd5b6001600b60006101000a81548160ff021916908315150217905550813414610e06576040517f08c379a0000000000000000000000000000000000000000000000000000000008152600401610dfd9061441e565b60405180910390fd5b60008373ffffffffffffffffffffffffffffffffffffffff1683604051610e2c90614143565b60006040518083038185875af1925050503d8060008114610e69576040519150601f19603f3d011682016040523d82523d6000602084013e610e6e565b606091505b5050905080610eb2576040517f08c379a0000000000000000000000000000000000000000000000000000000008152600401610ea99061453e565b60405180910390fd5b6000600b60006101000a81548160ff0219169083151502179055508091505092915050565b610edf6120af565b6000601360009054906101000a900473ffffffffffffffffffffffffffffffffffffffff1673ffffffffffffffffffffffffffffffffffffffff1631905060006064600a83610f2e9190614728565b610f3891906146f7565b82610f439190614782565b9050610f71601260009054906101000a900473ffffffffffffffffffffffffffffffffffffffff1682610d57565b505050565b600080610f8283612151565b9050600073ffffffffffffffffffffffffffffffffffffffff168173ffffffffffffffffffffffffffffffffffffffff161415610ff4576040517f08c379a0000000000000000000000000000000000000000000000000000000008152600401610feb9061445e565b60405180910390fd5b80915050919050565b6110056120af565b6000611011600c61212d565b905061101d3382610a68565b600f60008381526020019081526020016000208190555061103e338261218e565b611048600c61213b565b50565b60008073ffffffffffffffffffffffffffffffffffffffff168273ffffffffffffffffffffffffffffffffffffffff1614156110bc576040517f08c379a00000000000000000000000000000000000000000000000000000000081526004016110b39061439e565b60405180910390fd5b600360008373ffffffffffffffffffffffffffffffffffffffff1673ffffffffffffffffffffffffffffffffffffffff168152602001908152602001600020549050919050565b61110b6120af565b61111560006121ac565b565b61111f6136ca565b601460405180606001604052908160008201805461113c9061487e565b80601f01602080910402602001604051908101604052809291908181526020018280546111689061487e565b80156111b55780601f1061118a576101008083540402835291602001916111b5565b820191906000526020600020905b81548152906001019060200180831161119857829003601f168201915b505050505081526020016001820180546111ce9061487e565b80601f01602080910402602001604051908101604052809291908181526020018280546111fa9061487e565b80156112475780601f1061121c57610100808354040283529160200191611247565b820191906000526020600020905b81548152906001019060200180831161122a57829003601f168201915b505050505081526020016002820180546112609061487e565b80601f016020809104026020016040519081016040528092919081815260200182805461128c9061487e565b80156112d95780601f106112ae576101008083540402835291602001916112d9565b820191906000526020600020905b8154815290600101906020018083116112bc57829003601f168201915b505050505081525050905090565b6000600660009054906101000a900473ffffffffffffffffffffffffffffffffffffffff16905090565b601260009054906101000a900473ffffffffffffffffffffffffffffffffffffffff1681565b6060600180546113469061487e565b80601f01602080910402602001604051908101604052809291908181526020018280546113729061487e565b80156113bf5780601f10611394576101008083540402835291602001916113bf565b820191906000526020600020905b8154815290600101906020018083116113a257829003601f168201915b5050505050905090565b600f6020528060005260406000206000915090505481565b6113f36113ec611c5f565b8383612272565b5050565b60003390506011543414611440576040517f08c379a00000000000000000000000000000000000000000000000000000000081526004016114379061449e565b60405180910390fd5b61146e601260009054906101000a900473ffffffffffffffffffffffffffffffffffffffff16601154611718565b6114ad576040517f08c379a00000000000000000000000000000000000000000000000000000000081526004016114a4906143de565b60405180910390fd5b60006114b9600c61212d565b90506114c58282610a68565b600f6000838152602001908152602001600020819055506114e6828261218e565b6114f0600c61213b565b5050565b6115056114ff611c5f565b83611d20565b611544576040517f08c379a000000000000000000000000000000000000000000000000000000000815260040161153b9061427e565b60405180910390fd5b611550848484846123df565b50505050565b60106020528060005260406000206000915090508060000180546115799061487e565b80601f01602080910402602001604051908101604052809291908181526020018280546115a59061487e565b80156115f25780601f106115c7576101008083540402835291602001916115f2565b820191906000526020600020905b8154815290600101906020018083116115d557829003601f168201915b5050505050908060010180546116079061487e565b80601f01602080910402602001604051908101604052809291908181526020018280546116339061487e565b80156116805780601f1061165557610100808354040283529160200191611680565b820191906000526020600020905b81548152906001019060200180831161166357829003601f168201915b5050505050908060020180546116959061487e565b80601f01602080910402602001604051908101604052809291908181526020018280546116c19061487e565b801561170e5780601f106116e35761010080835404028352916020019161170e565b820191906000526020600020905b8154815290600101906020018083116116f157829003601f168201915b5050505050905083565b6000600b60009054906101000a900460ff161561176a576040517f08c379a00000000000000000000000000000000000000000000000000000000081526004016117619061451e565b60405180910390fd5b6001600b60006101000a81548160ff0219169083151502179055508134146117c7576040517f08c379a00000000000000000000000000000000000000000000000000000000081526004016117be9061441e565b60405180910390fd5b60008373ffffffffffffffffffffffffffffffffffffffff16836040516117ed90614143565b60006040518083038185875af1925050503d806000811461182a576040519150601f19603f3d011682016040523d82523d6000602084013e61182f565b606091505b5050905080611873576040517f08c379a000000000000000000000000000000000000000000000000000000000815260040161186a9061437e565b60405180910390fd5b6000600b60006101000a81548160ff0219169083151502179055508091505092915050565b60606118a38261243b565b6118e2576040517f08c379a00000000000000000000000000000000000000000000000000000000081526004016118d99061455e565b60405180910390fd5b6000600f6000848152602001908152602001600020549050600061192c6119088361247c565b6040516020016119189190614116565b6040516020818303038152906040526125a0565b90508092505050919050565b6119418161243b565b801561198057503373ffffffffffffffffffffffffffffffffffffffff1661196882610f76565b73ffffffffffffffffffffffffffffffffffffffff16145b6119bf576040517f08c379a00000000000000000000000000000000000000000000000000000000081526004016119b6906143be565b60405180910390fd5b60006119cb600e61212d565b90506119d7600e61213b565b6119e08261272a565b6010600082815260200190815260200160002060146000820181600001908054611a099061487e565b611a149291906136eb565b506001820181600101908054611a299061487e565b611a349291906136eb565b506002820181600201908054611a499061487e565b611a549291906136eb565b509050505050565b6000600560008473ffffffffffffffffffffffffffffffffffffffff1673ffffffffffffffffffffffffffffffffffffffff16815260200190815260200160002060008373ffffffffffffffffffffffffffffffffffffffff1673ffffffffffffffffffffffffffffffffffffffff16815260200190815260200160002060009054906101000a900460ff16905092915050565b611af86120af565b600073ffffffffffffffffffffffffffffffffffffffff168173ffffffffffffffffffffffffffffffffffffffff161415611b68576040517f08c379a0000000000000000000000000000000000000000000000000000000008152600401611b5f906142de565b60405180910390fd5b611b71816121ac565b50565b601360009054906101000a900473ffffffffffffffffffffffffffffffffffffffff1681565b60007f780e9d63000000000000000000000000000000000000000000000000000000007bffffffffffffffffffffffffffffffffffffffffffffffffffffffff1916827bffffffffffffffffffffffffffffffffffffffffffffffffffffffff19161480611c0d5750611c0c82612878565b5b9050919050565b611c1d8161243b565b611c5c576040517f08c379a0000000000000000000000000000000000000000000000000000000008152600401611c539061445e565b60405180910390fd5b50565b600033905090565b816004600083815260200190815260200160002060006101000a81548173ffffffffffffffffffffffffffffffffffffffff021916908373ffffffffffffffffffffffffffffffffffffffff160217905550808273ffffffffffffffffffffffffffffffffffffffff16611cda83610f76565b73ffffffffffffffffffffffffffffffffffffffff167f8c5be1e5ebec7d5bd14f71427d1e84f3dd0314c0f7b2291e5b200ac8c7c3b92560405160405180910390a45050565b600080611d2c83610f76565b90508073ffffffffffffffffffffffffffffffffffffffff168473ffffffffffffffffffffffffffffffffffffffff161480611d6e5750611d6d8185611a5c565b5b80611dac57508373ffffffffffffffffffffffffffffffffffffffff16611d94846108fc565b73ffffffffffffffffffffffffffffffffffffffff16145b91505092915050565b8273ffffffffffffffffffffffffffffffffffffffff16611dd582610f76565b73ffffffffffffffffffffffffffffffffffffffff1614611e2b576040517f08c379a0000000000000000000000000000000000000000000000000000000008152600401611e22906142fe565b60405180910390fd5b600073ffffffffffffffffffffffffffffffffffffffff168273ffffffffffffffffffffffffffffffffffffffff161415611e9b576040517f08c379a0000000000000000000000000000000000000000000000000000000008152600401611e929061433e565b60405180910390fd5b611ea8838383600161295a565b8273ffffffffffffffffffffffffffffffffffffffff16611ec882610f76565b73ffffffffffffffffffffffffffffffffffffffff1614611f1e576040517f08c379a0000000000000000000000000000000000000000000000000000000008152600401611f15906142fe565b60405180910390fd5b6004600082815260200190815260200160002060006101000a81549073ffffffffffffffffffffffffffffffffffffffff02191690556001600360008573ffffffffffffffffffffffffffffffffffffffff1673ffffffffffffffffffffffffffffffffffffffff168152602001908152602001600020600082825403925050819055506001600360008473ffffffffffffffffffffffffffffffffffffffff1673ffffffffffffffffffffffffffffffffffffffff16815260200190815260200160002060008282540192505081905550816002600083815260200190815260200160002060006101000a81548173ffffffffffffffffffffffffffffffffffffffff021916908373ffffffffffffffffffffffffffffffffffffffff160217905550808273ffffffffffffffffffffffffffffffffffffffff168473ffffffffffffffffffffffffffffffffffffffff167fddf252ad1be2c89b69c2b068fc378daa952ba7f163c4a11628f55a4df523b3ef60405160405180910390a46120aa838383600161296c565b505050565b6120b7611c5f565b73ffffffffffffffffffffffffffffffffffffffff166120d56112e7565b73ffffffffffffffffffffffffffffffffffffffff161461212b576040517f08c379a00000000000000000000000000000000000000000000000000000000081526004016121229061443e565b60405180910390fd5b565b600081600001549050919050565b6001816000016000828254019250508190555050565b60006002600083815260200190815260200160002060009054906101000a900473ffffffffffffffffffffffffffffffffffffffff169050919050565b6121a8828260405180602001604052806000815250612972565b5050565b6000600660009054906101000a900473ffffffffffffffffffffffffffffffffffffffff16905081600660006101000a81548173ffffffffffffffffffffffffffffffffffffffff021916908373ffffffffffffffffffffffffffffffffffffffff1602179055508173ffffffffffffffffffffffffffffffffffffffff168173ffffffffffffffffffffffffffffffffffffffff167f8be0079c531659141344cd1fd0a4f28419497f9722a3daafe3b4186f6b6457e060405160405180910390a35050565b8173ffffffffffffffffffffffffffffffffffffffff168373ffffffffffffffffffffffffffffffffffffffff1614156122e1576040517f08c379a00000000000000000000000000000000000000000000000000000000081526004016122d89061435e565b60405180910390fd5b80600560008573ffffffffffffffffffffffffffffffffffffffff1673ffffffffffffffffffffffffffffffffffffffff16815260200190815260200160002060008473ffffffffffffffffffffffffffffffffffffffff1673ffffffffffffffffffffffffffffffffffffffff16815260200190815260200160002060006101000a81548160ff0219169083151502179055508173ffffffffffffffffffffffffffffffffffffffff168373ffffffffffffffffffffffffffffffffffffffff167f17307eab39ab6107e8899845ad3d59bd9653f200f220920489ca2b5937696c31836040516123d291906141f5565b60405180910390a3505050565b6123ea848484611db5565b6123f6848484846129cd565b612435576040517f08c379a000000000000000000000000000000000000000000000000000000000815260040161242c906142be565b60405180910390fd5b50505050565b60008073ffffffffffffffffffffffffffffffffffffffff1661245d83612151565b73ffffffffffffffffffffffffffffffffffffffff1614159050919050565b60606000600161248b84612b64565b01905060008167ffffffffffffffff8111156124d0577f4e487b7100000000000000000000000000000000000000000000000000000000600052604160045260246000fd5b6040519080825280601f01601f1916602001820160405280156125025781602001600182028036833780820191505090505b509050600082602001820190505b600115612595578080600190039150507f3031323334353637383961626364656600000000000000000000000000000000600a86061a8153600a858161257f577f4e487b7100000000000000000000000000000000000000000000000000000000600052601260045260246000fd5b049450600085141561259057612595565b612510565b819350505050919050565b60606000825114156125c357604051806020016040528060008152509050612725565b600060405180606001604052806040815260200161506d60409139905060006003600285516125f291906146a1565b6125fc91906146f7565b60046126089190614728565b67ffffffffffffffff811115612647577f4e487b7100000000000000000000000000000000000000000000000000000000600052604160045260246000fd5b6040519080825280601f01601f1916602001820160405280156126795781602001600182028036833780820191505090505b509050600182016020820185865187015b808210156126e5576003820191508151603f8160121c168501518453600184019350603f81600c1c168501518453600184019350603f8160061c168501518453600184019350603f811685015184536001840193505061268a565b505060038651066001811461270157600281146127145761271c565b603d6001830353603d600283035361271c565b603d60018303535b50505080925050505b919050565b600061273582610f76565b905061274581600084600161295a565b61274e82610f76565b90506004600083815260200190815260200160002060006101000a81549073ffffffffffffffffffffffffffffffffffffffff02191690556001600360008373ffffffffffffffffffffffffffffffffffffffff1673ffffffffffffffffffffffffffffffffffffffff168152602001908152602001600020600082825403925050819055506002600083815260200190815260200160002060006101000a81549073ffffffffffffffffffffffffffffffffffffffff021916905581600073ffffffffffffffffffffffffffffffffffffffff168273ffffffffffffffffffffffffffffffffffffffff167fddf252ad1be2c89b69c2b068fc378daa952ba7f163c4a11628f55a4df523b3ef60405160405180910390a461287481600084600161296c565b5050565b60007f80ac58cd000000000000000000000000000000000000000000000000000000007bffffffffffffffffffffffffffffffffffffffffffffffffffffffff1916827bffffffffffffffffffffffffffffffffffffffffffffffffffffffff1916148061294357507f5b5e139f000000000000000000000000000000000000000000000000000000007bffffffffffffffffffffffffffffffffffffffffffffffffffffffff1916827bffffffffffffffffffffffffffffffffffffffffffffffffffffffff1916145b80612953575061295282612d9b565b5b9050919050565b61296684848484612e05565b50505050565b50505050565b61297c8383612f65565b61298960008484846129cd565b6129c8576040517f08c379a00000000000000000000000000000000000000000000000000000000081526004016129bf906142be565b60405180910390fd5b505050565b60006129ee8473ffffffffffffffffffffffffffffffffffffffff16613183565b15612b57578373ffffffffffffffffffffffffffffffffffffffff1663150b7a02612a17611c5f565b8786866040518563ffffffff1660e01b8152600401612a3994939291906141a9565b602060405180830381600087803b158015612a5357600080fd5b505af1925050508015612a8457506040513d601f19601f82011682018060405250810190612a819190613aef565b60015b612b07573d8060008114612ab4576040519150601f19603f3d011682016040523d82523d6000602084013e612ab9565b606091505b50600081511415612aff576040517f08c379a0000000000000000000000000000000000000000000000000000000008152600401612af6906142be565b60405180910390fd5b805181602001fd5b63150b7a0260e01b7bffffffffffffffffffffffffffffffffffffffffffffffffffffffff1916817bffffffffffffffffffffffffffffffffffffffffffffffffffffffff191614915050612b5c565b600190505b949350505050565b600080600090507a184f03e93ff9f4daa797ed6e38ed64bf6a1f0100000000000000008310612be8577a184f03e93ff9f4daa797ed6e38ed64bf6a1f0100000000000000008381612bde577f4e487b7100000000000000000000000000000000000000000000000000000000600052601260045260246000fd5b0492506040810190505b6d04ee2d6d415b85acef81000000008310612c4b576d04ee2d6d415b85acef81000000008381612c41577f4e487b7100000000000000000000000000000000000000000000000000000000600052601260045260246000fd5b0492506020810190505b662386f26fc100008310612ca057662386f26fc100008381612c96577f4e487b7100000000000000000000000000000000000000000000000000000000600052601260045260246000fd5b0492506010810190505b6305f5e1008310612cef576305f5e1008381612ce5577f4e487b7100000000000000000000000000000000000000000000000000000000600052601260045260246000fd5b0492506008810190505b6127108310612d3a576127108381612d30577f4e487b7100000000000000000000000000000000000000000000000000000000600052601260045260246000fd5b0492506004810190505b60648310612d835760648381612d79577f4e487b7100000000000000000000000000000000000000000000000000000000600052601260045260246000fd5b0492506002810190505b600a8310612d92576001810190505b80915050919050565b60007f01ffc9a7000000000000000000000000000000000000000000000000000000007bffffffffffffffffffffffffffffffffffffffffffffffffffffffff1916827bffffffffffffffffffffffffffffffffffffffffffffffffffffffff1916149050919050565b612e11848484846131a6565b6001811115612e55576040517f08c379a0000000000000000000000000000000000000000000000000000000008152600401612e4c906144fe565b60405180910390fd5b6000829050600073ffffffffffffffffffffffffffffffffffffffff168573ffffffffffffffffffffffffffffffffffffffff161415612e9d57612e98816132cc565b612edc565b8373ffffffffffffffffffffffffffffffffffffffff168573ffffffffffffffffffffffffffffffffffffffff1614612edb57612eda8582613315565b5b5b600073ffffffffffffffffffffffffffffffffffffffff168473ffffffffffffffffffffffffffffffffffffffff161415612f1f57612f1a81613482565b612f5e565b8473ffffffffffffffffffffffffffffffffffffffff168473ffffffffffffffffffffffffffffffffffffffff1614612f5d57612f5c84826135c5565b5b5b5050505050565b600073ffffffffffffffffffffffffffffffffffffffff168273ffffffffffffffffffffffffffffffffffffffff161415612fd5576040517f08c379a0000000000000000000000000000000000000000000000000000000008152600401612fcc906143fe565b60405180910390fd5b612fde8161243b565b1561301e576040517f08c379a00000000000000000000000000000000000000000000000000000000081526004016130159061431e565b60405180910390fd5b61302c60008383600161295a565b6130358161243b565b15613075576040517f08c379a000000000000000000000000000000000000000000000000000000000815260040161306c9061431e565b60405180910390fd5b6001600360008473ffffffffffffffffffffffffffffffffffffffff1673ffffffffffffffffffffffffffffffffffffffff16815260200190815260200160002060008282540192505081905550816002600083815260200190815260200160002060006101000a81548173ffffffffffffffffffffffffffffffffffffffff021916908373ffffffffffffffffffffffffffffffffffffffff160217905550808273ffffffffffffffffffffffffffffffffffffffff16600073ffffffffffffffffffffffffffffffffffffffff167fddf252ad1be2c89b69c2b068fc378daa952ba7f163c4a11628f55a4df523b3ef60405160405180910390a461317f60008383600161296c565b5050565b6000808273ffffffffffffffffffffffffffffffffffffffff163b119050919050565b60018111156132c657600073ffffffffffffffffffffffffffffffffffffffff168473ffffffffffffffffffffffffffffffffffffffff161461323a5780600360008673ffffffffffffffffffffffffffffffffffffffff1673ffffffffffffffffffffffffffffffffffffffff16815260200190815260200160002060008282546132329190614782565b925050819055505b600073ffffffffffffffffffffffffffffffffffffffff168373ffffffffffffffffffffffffffffffffffffffff16146132c55780600360008573ffffffffffffffffffffffffffffffffffffffff1673ffffffffffffffffffffffffffffffffffffffff16815260200190815260200160002060008282546132bd91906146a1565b925050819055505b5b50505050565b600980549050600a600083815260200190815260200160002081905550600981908060018154018082558091505060019003906000526020600020016000909190919091505550565b600060016133228461104b565b61332c9190614782565b9050600060086000848152602001908152602001600020549050818114613411576000600760008673ffffffffffffffffffffffffffffffffffffffff1673ffffffffffffffffffffffffffffffffffffffff168152602001908152602001600020600084815260200190815260200160002054905080600760008773ffffffffffffffffffffffffffffffffffffffff1673ffffffffffffffffffffffffffffffffffffffff168152602001908152602001600020600084815260200190815260200160002081905550816008600083815260200190815260200160002081905550505b6008600084815260200190815260200160002060009055600760008573ffffffffffffffffffffffffffffffffffffffff1673ffffffffffffffffffffffffffffffffffffffff16815260200190815260200160002060008381526020019081526020016000206000905550505050565b600060016009805490506134969190614782565b90506000600a60008481526020019081526020016000205490506000600983815481106134ec577f4e487b7100000000000000000000000000000000000000000000000000000000600052603260045260246000fd5b906000526020600020015490508060098381548110613534577f4e487b7100000000000000000000000000000000000000000000000000000000600052603260045260246000fd5b906000526020600020018190555081600a600083815260200190815260200160002081905550600a60008581526020019081526020016000206000905560098054806135a9577f4e487b7100000000000000000000000000000000000000000000000000000000600052603160045260246000fd5b6001900381819060005260206000200160009055905550505050565b60006135d08361104b565b905081600760008573ffffffffffffffffffffffffffffffffffffffff1673ffffffffffffffffffffffffffffffffffffffff168152602001908152602001600020600083815260200190815260200160002081905550806008600084815260200190815260200160002081905550505050565b8280546136509061487e565b90600052602060002090601f01602090048101928261367257600085556136b9565b82601f1061368b57805160ff19168380011785556136b9565b828001600101855582156136b9579182015b828111156136b857825182559160200191906001019061369d565b5b5090506136c69190613778565b5090565b60405180606001604052806060815260200160608152602001606081525090565b8280546136f79061487e565b90600052602060002090601f0160209004810192826137195760008555613767565b82601f1061372a5780548555613767565b8280016001018555821561376757600052602060002091601f016020900482015b8281111561376657825482559160010191906001019061374b565b5b5090506137749190613778565b5090565b5b80821115613791576000816000905550600101613779565b5090565b60006137a86137a3846145e0565b6145bb565b9050828152602081018484840111156137c057600080fd5b6137cb84828561483c565b509392505050565b60006137e66137e184614611565b6145bb565b9050828152602081018484840111156137fe57600080fd5b61380984828561483c565b509392505050565b60008135905061382081614ff9565b92915050565b60008135905061383581615010565b92915050565b60008135905061384a81615027565b92915050565b60008135905061385f8161503e565b92915050565b6000815190506138748161503e565b92915050565b600082601f83011261388b57600080fd5b813561389b848260208601613795565b91505092915050565b600082601f8301126138b557600080fd5b81356138c58482602086016137d3565b91505092915050565b6000813590506138dd81615055565b92915050565b6000602082840312156138f557600080fd5b600061390384828501613811565b91505092915050565b6000806040838503121561391f57600080fd5b600061392d85828601613826565b925050602061393e858286016138ce565b9150509250929050565b6000806040838503121561395b57600080fd5b600061396985828601613811565b925050602061397a85828601613811565b9150509250929050565b60008060006060848603121561399957600080fd5b60006139a786828701613811565b93505060206139b886828701613811565b92505060406139c9868287016138ce565b9150509250925092565b600080600080608085870312156139e957600080fd5b60006139f787828801613811565b9450506020613a0887828801613811565b9350506040613a19878288016138ce565b925050606085013567ffffffffffffffff811115613a3657600080fd5b613a428782880161387a565b91505092959194509250565b60008060408385031215613a6157600080fd5b6000613a6f85828601613811565b9250506020613a808582860161383b565b9150509250929050565b60008060408385031215613a9d57600080fd5b6000613aab85828601613811565b9250506020613abc858286016138ce565b9150509250929050565b600060208284031215613ad857600080fd5b6000613ae684828501613850565b91505092915050565b600060208284031215613b0157600080fd5b6000613b0f84828501613865565b91505092915050565b600080600060608486031215613b2d57600080fd5b600084013567ffffffffffffffff811115613b4757600080fd5b613b53868287016138a4565b935050602084013567ffffffffffffffff811115613b7057600080fd5b613b7c868287016138a4565b925050604084013567ffffffffffffffff811115613b9957600080fd5b613ba5868287016138a4565b9150509250925092565b600060208284031215613bc157600080fd5b6000613bcf848285016138ce565b91505092915050565b613be1816147c8565b82525050565b613bf0816147b6565b82525050565b613bff816147da565b82525050565b6000613c1082614642565b613c1a8185614658565b9350613c2a81856020860161484b565b613c33816149a7565b840191505092915050565b6000613c498261464d565b613c538185614674565b9350613c6381856020860161484b565b613c6c816149a7565b840191505092915050565b6000613c828261464d565b613c8c8185614685565b9350613c9c81856020860161484b565b613ca5816149a7565b840191505092915050565b6000613cbb8261464d565b613cc58185614696565b9350613cd581856020860161484b565b80840191505092915050565b6000613cee600f83614696565b9150613cf9826149b8565b600f82019050919050565b6000613d11602d83614685565b9150613d1c826149e1565b604082019050919050565b6000613d34602b83614685565b9150613d3f82614a30565b604082019050919050565b6000613d57603283614685565b9150613d6282614a7f565b604082019050919050565b6000613d7a602683614685565b9150613d8582614ace565b604082019050919050565b6000613d9d602583614685565b9150613da882614b1d565b604082019050919050565b6000613dc0601c83614685565b9150613dcb82614b6c565b602082019050919050565b6000613de3602483614685565b9150613dee82614b95565b604082019050919050565b6000613e06601983614685565b9150613e1182614be4565b602082019050919050565b6000613e29600e83614685565b9150613e3482614c0d565b602082019050919050565b6000613e4c602983614685565b9150613e5782614c36565b604082019050919050565b6000613e6f600d83614685565b9150613e7a82614c85565b602082019050919050565b6000613e92602283614685565b9150613e9d82614cae565b604082019050919050565b6000613eb5600283614696565b9150613ec082614cfd565b600282019050919050565b6000613ed8602083614685565b9150613ee382614d26565b602082019050919050565b6000613efb602783614685565b9150613f0682614d4f565b604082019050919050565b6000613f1e602083614685565b9150613f2982614d9e565b602082019050919050565b6000613f41601883614685565b9150613f4c82614dc7565b602082019050919050565b6000613f64602183614685565b9150613f6f82614df0565b604082019050919050565b6000613f87601083614685565b9150613f9282614e3f565b602082019050919050565b6000613faa600083614669565b9150613fb582614e68565b600082019050919050565b6000613fcd603d83614685565b9150613fd882614e6b565b604082019050919050565b6000613ff0602c83614685565b9150613ffb82614eba565b604082019050919050565b6000614013603583614685565b915061401e82614f09565b604082019050919050565b6000614036601383614685565b915061404182614f58565b602082019050919050565b6000614059601283614685565b915061406482614f81565b602082019050919050565b600061407c603083614685565b915061408782614faa565b604082019050919050565b600060608301600083015184820360008601526140af8282613c3e565b915050602083015184820360208601526140c98282613c3e565b915050604083015184820360408601526140e38282613c3e565b9150508091505092915050565b6140f981614832565b82525050565b61411061410b82614832565b6148e1565b82525050565b600061412182613ce1565b915061412d8284613cb0565b915061413882613ea8565b915081905092915050565b600061414e82613f9d565b9150819050919050565b600061416482846140ff565b60208201915081905092915050565b60006020820190506141886000830184613be7565b92915050565b60006020820190506141a36000830184613bd8565b92915050565b60006080820190506141be6000830187613be7565b6141cb6020830186613be7565b6141d860408301856140f0565b81810360608301526141ea8184613c05565b905095945050505050565b600060208201905061420a6000830184613bf6565b92915050565b6000602082019050818103600083015261422a8184613c77565b905092915050565b6000606082019050818103600083015261424c8186613c77565b905081810360208301526142608185613c77565b905081810360408301526142748184613c77565b9050949350505050565b6000602082019050818103600083015261429781613d04565b9050919050565b600060208201905081810360008301526142b781613d27565b9050919050565b600060208201905081810360008301526142d781613d4a565b9050919050565b600060208201905081810360008301526142f781613d6d565b9050919050565b6000602082019050818103600083015261431781613d90565b9050919050565b6000602082019050818103600083015261433781613db3565b9050919050565b6000602082019050818103600083015261435781613dd6565b9050919050565b6000602082019050818103600083015261437781613df9565b9050919050565b6000602082019050818103600083015261439781613e1c565b9050919050565b600060208201905081810360008301526143b781613e3f565b9050919050565b600060208201905081810360008301526143d781613e62565b9050919050565b600060208201905081810360008301526143f781613e85565b9050919050565b6000602082019050818103600083015261441781613ecb565b9050919050565b6000602082019050818103600083015261443781613eee565b9050919050565b6000602082019050818103600083015261445781613f11565b9050919050565b6000602082019050818103600083015261447781613f34565b9050919050565b6000602082019050818103600083015261449781613f57565b9050919050565b600060208201905081810360008301526144b781613f7a565b9050919050565b600060208201905081810360008301526144d781613fc0565b9050919050565b600060208201905081810360008301526144f781613fe3565b9050919050565b6000602082019050818103600083015261451781614006565b9050919050565b6000602082019050818103600083015261453781614029565b9050919050565b600060208201905081810360008301526145578161404c565b9050919050565b600060208201905081810360008301526145778161406f565b9050919050565b600060208201905081810360008301526145988184614092565b905092915050565b60006020820190506145b560008301846140f0565b92915050565b60006145c56145d6565b90506145d182826148b0565b919050565b6000604051905090565b600067ffffffffffffffff8211156145fb576145fa614978565b5b614604826149a7565b9050602081019050919050565b600067ffffffffffffffff82111561462c5761462b614978565b5b614635826149a7565b9050602081019050919050565b600081519050919050565b600081519050919050565b600082825260208201905092915050565b600081905092915050565b600082825260208201905092915050565b600082825260208201905092915050565b600081905092915050565b60006146ac82614832565b91506146b783614832565b9250827fffffffffffffffffffffffffffffffffffffffffffffffffffffffffffffffff038211156146ec576146eb6148eb565b5b828201905092915050565b600061470282614832565b915061470d83614832565b92508261471d5761471c61491a565b5b828204905092915050565b600061473382614832565b915061473e83614832565b9250817fffffffffffffffffffffffffffffffffffffffffffffffffffffffffffffffff0483118215151615614777576147766148eb565b5b828202905092915050565b600061478d82614832565b915061479883614832565b9250828210156147ab576147aa6148eb565b5b828203905092915050565b60006147c182614812565b9050919050565b60006147d382614812565b9050919050565b60008115159050919050565b60007fffffffff0000000000000000000000000000000000000000000000000000000082169050919050565b600073ffffffffffffffffffffffffffffffffffffffff82169050919050565b6000819050919050565b82818337600083830152505050565b60005b8381101561486957808201518184015260208101905061484e565b83811115614878576000848401525b50505050565b6000600282049050600182168061489657607f821691505b602082108114156148aa576148a9614949565b5b50919050565b6148b9826149a7565b810181811067ffffffffffffffff821117156148d8576148d7614978565b5b80604052505050565b6000819050919050565b7f4e487b7100000000000000000000000000000000000000000000000000000000600052601160045260246000fd5b7f4e487b7100000000000000000000000000000000000000000000000000000000600052601260045260246000fd5b7f4e487b7100000000000000000000000000000000000000000000000000000000600052602260045260246000fd5b7f4e487b7100000000000000000000000000000000000000000000000000000000600052604160045260246000fd5b6000601f19601f8301169050919050565b7f7b2022746f6b656e496422203a20220000000000000000000000000000000000600082015250565b7f4552433732313a2063616c6c6572206973206e6f7420746f6b656e206f776e6560008201527f72206f7220617070726f76656400000000000000000000000000000000000000602082015250565b7f455243373231456e756d657261626c653a206f776e657220696e646578206f7560008201527f74206f6620626f756e6473000000000000000000000000000000000000000000602082015250565b7f4552433732313a207472616e7366657220746f206e6f6e20455243373231526560008201527f63656976657220696d706c656d656e7465720000000000000000000000000000602082015250565b7f4f776e61626c653a206e6577206f776e657220697320746865207a65726f206160008201527f6464726573730000000000000000000000000000000000000000000000000000602082015250565b7f4552433732313a207472616e736665722066726f6d20696e636f72726563742060008201527f6f776e6572000000000000000000000000000000000000000000000000000000602082015250565b7f4552433732313a20746f6b656e20616c7265616479206d696e74656400000000600082015250565b7f4552433732313a207472616e7366657220746f20746865207a65726f2061646460008201527f7265737300000000000000000000000000000000000000000000000000000000602082015250565b7f4552433732313a20617070726f766520746f2063616c6c657200000000000000600082015250565b7f5061796d656e74204661696c6564000000000000000000000000000000000000600082015250565b7f4552433732313a2061646472657373207a65726f206973206e6f74206120766160008201527f6c6964206f776e65720000000000000000000000000000000000000000000000602082015250565b7f546f6b656e20756e6b6e6f776e00000000000000000000000000000000000000600082015250565b7f5061796d656e74204661696c65642c20436865636b20796f75722062616c616e60008201527f6365000000000000000000000000000000000000000000000000000000000000602082015250565b7f227d000000000000000000000000000000000000000000000000000000000000600082015250565b7f4552433732313a206d696e7420746f20746865207a65726f2061646472657373600082015250565b7f456c206d6f6e746f2064656c207061676f206e6f20657320696775616c20616c60008201527f2070726563696f00000000000000000000000000000000000000000000000000602082015250565b7f4f776e61626c653a2063616c6c6572206973206e6f7420746865206f776e6572600082015250565b7f4552433732313a20696e76616c696420746f6b656e2049440000000000000000600082015250565b7f4552433732313a20617070726f76616c20746f2063757272656e74206f776e6560008201527f7200000000000000000000000000000000000000000000000000000000000000602082015250565b7f4e65656420746f2073656e642077656900000000000000000000000000000000600082015250565b50565b7f4552433732313a20617070726f76652063616c6c6572206973206e6f7420746f60008201527f6b656e206f776e6572206f7220617070726f76656420666f7220616c6c000000602082015250565b7f455243373231456e756d657261626c653a20676c6f62616c20696e646578206f60008201527f7574206f6620626f756e64730000000000000000000000000000000000000000602082015250565b7f455243373231456e756d657261626c653a20636f6e736563757469766520747260008201527f616e7366657273206e6f7420737570706f727465640000000000000000000000602082015250565b7f5265656e7472616e637920446574656374656400000000000000000000000000600082015250565b7f5472616e73616374696f6e204661696c65640000000000000000000000000000600082015250565b7f455243373231204d657461646174613a2055524920717565727920666f72206e60008201527f6f6e6578697374656e7420746f6b656e00000000000000000000000000000000602082015250565b615002816147b6565b811461500d57600080fd5b50565b615019816147c8565b811461502457600080fd5b50565b615030816147da565b811461503b57600080fd5b50565b615047816147e6565b811461505257600080fd5b50565b61505e81614832565b811461506957600080fd5b5056fe4142434445464748494a4b4c4d4e4f505152535455565758595a6162636465666768696a6b6c6d6e6f707172737475767778797a303132333435363738392b2fa2646970667358221220566a18a480c7c1d40c2d28961b9cddfb94a4f7d8bc26e2b3dece5cdee574cc3564736f6c63430008040033",
  "linkReferences": {},
  "deployedLinkReferences": {}
}