{
  "_format": "hh-sol-artifact-1",
  "contractName": "TicketSystem",
  "sourceName": "contracts/TicketSystem.sol",
  "abi": [
    {
      "inputs": [
        {
          "internalType": "uint256",
          "name": "_priceToPay",
          "type": "uint256"
        }
      ],
      "stateMutability": "payable",
      "type": "constructor"
    },
    {
      "anonymous": false,
      "inputs": [
        {
          "indexed": true,
          "internalType": "address",
          "name": "owner",
          "type": "address"
        },
        {
          "indexed": true,
          "internalType": "address",
          "name": "approved",
          "type": "address"
        },
        {
          "indexed": true,
          "internalType": "uint256",
          "name": "tokenId",
          "type": "uint256"
        }
      ],
      "name": "Approval",
      "type": "event"
    },
    {
      "anonymous": false,
      "inputs": [
        {
          "indexed": true,
          "internalType": "address",
          "name": "owner",
          "type": "address"
        },
        {
          "indexed": true,
          "internalType": "address",
          "name": "operator",
          "type": "address"
        },
        {
          "indexed": false,
          "internalType": "bool",
          "name": "approved",
          "type": "bool"
        }
      ],
      "name": "ApprovalForAll",
      "type": "event"
    },
    {
      "anonymous": false,
      "inputs": [
        {
          "indexed": true,
          "internalType": "address",
          "name": "previousOwner",
          "type": "address"
        },
        {
          "indexed": true,
          "internalType": "address",
          "name": "newOwner",
          "type": "address"
        }
      ],
      "name": "OwnershipTransferred",
      "type": "event"
    },
    {
      "anonymous": false,
      "inputs": [
        {
          "indexed": true,
          "internalType": "address",
          "name": "from",
          "type": "address"
        },
        {
          "indexed": true,
          "internalType": "address",
          "name": "to",
          "type": "address"
        },
        {
          "indexed": true,
          "internalType": "uint256",
          "name": "tokenId",
          "type": "uint256"
        }
      ],
      "name": "Transfer",
      "type": "event"
    },
    {
      "inputs": [
        {
          "internalType": "address",
          "name": "to",
          "type": "address"
        },
        {
          "internalType": "uint256",
          "name": "tokenId",
          "type": "uint256"
        }
      ],
      "name": "approve",
      "outputs": [],
      "stateMutability": "nonpayable",
      "type": "function"
    },
    {
      "inputs": [
        {
          "internalType": "address",
          "name": "owner",
          "type": "address"
        }
      ],
      "name": "balanceOf",
      "outputs": [
        {
          "internalType": "uint256",
          "name": "",
          "type": "uint256"
        }
      ],
      "stateMutability": "view",
      "type": "function"
    },
    {
      "inputs": [],
      "name": "buyToken",
      "outputs": [],
      "stateMutability": "nonpayable",
      "type": "function"
    },
    {
      "inputs": [
        {
          "internalType": "uint256",
          "name": "",
          "type": "uint256"
        }
      ],
      "name": "clientData",
      "outputs": [
        {
          "internalType": "string",
          "name": "fullName",
          "type": "string"
        },
        {
          "internalType": "string",
          "name": "fisicalAddress",
          "type": "string"
        },
        {
          "internalType": "string",
          "name": "telefone",
          "type": "string"
        }
      ],
      "stateMutability": "view",
      "type": "function"
    },
    {
      "inputs": [],
      "name": "contractAddress",
      "outputs": [
        {
          "internalType": "address payable",
          "name": "",
          "type": "address"
        }
      ],
      "stateMutability": "view",
      "type": "function"
    },
    {
      "inputs": [
        {
          "internalType": "string",
          "name": "_fullName",
          "type": "string"
        },
        {
          "internalType": "string",
          "name": "_fisicalAddress",
          "type": "string"
        },
        {
          "internalType": "string",
          "name": "_telefone",
          "type": "string"
        }
      ],
      "name": "createClient",
      "outputs": [],
      "stateMutability": "nonpayable",
      "type": "function"
    },
    {
      "inputs": [
        {
          "internalType": "address",
          "name": "_account",
          "type": "address"
        },
        {
          "internalType": "uint256",
          "name": "_tokenId",
          "type": "uint256"
        }
      ],
      "name": "createTokenDNA",
      "outputs": [
        {
          "internalType": "uint256",
          "name": "",
          "type": "uint256"
        }
      ],
      "stateMutability": "pure",
      "type": "function"
    },
    {
      "inputs": [
        {
          "internalType": "uint256",
          "name": "tokenId",
          "type": "uint256"
        }
      ],
      "name": "getApproved",
      "outputs": [
        {
          "internalType": "address",
          "name": "",
          "type": "address"
        }
      ],
      "stateMutability": "view",
      "type": "function"
    },
    {
      "inputs": [],
      "name": "getBalance",
      "outputs": [
        {
          "internalType": "uint256",
          "name": "",
          "type": "uint256"
        }
      ],
      "stateMutability": "view",
      "type": "function"
    },
    {
      "inputs": [
        {
          "internalType": "address",
          "name": "owner",
          "type": "address"
        },
        {
          "internalType": "address",
          "name": "operator",
          "type": "address"
        }
      ],
      "name": "isApprovedForAll",
      "outputs": [
        {
          "internalType": "bool",
          "name": "",
          "type": "bool"
        }
      ],
      "stateMutability": "view",
      "type": "function"
    },
    {
      "inputs": [],
      "name": "name",
      "outputs": [
        {
          "internalType": "string",
          "name": "",
          "type": "string"
        }
      ],
      "stateMutability": "view",
      "type": "function"
    },
    {
      "inputs": [],
      "name": "owner",
      "outputs": [
        {
          "internalType": "address",
          "name": "",
          "type": "address"
        }
      ],
      "stateMutability": "view",
      "type": "function"
    },
    {
      "inputs": [],
      "name": "ownerAddress",
      "outputs": [
        {
          "internalType": "address payable",
          "name": "",
          "type": "address"
        }
      ],
      "stateMutability": "view",
      "type": "function"
    },
    {
      "inputs": [
        {
          "internalType": "uint256",
          "name": "tokenId",
          "type": "uint256"
        }
      ],
      "name": "ownerOf",
      "outputs": [
        {
          "internalType": "address",
          "name": "",
          "type": "address"
        }
      ],
      "stateMutability": "view",
      "type": "function"
    },
    {
      "inputs": [],
      "name": "priceToPay",
      "outputs": [
        {
          "internalType": "uint256",
          "name": "",
          "type": "uint256"
        }
      ],
      "stateMutability": "view",
      "type": "function"
    },
    {
      "inputs": [
        {
          "internalType": "uint256",
          "name": "tokenId",
          "type": "uint256"
        }
      ],
      "name": "redeem",
      "outputs": [],
      "stateMutability": "nonpayable",
      "type": "function"
    },
    {
      "inputs": [],
      "name": "renounceOwnership",
      "outputs": [],
      "stateMutability": "nonpayable",
      "type": "function"
    },
    {
      "inputs": [],
      "name": "safeMint",
      "outputs": [],
      "stateMutability": "nonpayable",
      "type": "function"
    },
    {
      "inputs": [
        {
          "internalType": "address",
          "name": "from",
          "type": "address"
        },
        {
          "internalType": "address",
          "name": "to",
          "type": "address"
        },
        {
          "internalType": "uint256",
          "name": "tokenId",
          "type": "uint256"
        }
      ],
      "name": "safeTransferFrom",
      "outputs": [],
      "stateMutability": "nonpayable",
      "type": "function"
    },
    {
      "inputs": [
        {
          "internalType": "address",
          "name": "from",
          "type": "address"
        },
        {
          "internalType": "address",
          "name": "to",
          "type": "address"
        },
        {
          "internalType": "uint256",
          "name": "tokenId",
          "type": "uint256"
        },
        {
          "internalType": "bytes",
          "name": "data",
          "type": "bytes"
        }
      ],
      "name": "safeTransferFrom",
      "outputs": [],
      "stateMutability": "nonpayable",
      "type": "function"
    },
    {
      "inputs": [],
      "name": "sendClient",
      "outputs": [
        {
          "components": [
            {
              "internalType": "string",
              "name": "fullName",
              "type": "string"
            },
            {
              "internalType": "string",
              "name": "fisicalAddress",
              "type": "string"
            },
            {
              "internalType": "string",
              "name": "telefone",
              "type": "string"
            }
          ],
          "internalType": "struct TicketSystem.client",
          "name": "",
          "type": "tuple"
        }
      ],
      "stateMutability": "view",
      "type": "function"
    },
    {
      "inputs": [
        {
          "internalType": "address payable",
          "name": "_to",
          "type": "address"
        },
        {
          "internalType": "uint256",
          "name": "_priceToPay",
          "type": "uint256"
        }
      ],
      "name": "sendEther",
      "outputs": [
        {
          "internalType": "bool",
          "name": "",
          "type": "bool"
        }
      ],
      "stateMutability": "payable",
      "type": "function"
    },
    {
      "inputs": [
        {
          "internalType": "address",
          "name": "operator",
          "type": "address"
        },
        {
          "internalType": "bool",
          "name": "approved",
          "type": "bool"
        }
      ],
      "name": "setApprovalForAll",
      "outputs": [],
      "stateMutability": "nonpayable",
      "type": "function"
    },
    {
      "inputs": [
        {
          "internalType": "uint256",
          "name": "_priceToPay",
          "type": "uint256"
        }
      ],
      "name": "setPriceToPay",
      "outputs": [],
      "stateMutability": "nonpayable",
      "type": "function"
    },
    {
      "inputs": [
        {
          "internalType": "bytes4",
          "name": "interfaceId",
          "type": "bytes4"
        }
      ],
      "name": "supportsInterface",
      "outputs": [
        {
          "internalType": "bool",
          "name": "",
          "type": "bool"
        }
      ],
      "stateMutability": "view",
      "type": "function"
    },
    {
      "inputs": [],
      "name": "symbol",
      "outputs": [
        {
          "internalType": "string",
          "name": "",
          "type": "string"
        }
      ],
      "stateMutability": "view",
      "type": "function"
    },
    {
      "inputs": [
        {
          "internalType": "uint256",
          "name": "index",
          "type": "uint256"
        }
      ],
      "name": "tokenByIndex",
      "outputs": [
        {
          "internalType": "uint256",
          "name": "",
          "type": "uint256"
        }
      ],
      "stateMutability": "view",
      "type": "function"
    },
    {
      "inputs": [
        {
          "internalType": "address",
          "name": "owner",
          "type": "address"
        },
        {
          "internalType": "uint256",
          "name": "index",
          "type": "uint256"
        }
      ],
      "name": "tokenOfOwnerByIndex",
      "outputs": [
        {
          "internalType": "uint256",
          "name": "",
          "type": "uint256"
        }
      ],
      "stateMutability": "view",
      "type": "function"
    },
    {
      "inputs": [
        {
          "internalType": "uint256",
          "name": "",
          "type": "uint256"
        }
      ],
      "name": "tokenSerial",
      "outputs": [
        {
          "internalType": "uint256",
          "name": "",
          "type": "uint256"
        }
      ],
      "stateMutability": "view",
      "type": "function"
    },
    {
      "inputs": [
        {
          "internalType": "uint256",
          "name": "tokenId",
          "type": "uint256"
        }
      ],
      "name": "tokenURI",
      "outputs": [
        {
          "internalType": "string",
          "name": "",
          "type": "string"
        }
      ],
      "stateMutability": "view",
      "type": "function"
    },
    {
      "inputs": [],
      "name": "totalSupply",
      "outputs": [
        {
          "internalType": "uint256",
          "name": "",
          "type": "uint256"
        }
      ],
      "stateMutability": "view",
      "type": "function"
    },
    {
      "inputs": [
        {
          "internalType": "address",
          "name": "from",
          "type": "address"
        },
        {
          "internalType": "address",
          "name": "to",
          "type": "address"
        },
        {
          "internalType": "uint256",
          "name": "tokenId",
          "type": "uint256"
        }
      ],
      "name": "transferFrom",
      "outputs": [],
      "stateMutability": "nonpayable",
      "type": "function"
    },
    {
      "inputs": [
        {
          "internalType": "address",
          "name": "newOwner",
          "type": "address"
        }
      ],
      "name": "transferOwnership",
      "outputs": [],
      "stateMutability": "nonpayable",
      "type": "function"
    },
    {
      "inputs": [],
      "name": "withdrawBalance",
      "outputs": [],
      "stateMutability": "nonpayable",
      "type": "function"
    },
    {
      "inputs": [
        {
          "internalType": "address payable",
          "name": "_to",
          "type": "address"
        },
        {
          "internalType": "uint256",
          "name": "_amount",
          "type": "uint256"
        }
      ],
      "name": "withdrawEther",
      "outputs": [
        {
          "internalType": "bool",
          "name": "",
          "type": "bool"
        }
      ],
      "stateMutability": "payable",
      "type": "function"
    },
    {
      "stateMutability": "payable",
      "type": "receive"
    }
  ],
  "bytecode": "0x60806040526000600b60006101000a81548160ff021916908315150217905550604051620056c7380380620056c783398181016040528101906200004491906200047f565b6040518060400160405280600881526020017f4368697370657a610000000000000000000000000000000000000000000000008152506040518060400160405280600381526020017f43485a00000000000000000000000000000000000000000000000000000000008152508160009080519060200190620000c8929190620003b8565b508060019080519060200190620000e1929190620003b8565b50505062000104620000f86200021860201b60201c565b6200022060201b60201c565b8060118190555033601260006101000a81548173ffffffffffffffffffffffffffffffffffffffff021916908373ffffffffffffffffffffffffffffffffffffffff16021790555030601360006101000a81548173ffffffffffffffffffffffffffffffffffffffff021916908373ffffffffffffffffffffffffffffffffffffffff160217905550620002116040518060400160405280601e81526020017f456e20636f6e7374727563746f72206465205469636b657453797374656d00008152506040518060400160405280600a81526020017f7072696365546f50617900000000000000000000000000000000000000000000815250601154620002e660201b62001ae01760201c565b5062000634565b600033905090565b6000600660009054906101000a900473ffffffffffffffffffffffffffffffffffffffff16905081600660006101000a81548173ffffffffffffffffffffffffffffffffffffffff021916908373ffffffffffffffffffffffffffffffffffffffff1602179055508173ffffffffffffffffffffffffffffffffffffffff168173ffffffffffffffffffffffffffffffffffffffff167f8be0079c531659141344cd1fd0a4f28419497f9722a3daafe3b4186f6b6457e060405160405180910390a35050565b6200038a8383836040516024016200030193929190620004fd565b6040516020818303038152906040527f5821efa1000000000000000000000000000000000000000000000000000000007bffffffffffffffffffffffffffffffffffffffffffffffffffffffff19166020820180517bffffffffffffffffffffffffffffffffffffffffffffffffffffffff83818316178352505050506200038f60201b60201c565b505050565b60008151905060006a636f6e736f6c652e6c6f679050602083016000808483855afa5050505050565b828054620003c690620005a4565b90600052602060002090601f016020900481019282620003ea576000855562000436565b82601f106200040557805160ff191683800117855562000436565b8280016001018555821562000436579182015b828111156200043557825182559160200191906001019062000418565b5b50905062000445919062000449565b5090565b5b80821115620004645760008160009055506001016200044a565b5090565b60008151905062000479816200061a565b92915050565b6000602082840312156200049257600080fd5b6000620004a28482850162000468565b91505092915050565b6000620004b88262000548565b620004c4818562000553565b9350620004d68185602086016200056e565b620004e18162000609565b840191505092915050565b620004f78162000564565b82525050565b60006060820190508181036000830152620005198186620004ab565b905081810360208301526200052f8185620004ab565b9050620005406040830184620004ec565b949350505050565b600081519050919050565b600082825260208201905092915050565b6000819050919050565b60005b838110156200058e57808201518184015260208101905062000571565b838111156200059e576000848401525b50505050565b60006002820490506001821680620005bd57607f821691505b60208210811415620005d457620005d3620005da565b5b50919050565b7f4e487b7100000000000000000000000000000000000000000000000000000000600052602260045260246000fd5b6000601f19601f8301169050919050565b620006258162000564565b81146200063157600080fd5b50565b61508380620006446000396000f3fe6080604052600436106102085760003560e01c80636871ee4011610118578063a4821719116100a0578063c87b56dd1161006f578063c87b56dd1461076e578063db006a75146107ab578063e985e9c5146107d4578063f2fde38b14610811578063f6b4dfb41461083a5761020f565b8063a4821719146106bf578063b88d4fde146106d6578063bd8edf15146106ff578063c1756a2c1461073e5761020f565b80638da5cb5b116100e75780638da5cb5b146105d85780638f84aa091461060357806395d89b411461062e5780639b3ee2c314610659578063a22cb465146106965761020f565b80636871ee401461054257806370a0823114610559578063715018a614610596578063760839a0146105ad5761020f565b806323b872dd1161019b57806342842e0e1161016a57806342842e0e146104585780634f6ccce714610481578063522f6815146104be5780635fd8c710146104ee5780636352211e146105055761020f565b806323b872dd146103a05780632eed7269146103c95780632f745c59146103f2578063351bec6b1461042f5761020f565b8063098215e5116101d7578063098215e5146102e257806312065fe01461030d578063177e40251461033857806318160ddd146103755761020f565b806301ffc9a71461021457806306fdde0314610251578063081812fc1461027c578063095ea7b3146102b95761020f565b3661020f57005b600080fd5b34801561022057600080fd5b5061023b60048036038101906102369190613ad4565b610865565b60405161024891906141bd565b60405180910390f35b34801561025d57600080fd5b50610266610877565b60405161027391906141d8565b60405180910390f35b34801561028857600080fd5b506102a3600480360381019061029e9190613bbd565b610909565b6040516102b0919061413b565b60405180910390f35b3480156102c557600080fd5b506102e060048036038101906102db9190613a98565b61094f565b005b3480156102ee57600080fd5b506102f7610a67565b604051610304919061456d565b60405180910390f35b34801561031957600080fd5b50610322610a6d565b60405161032f919061456d565b60405180910390f35b34801561034457600080fd5b5061035f600480360381019061035a9190613a98565b610a75565b60405161036c919061456d565b60405180910390f35b34801561038157600080fd5b5061038a610adb565b604051610397919061456d565b60405180910390f35b3480156103ac57600080fd5b506103c760048036038101906103c29190613992565b610ae8565b005b3480156103d557600080fd5b506103f060048036038101906103eb9190613b26565b610b48565b005b3480156103fe57600080fd5b5061041960048036038101906104149190613a98565b610bf6565b604051610426919061456d565b60405180910390f35b34801561043b57600080fd5b5061045660048036038101906104519190613bbd565b610c9b565b005b34801561046457600080fd5b5061047f600480360381019061047a9190613992565b610cad565b005b34801561048d57600080fd5b506104a860048036038101906104a39190613bbd565b610ccd565b6040516104b5919061456d565b60405180910390f35b6104d860048036038101906104d3919061391a565b610d64565b6040516104e591906141bd565b60405180910390f35b3480156104fa57600080fd5b50610503610ea2565b005b34801561051157600080fd5b5061052c60048036038101906105279190613bbd565b610f41565b604051610539919061413b565b60405180910390f35b34801561054e57600080fd5b50610557610fc8565b005b34801561056557600080fd5b50610580600480360381019061057b91906138f1565b611016565b60405161058d919061456d565b60405180910390f35b3480156105a257600080fd5b506105ab6110ce565b005b3480156105b957600080fd5b506105c26110e2565b6040516105cf919061454b565b60405180910390f35b3480156105e457600080fd5b506105ed6112b2565b6040516105fa919061413b565b60405180910390f35b34801561060f57600080fd5b506106186112dc565b6040516106259190614156565b60405180910390f35b34801561063a57600080fd5b50610643611302565b60405161065091906141d8565b60405180910390f35b34801561066557600080fd5b50610680600480360381019061067b9190613bbd565b611394565b60405161068d919061456d565b60405180910390f35b3480156106a257600080fd5b506106bd60048036038101906106b89190613a5c565b6113ac565b005b3480156106cb57600080fd5b506106d46113c2565b005b3480156106e257600080fd5b506106fd60048036038101906106f891906139e1565b61147b565b005b34801561070b57600080fd5b5061072660048036038101906107219190613bbd565b6114dd565b604051610735939291906141fa565b60405180910390f35b6107586004803603810190610753919061391a565b61169f565b60405161076591906141bd565b60405180910390f35b34801561077a57600080fd5b5061079560048036038101906107909190613bbd565b6117dd565b6040516107a291906141d8565b60405180910390f35b3480156107b757600080fd5b506107d260048036038101906107cd9190613bbd565b61187d565b005b3480156107e057600080fd5b506107fb60048036038101906107f69190613956565b6119a2565b60405161080891906141bd565b60405180910390f35b34801561081d57600080fd5b50610838600480360381019061083391906138f1565b611a36565b005b34801561084657600080fd5b5061084f611aba565b60405161085c9190614156565b60405180910390f35b600061087082611b7f565b9050919050565b6060600080546108869061484b565b80601f01602080910402602001604051908101604052809291908181526020018280546108b29061484b565b80156108ff5780601f106108d4576101008083540402835291602001916108ff565b820191906000526020600020905b8154815290600101906020018083116108e257829003601f168201915b5050505050905090565b600061091482611bf9565b6004600083815260200190815260200160002060009054906101000a900473ffffffffffffffffffffffffffffffffffffffff169050919050565b600061095a82610f41565b90508073ffffffffffffffffffffffffffffffffffffffff168373ffffffffffffffffffffffffffffffffffffffff1614156109cb576040517f08c379a00000000000000000000000000000000000000000000000000000000081526004016109c29061448b565b60405180910390fd5b8073ffffffffffffffffffffffffffffffffffffffff166109ea611c44565b73ffffffffffffffffffffffffffffffffffffffff161480610a195750610a1881610a13611c44565b6119a2565b5b610a58576040517f08c379a0000000000000000000000000000000000000000000000000000000008152600401610a4f906144ab565b60405180910390fd5b610a628383611c4c565b505050565b60115481565b600047905090565b6000808373ffffffffffffffffffffffffffffffffffffffff1683610a9a919061466e565b9050600081604051602001610aaf9190614120565b60405160208183030381529060405290506000818051906020012090508060001c935050505092915050565b6000600980549050905090565b610af9610af3611c44565b82611d05565b610b38576040517f08c379a0000000000000000000000000000000000000000000000000000000008152600401610b2f906142ab565b60405180910390fd5b610b43838383611d9a565b505050565b610b50612094565b6000610b5c600d612112565b9050604051806060016040528085815260200184815260200183815250601060008381526020019081526020016000206000820151816000019080519060200190610ba8929190613652565b506020820151816001019080519060200190610bc5929190613652565b506040820151816002019080519060200190610be2929190613652565b50905050610bf0600d612120565b50505050565b6000610c0183611016565b8210610c42576040517f08c379a0000000000000000000000000000000000000000000000000000000008152600401610c39906142cb565b60405180910390fd5b600760008473ffffffffffffffffffffffffffffffffffffffff1673ffffffffffffffffffffffffffffffffffffffff168152602001908152602001600020600083815260200190815260200160002054905092915050565b610ca3612094565b8060118190555050565b610cc88383836040518060200160405280600081525061147b565b505050565b6000610cd7610adb565b8210610d18576040517f08c379a0000000000000000000000000000000000000000000000000000000008152600401610d0f906144cb565b60405180910390fd5b60098281548110610d52577f4e487b7100000000000000000000000000000000000000000000000000000000600052603260045260246000fd5b90600052602060002001549050919050565b6000600b60009054906101000a900460ff1615610db6576040517f08c379a0000000000000000000000000000000000000000000000000000000008152600401610dad9061450b565b60405180910390fd5b6001600b60006101000a81548160ff02191690831515021790555060008373ffffffffffffffffffffffffffffffffffffffff1683604051610df79061410b565b60006040518083038185875af1925050503d8060008114610e34576040519150601f19603f3d011682016040523d82523d6000602084013e610e39565b606091505b5050905080610e7d576040517f08c379a0000000000000000000000000000000000000000000000000000000008152600401610e749061436b565b60405180910390fd5b6000600b60006101000a81548160ff0219169083151502179055508091505092915050565b610eaa612094565b6000601360009054906101000a900473ffffffffffffffffffffffffffffffffffffffff1673ffffffffffffffffffffffffffffffffffffffff1631905060006064600a83610ef991906146f5565b610f0391906146c4565b82610f0e919061474f565b9050610f3c601260009054906101000a900473ffffffffffffffffffffffffffffffffffffffff1682610d64565b505050565b600080610f4d83612136565b9050600073ffffffffffffffffffffffffffffffffffffffff168173ffffffffffffffffffffffffffffffffffffffff161415610fbf576040517f08c379a0000000000000000000000000000000000000000000000000000000008152600401610fb69061446b565b60405180910390fd5b80915050919050565b610fd0612094565b6000610fdc600c612112565b9050610fe83382610a75565b600f6000838152602001908152602001600020819055506110093382612173565b611013600c612120565b50565b60008073ffffffffffffffffffffffffffffffffffffffff168273ffffffffffffffffffffffffffffffffffffffff161415611087576040517f08c379a000000000000000000000000000000000000000000000000000000000815260040161107e906143eb565b60405180910390fd5b600360008373ffffffffffffffffffffffffffffffffffffffff1673ffffffffffffffffffffffffffffffffffffffff168152602001908152602001600020549050919050565b6110d6612094565b6110e06000612191565b565b6110ea6136d8565b60146040518060600160405290816000820180546111079061484b565b80601f01602080910402602001604051908101604052809291908181526020018280546111339061484b565b80156111805780601f1061115557610100808354040283529160200191611180565b820191906000526020600020905b81548152906001019060200180831161116357829003601f168201915b505050505081526020016001820180546111999061484b565b80601f01602080910402602001604051908101604052809291908181526020018280546111c59061484b565b80156112125780601f106111e757610100808354040283529160200191611212565b820191906000526020600020905b8154815290600101906020018083116111f557829003601f168201915b5050505050815260200160028201805461122b9061484b565b80601f01602080910402602001604051908101604052809291908181526020018280546112579061484b565b80156112a45780601f10611279576101008083540402835291602001916112a4565b820191906000526020600020905b81548152906001019060200180831161128757829003601f168201915b505050505081525050905090565b6000600660009054906101000a900473ffffffffffffffffffffffffffffffffffffffff16905090565b601260009054906101000a900473ffffffffffffffffffffffffffffffffffffffff1681565b6060600180546113119061484b565b80601f016020809104026020016040519081016040528092919081815260200182805461133d9061484b565b801561138a5780601f1061135f5761010080835404028352916020019161138a565b820191906000526020600020905b81548152906001019060200180831161136d57829003601f168201915b5050505050905090565b600f6020528060005260406000206000915090505481565b6113be6113b7611c44565b8383612257565b5050565b60003390506113f5601360009054906101000a900473ffffffffffffffffffffffffffffffffffffffff1660115461169f565b611434576040517f08c379a000000000000000000000000000000000000000000000000000000000815260040161142b9061440b565b60405180910390fd5b6000611440600c612112565b905061144c8282610a75565b600f60008381526020019081526020016000208190555061146d8282612173565b611477600c612120565b5050565b61148c611486611c44565b83611d05565b6114cb576040517f08c379a00000000000000000000000000000000000000000000000000000000081526004016114c2906142ab565b60405180910390fd5b6114d7848484846123c4565b50505050565b60106020528060005260406000206000915090508060000180546115009061484b565b80601f016020809104026020016040519081016040528092919081815260200182805461152c9061484b565b80156115795780601f1061154e57610100808354040283529160200191611579565b820191906000526020600020905b81548152906001019060200180831161155c57829003601f168201915b50505050509080600101805461158e9061484b565b80601f01602080910402602001604051908101604052809291908181526020018280546115ba9061484b565b80156116075780601f106115dc57610100808354040283529160200191611607565b820191906000526020600020905b8154815290600101906020018083116115ea57829003601f168201915b50505050509080600201805461161c9061484b565b80601f01602080910402602001604051908101604052809291908181526020018280546116489061484b565b80156116955780601f1061166a57610100808354040283529160200191611695565b820191906000526020600020905b81548152906001019060200180831161167857829003601f168201915b5050505050905083565b6000600b60009054906101000a900460ff16156116f1576040517f08c379a00000000000000000000000000000000000000000000000000000000081526004016116e89061450b565b60405180910390fd5b6001600b60006101000a81548160ff02191690831515021790555060008373ffffffffffffffffffffffffffffffffffffffff16836040516117329061410b565b60006040518083038185875af1925050503d806000811461176f576040519150601f19603f3d011682016040523d82523d6000602084013e611774565b606091505b50509050806117b8576040517f08c379a00000000000000000000000000000000000000000000000000000000081526004016117af906143cb565b60405180910390fd5b6000600b60006101000a81548160ff0219169083151502179055508091505092915050565b60606117e882612420565b611827576040517f08c379a000000000000000000000000000000000000000000000000000000000815260040161181e9061452b565b60405180910390fd5b6000600f6000848152602001908152602001600020549050600061187161184d83612461565b60405160200161185d91906140de565b604051602081830303815290604052612585565b90508092505050919050565b61188681612420565b80156118c657503373ffffffffffffffffffffffffffffffffffffffff166118ae6000610f41565b73ffffffffffffffffffffffffffffffffffffffff16145b611905576040517f08c379a00000000000000000000000000000000000000000000000000000000081526004016118fc9061428b565b60405180910390fd5b6000611911600e612112565b905061191d600e612120565b6119268261270f565b601060008281526020019081526020016000206014600082018160000190805461194f9061484b565b61195a9291906136f9565b50600182018160010190805461196f9061484b565b61197a9291906136f9565b50600282018160020190805461198f9061484b565b61199a9291906136f9565b509050505050565b6000600560008473ffffffffffffffffffffffffffffffffffffffff1673ffffffffffffffffffffffffffffffffffffffff16815260200190815260200160002060008373ffffffffffffffffffffffffffffffffffffffff1673ffffffffffffffffffffffffffffffffffffffff16815260200190815260200160002060009054906101000a900460ff16905092915050565b611a3e612094565b600073ffffffffffffffffffffffffffffffffffffffff168173ffffffffffffffffffffffffffffffffffffffff161415611aae576040517f08c379a0000000000000000000000000000000000000000000000000000000008152600401611aa59061430b565b60405180910390fd5b611ab781612191565b50565b601360009054906101000a900473ffffffffffffffffffffffffffffffffffffffff1681565b611b7a838383604051602401611af893929190614246565b6040516020818303038152906040527f5821efa1000000000000000000000000000000000000000000000000000000007bffffffffffffffffffffffffffffffffffffffffffffffffffffffff19166020820180517bffffffffffffffffffffffffffffffffffffffffffffffffffffffff838183161783525050505061285d565b505050565b60007f780e9d63000000000000000000000000000000000000000000000000000000007bffffffffffffffffffffffffffffffffffffffffffffffffffffffff1916827bffffffffffffffffffffffffffffffffffffffffffffffffffffffff19161480611bf25750611bf182612886565b5b9050919050565b611c0281612420565b611c41576040517f08c379a0000000000000000000000000000000000000000000000000000000008152600401611c389061446b565b60405180910390fd5b50565b600033905090565b816004600083815260200190815260200160002060006101000a81548173ffffffffffffffffffffffffffffffffffffffff021916908373ffffffffffffffffffffffffffffffffffffffff160217905550808273ffffffffffffffffffffffffffffffffffffffff16611cbf83610f41565b73ffffffffffffffffffffffffffffffffffffffff167f8c5be1e5ebec7d5bd14f71427d1e84f3dd0314c0f7b2291e5b200ac8c7c3b92560405160405180910390a45050565b600080611d1183610f41565b90508073ffffffffffffffffffffffffffffffffffffffff168473ffffffffffffffffffffffffffffffffffffffff161480611d535750611d5281856119a2565b5b80611d9157508373ffffffffffffffffffffffffffffffffffffffff16611d7984610909565b73ffffffffffffffffffffffffffffffffffffffff16145b91505092915050565b8273ffffffffffffffffffffffffffffffffffffffff16611dba82610f41565b73ffffffffffffffffffffffffffffffffffffffff1614611e10576040517f08c379a0000000000000000000000000000000000000000000000000000000008152600401611e079061432b565b60405180910390fd5b600073ffffffffffffffffffffffffffffffffffffffff168273ffffffffffffffffffffffffffffffffffffffff161415611e80576040517f08c379a0000000000000000000000000000000000000000000000000000000008152600401611e779061438b565b60405180910390fd5b611e8d8383836001612968565b8273ffffffffffffffffffffffffffffffffffffffff16611ead82610f41565b73ffffffffffffffffffffffffffffffffffffffff1614611f03576040517f08c379a0000000000000000000000000000000000000000000000000000000008152600401611efa9061432b565b60405180910390fd5b6004600082815260200190815260200160002060006101000a81549073ffffffffffffffffffffffffffffffffffffffff02191690556001600360008573ffffffffffffffffffffffffffffffffffffffff1673ffffffffffffffffffffffffffffffffffffffff168152602001908152602001600020600082825403925050819055506001600360008473ffffffffffffffffffffffffffffffffffffffff1673ffffffffffffffffffffffffffffffffffffffff16815260200190815260200160002060008282540192505081905550816002600083815260200190815260200160002060006101000a81548173ffffffffffffffffffffffffffffffffffffffff021916908373ffffffffffffffffffffffffffffffffffffffff160217905550808273ffffffffffffffffffffffffffffffffffffffff168473ffffffffffffffffffffffffffffffffffffffff167fddf252ad1be2c89b69c2b068fc378daa952ba7f163c4a11628f55a4df523b3ef60405160405180910390a461208f838383600161297a565b505050565b61209c611c44565b73ffffffffffffffffffffffffffffffffffffffff166120ba6112b2565b73ffffffffffffffffffffffffffffffffffffffff1614612110576040517f08c379a00000000000000000000000000000000000000000000000000000000081526004016121079061444b565b60405180910390fd5b565b600081600001549050919050565b6001816000016000828254019250508190555050565b60006002600083815260200190815260200160002060009054906101000a900473ffffffffffffffffffffffffffffffffffffffff169050919050565b61218d828260405180602001604052806000815250612980565b5050565b6000600660009054906101000a900473ffffffffffffffffffffffffffffffffffffffff16905081600660006101000a81548173ffffffffffffffffffffffffffffffffffffffff021916908373ffffffffffffffffffffffffffffffffffffffff1602179055508173ffffffffffffffffffffffffffffffffffffffff168173ffffffffffffffffffffffffffffffffffffffff167f8be0079c531659141344cd1fd0a4f28419497f9722a3daafe3b4186f6b6457e060405160405180910390a35050565b8173ffffffffffffffffffffffffffffffffffffffff168373ffffffffffffffffffffffffffffffffffffffff1614156122c6576040517f08c379a00000000000000000000000000000000000000000000000000000000081526004016122bd906143ab565b60405180910390fd5b80600560008573ffffffffffffffffffffffffffffffffffffffff1673ffffffffffffffffffffffffffffffffffffffff16815260200190815260200160002060008473ffffffffffffffffffffffffffffffffffffffff1673ffffffffffffffffffffffffffffffffffffffff16815260200190815260200160002060006101000a81548160ff0219169083151502179055508173ffffffffffffffffffffffffffffffffffffffff168373ffffffffffffffffffffffffffffffffffffffff167f17307eab39ab6107e8899845ad3d59bd9653f200f220920489ca2b5937696c31836040516123b791906141bd565b60405180910390a3505050565b6123cf848484611d9a565b6123db848484846129db565b61241a576040517f08c379a0000000000000000000000000000000000000000000000000000000008152600401612411906142eb565b60405180910390fd5b50505050565b60008073ffffffffffffffffffffffffffffffffffffffff1661244283612136565b73ffffffffffffffffffffffffffffffffffffffff1614159050919050565b60606000600161247084612b72565b01905060008167ffffffffffffffff8111156124b5577f4e487b7100000000000000000000000000000000000000000000000000000000600052604160045260246000fd5b6040519080825280601f01601f1916602001820160405280156124e75781602001600182028036833780820191505090505b509050600082602001820190505b60011561257a578080600190039150507f3031323334353637383961626364656600000000000000000000000000000000600a86061a8153600a8581612564577f4e487b7100000000000000000000000000000000000000000000000000000000600052601260045260246000fd5b04945060008514156125755761257a565b6124f5565b819350505050919050565b60606000825114156125a85760405180602001604052806000815250905061270a565b600060405180606001604052806040815260200161500e60409139905060006003600285516125d7919061466e565b6125e191906146c4565b60046125ed91906146f5565b67ffffffffffffffff81111561262c577f4e487b7100000000000000000000000000000000000000000000000000000000600052604160045260246000fd5b6040519080825280601f01601f19166020018201604052801561265e5781602001600182028036833780820191505090505b509050600182016020820185865187015b808210156126ca576003820191508151603f8160121c168501518453600184019350603f81600c1c168501518453600184019350603f8160061c168501518453600184019350603f811685015184536001840193505061266f565b50506003865106600181146126e657600281146126f957612701565b603d6001830353603d6002830353612701565b603d60018303535b50505080925050505b919050565b600061271a82610f41565b905061272a816000846001612968565b61273382610f41565b90506004600083815260200190815260200160002060006101000a81549073ffffffffffffffffffffffffffffffffffffffff02191690556001600360008373ffffffffffffffffffffffffffffffffffffffff1673ffffffffffffffffffffffffffffffffffffffff168152602001908152602001600020600082825403925050819055506002600083815260200190815260200160002060006101000a81549073ffffffffffffffffffffffffffffffffffffffff021916905581600073ffffffffffffffffffffffffffffffffffffffff168273ffffffffffffffffffffffffffffffffffffffff167fddf252ad1be2c89b69c2b068fc378daa952ba7f163c4a11628f55a4df523b3ef60405160405180910390a461285981600084600161297a565b5050565b60008151905060006a636f6e736f6c652e6c6f679050602083016000808483855afa5050505050565b60007f80ac58cd000000000000000000000000000000000000000000000000000000007bffffffffffffffffffffffffffffffffffffffffffffffffffffffff1916827bffffffffffffffffffffffffffffffffffffffffffffffffffffffff1916148061295157507f5b5e139f000000000000000000000000000000000000000000000000000000007bffffffffffffffffffffffffffffffffffffffffffffffffffffffff1916827bffffffffffffffffffffffffffffffffffffffffffffffffffffffff1916145b80612961575061296082612da9565b5b9050919050565b61297484848484612e13565b50505050565b50505050565b61298a8383612f73565b61299760008484846129db565b6129d6576040517f08c379a00000000000000000000000000000000000000000000000000000000081526004016129cd906142eb565b60405180910390fd5b505050565b60006129fc8473ffffffffffffffffffffffffffffffffffffffff16613191565b15612b65578373ffffffffffffffffffffffffffffffffffffffff1663150b7a02612a25611c44565b8786866040518563ffffffff1660e01b8152600401612a479493929190614171565b602060405180830381600087803b158015612a6157600080fd5b505af1925050508015612a9257506040513d601f19601f82011682018060405250810190612a8f9190613afd565b60015b612b15573d8060008114612ac2576040519150601f19603f3d011682016040523d82523d6000602084013e612ac7565b606091505b50600081511415612b0d576040517f08c379a0000000000000000000000000000000000000000000000000000000008152600401612b04906142eb565b60405180910390fd5b805181602001fd5b63150b7a0260e01b7bffffffffffffffffffffffffffffffffffffffffffffffffffffffff1916817bffffffffffffffffffffffffffffffffffffffffffffffffffffffff191614915050612b6a565b600190505b949350505050565b600080600090507a184f03e93ff9f4daa797ed6e38ed64bf6a1f0100000000000000008310612bf6577a184f03e93ff9f4daa797ed6e38ed64bf6a1f0100000000000000008381612bec577f4e487b7100000000000000000000000000000000000000000000000000000000600052601260045260246000fd5b0492506040810190505b6d04ee2d6d415b85acef81000000008310612c59576d04ee2d6d415b85acef81000000008381612c4f577f4e487b7100000000000000000000000000000000000000000000000000000000600052601260045260246000fd5b0492506020810190505b662386f26fc100008310612cae57662386f26fc100008381612ca4577f4e487b7100000000000000000000000000000000000000000000000000000000600052601260045260246000fd5b0492506010810190505b6305f5e1008310612cfd576305f5e1008381612cf3577f4e487b7100000000000000000000000000000000000000000000000000000000600052601260045260246000fd5b0492506008810190505b6127108310612d48576127108381612d3e577f4e487b7100000000000000000000000000000000000000000000000000000000600052601260045260246000fd5b0492506004810190505b60648310612d915760648381612d87577f4e487b7100000000000000000000000000000000000000000000000000000000600052601260045260246000fd5b0492506002810190505b600a8310612da0576001810190505b80915050919050565b60007f01ffc9a7000000000000000000000000000000000000000000000000000000007bffffffffffffffffffffffffffffffffffffffffffffffffffffffff1916827bffffffffffffffffffffffffffffffffffffffffffffffffffffffff1916149050919050565b612e1f848484846131b4565b6001811115612e63576040517f08c379a0000000000000000000000000000000000000000000000000000000008152600401612e5a906144eb565b60405180910390fd5b6000829050600073ffffffffffffffffffffffffffffffffffffffff168573ffffffffffffffffffffffffffffffffffffffff161415612eab57612ea6816132da565b612eea565b8373ffffffffffffffffffffffffffffffffffffffff168573ffffffffffffffffffffffffffffffffffffffff1614612ee957612ee88582613323565b5b5b600073ffffffffffffffffffffffffffffffffffffffff168473ffffffffffffffffffffffffffffffffffffffff161415612f2d57612f2881613490565b612f6c565b8473ffffffffffffffffffffffffffffffffffffffff168473ffffffffffffffffffffffffffffffffffffffff1614612f6b57612f6a84826135d3565b5b5b5050505050565b600073ffffffffffffffffffffffffffffffffffffffff168273ffffffffffffffffffffffffffffffffffffffff161415612fe3576040517f08c379a0000000000000000000000000000000000000000000000000000000008152600401612fda9061442b565b60405180910390fd5b612fec81612420565b1561302c576040517f08c379a00000000000000000000000000000000000000000000000000000000081526004016130239061434b565b60405180910390fd5b61303a600083836001612968565b61304381612420565b15613083576040517f08c379a000000000000000000000000000000000000000000000000000000000815260040161307a9061434b565b60405180910390fd5b6001600360008473ffffffffffffffffffffffffffffffffffffffff1673ffffffffffffffffffffffffffffffffffffffff16815260200190815260200160002060008282540192505081905550816002600083815260200190815260200160002060006101000a81548173ffffffffffffffffffffffffffffffffffffffff021916908373ffffffffffffffffffffffffffffffffffffffff160217905550808273ffffffffffffffffffffffffffffffffffffffff16600073ffffffffffffffffffffffffffffffffffffffff167fddf252ad1be2c89b69c2b068fc378daa952ba7f163c4a11628f55a4df523b3ef60405160405180910390a461318d60008383600161297a565b5050565b6000808273ffffffffffffffffffffffffffffffffffffffff163b119050919050565b60018111156132d457600073ffffffffffffffffffffffffffffffffffffffff168473ffffffffffffffffffffffffffffffffffffffff16146132485780600360008673ffffffffffffffffffffffffffffffffffffffff1673ffffffffffffffffffffffffffffffffffffffff1681526020019081526020016000206000828254613240919061474f565b925050819055505b600073ffffffffffffffffffffffffffffffffffffffff168373ffffffffffffffffffffffffffffffffffffffff16146132d35780600360008573ffffffffffffffffffffffffffffffffffffffff1673ffffffffffffffffffffffffffffffffffffffff16815260200190815260200160002060008282546132cb919061466e565b925050819055505b5b50505050565b600980549050600a600083815260200190815260200160002081905550600981908060018154018082558091505060019003906000526020600020016000909190919091505550565b6000600161333084611016565b61333a919061474f565b905060006008600084815260200190815260200160002054905081811461341f576000600760008673ffffffffffffffffffffffffffffffffffffffff1673ffffffffffffffffffffffffffffffffffffffff168152602001908152602001600020600084815260200190815260200160002054905080600760008773ffffffffffffffffffffffffffffffffffffffff1673ffffffffffffffffffffffffffffffffffffffff168152602001908152602001600020600084815260200190815260200160002081905550816008600083815260200190815260200160002081905550505b6008600084815260200190815260200160002060009055600760008573ffffffffffffffffffffffffffffffffffffffff1673ffffffffffffffffffffffffffffffffffffffff16815260200190815260200160002060008381526020019081526020016000206000905550505050565b600060016009805490506134a4919061474f565b90506000600a60008481526020019081526020016000205490506000600983815481106134fa577f4e487b7100000000000000000000000000000000000000000000000000000000600052603260045260246000fd5b906000526020600020015490508060098381548110613542577f4e487b7100000000000000000000000000000000000000000000000000000000600052603260045260246000fd5b906000526020600020018190555081600a600083815260200190815260200160002081905550600a60008581526020019081526020016000206000905560098054806135b7577f4e487b7100000000000000000000000000000000000000000000000000000000600052603160045260246000fd5b6001900381819060005260206000200160009055905550505050565b60006135de83611016565b905081600760008573ffffffffffffffffffffffffffffffffffffffff1673ffffffffffffffffffffffffffffffffffffffff168152602001908152602001600020600083815260200190815260200160002081905550806008600084815260200190815260200160002081905550505050565b82805461365e9061484b565b90600052602060002090601f01602090048101928261368057600085556136c7565b82601f1061369957805160ff19168380011785556136c7565b828001600101855582156136c7579182015b828111156136c65782518255916020019190600101906136ab565b5b5090506136d49190613786565b5090565b60405180606001604052806060815260200160608152602001606081525090565b8280546137059061484b565b90600052602060002090601f0160209004810192826137275760008555613775565b82601f106137385780548555613775565b8280016001018555821561377557600052602060002091601f016020900482015b82811115613774578254825591600101919060010190613759565b5b5090506137829190613786565b5090565b5b8082111561379f576000816000905550600101613787565b5090565b60006137b66137b1846145ad565b614588565b9050828152602081018484840111156137ce57600080fd5b6137d9848285614809565b509392505050565b60006137f46137ef846145de565b614588565b90508281526020810184848401111561380c57600080fd5b613817848285614809565b509392505050565b60008135905061382e81614f9a565b92915050565b60008135905061384381614fb1565b92915050565b60008135905061385881614fc8565b92915050565b60008135905061386d81614fdf565b92915050565b60008151905061388281614fdf565b92915050565b600082601f83011261389957600080fd5b81356138a98482602086016137a3565b91505092915050565b600082601f8301126138c357600080fd5b81356138d38482602086016137e1565b91505092915050565b6000813590506138eb81614ff6565b92915050565b60006020828403121561390357600080fd5b60006139118482850161381f565b91505092915050565b6000806040838503121561392d57600080fd5b600061393b85828601613834565b925050602061394c858286016138dc565b9150509250929050565b6000806040838503121561396957600080fd5b60006139778582860161381f565b92505060206139888582860161381f565b9150509250929050565b6000806000606084860312156139a757600080fd5b60006139b58682870161381f565b93505060206139c68682870161381f565b92505060406139d7868287016138dc565b9150509250925092565b600080600080608085870312156139f757600080fd5b6000613a058782880161381f565b9450506020613a168782880161381f565b9350506040613a27878288016138dc565b925050606085013567ffffffffffffffff811115613a4457600080fd5b613a5087828801613888565b91505092959194509250565b60008060408385031215613a6f57600080fd5b6000613a7d8582860161381f565b9250506020613a8e85828601613849565b9150509250929050565b60008060408385031215613aab57600080fd5b6000613ab98582860161381f565b9250506020613aca858286016138dc565b9150509250929050565b600060208284031215613ae657600080fd5b6000613af48482850161385e565b91505092915050565b600060208284031215613b0f57600080fd5b6000613b1d84828501613873565b91505092915050565b600080600060608486031215613b3b57600080fd5b600084013567ffffffffffffffff811115613b5557600080fd5b613b61868287016138b2565b935050602084013567ffffffffffffffff811115613b7e57600080fd5b613b8a868287016138b2565b925050604084013567ffffffffffffffff811115613ba757600080fd5b613bb3868287016138b2565b9150509250925092565b600060208284031215613bcf57600080fd5b6000613bdd848285016138dc565b91505092915050565b613bef81614795565b82525050565b613bfe81614783565b82525050565b613c0d816147a7565b82525050565b6000613c1e8261460f565b613c288185614625565b9350613c38818560208601614818565b613c4181614974565b840191505092915050565b6000613c578261461a565b613c618185614641565b9350613c71818560208601614818565b613c7a81614974565b840191505092915050565b6000613c908261461a565b613c9a8185614652565b9350613caa818560208601614818565b613cb381614974565b840191505092915050565b6000613cc98261461a565b613cd38185614663565b9350613ce3818560208601614818565b80840191505092915050565b6000613cfc600f83614663565b9150613d0782614985565b600f82019050919050565b6000613d1f605183614652565b9150613d2a826149ae565b606082019050919050565b6000613d42602d83614652565b9150613d4d82614a23565b604082019050919050565b6000613d65602b83614652565b9150613d7082614a72565b604082019050919050565b6000613d88603283614652565b9150613d9382614ac1565b604082019050919050565b6000613dab602683614652565b9150613db682614b10565b604082019050919050565b6000613dce602583614652565b9150613dd982614b5f565b604082019050919050565b6000613df1601c83614652565b9150613dfc82614bae565b602082019050919050565b6000613e14601283614652565b9150613e1f82614bd7565b602082019050919050565b6000613e37602483614652565b9150613e4282614c00565b604082019050919050565b6000613e5a601983614652565b9150613e6582614c4f565b602082019050919050565b6000613e7d600e83614652565b9150613e8882614c78565b602082019050919050565b6000613ea0602983614652565b9150613eab82614ca1565b604082019050919050565b6000613ec3602283614652565b9150613ece82614cf0565b604082019050919050565b6000613ee6600283614663565b9150613ef182614d3f565b600282019050919050565b6000613f09602083614652565b9150613f1482614d68565b602082019050919050565b6000613f2c602083614652565b9150613f3782614d91565b602082019050919050565b6000613f4f601883614652565b9150613f5a82614dba565b602082019050919050565b6000613f72602183614652565b9150613f7d82614de3565b604082019050919050565b6000613f95600083614636565b9150613fa082614e32565b600082019050919050565b6000613fb8603d83614652565b9150613fc382614e35565b604082019050919050565b6000613fdb602c83614652565b9150613fe682614e84565b604082019050919050565b6000613ffe603583614652565b915061400982614ed3565b604082019050919050565b6000614021601383614652565b915061402c82614f22565b602082019050919050565b6000614044603083614652565b915061404f82614f4b565b604082019050919050565b600060608301600083015184820360008601526140778282613c4c565b915050602083015184820360208601526140918282613c4c565b915050604083015184820360408601526140ab8282613c4c565b9150508091505092915050565b6140c1816147ff565b82525050565b6140d86140d3826147ff565b6148ae565b82525050565b60006140e982613cef565b91506140f58284613cbe565b915061410082613ed9565b915081905092915050565b600061411682613f88565b9150819050919050565b600061412c82846140c7565b60208201915081905092915050565b60006020820190506141506000830184613bf5565b92915050565b600060208201905061416b6000830184613be6565b92915050565b60006080820190506141866000830187613bf5565b6141936020830186613bf5565b6141a060408301856140b8565b81810360608301526141b28184613c13565b905095945050505050565b60006020820190506141d26000830184613c04565b92915050565b600060208201905081810360008301526141f28184613c85565b905092915050565b600060608201905081810360008301526142148186613c85565b905081810360208301526142288185613c85565b9050818103604083015261423c8184613c85565b9050949350505050565b600060608201905081810360008301526142608186613c85565b905081810360208301526142748185613c85565b905061428360408301846140b8565b949350505050565b600060208201905081810360008301526142a481613d12565b9050919050565b600060208201905081810360008301526142c481613d35565b9050919050565b600060208201905081810360008301526142e481613d58565b9050919050565b6000602082019050818103600083015261430481613d7b565b9050919050565b6000602082019050818103600083015261432481613d9e565b9050919050565b6000602082019050818103600083015261434481613dc1565b9050919050565b6000602082019050818103600083015261436481613de4565b9050919050565b6000602082019050818103600083015261438481613e07565b9050919050565b600060208201905081810360008301526143a481613e2a565b9050919050565b600060208201905081810360008301526143c481613e4d565b9050919050565b600060208201905081810360008301526143e481613e70565b9050919050565b6000602082019050818103600083015261440481613e93565b9050919050565b6000602082019050818103600083015261442481613eb6565b9050919050565b6000602082019050818103600083015261444481613efc565b9050919050565b6000602082019050818103600083015261446481613f1f565b9050919050565b6000602082019050818103600083015261448481613f42565b9050919050565b600060208201905081810360008301526144a481613f65565b9050919050565b600060208201905081810360008301526144c481613fab565b9050919050565b600060208201905081810360008301526144e481613fce565b9050919050565b6000602082019050818103600083015261450481613ff1565b9050919050565b6000602082019050818103600083015261452481614014565b9050919050565b6000602082019050818103600083015261454481614037565b9050919050565b60006020820190508181036000830152614565818461405a565b905092915050565b600060208201905061458260008301846140b8565b92915050565b60006145926145a3565b905061459e828261487d565b919050565b6000604051905090565b600067ffffffffffffffff8211156145c8576145c7614945565b5b6145d182614974565b9050602081019050919050565b600067ffffffffffffffff8211156145f9576145f8614945565b5b61460282614974565b9050602081019050919050565b600081519050919050565b600081519050919050565b600082825260208201905092915050565b600081905092915050565b600082825260208201905092915050565b600082825260208201905092915050565b600081905092915050565b6000614679826147ff565b9150614684836147ff565b9250827fffffffffffffffffffffffffffffffffffffffffffffffffffffffffffffffff038211156146b9576146b86148b8565b5b828201905092915050565b60006146cf826147ff565b91506146da836147ff565b9250826146ea576146e96148e7565b5b828204905092915050565b6000614700826147ff565b915061470b836147ff565b9250817fffffffffffffffffffffffffffffffffffffffffffffffffffffffffffffffff0483118215151615614744576147436148b8565b5b828202905092915050565b600061475a826147ff565b9150614765836147ff565b925082821015614778576147776148b8565b5b828203905092915050565b600061478e826147df565b9050919050565b60006147a0826147df565b9050919050565b60008115159050919050565b60007fffffffff0000000000000000000000000000000000000000000000000000000082169050919050565b600073ffffffffffffffffffffffffffffffffffffffff82169050919050565b6000819050919050565b82818337600083830152505050565b60005b8381101561483657808201518184015260208101905061481b565b83811115614845576000848401525b50505050565b6000600282049050600182168061486357607f821691505b6020821081141561487757614876614916565b5b50919050565b61488682614974565b810181811067ffffffffffffffff821117156148a5576148a4614945565b5b80604052505050565b6000819050919050565b7f4e487b7100000000000000000000000000000000000000000000000000000000600052601160045260246000fd5b7f4e487b7100000000000000000000000000000000000000000000000000000000600052601260045260246000fd5b7f4e487b7100000000000000000000000000000000000000000000000000000000600052602260045260246000fd5b7f4e487b7100000000000000000000000000000000000000000000000000000000600052604160045260246000fd5b6000601f19601f8301169050919050565b7f7b2022746f6b656e496422203a20220000000000000000000000000000000000600082015250565b7f596f7520646f6e2774206861766520746f6b656e7320696e207468697320706c60008201527f6174666f726d2c2074727920627579696e67206120746f6b656e206f7220776960208201527f746820616e6f746865722077616c6c6574000000000000000000000000000000604082015250565b7f4552433732313a2063616c6c6572206973206e6f7420746f6b656e206f776e6560008201527f72206f7220617070726f76656400000000000000000000000000000000000000602082015250565b7f455243373231456e756d657261626c653a206f776e657220696e646578206f7560008201527f74206f6620626f756e6473000000000000000000000000000000000000000000602082015250565b7f4552433732313a207472616e7366657220746f206e6f6e20455243373231526560008201527f63656976657220696d706c656d656e7465720000000000000000000000000000602082015250565b7f4f776e61626c653a206e6577206f776e657220697320746865207a65726f206160008201527f6464726573730000000000000000000000000000000000000000000000000000602082015250565b7f4552433732313a207472616e736665722066726f6d20696e636f72726563742060008201527f6f776e6572000000000000000000000000000000000000000000000000000000602082015250565b7f4552433732313a20746f6b656e20616c7265616479206d696e74656400000000600082015250565b7f5472616e73616363696f6e206661696c65640000000000000000000000000000600082015250565b7f4552433732313a207472616e7366657220746f20746865207a65726f2061646460008201527f7265737300000000000000000000000000000000000000000000000000000000602082015250565b7f4552433732313a20617070726f766520746f2063616c6c657200000000000000600082015250565b7f5061796d656e74204661696c6564000000000000000000000000000000000000600082015250565b7f4552433732313a2061646472657373207a65726f206973206e6f74206120766160008201527f6c6964206f776e65720000000000000000000000000000000000000000000000602082015250565b7f5061796d656e74204661696c65642c20436865636b20796f75722062616c616e60008201527f6365000000000000000000000000000000000000000000000000000000000000602082015250565b7f227d000000000000000000000000000000000000000000000000000000000000600082015250565b7f4552433732313a206d696e7420746f20746865207a65726f2061646472657373600082015250565b7f4f776e61626c653a2063616c6c6572206973206e6f7420746865206f776e6572600082015250565b7f4552433732313a20696e76616c696420746f6b656e2049440000000000000000600082015250565b7f4552433732313a20617070726f76616c20746f2063757272656e74206f776e6560008201527f7200000000000000000000000000000000000000000000000000000000000000602082015250565b50565b7f4552433732313a20617070726f76652063616c6c6572206973206e6f7420746f60008201527f6b656e206f776e6572206f7220617070726f76656420666f7220616c6c000000602082015250565b7f455243373231456e756d657261626c653a20676c6f62616c20696e646578206f60008201527f7574206f6620626f756e64730000000000000000000000000000000000000000602082015250565b7f455243373231456e756d657261626c653a20636f6e736563757469766520747260008201527f616e7366657273206e6f7420737570706f727465640000000000000000000000602082015250565b7f5265656e7472616e637920446574656374656400000000000000000000000000600082015250565b7f455243373231204d657461646174613a2055524920717565727920666f72206e60008201527f6f6e6578697374656e7420746f6b656e00000000000000000000000000000000602082015250565b614fa381614783565b8114614fae57600080fd5b50565b614fba81614795565b8114614fc557600080fd5b50565b614fd1816147a7565b8114614fdc57600080fd5b50565b614fe8816147b3565b8114614ff357600080fd5b50565b614fff816147ff565b811461500a57600080fd5b5056fe4142434445464748494a4b4c4d4e4f505152535455565758595a6162636465666768696a6b6c6d6e6f707172737475767778797a303132333435363738392b2fa26469706673582212207475d2c7752aef5eb06a4451824cd0995315cd42a38a2416ec89767870a2acbd64736f6c63430008040033",
  "linkReferences": {},
  "deployedLinkReferences": {}
}