{
  "_format": "hh-sol-artifact-1",
  "contractName": "TokenCreation",
  "sourceName": "contracts/TokenCreation.sol",
  "abi": [
    {
      "inputs": [
        {
          "internalType": "address",
          "name": "_account",
          "type": "address"
        },
        {
          "internalType": "uint256",
          "name": "_tokenId",
          "type": "uint256"
        }
      ],
      "name": "createTokenDNA",
      "outputs": [
        {
          "internalType": "uint256",
          "name": "",
          "type": "uint256"
        }
      ],
      "stateMutability": "pure",
      "type": "function"
    }
  ],
  "bytecode": "0x608060405234801561001057600080fd5b5061016a806100206000396000f3fe608060405234801561001057600080fd5b506004361061002b5760003560e01c8063177e402514610030575b600080fd5b61004361003e3660046100b0565b610055565b60405190815260200160405180910390f35b60008061007873ffffffffffffffffffffffffffffffffffffffff8516846100f5565b905060008160405160200161008f91815260200190565b60408051808303601f19018152919052805160209091012095945050505050565b600080604083850312156100c357600080fd5b823573ffffffffffffffffffffffffffffffffffffffff811681146100e757600080fd5b946020939093013593505050565b6000821982111561012f577f4e487b7100000000000000000000000000000000000000000000000000000000600052601160045260246000fd5b50019056fea2646970667358221220e56556edaafd81f8a474cfeac08f02b4bafa72d5d310415e0c619403642c3d0764736f6c63430008090033",
  "linkReferences": {},
  "deployedLinkReferences": {}
}