{
  "_format": "hh-sol-artifact-1",
  "contractName": "TokenCreation",
  "sourceName": "contracts/TokenCreation.sol",
  "abi": [
    {
      "inputs": [
        {
          "internalType": "address",
          "name": "_account",
          "type": "address"
        },
        {
          "internalType": "uint256",
          "name": "_tokenId",
          "type": "uint256"
        }
      ],
      "name": "createTokenDNA",
      "outputs": [
        {
          "internalType": "uint256",
          "name": "",
          "type": "uint256"
        }
      ],
      "stateMutability": "pure",
      "type": "function"
    }
  ],
  "bytecode": "0x608060405234801561001057600080fd5b506102b7806100206000396000f3fe608060405234801561001057600080fd5b506004361061002b5760003560e01c8063177e402514610030575b600080fd5b61004a600480360381019061004591906100f0565b610060565b604051610057919061016d565b60405180910390f35b6000808373ffffffffffffffffffffffffffffffffffffffff16836100859190610188565b905060008160405160200161009a9190610152565b60405160208183030381529060405290506000818051906020012090508060001c935050505092915050565b6000813590506100d581610253565b92915050565b6000813590506100ea8161026a565b92915050565b6000806040838503121561010357600080fd5b6000610111858286016100c6565b9250506020610122858286016100db565b9150509250929050565b61013581610210565b82525050565b61014c61014782610210565b61021a565b82525050565b600061015e828461013b565b60208201915081905092915050565b6000602082019050610182600083018461012c565b92915050565b600061019382610210565b915061019e83610210565b9250827fffffffffffffffffffffffffffffffffffffffffffffffffffffffffffffffff038211156101d3576101d2610224565b5b828201905092915050565b60006101e9826101f0565b9050919050565b600073ffffffffffffffffffffffffffffffffffffffff82169050919050565b6000819050919050565b6000819050919050565b7f4e487b7100000000000000000000000000000000000000000000000000000000600052601160045260246000fd5b61025c816101de565b811461026757600080fd5b50565b61027381610210565b811461027e57600080fd5b5056fea2646970667358221220352c3c3e96b9209d5b3b18f640194c19b03a477a092cd9eeeeb719fe4808dd0164736f6c63430008040033",
  "linkReferences": {},
  "deployedLinkReferences": {}
}