{
  "_format": "hh-sol-artifact-1",
  "contractName": "TokenBat",
  "sourceName": "contracts/TokenBat.sol",
  "abi": [
    {
      "inputs": [],
      "stateMutability": "nonpayable",
      "type": "constructor"
    },
    {
      "anonymous": false,
      "inputs": [
        {
          "indexed": true,
          "internalType": "address",
          "name": "owner",
          "type": "address"
        },
        {
          "indexed": true,
          "internalType": "address",
          "name": "approved",
          "type": "address"
        },
        {
          "indexed": true,
          "internalType": "uint256",
          "name": "tokenId",
          "type": "uint256"
        }
      ],
      "name": "Approval",
      "type": "event"
    },
    {
      "anonymous": false,
      "inputs": [
        {
          "indexed": true,
          "internalType": "address",
          "name": "owner",
          "type": "address"
        },
        {
          "indexed": true,
          "internalType": "address",
          "name": "operator",
          "type": "address"
        },
        {
          "indexed": false,
          "internalType": "bool",
          "name": "approved",
          "type": "bool"
        }
      ],
      "name": "ApprovalForAll",
      "type": "event"
    },
    {
      "anonymous": false,
      "inputs": [
        {
          "indexed": false,
          "internalType": "uint256",
          "name": "tokenId",
          "type": "uint256"
        },
        {
          "indexed": false,
          "internalType": "address",
          "name": "owner",
          "type": "address"
        }
      ],
      "name": "Minted",
      "type": "event"
    },
    {
      "anonymous": false,
      "inputs": [
        {
          "indexed": true,
          "internalType": "address",
          "name": "previousOwner",
          "type": "address"
        },
        {
          "indexed": true,
          "internalType": "address",
          "name": "newOwner",
          "type": "address"
        }
      ],
      "name": "OwnershipTransferred",
      "type": "event"
    },
    {
      "anonymous": false,
      "inputs": [
        {
          "indexed": false,
          "internalType": "address",
          "name": "account",
          "type": "address"
        }
      ],
      "name": "Paused",
      "type": "event"
    },
    {
      "anonymous": false,
      "inputs": [
        {
          "indexed": false,
          "internalType": "uint256",
          "name": "tokenId",
          "type": "uint256"
        }
      ],
      "name": "Redeemed",
      "type": "event"
    },
    {
      "anonymous": false,
      "inputs": [
        {
          "indexed": true,
          "internalType": "bytes32",
          "name": "role",
          "type": "bytes32"
        },
        {
          "indexed": true,
          "internalType": "bytes32",
          "name": "previousAdminRole",
          "type": "bytes32"
        },
        {
          "indexed": true,
          "internalType": "bytes32",
          "name": "newAdminRole",
          "type": "bytes32"
        }
      ],
      "name": "RoleAdminChanged",
      "type": "event"
    },
    {
      "anonymous": false,
      "inputs": [
        {
          "indexed": true,
          "internalType": "bytes32",
          "name": "role",
          "type": "bytes32"
        },
        {
          "indexed": true,
          "internalType": "address",
          "name": "account",
          "type": "address"
        },
        {
          "indexed": true,
          "internalType": "address",
          "name": "sender",
          "type": "address"
        }
      ],
      "name": "RoleGranted",
      "type": "event"
    },
    {
      "anonymous": false,
      "inputs": [
        {
          "indexed": true,
          "internalType": "bytes32",
          "name": "role",
          "type": "bytes32"
        },
        {
          "indexed": true,
          "internalType": "address",
          "name": "account",
          "type": "address"
        },
        {
          "indexed": true,
          "internalType": "address",
          "name": "sender",
          "type": "address"
        }
      ],
      "name": "RoleRevoked",
      "type": "event"
    },
    {
      "anonymous": false,
      "inputs": [
        {
          "indexed": true,
          "internalType": "address",
          "name": "from",
          "type": "address"
        },
        {
          "indexed": true,
          "internalType": "address",
          "name": "to",
          "type": "address"
        },
        {
          "indexed": true,
          "internalType": "uint256",
          "name": "tokenId",
          "type": "uint256"
        }
      ],
      "name": "Transfer",
      "type": "event"
    },
    {
      "anonymous": false,
      "inputs": [
        {
          "indexed": false,
          "internalType": "address",
          "name": "account",
          "type": "address"
        }
      ],
      "name": "Unpaused",
      "type": "event"
    },
    {
      "inputs": [],
      "name": "DEFAULT_ADMIN_ROLE",
      "outputs": [
        {
          "internalType": "bytes32",
          "name": "",
          "type": "bytes32"
        }
      ],
      "stateMutability": "view",
      "type": "function"
    },
    {
      "inputs": [],
      "name": "MAX_TOKENS",
      "outputs": [
        {
          "internalType": "uint256",
          "name": "",
          "type": "uint256"
        }
      ],
      "stateMutability": "view",
      "type": "function"
    },
    {
      "inputs": [],
      "name": "MINTER_ROLE",
      "outputs": [
        {
          "internalType": "bytes32",
          "name": "",
          "type": "bytes32"
        }
      ],
      "stateMutability": "view",
      "type": "function"
    },
    {
      "inputs": [],
      "name": "PAUSER_ROLE",
      "outputs": [
        {
          "internalType": "bytes32",
          "name": "",
          "type": "bytes32"
        }
      ],
      "stateMutability": "view",
      "type": "function"
    },
    {
      "inputs": [
        {
          "internalType": "address",
          "name": "to",
          "type": "address"
        },
        {
          "internalType": "uint256",
          "name": "tokenId",
          "type": "uint256"
        }
      ],
      "name": "approve",
      "outputs": [],
      "stateMutability": "nonpayable",
      "type": "function"
    },
    {
      "inputs": [
        {
          "internalType": "address",
          "name": "owner",
          "type": "address"
        }
      ],
      "name": "balanceOf",
      "outputs": [
        {
          "internalType": "uint256",
          "name": "",
          "type": "uint256"
        }
      ],
      "stateMutability": "view",
      "type": "function"
    },
    {
      "inputs": [
        {
          "internalType": "uint256",
          "name": "tokenId",
          "type": "uint256"
        }
      ],
      "name": "burn",
      "outputs": [],
      "stateMutability": "nonpayable",
      "type": "function"
    },
    {
      "inputs": [
        {
          "internalType": "uint256",
          "name": "tokenId",
          "type": "uint256"
        }
      ],
      "name": "getApproved",
      "outputs": [
        {
          "internalType": "address",
          "name": "",
          "type": "address"
        }
      ],
      "stateMutability": "view",
      "type": "function"
    },
    {
      "inputs": [
        {
          "internalType": "bytes32",
          "name": "role",
          "type": "bytes32"
        }
      ],
      "name": "getRoleAdmin",
      "outputs": [
        {
          "internalType": "bytes32",
          "name": "",
          "type": "bytes32"
        }
      ],
      "stateMutability": "view",
      "type": "function"
    },
    {
      "inputs": [
        {
          "internalType": "bytes32",
          "name": "role",
          "type": "bytes32"
        },
        {
          "internalType": "uint256",
          "name": "index",
          "type": "uint256"
        }
      ],
      "name": "getRoleMember",
      "outputs": [
        {
          "internalType": "address",
          "name": "",
          "type": "address"
        }
      ],
      "stateMutability": "view",
      "type": "function"
    },
    {
      "inputs": [
        {
          "internalType": "bytes32",
          "name": "role",
          "type": "bytes32"
        }
      ],
      "name": "getRoleMemberCount",
      "outputs": [
        {
          "internalType": "uint256",
          "name": "",
          "type": "uint256"
        }
      ],
      "stateMutability": "view",
      "type": "function"
    },
    {
      "inputs": [
        {
          "internalType": "bytes32",
          "name": "role",
          "type": "bytes32"
        },
        {
          "internalType": "address",
          "name": "account",
          "type": "address"
        }
      ],
      "name": "grantRole",
      "outputs": [],
      "stateMutability": "nonpayable",
      "type": "function"
    },
    {
      "inputs": [
        {
          "internalType": "bytes32",
          "name": "role",
          "type": "bytes32"
        },
        {
          "internalType": "address",
          "name": "account",
          "type": "address"
        }
      ],
      "name": "hasRole",
      "outputs": [
        {
          "internalType": "bool",
          "name": "",
          "type": "bool"
        }
      ],
      "stateMutability": "view",
      "type": "function"
    },
    {
      "inputs": [],
      "name": "hasSaleStarted",
      "outputs": [
        {
          "internalType": "bool",
          "name": "",
          "type": "bool"
        }
      ],
      "stateMutability": "view",
      "type": "function"
    },
    {
      "inputs": [],
      "name": "hasSoldOut",
      "outputs": [
        {
          "internalType": "bool",
          "name": "",
          "type": "bool"
        }
      ],
      "stateMutability": "view",
      "type": "function"
    },
    {
      "inputs": [
        {
          "internalType": "address",
          "name": "_owner",
          "type": "address"
        },
        {
          "internalType": "address",
          "name": "_operator",
          "type": "address"
        }
      ],
      "name": "isApprovedForAll",
      "outputs": [
        {
          "internalType": "bool",
          "name": "isOperator",
          "type": "bool"
        }
      ],
      "stateMutability": "view",
      "type": "function"
    },
    {
      "inputs": [
        {
          "internalType": "address",
          "name": "to",
          "type": "address"
        }
      ],
      "name": "mint",
      "outputs": [],
      "stateMutability": "nonpayable",
      "type": "function"
    },
    {
      "inputs": [
        {
          "internalType": "uint256",
          "name": "quantity",
          "type": "uint256"
        },
        {
          "internalType": "address",
          "name": "receiver",
          "type": "address"
        }
      ],
      "name": "mintToken",
      "outputs": [],
      "stateMutability": "payable",
      "type": "function"
    },
    {
      "inputs": [],
      "name": "name",
      "outputs": [
        {
          "internalType": "string",
          "name": "",
          "type": "string"
        }
      ],
      "stateMutability": "view",
      "type": "function"
    },
    {
      "inputs": [],
      "name": "owner",
      "outputs": [
        {
          "internalType": "address",
          "name": "",
          "type": "address"
        }
      ],
      "stateMutability": "view",
      "type": "function"
    },
    {
      "inputs": [
        {
          "internalType": "uint256",
          "name": "tokenId",
          "type": "uint256"
        }
      ],
      "name": "ownerOf",
      "outputs": [
        {
          "internalType": "address",
          "name": "",
          "type": "address"
        }
      ],
      "stateMutability": "view",
      "type": "function"
    },
    {
      "inputs": [],
      "name": "pause",
      "outputs": [],
      "stateMutability": "nonpayable",
      "type": "function"
    },
    {
      "inputs": [],
      "name": "pauseSale",
      "outputs": [],
      "stateMutability": "nonpayable",
      "type": "function"
    },
    {
      "inputs": [],
      "name": "paused",
      "outputs": [
        {
          "internalType": "bool",
          "name": "",
          "type": "bool"
        }
      ],
      "stateMutability": "view",
      "type": "function"
    },
    {
      "inputs": [],
      "name": "priceToMint",
      "outputs": [
        {
          "internalType": "uint256",
          "name": "",
          "type": "uint256"
        }
      ],
      "stateMutability": "view",
      "type": "function"
    },
    {
      "inputs": [
        {
          "internalType": "uint256",
          "name": "_tokenId",
          "type": "uint256"
        }
      ],
      "name": "redeemToken",
      "outputs": [],
      "stateMutability": "nonpayable",
      "type": "function"
    },
    {
      "inputs": [],
      "name": "renounceOwnership",
      "outputs": [],
      "stateMutability": "nonpayable",
      "type": "function"
    },
    {
      "inputs": [
        {
          "internalType": "bytes32",
          "name": "role",
          "type": "bytes32"
        },
        {
          "internalType": "address",
          "name": "account",
          "type": "address"
        }
      ],
      "name": "renounceRole",
      "outputs": [],
      "stateMutability": "nonpayable",
      "type": "function"
    },
    {
      "inputs": [
        {
          "internalType": "bytes32",
          "name": "role",
          "type": "bytes32"
        },
        {
          "internalType": "address",
          "name": "account",
          "type": "address"
        }
      ],
      "name": "revokeRole",
      "outputs": [],
      "stateMutability": "nonpayable",
      "type": "function"
    },
    {
      "inputs": [
        {
          "internalType": "address",
          "name": "from",
          "type": "address"
        },
        {
          "internalType": "address",
          "name": "to",
          "type": "address"
        },
        {
          "internalType": "uint256",
          "name": "tokenId",
          "type": "uint256"
        }
      ],
      "name": "safeTransferFrom",
      "outputs": [],
      "stateMutability": "nonpayable",
      "type": "function"
    },
    {
      "inputs": [
        {
          "internalType": "address",
          "name": "from",
          "type": "address"
        },
        {
          "internalType": "address",
          "name": "to",
          "type": "address"
        },
        {
          "internalType": "uint256",
          "name": "tokenId",
          "type": "uint256"
        },
        {
          "internalType": "bytes",
          "name": "data",
          "type": "bytes"
        }
      ],
      "name": "safeTransferFrom",
      "outputs": [],
      "stateMutability": "nonpayable",
      "type": "function"
    },
    {
      "inputs": [
        {
          "internalType": "address",
          "name": "operator",
          "type": "address"
        },
        {
          "internalType": "bool",
          "name": "approved",
          "type": "bool"
        }
      ],
      "name": "setApprovalForAll",
      "outputs": [],
      "stateMutability": "nonpayable",
      "type": "function"
    },
    {
      "inputs": [
        {
          "internalType": "uint256",
          "name": "_priceToMint",
          "type": "uint256"
        }
      ],
      "name": "setPriceToMint",
      "outputs": [],
      "stateMutability": "nonpayable",
      "type": "function"
    },
    {
      "inputs": [],
      "name": "startSale",
      "outputs": [],
      "stateMutability": "nonpayable",
      "type": "function"
    },
    {
      "inputs": [
        {
          "internalType": "bytes4",
          "name": "interfaceId",
          "type": "bytes4"
        }
      ],
      "name": "supportsInterface",
      "outputs": [
        {
          "internalType": "bool",
          "name": "",
          "type": "bool"
        }
      ],
      "stateMutability": "view",
      "type": "function"
    },
    {
      "inputs": [],
      "name": "symbol",
      "outputs": [
        {
          "internalType": "string",
          "name": "",
          "type": "string"
        }
      ],
      "stateMutability": "view",
      "type": "function"
    },
    {
      "inputs": [
        {
          "internalType": "uint256",
          "name": "index",
          "type": "uint256"
        }
      ],
      "name": "tokenByIndex",
      "outputs": [
        {
          "internalType": "uint256",
          "name": "",
          "type": "uint256"
        }
      ],
      "stateMutability": "view",
      "type": "function"
    },
    {
      "inputs": [
        {
          "internalType": "uint256",
          "name": "tokenId",
          "type": "uint256"
        }
      ],
      "name": "tokenExists",
      "outputs": [
        {
          "internalType": "bool",
          "name": "",
          "type": "bool"
        }
      ],
      "stateMutability": "view",
      "type": "function"
    },
    {
      "inputs": [
        {
          "internalType": "address",
          "name": "owner",
          "type": "address"
        },
        {
          "internalType": "uint256",
          "name": "index",
          "type": "uint256"
        }
      ],
      "name": "tokenOfOwnerByIndex",
      "outputs": [
        {
          "internalType": "uint256",
          "name": "",
          "type": "uint256"
        }
      ],
      "stateMutability": "view",
      "type": "function"
    },
    {
      "inputs": [
        {
          "internalType": "uint256",
          "name": "tokenId",
          "type": "uint256"
        }
      ],
      "name": "tokenURI",
      "outputs": [
        {
          "internalType": "string",
          "name": "",
          "type": "string"
        }
      ],
      "stateMutability": "view",
      "type": "function"
    },
    {
      "inputs": [],
      "name": "totalSupply",
      "outputs": [
        {
          "internalType": "uint256",
          "name": "",
          "type": "uint256"
        }
      ],
      "stateMutability": "view",
      "type": "function"
    },
    {
      "inputs": [
        {
          "internalType": "address",
          "name": "from",
          "type": "address"
        },
        {
          "internalType": "address",
          "name": "to",
          "type": "address"
        },
        {
          "internalType": "uint256",
          "name": "tokenId",
          "type": "uint256"
        }
      ],
      "name": "transferFrom",
      "outputs": [],
      "stateMutability": "nonpayable",
      "type": "function"
    },
    {
      "inputs": [
        {
          "internalType": "address",
          "name": "newOwner",
          "type": "address"
        }
      ],
      "name": "transferOwnership",
      "outputs": [],
      "stateMutability": "nonpayable",
      "type": "function"
    },
    {
      "inputs": [],
      "name": "unpause",
      "outputs": [],
      "stateMutability": "nonpayable",
      "type": "function"
    }
  ],
  "bytecode": "0x60806040526000601160006101000a81548160ff0219169083151502179055503480156200002c57600080fd5b506040518060400160405280600881526020017f546f6b656e4261740000000000000000000000000000000000000000000000008152506040518060400160405280600881526020017f546f6b656e426174000000000000000000000000000000000000000000000000815250604051806060016040528060228152602001620060666022913982828160029080519060200190620000cd9291906200060f565b508060039080519060200190620000e69291906200060f565b5050506000600c60006101000a81548160ff02191690831515021790555080600e90805190602001906200011c9291906200060f565b50620001416000801b62000135620001ec60201b60201c565b6200020860201b60201c565b620001827f9f2df0fed2c77648de5860a4cc508cd0818c85b8b8a1ab4ceeef8d981c8956a662000176620001ec60201b60201c565b6200020860201b60201c565b620001c37f65d7a28e3265b37a6474929f336521b332c1681b933f6cb9f3376673440d862a620001b7620001ec60201b60201c565b6200020860201b60201c565b505050620001e6620001da620001ec60201b60201c565b6200021e60201b60201c565b62000724565b600062000203620002e460201b620019cf1760201c565b905090565b6200021a82826200039760201b60201c565b5050565b6000600f60009054906101000a900473ffffffffffffffffffffffffffffffffffffffff16905081600f60006101000a81548173ffffffffffffffffffffffffffffffffffffffff021916908373ffffffffffffffffffffffffffffffffffffffff1602179055508173ffffffffffffffffffffffffffffffffffffffff168173ffffffffffffffffffffffffffffffffffffffff167f8be0079c531659141344cd1fd0a4f28419497f9722a3daafe3b4186f6b6457e060405160405180910390a35050565b60003073ffffffffffffffffffffffffffffffffffffffff163373ffffffffffffffffffffffffffffffffffffffff1614156200039057600080368080601f016020809104026020016040519081016040528093929190818152602001838380828437600081840152601f19601f820116905080830192505050505050509050600080369050905073ffffffffffffffffffffffffffffffffffffffff81830151169250505062000394565b3390505b90565b620003ae8282620003df60201b62001a801760201c565b620003da8160016000858152602001908152602001600020620004d060201b62001b601790919060201c565b505050565b620003f182826200050860201b60201c565b620004cc57600160008084815260200190815260200160002060000160008373ffffffffffffffffffffffffffffffffffffffff1673ffffffffffffffffffffffffffffffffffffffff16815260200190815260200160002060006101000a81548160ff02191690831515021790555062000471620001ec60201b60201c565b73ffffffffffffffffffffffffffffffffffffffff168173ffffffffffffffffffffffffffffffffffffffff16837f2f8788117e7eff1d82e926ec794901d17c78024a50270940304540a733656f0d60405160405180910390a45b5050565b600062000500836000018373ffffffffffffffffffffffffffffffffffffffff1660001b6200057260201b60201c565b905092915050565b600080600084815260200190815260200160002060000160008373ffffffffffffffffffffffffffffffffffffffff1673ffffffffffffffffffffffffffffffffffffffff16815260200190815260200160002060009054906101000a900460ff16905092915050565b6000620005868383620005ec60201b60201c565b620005e1578260000182908060018154018082558091505060019003906000526020600020016000909190919091505582600001805490508360010160008481526020019081526020016000208190555060019050620005e6565b600090505b92915050565b600080836001016000848152602001908152602001600020541415905092915050565b8280546200061d90620006bf565b90600052602060002090601f0160209004810192826200064157600085556200068d565b82601f106200065c57805160ff19168380011785556200068d565b828001600101855582156200068d579182015b828111156200068c5782518255916020019190600101906200066f565b5b5090506200069c9190620006a0565b5090565b5b80821115620006bb576000816000905550600101620006a1565b5090565b60006002820490506001821680620006d857607f821691505b60208210811415620006ef57620006ee620006f5565b5b50919050565b7f4e487b7100000000000000000000000000000000000000000000000000000000600052602260045260246000fd5b61593280620007346000396000f3fe6080604052600436106102665760003560e01c80636352211e11610144578063a22cb465116100b6578063d53913931161007a578063d53913931461091c578063d547741f14610947578063e63ab1e914610970578063e985e9c51461099b578063f2fde38b146109d8578063f47c84c514610a0157610266565b8063a22cb46514610839578063b66a0e5d14610862578063b88d4fde14610879578063c87b56dd146108a2578063ca15c873146108df57610266565b80638da5cb5b116101085780638da5cb5b146107225780639010d07c1461074d57806391d148541461078a57806395d89b41146107c7578063a140ae23146107f2578063a217fddf1461080e57610266565b80636352211e146106515780636a6278421461068e57806370a08231146106b7578063715018a6146106f45780638456cb591461070b57610266565b806329e0a2ac116101dd57806342842e0e116101a157806342842e0e1461055557806342966c681461057e5780634dc1dbec146105a75780634f6ccce7146105d257806355367ba91461060f5780635c975abb1461062657610266565b806329e0a2ac146104865780632f2ff15d146104af5780632f745c59146104d857806336568abe146105155780633f4ba83a1461053e57610266565b8063081812fc1161022f578063081812fc14610364578063095ea7b3146103a157806318160ddd146103ca5780631c8b232d146103f557806323b872dd14610420578063248a9ca31461044957610266565b8062923f9e1461026b578063013054c2146102a857806301ffc9a7146102d157806303824f761461030e57806306fdde0314610339575b600080fd5b34801561027757600080fd5b50610292600480360381019061028d91906143fd565b610a2c565b60405161029f91906149fd565b60405180910390f35b3480156102b457600080fd5b506102cf60048036038101906102ca91906143fd565b610a3e565b005b3480156102dd57600080fd5b506102f860048036038101906102f391906143ab565b610a80565b60405161030591906149fd565b60405180910390f35b34801561031a57600080fd5b50610323610a92565b60405161033091906149fd565b60405180910390f35b34801561034557600080fd5b5061034e610ab4565b60405161035b9190614a33565b60405180910390f35b34801561037057600080fd5b5061038b600480360381019061038691906143fd565b610b46565b6040516103989190614996565b60405180910390f35b3480156103ad57600080fd5b506103c860048036038101906103c391906142ce565b610b8c565b005b3480156103d657600080fd5b506103df610ca4565b6040516103ec9190614db5565b60405180910390f35b34801561040157600080fd5b5061040a610cb1565b60405161041791906149fd565b60405180910390f35b34801561042c57600080fd5b50610447600480360381019061044291906141c8565b610cc4565b005b34801561045557600080fd5b50610470600480360381019061046b919061430a565b610d24565b60405161047d9190614a18565b60405180910390f35b34801561049257600080fd5b506104ad60048036038101906104a891906143fd565b610d43565b005b3480156104bb57600080fd5b506104d660048036038101906104d19190614333565b610e0d565b005b3480156104e457600080fd5b506104ff60048036038101906104fa91906142ce565b610e2e565b60405161050c9190614db5565b60405180910390f35b34801561052157600080fd5b5061053c60048036038101906105379190614333565b610ed3565b005b34801561054a57600080fd5b50610553610f56565b005b34801561056157600080fd5b5061057c600480360381019061057791906141c8565b610fd0565b005b34801561058a57600080fd5b506105a560048036038101906105a091906143fd565b610ff0565b005b3480156105b357600080fd5b506105bc61104c565b6040516105c99190614db5565b60405180910390f35b3480156105de57600080fd5b506105f960048036038101906105f491906143fd565b611052565b6040516106069190614db5565b60405180910390f35b34801561061b57600080fd5b506106246110e9565b005b34801561063257600080fd5b5061063b61110e565b60405161064891906149fd565b60405180910390f35b34801561065d57600080fd5b50610678600480360381019061067391906143fd565b611125565b6040516106859190614996565b60405180910390f35b34801561069a57600080fd5b506106b560048036038101906106b09190614163565b6111ac565b005b3480156106c357600080fd5b506106de60048036038101906106d99190614163565b61123c565b6040516106eb9190614db5565b60405180910390f35b34801561070057600080fd5b506107096112f4565b005b34801561071757600080fd5b50610720611308565b005b34801561072e57600080fd5b50610737611382565b6040516107449190614996565b60405180910390f35b34801561075957600080fd5b50610774600480360381019061076f919061436f565b6113ac565b6040516107819190614996565b60405180910390f35b34801561079657600080fd5b506107b160048036038101906107ac9190614333565b6113db565b6040516107be91906149fd565b60405180910390f35b3480156107d357600080fd5b506107dc611445565b6040516107e99190614a33565b60405180910390f35b61080c60048036038101906108079190614426565b6114d7565b005b34801561081a57600080fd5b50610823611747565b6040516108309190614a18565b60405180910390f35b34801561084557600080fd5b50610860600480360381019061085b9190614292565b61174e565b005b34801561086e57600080fd5b50610877611764565b005b34801561088557600080fd5b506108a0600480360381019061089b9190614217565b611789565b005b3480156108ae57600080fd5b506108c960048036038101906108c491906143fd565b6117eb565b6040516108d69190614a33565b60405180910390f35b3480156108eb57600080fd5b506109066004803603810190610901919061430a565b611853565b6040516109139190614db5565b60405180910390f35b34801561092857600080fd5b50610931611877565b60405161093e9190614a18565b60405180910390f35b34801561095357600080fd5b5061096e60048036038101906109699190614333565b61189b565b005b34801561097c57600080fd5b506109856118bc565b6040516109929190614a18565b60405180910390f35b3480156109a757600080fd5b506109c260048036038101906109bd919061418c565b6118e0565b6040516109cf91906149fd565b60405180910390f35b3480156109e457600080fd5b506109ff60048036038101906109fa9190614163565b611946565b005b348015610a0d57600080fd5b50610a166119ca565b604051610a239190614db5565b60405180910390f35b6000610a3782611b90565b9050919050565b610a46611bd1565b7f82498456531a1065f689ba348ce20bda781238c424cf36748dd40bc282831e0381604051610a759190614db5565b60405180910390a150565b6000610a8b82611c4f565b9050919050565b60006040610a9e610ca4565b10610aac5760019050610ab1565b600090505b90565b606060028054610ac390615060565b80601f0160208091040260200160405190810160405280929190818152602001828054610aef90615060565b8015610b3c5780601f10610b1157610100808354040283529160200191610b3c565b820191906000526020600020905b815481529060010190602001808311610b1f57829003601f168201915b5050505050905090565b6000610b5182611cc9565b6006600083815260200190815260200160002060009054906101000a900473ffffffffffffffffffffffffffffffffffffffff169050919050565b6000610b9782611125565b90508073ffffffffffffffffffffffffffffffffffffffff168373ffffffffffffffffffffffffffffffffffffffff161415610c08576040517f08c379a0000000000000000000000000000000000000000000000000000000008152600401610bff90614c95565b60405180910390fd5b8073ffffffffffffffffffffffffffffffffffffffff16610c27611d14565b73ffffffffffffffffffffffffffffffffffffffff161480610c565750610c5581610c50611d14565b6118e0565b5b610c95576040517f08c379a0000000000000000000000000000000000000000000000000000000008152600401610c8c90614cd5565b60405180910390fd5b610c9f8383611d23565b505050565b6000600a80549050905090565b601160009054906101000a900460ff1681565b610cd5610ccf611d14565b82611ddc565b610d14576040517f08c379a0000000000000000000000000000000000000000000000000000000008152600401610d0b90614ab5565b60405180910390fd5b610d1f838383611e71565b505050565b6000806000838152602001908152602001600020600101549050919050565b610d4b611bd1565b610d53611382565b73ffffffffffffffffffffffffffffffffffffffff163373ffffffffffffffffffffffffffffffffffffffff1614610dc0576040517f08c379a0000000000000000000000000000000000000000000000000000000008152600401610db790614cb5565b60405180910390fd5b60008111610e03576040517f08c379a0000000000000000000000000000000000000000000000000000000008152600401610dfa90614cb5565b60405180910390fd5b8060108190555050565b610e1682610d24565b610e1f8161216b565b610e29838361217f565b505050565b6000610e398361123c565b8210610e7a576040517f08c379a0000000000000000000000000000000000000000000000000000000008152600401610e7190614ad5565b60405180910390fd5b600860008473ffffffffffffffffffffffffffffffffffffffff1673ffffffffffffffffffffffffffffffffffffffff168152602001908152602001600020600083815260200190815260200160002054905092915050565b610edb611d14565b73ffffffffffffffffffffffffffffffffffffffff168173ffffffffffffffffffffffffffffffffffffffff1614610f48576040517f08c379a0000000000000000000000000000000000000000000000000000000008152600401610f3f90614d95565b60405180910390fd5b610f5282826121b3565b5050565b610f877f65d7a28e3265b37a6474929f336521b332c1681b933f6cb9f3376673440d862a610f82611d14565b6113db565b610fc6576040517f08c379a0000000000000000000000000000000000000000000000000000000008152600401610fbd90614d75565b60405180910390fd5b610fce6121e7565b565b610feb83838360405180602001604052806000815250611789565b505050565b611001610ffb611d14565b82611ddc565b611040576040517f08c379a000000000000000000000000000000000000000000000000000000000815260040161103790614ab5565b60405180910390fd5b6110498161224a565b50565b60105481565b600061105c610ca4565b821061109d576040517f08c379a000000000000000000000000000000000000000000000000000000000815260040161109490614cf5565b60405180910390fd5b600a82815481106110d7577f4e487b7100000000000000000000000000000000000000000000000000000000600052603260045260246000fd5b90600052602060002001549050919050565b6110f1611bd1565b6000601160006101000a81548160ff021916908315150217905550565b6000600c60009054906101000a900460ff16905090565b60008061113183612398565b9050600073ffffffffffffffffffffffffffffffffffffffff168173ffffffffffffffffffffffffffffffffffffffff1614156111a3576040517f08c379a000000000000000000000000000000000000000000000000000000000815260040161119a90614c75565b60405180910390fd5b80915050919050565b6111dd7f9f2df0fed2c77648de5860a4cc508cd0818c85b8b8a1ab4ceeef8d981c8956a66111d8611d14565b6113db565b61121c576040517f08c379a000000000000000000000000000000000000000000000000000000000815260040161121390614d55565b60405180910390fd5b61122f8161122a600d6123d5565b6123e3565b611239600d612601565b50565b60008073ffffffffffffffffffffffffffffffffffffffff168273ffffffffffffffffffffffffffffffffffffffff1614156112ad576040517f08c379a00000000000000000000000000000000000000000000000000000000081526004016112a490614c15565b60405180910390fd5b600560008373ffffffffffffffffffffffffffffffffffffffff1673ffffffffffffffffffffffffffffffffffffffff168152602001908152602001600020549050919050565b6112fc611bd1565b6113066000612617565b565b6113397f65d7a28e3265b37a6474929f336521b332c1681b933f6cb9f3376673440d862a611334611d14565b6113db565b611378576040517f08c379a000000000000000000000000000000000000000000000000000000000815260040161136f90614b75565b60405180910390fd5b6113806126dd565b565b6000600f60009054906101000a900473ffffffffffffffffffffffffffffffffffffffff16905090565b60006113d3826001600086815260200190815260200160002061274090919063ffffffff16565b905092915050565b600080600084815260200190815260200160002060000160008373ffffffffffffffffffffffffffffffffffffffff1673ffffffffffffffffffffffffffffffffffffffff16815260200190815260200160002060009054906101000a900460ff16905092915050565b60606003805461145490615060565b80601f016020809104026020016040519081016040528092919081815260200182805461148090615060565b80156114cd5780601f106114a2576101008083540402835291602001916114cd565b820191906000526020600020905b8154815290600101906020018083116114b057829003601f168201915b5050505050905090565b601160009054906101000a900460ff168061152457506114f5611382565b73ffffffffffffffffffffffffffffffffffffffff163373ffffffffffffffffffffffffffffffffffffffff16145b611563576040517f08c379a000000000000000000000000000000000000000000000000000000000815260040161155a90614cb5565b60405180910390fd5b600082116115a6576040517f08c379a000000000000000000000000000000000000000000000000000000000815260040161159d90614cb5565b60405180910390fd5b60038211156115ea576040517f08c379a00000000000000000000000000000000000000000000000000000000081526004016115e190614cb5565b60405180910390fd5b6040611606836115f8610ca4565b61275a90919063ffffffff16565b1115806116455750611616611382565b73ffffffffffffffffffffffffffffffffffffffff163373ffffffffffffffffffffffffffffffffffffffff16145b611684576040517f08c379a000000000000000000000000000000000000000000000000000000000815260040161167b90614bd5565b60405180910390fd5b601054341480156116955750600034115b6116d4576040517f08c379a00000000000000000000000000000000000000000000000000000000081526004016116cb90614d35565b60405180910390fd5b60005b828110156117425760006116e9610ca4565b90506116f58382612770565b7fb9203d657e9c0ec8274c818292ab0f58b04e1970050716891770eb1bab5d655e8184604051611726929190614dd0565b60405180910390a150808061173a906150c3565b9150506116d7565b505050565b6000801b81565b611760611759611d14565b838361278e565b5050565b61176c611bd1565b6001601160006101000a81548160ff021916908315150217905550565b61179a611794611d14565b83611ddc565b6117d9576040517f08c379a00000000000000000000000000000000000000000000000000000000081526004016117d090614ab5565b60405180910390fd5b6117e5848484846128fb565b50505050565b60606117f682611cc9565b6000611800612957565b90506000815111611820576040518060200160405280600081525061184b565b8061182a846129e9565b60405160200161183b929190614938565b6040516020818303038152906040525b915050919050565b600061187060016000848152602001908152602001600020612b0d565b9050919050565b7f9f2df0fed2c77648de5860a4cc508cd0818c85b8b8a1ab4ceeef8d981c8956a681565b6118a482610d24565b6118ad8161216b565b6118b783836121b3565b505050565b7f65d7a28e3265b37a6474929f336521b332c1681b933f6cb9f3376673440d862a81565b60007358807bad0b376efc12f5ad86aac70e78ed67deae73ffffffffffffffffffffffffffffffffffffffff168273ffffffffffffffffffffffffffffffffffffffff1614156119335760019050611940565b61193d8383612b22565b90505b92915050565b61194e611bd1565b600073ffffffffffffffffffffffffffffffffffffffff168173ffffffffffffffffffffffffffffffffffffffff1614156119be576040517f08c379a00000000000000000000000000000000000000000000000000000000081526004016119b590614b15565b60405180910390fd5b6119c781612617565b50565b604081565b60003073ffffffffffffffffffffffffffffffffffffffff163373ffffffffffffffffffffffffffffffffffffffff161415611a7957600080368080601f016020809104026020016040519081016040528093929190818152602001838380828437600081840152601f19601f820116905080830192505050505050509050600080369050905073ffffffffffffffffffffffffffffffffffffffff818301511692505050611a7d565b3390505b90565b611a8a82826113db565b611b5c57600160008084815260200190815260200160002060000160008373ffffffffffffffffffffffffffffffffffffffff1673ffffffffffffffffffffffffffffffffffffffff16815260200190815260200160002060006101000a81548160ff021916908315150217905550611b01611d14565b73ffffffffffffffffffffffffffffffffffffffff168173ffffffffffffffffffffffffffffffffffffffff16837f2f8788117e7eff1d82e926ec794901d17c78024a50270940304540a733656f0d60405160405180910390a45b5050565b6000611b88836000018373ffffffffffffffffffffffffffffffffffffffff1660001b612bb6565b905092915050565b60008073ffffffffffffffffffffffffffffffffffffffff16611bb283612398565b73ffffffffffffffffffffffffffffffffffffffff1614159050919050565b611bd9611d14565b73ffffffffffffffffffffffffffffffffffffffff16611bf7611382565b73ffffffffffffffffffffffffffffffffffffffff1614611c4d576040517f08c379a0000000000000000000000000000000000000000000000000000000008152600401611c4490614c55565b60405180910390fd5b565b60007f780e9d63000000000000000000000000000000000000000000000000000000007bffffffffffffffffffffffffffffffffffffffffffffffffffffffff1916827bffffffffffffffffffffffffffffffffffffffffffffffffffffffff19161480611cc25750611cc182612c26565b5b9050919050565b611cd281611b90565b611d11576040517f08c379a0000000000000000000000000000000000000000000000000000000008152600401611d0890614c75565b60405180910390fd5b50565b6000611d1e6119cf565b905090565b816006600083815260200190815260200160002060006101000a81548173ffffffffffffffffffffffffffffffffffffffff021916908373ffffffffffffffffffffffffffffffffffffffff160217905550808273ffffffffffffffffffffffffffffffffffffffff16611d9683611125565b73ffffffffffffffffffffffffffffffffffffffff167f8c5be1e5ebec7d5bd14f71427d1e84f3dd0314c0f7b2291e5b200ac8c7c3b92560405160405180910390a45050565b600080611de883611125565b90508073ffffffffffffffffffffffffffffffffffffffff168473ffffffffffffffffffffffffffffffffffffffff161480611e2a5750611e2981856118e0565b5b80611e6857508373ffffffffffffffffffffffffffffffffffffffff16611e5084610b46565b73ffffffffffffffffffffffffffffffffffffffff16145b91505092915050565b8273ffffffffffffffffffffffffffffffffffffffff16611e9182611125565b73ffffffffffffffffffffffffffffffffffffffff1614611ee7576040517f08c379a0000000000000000000000000000000000000000000000000000000008152600401611ede90614b35565b60405180910390fd5b600073ffffffffffffffffffffffffffffffffffffffff168273ffffffffffffffffffffffffffffffffffffffff161415611f57576040517f08c379a0000000000000000000000000000000000000000000000000000000008152600401611f4e90614b95565b60405180910390fd5b611f648383836001612d08565b8273ffffffffffffffffffffffffffffffffffffffff16611f8482611125565b73ffffffffffffffffffffffffffffffffffffffff1614611fda576040517f08c379a0000000000000000000000000000000000000000000000000000000008152600401611fd190614b35565b60405180910390fd5b6006600082815260200190815260200160002060006101000a81549073ffffffffffffffffffffffffffffffffffffffff02191690556001600560008573ffffffffffffffffffffffffffffffffffffffff1673ffffffffffffffffffffffffffffffffffffffff168152602001908152602001600020600082825403925050819055506001600560008473ffffffffffffffffffffffffffffffffffffffff1673ffffffffffffffffffffffffffffffffffffffff16815260200190815260200160002060008282540192505081905550816004600083815260200190815260200160002060006101000a81548173ffffffffffffffffffffffffffffffffffffffff021916908373ffffffffffffffffffffffffffffffffffffffff160217905550808273ffffffffffffffffffffffffffffffffffffffff168473ffffffffffffffffffffffffffffffffffffffff167fddf252ad1be2c89b69c2b068fc378daa952ba7f163c4a11628f55a4df523b3ef60405160405180910390a46121668383836001612d1a565b505050565b61217c81612177611d14565b612d20565b50565b6121898282611a80565b6121ae8160016000858152602001908152602001600020611b6090919063ffffffff16565b505050565b6121bd8282612da5565b6121e28160016000858152602001908152602001600020612e8690919063ffffffff16565b505050565b6121ef612eb6565b6000600c60006101000a81548160ff0219169083151502179055507f5db9ee0a495bf2e6ff9c91a7834c1ba4fdd244a5e8aa4e537bd38aeae4b073aa612233611d14565b6040516122409190614996565b60405180910390a1565b600061225582611125565b9050612265816000846001612d08565b61226e82611125565b90506006600083815260200190815260200160002060006101000a81549073ffffffffffffffffffffffffffffffffffffffff02191690556001600560008373ffffffffffffffffffffffffffffffffffffffff1673ffffffffffffffffffffffffffffffffffffffff168152602001908152602001600020600082825403925050819055506004600083815260200190815260200160002060006101000a81549073ffffffffffffffffffffffffffffffffffffffff021916905581600073ffffffffffffffffffffffffffffffffffffffff168273ffffffffffffffffffffffffffffffffffffffff167fddf252ad1be2c89b69c2b068fc378daa952ba7f163c4a11628f55a4df523b3ef60405160405180910390a4612394816000846001612d1a565b5050565b60006004600083815260200190815260200160002060009054906101000a900473ffffffffffffffffffffffffffffffffffffffff169050919050565b600081600001549050919050565b600073ffffffffffffffffffffffffffffffffffffffff168273ffffffffffffffffffffffffffffffffffffffff161415612453576040517f08c379a000000000000000000000000000000000000000000000000000000000815260040161244a90614c35565b60405180910390fd5b61245c81611b90565b1561249c576040517f08c379a000000000000000000000000000000000000000000000000000000000815260040161249390614b55565b60405180910390fd5b6124aa600083836001612d08565b6124b381611b90565b156124f3576040517f08c379a00000000000000000000000000000000000000000000000000000000081526004016124ea90614b55565b60405180910390fd5b6001600560008473ffffffffffffffffffffffffffffffffffffffff1673ffffffffffffffffffffffffffffffffffffffff16815260200190815260200160002060008282540192505081905550816004600083815260200190815260200160002060006101000a81548173ffffffffffffffffffffffffffffffffffffffff021916908373ffffffffffffffffffffffffffffffffffffffff160217905550808273ffffffffffffffffffffffffffffffffffffffff16600073ffffffffffffffffffffffffffffffffffffffff167fddf252ad1be2c89b69c2b068fc378daa952ba7f163c4a11628f55a4df523b3ef60405160405180910390a46125fd600083836001612d1a565b5050565b6001816000016000828254019250508190555050565b6000600f60009054906101000a900473ffffffffffffffffffffffffffffffffffffffff16905081600f60006101000a81548173ffffffffffffffffffffffffffffffffffffffff021916908373ffffffffffffffffffffffffffffffffffffffff1602179055508173ffffffffffffffffffffffffffffffffffffffff168173ffffffffffffffffffffffffffffffffffffffff167f8be0079c531659141344cd1fd0a4f28419497f9722a3daafe3b4186f6b6457e060405160405180910390a35050565b6126e5612eff565b6001600c60006101000a81548160ff0219169083151502179055507f62e78cea01bee320cd4e420270b5ea74000d11b0c9f74754ebdbfc544b05a258612729611d14565b6040516127369190614996565b60405180910390a1565b600061274f8360000183612f49565b60001c905092915050565b600081836127689190614e92565b905092915050565b61278a828260405180602001604052806000815250612f9a565b5050565b8173ffffffffffffffffffffffffffffffffffffffff168373ffffffffffffffffffffffffffffffffffffffff1614156127fd576040517f08c379a00000000000000000000000000000000000000000000000000000000081526004016127f490614bb5565b60405180910390fd5b80600760008573ffffffffffffffffffffffffffffffffffffffff1673ffffffffffffffffffffffffffffffffffffffff16815260200190815260200160002060008473ffffffffffffffffffffffffffffffffffffffff1673ffffffffffffffffffffffffffffffffffffffff16815260200190815260200160002060006101000a81548160ff0219169083151502179055508173ffffffffffffffffffffffffffffffffffffffff168373ffffffffffffffffffffffffffffffffffffffff167f17307eab39ab6107e8899845ad3d59bd9653f200f220920489ca2b5937696c31836040516128ee91906149fd565b60405180910390a3505050565b612906848484611e71565b61291284848484612ff5565b612951576040517f08c379a000000000000000000000000000000000000000000000000000000000815260040161294890614af5565b60405180910390fd5b50505050565b6060600e805461296690615060565b80601f016020809104026020016040519081016040528092919081815260200182805461299290615060565b80156129df5780601f106129b4576101008083540402835291602001916129df565b820191906000526020600020905b8154815290600101906020018083116129c257829003601f168201915b5050505050905090565b6060600060016129f88461318c565b01905060008167ffffffffffffffff811115612a3d577f4e487b7100000000000000000000000000000000000000000000000000000000600052604160045260246000fd5b6040519080825280601f01601f191660200182016040528015612a6f5781602001600182028036833780820191505090505b509050600082602001820190505b600115612b02578080600190039150507f3031323334353637383961626364656600000000000000000000000000000000600a86061a8153600a8581612aec577f4e487b7100000000000000000000000000000000000000000000000000000000600052601260045260246000fd5b0494506000851415612afd57612b02565b612a7d565b819350505050919050565b6000612b1b826000016133c3565b9050919050565b6000600760008473ffffffffffffffffffffffffffffffffffffffff1673ffffffffffffffffffffffffffffffffffffffff16815260200190815260200160002060008373ffffffffffffffffffffffffffffffffffffffff1673ffffffffffffffffffffffffffffffffffffffff16815260200190815260200160002060009054906101000a900460ff16905092915050565b6000612bc283836133d4565b612c1b578260000182908060018154018082558091505060019003906000526020600020016000909190919091505582600001805490508360010160008481526020019081526020016000208190555060019050612c20565b600090505b92915050565b60007f80ac58cd000000000000000000000000000000000000000000000000000000007bffffffffffffffffffffffffffffffffffffffffffffffffffffffff1916827bffffffffffffffffffffffffffffffffffffffffffffffffffffffff19161480612cf157507f5b5e139f000000000000000000000000000000000000000000000000000000007bffffffffffffffffffffffffffffffffffffffffffffffffffffffff1916827bffffffffffffffffffffffffffffffffffffffffffffffffffffffff1916145b80612d015750612d00826133f7565b5b9050919050565b612d1484848484613471565b50505050565b50505050565b612d2a82826113db565b612da157612d37816134cb565b612d458360001c60206134f8565b604051602001612d5692919061495c565b6040516020818303038152906040526040517f08c379a0000000000000000000000000000000000000000000000000000000008152600401612d989190614a33565b60405180910390fd5b5050565b612daf82826113db565b15612e8257600080600084815260200190815260200160002060000160008373ffffffffffffffffffffffffffffffffffffffff1673ffffffffffffffffffffffffffffffffffffffff16815260200190815260200160002060006101000a81548160ff021916908315150217905550612e27611d14565b73ffffffffffffffffffffffffffffffffffffffff168173ffffffffffffffffffffffffffffffffffffffff16837ff6391f5c32d9c69d2a47ea670b442974b53935d1edc7fd64eb21e047a839171b60405160405180910390a45b5050565b6000612eae836000018373ffffffffffffffffffffffffffffffffffffffff1660001b6137f2565b905092915050565b612ebe61110e565b612efd576040517f08c379a0000000000000000000000000000000000000000000000000000000008152600401612ef490614a95565b60405180910390fd5b565b612f0761110e565b15612f47576040517f08c379a0000000000000000000000000000000000000000000000000000000008152600401612f3e90614bf5565b60405180910390fd5b565b6000826000018281548110612f87577f4e487b7100000000000000000000000000000000000000000000000000000000600052603260045260246000fd5b9060005260206000200154905092915050565b612fa483836123e3565b612fb16000848484612ff5565b612ff0576040517f08c379a0000000000000000000000000000000000000000000000000000000008152600401612fe790614af5565b60405180910390fd5b505050565b60006130168473ffffffffffffffffffffffffffffffffffffffff16613978565b1561317f578373ffffffffffffffffffffffffffffffffffffffff1663150b7a0261303f611d14565b8786866040518563ffffffff1660e01b815260040161306194939291906149b1565b602060405180830381600087803b15801561307b57600080fd5b505af19250505080156130ac57506040513d601f19601f820116820180604052508101906130a991906143d4565b60015b61312f573d80600081146130dc576040519150601f19603f3d011682016040523d82523d6000602084013e6130e1565b606091505b50600081511415613127576040517f08c379a000000000000000000000000000000000000000000000000000000000815260040161311e90614af5565b60405180910390fd5b805181602001fd5b63150b7a0260e01b7bffffffffffffffffffffffffffffffffffffffffffffffffffffffff1916817bffffffffffffffffffffffffffffffffffffffffffffffffffffffff191614915050613184565b600190505b949350505050565b600080600090507a184f03e93ff9f4daa797ed6e38ed64bf6a1f0100000000000000008310613210577a184f03e93ff9f4daa797ed6e38ed64bf6a1f0100000000000000008381613206577f4e487b7100000000000000000000000000000000000000000000000000000000600052601260045260246000fd5b0492506040810190505b6d04ee2d6d415b85acef81000000008310613273576d04ee2d6d415b85acef81000000008381613269577f4e487b7100000000000000000000000000000000000000000000000000000000600052601260045260246000fd5b0492506020810190505b662386f26fc1000083106132c857662386f26fc1000083816132be577f4e487b7100000000000000000000000000000000000000000000000000000000600052601260045260246000fd5b0492506010810190505b6305f5e1008310613317576305f5e100838161330d577f4e487b7100000000000000000000000000000000000000000000000000000000600052601260045260246000fd5b0492506008810190505b6127108310613362576127108381613358577f4e487b7100000000000000000000000000000000000000000000000000000000600052601260045260246000fd5b0492506004810190505b606483106133ab57606483816133a1577f4e487b7100000000000000000000000000000000000000000000000000000000600052601260045260246000fd5b0492506002810190505b600a83106133ba576001810190505b80915050919050565b600081600001805490509050919050565b600080836001016000848152602001908152602001600020541415905092915050565b60007f5a05180f000000000000000000000000000000000000000000000000000000007bffffffffffffffffffffffffffffffffffffffffffffffffffffffff1916827bffffffffffffffffffffffffffffffffffffffffffffffffffffffff1916148061346a57506134698261399b565b5b9050919050565b61347d84848484613a15565b61348561110e565b156134c5576040517f08c379a00000000000000000000000000000000000000000000000000000000081526004016134bc90614a75565b60405180910390fd5b50505050565b60606134f18273ffffffffffffffffffffffffffffffffffffffff16601460ff166134f8565b9050919050565b60606000600283600261350b9190614ee8565b6135159190614e92565b67ffffffffffffffff811115613554577f4e487b7100000000000000000000000000000000000000000000000000000000600052604160045260246000fd5b6040519080825280601f01601f1916602001820160405280156135865781602001600182028036833780820191505090505b5090507f3000000000000000000000000000000000000000000000000000000000000000816000815181106135e4577f4e487b7100000000000000000000000000000000000000000000000000000000600052603260045260246000fd5b60200101907effffffffffffffffffffffffffffffffffffffffffffffffffffffffffffff1916908160001a9053507f78000000000000000000000000000000000000000000000000000000000000008160018151811061366e577f4e487b7100000000000000000000000000000000000000000000000000000000600052603260045260246000fd5b60200101907effffffffffffffffffffffffffffffffffffffffffffffffffffffffffffff1916908160001a905350600060018460026136ae9190614ee8565b6136b89190614e92565b90505b60018111156137a4577f3031323334353637383961626364656600000000000000000000000000000000600f861660108110613720577f4e487b7100000000000000000000000000000000000000000000000000000000600052603260045260246000fd5b1a60f81b82828151811061375d577f4e487b7100000000000000000000000000000000000000000000000000000000600052603260045260246000fd5b60200101907effffffffffffffffffffffffffffffffffffffffffffffffffffffffffffff1916908160001a905350600485901c94508061379d90615036565b90506136bb565b50600084146137e8576040517f08c379a00000000000000000000000000000000000000000000000000000000081526004016137df90614a55565b60405180910390fd5b8091505092915050565b6000808360010160008481526020019081526020016000205490506000811461396c5760006001826138249190614f42565b905060006001866000018054905061383c9190614f42565b90508181146138f7576000866000018281548110613883577f4e487b7100000000000000000000000000000000000000000000000000000000600052603260045260246000fd5b90600052602060002001549050808760000184815481106138cd577f4e487b7100000000000000000000000000000000000000000000000000000000600052603260045260246000fd5b90600052602060002001819055508387600101600083815260200190815260200160002081905550505b85600001805480613931577f4e487b7100000000000000000000000000000000000000000000000000000000600052603160045260246000fd5b600190038181906000526020600020016000905590558560010160008681526020019081526020016000206000905560019350505050613972565b60009150505b92915050565b6000808273ffffffffffffffffffffffffffffffffffffffff163b119050919050565b60007f7965db0b000000000000000000000000000000000000000000000000000000007bffffffffffffffffffffffffffffffffffffffffffffffffffffffff1916827bffffffffffffffffffffffffffffffffffffffffffffffffffffffff19161480613a0e5750613a0d82613b75565b5b9050919050565b613a2184848484613bdf565b6001811115613a65576040517f08c379a0000000000000000000000000000000000000000000000000000000008152600401613a5c90614d15565b60405180910390fd5b6000829050600073ffffffffffffffffffffffffffffffffffffffff168573ffffffffffffffffffffffffffffffffffffffff161415613aad57613aa881613d05565b613aec565b8373ffffffffffffffffffffffffffffffffffffffff168573ffffffffffffffffffffffffffffffffffffffff1614613aeb57613aea8582613d4e565b5b5b600073ffffffffffffffffffffffffffffffffffffffff168473ffffffffffffffffffffffffffffffffffffffff161415613b2f57613b2a81613ebb565b613b6e565b8473ffffffffffffffffffffffffffffffffffffffff168473ffffffffffffffffffffffffffffffffffffffff1614613b6d57613b6c8482613ffe565b5b5b5050505050565b60007f01ffc9a7000000000000000000000000000000000000000000000000000000007bffffffffffffffffffffffffffffffffffffffffffffffffffffffff1916827bffffffffffffffffffffffffffffffffffffffffffffffffffffffff1916149050919050565b6001811115613cff57600073ffffffffffffffffffffffffffffffffffffffff168473ffffffffffffffffffffffffffffffffffffffff1614613c735780600560008673ffffffffffffffffffffffffffffffffffffffff1673ffffffffffffffffffffffffffffffffffffffff1681526020019081526020016000206000828254613c6b9190614f42565b925050819055505b600073ffffffffffffffffffffffffffffffffffffffff168373ffffffffffffffffffffffffffffffffffffffff1614613cfe5780600560008573ffffffffffffffffffffffffffffffffffffffff1673ffffffffffffffffffffffffffffffffffffffff1681526020019081526020016000206000828254613cf69190614e92565b925050819055505b5b50505050565b600a80549050600b600083815260200190815260200160002081905550600a81908060018154018082558091505060019003906000526020600020016000909190919091505550565b60006001613d5b8461123c565b613d659190614f42565b9050600060096000848152602001908152602001600020549050818114613e4a576000600860008673ffffffffffffffffffffffffffffffffffffffff1673ffffffffffffffffffffffffffffffffffffffff168152602001908152602001600020600084815260200190815260200160002054905080600860008773ffffffffffffffffffffffffffffffffffffffff1673ffffffffffffffffffffffffffffffffffffffff168152602001908152602001600020600084815260200190815260200160002081905550816009600083815260200190815260200160002081905550505b6009600084815260200190815260200160002060009055600860008573ffffffffffffffffffffffffffffffffffffffff1673ffffffffffffffffffffffffffffffffffffffff16815260200190815260200160002060008381526020019081526020016000206000905550505050565b60006001600a80549050613ecf9190614f42565b90506000600b60008481526020019081526020016000205490506000600a8381548110613f25577f4e487b7100000000000000000000000000000000000000000000000000000000600052603260045260246000fd5b9060005260206000200154905080600a8381548110613f6d577f4e487b7100000000000000000000000000000000000000000000000000000000600052603260045260246000fd5b906000526020600020018190555081600b600083815260200190815260200160002081905550600b600085815260200190815260200160002060009055600a805480613fe2577f4e487b7100000000000000000000000000000000000000000000000000000000600052603160045260246000fd5b6001900381819060005260206000200160009055905550505050565b60006140098361123c565b905081600860008573ffffffffffffffffffffffffffffffffffffffff1673ffffffffffffffffffffffffffffffffffffffff168152602001908152602001600020600083815260200190815260200160002081905550806009600084815260200190815260200160002081905550505050565b600061409061408b84614e1e565b614df9565b9050828152602081018484840111156140a857600080fd5b6140b3848285614ff4565b509392505050565b6000813590506140ca81615889565b92915050565b6000813590506140df816158a0565b92915050565b6000813590506140f4816158b7565b92915050565b600081359050614109816158ce565b92915050565b60008151905061411e816158ce565b92915050565b600082601f83011261413557600080fd5b813561414584826020860161407d565b91505092915050565b60008135905061415d816158e5565b92915050565b60006020828403121561417557600080fd5b6000614183848285016140bb565b91505092915050565b6000806040838503121561419f57600080fd5b60006141ad858286016140bb565b92505060206141be858286016140bb565b9150509250929050565b6000806000606084860312156141dd57600080fd5b60006141eb868287016140bb565b93505060206141fc868287016140bb565b925050604061420d8682870161414e565b9150509250925092565b6000806000806080858703121561422d57600080fd5b600061423b878288016140bb565b945050602061424c878288016140bb565b935050604061425d8782880161414e565b925050606085013567ffffffffffffffff81111561427a57600080fd5b61428687828801614124565b91505092959194509250565b600080604083850312156142a557600080fd5b60006142b3858286016140bb565b92505060206142c4858286016140d0565b9150509250929050565b600080604083850312156142e157600080fd5b60006142ef858286016140bb565b92505060206143008582860161414e565b9150509250929050565b60006020828403121561431c57600080fd5b600061432a848285016140e5565b91505092915050565b6000806040838503121561434657600080fd5b6000614354858286016140e5565b9250506020614365858286016140bb565b9150509250929050565b6000806040838503121561438257600080fd5b6000614390858286016140e5565b92505060206143a18582860161414e565b9150509250929050565b6000602082840312156143bd57600080fd5b60006143cb848285016140fa565b91505092915050565b6000602082840312156143e657600080fd5b60006143f48482850161410f565b91505092915050565b60006020828403121561440f57600080fd5b600061441d8482850161414e565b91505092915050565b6000806040838503121561443957600080fd5b60006144478582860161414e565b9250506020614458858286016140bb565b9150509250929050565b61446b81614f76565b82525050565b61447a81614f88565b82525050565b61448981614f94565b82525050565b600061449a82614e4f565b6144a48185614e65565b93506144b4818560208601615003565b6144bd81615199565b840191505092915050565b60006144d382614e5a565b6144dd8185614e76565b93506144ed818560208601615003565b6144f681615199565b840191505092915050565b600061450c82614e5a565b6145168185614e87565b9350614526818560208601615003565b80840191505092915050565b600061453f602083614e76565b915061454a826151aa565b602082019050919050565b6000614562602b83614e76565b915061456d826151d3565b604082019050919050565b6000614585601483614e76565b915061459082615222565b602082019050919050565b60006145a8602d83614e76565b91506145b38261524b565b604082019050919050565b60006145cb602b83614e76565b91506145d68261529a565b604082019050919050565b60006145ee603283614e76565b91506145f9826152e9565b604082019050919050565b6000614611602683614e76565b915061461c82615338565b604082019050919050565b6000614634602583614e76565b915061463f82615387565b604082019050919050565b6000614657601c83614e76565b9150614662826153d6565b602082019050919050565b600061467a603e83614e76565b9150614685826153ff565b604082019050919050565b600061469d602483614e76565b91506146a88261544e565b604082019050919050565b60006146c0601983614e76565b91506146cb8261549d565b602082019050919050565b60006146e3600883614e76565b91506146ee826154c6565b602082019050919050565b6000614706601083614e76565b9150614711826154ef565b602082019050919050565b6000614729602983614e76565b915061473482615518565b604082019050919050565b600061474c602083614e76565b915061475782615567565b602082019050919050565b600061476f602083614e76565b915061477a82615590565b602082019050919050565b6000614792601883614e76565b915061479d826155b9565b602082019050919050565b60006147b5602183614e76565b91506147c0826155e2565b604082019050919050565b60006147d8600083614e76565b91506147e382615631565b600082019050919050565b60006147fb603d83614e76565b915061480682615634565b604082019050919050565b600061481e602c83614e76565b915061482982615683565b604082019050919050565b6000614841601783614e87565b915061484c826156d2565b601782019050919050565b6000614864603583614e76565b915061486f826156fb565b604082019050919050565b6000614887600b83614e76565b91506148928261574a565b602082019050919050565b60006148aa603d83614e76565b91506148b582615773565b604082019050919050565b60006148cd604083614e76565b91506148d8826157c2565b604082019050919050565b60006148f0601183614e87565b91506148fb82615811565b601182019050919050565b6000614913602f83614e76565b915061491e8261583a565b604082019050919050565b61493281614fea565b82525050565b60006149448285614501565b91506149508284614501565b91508190509392505050565b600061496782614834565b91506149738285614501565b915061497e826148e3565b915061498a8284614501565b91508190509392505050565b60006020820190506149ab6000830184614462565b92915050565b60006080820190506149c66000830187614462565b6149d36020830186614462565b6149e06040830185614929565b81810360608301526149f2818461448f565b905095945050505050565b6000602082019050614a126000830184614471565b92915050565b6000602082019050614a2d6000830184614480565b92915050565b60006020820190508181036000830152614a4d81846144c8565b905092915050565b60006020820190508181036000830152614a6e81614532565b9050919050565b60006020820190508181036000830152614a8e81614555565b9050919050565b60006020820190508181036000830152614aae81614578565b9050919050565b60006020820190508181036000830152614ace8161459b565b9050919050565b60006020820190508181036000830152614aee816145be565b9050919050565b60006020820190508181036000830152614b0e816145e1565b9050919050565b60006020820190508181036000830152614b2e81614604565b9050919050565b60006020820190508181036000830152614b4e81614627565b9050919050565b60006020820190508181036000830152614b6e8161464a565b9050919050565b60006020820190508181036000830152614b8e8161466d565b9050919050565b60006020820190508181036000830152614bae81614690565b9050919050565b60006020820190508181036000830152614bce816146b3565b9050919050565b60006020820190508181036000830152614bee816146d6565b9050919050565b60006020820190508181036000830152614c0e816146f9565b9050919050565b60006020820190508181036000830152614c2e8161471c565b9050919050565b60006020820190508181036000830152614c4e8161473f565b9050919050565b60006020820190508181036000830152614c6e81614762565b9050919050565b60006020820190508181036000830152614c8e81614785565b9050919050565b60006020820190508181036000830152614cae816147a8565b9050919050565b60006020820190508181036000830152614cce816147cb565b9050919050565b60006020820190508181036000830152614cee816147ee565b9050919050565b60006020820190508181036000830152614d0e81614811565b9050919050565b60006020820190508181036000830152614d2e81614857565b9050919050565b60006020820190508181036000830152614d4e8161487a565b9050919050565b60006020820190508181036000830152614d6e8161489d565b9050919050565b60006020820190508181036000830152614d8e816148c0565b9050919050565b60006020820190508181036000830152614dae81614906565b9050919050565b6000602082019050614dca6000830184614929565b92915050565b6000604082019050614de56000830185614929565b614df26020830184614462565b9392505050565b6000614e03614e14565b9050614e0f8282615092565b919050565b6000604051905090565b600067ffffffffffffffff821115614e3957614e3861516a565b5b614e4282615199565b9050602081019050919050565b600081519050919050565b600081519050919050565b600082825260208201905092915050565b600082825260208201905092915050565b600081905092915050565b6000614e9d82614fea565b9150614ea883614fea565b9250827fffffffffffffffffffffffffffffffffffffffffffffffffffffffffffffffff03821115614edd57614edc61510c565b5b828201905092915050565b6000614ef382614fea565b9150614efe83614fea565b9250817fffffffffffffffffffffffffffffffffffffffffffffffffffffffffffffffff0483118215151615614f3757614f3661510c565b5b828202905092915050565b6000614f4d82614fea565b9150614f5883614fea565b925082821015614f6b57614f6a61510c565b5b828203905092915050565b6000614f8182614fca565b9050919050565b60008115159050919050565b6000819050919050565b60007fffffffff0000000000000000000000000000000000000000000000000000000082169050919050565b600073ffffffffffffffffffffffffffffffffffffffff82169050919050565b6000819050919050565b82818337600083830152505050565b60005b83811015615021578082015181840152602081019050615006565b83811115615030576000848401525b50505050565b600061504182614fea565b915060008214156150555761505461510c565b5b600182039050919050565b6000600282049050600182168061507857607f821691505b6020821081141561508c5761508b61513b565b5b50919050565b61509b82615199565b810181811067ffffffffffffffff821117156150ba576150b961516a565b5b80604052505050565b60006150ce82614fea565b91507fffffffffffffffffffffffffffffffffffffffffffffffffffffffffffffffff8214156151015761510061510c565b5b600182019050919050565b7f4e487b7100000000000000000000000000000000000000000000000000000000600052601160045260246000fd5b7f4e487b7100000000000000000000000000000000000000000000000000000000600052602260045260246000fd5b7f4e487b7100000000000000000000000000000000000000000000000000000000600052604160045260246000fd5b6000601f19601f8301169050919050565b7f537472696e67733a20686578206c656e67746820696e73756666696369656e74600082015250565b7f4552433732315061757361626c653a20746f6b656e207472616e73666572207760008201527f68696c6520706175736564000000000000000000000000000000000000000000602082015250565b7f5061757361626c653a206e6f7420706175736564000000000000000000000000600082015250565b7f4552433732313a2063616c6c6572206973206e6f7420746f6b656e206f776e6560008201527f72206f7220617070726f76656400000000000000000000000000000000000000602082015250565b7f455243373231456e756d657261626c653a206f776e657220696e646578206f7560008201527f74206f6620626f756e6473000000000000000000000000000000000000000000602082015250565b7f4552433732313a207472616e7366657220746f206e6f6e20455243373231526560008201527f63656976657220696d706c656d656e7465720000000000000000000000000000602082015250565b7f4f776e61626c653a206e6577206f776e657220697320746865207a65726f206160008201527f6464726573730000000000000000000000000000000000000000000000000000602082015250565b7f4552433732313a207472616e736665722066726f6d20696e636f72726563742060008201527f6f776e6572000000000000000000000000000000000000000000000000000000602082015250565b7f4552433732313a20746f6b656e20616c7265616479206d696e74656400000000600082015250565b7f4552433732315072657365744d696e7465725061757365724175746f49643a2060008201527f6d75737420686176652070617573657220726f6c6520746f2070617573650000602082015250565b7f4552433732313a207472616e7366657220746f20746865207a65726f2061646460008201527f7265737300000000000000000000000000000000000000000000000000000000602082015250565b7f4552433732313a20617070726f766520746f2063616c6c657200000000000000600082015250565b7f736f6c64206f7574000000000000000000000000000000000000000000000000600082015250565b7f5061757361626c653a2070617573656400000000000000000000000000000000600082015250565b7f4552433732313a2061646472657373207a65726f206973206e6f74206120766160008201527f6c6964206f776e65720000000000000000000000000000000000000000000000602082015250565b7f4552433732313a206d696e7420746f20746865207a65726f2061646472657373600082015250565b7f4f776e61626c653a2063616c6c6572206973206e6f7420746865206f776e6572600082015250565b7f4552433732313a20696e76616c696420746f6b656e2049440000000000000000600082015250565b7f4552433732313a20617070726f76616c20746f2063757272656e74206f776e6560008201527f7200000000000000000000000000000000000000000000000000000000000000602082015250565b50565b7f4552433732313a20617070726f76652063616c6c6572206973206e6f7420746f60008201527f6b656e206f776e6572206f7220617070726f76656420666f7220616c6c000000602082015250565b7f455243373231456e756d657261626c653a20676c6f62616c20696e646578206f60008201527f7574206f6620626f756e64730000000000000000000000000000000000000000602082015250565b7f416363657373436f6e74726f6c3a206163636f756e7420000000000000000000600082015250565b7f455243373231456e756d657261626c653a20636f6e736563757469766520747260008201527f616e7366657273206e6f7420737570706f727465640000000000000000000000602082015250565b7f70617920746f206d696e74000000000000000000000000000000000000000000600082015250565b7f4552433732315072657365744d696e7465725061757365724175746f49643a2060008201527f6d7573742068617665206d696e74657220726f6c6520746f206d696e74000000602082015250565b7f4552433732315072657365744d696e7465725061757365724175746f49643a2060008201527f6d75737420686176652070617573657220726f6c6520746f20756e7061757365602082015250565b7f206973206d697373696e6720726f6c6520000000000000000000000000000000600082015250565b7f416363657373436f6e74726f6c3a2063616e206f6e6c792072656e6f756e636560008201527f20726f6c657320666f722073656c660000000000000000000000000000000000602082015250565b61589281614f76565b811461589d57600080fd5b50565b6158a981614f88565b81146158b457600080fd5b50565b6158c081614f94565b81146158cb57600080fd5b50565b6158d781614f9e565b81146158e257600080fd5b50565b6158ee81614fea565b81146158f957600080fd5b5056fea2646970667358221220be62e330c2b0d361cc17f89267c9db4ae42a5aa0fae8f833ba250fc660fb46ff64736f6c6343000804003368747470733a2f2f6e66742e616c6563747269636f2e776f726b6572732e6465762f",
  "linkReferences": {},
  "deployedLinkReferences": {}
}