{
  "_format": "hh-sol-artifact-1",
  "contractName": "TokenBat",
  "sourceName": "contracts/TokenBat.sol",
  "abi": [
    {
      "inputs": [],
      "stateMutability": "nonpayable",
      "type": "constructor"
    },
    {
      "anonymous": false,
      "inputs": [
        {
          "indexed": true,
          "internalType": "address",
          "name": "owner",
          "type": "address"
        },
        {
          "indexed": true,
          "internalType": "address",
          "name": "approved",
          "type": "address"
        },
        {
          "indexed": true,
          "internalType": "uint256",
          "name": "tokenId",
          "type": "uint256"
        }
      ],
      "name": "Approval",
      "type": "event"
    },
    {
      "anonymous": false,
      "inputs": [
        {
          "indexed": true,
          "internalType": "address",
          "name": "owner",
          "type": "address"
        },
        {
          "indexed": true,
          "internalType": "address",
          "name": "operator",
          "type": "address"
        },
        {
          "indexed": false,
          "internalType": "bool",
          "name": "approved",
          "type": "bool"
        }
      ],
      "name": "ApprovalForAll",
      "type": "event"
    },
    {
      "anonymous": false,
      "inputs": [
        {
          "indexed": false,
          "internalType": "uint256",
          "name": "tokenId",
          "type": "uint256"
        },
        {
          "indexed": false,
          "internalType": "address",
          "name": "owner",
          "type": "address"
        }
      ],
      "name": "Minted",
      "type": "event"
    },
    {
      "anonymous": false,
      "inputs": [
        {
          "indexed": true,
          "internalType": "address",
          "name": "previousOwner",
          "type": "address"
        },
        {
          "indexed": true,
          "internalType": "address",
          "name": "newOwner",
          "type": "address"
        }
      ],
      "name": "OwnershipTransferred",
      "type": "event"
    },
    {
      "anonymous": false,
      "inputs": [
        {
          "indexed": false,
          "internalType": "address",
          "name": "account",
          "type": "address"
        }
      ],
      "name": "Paused",
      "type": "event"
    },
    {
      "anonymous": false,
      "inputs": [
        {
          "indexed": false,
          "internalType": "uint256",
          "name": "tokenId",
          "type": "uint256"
        }
      ],
      "name": "Redeemed",
      "type": "event"
    },
    {
      "anonymous": false,
      "inputs": [
        {
          "indexed": true,
          "internalType": "bytes32",
          "name": "role",
          "type": "bytes32"
        },
        {
          "indexed": true,
          "internalType": "bytes32",
          "name": "previousAdminRole",
          "type": "bytes32"
        },
        {
          "indexed": true,
          "internalType": "bytes32",
          "name": "newAdminRole",
          "type": "bytes32"
        }
      ],
      "name": "RoleAdminChanged",
      "type": "event"
    },
    {
      "anonymous": false,
      "inputs": [
        {
          "indexed": true,
          "internalType": "bytes32",
          "name": "role",
          "type": "bytes32"
        },
        {
          "indexed": true,
          "internalType": "address",
          "name": "account",
          "type": "address"
        },
        {
          "indexed": true,
          "internalType": "address",
          "name": "sender",
          "type": "address"
        }
      ],
      "name": "RoleGranted",
      "type": "event"
    },
    {
      "anonymous": false,
      "inputs": [
        {
          "indexed": true,
          "internalType": "bytes32",
          "name": "role",
          "type": "bytes32"
        },
        {
          "indexed": true,
          "internalType": "address",
          "name": "account",
          "type": "address"
        },
        {
          "indexed": true,
          "internalType": "address",
          "name": "sender",
          "type": "address"
        }
      ],
      "name": "RoleRevoked",
      "type": "event"
    },
    {
      "anonymous": false,
      "inputs": [
        {
          "indexed": true,
          "internalType": "address",
          "name": "from",
          "type": "address"
        },
        {
          "indexed": true,
          "internalType": "address",
          "name": "to",
          "type": "address"
        },
        {
          "indexed": true,
          "internalType": "uint256",
          "name": "tokenId",
          "type": "uint256"
        }
      ],
      "name": "Transfer",
      "type": "event"
    },
    {
      "anonymous": false,
      "inputs": [
        {
          "indexed": false,
          "internalType": "address",
          "name": "account",
          "type": "address"
        }
      ],
      "name": "Unpaused",
      "type": "event"
    },
    {
      "inputs": [],
      "name": "DEFAULT_ADMIN_ROLE",
      "outputs": [
        {
          "internalType": "bytes32",
          "name": "",
          "type": "bytes32"
        }
      ],
      "stateMutability": "view",
      "type": "function"
    },
    {
      "inputs": [],
      "name": "MAX_TOKENS",
      "outputs": [
        {
          "internalType": "uint256",
          "name": "",
          "type": "uint256"
        }
      ],
      "stateMutability": "view",
      "type": "function"
    },
    {
      "inputs": [],
      "name": "MINTER_ROLE",
      "outputs": [
        {
          "internalType": "bytes32",
          "name": "",
          "type": "bytes32"
        }
      ],
      "stateMutability": "view",
      "type": "function"
    },
    {
      "inputs": [],
      "name": "PAUSER_ROLE",
      "outputs": [
        {
          "internalType": "bytes32",
          "name": "",
          "type": "bytes32"
        }
      ],
      "stateMutability": "view",
      "type": "function"
    },
    {
      "inputs": [
        {
          "internalType": "address",
          "name": "to",
          "type": "address"
        },
        {
          "internalType": "uint256",
          "name": "tokenId",
          "type": "uint256"
        }
      ],
      "name": "approve",
      "outputs": [],
      "stateMutability": "nonpayable",
      "type": "function"
    },
    {
      "inputs": [
        {
          "internalType": "address",
          "name": "owner",
          "type": "address"
        }
      ],
      "name": "balanceOf",
      "outputs": [
        {
          "internalType": "uint256",
          "name": "",
          "type": "uint256"
        }
      ],
      "stateMutability": "view",
      "type": "function"
    },
    {
      "inputs": [
        {
          "internalType": "uint256",
          "name": "tokenId",
          "type": "uint256"
        }
      ],
      "name": "burn",
      "outputs": [],
      "stateMutability": "nonpayable",
      "type": "function"
    },
    {
      "inputs": [
        {
          "internalType": "uint256",
          "name": "tokenId",
          "type": "uint256"
        }
      ],
      "name": "getApproved",
      "outputs": [
        {
          "internalType": "address",
          "name": "",
          "type": "address"
        }
      ],
      "stateMutability": "view",
      "type": "function"
    },
    {
      "inputs": [
        {
          "internalType": "bytes32",
          "name": "role",
          "type": "bytes32"
        }
      ],
      "name": "getRoleAdmin",
      "outputs": [
        {
          "internalType": "bytes32",
          "name": "",
          "type": "bytes32"
        }
      ],
      "stateMutability": "view",
      "type": "function"
    },
    {
      "inputs": [
        {
          "internalType": "bytes32",
          "name": "role",
          "type": "bytes32"
        },
        {
          "internalType": "uint256",
          "name": "index",
          "type": "uint256"
        }
      ],
      "name": "getRoleMember",
      "outputs": [
        {
          "internalType": "address",
          "name": "",
          "type": "address"
        }
      ],
      "stateMutability": "view",
      "type": "function"
    },
    {
      "inputs": [
        {
          "internalType": "bytes32",
          "name": "role",
          "type": "bytes32"
        }
      ],
      "name": "getRoleMemberCount",
      "outputs": [
        {
          "internalType": "uint256",
          "name": "",
          "type": "uint256"
        }
      ],
      "stateMutability": "view",
      "type": "function"
    },
    {
      "inputs": [
        {
          "internalType": "bytes32",
          "name": "role",
          "type": "bytes32"
        },
        {
          "internalType": "address",
          "name": "account",
          "type": "address"
        }
      ],
      "name": "grantRole",
      "outputs": [],
      "stateMutability": "nonpayable",
      "type": "function"
    },
    {
      "inputs": [
        {
          "internalType": "bytes32",
          "name": "role",
          "type": "bytes32"
        },
        {
          "internalType": "address",
          "name": "account",
          "type": "address"
        }
      ],
      "name": "hasRole",
      "outputs": [
        {
          "internalType": "bool",
          "name": "",
          "type": "bool"
        }
      ],
      "stateMutability": "view",
      "type": "function"
    },
    {
      "inputs": [],
      "name": "hasSaleStarted",
      "outputs": [
        {
          "internalType": "bool",
          "name": "",
          "type": "bool"
        }
      ],
      "stateMutability": "view",
      "type": "function"
    },
    {
      "inputs": [],
      "name": "hasSoldOut",
      "outputs": [
        {
          "internalType": "bool",
          "name": "",
          "type": "bool"
        }
      ],
      "stateMutability": "view",
      "type": "function"
    },
    {
      "inputs": [
        {
          "internalType": "address",
          "name": "_owner",
          "type": "address"
        },
        {
          "internalType": "address",
          "name": "_operator",
          "type": "address"
        }
      ],
      "name": "isApprovedForAll",
      "outputs": [
        {
          "internalType": "bool",
          "name": "isOperator",
          "type": "bool"
        }
      ],
      "stateMutability": "view",
      "type": "function"
    },
    {
      "inputs": [
        {
          "internalType": "address",
          "name": "to",
          "type": "address"
        }
      ],
      "name": "mint",
      "outputs": [],
      "stateMutability": "nonpayable",
      "type": "function"
    },
    {
      "inputs": [
        {
          "internalType": "uint256",
          "name": "quantity",
          "type": "uint256"
        },
        {
          "internalType": "address",
          "name": "receiver",
          "type": "address"
        }
      ],
      "name": "mintToken",
      "outputs": [],
      "stateMutability": "payable",
      "type": "function"
    },
    {
      "inputs": [],
      "name": "name",
      "outputs": [
        {
          "internalType": "string",
          "name": "",
          "type": "string"
        }
      ],
      "stateMutability": "view",
      "type": "function"
    },
    {
      "inputs": [],
      "name": "owner",
      "outputs": [
        {
          "internalType": "address",
          "name": "",
          "type": "address"
        }
      ],
      "stateMutability": "view",
      "type": "function"
    },
    {
      "inputs": [
        {
          "internalType": "uint256",
          "name": "tokenId",
          "type": "uint256"
        }
      ],
      "name": "ownerOf",
      "outputs": [
        {
          "internalType": "address",
          "name": "",
          "type": "address"
        }
      ],
      "stateMutability": "view",
      "type": "function"
    },
    {
      "inputs": [],
      "name": "pause",
      "outputs": [],
      "stateMutability": "nonpayable",
      "type": "function"
    },
    {
      "inputs": [],
      "name": "pauseSale",
      "outputs": [],
      "stateMutability": "nonpayable",
      "type": "function"
    },
    {
      "inputs": [],
      "name": "paused",
      "outputs": [
        {
          "internalType": "bool",
          "name": "",
          "type": "bool"
        }
      ],
      "stateMutability": "view",
      "type": "function"
    },
    {
      "inputs": [],
      "name": "priceToMint",
      "outputs": [
        {
          "internalType": "uint256",
          "name": "",
          "type": "uint256"
        }
      ],
      "stateMutability": "view",
      "type": "function"
    },
    {
      "inputs": [
        {
          "internalType": "uint256",
          "name": "tokenId",
          "type": "uint256"
        }
      ],
      "name": "redeemToken",
      "outputs": [],
      "stateMutability": "nonpayable",
      "type": "function"
    },
    {
      "inputs": [],
      "name": "renounceOwnership",
      "outputs": [],
      "stateMutability": "nonpayable",
      "type": "function"
    },
    {
      "inputs": [
        {
          "internalType": "bytes32",
          "name": "role",
          "type": "bytes32"
        },
        {
          "internalType": "address",
          "name": "account",
          "type": "address"
        }
      ],
      "name": "renounceRole",
      "outputs": [],
      "stateMutability": "nonpayable",
      "type": "function"
    },
    {
      "inputs": [
        {
          "internalType": "bytes32",
          "name": "role",
          "type": "bytes32"
        },
        {
          "internalType": "address",
          "name": "account",
          "type": "address"
        }
      ],
      "name": "revokeRole",
      "outputs": [],
      "stateMutability": "nonpayable",
      "type": "function"
    },
    {
      "inputs": [
        {
          "internalType": "address",
          "name": "from",
          "type": "address"
        },
        {
          "internalType": "address",
          "name": "to",
          "type": "address"
        },
        {
          "internalType": "uint256",
          "name": "tokenId",
          "type": "uint256"
        }
      ],
      "name": "safeTransferFrom",
      "outputs": [],
      "stateMutability": "nonpayable",
      "type": "function"
    },
    {
      "inputs": [
        {
          "internalType": "address",
          "name": "from",
          "type": "address"
        },
        {
          "internalType": "address",
          "name": "to",
          "type": "address"
        },
        {
          "internalType": "uint256",
          "name": "tokenId",
          "type": "uint256"
        },
        {
          "internalType": "bytes",
          "name": "data",
          "type": "bytes"
        }
      ],
      "name": "safeTransferFrom",
      "outputs": [],
      "stateMutability": "nonpayable",
      "type": "function"
    },
    {
      "inputs": [
        {
          "internalType": "address",
          "name": "operator",
          "type": "address"
        },
        {
          "internalType": "bool",
          "name": "approved",
          "type": "bool"
        }
      ],
      "name": "setApprovalForAll",
      "outputs": [],
      "stateMutability": "nonpayable",
      "type": "function"
    },
    {
      "inputs": [
        {
          "internalType": "uint256",
          "name": "_priceToMint",
          "type": "uint256"
        }
      ],
      "name": "setPriceToMint",
      "outputs": [],
      "stateMutability": "nonpayable",
      "type": "function"
    },
    {
      "inputs": [],
      "name": "startSale",
      "outputs": [],
      "stateMutability": "nonpayable",
      "type": "function"
    },
    {
      "inputs": [
        {
          "internalType": "bytes4",
          "name": "interfaceId",
          "type": "bytes4"
        }
      ],
      "name": "supportsInterface",
      "outputs": [
        {
          "internalType": "bool",
          "name": "",
          "type": "bool"
        }
      ],
      "stateMutability": "view",
      "type": "function"
    },
    {
      "inputs": [],
      "name": "symbol",
      "outputs": [
        {
          "internalType": "string",
          "name": "",
          "type": "string"
        }
      ],
      "stateMutability": "view",
      "type": "function"
    },
    {
      "inputs": [
        {
          "internalType": "uint256",
          "name": "index",
          "type": "uint256"
        }
      ],
      "name": "tokenByIndex",
      "outputs": [
        {
          "internalType": "uint256",
          "name": "",
          "type": "uint256"
        }
      ],
      "stateMutability": "view",
      "type": "function"
    },
    {
      "inputs": [
        {
          "internalType": "uint256",
          "name": "tokenId",
          "type": "uint256"
        }
      ],
      "name": "tokenExists",
      "outputs": [
        {
          "internalType": "bool",
          "name": "",
          "type": "bool"
        }
      ],
      "stateMutability": "view",
      "type": "function"
    },
    {
      "inputs": [
        {
          "internalType": "address",
          "name": "owner",
          "type": "address"
        },
        {
          "internalType": "uint256",
          "name": "index",
          "type": "uint256"
        }
      ],
      "name": "tokenOfOwnerByIndex",
      "outputs": [
        {
          "internalType": "uint256",
          "name": "",
          "type": "uint256"
        }
      ],
      "stateMutability": "view",
      "type": "function"
    },
    {
      "inputs": [
        {
          "internalType": "uint256",
          "name": "tokenId",
          "type": "uint256"
        }
      ],
      "name": "tokenURI",
      "outputs": [
        {
          "internalType": "string",
          "name": "",
          "type": "string"
        }
      ],
      "stateMutability": "view",
      "type": "function"
    },
    {
      "inputs": [],
      "name": "totalSupply",
      "outputs": [
        {
          "internalType": "uint256",
          "name": "",
          "type": "uint256"
        }
      ],
      "stateMutability": "view",
      "type": "function"
    },
    {
      "inputs": [
        {
          "internalType": "address",
          "name": "from",
          "type": "address"
        },
        {
          "internalType": "address",
          "name": "to",
          "type": "address"
        },
        {
          "internalType": "uint256",
          "name": "tokenId",
          "type": "uint256"
        }
      ],
      "name": "transferFrom",
      "outputs": [],
      "stateMutability": "nonpayable",
      "type": "function"
    },
    {
      "inputs": [
        {
          "internalType": "address",
          "name": "newOwner",
          "type": "address"
        }
      ],
      "name": "transferOwnership",
      "outputs": [],
      "stateMutability": "nonpayable",
      "type": "function"
    },
    {
      "inputs": [],
      "name": "unpause",
      "outputs": [],
      "stateMutability": "nonpayable",
      "type": "function"
    }
  ],
  "bytecode": "0x60806040526000601160006101000a81548160ff0219169083151502179055503480156200002c57600080fd5b506040518060400160405280600881526020017f546f6b656e4261740000000000000000000000000000000000000000000000008152506040518060400160405280600881526020017f546f6b656e426174000000000000000000000000000000000000000000000000815250604051806060016040528060228152602001620063846022913982828160029080519060200190620000cd9291906200060f565b508060039080519060200190620000e69291906200060f565b5050506000600c60006101000a81548160ff02191690831515021790555080600e90805190602001906200011c9291906200060f565b50620001416000801b62000135620001ec60201b60201c565b6200020860201b60201c565b620001827f9f2df0fed2c77648de5860a4cc508cd0818c85b8b8a1ab4ceeef8d981c8956a662000176620001ec60201b60201c565b6200020860201b60201c565b620001c37f65d7a28e3265b37a6474929f336521b332c1681b933f6cb9f3376673440d862a620001b7620001ec60201b60201c565b6200020860201b60201c565b505050620001e6620001da620001ec60201b60201c565b6200021e60201b60201c565b62000724565b600062000203620002e460201b62001a5f1760201c565b905090565b6200021a82826200039760201b60201c565b5050565b6000600f60009054906101000a900473ffffffffffffffffffffffffffffffffffffffff16905081600f60006101000a81548173ffffffffffffffffffffffffffffffffffffffff021916908373ffffffffffffffffffffffffffffffffffffffff1602179055508173ffffffffffffffffffffffffffffffffffffffff168173ffffffffffffffffffffffffffffffffffffffff167f8be0079c531659141344cd1fd0a4f28419497f9722a3daafe3b4186f6b6457e060405160405180910390a35050565b60003073ffffffffffffffffffffffffffffffffffffffff163373ffffffffffffffffffffffffffffffffffffffff1614156200039057600080368080601f016020809104026020016040519081016040528093929190818152602001838380828437600081840152601f19601f820116905080830192505050505050509050600080369050905073ffffffffffffffffffffffffffffffffffffffff81830151169250505062000394565b3390505b90565b620003ae8282620003df60201b62001b101760201c565b620003da8160016000858152602001908152602001600020620004d060201b62001bf01790919060201c565b505050565b620003f182826200050860201b60201c565b620004cc57600160008084815260200190815260200160002060000160008373ffffffffffffffffffffffffffffffffffffffff1673ffffffffffffffffffffffffffffffffffffffff16815260200190815260200160002060006101000a81548160ff02191690831515021790555062000471620001ec60201b60201c565b73ffffffffffffffffffffffffffffffffffffffff168173ffffffffffffffffffffffffffffffffffffffff16837f2f8788117e7eff1d82e926ec794901d17c78024a50270940304540a733656f0d60405160405180910390a45b5050565b600062000500836000018373ffffffffffffffffffffffffffffffffffffffff1660001b6200057260201b60201c565b905092915050565b600080600084815260200190815260200160002060000160008373ffffffffffffffffffffffffffffffffffffffff1673ffffffffffffffffffffffffffffffffffffffff16815260200190815260200160002060009054906101000a900460ff16905092915050565b6000620005868383620005ec60201b60201c565b620005e1578260000182908060018154018082558091505060019003906000526020600020016000909190919091505582600001805490508360010160008481526020019081526020016000208190555060019050620005e6565b600090505b92915050565b600080836001016000848152602001908152602001600020541415905092915050565b8280546200061d90620006bf565b90600052602060002090601f0160209004810192826200064157600085556200068d565b82601f106200065c57805160ff19168380011785556200068d565b828001600101855582156200068d579182015b828111156200068c5782518255916020019190600101906200066f565b5b5090506200069c9190620006a0565b5090565b5b80821115620006bb576000816000905550600101620006a1565b5090565b60006002820490506001821680620006d857607f821691505b60208210811415620006ef57620006ee620006f5565b5b50919050565b7f4e487b7100000000000000000000000000000000000000000000000000000000600052602260045260246000fd5b615c5080620007346000396000f3fe6080604052600436106102665760003560e01c80636352211e11610144578063a22cb465116100b6578063d53913931161007a578063d53913931461091c578063d547741f14610947578063e63ab1e914610970578063e985e9c51461099b578063f2fde38b146109d8578063f47c84c514610a0157610266565b8063a22cb46514610839578063b66a0e5d14610862578063b88d4fde14610879578063c87b56dd146108a2578063ca15c873146108df57610266565b80638da5cb5b116101085780638da5cb5b146107225780639010d07c1461074d57806391d148541461078a57806395d89b41146107c7578063a140ae23146107f2578063a217fddf1461080e57610266565b80636352211e146106515780636a6278421461068e57806370a08231146106b7578063715018a6146106f45780638456cb591461070b57610266565b806329e0a2ac116101dd57806342842e0e116101a157806342842e0e1461055557806342966c681461057e5780634dc1dbec146105a75780634f6ccce7146105d257806355367ba91461060f5780635c975abb1461062657610266565b806329e0a2ac146104865780632f2ff15d146104af5780632f745c59146104d857806336568abe146105155780633f4ba83a1461053e57610266565b8063081812fc1161022f578063081812fc14610364578063095ea7b3146103a157806318160ddd146103ca5780631c8b232d146103f557806323b872dd14610420578063248a9ca31461044957610266565b8062923f9e1461026b578063013054c2146102a857806301ffc9a7146102d157806303824f761461030e57806306fdde0314610339575b600080fd5b34801561027757600080fd5b50610292600480360381019061028d919061448d565b610a2c565b60405161029f9190614b3c565b60405180910390f35b3480156102b457600080fd5b506102cf60048036038101906102ca919061448d565b610a3e565b005b3480156102dd57600080fd5b506102f860048036038101906102f3919061443b565b610b10565b6040516103059190614b3c565b60405180910390f35b34801561031a57600080fd5b50610323610b22565b6040516103309190614b3c565b60405180910390f35b34801561034557600080fd5b5061034e610b44565b60405161035b9190614b72565b60405180910390f35b34801561037057600080fd5b5061038b6004803603810190610386919061448d565b610bd6565b6040516103989190614ad5565b60405180910390f35b3480156103ad57600080fd5b506103c860048036038101906103c3919061435e565b610c1c565b005b3480156103d657600080fd5b506103df610d34565b6040516103ec9190614f94565b60405180910390f35b34801561040157600080fd5b5061040a610d41565b6040516104179190614b3c565b60405180910390f35b34801561042c57600080fd5b5061044760048036038101906104429190614258565b610d54565b005b34801561045557600080fd5b50610470600480360381019061046b919061439a565b610db4565b60405161047d9190614b57565b60405180910390f35b34801561049257600080fd5b506104ad60048036038101906104a8919061448d565b610dd3565b005b3480156104bb57600080fd5b506104d660048036038101906104d191906143c3565b610e9d565b005b3480156104e457600080fd5b506104ff60048036038101906104fa919061435e565b610ebe565b60405161050c9190614f94565b60405180910390f35b34801561052157600080fd5b5061053c600480360381019061053791906143c3565b610f63565b005b34801561054a57600080fd5b50610553610fe6565b005b34801561056157600080fd5b5061057c60048036038101906105779190614258565b611060565b005b34801561058a57600080fd5b506105a560048036038101906105a0919061448d565b611080565b005b3480156105b357600080fd5b506105bc6110dc565b6040516105c99190614f94565b60405180910390f35b3480156105de57600080fd5b506105f960048036038101906105f4919061448d565b6110e2565b6040516106069190614f94565b60405180910390f35b34801561061b57600080fd5b50610624611179565b005b34801561063257600080fd5b5061063b61119e565b6040516106489190614b3c565b60405180910390f35b34801561065d57600080fd5b506106786004803603810190610673919061448d565b6111b5565b6040516106859190614ad5565b60405180910390f35b34801561069a57600080fd5b506106b560048036038101906106b091906141f3565b61123c565b005b3480156106c357600080fd5b506106de60048036038101906106d991906141f3565b6112cc565b6040516106eb9190614f94565b60405180910390f35b34801561070057600080fd5b50610709611384565b005b34801561071757600080fd5b50610720611398565b005b34801561072e57600080fd5b50610737611412565b6040516107449190614ad5565b60405180910390f35b34801561075957600080fd5b50610774600480360381019061076f91906143ff565b61143c565b6040516107819190614ad5565b60405180910390f35b34801561079657600080fd5b506107b160048036038101906107ac91906143c3565b61146b565b6040516107be9190614b3c565b60405180910390f35b3480156107d357600080fd5b506107dc6114d5565b6040516107e99190614b72565b60405180910390f35b61080c600480360381019061080791906144b6565b611567565b005b34801561081a57600080fd5b506108236117d7565b6040516108309190614b57565b60405180910390f35b34801561084557600080fd5b50610860600480360381019061085b9190614322565b6117de565b005b34801561086e57600080fd5b506108776117f4565b005b34801561088557600080fd5b506108a0600480360381019061089b91906142a7565b611819565b005b3480156108ae57600080fd5b506108c960048036038101906108c4919061448d565b61187b565b6040516108d69190614b72565b60405180910390f35b3480156108eb57600080fd5b506109066004803603810190610901919061439a565b6118e3565b6040516109139190614f94565b60405180910390f35b34801561092857600080fd5b50610931611907565b60405161093e9190614b57565b60405180910390f35b34801561095357600080fd5b5061096e600480360381019061096991906143c3565b61192b565b005b34801561097c57600080fd5b5061098561194c565b6040516109929190614b57565b60405180910390f35b3480156109a757600080fd5b506109c260048036038101906109bd919061421c565b611970565b6040516109cf9190614b3c565b60405180910390f35b3480156109e457600080fd5b506109ff60048036038101906109fa91906141f3565b6119d6565b005b348015610a0d57600080fd5b50610a16611a5a565b604051610a239190614f94565b60405180910390f35b6000610a3782611c20565b9050919050565b610a46611c61565b610a4f81611c20565b8015610a8e57503373ffffffffffffffffffffffffffffffffffffffff16610a76826111b5565b73ffffffffffffffffffffffffffffffffffffffff16145b610acd576040517f08c379a0000000000000000000000000000000000000000000000000000000008152600401610ac490614bd4565b60405180910390fd5b610ad681611cdf565b7f82498456531a1065f689ba348ce20bda781238c424cf36748dd40bc282831e0381604051610b059190614f94565b60405180910390a150565b6000610b1b82611e2d565b9050919050565b60006040610b2e610d34565b10610b3c5760019050610b41565b600090505b90565b606060028054610b539061523f565b80601f0160208091040260200160405190810160405280929190818152602001828054610b7f9061523f565b8015610bcc5780601f10610ba157610100808354040283529160200191610bcc565b820191906000526020600020905b815481529060010190602001808311610baf57829003601f168201915b5050505050905090565b6000610be182611ea7565b6006600083815260200190815260200160002060009054906101000a900473ffffffffffffffffffffffffffffffffffffffff169050919050565b6000610c27826111b5565b90508073ffffffffffffffffffffffffffffffffffffffff168373ffffffffffffffffffffffffffffffffffffffff161415610c98576040517f08c379a0000000000000000000000000000000000000000000000000000000008152600401610c8f90614e94565b60405180910390fd5b8073ffffffffffffffffffffffffffffffffffffffff16610cb7611ef2565b73ffffffffffffffffffffffffffffffffffffffff161480610ce65750610ce581610ce0611ef2565b611970565b5b610d25576040517f08c379a0000000000000000000000000000000000000000000000000000000008152600401610d1c90614eb4565b60405180910390fd5b610d2f8383611f01565b505050565b6000600a80549050905090565b601160009054906101000a900460ff1681565b610d65610d5f611ef2565b82611fba565b610da4576040517f08c379a0000000000000000000000000000000000000000000000000000000008152600401610d9b90614c34565b60405180910390fd5b610daf83838361204f565b505050565b6000806000838152602001908152602001600020600101549050919050565b610ddb611c61565b610de3611412565b73ffffffffffffffffffffffffffffffffffffffff163373ffffffffffffffffffffffffffffffffffffffff1614610e50576040517f08c379a0000000000000000000000000000000000000000000000000000000008152600401610e4790614dd4565b60405180910390fd5b60008111610e93576040517f08c379a0000000000000000000000000000000000000000000000000000000008152600401610e8a90614d94565b60405180910390fd5b8060108190555050565b610ea682610db4565b610eaf81612349565b610eb9838361235d565b505050565b6000610ec9836112cc565b8210610f0a576040517f08c379a0000000000000000000000000000000000000000000000000000000008152600401610f0190614c54565b60405180910390fd5b600860008473ffffffffffffffffffffffffffffffffffffffff1673ffffffffffffffffffffffffffffffffffffffff168152602001908152602001600020600083815260200190815260200160002054905092915050565b610f6b611ef2565b73ffffffffffffffffffffffffffffffffffffffff168173ffffffffffffffffffffffffffffffffffffffff1614610fd8576040517f08c379a0000000000000000000000000000000000000000000000000000000008152600401610fcf90614f74565b60405180910390fd5b610fe28282612391565b5050565b6110177f65d7a28e3265b37a6474929f336521b332c1681b933f6cb9f3376673440d862a611012611ef2565b61146b565b611056576040517f08c379a000000000000000000000000000000000000000000000000000000000815260040161104d90614f54565b60405180910390fd5b61105e6123c5565b565b61107b83838360405180602001604052806000815250611819565b505050565b61109161108b611ef2565b82611fba565b6110d0576040517f08c379a00000000000000000000000000000000000000000000000000000000081526004016110c790614c34565b60405180910390fd5b6110d981611cdf565b50565b60105481565b60006110ec610d34565b821061112d576040517f08c379a000000000000000000000000000000000000000000000000000000000815260040161112490614ed4565b60405180910390fd5b600a8281548110611167577f4e487b7100000000000000000000000000000000000000000000000000000000600052603260045260246000fd5b90600052602060002001549050919050565b611181611c61565b6000601160006101000a81548160ff021916908315150217905550565b6000600c60009054906101000a900460ff16905090565b6000806111c183612428565b9050600073ffffffffffffffffffffffffffffffffffffffff168173ffffffffffffffffffffffffffffffffffffffff161415611233576040517f08c379a000000000000000000000000000000000000000000000000000000000815260040161122a90614e74565b60405180910390fd5b80915050919050565b61126d7f9f2df0fed2c77648de5860a4cc508cd0818c85b8b8a1ab4ceeef8d981c8956a6611268611ef2565b61146b565b6112ac576040517f08c379a00000000000000000000000000000000000000000000000000000000081526004016112a390614f34565b60405180910390fd5b6112bf816112ba600d612465565b612473565b6112c9600d612691565b50565b60008073ffffffffffffffffffffffffffffffffffffffff168273ffffffffffffffffffffffffffffffffffffffff16141561133d576040517f08c379a000000000000000000000000000000000000000000000000000000000815260040161133490614db4565b60405180910390fd5b600560008373ffffffffffffffffffffffffffffffffffffffff1673ffffffffffffffffffffffffffffffffffffffff168152602001908152602001600020549050919050565b61138c611c61565b61139660006126a7565b565b6113c97f65d7a28e3265b37a6474929f336521b332c1681b933f6cb9f3376673440d862a6113c4611ef2565b61146b565b611408576040517f08c379a00000000000000000000000000000000000000000000000000000000081526004016113ff90614cf4565b60405180910390fd5b61141061276d565b565b6000600f60009054906101000a900473ffffffffffffffffffffffffffffffffffffffff16905090565b600061146382600160008681526020019081526020016000206127d090919063ffffffff16565b905092915050565b600080600084815260200190815260200160002060000160008373ffffffffffffffffffffffffffffffffffffffff1673ffffffffffffffffffffffffffffffffffffffff16815260200190815260200160002060009054906101000a900460ff16905092915050565b6060600380546114e49061523f565b80601f01602080910402602001604051908101604052809291908181526020018280546115109061523f565b801561155d5780601f106115325761010080835404028352916020019161155d565b820191906000526020600020905b81548152906001019060200180831161154057829003601f168201915b5050505050905090565b601160009054906101000a900460ff16806115b45750611585611412565b73ffffffffffffffffffffffffffffffffffffffff163373ffffffffffffffffffffffffffffffffffffffff16145b6115f3576040517f08c379a00000000000000000000000000000000000000000000000000000000081526004016115ea90614c14565b60405180910390fd5b60008211611636576040517f08c379a000000000000000000000000000000000000000000000000000000000815260040161162d90614df4565b60405180910390fd5b600382111561167a576040517f08c379a000000000000000000000000000000000000000000000000000000000815260040161167190614e54565b60405180910390fd5b604061169683611688610d34565b6127ea90919063ffffffff16565b1115806116d557506116a6611412565b73ffffffffffffffffffffffffffffffffffffffff163373ffffffffffffffffffffffffffffffffffffffff16145b611714576040517f08c379a000000000000000000000000000000000000000000000000000000000815260040161170b90614d54565b60405180910390fd5b601054341480156117255750600034115b611764576040517f08c379a000000000000000000000000000000000000000000000000000000000815260040161175b90614f14565b60405180910390fd5b60005b828110156117d2576000611779610d34565b90506117858382612800565b7fb9203d657e9c0ec8274c818292ab0f58b04e1970050716891770eb1bab5d655e81846040516117b6929190614faf565b60405180910390a15080806117ca906152a2565b915050611767565b505050565b6000801b81565b6117f06117e9611ef2565b838361281e565b5050565b6117fc611c61565b6001601160006101000a81548160ff021916908315150217905550565b61182a611824611ef2565b83611fba565b611869576040517f08c379a000000000000000000000000000000000000000000000000000000000815260040161186090614c34565b60405180910390fd5b6118758484848461298b565b50505050565b606061188682611ea7565b60006118906129e7565b905060008151116118b057604051806020016040528060008152506118db565b806118ba84612a79565b6040516020016118cb929190614a77565b6040516020818303038152906040525b915050919050565b600061190060016000848152602001908152602001600020612b9d565b9050919050565b7f9f2df0fed2c77648de5860a4cc508cd0818c85b8b8a1ab4ceeef8d981c8956a681565b61193482610db4565b61193d81612349565b6119478383612391565b505050565b7f65d7a28e3265b37a6474929f336521b332c1681b933f6cb9f3376673440d862a81565b60007358807bad0b376efc12f5ad86aac70e78ed67deae73ffffffffffffffffffffffffffffffffffffffff168273ffffffffffffffffffffffffffffffffffffffff1614156119c357600190506119d0565b6119cd8383612bb2565b90505b92915050565b6119de611c61565b600073ffffffffffffffffffffffffffffffffffffffff168173ffffffffffffffffffffffffffffffffffffffff161415611a4e576040517f08c379a0000000000000000000000000000000000000000000000000000000008152600401611a4590614c94565b60405180910390fd5b611a57816126a7565b50565b604081565b60003073ffffffffffffffffffffffffffffffffffffffff163373ffffffffffffffffffffffffffffffffffffffff161415611b0957600080368080601f016020809104026020016040519081016040528093929190818152602001838380828437600081840152601f19601f820116905080830192505050505050509050600080369050905073ffffffffffffffffffffffffffffffffffffffff818301511692505050611b0d565b3390505b90565b611b1a828261146b565b611bec57600160008084815260200190815260200160002060000160008373ffffffffffffffffffffffffffffffffffffffff1673ffffffffffffffffffffffffffffffffffffffff16815260200190815260200160002060006101000a81548160ff021916908315150217905550611b91611ef2565b73ffffffffffffffffffffffffffffffffffffffff168173ffffffffffffffffffffffffffffffffffffffff16837f2f8788117e7eff1d82e926ec794901d17c78024a50270940304540a733656f0d60405160405180910390a45b5050565b6000611c18836000018373ffffffffffffffffffffffffffffffffffffffff1660001b612c46565b905092915050565b60008073ffffffffffffffffffffffffffffffffffffffff16611c4283612428565b73ffffffffffffffffffffffffffffffffffffffff1614159050919050565b611c69611ef2565b73ffffffffffffffffffffffffffffffffffffffff16611c87611412565b73ffffffffffffffffffffffffffffffffffffffff1614611cdd576040517f08c379a0000000000000000000000000000000000000000000000000000000008152600401611cd490614e34565b60405180910390fd5b565b6000611cea826111b5565b9050611cfa816000846001612cb6565b611d03826111b5565b90506006600083815260200190815260200160002060006101000a81549073ffffffffffffffffffffffffffffffffffffffff02191690556001600560008373ffffffffffffffffffffffffffffffffffffffff1673ffffffffffffffffffffffffffffffffffffffff168152602001908152602001600020600082825403925050819055506004600083815260200190815260200160002060006101000a81549073ffffffffffffffffffffffffffffffffffffffff021916905581600073ffffffffffffffffffffffffffffffffffffffff168273ffffffffffffffffffffffffffffffffffffffff167fddf252ad1be2c89b69c2b068fc378daa952ba7f163c4a11628f55a4df523b3ef60405160405180910390a4611e29816000846001612cc8565b5050565b60007f780e9d63000000000000000000000000000000000000000000000000000000007bffffffffffffffffffffffffffffffffffffffffffffffffffffffff1916827bffffffffffffffffffffffffffffffffffffffffffffffffffffffff19161480611ea05750611e9f82612cce565b5b9050919050565b611eb081611c20565b611eef576040517f08c379a0000000000000000000000000000000000000000000000000000000008152600401611ee690614e74565b60405180910390fd5b50565b6000611efc611a5f565b905090565b816006600083815260200190815260200160002060006101000a81548173ffffffffffffffffffffffffffffffffffffffff021916908373ffffffffffffffffffffffffffffffffffffffff160217905550808273ffffffffffffffffffffffffffffffffffffffff16611f74836111b5565b73ffffffffffffffffffffffffffffffffffffffff167f8c5be1e5ebec7d5bd14f71427d1e84f3dd0314c0f7b2291e5b200ac8c7c3b92560405160405180910390a45050565b600080611fc6836111b5565b90508073ffffffffffffffffffffffffffffffffffffffff168473ffffffffffffffffffffffffffffffffffffffff16148061200857506120078185611970565b5b8061204657508373ffffffffffffffffffffffffffffffffffffffff1661202e84610bd6565b73ffffffffffffffffffffffffffffffffffffffff16145b91505092915050565b8273ffffffffffffffffffffffffffffffffffffffff1661206f826111b5565b73ffffffffffffffffffffffffffffffffffffffff16146120c5576040517f08c379a00000000000000000000000000000000000000000000000000000000081526004016120bc90614cb4565b60405180910390fd5b600073ffffffffffffffffffffffffffffffffffffffff168273ffffffffffffffffffffffffffffffffffffffff161415612135576040517f08c379a000000000000000000000000000000000000000000000000000000000815260040161212c90614d14565b60405180910390fd5b6121428383836001612cb6565b8273ffffffffffffffffffffffffffffffffffffffff16612162826111b5565b73ffffffffffffffffffffffffffffffffffffffff16146121b8576040517f08c379a00000000000000000000000000000000000000000000000000000000081526004016121af90614cb4565b60405180910390fd5b6006600082815260200190815260200160002060006101000a81549073ffffffffffffffffffffffffffffffffffffffff02191690556001600560008573ffffffffffffffffffffffffffffffffffffffff1673ffffffffffffffffffffffffffffffffffffffff168152602001908152602001600020600082825403925050819055506001600560008473ffffffffffffffffffffffffffffffffffffffff1673ffffffffffffffffffffffffffffffffffffffff16815260200190815260200160002060008282540192505081905550816004600083815260200190815260200160002060006101000a81548173ffffffffffffffffffffffffffffffffffffffff021916908373ffffffffffffffffffffffffffffffffffffffff160217905550808273ffffffffffffffffffffffffffffffffffffffff168473ffffffffffffffffffffffffffffffffffffffff167fddf252ad1be2c89b69c2b068fc378daa952ba7f163c4a11628f55a4df523b3ef60405160405180910390a46123448383836001612cc8565b505050565b61235a81612355611ef2565b612db0565b50565b6123678282611b10565b61238c8160016000858152602001908152602001600020611bf090919063ffffffff16565b505050565b61239b8282612e35565b6123c08160016000858152602001908152602001600020612f1690919063ffffffff16565b505050565b6123cd612f46565b6000600c60006101000a81548160ff0219169083151502179055507f5db9ee0a495bf2e6ff9c91a7834c1ba4fdd244a5e8aa4e537bd38aeae4b073aa612411611ef2565b60405161241e9190614ad5565b60405180910390a1565b60006004600083815260200190815260200160002060009054906101000a900473ffffffffffffffffffffffffffffffffffffffff169050919050565b600081600001549050919050565b600073ffffffffffffffffffffffffffffffffffffffff168273ffffffffffffffffffffffffffffffffffffffff1614156124e3576040517f08c379a00000000000000000000000000000000000000000000000000000000081526004016124da90614e14565b60405180910390fd5b6124ec81611c20565b1561252c576040517f08c379a000000000000000000000000000000000000000000000000000000000815260040161252390614cd4565b60405180910390fd5b61253a600083836001612cb6565b61254381611c20565b15612583576040517f08c379a000000000000000000000000000000000000000000000000000000000815260040161257a90614cd4565b60405180910390fd5b6001600560008473ffffffffffffffffffffffffffffffffffffffff1673ffffffffffffffffffffffffffffffffffffffff16815260200190815260200160002060008282540192505081905550816004600083815260200190815260200160002060006101000a81548173ffffffffffffffffffffffffffffffffffffffff021916908373ffffffffffffffffffffffffffffffffffffffff160217905550808273ffffffffffffffffffffffffffffffffffffffff16600073ffffffffffffffffffffffffffffffffffffffff167fddf252ad1be2c89b69c2b068fc378daa952ba7f163c4a11628f55a4df523b3ef60405160405180910390a461268d600083836001612cc8565b5050565b6001816000016000828254019250508190555050565b6000600f60009054906101000a900473ffffffffffffffffffffffffffffffffffffffff16905081600f60006101000a81548173ffffffffffffffffffffffffffffffffffffffff021916908373ffffffffffffffffffffffffffffffffffffffff1602179055508173ffffffffffffffffffffffffffffffffffffffff168173ffffffffffffffffffffffffffffffffffffffff167f8be0079c531659141344cd1fd0a4f28419497f9722a3daafe3b4186f6b6457e060405160405180910390a35050565b612775612f8f565b6001600c60006101000a81548160ff0219169083151502179055507f62e78cea01bee320cd4e420270b5ea74000d11b0c9f74754ebdbfc544b05a2586127b9611ef2565b6040516127c69190614ad5565b60405180910390a1565b60006127df8360000183612fd9565b60001c905092915050565b600081836127f89190615071565b905092915050565b61281a82826040518060200160405280600081525061302a565b5050565b8173ffffffffffffffffffffffffffffffffffffffff168373ffffffffffffffffffffffffffffffffffffffff16141561288d576040517f08c379a000000000000000000000000000000000000000000000000000000000815260040161288490614d34565b60405180910390fd5b80600760008573ffffffffffffffffffffffffffffffffffffffff1673ffffffffffffffffffffffffffffffffffffffff16815260200190815260200160002060008473ffffffffffffffffffffffffffffffffffffffff1673ffffffffffffffffffffffffffffffffffffffff16815260200190815260200160002060006101000a81548160ff0219169083151502179055508173ffffffffffffffffffffffffffffffffffffffff168373ffffffffffffffffffffffffffffffffffffffff167f17307eab39ab6107e8899845ad3d59bd9653f200f220920489ca2b5937696c318360405161297e9190614b3c565b60405180910390a3505050565b61299684848461204f565b6129a284848484613085565b6129e1576040517f08c379a00000000000000000000000000000000000000000000000000000000081526004016129d890614c74565b60405180910390fd5b50505050565b6060600e80546129f69061523f565b80601f0160208091040260200160405190810160405280929190818152602001828054612a229061523f565b8015612a6f5780601f10612a4457610100808354040283529160200191612a6f565b820191906000526020600020905b815481529060010190602001808311612a5257829003601f168201915b5050505050905090565b606060006001612a888461321c565b01905060008167ffffffffffffffff811115612acd577f4e487b7100000000000000000000000000000000000000000000000000000000600052604160045260246000fd5b6040519080825280601f01601f191660200182016040528015612aff5781602001600182028036833780820191505090505b509050600082602001820190505b600115612b92578080600190039150507f3031323334353637383961626364656600000000000000000000000000000000600a86061a8153600a8581612b7c577f4e487b7100000000000000000000000000000000000000000000000000000000600052601260045260246000fd5b0494506000851415612b8d57612b92565b612b0d565b819350505050919050565b6000612bab82600001613453565b9050919050565b6000600760008473ffffffffffffffffffffffffffffffffffffffff1673ffffffffffffffffffffffffffffffffffffffff16815260200190815260200160002060008373ffffffffffffffffffffffffffffffffffffffff1673ffffffffffffffffffffffffffffffffffffffff16815260200190815260200160002060009054906101000a900460ff16905092915050565b6000612c528383613464565b612cab578260000182908060018154018082558091505060019003906000526020600020016000909190919091505582600001805490508360010160008481526020019081526020016000208190555060019050612cb0565b600090505b92915050565b612cc284848484613487565b50505050565b50505050565b60007f80ac58cd000000000000000000000000000000000000000000000000000000007bffffffffffffffffffffffffffffffffffffffffffffffffffffffff1916827bffffffffffffffffffffffffffffffffffffffffffffffffffffffff19161480612d9957507f5b5e139f000000000000000000000000000000000000000000000000000000007bffffffffffffffffffffffffffffffffffffffffffffffffffffffff1916827bffffffffffffffffffffffffffffffffffffffffffffffffffffffff1916145b80612da95750612da8826134e1565b5b9050919050565b612dba828261146b565b612e3157612dc78161355b565b612dd58360001c6020613588565b604051602001612de6929190614a9b565b6040516020818303038152906040526040517f08c379a0000000000000000000000000000000000000000000000000000000008152600401612e289190614b72565b60405180910390fd5b5050565b612e3f828261146b565b15612f1257600080600084815260200190815260200160002060000160008373ffffffffffffffffffffffffffffffffffffffff1673ffffffffffffffffffffffffffffffffffffffff16815260200190815260200160002060006101000a81548160ff021916908315150217905550612eb7611ef2565b73ffffffffffffffffffffffffffffffffffffffff168173ffffffffffffffffffffffffffffffffffffffff16837ff6391f5c32d9c69d2a47ea670b442974b53935d1edc7fd64eb21e047a839171b60405160405180910390a45b5050565b6000612f3e836000018373ffffffffffffffffffffffffffffffffffffffff1660001b613882565b905092915050565b612f4e61119e565b612f8d576040517f08c379a0000000000000000000000000000000000000000000000000000000008152600401612f8490614bf4565b60405180910390fd5b565b612f9761119e565b15612fd7576040517f08c379a0000000000000000000000000000000000000000000000000000000008152600401612fce90614d74565b60405180910390fd5b565b6000826000018281548110613017577f4e487b7100000000000000000000000000000000000000000000000000000000600052603260045260246000fd5b9060005260206000200154905092915050565b6130348383612473565b6130416000848484613085565b613080576040517f08c379a000000000000000000000000000000000000000000000000000000000815260040161307790614c74565b60405180910390fd5b505050565b60006130a68473ffffffffffffffffffffffffffffffffffffffff16613a08565b1561320f578373ffffffffffffffffffffffffffffffffffffffff1663150b7a026130cf611ef2565b8786866040518563ffffffff1660e01b81526004016130f19493929190614af0565b602060405180830381600087803b15801561310b57600080fd5b505af192505050801561313c57506040513d601f19601f820116820180604052508101906131399190614464565b60015b6131bf573d806000811461316c576040519150601f19603f3d011682016040523d82523d6000602084013e613171565b606091505b506000815114156131b7576040517f08c379a00000000000000000000000000000000000000000000000000000000081526004016131ae90614c74565b60405180910390fd5b805181602001fd5b63150b7a0260e01b7bffffffffffffffffffffffffffffffffffffffffffffffffffffffff1916817bffffffffffffffffffffffffffffffffffffffffffffffffffffffff191614915050613214565b600190505b949350505050565b600080600090507a184f03e93ff9f4daa797ed6e38ed64bf6a1f01000000000000000083106132a0577a184f03e93ff9f4daa797ed6e38ed64bf6a1f0100000000000000008381613296577f4e487b7100000000000000000000000000000000000000000000000000000000600052601260045260246000fd5b0492506040810190505b6d04ee2d6d415b85acef81000000008310613303576d04ee2d6d415b85acef810000000083816132f9577f4e487b7100000000000000000000000000000000000000000000000000000000600052601260045260246000fd5b0492506020810190505b662386f26fc10000831061335857662386f26fc10000838161334e577f4e487b7100000000000000000000000000000000000000000000000000000000600052601260045260246000fd5b0492506010810190505b6305f5e10083106133a7576305f5e100838161339d577f4e487b7100000000000000000000000000000000000000000000000000000000600052601260045260246000fd5b0492506008810190505b61271083106133f25761271083816133e8577f4e487b7100000000000000000000000000000000000000000000000000000000600052601260045260246000fd5b0492506004810190505b6064831061343b5760648381613431577f4e487b7100000000000000000000000000000000000000000000000000000000600052601260045260246000fd5b0492506002810190505b600a831061344a576001810190505b80915050919050565b600081600001805490509050919050565b600080836001016000848152602001908152602001600020541415905092915050565b61349384848484613a2b565b61349b61119e565b156134db576040517f08c379a00000000000000000000000000000000000000000000000000000000081526004016134d290614bb4565b60405180910390fd5b50505050565b60007f5a05180f000000000000000000000000000000000000000000000000000000007bffffffffffffffffffffffffffffffffffffffffffffffffffffffff1916827bffffffffffffffffffffffffffffffffffffffffffffffffffffffff19161480613554575061355382613b8b565b5b9050919050565b60606135818273ffffffffffffffffffffffffffffffffffffffff16601460ff16613588565b9050919050565b60606000600283600261359b91906150c7565b6135a59190615071565b67ffffffffffffffff8111156135e4577f4e487b7100000000000000000000000000000000000000000000000000000000600052604160045260246000fd5b6040519080825280601f01601f1916602001820160405280156136165781602001600182028036833780820191505090505b5090507f300000000000000000000000000000000000000000000000000000000000000081600081518110613674577f4e487b7100000000000000000000000000000000000000000000000000000000600052603260045260246000fd5b60200101907effffffffffffffffffffffffffffffffffffffffffffffffffffffffffffff1916908160001a9053507f7800000000000000000000000000000000000000000000000000000000000000816001815181106136fe577f4e487b7100000000000000000000000000000000000000000000000000000000600052603260045260246000fd5b60200101907effffffffffffffffffffffffffffffffffffffffffffffffffffffffffffff1916908160001a9053506000600184600261373e91906150c7565b6137489190615071565b90505b6001811115613834577f3031323334353637383961626364656600000000000000000000000000000000600f8616601081106137b0577f4e487b7100000000000000000000000000000000000000000000000000000000600052603260045260246000fd5b1a60f81b8282815181106137ed577f4e487b7100000000000000000000000000000000000000000000000000000000600052603260045260246000fd5b60200101907effffffffffffffffffffffffffffffffffffffffffffffffffffffffffffff1916908160001a905350600485901c94508061382d90615215565b905061374b565b5060008414613878576040517f08c379a000000000000000000000000000000000000000000000000000000000815260040161386f90614b94565b60405180910390fd5b8091505092915050565b600080836001016000848152602001908152602001600020549050600081146139fc5760006001826138b49190615121565b90506000600186600001805490506138cc9190615121565b9050818114613987576000866000018281548110613913577f4e487b7100000000000000000000000000000000000000000000000000000000600052603260045260246000fd5b906000526020600020015490508087600001848154811061395d577f4e487b7100000000000000000000000000000000000000000000000000000000600052603260045260246000fd5b90600052602060002001819055508387600101600083815260200190815260200160002081905550505b856000018054806139c1577f4e487b7100000000000000000000000000000000000000000000000000000000600052603160045260246000fd5b600190038181906000526020600020016000905590558560010160008681526020019081526020016000206000905560019350505050613a02565b60009150505b92915050565b6000808273ffffffffffffffffffffffffffffffffffffffff163b119050919050565b613a3784848484613c05565b6001811115613a7b576040517f08c379a0000000000000000000000000000000000000000000000000000000008152600401613a7290614ef4565b60405180910390fd5b6000829050600073ffffffffffffffffffffffffffffffffffffffff168573ffffffffffffffffffffffffffffffffffffffff161415613ac357613abe81613d2b565b613b02565b8373ffffffffffffffffffffffffffffffffffffffff168573ffffffffffffffffffffffffffffffffffffffff1614613b0157613b008582613d74565b5b5b600073ffffffffffffffffffffffffffffffffffffffff168473ffffffffffffffffffffffffffffffffffffffff161415613b4557613b4081613ee1565b613b84565b8473ffffffffffffffffffffffffffffffffffffffff168473ffffffffffffffffffffffffffffffffffffffff1614613b8357613b828482614024565b5b5b5050505050565b60007f7965db0b000000000000000000000000000000000000000000000000000000007bffffffffffffffffffffffffffffffffffffffffffffffffffffffff1916827bffffffffffffffffffffffffffffffffffffffffffffffffffffffff19161480613bfe5750613bfd826140a3565b5b9050919050565b6001811115613d2557600073ffffffffffffffffffffffffffffffffffffffff168473ffffffffffffffffffffffffffffffffffffffff1614613c995780600560008673ffffffffffffffffffffffffffffffffffffffff1673ffffffffffffffffffffffffffffffffffffffff1681526020019081526020016000206000828254613c919190615121565b925050819055505b600073ffffffffffffffffffffffffffffffffffffffff168373ffffffffffffffffffffffffffffffffffffffff1614613d245780600560008573ffffffffffffffffffffffffffffffffffffffff1673ffffffffffffffffffffffffffffffffffffffff1681526020019081526020016000206000828254613d1c9190615071565b925050819055505b5b50505050565b600a80549050600b600083815260200190815260200160002081905550600a81908060018154018082558091505060019003906000526020600020016000909190919091505550565b60006001613d81846112cc565b613d8b9190615121565b9050600060096000848152602001908152602001600020549050818114613e70576000600860008673ffffffffffffffffffffffffffffffffffffffff1673ffffffffffffffffffffffffffffffffffffffff168152602001908152602001600020600084815260200190815260200160002054905080600860008773ffffffffffffffffffffffffffffffffffffffff1673ffffffffffffffffffffffffffffffffffffffff168152602001908152602001600020600084815260200190815260200160002081905550816009600083815260200190815260200160002081905550505b6009600084815260200190815260200160002060009055600860008573ffffffffffffffffffffffffffffffffffffffff1673ffffffffffffffffffffffffffffffffffffffff16815260200190815260200160002060008381526020019081526020016000206000905550505050565b60006001600a80549050613ef59190615121565b90506000600b60008481526020019081526020016000205490506000600a8381548110613f4b577f4e487b7100000000000000000000000000000000000000000000000000000000600052603260045260246000fd5b9060005260206000200154905080600a8381548110613f93577f4e487b7100000000000000000000000000000000000000000000000000000000600052603260045260246000fd5b906000526020600020018190555081600b600083815260200190815260200160002081905550600b600085815260200190815260200160002060009055600a805480614008577f4e487b7100000000000000000000000000000000000000000000000000000000600052603160045260246000fd5b6001900381819060005260206000200160009055905550505050565b600061402f836112cc565b905081600860008573ffffffffffffffffffffffffffffffffffffffff1673ffffffffffffffffffffffffffffffffffffffff168152602001908152602001600020600083815260200190815260200160002081905550806009600084815260200190815260200160002081905550505050565b60007f01ffc9a7000000000000000000000000000000000000000000000000000000007bffffffffffffffffffffffffffffffffffffffffffffffffffffffff1916827bffffffffffffffffffffffffffffffffffffffffffffffffffffffff1916149050919050565b600061412061411b84614ffd565b614fd8565b90508281526020810184848401111561413857600080fd5b6141438482856151d3565b509392505050565b60008135905061415a81615ba7565b92915050565b60008135905061416f81615bbe565b92915050565b60008135905061418481615bd5565b92915050565b60008135905061419981615bec565b92915050565b6000815190506141ae81615bec565b92915050565b600082601f8301126141c557600080fd5b81356141d584826020860161410d565b91505092915050565b6000813590506141ed81615c03565b92915050565b60006020828403121561420557600080fd5b60006142138482850161414b565b91505092915050565b6000806040838503121561422f57600080fd5b600061423d8582860161414b565b925050602061424e8582860161414b565b9150509250929050565b60008060006060848603121561426d57600080fd5b600061427b8682870161414b565b935050602061428c8682870161414b565b925050604061429d868287016141de565b9150509250925092565b600080600080608085870312156142bd57600080fd5b60006142cb8782880161414b565b94505060206142dc8782880161414b565b93505060406142ed878288016141de565b925050606085013567ffffffffffffffff81111561430a57600080fd5b614316878288016141b4565b91505092959194509250565b6000806040838503121561433557600080fd5b60006143438582860161414b565b925050602061435485828601614160565b9150509250929050565b6000806040838503121561437157600080fd5b600061437f8582860161414b565b9250506020614390858286016141de565b9150509250929050565b6000602082840312156143ac57600080fd5b60006143ba84828501614175565b91505092915050565b600080604083850312156143d657600080fd5b60006143e485828601614175565b92505060206143f58582860161414b565b9150509250929050565b6000806040838503121561441257600080fd5b600061442085828601614175565b9250506020614431858286016141de565b9150509250929050565b60006020828403121561444d57600080fd5b600061445b8482850161418a565b91505092915050565b60006020828403121561447657600080fd5b60006144848482850161419f565b91505092915050565b60006020828403121561449f57600080fd5b60006144ad848285016141de565b91505092915050565b600080604083850312156144c957600080fd5b60006144d7858286016141de565b92505060206144e88582860161414b565b9150509250929050565b6144fb81615155565b82525050565b61450a81615167565b82525050565b61451981615173565b82525050565b600061452a8261502e565b6145348185615044565b93506145448185602086016151e2565b61454d81615378565b840191505092915050565b600061456382615039565b61456d8185615055565b935061457d8185602086016151e2565b61458681615378565b840191505092915050565b600061459c82615039565b6145a68185615066565b93506145b68185602086016151e2565b80840191505092915050565b60006145cf602083615055565b91506145da82615389565b602082019050919050565b60006145f2602b83615055565b91506145fd826153b2565b604082019050919050565b6000614615605183615055565b915061462082615401565b606082019050919050565b6000614638601483615055565b915061464382615476565b602082019050919050565b600061465b601383615055565b91506146668261549f565b602082019050919050565b600061467e602d83615055565b9150614689826154c8565b604082019050919050565b60006146a1602b83615055565b91506146ac82615517565b604082019050919050565b60006146c4603283615055565b91506146cf82615566565b604082019050919050565b60006146e7602683615055565b91506146f2826155b5565b604082019050919050565b600061470a602583615055565b915061471582615604565b604082019050919050565b600061472d601c83615055565b915061473882615653565b602082019050919050565b6000614750603e83615055565b915061475b8261567c565b604082019050919050565b6000614773602483615055565b915061477e826156cb565b604082019050919050565b6000614796601983615055565b91506147a18261571a565b602082019050919050565b60006147b9600883615055565b91506147c482615743565b602082019050919050565b60006147dc601083615055565b91506147e78261576c565b602082019050919050565b60006147ff601e83615055565b915061480a82615795565b602082019050919050565b6000614822602983615055565b915061482d826157be565b604082019050919050565b6000614845601f83615055565b91506148508261580d565b602082019050919050565b6000614868601783615055565b915061487382615836565b602082019050919050565b600061488b602083615055565b91506148968261585f565b602082019050919050565b60006148ae602083615055565b91506148b982615888565b602082019050919050565b60006148d1600983615055565b91506148dc826158b1565b602082019050919050565b60006148f4601883615055565b91506148ff826158da565b602082019050919050565b6000614917602183615055565b915061492282615903565b604082019050919050565b600061493a603d83615055565b915061494582615952565b604082019050919050565b600061495d602c83615055565b9150614968826159a1565b604082019050919050565b6000614980601783615066565b915061498b826159f0565b601782019050919050565b60006149a3603583615055565b91506149ae82615a19565b604082019050919050565b60006149c6600b83615055565b91506149d182615a68565b602082019050919050565b60006149e9603d83615055565b91506149f482615a91565b604082019050919050565b6000614a0c604083615055565b9150614a1782615ae0565b604082019050919050565b6000614a2f601183615066565b9150614a3a82615b2f565b601182019050919050565b6000614a52602f83615055565b9150614a5d82615b58565b604082019050919050565b614a71816151c9565b82525050565b6000614a838285614591565b9150614a8f8284614591565b91508190509392505050565b6000614aa682614973565b9150614ab28285614591565b9150614abd82614a22565b9150614ac98284614591565b91508190509392505050565b6000602082019050614aea60008301846144f2565b92915050565b6000608082019050614b0560008301876144f2565b614b1260208301866144f2565b614b1f6040830185614a68565b8181036060830152614b31818461451f565b905095945050505050565b6000602082019050614b516000830184614501565b92915050565b6000602082019050614b6c6000830184614510565b92915050565b60006020820190508181036000830152614b8c8184614558565b905092915050565b60006020820190508181036000830152614bad816145c2565b9050919050565b60006020820190508181036000830152614bcd816145e5565b9050919050565b60006020820190508181036000830152614bed81614608565b9050919050565b60006020820190508181036000830152614c0d8161462b565b9050919050565b60006020820190508181036000830152614c2d8161464e565b9050919050565b60006020820190508181036000830152614c4d81614671565b9050919050565b60006020820190508181036000830152614c6d81614694565b9050919050565b60006020820190508181036000830152614c8d816146b7565b9050919050565b60006020820190508181036000830152614cad816146da565b9050919050565b60006020820190508181036000830152614ccd816146fd565b9050919050565b60006020820190508181036000830152614ced81614720565b9050919050565b60006020820190508181036000830152614d0d81614743565b9050919050565b60006020820190508181036000830152614d2d81614766565b9050919050565b60006020820190508181036000830152614d4d81614789565b9050919050565b60006020820190508181036000830152614d6d816147ac565b9050919050565b60006020820190508181036000830152614d8d816147cf565b9050919050565b60006020820190508181036000830152614dad816147f2565b9050919050565b60006020820190508181036000830152614dcd81614815565b9050919050565b60006020820190508181036000830152614ded81614838565b9050919050565b60006020820190508181036000830152614e0d8161485b565b9050919050565b60006020820190508181036000830152614e2d8161487e565b9050919050565b60006020820190508181036000830152614e4d816148a1565b9050919050565b60006020820190508181036000830152614e6d816148c4565b9050919050565b60006020820190508181036000830152614e8d816148e7565b9050919050565b60006020820190508181036000830152614ead8161490a565b9050919050565b60006020820190508181036000830152614ecd8161492d565b9050919050565b60006020820190508181036000830152614eed81614950565b9050919050565b60006020820190508181036000830152614f0d81614996565b9050919050565b60006020820190508181036000830152614f2d816149b9565b9050919050565b60006020820190508181036000830152614f4d816149dc565b9050919050565b60006020820190508181036000830152614f6d816149ff565b9050919050565b60006020820190508181036000830152614f8d81614a45565b9050919050565b6000602082019050614fa96000830184614a68565b92915050565b6000604082019050614fc46000830185614a68565b614fd160208301846144f2565b9392505050565b6000614fe2614ff3565b9050614fee8282615271565b919050565b6000604051905090565b600067ffffffffffffffff82111561501857615017615349565b5b61502182615378565b9050602081019050919050565b600081519050919050565b600081519050919050565b600082825260208201905092915050565b600082825260208201905092915050565b600081905092915050565b600061507c826151c9565b9150615087836151c9565b9250827fffffffffffffffffffffffffffffffffffffffffffffffffffffffffffffffff038211156150bc576150bb6152eb565b5b828201905092915050565b60006150d2826151c9565b91506150dd836151c9565b9250817fffffffffffffffffffffffffffffffffffffffffffffffffffffffffffffffff0483118215151615615116576151156152eb565b5b828202905092915050565b600061512c826151c9565b9150615137836151c9565b92508282101561514a576151496152eb565b5b828203905092915050565b6000615160826151a9565b9050919050565b60008115159050919050565b6000819050919050565b60007fffffffff0000000000000000000000000000000000000000000000000000000082169050919050565b600073ffffffffffffffffffffffffffffffffffffffff82169050919050565b6000819050919050565b82818337600083830152505050565b60005b838110156152005780820151818401526020810190506151e5565b8381111561520f576000848401525b50505050565b6000615220826151c9565b91506000821415615234576152336152eb565b5b600182039050919050565b6000600282049050600182168061525757607f821691505b6020821081141561526b5761526a61531a565b5b50919050565b61527a82615378565b810181811067ffffffffffffffff8211171561529957615298615349565b5b80604052505050565b60006152ad826151c9565b91507fffffffffffffffffffffffffffffffffffffffffffffffffffffffffffffffff8214156152e0576152df6152eb565b5b600182019050919050565b7f4e487b7100000000000000000000000000000000000000000000000000000000600052601160045260246000fd5b7f4e487b7100000000000000000000000000000000000000000000000000000000600052602260045260246000fd5b7f4e487b7100000000000000000000000000000000000000000000000000000000600052604160045260246000fd5b6000601f19601f8301169050919050565b7f537472696e67733a20686578206c656e67746820696e73756666696369656e74600082015250565b7f4552433732315061757361626c653a20746f6b656e207472616e73666572207760008201527f68696c6520706175736564000000000000000000000000000000000000000000602082015250565b7f596f7520646f6e2774206861766520746f6b656e7320696e207468697320706c60008201527f6174666f726d2c2074727920627579696e67206120746f6b656e206f7220776960208201527f746820616e6f746865722077616c6c6574000000000000000000000000000000604082015250565b7f5061757361626c653a206e6f7420706175736564000000000000000000000000600082015250565b7f73616c65206861736e2774207374617274656400000000000000000000000000600082015250565b7f4552433732313a2063616c6c6572206973206e6f7420746f6b656e206f776e6560008201527f72206f7220617070726f76656400000000000000000000000000000000000000602082015250565b7f455243373231456e756d657261626c653a206f776e657220696e646578206f7560008201527f74206f6620626f756e6473000000000000000000000000000000000000000000602082015250565b7f4552433732313a207472616e7366657220746f206e6f6e20455243373231526560008201527f63656976657220696d706c656d656e7465720000000000000000000000000000602082015250565b7f4f776e61626c653a206e6577206f776e657220697320746865207a65726f206160008201527f6464726573730000000000000000000000000000000000000000000000000000602082015250565b7f4552433732313a207472616e736665722066726f6d20696e636f72726563742060008201527f6f776e6572000000000000000000000000000000000000000000000000000000602082015250565b7f4552433732313a20746f6b656e20616c7265616479206d696e74656400000000600082015250565b7f4552433732315072657365744d696e7465725061757365724175746f49643a2060008201527f6d75737420686176652070617573657220726f6c6520746f2070617573650000602082015250565b7f4552433732313a207472616e7366657220746f20746865207a65726f2061646460008201527f7265737300000000000000000000000000000000000000000000000000000000602082015250565b7f4552433732313a20617070726f766520746f2063616c6c657200000000000000600082015250565b7f736f6c64206f7574000000000000000000000000000000000000000000000000600082015250565b7f5061757361626c653a2070617573656400000000000000000000000000000000600082015250565b7f7072696365546f4d696e742068617320746f20626520706f7369746976650000600082015250565b7f4552433732313a2061646472657373207a65726f206973206e6f74206120766160008201527f6c6964206f776e65720000000000000000000000000000000000000000000000602082015250565b7f6f6e6c79206f776e65722063616e2073657420707269636520746f206d697400600082015250565b7f7175616e746974792063616e6e6f74206265207a65726f000000000000000000600082015250565b7f4552433732313a206d696e7420746f20746865207a65726f2061646472657373600082015250565b7f4f776e61626c653a2063616c6c6572206973206e6f7420746865206f776e6572600082015250565b7f6578636565647320330000000000000000000000000000000000000000000000600082015250565b7f4552433732313a20696e76616c696420746f6b656e2049440000000000000000600082015250565b7f4552433732313a20617070726f76616c20746f2063757272656e74206f776e6560008201527f7200000000000000000000000000000000000000000000000000000000000000602082015250565b7f4552433732313a20617070726f76652063616c6c6572206973206e6f7420746f60008201527f6b656e206f776e6572206f7220617070726f76656420666f7220616c6c000000602082015250565b7f455243373231456e756d657261626c653a20676c6f62616c20696e646578206f60008201527f7574206f6620626f756e64730000000000000000000000000000000000000000602082015250565b7f416363657373436f6e74726f6c3a206163636f756e7420000000000000000000600082015250565b7f455243373231456e756d657261626c653a20636f6e736563757469766520747260008201527f616e7366657273206e6f7420737570706f727465640000000000000000000000602082015250565b7f70617920746f206d696e74000000000000000000000000000000000000000000600082015250565b7f4552433732315072657365744d696e7465725061757365724175746f49643a2060008201527f6d7573742068617665206d696e74657220726f6c6520746f206d696e74000000602082015250565b7f4552433732315072657365744d696e7465725061757365724175746f49643a2060008201527f6d75737420686176652070617573657220726f6c6520746f20756e7061757365602082015250565b7f206973206d697373696e6720726f6c6520000000000000000000000000000000600082015250565b7f416363657373436f6e74726f6c3a2063616e206f6e6c792072656e6f756e636560008201527f20726f6c657320666f722073656c660000000000000000000000000000000000602082015250565b615bb081615155565b8114615bbb57600080fd5b50565b615bc781615167565b8114615bd257600080fd5b50565b615bde81615173565b8114615be957600080fd5b50565b615bf58161517d565b8114615c0057600080fd5b50565b615c0c816151c9565b8114615c1757600080fd5b5056fea2646970667358221220d51547b9b7615de22f7d700ca0e6a1677b3a731bb6421ae75d2394e26231afad64736f6c6343000804003368747470733a2f2f6e66742e616c6563747269636f2e776f726b6572732e6465762f",
  "linkReferences": {},
  "deployedLinkReferences": {}
}