{
  "_format": "hh-sol-artifact-1",
  "contractName": "TokenBat",
  "sourceName": "contracts/TokenBat.sol",
  "abi": [
    {
      "inputs": [],
      "stateMutability": "nonpayable",
      "type": "constructor"
    },
    {
      "anonymous": false,
      "inputs": [
        {
          "indexed": true,
          "internalType": "address",
          "name": "owner",
          "type": "address"
        },
        {
          "indexed": true,
          "internalType": "address",
          "name": "approved",
          "type": "address"
        },
        {
          "indexed": true,
          "internalType": "uint256",
          "name": "tokenId",
          "type": "uint256"
        }
      ],
      "name": "Approval",
      "type": "event"
    },
    {
      "anonymous": false,
      "inputs": [
        {
          "indexed": true,
          "internalType": "address",
          "name": "owner",
          "type": "address"
        },
        {
          "indexed": true,
          "internalType": "address",
          "name": "operator",
          "type": "address"
        },
        {
          "indexed": false,
          "internalType": "bool",
          "name": "approved",
          "type": "bool"
        }
      ],
      "name": "ApprovalForAll",
      "type": "event"
    },
    {
      "anonymous": false,
      "inputs": [
        {
          "indexed": false,
          "internalType": "uint256",
          "name": "tokenId",
          "type": "uint256"
        },
        {
          "indexed": false,
          "internalType": "address",
          "name": "owner",
          "type": "address"
        }
      ],
      "name": "Minted",
      "type": "event"
    },
    {
      "anonymous": false,
      "inputs": [
        {
          "indexed": true,
          "internalType": "address",
          "name": "previousOwner",
          "type": "address"
        },
        {
          "indexed": true,
          "internalType": "address",
          "name": "newOwner",
          "type": "address"
        }
      ],
      "name": "OwnershipTransferred",
      "type": "event"
    },
    {
      "anonymous": false,
      "inputs": [
        {
          "indexed": false,
          "internalType": "address",
          "name": "account",
          "type": "address"
        }
      ],
      "name": "Paused",
      "type": "event"
    },
    {
      "anonymous": false,
      "inputs": [
        {
          "indexed": false,
          "internalType": "uint256",
          "name": "tokenId",
          "type": "uint256"
        }
      ],
      "name": "Redeemed",
      "type": "event"
    },
    {
      "anonymous": false,
      "inputs": [
        {
          "indexed": true,
          "internalType": "bytes32",
          "name": "role",
          "type": "bytes32"
        },
        {
          "indexed": true,
          "internalType": "bytes32",
          "name": "previousAdminRole",
          "type": "bytes32"
        },
        {
          "indexed": true,
          "internalType": "bytes32",
          "name": "newAdminRole",
          "type": "bytes32"
        }
      ],
      "name": "RoleAdminChanged",
      "type": "event"
    },
    {
      "anonymous": false,
      "inputs": [
        {
          "indexed": true,
          "internalType": "bytes32",
          "name": "role",
          "type": "bytes32"
        },
        {
          "indexed": true,
          "internalType": "address",
          "name": "account",
          "type": "address"
        },
        {
          "indexed": true,
          "internalType": "address",
          "name": "sender",
          "type": "address"
        }
      ],
      "name": "RoleGranted",
      "type": "event"
    },
    {
      "anonymous": false,
      "inputs": [
        {
          "indexed": true,
          "internalType": "bytes32",
          "name": "role",
          "type": "bytes32"
        },
        {
          "indexed": true,
          "internalType": "address",
          "name": "account",
          "type": "address"
        },
        {
          "indexed": true,
          "internalType": "address",
          "name": "sender",
          "type": "address"
        }
      ],
      "name": "RoleRevoked",
      "type": "event"
    },
    {
      "anonymous": false,
      "inputs": [
        {
          "indexed": true,
          "internalType": "address",
          "name": "from",
          "type": "address"
        },
        {
          "indexed": true,
          "internalType": "address",
          "name": "to",
          "type": "address"
        },
        {
          "indexed": true,
          "internalType": "uint256",
          "name": "tokenId",
          "type": "uint256"
        }
      ],
      "name": "Transfer",
      "type": "event"
    },
    {
      "anonymous": false,
      "inputs": [
        {
          "indexed": false,
          "internalType": "address",
          "name": "account",
          "type": "address"
        }
      ],
      "name": "Unpaused",
      "type": "event"
    },
    {
      "anonymous": false,
      "inputs": [],
      "name": "Withdrawed",
      "type": "event"
    },
    {
      "inputs": [],
      "name": "DEFAULT_ADMIN_ROLE",
      "outputs": [
        {
          "internalType": "bytes32",
          "name": "",
          "type": "bytes32"
        }
      ],
      "stateMutability": "view",
      "type": "function"
    },
    {
      "inputs": [],
      "name": "MAX_TOKENS",
      "outputs": [
        {
          "internalType": "uint256",
          "name": "",
          "type": "uint256"
        }
      ],
      "stateMutability": "view",
      "type": "function"
    },
    {
      "inputs": [],
      "name": "MINTER_ROLE",
      "outputs": [
        {
          "internalType": "bytes32",
          "name": "",
          "type": "bytes32"
        }
      ],
      "stateMutability": "view",
      "type": "function"
    },
    {
      "inputs": [],
      "name": "PAUSER_ROLE",
      "outputs": [
        {
          "internalType": "bytes32",
          "name": "",
          "type": "bytes32"
        }
      ],
      "stateMutability": "view",
      "type": "function"
    },
    {
      "inputs": [
        {
          "internalType": "address",
          "name": "to",
          "type": "address"
        },
        {
          "internalType": "uint256",
          "name": "tokenId",
          "type": "uint256"
        }
      ],
      "name": "approve",
      "outputs": [],
      "stateMutability": "nonpayable",
      "type": "function"
    },
    {
      "inputs": [
        {
          "internalType": "address",
          "name": "owner",
          "type": "address"
        }
      ],
      "name": "balanceOf",
      "outputs": [
        {
          "internalType": "uint256",
          "name": "",
          "type": "uint256"
        }
      ],
      "stateMutability": "view",
      "type": "function"
    },
    {
      "inputs": [
        {
          "internalType": "uint256",
          "name": "tokenId",
          "type": "uint256"
        }
      ],
      "name": "burn",
      "outputs": [],
      "stateMutability": "nonpayable",
      "type": "function"
    },
    {
      "inputs": [
        {
          "internalType": "uint256",
          "name": "tokenId",
          "type": "uint256"
        }
      ],
      "name": "getApproved",
      "outputs": [
        {
          "internalType": "address",
          "name": "",
          "type": "address"
        }
      ],
      "stateMutability": "view",
      "type": "function"
    },
    {
      "inputs": [
        {
          "internalType": "bytes32",
          "name": "role",
          "type": "bytes32"
        }
      ],
      "name": "getRoleAdmin",
      "outputs": [
        {
          "internalType": "bytes32",
          "name": "",
          "type": "bytes32"
        }
      ],
      "stateMutability": "view",
      "type": "function"
    },
    {
      "inputs": [
        {
          "internalType": "bytes32",
          "name": "role",
          "type": "bytes32"
        },
        {
          "internalType": "uint256",
          "name": "index",
          "type": "uint256"
        }
      ],
      "name": "getRoleMember",
      "outputs": [
        {
          "internalType": "address",
          "name": "",
          "type": "address"
        }
      ],
      "stateMutability": "view",
      "type": "function"
    },
    {
      "inputs": [
        {
          "internalType": "bytes32",
          "name": "role",
          "type": "bytes32"
        }
      ],
      "name": "getRoleMemberCount",
      "outputs": [
        {
          "internalType": "uint256",
          "name": "",
          "type": "uint256"
        }
      ],
      "stateMutability": "view",
      "type": "function"
    },
    {
      "inputs": [
        {
          "internalType": "bytes32",
          "name": "role",
          "type": "bytes32"
        },
        {
          "internalType": "address",
          "name": "account",
          "type": "address"
        }
      ],
      "name": "grantRole",
      "outputs": [],
      "stateMutability": "nonpayable",
      "type": "function"
    },
    {
      "inputs": [
        {
          "internalType": "bytes32",
          "name": "role",
          "type": "bytes32"
        },
        {
          "internalType": "address",
          "name": "account",
          "type": "address"
        }
      ],
      "name": "hasRole",
      "outputs": [
        {
          "internalType": "bool",
          "name": "",
          "type": "bool"
        }
      ],
      "stateMutability": "view",
      "type": "function"
    },
    {
      "inputs": [],
      "name": "hasSaleStarted",
      "outputs": [
        {
          "internalType": "bool",
          "name": "",
          "type": "bool"
        }
      ],
      "stateMutability": "view",
      "type": "function"
    },
    {
      "inputs": [],
      "name": "hasSoldOut",
      "outputs": [
        {
          "internalType": "bool",
          "name": "",
          "type": "bool"
        }
      ],
      "stateMutability": "view",
      "type": "function"
    },
    {
      "inputs": [
        {
          "internalType": "address",
          "name": "_owner",
          "type": "address"
        },
        {
          "internalType": "address",
          "name": "_operator",
          "type": "address"
        }
      ],
      "name": "isApprovedForAll",
      "outputs": [
        {
          "internalType": "bool",
          "name": "isOperator",
          "type": "bool"
        }
      ],
      "stateMutability": "view",
      "type": "function"
    },
    {
      "inputs": [
        {
          "internalType": "address",
          "name": "to",
          "type": "address"
        }
      ],
      "name": "mint",
      "outputs": [],
      "stateMutability": "nonpayable",
      "type": "function"
    },
    {
      "inputs": [
        {
          "internalType": "address",
          "name": "receiver",
          "type": "address"
        }
      ],
      "name": "mintToken",
      "outputs": [],
      "stateMutability": "payable",
      "type": "function"
    },
    {
      "inputs": [],
      "name": "name",
      "outputs": [
        {
          "internalType": "string",
          "name": "",
          "type": "string"
        }
      ],
      "stateMutability": "view",
      "type": "function"
    },
    {
      "inputs": [],
      "name": "owner",
      "outputs": [
        {
          "internalType": "address",
          "name": "",
          "type": "address"
        }
      ],
      "stateMutability": "view",
      "type": "function"
    },
    {
      "inputs": [
        {
          "internalType": "uint256",
          "name": "tokenId",
          "type": "uint256"
        }
      ],
      "name": "ownerOf",
      "outputs": [
        {
          "internalType": "address",
          "name": "",
          "type": "address"
        }
      ],
      "stateMutability": "view",
      "type": "function"
    },
    {
      "inputs": [],
      "name": "pause",
      "outputs": [],
      "stateMutability": "nonpayable",
      "type": "function"
    },
    {
      "inputs": [],
      "name": "pauseSale",
      "outputs": [],
      "stateMutability": "nonpayable",
      "type": "function"
    },
    {
      "inputs": [],
      "name": "paused",
      "outputs": [
        {
          "internalType": "bool",
          "name": "",
          "type": "bool"
        }
      ],
      "stateMutability": "view",
      "type": "function"
    },
    {
      "inputs": [],
      "name": "priceToMint",
      "outputs": [
        {
          "internalType": "uint256",
          "name": "",
          "type": "uint256"
        }
      ],
      "stateMutability": "view",
      "type": "function"
    },
    {
      "inputs": [
        {
          "internalType": "uint256",
          "name": "tokenId",
          "type": "uint256"
        }
      ],
      "name": "redeemToken",
      "outputs": [],
      "stateMutability": "nonpayable",
      "type": "function"
    },
    {
      "inputs": [],
      "name": "renounceOwnership",
      "outputs": [],
      "stateMutability": "nonpayable",
      "type": "function"
    },
    {
      "inputs": [
        {
          "internalType": "bytes32",
          "name": "role",
          "type": "bytes32"
        },
        {
          "internalType": "address",
          "name": "account",
          "type": "address"
        }
      ],
      "name": "renounceRole",
      "outputs": [],
      "stateMutability": "nonpayable",
      "type": "function"
    },
    {
      "inputs": [
        {
          "internalType": "bytes32",
          "name": "role",
          "type": "bytes32"
        },
        {
          "internalType": "address",
          "name": "account",
          "type": "address"
        }
      ],
      "name": "revokeRole",
      "outputs": [],
      "stateMutability": "nonpayable",
      "type": "function"
    },
    {
      "inputs": [
        {
          "internalType": "address",
          "name": "from",
          "type": "address"
        },
        {
          "internalType": "address",
          "name": "to",
          "type": "address"
        },
        {
          "internalType": "uint256",
          "name": "tokenId",
          "type": "uint256"
        }
      ],
      "name": "safeTransferFrom",
      "outputs": [],
      "stateMutability": "nonpayable",
      "type": "function"
    },
    {
      "inputs": [
        {
          "internalType": "address",
          "name": "from",
          "type": "address"
        },
        {
          "internalType": "address",
          "name": "to",
          "type": "address"
        },
        {
          "internalType": "uint256",
          "name": "tokenId",
          "type": "uint256"
        },
        {
          "internalType": "bytes",
          "name": "data",
          "type": "bytes"
        }
      ],
      "name": "safeTransferFrom",
      "outputs": [],
      "stateMutability": "nonpayable",
      "type": "function"
    },
    {
      "inputs": [
        {
          "internalType": "address",
          "name": "operator",
          "type": "address"
        },
        {
          "internalType": "bool",
          "name": "approved",
          "type": "bool"
        }
      ],
      "name": "setApprovalForAll",
      "outputs": [],
      "stateMutability": "nonpayable",
      "type": "function"
    },
    {
      "inputs": [
        {
          "internalType": "uint256",
          "name": "_priceToMint",
          "type": "uint256"
        }
      ],
      "name": "setPriceToMint",
      "outputs": [],
      "stateMutability": "nonpayable",
      "type": "function"
    },
    {
      "inputs": [],
      "name": "startSale",
      "outputs": [],
      "stateMutability": "nonpayable",
      "type": "function"
    },
    {
      "inputs": [
        {
          "internalType": "bytes4",
          "name": "interfaceId",
          "type": "bytes4"
        }
      ],
      "name": "supportsInterface",
      "outputs": [
        {
          "internalType": "bool",
          "name": "",
          "type": "bool"
        }
      ],
      "stateMutability": "view",
      "type": "function"
    },
    {
      "inputs": [],
      "name": "symbol",
      "outputs": [
        {
          "internalType": "string",
          "name": "",
          "type": "string"
        }
      ],
      "stateMutability": "view",
      "type": "function"
    },
    {
      "inputs": [
        {
          "internalType": "uint256",
          "name": "index",
          "type": "uint256"
        }
      ],
      "name": "tokenByIndex",
      "outputs": [
        {
          "internalType": "uint256",
          "name": "",
          "type": "uint256"
        }
      ],
      "stateMutability": "view",
      "type": "function"
    },
    {
      "inputs": [
        {
          "internalType": "uint256",
          "name": "tokenId",
          "type": "uint256"
        }
      ],
      "name": "tokenExists",
      "outputs": [
        {
          "internalType": "bool",
          "name": "",
          "type": "bool"
        }
      ],
      "stateMutability": "view",
      "type": "function"
    },
    {
      "inputs": [
        {
          "internalType": "address",
          "name": "owner",
          "type": "address"
        },
        {
          "internalType": "uint256",
          "name": "index",
          "type": "uint256"
        }
      ],
      "name": "tokenOfOwnerByIndex",
      "outputs": [
        {
          "internalType": "uint256",
          "name": "",
          "type": "uint256"
        }
      ],
      "stateMutability": "view",
      "type": "function"
    },
    {
      "inputs": [
        {
          "internalType": "uint256",
          "name": "tokenId",
          "type": "uint256"
        }
      ],
      "name": "tokenURI",
      "outputs": [
        {
          "internalType": "string",
          "name": "",
          "type": "string"
        }
      ],
      "stateMutability": "view",
      "type": "function"
    },
    {
      "inputs": [],
      "name": "totalSupply",
      "outputs": [
        {
          "internalType": "uint256",
          "name": "",
          "type": "uint256"
        }
      ],
      "stateMutability": "view",
      "type": "function"
    },
    {
      "inputs": [
        {
          "internalType": "address",
          "name": "from",
          "type": "address"
        },
        {
          "internalType": "address",
          "name": "to",
          "type": "address"
        },
        {
          "internalType": "uint256",
          "name": "tokenId",
          "type": "uint256"
        }
      ],
      "name": "transferFrom",
      "outputs": [],
      "stateMutability": "nonpayable",
      "type": "function"
    },
    {
      "inputs": [
        {
          "internalType": "address",
          "name": "newOwner",
          "type": "address"
        }
      ],
      "name": "transferOwnership",
      "outputs": [],
      "stateMutability": "nonpayable",
      "type": "function"
    },
    {
      "inputs": [],
      "name": "unpause",
      "outputs": [],
      "stateMutability": "nonpayable",
      "type": "function"
    },
    {
      "inputs": [],
      "name": "withdrawBalance",
      "outputs": [
        {
          "internalType": "bool",
          "name": "",
          "type": "bool"
        }
      ],
      "stateMutability": "nonpayable",
      "type": "function"
    }
  ],
  "bytecode": "0x60806040526000600f60146101000a81548160ff0219169083151502179055506000601260006101000a81548160ff0219169083151502179055503480156200004757600080fd5b506040518060400160405280600881526020017f546f6b656e4261740000000000000000000000000000000000000000000000008152506040518060400160405280600881526020017f546f6b656e4261740000000000000000000000000000000000000000000000008152506040518060600160405280602281526020016200654a6022913982828160029080519060200190620000e89291906200062a565b508060039080519060200190620001019291906200062a565b5050506000600c60006101000a81548160ff02191690831515021790555080600e9080519060200190620001379291906200062a565b506200015c6000801b620001506200020760201b60201c565b6200022360201b60201c565b6200019d7f9f2df0fed2c77648de5860a4cc508cd0818c85b8b8a1ab4ceeef8d981c8956a6620001916200020760201b60201c565b6200022360201b60201c565b620001de7f65d7a28e3265b37a6474929f336521b332c1681b933f6cb9f3376673440d862a620001d26200020760201b60201c565b6200022360201b60201c565b50505062000201620001f56200020760201b60201c565b6200023960201b60201c565b6200073f565b60006200021e620002ff60201b62001bc91760201c565b905090565b620002358282620003b260201b60201c565b5050565b6000600f60009054906101000a900473ffffffffffffffffffffffffffffffffffffffff16905081600f60006101000a81548173ffffffffffffffffffffffffffffffffffffffff021916908373ffffffffffffffffffffffffffffffffffffffff1602179055508173ffffffffffffffffffffffffffffffffffffffff168173ffffffffffffffffffffffffffffffffffffffff167f8be0079c531659141344cd1fd0a4f28419497f9722a3daafe3b4186f6b6457e060405160405180910390a35050565b60003073ffffffffffffffffffffffffffffffffffffffff163373ffffffffffffffffffffffffffffffffffffffff161415620003ab57600080368080601f016020809104026020016040519081016040528093929190818152602001838380828437600081840152601f19601f820116905080830192505050505050509050600080369050905073ffffffffffffffffffffffffffffffffffffffff818301511692505050620003af565b3390505b90565b620003c98282620003fa60201b62001c7a1760201c565b620003f58160016000858152602001908152602001600020620004eb60201b62001d5a1790919060201c565b505050565b6200040c82826200052360201b60201c565b620004e757600160008084815260200190815260200160002060000160008373ffffffffffffffffffffffffffffffffffffffff1673ffffffffffffffffffffffffffffffffffffffff16815260200190815260200160002060006101000a81548160ff0219169083151502179055506200048c6200020760201b60201c565b73ffffffffffffffffffffffffffffffffffffffff168173ffffffffffffffffffffffffffffffffffffffff16837f2f8788117e7eff1d82e926ec794901d17c78024a50270940304540a733656f0d60405160405180910390a45b5050565b60006200051b836000018373ffffffffffffffffffffffffffffffffffffffff1660001b6200058d60201b60201c565b905092915050565b600080600084815260200190815260200160002060000160008373ffffffffffffffffffffffffffffffffffffffff1673ffffffffffffffffffffffffffffffffffffffff16815260200190815260200160002060009054906101000a900460ff16905092915050565b6000620005a183836200060760201b60201c565b620005fc57826000018290806001815401808255809150506001900390600052602060002001600090919091909150558260000180549050836001016000848152602001908152602001600020819055506001905062000601565b600090505b92915050565b600080836001016000848152602001908152602001600020541415905092915050565b8280546200063890620006da565b90600052602060002090601f0160209004810192826200065c5760008555620006a8565b82601f106200067757805160ff1916838001178555620006a8565b82800160010185558215620006a8579182015b82811115620006a75782518255916020019190600101906200068a565b5b509050620006b79190620006bb565b5090565b5b80821115620006d6576000816000905550600101620006bc565b5090565b60006002820490506001821680620006f357607f821691505b602082108114156200070a576200070962000710565b5b50919050565b7f4e487b7100000000000000000000000000000000000000000000000000000000600052602260045260246000fd5b615dfb806200074f6000396000f3fe6080604052600436106102715760003560e01c80635c975abb1161014f578063a217fddf116100c1578063d53913931161007a578063d539139314610952578063d547741f1461097d578063e63ab1e9146109a6578063e985e9c5146109d1578063f2fde38b14610a0e578063f47c84c514610a3757610271565b8063a217fddf14610844578063a22cb4651461086f578063b66a0e5d14610898578063b88d4fde146108af578063c87b56dd146108d8578063ca15c8731461091557610271565b8063715018a611610113578063715018a6146107465780638456cb591461075d5780638da5cb5b146107745780639010d07c1461079f57806391d14854146107dc57806395d89b411461081957610271565b80635c975abb1461064d5780635fd8c710146106785780636352211e146106a35780636a627842146106e057806370a082311461070957610271565b8063248a9ca3116101e85780633f4ba83a116101ac5780633f4ba83a1461056557806342842e0e1461057c57806342966c68146105a55780634dc1dbec146105ce5780634f6ccce7146105f957806355367ba91461063657610271565b8063248a9ca31461047057806329e0a2ac146104ad5780632f2ff15d146104d65780632f745c59146104ff57806336568abe1461053c57610271565b806306fdde031161023a57806306fdde0314610360578063081812fc1461038b578063095ea7b3146103c857806318160ddd146103f15780631c8b232d1461041c57806323b872dd1461044757610271565b8062923f9e1461027657806301173a74146102b3578063013054c2146102cf57806301ffc9a7146102f857806303824f7614610335575b600080fd5b34801561028257600080fd5b5061029d600480360381019061029891906145f7565b610a62565b6040516102aa9190614cc5565b60405180910390f35b6102cd60048036038101906102c8919061435d565b610a74565b005b3480156102db57600080fd5b506102f660048036038101906102f191906145f7565b610c4a565b005b34801561030457600080fd5b5061031f600480360381019061031a91906145a5565b610d4b565b60405161032c9190614cc5565b60405180910390f35b34801561034157600080fd5b5061034a610d5d565b6040516103579190614cc5565b60405180910390f35b34801561036c57600080fd5b50610375610d7f565b6040516103829190614cfb565b60405180910390f35b34801561039757600080fd5b506103b260048036038101906103ad91906145f7565b610e11565b6040516103bf9190614c5e565b60405180910390f35b3480156103d457600080fd5b506103ef60048036038101906103ea91906144c8565b610e57565b005b3480156103fd57600080fd5b50610406610f6f565b604051610413919061513d565b60405180910390f35b34801561042857600080fd5b50610431610f7c565b60405161043e9190614cc5565b60405180910390f35b34801561045357600080fd5b5061046e600480360381019061046991906143c2565b610f8f565b005b34801561047c57600080fd5b5061049760048036038101906104929190614504565b610fef565b6040516104a49190614ce0565b60405180910390f35b3480156104b957600080fd5b506104d460048036038101906104cf91906145f7565b61100e565b005b3480156104e257600080fd5b506104fd60048036038101906104f8919061452d565b6110d8565b005b34801561050b57600080fd5b50610526600480360381019061052191906144c8565b6110f9565b604051610533919061513d565b60405180910390f35b34801561054857600080fd5b50610563600480360381019061055e919061452d565b61119e565b005b34801561057157600080fd5b5061057a611221565b005b34801561058857600080fd5b506105a3600480360381019061059e91906143c2565b61129b565b005b3480156105b157600080fd5b506105cc60048036038101906105c791906145f7565b6112bb565b005b3480156105da57600080fd5b506105e3611317565b6040516105f0919061513d565b60405180910390f35b34801561060557600080fd5b50610620600480360381019061061b91906145f7565b61131d565b60405161062d919061513d565b60405180910390f35b34801561064257600080fd5b5061064b6113b4565b005b34801561065957600080fd5b506106626113d9565b60405161066f9190614cc5565b60405180910390f35b34801561068457600080fd5b5061068d6113f0565b60405161069a9190614cc5565b60405180910390f35b3480156106af57600080fd5b506106ca60048036038101906106c591906145f7565b61158f565b6040516106d79190614c5e565b60405180910390f35b3480156106ec57600080fd5b506107076004803603810190610702919061435d565b611616565b005b34801561071557600080fd5b50610730600480360381019061072b919061435d565b6116a6565b60405161073d919061513d565b60405180910390f35b34801561075257600080fd5b5061075b61175e565b005b34801561076957600080fd5b50610772611772565b005b34801561078057600080fd5b506107896117ec565b6040516107969190614c5e565b60405180910390f35b3480156107ab57600080fd5b506107c660048036038101906107c19190614569565b611816565b6040516107d39190614c5e565b60405180910390f35b3480156107e857600080fd5b5061080360048036038101906107fe919061452d565b611845565b6040516108109190614cc5565b60405180910390f35b34801561082557600080fd5b5061082e6118af565b60405161083b9190614cfb565b60405180910390f35b34801561085057600080fd5b50610859611941565b6040516108669190614ce0565b60405180910390f35b34801561087b57600080fd5b506108966004803603810190610891919061448c565b611948565b005b3480156108a457600080fd5b506108ad61195e565b005b3480156108bb57600080fd5b506108d660048036038101906108d19190614411565b611983565b005b3480156108e457600080fd5b506108ff60048036038101906108fa91906145f7565b6119e5565b60405161090c9190614cfb565b60405180910390f35b34801561092157600080fd5b5061093c60048036038101906109379190614504565b611a4d565b604051610949919061513d565b60405180910390f35b34801561095e57600080fd5b50610967611a71565b6040516109749190614ce0565b60405180910390f35b34801561098957600080fd5b506109a4600480360381019061099f919061452d565b611a95565b005b3480156109b257600080fd5b506109bb611ab6565b6040516109c89190614ce0565b60405180910390f35b3480156109dd57600080fd5b506109f860048036038101906109f39190614386565b611ada565b604051610a059190614cc5565b60405180910390f35b348015610a1a57600080fd5b50610a356004803603810190610a30919061435d565b611b40565b005b348015610a4357600080fd5b50610a4c611bc4565b604051610a59919061513d565b60405180910390f35b6000610a6d82611d8a565b9050919050565b601260009054906101000a900460ff1680610ac15750610a926117ec565b73ffffffffffffffffffffffffffffffffffffffff163373ffffffffffffffffffffffffffffffffffffffff16145b610b00576040517f08c379a0000000000000000000000000000000000000000000000000000000008152600401610af790614d7d565b60405180910390fd5b6040610b1d6001610b0f610f6f565b611dcb90919063ffffffff16565b111580610b5c5750610b2d6117ec565b73ffffffffffffffffffffffffffffffffffffffff163373ffffffffffffffffffffffffffffffffffffffff16145b610b9b576040517f08c379a0000000000000000000000000000000000000000000000000000000008152600401610b9290614edd565b60405180910390fd5b60115434148015610bac5750600034115b610beb576040517f08c379a0000000000000000000000000000000000000000000000000000000008152600401610be29061509d565b60405180910390fd5b6000610bf76010611de1565b9050610c038282611def565b610c0d6010611e0d565b7fb9203d657e9c0ec8274c818292ab0f58b04e1970050716891770eb1bab5d655e8183604051610c3e929190615158565b60405180910390a15050565b610c5381611d8a565b610c92576040517f08c379a0000000000000000000000000000000000000000000000000000000008152600401610c8990614f9d565b60405180910390fd5b3373ffffffffffffffffffffffffffffffffffffffff16610cb28261158f565b73ffffffffffffffffffffffffffffffffffffffff1614610d08576040517f08c379a0000000000000000000000000000000000000000000000000000000008152600401610cff90614ebd565b60405180910390fd5b610d1181611e23565b7f82498456531a1065f689ba348ce20bda781238c424cf36748dd40bc282831e0381604051610d40919061513d565b60405180910390a150565b6000610d5682611f71565b9050919050565b60006040610d69610f6f565b10610d775760019050610d7c565b600090505b90565b606060028054610d8e90615424565b80601f0160208091040260200160405190810160405280929190818152602001828054610dba90615424565b8015610e075780601f10610ddc57610100808354040283529160200191610e07565b820191906000526020600020905b815481529060010190602001808311610dea57829003601f168201915b5050505050905090565b6000610e1c82611feb565b6006600083815260200190815260200160002060009054906101000a900473ffffffffffffffffffffffffffffffffffffffff169050919050565b6000610e628261158f565b90508073ffffffffffffffffffffffffffffffffffffffff168373ffffffffffffffffffffffffffffffffffffffff161415610ed3576040517f08c379a0000000000000000000000000000000000000000000000000000000008152600401610eca90614ffd565b60405180910390fd5b8073ffffffffffffffffffffffffffffffffffffffff16610ef2612036565b73ffffffffffffffffffffffffffffffffffffffff161480610f215750610f2081610f1b612036565b611ada565b5b610f60576040517f08c379a0000000000000000000000000000000000000000000000000000000008152600401610f579061503d565b60405180910390fd5b610f6a8383612045565b505050565b6000600a80549050905090565b601260009054906101000a900460ff1681565b610fa0610f9a612036565b826120fe565b610fdf576040517f08c379a0000000000000000000000000000000000000000000000000000000008152600401610fd690614d9d565b60405180910390fd5b610fea838383612193565b505050565b6000806000838152602001908152602001600020600101549050919050565b61101661248d565b61101e6117ec565b73ffffffffffffffffffffffffffffffffffffffff163373ffffffffffffffffffffffffffffffffffffffff161461108b576040517f08c379a000000000000000000000000000000000000000000000000000000000815260040161108290614f5d565b60405180910390fd5b600081116110ce576040517f08c379a00000000000000000000000000000000000000000000000000000000081526004016110c590614f1d565b60405180910390fd5b8060118190555050565b6110e182610fef565b6110ea8161250b565b6110f4838361251f565b505050565b6000611104836116a6565b8210611145576040517f08c379a000000000000000000000000000000000000000000000000000000000815260040161113c90614dbd565b60405180910390fd5b600860008473ffffffffffffffffffffffffffffffffffffffff1673ffffffffffffffffffffffffffffffffffffffff168152602001908152602001600020600083815260200190815260200160002054905092915050565b6111a6612036565b73ffffffffffffffffffffffffffffffffffffffff168173ffffffffffffffffffffffffffffffffffffffff1614611213576040517f08c379a000000000000000000000000000000000000000000000000000000000815260040161120a9061511d565b60405180910390fd5b61121d8282612553565b5050565b6112527f65d7a28e3265b37a6474929f336521b332c1681b933f6cb9f3376673440d862a61124d612036565b611845565b611291576040517f08c379a0000000000000000000000000000000000000000000000000000000008152600401611288906150fd565b60405180910390fd5b611299612587565b565b6112b683838360405180602001604052806000815250611983565b505050565b6112cc6112c6612036565b826120fe565b61130b576040517f08c379a000000000000000000000000000000000000000000000000000000000815260040161130290614d9d565b60405180910390fd5b61131481611e23565b50565b60115481565b6000611327610f6f565b8210611368576040517f08c379a000000000000000000000000000000000000000000000000000000000815260040161135f9061505d565b60405180910390fd5b600a82815481106113a2577f4e487b7100000000000000000000000000000000000000000000000000000000600052603260045260246000fd5b90600052602060002001549050919050565b6113bc61248d565b6000601260006101000a81548160ff021916908315150217905550565b6000600c60009054906101000a900460ff16905090565b60006113fa61248d565b600f60149054906101000a900460ff161561144a576040517f08c379a0000000000000000000000000000000000000000000000000000000008152600401611441906150dd565b60405180910390fd5b6001600f60146101000a81548160ff02191690831515021790555060006064600a4761147691906152ac565b611480919061527b565b4761148b9190615306565b905060006114976117ec565b73ffffffffffffffffffffffffffffffffffffffff16826040516114ba90614c0f565b60006040518083038185875af1925050503d80600081146114f7576040519150601f19603f3d011682016040523d82523d6000602084013e6114fc565b606091505b5050905080611540576040517f08c379a00000000000000000000000000000000000000000000000000000000081526004016115379061501d565b60405180910390fd5b6000600f60146101000a81548160ff0219169083151502179055507f1f8de402f5572faa5e496296dbe794e30636a7eab42748738c7cf85de6d2b9a960405160405180910390a1809250505090565b60008061159b836125ea565b9050600073ffffffffffffffffffffffffffffffffffffffff168173ffffffffffffffffffffffffffffffffffffffff16141561160d576040517f08c379a000000000000000000000000000000000000000000000000000000000815260040161160490614fdd565b60405180910390fd5b80915050919050565b6116477f9f2df0fed2c77648de5860a4cc508cd0818c85b8b8a1ab4ceeef8d981c8956a6611642612036565b611845565b611686576040517f08c379a000000000000000000000000000000000000000000000000000000000815260040161167d906150bd565b60405180910390fd5b61169981611694600d611de1565b612627565b6116a3600d611e0d565b50565b60008073ffffffffffffffffffffffffffffffffffffffff168273ffffffffffffffffffffffffffffffffffffffff161415611717576040517f08c379a000000000000000000000000000000000000000000000000000000000815260040161170e90614f3d565b60405180910390fd5b600560008373ffffffffffffffffffffffffffffffffffffffff1673ffffffffffffffffffffffffffffffffffffffff168152602001908152602001600020549050919050565b61176661248d565b6117706000612845565b565b6117a37f65d7a28e3265b37a6474929f336521b332c1681b933f6cb9f3376673440d862a61179e612036565b611845565b6117e2576040517f08c379a00000000000000000000000000000000000000000000000000000000081526004016117d990614e5d565b60405180910390fd5b6117ea61290b565b565b6000600f60009054906101000a900473ffffffffffffffffffffffffffffffffffffffff16905090565b600061183d826001600086815260200190815260200160002061296e90919063ffffffff16565b905092915050565b600080600084815260200190815260200160002060000160008373ffffffffffffffffffffffffffffffffffffffff1673ffffffffffffffffffffffffffffffffffffffff16815260200190815260200160002060009054906101000a900460ff16905092915050565b6060600380546118be90615424565b80601f01602080910402602001604051908101604052809291908181526020018280546118ea90615424565b80156119375780601f1061190c57610100808354040283529160200191611937565b820191906000526020600020905b81548152906001019060200180831161191a57829003601f168201915b5050505050905090565b6000801b81565b61195a611953612036565b8383612988565b5050565b61196661248d565b6001601260006101000a81548160ff021916908315150217905550565b61199461198e612036565b836120fe565b6119d3576040517f08c379a00000000000000000000000000000000000000000000000000000000081526004016119ca90614d9d565b60405180910390fd5b6119df84848484612af5565b50505050565b60606119f082611feb565b60006119fa612b51565b90506000815111611a1a5760405180602001604052806000815250611a45565b80611a2484612be3565b604051602001611a35929190614beb565b6040516020818303038152906040525b915050919050565b6000611a6a60016000848152602001908152602001600020612d07565b9050919050565b7f9f2df0fed2c77648de5860a4cc508cd0818c85b8b8a1ab4ceeef8d981c8956a681565b611a9e82610fef565b611aa78161250b565b611ab18383612553565b505050565b7f65d7a28e3265b37a6474929f336521b332c1681b933f6cb9f3376673440d862a81565b60007358807bad0b376efc12f5ad86aac70e78ed67deae73ffffffffffffffffffffffffffffffffffffffff168273ffffffffffffffffffffffffffffffffffffffff161415611b2d5760019050611b3a565b611b378383612d1c565b90505b92915050565b611b4861248d565b600073ffffffffffffffffffffffffffffffffffffffff168173ffffffffffffffffffffffffffffffffffffffff161415611bb8576040517f08c379a0000000000000000000000000000000000000000000000000000000008152600401611baf90614dfd565b60405180910390fd5b611bc181612845565b50565b604081565b60003073ffffffffffffffffffffffffffffffffffffffff163373ffffffffffffffffffffffffffffffffffffffff161415611c7357600080368080601f016020809104026020016040519081016040528093929190818152602001838380828437600081840152601f19601f820116905080830192505050505050509050600080369050905073ffffffffffffffffffffffffffffffffffffffff818301511692505050611c77565b3390505b90565b611c848282611845565b611d5657600160008084815260200190815260200160002060000160008373ffffffffffffffffffffffffffffffffffffffff1673ffffffffffffffffffffffffffffffffffffffff16815260200190815260200160002060006101000a81548160ff021916908315150217905550611cfb612036565b73ffffffffffffffffffffffffffffffffffffffff168173ffffffffffffffffffffffffffffffffffffffff16837f2f8788117e7eff1d82e926ec794901d17c78024a50270940304540a733656f0d60405160405180910390a45b5050565b6000611d82836000018373ffffffffffffffffffffffffffffffffffffffff1660001b612db0565b905092915050565b60008073ffffffffffffffffffffffffffffffffffffffff16611dac836125ea565b73ffffffffffffffffffffffffffffffffffffffff1614159050919050565b60008183611dd99190615225565b905092915050565b600081600001549050919050565b611e09828260405180602001604052806000815250612e20565b5050565b6001816000016000828254019250508190555050565b6000611e2e8261158f565b9050611e3e816000846001612e7b565b611e478261158f565b90506006600083815260200190815260200160002060006101000a81549073ffffffffffffffffffffffffffffffffffffffff02191690556001600560008373ffffffffffffffffffffffffffffffffffffffff1673ffffffffffffffffffffffffffffffffffffffff168152602001908152602001600020600082825403925050819055506004600083815260200190815260200160002060006101000a81549073ffffffffffffffffffffffffffffffffffffffff021916905581600073ffffffffffffffffffffffffffffffffffffffff168273ffffffffffffffffffffffffffffffffffffffff167fddf252ad1be2c89b69c2b068fc378daa952ba7f163c4a11628f55a4df523b3ef60405160405180910390a4611f6d816000846001612e8d565b5050565b60007f780e9d63000000000000000000000000000000000000000000000000000000007bffffffffffffffffffffffffffffffffffffffffffffffffffffffff1916827bffffffffffffffffffffffffffffffffffffffffffffffffffffffff19161480611fe45750611fe382612e93565b5b9050919050565b611ff481611d8a565b612033576040517f08c379a000000000000000000000000000000000000000000000000000000000815260040161202a90614fdd565b60405180910390fd5b50565b6000612040611bc9565b905090565b816006600083815260200190815260200160002060006101000a81548173ffffffffffffffffffffffffffffffffffffffff021916908373ffffffffffffffffffffffffffffffffffffffff160217905550808273ffffffffffffffffffffffffffffffffffffffff166120b88361158f565b73ffffffffffffffffffffffffffffffffffffffff167f8c5be1e5ebec7d5bd14f71427d1e84f3dd0314c0f7b2291e5b200ac8c7c3b92560405160405180910390a45050565b60008061210a8361158f565b90508073ffffffffffffffffffffffffffffffffffffffff168473ffffffffffffffffffffffffffffffffffffffff16148061214c575061214b8185611ada565b5b8061218a57508373ffffffffffffffffffffffffffffffffffffffff1661217284610e11565b73ffffffffffffffffffffffffffffffffffffffff16145b91505092915050565b8273ffffffffffffffffffffffffffffffffffffffff166121b38261158f565b73ffffffffffffffffffffffffffffffffffffffff1614612209576040517f08c379a000000000000000000000000000000000000000000000000000000000815260040161220090614e1d565b60405180910390fd5b600073ffffffffffffffffffffffffffffffffffffffff168273ffffffffffffffffffffffffffffffffffffffff161415612279576040517f08c379a000000000000000000000000000000000000000000000000000000000815260040161227090614e7d565b60405180910390fd5b6122868383836001612e7b565b8273ffffffffffffffffffffffffffffffffffffffff166122a68261158f565b73ffffffffffffffffffffffffffffffffffffffff16146122fc576040517f08c379a00000000000000000000000000000000000000000000000000000000081526004016122f390614e1d565b60405180910390fd5b6006600082815260200190815260200160002060006101000a81549073ffffffffffffffffffffffffffffffffffffffff02191690556001600560008573ffffffffffffffffffffffffffffffffffffffff1673ffffffffffffffffffffffffffffffffffffffff168152602001908152602001600020600082825403925050819055506001600560008473ffffffffffffffffffffffffffffffffffffffff1673ffffffffffffffffffffffffffffffffffffffff16815260200190815260200160002060008282540192505081905550816004600083815260200190815260200160002060006101000a81548173ffffffffffffffffffffffffffffffffffffffff021916908373ffffffffffffffffffffffffffffffffffffffff160217905550808273ffffffffffffffffffffffffffffffffffffffff168473ffffffffffffffffffffffffffffffffffffffff167fddf252ad1be2c89b69c2b068fc378daa952ba7f163c4a11628f55a4df523b3ef60405160405180910390a46124888383836001612e8d565b505050565b612495612036565b73ffffffffffffffffffffffffffffffffffffffff166124b36117ec565b73ffffffffffffffffffffffffffffffffffffffff1614612509576040517f08c379a000000000000000000000000000000000000000000000000000000000815260040161250090614fbd565b60405180910390fd5b565b61251c81612517612036565b612f75565b50565b6125298282611c7a565b61254e8160016000858152602001908152602001600020611d5a90919063ffffffff16565b505050565b61255d8282612ffa565b61258281600160008581526020019081526020016000206130db90919063ffffffff16565b505050565b61258f61310b565b6000600c60006101000a81548160ff0219169083151502179055507f5db9ee0a495bf2e6ff9c91a7834c1ba4fdd244a5e8aa4e537bd38aeae4b073aa6125d3612036565b6040516125e09190614c5e565b60405180910390a1565b60006004600083815260200190815260200160002060009054906101000a900473ffffffffffffffffffffffffffffffffffffffff169050919050565b600073ffffffffffffffffffffffffffffffffffffffff168273ffffffffffffffffffffffffffffffffffffffff161415612697576040517f08c379a000000000000000000000000000000000000000000000000000000000815260040161268e90614f7d565b60405180910390fd5b6126a081611d8a565b156126e0576040517f08c379a00000000000000000000000000000000000000000000000000000000081526004016126d790614e3d565b60405180910390fd5b6126ee600083836001612e7b565b6126f781611d8a565b15612737576040517f08c379a000000000000000000000000000000000000000000000000000000000815260040161272e90614e3d565b60405180910390fd5b6001600560008473ffffffffffffffffffffffffffffffffffffffff1673ffffffffffffffffffffffffffffffffffffffff16815260200190815260200160002060008282540192505081905550816004600083815260200190815260200160002060006101000a81548173ffffffffffffffffffffffffffffffffffffffff021916908373ffffffffffffffffffffffffffffffffffffffff160217905550808273ffffffffffffffffffffffffffffffffffffffff16600073ffffffffffffffffffffffffffffffffffffffff167fddf252ad1be2c89b69c2b068fc378daa952ba7f163c4a11628f55a4df523b3ef60405160405180910390a4612841600083836001612e8d565b5050565b6000600f60009054906101000a900473ffffffffffffffffffffffffffffffffffffffff16905081600f60006101000a81548173ffffffffffffffffffffffffffffffffffffffff021916908373ffffffffffffffffffffffffffffffffffffffff1602179055508173ffffffffffffffffffffffffffffffffffffffff168173ffffffffffffffffffffffffffffffffffffffff167f8be0079c531659141344cd1fd0a4f28419497f9722a3daafe3b4186f6b6457e060405160405180910390a35050565b612913613154565b6001600c60006101000a81548160ff0219169083151502179055507f62e78cea01bee320cd4e420270b5ea74000d11b0c9f74754ebdbfc544b05a258612957612036565b6040516129649190614c5e565b60405180910390a1565b600061297d836000018361319e565b60001c905092915050565b8173ffffffffffffffffffffffffffffffffffffffff168373ffffffffffffffffffffffffffffffffffffffff1614156129f7576040517f08c379a00000000000000000000000000000000000000000000000000000000081526004016129ee90614e9d565b60405180910390fd5b80600760008573ffffffffffffffffffffffffffffffffffffffff1673ffffffffffffffffffffffffffffffffffffffff16815260200190815260200160002060008473ffffffffffffffffffffffffffffffffffffffff1673ffffffffffffffffffffffffffffffffffffffff16815260200190815260200160002060006101000a81548160ff0219169083151502179055508173ffffffffffffffffffffffffffffffffffffffff168373ffffffffffffffffffffffffffffffffffffffff167f17307eab39ab6107e8899845ad3d59bd9653f200f220920489ca2b5937696c3183604051612ae89190614cc5565b60405180910390a3505050565b612b00848484612193565b612b0c848484846131ef565b612b4b576040517f08c379a0000000000000000000000000000000000000000000000000000000008152600401612b4290614ddd565b60405180910390fd5b50505050565b6060600e8054612b6090615424565b80601f0160208091040260200160405190810160405280929190818152602001828054612b8c90615424565b8015612bd95780601f10612bae57610100808354040283529160200191612bd9565b820191906000526020600020905b815481529060010190602001808311612bbc57829003601f168201915b5050505050905090565b606060006001612bf284613386565b01905060008167ffffffffffffffff811115612c37577f4e487b7100000000000000000000000000000000000000000000000000000000600052604160045260246000fd5b6040519080825280601f01601f191660200182016040528015612c695781602001600182028036833780820191505090505b509050600082602001820190505b600115612cfc578080600190039150507f3031323334353637383961626364656600000000000000000000000000000000600a86061a8153600a8581612ce6577f4e487b7100000000000000000000000000000000000000000000000000000000600052601260045260246000fd5b0494506000851415612cf757612cfc565b612c77565b819350505050919050565b6000612d15826000016135bd565b9050919050565b6000600760008473ffffffffffffffffffffffffffffffffffffffff1673ffffffffffffffffffffffffffffffffffffffff16815260200190815260200160002060008373ffffffffffffffffffffffffffffffffffffffff1673ffffffffffffffffffffffffffffffffffffffff16815260200190815260200160002060009054906101000a900460ff16905092915050565b6000612dbc83836135ce565b612e15578260000182908060018154018082558091505060019003906000526020600020016000909190919091505582600001805490508360010160008481526020019081526020016000208190555060019050612e1a565b600090505b92915050565b612e2a8383612627565b612e3760008484846131ef565b612e76576040517f08c379a0000000000000000000000000000000000000000000000000000000008152600401612e6d90614ddd565b60405180910390fd5b505050565b612e87848484846135f1565b50505050565b50505050565b60007f80ac58cd000000000000000000000000000000000000000000000000000000007bffffffffffffffffffffffffffffffffffffffffffffffffffffffff1916827bffffffffffffffffffffffffffffffffffffffffffffffffffffffff19161480612f5e57507f5b5e139f000000000000000000000000000000000000000000000000000000007bffffffffffffffffffffffffffffffffffffffffffffffffffffffff1916827bffffffffffffffffffffffffffffffffffffffffffffffffffffffff1916145b80612f6e5750612f6d8261364b565b5b9050919050565b612f7f8282611845565b612ff657612f8c816136c5565b612f9a8360001c60206136f2565b604051602001612fab929190614c24565b6040516020818303038152906040526040517f08c379a0000000000000000000000000000000000000000000000000000000008152600401612fed9190614cfb565b60405180910390fd5b5050565b6130048282611845565b156130d757600080600084815260200190815260200160002060000160008373ffffffffffffffffffffffffffffffffffffffff1673ffffffffffffffffffffffffffffffffffffffff16815260200190815260200160002060006101000a81548160ff02191690831515021790555061307c612036565b73ffffffffffffffffffffffffffffffffffffffff168173ffffffffffffffffffffffffffffffffffffffff16837ff6391f5c32d9c69d2a47ea670b442974b53935d1edc7fd64eb21e047a839171b60405160405180910390a45b5050565b6000613103836000018373ffffffffffffffffffffffffffffffffffffffff1660001b6139ec565b905092915050565b6131136113d9565b613152576040517f08c379a000000000000000000000000000000000000000000000000000000000815260040161314990614d5d565b60405180910390fd5b565b61315c6113d9565b1561319c576040517f08c379a000000000000000000000000000000000000000000000000000000000815260040161319390614efd565b60405180910390fd5b565b60008260000182815481106131dc577f4e487b7100000000000000000000000000000000000000000000000000000000600052603260045260246000fd5b9060005260206000200154905092915050565b60006132108473ffffffffffffffffffffffffffffffffffffffff16613b72565b15613379578373ffffffffffffffffffffffffffffffffffffffff1663150b7a02613239612036565b8786866040518563ffffffff1660e01b815260040161325b9493929190614c79565b602060405180830381600087803b15801561327557600080fd5b505af19250505080156132a657506040513d601f19601f820116820180604052508101906132a391906145ce565b60015b613329573d80600081146132d6576040519150601f19603f3d011682016040523d82523d6000602084013e6132db565b606091505b50600081511415613321576040517f08c379a000000000000000000000000000000000000000000000000000000000815260040161331890614ddd565b60405180910390fd5b805181602001fd5b63150b7a0260e01b7bffffffffffffffffffffffffffffffffffffffffffffffffffffffff1916817bffffffffffffffffffffffffffffffffffffffffffffffffffffffff19161491505061337e565b600190505b949350505050565b600080600090507a184f03e93ff9f4daa797ed6e38ed64bf6a1f010000000000000000831061340a577a184f03e93ff9f4daa797ed6e38ed64bf6a1f0100000000000000008381613400577f4e487b7100000000000000000000000000000000000000000000000000000000600052601260045260246000fd5b0492506040810190505b6d04ee2d6d415b85acef8100000000831061346d576d04ee2d6d415b85acef81000000008381613463577f4e487b7100000000000000000000000000000000000000000000000000000000600052601260045260246000fd5b0492506020810190505b662386f26fc1000083106134c257662386f26fc1000083816134b8577f4e487b7100000000000000000000000000000000000000000000000000000000600052601260045260246000fd5b0492506010810190505b6305f5e1008310613511576305f5e1008381613507577f4e487b7100000000000000000000000000000000000000000000000000000000600052601260045260246000fd5b0492506008810190505b612710831061355c576127108381613552577f4e487b7100000000000000000000000000000000000000000000000000000000600052601260045260246000fd5b0492506004810190505b606483106135a5576064838161359b577f4e487b7100000000000000000000000000000000000000000000000000000000600052601260045260246000fd5b0492506002810190505b600a83106135b4576001810190505b80915050919050565b600081600001805490509050919050565b600080836001016000848152602001908152602001600020541415905092915050565b6135fd84848484613b95565b6136056113d9565b15613645576040517f08c379a000000000000000000000000000000000000000000000000000000000815260040161363c90614d3d565b60405180910390fd5b50505050565b60007f5a05180f000000000000000000000000000000000000000000000000000000007bffffffffffffffffffffffffffffffffffffffffffffffffffffffff1916827bffffffffffffffffffffffffffffffffffffffffffffffffffffffff191614806136be57506136bd82613cf5565b5b9050919050565b60606136eb8273ffffffffffffffffffffffffffffffffffffffff16601460ff166136f2565b9050919050565b60606000600283600261370591906152ac565b61370f9190615225565b67ffffffffffffffff81111561374e577f4e487b7100000000000000000000000000000000000000000000000000000000600052604160045260246000fd5b6040519080825280601f01601f1916602001820160405280156137805781602001600182028036833780820191505090505b5090507f3000000000000000000000000000000000000000000000000000000000000000816000815181106137de577f4e487b7100000000000000000000000000000000000000000000000000000000600052603260045260246000fd5b60200101907effffffffffffffffffffffffffffffffffffffffffffffffffffffffffffff1916908160001a9053507f780000000000000000000000000000000000000000000000000000000000000081600181518110613868577f4e487b7100000000000000000000000000000000000000000000000000000000600052603260045260246000fd5b60200101907effffffffffffffffffffffffffffffffffffffffffffffffffffffffffffff1916908160001a905350600060018460026138a891906152ac565b6138b29190615225565b90505b600181111561399e577f3031323334353637383961626364656600000000000000000000000000000000600f86166010811061391a577f4e487b7100000000000000000000000000000000000000000000000000000000600052603260045260246000fd5b1a60f81b828281518110613957577f4e487b7100000000000000000000000000000000000000000000000000000000600052603260045260246000fd5b60200101907effffffffffffffffffffffffffffffffffffffffffffffffffffffffffffff1916908160001a905350600485901c945080613997906153fa565b90506138b5565b50600084146139e2576040517f08c379a00000000000000000000000000000000000000000000000000000000081526004016139d990614d1d565b60405180910390fd5b8091505092915050565b60008083600101600084815260200190815260200160002054905060008114613b66576000600182613a1e9190615306565b9050600060018660000180549050613a369190615306565b9050818114613af1576000866000018281548110613a7d577f4e487b7100000000000000000000000000000000000000000000000000000000600052603260045260246000fd5b9060005260206000200154905080876000018481548110613ac7577f4e487b7100000000000000000000000000000000000000000000000000000000600052603260045260246000fd5b90600052602060002001819055508387600101600083815260200190815260200160002081905550505b85600001805480613b2b577f4e487b7100000000000000000000000000000000000000000000000000000000600052603160045260246000fd5b600190038181906000526020600020016000905590558560010160008681526020019081526020016000206000905560019350505050613b6c565b60009150505b92915050565b6000808273ffffffffffffffffffffffffffffffffffffffff163b119050919050565b613ba184848484613d6f565b6001811115613be5576040517f08c379a0000000000000000000000000000000000000000000000000000000008152600401613bdc9061507d565b60405180910390fd5b6000829050600073ffffffffffffffffffffffffffffffffffffffff168573ffffffffffffffffffffffffffffffffffffffff161415613c2d57613c2881613e95565b613c6c565b8373ffffffffffffffffffffffffffffffffffffffff168573ffffffffffffffffffffffffffffffffffffffff1614613c6b57613c6a8582613ede565b5b5b600073ffffffffffffffffffffffffffffffffffffffff168473ffffffffffffffffffffffffffffffffffffffff161415613caf57613caa8161404b565b613cee565b8473ffffffffffffffffffffffffffffffffffffffff168473ffffffffffffffffffffffffffffffffffffffff1614613ced57613cec848261418e565b5b5b5050505050565b60007f7965db0b000000000000000000000000000000000000000000000000000000007bffffffffffffffffffffffffffffffffffffffffffffffffffffffff1916827bffffffffffffffffffffffffffffffffffffffffffffffffffffffff19161480613d685750613d678261420d565b5b9050919050565b6001811115613e8f57600073ffffffffffffffffffffffffffffffffffffffff168473ffffffffffffffffffffffffffffffffffffffff1614613e035780600560008673ffffffffffffffffffffffffffffffffffffffff1673ffffffffffffffffffffffffffffffffffffffff1681526020019081526020016000206000828254613dfb9190615306565b925050819055505b600073ffffffffffffffffffffffffffffffffffffffff168373ffffffffffffffffffffffffffffffffffffffff1614613e8e5780600560008573ffffffffffffffffffffffffffffffffffffffff1673ffffffffffffffffffffffffffffffffffffffff1681526020019081526020016000206000828254613e869190615225565b925050819055505b5b50505050565b600a80549050600b600083815260200190815260200160002081905550600a81908060018154018082558091505060019003906000526020600020016000909190919091505550565b60006001613eeb846116a6565b613ef59190615306565b9050600060096000848152602001908152602001600020549050818114613fda576000600860008673ffffffffffffffffffffffffffffffffffffffff1673ffffffffffffffffffffffffffffffffffffffff168152602001908152602001600020600084815260200190815260200160002054905080600860008773ffffffffffffffffffffffffffffffffffffffff1673ffffffffffffffffffffffffffffffffffffffff168152602001908152602001600020600084815260200190815260200160002081905550816009600083815260200190815260200160002081905550505b6009600084815260200190815260200160002060009055600860008573ffffffffffffffffffffffffffffffffffffffff1673ffffffffffffffffffffffffffffffffffffffff16815260200190815260200160002060008381526020019081526020016000206000905550505050565b60006001600a8054905061405f9190615306565b90506000600b60008481526020019081526020016000205490506000600a83815481106140b5577f4e487b7100000000000000000000000000000000000000000000000000000000600052603260045260246000fd5b9060005260206000200154905080600a83815481106140fd577f4e487b7100000000000000000000000000000000000000000000000000000000600052603260045260246000fd5b906000526020600020018190555081600b600083815260200190815260200160002081905550600b600085815260200190815260200160002060009055600a805480614172577f4e487b7100000000000000000000000000000000000000000000000000000000600052603160045260246000fd5b6001900381819060005260206000200160009055905550505050565b6000614199836116a6565b905081600860008573ffffffffffffffffffffffffffffffffffffffff1673ffffffffffffffffffffffffffffffffffffffff168152602001908152602001600020600083815260200190815260200160002081905550806009600084815260200190815260200160002081905550505050565b60007f01ffc9a7000000000000000000000000000000000000000000000000000000007bffffffffffffffffffffffffffffffffffffffffffffffffffffffff1916827bffffffffffffffffffffffffffffffffffffffffffffffffffffffff1916149050919050565b600061428a614285846151a6565b615181565b9050828152602081018484840111156142a257600080fd5b6142ad8482856153b8565b509392505050565b6000813590506142c481615d52565b92915050565b6000813590506142d981615d69565b92915050565b6000813590506142ee81615d80565b92915050565b60008135905061430381615d97565b92915050565b60008151905061431881615d97565b92915050565b600082601f83011261432f57600080fd5b813561433f848260208601614277565b91505092915050565b60008135905061435781615dae565b92915050565b60006020828403121561436f57600080fd5b600061437d848285016142b5565b91505092915050565b6000806040838503121561439957600080fd5b60006143a7858286016142b5565b92505060206143b8858286016142b5565b9150509250929050565b6000806000606084860312156143d757600080fd5b60006143e5868287016142b5565b93505060206143f6868287016142b5565b925050604061440786828701614348565b9150509250925092565b6000806000806080858703121561442757600080fd5b6000614435878288016142b5565b9450506020614446878288016142b5565b935050604061445787828801614348565b925050606085013567ffffffffffffffff81111561447457600080fd5b6144808782880161431e565b91505092959194509250565b6000806040838503121561449f57600080fd5b60006144ad858286016142b5565b92505060206144be858286016142ca565b9150509250929050565b600080604083850312156144db57600080fd5b60006144e9858286016142b5565b92505060206144fa85828601614348565b9150509250929050565b60006020828403121561451657600080fd5b6000614524848285016142df565b91505092915050565b6000806040838503121561454057600080fd5b600061454e858286016142df565b925050602061455f858286016142b5565b9150509250929050565b6000806040838503121561457c57600080fd5b600061458a858286016142df565b925050602061459b85828601614348565b9150509250929050565b6000602082840312156145b757600080fd5b60006145c5848285016142f4565b91505092915050565b6000602082840312156145e057600080fd5b60006145ee84828501614309565b91505092915050565b60006020828403121561460957600080fd5b600061461784828501614348565b91505092915050565b6146298161533a565b82525050565b6146388161534c565b82525050565b61464781615358565b82525050565b6000614658826151d7565b61466281856151ed565b93506146728185602086016153c7565b61467b81615543565b840191505092915050565b6000614691826151e2565b61469b8185615209565b93506146ab8185602086016153c7565b6146b481615543565b840191505092915050565b60006146ca826151e2565b6146d4818561521a565b93506146e48185602086016153c7565b80840191505092915050565b60006146fd602083615209565b915061470882615554565b602082019050919050565b6000614720602b83615209565b915061472b8261557d565b604082019050919050565b6000614743601483615209565b915061474e826155cc565b602082019050919050565b6000614766601383615209565b9150614771826155f5565b602082019050919050565b6000614789602d83615209565b91506147948261561e565b604082019050919050565b60006147ac602b83615209565b91506147b78261566d565b604082019050919050565b60006147cf603283615209565b91506147da826156bc565b604082019050919050565b60006147f2602683615209565b91506147fd8261570b565b604082019050919050565b6000614815602583615209565b91506148208261575a565b604082019050919050565b6000614838601c83615209565b9150614843826157a9565b602082019050919050565b600061485b603e83615209565b9150614866826157d2565b604082019050919050565b600061487e602483615209565b915061488982615821565b604082019050919050565b60006148a1601983615209565b91506148ac82615870565b602082019050919050565b60006148c4601a83615209565b91506148cf82615899565b602082019050919050565b60006148e7600883615209565b91506148f2826158c2565b602082019050919050565b600061490a601083615209565b9150614915826158eb565b602082019050919050565b600061492d601e83615209565b915061493882615914565b602082019050919050565b6000614950602983615209565b915061495b8261593d565b604082019050919050565b6000614973601f83615209565b915061497e8261598c565b602082019050919050565b6000614996602083615209565b91506149a1826159b5565b602082019050919050565b60006149b9601583615209565b91506149c4826159de565b602082019050919050565b60006149dc602083615209565b91506149e782615a07565b602082019050919050565b60006149ff601883615209565b9150614a0a82615a30565b602082019050919050565b6000614a22602183615209565b9150614a2d82615a59565b604082019050919050565b6000614a45601283615209565b9150614a5082615aa8565b602082019050919050565b6000614a686000836151fe565b9150614a7382615ad1565b600082019050919050565b6000614a8b603d83615209565b9150614a9682615ad4565b604082019050919050565b6000614aae602c83615209565b9150614ab982615b23565b604082019050919050565b6000614ad160178361521a565b9150614adc82615b72565b601782019050919050565b6000614af4603583615209565b9150614aff82615b9b565b604082019050919050565b6000614b17600b83615209565b9150614b2282615bea565b602082019050919050565b6000614b3a603d83615209565b9150614b4582615c13565b604082019050919050565b6000614b5d601383615209565b9150614b6882615c62565b602082019050919050565b6000614b80604083615209565b9150614b8b82615c8b565b604082019050919050565b6000614ba360118361521a565b9150614bae82615cda565b601182019050919050565b6000614bc6602f83615209565b9150614bd182615d03565b604082019050919050565b614be5816153ae565b82525050565b6000614bf782856146bf565b9150614c0382846146bf565b91508190509392505050565b6000614c1a82614a5b565b9150819050919050565b6000614c2f82614ac4565b9150614c3b82856146bf565b9150614c4682614b96565b9150614c5282846146bf565b91508190509392505050565b6000602082019050614c736000830184614620565b92915050565b6000608082019050614c8e6000830187614620565b614c9b6020830186614620565b614ca86040830185614bdc565b8181036060830152614cba818461464d565b905095945050505050565b6000602082019050614cda600083018461462f565b92915050565b6000602082019050614cf5600083018461463e565b92915050565b60006020820190508181036000830152614d158184614686565b905092915050565b60006020820190508181036000830152614d36816146f0565b9050919050565b60006020820190508181036000830152614d5681614713565b9050919050565b60006020820190508181036000830152614d7681614736565b9050919050565b60006020820190508181036000830152614d9681614759565b9050919050565b60006020820190508181036000830152614db68161477c565b9050919050565b60006020820190508181036000830152614dd68161479f565b9050919050565b60006020820190508181036000830152614df6816147c2565b9050919050565b60006020820190508181036000830152614e16816147e5565b9050919050565b60006020820190508181036000830152614e3681614808565b9050919050565b60006020820190508181036000830152614e568161482b565b9050919050565b60006020820190508181036000830152614e768161484e565b9050919050565b60006020820190508181036000830152614e9681614871565b9050919050565b60006020820190508181036000830152614eb681614894565b9050919050565b60006020820190508181036000830152614ed6816148b7565b9050919050565b60006020820190508181036000830152614ef6816148da565b9050919050565b60006020820190508181036000830152614f16816148fd565b9050919050565b60006020820190508181036000830152614f3681614920565b9050919050565b60006020820190508181036000830152614f5681614943565b9050919050565b60006020820190508181036000830152614f7681614966565b9050919050565b60006020820190508181036000830152614f9681614989565b9050919050565b60006020820190508181036000830152614fb6816149ac565b9050919050565b60006020820190508181036000830152614fd6816149cf565b9050919050565b60006020820190508181036000830152614ff6816149f2565b9050919050565b6000602082019050818103600083015261501681614a15565b9050919050565b6000602082019050818103600083015261503681614a38565b9050919050565b6000602082019050818103600083015261505681614a7e565b9050919050565b6000602082019050818103600083015261507681614aa1565b9050919050565b6000602082019050818103600083015261509681614ae7565b9050919050565b600060208201905081810360008301526150b681614b0a565b9050919050565b600060208201905081810360008301526150d681614b2d565b9050919050565b600060208201905081810360008301526150f681614b50565b9050919050565b6000602082019050818103600083015261511681614b73565b9050919050565b6000602082019050818103600083015261513681614bb9565b9050919050565b60006020820190506151526000830184614bdc565b92915050565b600060408201905061516d6000830185614bdc565b61517a6020830184614620565b9392505050565b600061518b61519c565b90506151978282615456565b919050565b6000604051905090565b600067ffffffffffffffff8211156151c1576151c0615514565b5b6151ca82615543565b9050602081019050919050565b600081519050919050565b600081519050919050565b600082825260208201905092915050565b600081905092915050565b600082825260208201905092915050565b600081905092915050565b6000615230826153ae565b915061523b836153ae565b9250827fffffffffffffffffffffffffffffffffffffffffffffffffffffffffffffffff038211156152705761526f615487565b5b828201905092915050565b6000615286826153ae565b9150615291836153ae565b9250826152a1576152a06154b6565b5b828204905092915050565b60006152b7826153ae565b91506152c2836153ae565b9250817fffffffffffffffffffffffffffffffffffffffffffffffffffffffffffffffff04831182151516156152fb576152fa615487565b5b828202905092915050565b6000615311826153ae565b915061531c836153ae565b92508282101561532f5761532e615487565b5b828203905092915050565b60006153458261538e565b9050919050565b60008115159050919050565b6000819050919050565b60007fffffffff0000000000000000000000000000000000000000000000000000000082169050919050565b600073ffffffffffffffffffffffffffffffffffffffff82169050919050565b6000819050919050565b82818337600083830152505050565b60005b838110156153e55780820151818401526020810190506153ca565b838111156153f4576000848401525b50505050565b6000615405826153ae565b9150600082141561541957615418615487565b5b600182039050919050565b6000600282049050600182168061543c57607f821691505b602082108114156154505761544f6154e5565b5b50919050565b61545f82615543565b810181811067ffffffffffffffff8211171561547e5761547d615514565b5b80604052505050565b7f4e487b7100000000000000000000000000000000000000000000000000000000600052601160045260246000fd5b7f4e487b7100000000000000000000000000000000000000000000000000000000600052601260045260246000fd5b7f4e487b7100000000000000000000000000000000000000000000000000000000600052602260045260246000fd5b7f4e487b7100000000000000000000000000000000000000000000000000000000600052604160045260246000fd5b6000601f19601f8301169050919050565b7f537472696e67733a20686578206c656e67746820696e73756666696369656e74600082015250565b7f4552433732315061757361626c653a20746f6b656e207472616e73666572207760008201527f68696c6520706175736564000000000000000000000000000000000000000000602082015250565b7f5061757361626c653a206e6f7420706175736564000000000000000000000000600082015250565b7f73616c65206861736e2774207374617274656400000000000000000000000000600082015250565b7f4552433732313a2063616c6c6572206973206e6f7420746f6b656e206f776e6560008201527f72206f7220617070726f76656400000000000000000000000000000000000000602082015250565b7f455243373231456e756d657261626c653a206f776e657220696e646578206f7560008201527f74206f6620626f756e6473000000000000000000000000000000000000000000602082015250565b7f4552433732313a207472616e7366657220746f206e6f6e20455243373231526560008201527f63656976657220696d706c656d656e7465720000000000000000000000000000602082015250565b7f4f776e61626c653a206e6577206f776e657220697320746865207a65726f206160008201527f6464726573730000000000000000000000000000000000000000000000000000602082015250565b7f4552433732313a207472616e736665722066726f6d20696e636f72726563742060008201527f6f776e6572000000000000000000000000000000000000000000000000000000602082015250565b7f4552433732313a20746f6b656e20616c7265616479206d696e74656400000000600082015250565b7f4552433732315072657365744d696e7465725061757365724175746f49643a2060008201527f6d75737420686176652070617573657220726f6c6520746f2070617573650000602082015250565b7f4552433732313a207472616e7366657220746f20746865207a65726f2061646460008201527f7265737300000000000000000000000000000000000000000000000000000000602082015250565b7f4552433732313a20617070726f766520746f2063616c6c657200000000000000600082015250565b7f796f7520646f6e2774206f776e6564207468697320746f6b656e000000000000600082015250565b7f736f6c64206f7574000000000000000000000000000000000000000000000000600082015250565b7f5061757361626c653a2070617573656400000000000000000000000000000000600082015250565b7f7072696365546f4d696e742068617320746f20626520706f7369746976650000600082015250565b7f4552433732313a2061646472657373207a65726f206973206e6f74206120766160008201527f6c6964206f776e65720000000000000000000000000000000000000000000000602082015250565b7f6f6e6c79206f776e65722063616e2073657420707269636520746f206d697400600082015250565b7f4552433732313a206d696e7420746f20746865207a65726f2061646472657373600082015250565b7f746f6b656e20646f6573206e6f74206578697374730000000000000000000000600082015250565b7f4f776e61626c653a2063616c6c6572206973206e6f7420746865206f776e6572600082015250565b7f4552433732313a20696e76616c696420746f6b656e2049440000000000000000600082015250565b7f4552433732313a20617070726f76616c20746f2063757272656e74206f776e6560008201527f7200000000000000000000000000000000000000000000000000000000000000602082015250565b7f5472616e73616374696f6e206661696c65640000000000000000000000000000600082015250565b50565b7f4552433732313a20617070726f76652063616c6c6572206973206e6f7420746f60008201527f6b656e206f776e6572206f7220617070726f76656420666f7220616c6c000000602082015250565b7f455243373231456e756d657261626c653a20676c6f62616c20696e646578206f60008201527f7574206f6620626f756e64730000000000000000000000000000000000000000602082015250565b7f416363657373436f6e74726f6c3a206163636f756e7420000000000000000000600082015250565b7f455243373231456e756d657261626c653a20636f6e736563757469766520747260008201527f616e7366657273206e6f7420737570706f727465640000000000000000000000602082015250565b7f70617920746f206d696e74000000000000000000000000000000000000000000600082015250565b7f4552433732315072657365744d696e7465725061757365724175746f49643a2060008201527f6d7573742068617665206d696e74657220726f6c6520746f206d696e74000000602082015250565b7f5265656e7472616e637920446574656374656400000000000000000000000000600082015250565b7f4552433732315072657365744d696e7465725061757365724175746f49643a2060008201527f6d75737420686176652070617573657220726f6c6520746f20756e7061757365602082015250565b7f206973206d697373696e6720726f6c6520000000000000000000000000000000600082015250565b7f416363657373436f6e74726f6c3a2063616e206f6e6c792072656e6f756e636560008201527f20726f6c657320666f722073656c660000000000000000000000000000000000602082015250565b615d5b8161533a565b8114615d6657600080fd5b50565b615d728161534c565b8114615d7d57600080fd5b50565b615d8981615358565b8114615d9457600080fd5b50565b615da081615362565b8114615dab57600080fd5b50565b615db7816153ae565b8114615dc257600080fd5b5056fea2646970667358221220b6a109002540cf39709c918536f8210415be93c614b266a84598428deb0ed4d164736f6c6343000804003368747470733a2f2f6e66742e616c6563747269636f2e776f726b6572732e6465762f",
  "linkReferences": {},
  "deployedLinkReferences": {}
}