{
  "_format": "hh-sol-artifact-1",
  "contractName": "TokenBat",
  "sourceName": "contracts/TokenBat.sol",
  "abi": [
    {
      "inputs": [],
      "stateMutability": "nonpayable",
      "type": "constructor"
    },
    {
      "anonymous": false,
      "inputs": [
        {
          "indexed": true,
          "internalType": "address",
          "name": "owner",
          "type": "address"
        },
        {
          "indexed": true,
          "internalType": "address",
          "name": "approved",
          "type": "address"
        },
        {
          "indexed": true,
          "internalType": "uint256",
          "name": "tokenId",
          "type": "uint256"
        }
      ],
      "name": "Approval",
      "type": "event"
    },
    {
      "anonymous": false,
      "inputs": [
        {
          "indexed": true,
          "internalType": "address",
          "name": "owner",
          "type": "address"
        },
        {
          "indexed": true,
          "internalType": "address",
          "name": "operator",
          "type": "address"
        },
        {
          "indexed": false,
          "internalType": "bool",
          "name": "approved",
          "type": "bool"
        }
      ],
      "name": "ApprovalForAll",
      "type": "event"
    },
    {
      "anonymous": false,
      "inputs": [
        {
          "indexed": false,
          "internalType": "uint256",
          "name": "tokenId",
          "type": "uint256"
        },
        {
          "indexed": false,
          "internalType": "address",
          "name": "owner",
          "type": "address"
        }
      ],
      "name": "Minted",
      "type": "event"
    },
    {
      "anonymous": false,
      "inputs": [
        {
          "indexed": true,
          "internalType": "address",
          "name": "previousOwner",
          "type": "address"
        },
        {
          "indexed": true,
          "internalType": "address",
          "name": "newOwner",
          "type": "address"
        }
      ],
      "name": "OwnershipTransferred",
      "type": "event"
    },
    {
      "anonymous": false,
      "inputs": [
        {
          "indexed": false,
          "internalType": "address",
          "name": "account",
          "type": "address"
        }
      ],
      "name": "Paused",
      "type": "event"
    },
    {
      "anonymous": false,
      "inputs": [
        {
          "indexed": false,
          "internalType": "uint256",
          "name": "tokenId",
          "type": "uint256"
        }
      ],
      "name": "Redeemed",
      "type": "event"
    },
    {
      "anonymous": false,
      "inputs": [
        {
          "indexed": true,
          "internalType": "bytes32",
          "name": "role",
          "type": "bytes32"
        },
        {
          "indexed": true,
          "internalType": "bytes32",
          "name": "previousAdminRole",
          "type": "bytes32"
        },
        {
          "indexed": true,
          "internalType": "bytes32",
          "name": "newAdminRole",
          "type": "bytes32"
        }
      ],
      "name": "RoleAdminChanged",
      "type": "event"
    },
    {
      "anonymous": false,
      "inputs": [
        {
          "indexed": true,
          "internalType": "bytes32",
          "name": "role",
          "type": "bytes32"
        },
        {
          "indexed": true,
          "internalType": "address",
          "name": "account",
          "type": "address"
        },
        {
          "indexed": true,
          "internalType": "address",
          "name": "sender",
          "type": "address"
        }
      ],
      "name": "RoleGranted",
      "type": "event"
    },
    {
      "anonymous": false,
      "inputs": [
        {
          "indexed": true,
          "internalType": "bytes32",
          "name": "role",
          "type": "bytes32"
        },
        {
          "indexed": true,
          "internalType": "address",
          "name": "account",
          "type": "address"
        },
        {
          "indexed": true,
          "internalType": "address",
          "name": "sender",
          "type": "address"
        }
      ],
      "name": "RoleRevoked",
      "type": "event"
    },
    {
      "anonymous": false,
      "inputs": [
        {
          "indexed": true,
          "internalType": "address",
          "name": "from",
          "type": "address"
        },
        {
          "indexed": true,
          "internalType": "address",
          "name": "to",
          "type": "address"
        },
        {
          "indexed": true,
          "internalType": "uint256",
          "name": "tokenId",
          "type": "uint256"
        }
      ],
      "name": "Transfer",
      "type": "event"
    },
    {
      "anonymous": false,
      "inputs": [
        {
          "indexed": false,
          "internalType": "address",
          "name": "account",
          "type": "address"
        }
      ],
      "name": "Unpaused",
      "type": "event"
    },
    {
      "inputs": [],
      "name": "DEFAULT_ADMIN_ROLE",
      "outputs": [
        {
          "internalType": "bytes32",
          "name": "",
          "type": "bytes32"
        }
      ],
      "stateMutability": "view",
      "type": "function"
    },
    {
      "inputs": [],
      "name": "MAX_TOKENS",
      "outputs": [
        {
          "internalType": "uint256",
          "name": "",
          "type": "uint256"
        }
      ],
      "stateMutability": "view",
      "type": "function"
    },
    {
      "inputs": [],
      "name": "MINTER_ROLE",
      "outputs": [
        {
          "internalType": "bytes32",
          "name": "",
          "type": "bytes32"
        }
      ],
      "stateMutability": "view",
      "type": "function"
    },
    {
      "inputs": [],
      "name": "PAUSER_ROLE",
      "outputs": [
        {
          "internalType": "bytes32",
          "name": "",
          "type": "bytes32"
        }
      ],
      "stateMutability": "view",
      "type": "function"
    },
    {
      "inputs": [
        {
          "internalType": "address",
          "name": "to",
          "type": "address"
        },
        {
          "internalType": "uint256",
          "name": "tokenId",
          "type": "uint256"
        }
      ],
      "name": "approve",
      "outputs": [],
      "stateMutability": "nonpayable",
      "type": "function"
    },
    {
      "inputs": [
        {
          "internalType": "address",
          "name": "owner",
          "type": "address"
        }
      ],
      "name": "balanceOf",
      "outputs": [
        {
          "internalType": "uint256",
          "name": "",
          "type": "uint256"
        }
      ],
      "stateMutability": "view",
      "type": "function"
    },
    {
      "inputs": [
        {
          "internalType": "uint256",
          "name": "tokenId",
          "type": "uint256"
        }
      ],
      "name": "burn",
      "outputs": [],
      "stateMutability": "nonpayable",
      "type": "function"
    },
    {
      "inputs": [
        {
          "internalType": "uint256",
          "name": "tokenId",
          "type": "uint256"
        }
      ],
      "name": "getApproved",
      "outputs": [
        {
          "internalType": "address",
          "name": "",
          "type": "address"
        }
      ],
      "stateMutability": "view",
      "type": "function"
    },
    {
      "inputs": [
        {
          "internalType": "bytes32",
          "name": "role",
          "type": "bytes32"
        }
      ],
      "name": "getRoleAdmin",
      "outputs": [
        {
          "internalType": "bytes32",
          "name": "",
          "type": "bytes32"
        }
      ],
      "stateMutability": "view",
      "type": "function"
    },
    {
      "inputs": [
        {
          "internalType": "bytes32",
          "name": "role",
          "type": "bytes32"
        },
        {
          "internalType": "uint256",
          "name": "index",
          "type": "uint256"
        }
      ],
      "name": "getRoleMember",
      "outputs": [
        {
          "internalType": "address",
          "name": "",
          "type": "address"
        }
      ],
      "stateMutability": "view",
      "type": "function"
    },
    {
      "inputs": [
        {
          "internalType": "bytes32",
          "name": "role",
          "type": "bytes32"
        }
      ],
      "name": "getRoleMemberCount",
      "outputs": [
        {
          "internalType": "uint256",
          "name": "",
          "type": "uint256"
        }
      ],
      "stateMutability": "view",
      "type": "function"
    },
    {
      "inputs": [
        {
          "internalType": "bytes32",
          "name": "role",
          "type": "bytes32"
        },
        {
          "internalType": "address",
          "name": "account",
          "type": "address"
        }
      ],
      "name": "grantRole",
      "outputs": [],
      "stateMutability": "nonpayable",
      "type": "function"
    },
    {
      "inputs": [
        {
          "internalType": "bytes32",
          "name": "role",
          "type": "bytes32"
        },
        {
          "internalType": "address",
          "name": "account",
          "type": "address"
        }
      ],
      "name": "hasRole",
      "outputs": [
        {
          "internalType": "bool",
          "name": "",
          "type": "bool"
        }
      ],
      "stateMutability": "view",
      "type": "function"
    },
    {
      "inputs": [],
      "name": "hasSaleStarted",
      "outputs": [
        {
          "internalType": "bool",
          "name": "",
          "type": "bool"
        }
      ],
      "stateMutability": "view",
      "type": "function"
    },
    {
      "inputs": [],
      "name": "hasSoldOut",
      "outputs": [
        {
          "internalType": "bool",
          "name": "",
          "type": "bool"
        }
      ],
      "stateMutability": "view",
      "type": "function"
    },
    {
      "inputs": [
        {
          "internalType": "address",
          "name": "_owner",
          "type": "address"
        },
        {
          "internalType": "address",
          "name": "_operator",
          "type": "address"
        }
      ],
      "name": "isApprovedForAll",
      "outputs": [
        {
          "internalType": "bool",
          "name": "isOperator",
          "type": "bool"
        }
      ],
      "stateMutability": "view",
      "type": "function"
    },
    {
      "inputs": [
        {
          "internalType": "address",
          "name": "to",
          "type": "address"
        }
      ],
      "name": "mint",
      "outputs": [],
      "stateMutability": "nonpayable",
      "type": "function"
    },
    {
      "inputs": [
        {
          "internalType": "address",
          "name": "receiver",
          "type": "address"
        }
      ],
      "name": "mintToken",
      "outputs": [],
      "stateMutability": "payable",
      "type": "function"
    },
    {
      "inputs": [],
      "name": "name",
      "outputs": [
        {
          "internalType": "string",
          "name": "",
          "type": "string"
        }
      ],
      "stateMutability": "view",
      "type": "function"
    },
    {
      "inputs": [],
      "name": "owner",
      "outputs": [
        {
          "internalType": "address",
          "name": "",
          "type": "address"
        }
      ],
      "stateMutability": "view",
      "type": "function"
    },
    {
      "inputs": [
        {
          "internalType": "uint256",
          "name": "tokenId",
          "type": "uint256"
        }
      ],
      "name": "ownerOf",
      "outputs": [
        {
          "internalType": "address",
          "name": "",
          "type": "address"
        }
      ],
      "stateMutability": "view",
      "type": "function"
    },
    {
      "inputs": [],
      "name": "pause",
      "outputs": [],
      "stateMutability": "nonpayable",
      "type": "function"
    },
    {
      "inputs": [],
      "name": "pauseSale",
      "outputs": [],
      "stateMutability": "nonpayable",
      "type": "function"
    },
    {
      "inputs": [],
      "name": "paused",
      "outputs": [
        {
          "internalType": "bool",
          "name": "",
          "type": "bool"
        }
      ],
      "stateMutability": "view",
      "type": "function"
    },
    {
      "inputs": [],
      "name": "priceToMint",
      "outputs": [
        {
          "internalType": "uint256",
          "name": "",
          "type": "uint256"
        }
      ],
      "stateMutability": "view",
      "type": "function"
    },
    {
      "inputs": [
        {
          "internalType": "uint256",
          "name": "tokenId",
          "type": "uint256"
        }
      ],
      "name": "redeemToken",
      "outputs": [],
      "stateMutability": "nonpayable",
      "type": "function"
    },
    {
      "inputs": [],
      "name": "renounceOwnership",
      "outputs": [],
      "stateMutability": "nonpayable",
      "type": "function"
    },
    {
      "inputs": [
        {
          "internalType": "bytes32",
          "name": "role",
          "type": "bytes32"
        },
        {
          "internalType": "address",
          "name": "account",
          "type": "address"
        }
      ],
      "name": "renounceRole",
      "outputs": [],
      "stateMutability": "nonpayable",
      "type": "function"
    },
    {
      "inputs": [
        {
          "internalType": "bytes32",
          "name": "role",
          "type": "bytes32"
        },
        {
          "internalType": "address",
          "name": "account",
          "type": "address"
        }
      ],
      "name": "revokeRole",
      "outputs": [],
      "stateMutability": "nonpayable",
      "type": "function"
    },
    {
      "inputs": [
        {
          "internalType": "address",
          "name": "from",
          "type": "address"
        },
        {
          "internalType": "address",
          "name": "to",
          "type": "address"
        },
        {
          "internalType": "uint256",
          "name": "tokenId",
          "type": "uint256"
        }
      ],
      "name": "safeTransferFrom",
      "outputs": [],
      "stateMutability": "nonpayable",
      "type": "function"
    },
    {
      "inputs": [
        {
          "internalType": "address",
          "name": "from",
          "type": "address"
        },
        {
          "internalType": "address",
          "name": "to",
          "type": "address"
        },
        {
          "internalType": "uint256",
          "name": "tokenId",
          "type": "uint256"
        },
        {
          "internalType": "bytes",
          "name": "data",
          "type": "bytes"
        }
      ],
      "name": "safeTransferFrom",
      "outputs": [],
      "stateMutability": "nonpayable",
      "type": "function"
    },
    {
      "inputs": [
        {
          "internalType": "address",
          "name": "operator",
          "type": "address"
        },
        {
          "internalType": "bool",
          "name": "approved",
          "type": "bool"
        }
      ],
      "name": "setApprovalForAll",
      "outputs": [],
      "stateMutability": "nonpayable",
      "type": "function"
    },
    {
      "inputs": [
        {
          "internalType": "uint256",
          "name": "_priceToMint",
          "type": "uint256"
        }
      ],
      "name": "setPriceToMint",
      "outputs": [],
      "stateMutability": "nonpayable",
      "type": "function"
    },
    {
      "inputs": [],
      "name": "startSale",
      "outputs": [],
      "stateMutability": "nonpayable",
      "type": "function"
    },
    {
      "inputs": [
        {
          "internalType": "bytes4",
          "name": "interfaceId",
          "type": "bytes4"
        }
      ],
      "name": "supportsInterface",
      "outputs": [
        {
          "internalType": "bool",
          "name": "",
          "type": "bool"
        }
      ],
      "stateMutability": "view",
      "type": "function"
    },
    {
      "inputs": [],
      "name": "symbol",
      "outputs": [
        {
          "internalType": "string",
          "name": "",
          "type": "string"
        }
      ],
      "stateMutability": "view",
      "type": "function"
    },
    {
      "inputs": [
        {
          "internalType": "uint256",
          "name": "index",
          "type": "uint256"
        }
      ],
      "name": "tokenByIndex",
      "outputs": [
        {
          "internalType": "uint256",
          "name": "",
          "type": "uint256"
        }
      ],
      "stateMutability": "view",
      "type": "function"
    },
    {
      "inputs": [
        {
          "internalType": "uint256",
          "name": "tokenId",
          "type": "uint256"
        }
      ],
      "name": "tokenExists",
      "outputs": [
        {
          "internalType": "bool",
          "name": "",
          "type": "bool"
        }
      ],
      "stateMutability": "view",
      "type": "function"
    },
    {
      "inputs": [
        {
          "internalType": "address",
          "name": "owner",
          "type": "address"
        },
        {
          "internalType": "uint256",
          "name": "index",
          "type": "uint256"
        }
      ],
      "name": "tokenOfOwnerByIndex",
      "outputs": [
        {
          "internalType": "uint256",
          "name": "",
          "type": "uint256"
        }
      ],
      "stateMutability": "view",
      "type": "function"
    },
    {
      "inputs": [
        {
          "internalType": "uint256",
          "name": "tokenId",
          "type": "uint256"
        }
      ],
      "name": "tokenURI",
      "outputs": [
        {
          "internalType": "string",
          "name": "",
          "type": "string"
        }
      ],
      "stateMutability": "view",
      "type": "function"
    },
    {
      "inputs": [],
      "name": "totalSupply",
      "outputs": [
        {
          "internalType": "uint256",
          "name": "",
          "type": "uint256"
        }
      ],
      "stateMutability": "view",
      "type": "function"
    },
    {
      "inputs": [
        {
          "internalType": "address",
          "name": "from",
          "type": "address"
        },
        {
          "internalType": "address",
          "name": "to",
          "type": "address"
        },
        {
          "internalType": "uint256",
          "name": "tokenId",
          "type": "uint256"
        }
      ],
      "name": "transferFrom",
      "outputs": [],
      "stateMutability": "nonpayable",
      "type": "function"
    },
    {
      "inputs": [
        {
          "internalType": "address",
          "name": "newOwner",
          "type": "address"
        }
      ],
      "name": "transferOwnership",
      "outputs": [],
      "stateMutability": "nonpayable",
      "type": "function"
    },
    {
      "inputs": [],
      "name": "unpause",
      "outputs": [],
      "stateMutability": "nonpayable",
      "type": "function"
    }
  ],
  "bytecode": "0x60806040526000601260006101000a81548160ff0219169083151502179055503480156200002c57600080fd5b506040518060400160405280600881526020017f546f6b656e4261740000000000000000000000000000000000000000000000008152506040518060400160405280600881526020017f546f6b656e426174000000000000000000000000000000000000000000000000815250604051806060016040528060228152602001620061dc6022913982828160029080519060200190620000cd9291906200060f565b508060039080519060200190620000e69291906200060f565b5050506000600c60006101000a81548160ff02191690831515021790555080600e90805190602001906200011c9291906200060f565b50620001416000801b62000135620001ec60201b60201c565b6200020860201b60201c565b620001827f9f2df0fed2c77648de5860a4cc508cd0818c85b8b8a1ab4ceeef8d981c8956a662000176620001ec60201b60201c565b6200020860201b60201c565b620001c37f65d7a28e3265b37a6474929f336521b332c1681b933f6cb9f3376673440d862a620001b7620001ec60201b60201c565b6200020860201b60201c565b505050620001e6620001da620001ec60201b60201c565b6200021e60201b60201c565b62000724565b600062000203620002e460201b620019f41760201c565b905090565b6200021a82826200039760201b60201c565b5050565b6000600f60009054906101000a900473ffffffffffffffffffffffffffffffffffffffff16905081600f60006101000a81548173ffffffffffffffffffffffffffffffffffffffff021916908373ffffffffffffffffffffffffffffffffffffffff1602179055508173ffffffffffffffffffffffffffffffffffffffff168173ffffffffffffffffffffffffffffffffffffffff167f8be0079c531659141344cd1fd0a4f28419497f9722a3daafe3b4186f6b6457e060405160405180910390a35050565b60003073ffffffffffffffffffffffffffffffffffffffff163373ffffffffffffffffffffffffffffffffffffffff1614156200039057600080368080601f016020809104026020016040519081016040528093929190818152602001838380828437600081840152601f19601f820116905080830192505050505050509050600080369050905073ffffffffffffffffffffffffffffffffffffffff81830151169250505062000394565b3390505b90565b620003ae8282620003df60201b62001aa51760201c565b620003da8160016000858152602001908152602001600020620004d060201b62001b851790919060201c565b505050565b620003f182826200050860201b60201c565b620004cc57600160008084815260200190815260200160002060000160008373ffffffffffffffffffffffffffffffffffffffff1673ffffffffffffffffffffffffffffffffffffffff16815260200190815260200160002060006101000a81548160ff02191690831515021790555062000471620001ec60201b60201c565b73ffffffffffffffffffffffffffffffffffffffff168173ffffffffffffffffffffffffffffffffffffffff16837f2f8788117e7eff1d82e926ec794901d17c78024a50270940304540a733656f0d60405160405180910390a45b5050565b600062000500836000018373ffffffffffffffffffffffffffffffffffffffff1660001b6200057260201b60201c565b905092915050565b600080600084815260200190815260200160002060000160008373ffffffffffffffffffffffffffffffffffffffff1673ffffffffffffffffffffffffffffffffffffffff16815260200190815260200160002060009054906101000a900460ff16905092915050565b6000620005868383620005ec60201b60201c565b620005e1578260000182908060018154018082558091505060019003906000526020600020016000909190919091505582600001805490508360010160008481526020019081526020016000208190555060019050620005e6565b600090505b92915050565b600080836001016000848152602001908152602001600020541415905092915050565b8280546200061d90620006bf565b90600052602060002090601f0160209004810192826200064157600085556200068d565b82601f106200065c57805160ff19168380011785556200068d565b828001600101855582156200068d579182015b828111156200068c5782518255916020019190600101906200066f565b5b5090506200069c9190620006a0565b5090565b5b80821115620006bb576000816000905550600101620006a1565b5090565b60006002820490506001821680620006d857607f821691505b60208210811415620006ef57620006ee620006f5565b5b50919050565b7f4e487b7100000000000000000000000000000000000000000000000000000000600052602260045260246000fd5b615aa880620007346000396000f3fe6080604052600436106102665760003560e01c80635c975abb11610144578063a22cb465116100b6578063d53913931161007a578063d53913931461091c578063d547741f14610947578063e63ab1e914610970578063e985e9c51461099b578063f2fde38b146109d8578063f47c84c514610a0157610266565b8063a22cb46514610839578063b66a0e5d14610862578063b88d4fde14610879578063c87b56dd146108a2578063ca15c873146108df57610266565b80638456cb59116101085780638456cb59146107275780638da5cb5b1461073e5780639010d07c1461076957806391d14854146107a657806395d89b41146107e3578063a217fddf1461080e57610266565b80635c975abb146106425780636352211e1461066d5780636a627842146106aa57806370a08231146106d3578063715018a61461071057610266565b8063248a9ca3116101dd5780633f4ba83a116101a15780633f4ba83a1461055a57806342842e0e1461057157806342966c681461059a5780634dc1dbec146105c35780634f6ccce7146105ee57806355367ba91461062b57610266565b8063248a9ca31461046557806329e0a2ac146104a25780632f2ff15d146104cb5780632f745c59146104f457806336568abe1461053157610266565b806306fdde031161022f57806306fdde0314610355578063081812fc14610380578063095ea7b3146103bd57806318160ddd146103e65780631c8b232d1461041157806323b872dd1461043c57610266565b8062923f9e1461026b57806301173a74146102a8578063013054c2146102c457806301ffc9a7146102ed57806303824f761461032a575b600080fd5b34801561027757600080fd5b50610292600480360381019061028d9190614422565b610a2c565b60405161029f9190614a72565b60405180910390f35b6102c260048036038101906102bd9190614188565b610a3e565b005b3480156102d057600080fd5b506102eb60048036038101906102e69190614422565b610c14565b005b3480156102f957600080fd5b50610314600480360381019061030f91906143d0565b610d15565b6040516103219190614a72565b60405180910390f35b34801561033657600080fd5b5061033f610d27565b60405161034c9190614a72565b60405180910390f35b34801561036157600080fd5b5061036a610d49565b6040516103779190614aa8565b60405180910390f35b34801561038c57600080fd5b506103a760048036038101906103a29190614422565b610ddb565b6040516103b49190614a0b565b60405180910390f35b3480156103c957600080fd5b506103e460048036038101906103df91906142f3565b610e21565b005b3480156103f257600080fd5b506103fb610f39565b6040516104089190614eaa565b60405180910390f35b34801561041d57600080fd5b50610426610f46565b6040516104339190614a72565b60405180910390f35b34801561044857600080fd5b50610463600480360381019061045e91906141ed565b610f59565b005b34801561047157600080fd5b5061048c6004803603810190610487919061432f565b610fb9565b6040516104999190614a8d565b60405180910390f35b3480156104ae57600080fd5b506104c960048036038101906104c49190614422565b610fd8565b005b3480156104d757600080fd5b506104f260048036038101906104ed9190614358565b6110a2565b005b34801561050057600080fd5b5061051b600480360381019061051691906142f3565b6110c3565b6040516105289190614eaa565b60405180910390f35b34801561053d57600080fd5b5061055860048036038101906105539190614358565b611168565b005b34801561056657600080fd5b5061056f6111eb565b005b34801561057d57600080fd5b50610598600480360381019061059391906141ed565b611265565b005b3480156105a657600080fd5b506105c160048036038101906105bc9190614422565b611285565b005b3480156105cf57600080fd5b506105d86112e1565b6040516105e59190614eaa565b60405180910390f35b3480156105fa57600080fd5b5061061560048036038101906106109190614422565b6112e7565b6040516106229190614eaa565b60405180910390f35b34801561063757600080fd5b5061064061137e565b005b34801561064e57600080fd5b506106576113a3565b6040516106649190614a72565b60405180910390f35b34801561067957600080fd5b50610694600480360381019061068f9190614422565b6113ba565b6040516106a19190614a0b565b60405180910390f35b3480156106b657600080fd5b506106d160048036038101906106cc9190614188565b611441565b005b3480156106df57600080fd5b506106fa60048036038101906106f59190614188565b6114d1565b6040516107079190614eaa565b60405180910390f35b34801561071c57600080fd5b50610725611589565b005b34801561073357600080fd5b5061073c61159d565b005b34801561074a57600080fd5b50610753611617565b6040516107609190614a0b565b60405180910390f35b34801561077557600080fd5b50610790600480360381019061078b9190614394565b611641565b60405161079d9190614a0b565b60405180910390f35b3480156107b257600080fd5b506107cd60048036038101906107c89190614358565b611670565b6040516107da9190614a72565b60405180910390f35b3480156107ef57600080fd5b506107f86116da565b6040516108059190614aa8565b60405180910390f35b34801561081a57600080fd5b5061082361176c565b6040516108309190614a8d565b60405180910390f35b34801561084557600080fd5b50610860600480360381019061085b91906142b7565b611773565b005b34801561086e57600080fd5b50610877611789565b005b34801561088557600080fd5b506108a0600480360381019061089b919061423c565b6117ae565b005b3480156108ae57600080fd5b506108c960048036038101906108c49190614422565b611810565b6040516108d69190614aa8565b60405180910390f35b3480156108eb57600080fd5b506109066004803603810190610901919061432f565b611878565b6040516109139190614eaa565b60405180910390f35b34801561092857600080fd5b5061093161189c565b60405161093e9190614a8d565b60405180910390f35b34801561095357600080fd5b5061096e60048036038101906109699190614358565b6118c0565b005b34801561097c57600080fd5b506109856118e1565b6040516109929190614a8d565b60405180910390f35b3480156109a757600080fd5b506109c260048036038101906109bd91906141b1565b611905565b6040516109cf9190614a72565b60405180910390f35b3480156109e457600080fd5b506109ff60048036038101906109fa9190614188565b61196b565b005b348015610a0d57600080fd5b50610a166119ef565b604051610a239190614eaa565b60405180910390f35b6000610a3782611bb5565b9050919050565b601260009054906101000a900460ff1680610a8b5750610a5c611617565b73ffffffffffffffffffffffffffffffffffffffff163373ffffffffffffffffffffffffffffffffffffffff16145b610aca576040517f08c379a0000000000000000000000000000000000000000000000000000000008152600401610ac190614b2a565b60405180910390fd5b6040610ae76001610ad9610f39565b611bf690919063ffffffff16565b111580610b265750610af7611617565b73ffffffffffffffffffffffffffffffffffffffff163373ffffffffffffffffffffffffffffffffffffffff16145b610b65576040517f08c379a0000000000000000000000000000000000000000000000000000000008152600401610b5c90614c8a565b60405180910390fd5b60115434148015610b765750600034115b610bb5576040517f08c379a0000000000000000000000000000000000000000000000000000000008152600401610bac90614e2a565b60405180910390fd5b6000610bc16010611c0c565b9050610bcd8282611c1a565b610bd76010611c38565b7fb9203d657e9c0ec8274c818292ab0f58b04e1970050716891770eb1bab5d655e8183604051610c08929190614ec5565b60405180910390a15050565b610c1d81611bb5565b610c5c576040517f08c379a0000000000000000000000000000000000000000000000000000000008152600401610c5390614d4a565b60405180910390fd5b3373ffffffffffffffffffffffffffffffffffffffff16610c7c826113ba565b73ffffffffffffffffffffffffffffffffffffffff1614610cd2576040517f08c379a0000000000000000000000000000000000000000000000000000000008152600401610cc990614c6a565b60405180910390fd5b610cdb81611c4e565b7f82498456531a1065f689ba348ce20bda781238c424cf36748dd40bc282831e0381604051610d0a9190614eaa565b60405180910390a150565b6000610d2082611d9c565b9050919050565b60006040610d33610f39565b10610d415760019050610d46565b600090505b90565b606060028054610d5890615155565b80601f0160208091040260200160405190810160405280929190818152602001828054610d8490615155565b8015610dd15780601f10610da657610100808354040283529160200191610dd1565b820191906000526020600020905b815481529060010190602001808311610db457829003601f168201915b5050505050905090565b6000610de682611e16565b6006600083815260200190815260200160002060009054906101000a900473ffffffffffffffffffffffffffffffffffffffff169050919050565b6000610e2c826113ba565b90508073ffffffffffffffffffffffffffffffffffffffff168373ffffffffffffffffffffffffffffffffffffffff161415610e9d576040517f08c379a0000000000000000000000000000000000000000000000000000000008152600401610e9490614daa565b60405180910390fd5b8073ffffffffffffffffffffffffffffffffffffffff16610ebc611e61565b73ffffffffffffffffffffffffffffffffffffffff161480610eeb5750610eea81610ee5611e61565b611905565b5b610f2a576040517f08c379a0000000000000000000000000000000000000000000000000000000008152600401610f2190614dca565b60405180910390fd5b610f348383611e70565b505050565b6000600a80549050905090565b601260009054906101000a900460ff1681565b610f6a610f64611e61565b82611f29565b610fa9576040517f08c379a0000000000000000000000000000000000000000000000000000000008152600401610fa090614b4a565b60405180910390fd5b610fb4838383611fbe565b505050565b6000806000838152602001908152602001600020600101549050919050565b610fe06122b8565b610fe8611617565b73ffffffffffffffffffffffffffffffffffffffff163373ffffffffffffffffffffffffffffffffffffffff1614611055576040517f08c379a000000000000000000000000000000000000000000000000000000000815260040161104c90614d0a565b60405180910390fd5b60008111611098576040517f08c379a000000000000000000000000000000000000000000000000000000000815260040161108f90614cca565b60405180910390fd5b8060118190555050565b6110ab82610fb9565b6110b481612336565b6110be838361234a565b505050565b60006110ce836114d1565b821061110f576040517f08c379a000000000000000000000000000000000000000000000000000000000815260040161110690614b6a565b60405180910390fd5b600860008473ffffffffffffffffffffffffffffffffffffffff1673ffffffffffffffffffffffffffffffffffffffff168152602001908152602001600020600083815260200190815260200160002054905092915050565b611170611e61565b73ffffffffffffffffffffffffffffffffffffffff168173ffffffffffffffffffffffffffffffffffffffff16146111dd576040517f08c379a00000000000000000000000000000000000000000000000000000000081526004016111d490614e8a565b60405180910390fd5b6111e7828261237e565b5050565b61121c7f65d7a28e3265b37a6474929f336521b332c1681b933f6cb9f3376673440d862a611217611e61565b611670565b61125b576040517f08c379a000000000000000000000000000000000000000000000000000000000815260040161125290614e6a565b60405180910390fd5b6112636123b2565b565b611280838383604051806020016040528060008152506117ae565b505050565b611296611290611e61565b82611f29565b6112d5576040517f08c379a00000000000000000000000000000000000000000000000000000000081526004016112cc90614b4a565b60405180910390fd5b6112de81611c4e565b50565b60115481565b60006112f1610f39565b8210611332576040517f08c379a000000000000000000000000000000000000000000000000000000000815260040161132990614dea565b60405180910390fd5b600a828154811061136c577f4e487b7100000000000000000000000000000000000000000000000000000000600052603260045260246000fd5b90600052602060002001549050919050565b6113866122b8565b6000601260006101000a81548160ff021916908315150217905550565b6000600c60009054906101000a900460ff16905090565b6000806113c683612415565b9050600073ffffffffffffffffffffffffffffffffffffffff168173ffffffffffffffffffffffffffffffffffffffff161415611438576040517f08c379a000000000000000000000000000000000000000000000000000000000815260040161142f90614d8a565b60405180910390fd5b80915050919050565b6114727f9f2df0fed2c77648de5860a4cc508cd0818c85b8b8a1ab4ceeef8d981c8956a661146d611e61565b611670565b6114b1576040517f08c379a00000000000000000000000000000000000000000000000000000000081526004016114a890614e4a565b60405180910390fd5b6114c4816114bf600d611c0c565b612452565b6114ce600d611c38565b50565b60008073ffffffffffffffffffffffffffffffffffffffff168273ffffffffffffffffffffffffffffffffffffffff161415611542576040517f08c379a000000000000000000000000000000000000000000000000000000000815260040161153990614cea565b60405180910390fd5b600560008373ffffffffffffffffffffffffffffffffffffffff1673ffffffffffffffffffffffffffffffffffffffff168152602001908152602001600020549050919050565b6115916122b8565b61159b6000612670565b565b6115ce7f65d7a28e3265b37a6474929f336521b332c1681b933f6cb9f3376673440d862a6115c9611e61565b611670565b61160d576040517f08c379a000000000000000000000000000000000000000000000000000000000815260040161160490614c0a565b60405180910390fd5b611615612736565b565b6000600f60009054906101000a900473ffffffffffffffffffffffffffffffffffffffff16905090565b6000611668826001600086815260200190815260200160002061279990919063ffffffff16565b905092915050565b600080600084815260200190815260200160002060000160008373ffffffffffffffffffffffffffffffffffffffff1673ffffffffffffffffffffffffffffffffffffffff16815260200190815260200160002060009054906101000a900460ff16905092915050565b6060600380546116e990615155565b80601f016020809104026020016040519081016040528092919081815260200182805461171590615155565b80156117625780601f1061173757610100808354040283529160200191611762565b820191906000526020600020905b81548152906001019060200180831161174557829003601f168201915b5050505050905090565b6000801b81565b61178561177e611e61565b83836127b3565b5050565b6117916122b8565b6001601260006101000a81548160ff021916908315150217905550565b6117bf6117b9611e61565b83611f29565b6117fe576040517f08c379a00000000000000000000000000000000000000000000000000000000081526004016117f590614b4a565b60405180910390fd5b61180a84848484612920565b50505050565b606061181b82611e16565b600061182561297c565b905060008151116118455760405180602001604052806000815250611870565b8061184f84612a0e565b6040516020016118609291906149ad565b6040516020818303038152906040525b915050919050565b600061189560016000848152602001908152602001600020612b32565b9050919050565b7f9f2df0fed2c77648de5860a4cc508cd0818c85b8b8a1ab4ceeef8d981c8956a681565b6118c982610fb9565b6118d281612336565b6118dc838361237e565b505050565b7f65d7a28e3265b37a6474929f336521b332c1681b933f6cb9f3376673440d862a81565b60007358807bad0b376efc12f5ad86aac70e78ed67deae73ffffffffffffffffffffffffffffffffffffffff168273ffffffffffffffffffffffffffffffffffffffff1614156119585760019050611965565b6119628383612b47565b90505b92915050565b6119736122b8565b600073ffffffffffffffffffffffffffffffffffffffff168173ffffffffffffffffffffffffffffffffffffffff1614156119e3576040517f08c379a00000000000000000000000000000000000000000000000000000000081526004016119da90614baa565b60405180910390fd5b6119ec81612670565b50565b604081565b60003073ffffffffffffffffffffffffffffffffffffffff163373ffffffffffffffffffffffffffffffffffffffff161415611a9e57600080368080601f016020809104026020016040519081016040528093929190818152602001838380828437600081840152601f19601f820116905080830192505050505050509050600080369050905073ffffffffffffffffffffffffffffffffffffffff818301511692505050611aa2565b3390505b90565b611aaf8282611670565b611b8157600160008084815260200190815260200160002060000160008373ffffffffffffffffffffffffffffffffffffffff1673ffffffffffffffffffffffffffffffffffffffff16815260200190815260200160002060006101000a81548160ff021916908315150217905550611b26611e61565b73ffffffffffffffffffffffffffffffffffffffff168173ffffffffffffffffffffffffffffffffffffffff16837f2f8788117e7eff1d82e926ec794901d17c78024a50270940304540a733656f0d60405160405180910390a45b5050565b6000611bad836000018373ffffffffffffffffffffffffffffffffffffffff1660001b612bdb565b905092915050565b60008073ffffffffffffffffffffffffffffffffffffffff16611bd783612415565b73ffffffffffffffffffffffffffffffffffffffff1614159050919050565b60008183611c049190614f87565b905092915050565b600081600001549050919050565b611c34828260405180602001604052806000815250612c4b565b5050565b6001816000016000828254019250508190555050565b6000611c59826113ba565b9050611c69816000846001612ca6565b611c72826113ba565b90506006600083815260200190815260200160002060006101000a81549073ffffffffffffffffffffffffffffffffffffffff02191690556001600560008373ffffffffffffffffffffffffffffffffffffffff1673ffffffffffffffffffffffffffffffffffffffff168152602001908152602001600020600082825403925050819055506004600083815260200190815260200160002060006101000a81549073ffffffffffffffffffffffffffffffffffffffff021916905581600073ffffffffffffffffffffffffffffffffffffffff168273ffffffffffffffffffffffffffffffffffffffff167fddf252ad1be2c89b69c2b068fc378daa952ba7f163c4a11628f55a4df523b3ef60405160405180910390a4611d98816000846001612cb8565b5050565b60007f780e9d63000000000000000000000000000000000000000000000000000000007bffffffffffffffffffffffffffffffffffffffffffffffffffffffff1916827bffffffffffffffffffffffffffffffffffffffffffffffffffffffff19161480611e0f5750611e0e82612cbe565b5b9050919050565b611e1f81611bb5565b611e5e576040517f08c379a0000000000000000000000000000000000000000000000000000000008152600401611e5590614d8a565b60405180910390fd5b50565b6000611e6b6119f4565b905090565b816006600083815260200190815260200160002060006101000a81548173ffffffffffffffffffffffffffffffffffffffff021916908373ffffffffffffffffffffffffffffffffffffffff160217905550808273ffffffffffffffffffffffffffffffffffffffff16611ee3836113ba565b73ffffffffffffffffffffffffffffffffffffffff167f8c5be1e5ebec7d5bd14f71427d1e84f3dd0314c0f7b2291e5b200ac8c7c3b92560405160405180910390a45050565b600080611f35836113ba565b90508073ffffffffffffffffffffffffffffffffffffffff168473ffffffffffffffffffffffffffffffffffffffff161480611f775750611f768185611905565b5b80611fb557508373ffffffffffffffffffffffffffffffffffffffff16611f9d84610ddb565b73ffffffffffffffffffffffffffffffffffffffff16145b91505092915050565b8273ffffffffffffffffffffffffffffffffffffffff16611fde826113ba565b73ffffffffffffffffffffffffffffffffffffffff1614612034576040517f08c379a000000000000000000000000000000000000000000000000000000000815260040161202b90614bca565b60405180910390fd5b600073ffffffffffffffffffffffffffffffffffffffff168273ffffffffffffffffffffffffffffffffffffffff1614156120a4576040517f08c379a000000000000000000000000000000000000000000000000000000000815260040161209b90614c2a565b60405180910390fd5b6120b18383836001612ca6565b8273ffffffffffffffffffffffffffffffffffffffff166120d1826113ba565b73ffffffffffffffffffffffffffffffffffffffff1614612127576040517f08c379a000000000000000000000000000000000000000000000000000000000815260040161211e90614bca565b60405180910390fd5b6006600082815260200190815260200160002060006101000a81549073ffffffffffffffffffffffffffffffffffffffff02191690556001600560008573ffffffffffffffffffffffffffffffffffffffff1673ffffffffffffffffffffffffffffffffffffffff168152602001908152602001600020600082825403925050819055506001600560008473ffffffffffffffffffffffffffffffffffffffff1673ffffffffffffffffffffffffffffffffffffffff16815260200190815260200160002060008282540192505081905550816004600083815260200190815260200160002060006101000a81548173ffffffffffffffffffffffffffffffffffffffff021916908373ffffffffffffffffffffffffffffffffffffffff160217905550808273ffffffffffffffffffffffffffffffffffffffff168473ffffffffffffffffffffffffffffffffffffffff167fddf252ad1be2c89b69c2b068fc378daa952ba7f163c4a11628f55a4df523b3ef60405160405180910390a46122b38383836001612cb8565b505050565b6122c0611e61565b73ffffffffffffffffffffffffffffffffffffffff166122de611617565b73ffffffffffffffffffffffffffffffffffffffff1614612334576040517f08c379a000000000000000000000000000000000000000000000000000000000815260040161232b90614d6a565b60405180910390fd5b565b61234781612342611e61565b612da0565b50565b6123548282611aa5565b6123798160016000858152602001908152602001600020611b8590919063ffffffff16565b505050565b6123888282612e25565b6123ad8160016000858152602001908152602001600020612f0690919063ffffffff16565b505050565b6123ba612f36565b6000600c60006101000a81548160ff0219169083151502179055507f5db9ee0a495bf2e6ff9c91a7834c1ba4fdd244a5e8aa4e537bd38aeae4b073aa6123fe611e61565b60405161240b9190614a0b565b60405180910390a1565b60006004600083815260200190815260200160002060009054906101000a900473ffffffffffffffffffffffffffffffffffffffff169050919050565b600073ffffffffffffffffffffffffffffffffffffffff168273ffffffffffffffffffffffffffffffffffffffff1614156124c2576040517f08c379a00000000000000000000000000000000000000000000000000000000081526004016124b990614d2a565b60405180910390fd5b6124cb81611bb5565b1561250b576040517f08c379a000000000000000000000000000000000000000000000000000000000815260040161250290614bea565b60405180910390fd5b612519600083836001612ca6565b61252281611bb5565b15612562576040517f08c379a000000000000000000000000000000000000000000000000000000000815260040161255990614bea565b60405180910390fd5b6001600560008473ffffffffffffffffffffffffffffffffffffffff1673ffffffffffffffffffffffffffffffffffffffff16815260200190815260200160002060008282540192505081905550816004600083815260200190815260200160002060006101000a81548173ffffffffffffffffffffffffffffffffffffffff021916908373ffffffffffffffffffffffffffffffffffffffff160217905550808273ffffffffffffffffffffffffffffffffffffffff16600073ffffffffffffffffffffffffffffffffffffffff167fddf252ad1be2c89b69c2b068fc378daa952ba7f163c4a11628f55a4df523b3ef60405160405180910390a461266c600083836001612cb8565b5050565b6000600f60009054906101000a900473ffffffffffffffffffffffffffffffffffffffff16905081600f60006101000a81548173ffffffffffffffffffffffffffffffffffffffff021916908373ffffffffffffffffffffffffffffffffffffffff1602179055508173ffffffffffffffffffffffffffffffffffffffff168173ffffffffffffffffffffffffffffffffffffffff167f8be0079c531659141344cd1fd0a4f28419497f9722a3daafe3b4186f6b6457e060405160405180910390a35050565b61273e612f7f565b6001600c60006101000a81548160ff0219169083151502179055507f62e78cea01bee320cd4e420270b5ea74000d11b0c9f74754ebdbfc544b05a258612782611e61565b60405161278f9190614a0b565b60405180910390a1565b60006127a88360000183612fc9565b60001c905092915050565b8173ffffffffffffffffffffffffffffffffffffffff168373ffffffffffffffffffffffffffffffffffffffff161415612822576040517f08c379a000000000000000000000000000000000000000000000000000000000815260040161281990614c4a565b60405180910390fd5b80600760008573ffffffffffffffffffffffffffffffffffffffff1673ffffffffffffffffffffffffffffffffffffffff16815260200190815260200160002060008473ffffffffffffffffffffffffffffffffffffffff1673ffffffffffffffffffffffffffffffffffffffff16815260200190815260200160002060006101000a81548160ff0219169083151502179055508173ffffffffffffffffffffffffffffffffffffffff168373ffffffffffffffffffffffffffffffffffffffff167f17307eab39ab6107e8899845ad3d59bd9653f200f220920489ca2b5937696c31836040516129139190614a72565b60405180910390a3505050565b61292b848484611fbe565b6129378484848461301a565b612976576040517f08c379a000000000000000000000000000000000000000000000000000000000815260040161296d90614b8a565b60405180910390fd5b50505050565b6060600e805461298b90615155565b80601f01602080910402602001604051908101604052809291908181526020018280546129b790615155565b8015612a045780601f106129d957610100808354040283529160200191612a04565b820191906000526020600020905b8154815290600101906020018083116129e757829003601f168201915b5050505050905090565b606060006001612a1d846131b1565b01905060008167ffffffffffffffff811115612a62577f4e487b7100000000000000000000000000000000000000000000000000000000600052604160045260246000fd5b6040519080825280601f01601f191660200182016040528015612a945781602001600182028036833780820191505090505b509050600082602001820190505b600115612b27578080600190039150507f3031323334353637383961626364656600000000000000000000000000000000600a86061a8153600a8581612b11577f4e487b7100000000000000000000000000000000000000000000000000000000600052601260045260246000fd5b0494506000851415612b2257612b27565b612aa2565b819350505050919050565b6000612b40826000016133e8565b9050919050565b6000600760008473ffffffffffffffffffffffffffffffffffffffff1673ffffffffffffffffffffffffffffffffffffffff16815260200190815260200160002060008373ffffffffffffffffffffffffffffffffffffffff1673ffffffffffffffffffffffffffffffffffffffff16815260200190815260200160002060009054906101000a900460ff16905092915050565b6000612be783836133f9565b612c40578260000182908060018154018082558091505060019003906000526020600020016000909190919091505582600001805490508360010160008481526020019081526020016000208190555060019050612c45565b600090505b92915050565b612c558383612452565b612c62600084848461301a565b612ca1576040517f08c379a0000000000000000000000000000000000000000000000000000000008152600401612c9890614b8a565b60405180910390fd5b505050565b612cb28484848461341c565b50505050565b50505050565b60007f80ac58cd000000000000000000000000000000000000000000000000000000007bffffffffffffffffffffffffffffffffffffffffffffffffffffffff1916827bffffffffffffffffffffffffffffffffffffffffffffffffffffffff19161480612d8957507f5b5e139f000000000000000000000000000000000000000000000000000000007bffffffffffffffffffffffffffffffffffffffffffffffffffffffff1916827bffffffffffffffffffffffffffffffffffffffffffffffffffffffff1916145b80612d995750612d9882613476565b5b9050919050565b612daa8282611670565b612e2157612db7816134f0565b612dc58360001c602061351d565b604051602001612dd69291906149d1565b6040516020818303038152906040526040517f08c379a0000000000000000000000000000000000000000000000000000000008152600401612e189190614aa8565b60405180910390fd5b5050565b612e2f8282611670565b15612f0257600080600084815260200190815260200160002060000160008373ffffffffffffffffffffffffffffffffffffffff1673ffffffffffffffffffffffffffffffffffffffff16815260200190815260200160002060006101000a81548160ff021916908315150217905550612ea7611e61565b73ffffffffffffffffffffffffffffffffffffffff168173ffffffffffffffffffffffffffffffffffffffff16837ff6391f5c32d9c69d2a47ea670b442974b53935d1edc7fd64eb21e047a839171b60405160405180910390a45b5050565b6000612f2e836000018373ffffffffffffffffffffffffffffffffffffffff1660001b613817565b905092915050565b612f3e6113a3565b612f7d576040517f08c379a0000000000000000000000000000000000000000000000000000000008152600401612f7490614b0a565b60405180910390fd5b565b612f876113a3565b15612fc7576040517f08c379a0000000000000000000000000000000000000000000000000000000008152600401612fbe90614caa565b60405180910390fd5b565b6000826000018281548110613007577f4e487b7100000000000000000000000000000000000000000000000000000000600052603260045260246000fd5b9060005260206000200154905092915050565b600061303b8473ffffffffffffffffffffffffffffffffffffffff1661399d565b156131a4578373ffffffffffffffffffffffffffffffffffffffff1663150b7a02613064611e61565b8786866040518563ffffffff1660e01b81526004016130869493929190614a26565b602060405180830381600087803b1580156130a057600080fd5b505af19250505080156130d157506040513d601f19601f820116820180604052508101906130ce91906143f9565b60015b613154573d8060008114613101576040519150601f19603f3d011682016040523d82523d6000602084013e613106565b606091505b5060008151141561314c576040517f08c379a000000000000000000000000000000000000000000000000000000000815260040161314390614b8a565b60405180910390fd5b805181602001fd5b63150b7a0260e01b7bffffffffffffffffffffffffffffffffffffffffffffffffffffffff1916817bffffffffffffffffffffffffffffffffffffffffffffffffffffffff1916149150506131a9565b600190505b949350505050565b600080600090507a184f03e93ff9f4daa797ed6e38ed64bf6a1f0100000000000000008310613235577a184f03e93ff9f4daa797ed6e38ed64bf6a1f010000000000000000838161322b577f4e487b7100000000000000000000000000000000000000000000000000000000600052601260045260246000fd5b0492506040810190505b6d04ee2d6d415b85acef81000000008310613298576d04ee2d6d415b85acef8100000000838161328e577f4e487b7100000000000000000000000000000000000000000000000000000000600052601260045260246000fd5b0492506020810190505b662386f26fc1000083106132ed57662386f26fc1000083816132e3577f4e487b7100000000000000000000000000000000000000000000000000000000600052601260045260246000fd5b0492506010810190505b6305f5e100831061333c576305f5e1008381613332577f4e487b7100000000000000000000000000000000000000000000000000000000600052601260045260246000fd5b0492506008810190505b612710831061338757612710838161337d577f4e487b7100000000000000000000000000000000000000000000000000000000600052601260045260246000fd5b0492506004810190505b606483106133d057606483816133c6577f4e487b7100000000000000000000000000000000000000000000000000000000600052601260045260246000fd5b0492506002810190505b600a83106133df576001810190505b80915050919050565b600081600001805490509050919050565b600080836001016000848152602001908152602001600020541415905092915050565b613428848484846139c0565b6134306113a3565b15613470576040517f08c379a000000000000000000000000000000000000000000000000000000000815260040161346790614aea565b60405180910390fd5b50505050565b60007f5a05180f000000000000000000000000000000000000000000000000000000007bffffffffffffffffffffffffffffffffffffffffffffffffffffffff1916827bffffffffffffffffffffffffffffffffffffffffffffffffffffffff191614806134e957506134e882613b20565b5b9050919050565b60606135168273ffffffffffffffffffffffffffffffffffffffff16601460ff1661351d565b9050919050565b6060600060028360026135309190614fdd565b61353a9190614f87565b67ffffffffffffffff811115613579577f4e487b7100000000000000000000000000000000000000000000000000000000600052604160045260246000fd5b6040519080825280601f01601f1916602001820160405280156135ab5781602001600182028036833780820191505090505b5090507f300000000000000000000000000000000000000000000000000000000000000081600081518110613609577f4e487b7100000000000000000000000000000000000000000000000000000000600052603260045260246000fd5b60200101907effffffffffffffffffffffffffffffffffffffffffffffffffffffffffffff1916908160001a9053507f780000000000000000000000000000000000000000000000000000000000000081600181518110613693577f4e487b7100000000000000000000000000000000000000000000000000000000600052603260045260246000fd5b60200101907effffffffffffffffffffffffffffffffffffffffffffffffffffffffffffff1916908160001a905350600060018460026136d39190614fdd565b6136dd9190614f87565b90505b60018111156137c9577f3031323334353637383961626364656600000000000000000000000000000000600f861660108110613745577f4e487b7100000000000000000000000000000000000000000000000000000000600052603260045260246000fd5b1a60f81b828281518110613782577f4e487b7100000000000000000000000000000000000000000000000000000000600052603260045260246000fd5b60200101907effffffffffffffffffffffffffffffffffffffffffffffffffffffffffffff1916908160001a905350600485901c9450806137c29061512b565b90506136e0565b506000841461380d576040517f08c379a000000000000000000000000000000000000000000000000000000000815260040161380490614aca565b60405180910390fd5b8091505092915050565b600080836001016000848152602001908152602001600020549050600081146139915760006001826138499190615037565b90506000600186600001805490506138619190615037565b905081811461391c5760008660000182815481106138a8577f4e487b7100000000000000000000000000000000000000000000000000000000600052603260045260246000fd5b90600052602060002001549050808760000184815481106138f2577f4e487b7100000000000000000000000000000000000000000000000000000000600052603260045260246000fd5b90600052602060002001819055508387600101600083815260200190815260200160002081905550505b85600001805480613956577f4e487b7100000000000000000000000000000000000000000000000000000000600052603160045260246000fd5b600190038181906000526020600020016000905590558560010160008681526020019081526020016000206000905560019350505050613997565b60009150505b92915050565b6000808273ffffffffffffffffffffffffffffffffffffffff163b119050919050565b6139cc84848484613b9a565b6001811115613a10576040517f08c379a0000000000000000000000000000000000000000000000000000000008152600401613a0790614e0a565b60405180910390fd5b6000829050600073ffffffffffffffffffffffffffffffffffffffff168573ffffffffffffffffffffffffffffffffffffffff161415613a5857613a5381613cc0565b613a97565b8373ffffffffffffffffffffffffffffffffffffffff168573ffffffffffffffffffffffffffffffffffffffff1614613a9657613a958582613d09565b5b5b600073ffffffffffffffffffffffffffffffffffffffff168473ffffffffffffffffffffffffffffffffffffffff161415613ada57613ad581613e76565b613b19565b8473ffffffffffffffffffffffffffffffffffffffff168473ffffffffffffffffffffffffffffffffffffffff1614613b1857613b178482613fb9565b5b5b5050505050565b60007f7965db0b000000000000000000000000000000000000000000000000000000007bffffffffffffffffffffffffffffffffffffffffffffffffffffffff1916827bffffffffffffffffffffffffffffffffffffffffffffffffffffffff19161480613b935750613b9282614038565b5b9050919050565b6001811115613cba57600073ffffffffffffffffffffffffffffffffffffffff168473ffffffffffffffffffffffffffffffffffffffff1614613c2e5780600560008673ffffffffffffffffffffffffffffffffffffffff1673ffffffffffffffffffffffffffffffffffffffff1681526020019081526020016000206000828254613c269190615037565b925050819055505b600073ffffffffffffffffffffffffffffffffffffffff168373ffffffffffffffffffffffffffffffffffffffff1614613cb95780600560008573ffffffffffffffffffffffffffffffffffffffff1673ffffffffffffffffffffffffffffffffffffffff1681526020019081526020016000206000828254613cb19190614f87565b925050819055505b5b50505050565b600a80549050600b600083815260200190815260200160002081905550600a81908060018154018082558091505060019003906000526020600020016000909190919091505550565b60006001613d16846114d1565b613d209190615037565b9050600060096000848152602001908152602001600020549050818114613e05576000600860008673ffffffffffffffffffffffffffffffffffffffff1673ffffffffffffffffffffffffffffffffffffffff168152602001908152602001600020600084815260200190815260200160002054905080600860008773ffffffffffffffffffffffffffffffffffffffff1673ffffffffffffffffffffffffffffffffffffffff168152602001908152602001600020600084815260200190815260200160002081905550816009600083815260200190815260200160002081905550505b6009600084815260200190815260200160002060009055600860008573ffffffffffffffffffffffffffffffffffffffff1673ffffffffffffffffffffffffffffffffffffffff16815260200190815260200160002060008381526020019081526020016000206000905550505050565b60006001600a80549050613e8a9190615037565b90506000600b60008481526020019081526020016000205490506000600a8381548110613ee0577f4e487b7100000000000000000000000000000000000000000000000000000000600052603260045260246000fd5b9060005260206000200154905080600a8381548110613f28577f4e487b7100000000000000000000000000000000000000000000000000000000600052603260045260246000fd5b906000526020600020018190555081600b600083815260200190815260200160002081905550600b600085815260200190815260200160002060009055600a805480613f9d577f4e487b7100000000000000000000000000000000000000000000000000000000600052603160045260246000fd5b6001900381819060005260206000200160009055905550505050565b6000613fc4836114d1565b905081600860008573ffffffffffffffffffffffffffffffffffffffff1673ffffffffffffffffffffffffffffffffffffffff168152602001908152602001600020600083815260200190815260200160002081905550806009600084815260200190815260200160002081905550505050565b60007f01ffc9a7000000000000000000000000000000000000000000000000000000007bffffffffffffffffffffffffffffffffffffffffffffffffffffffff1916827bffffffffffffffffffffffffffffffffffffffffffffffffffffffff1916149050919050565b60006140b56140b084614f13565b614eee565b9050828152602081018484840111156140cd57600080fd5b6140d88482856150e9565b509392505050565b6000813590506140ef816159ff565b92915050565b60008135905061410481615a16565b92915050565b60008135905061411981615a2d565b92915050565b60008135905061412e81615a44565b92915050565b60008151905061414381615a44565b92915050565b600082601f83011261415a57600080fd5b813561416a8482602086016140a2565b91505092915050565b60008135905061418281615a5b565b92915050565b60006020828403121561419a57600080fd5b60006141a8848285016140e0565b91505092915050565b600080604083850312156141c457600080fd5b60006141d2858286016140e0565b92505060206141e3858286016140e0565b9150509250929050565b60008060006060848603121561420257600080fd5b6000614210868287016140e0565b9350506020614221868287016140e0565b925050604061423286828701614173565b9150509250925092565b6000806000806080858703121561425257600080fd5b6000614260878288016140e0565b9450506020614271878288016140e0565b935050604061428287828801614173565b925050606085013567ffffffffffffffff81111561429f57600080fd5b6142ab87828801614149565b91505092959194509250565b600080604083850312156142ca57600080fd5b60006142d8858286016140e0565b92505060206142e9858286016140f5565b9150509250929050565b6000806040838503121561430657600080fd5b6000614314858286016140e0565b925050602061432585828601614173565b9150509250929050565b60006020828403121561434157600080fd5b600061434f8482850161410a565b91505092915050565b6000806040838503121561436b57600080fd5b60006143798582860161410a565b925050602061438a858286016140e0565b9150509250929050565b600080604083850312156143a757600080fd5b60006143b58582860161410a565b92505060206143c685828601614173565b9150509250929050565b6000602082840312156143e257600080fd5b60006143f08482850161411f565b91505092915050565b60006020828403121561440b57600080fd5b600061441984828501614134565b91505092915050565b60006020828403121561443457600080fd5b600061444284828501614173565b91505092915050565b6144548161506b565b82525050565b6144638161507d565b82525050565b61447281615089565b82525050565b600061448382614f44565b61448d8185614f5a565b935061449d8185602086016150f8565b6144a681615245565b840191505092915050565b60006144bc82614f4f565b6144c68185614f6b565b93506144d68185602086016150f8565b6144df81615245565b840191505092915050565b60006144f582614f4f565b6144ff8185614f7c565b935061450f8185602086016150f8565b80840191505092915050565b6000614528602083614f6b565b915061453382615256565b602082019050919050565b600061454b602b83614f6b565b91506145568261527f565b604082019050919050565b600061456e601483614f6b565b9150614579826152ce565b602082019050919050565b6000614591601383614f6b565b915061459c826152f7565b602082019050919050565b60006145b4602d83614f6b565b91506145bf82615320565b604082019050919050565b60006145d7602b83614f6b565b91506145e28261536f565b604082019050919050565b60006145fa603283614f6b565b9150614605826153be565b604082019050919050565b600061461d602683614f6b565b91506146288261540d565b604082019050919050565b6000614640602583614f6b565b915061464b8261545c565b604082019050919050565b6000614663601c83614f6b565b915061466e826154ab565b602082019050919050565b6000614686603e83614f6b565b9150614691826154d4565b604082019050919050565b60006146a9602483614f6b565b91506146b482615523565b604082019050919050565b60006146cc601983614f6b565b91506146d782615572565b602082019050919050565b60006146ef601a83614f6b565b91506146fa8261559b565b602082019050919050565b6000614712600883614f6b565b915061471d826155c4565b602082019050919050565b6000614735601083614f6b565b9150614740826155ed565b602082019050919050565b6000614758601e83614f6b565b915061476382615616565b602082019050919050565b600061477b602983614f6b565b91506147868261563f565b604082019050919050565b600061479e601f83614f6b565b91506147a98261568e565b602082019050919050565b60006147c1602083614f6b565b91506147cc826156b7565b602082019050919050565b60006147e4601583614f6b565b91506147ef826156e0565b602082019050919050565b6000614807602083614f6b565b915061481282615709565b602082019050919050565b600061482a601883614f6b565b915061483582615732565b602082019050919050565b600061484d602183614f6b565b91506148588261575b565b604082019050919050565b6000614870603d83614f6b565b915061487b826157aa565b604082019050919050565b6000614893602c83614f6b565b915061489e826157f9565b604082019050919050565b60006148b6601783614f7c565b91506148c182615848565b601782019050919050565b60006148d9603583614f6b565b91506148e482615871565b604082019050919050565b60006148fc600b83614f6b565b9150614907826158c0565b602082019050919050565b600061491f603d83614f6b565b915061492a826158e9565b604082019050919050565b6000614942604083614f6b565b915061494d82615938565b604082019050919050565b6000614965601183614f7c565b915061497082615987565b601182019050919050565b6000614988602f83614f6b565b9150614993826159b0565b604082019050919050565b6149a7816150df565b82525050565b60006149b982856144ea565b91506149c582846144ea565b91508190509392505050565b60006149dc826148a9565b91506149e882856144ea565b91506149f382614958565b91506149ff82846144ea565b91508190509392505050565b6000602082019050614a20600083018461444b565b92915050565b6000608082019050614a3b600083018761444b565b614a48602083018661444b565b614a55604083018561499e565b8181036060830152614a678184614478565b905095945050505050565b6000602082019050614a87600083018461445a565b92915050565b6000602082019050614aa26000830184614469565b92915050565b60006020820190508181036000830152614ac281846144b1565b905092915050565b60006020820190508181036000830152614ae38161451b565b9050919050565b60006020820190508181036000830152614b038161453e565b9050919050565b60006020820190508181036000830152614b2381614561565b9050919050565b60006020820190508181036000830152614b4381614584565b9050919050565b60006020820190508181036000830152614b63816145a7565b9050919050565b60006020820190508181036000830152614b83816145ca565b9050919050565b60006020820190508181036000830152614ba3816145ed565b9050919050565b60006020820190508181036000830152614bc381614610565b9050919050565b60006020820190508181036000830152614be381614633565b9050919050565b60006020820190508181036000830152614c0381614656565b9050919050565b60006020820190508181036000830152614c2381614679565b9050919050565b60006020820190508181036000830152614c438161469c565b9050919050565b60006020820190508181036000830152614c63816146bf565b9050919050565b60006020820190508181036000830152614c83816146e2565b9050919050565b60006020820190508181036000830152614ca381614705565b9050919050565b60006020820190508181036000830152614cc381614728565b9050919050565b60006020820190508181036000830152614ce38161474b565b9050919050565b60006020820190508181036000830152614d038161476e565b9050919050565b60006020820190508181036000830152614d2381614791565b9050919050565b60006020820190508181036000830152614d43816147b4565b9050919050565b60006020820190508181036000830152614d63816147d7565b9050919050565b60006020820190508181036000830152614d83816147fa565b9050919050565b60006020820190508181036000830152614da38161481d565b9050919050565b60006020820190508181036000830152614dc381614840565b9050919050565b60006020820190508181036000830152614de381614863565b9050919050565b60006020820190508181036000830152614e0381614886565b9050919050565b60006020820190508181036000830152614e23816148cc565b9050919050565b60006020820190508181036000830152614e43816148ef565b9050919050565b60006020820190508181036000830152614e6381614912565b9050919050565b60006020820190508181036000830152614e8381614935565b9050919050565b60006020820190508181036000830152614ea38161497b565b9050919050565b6000602082019050614ebf600083018461499e565b92915050565b6000604082019050614eda600083018561499e565b614ee7602083018461444b565b9392505050565b6000614ef8614f09565b9050614f048282615187565b919050565b6000604051905090565b600067ffffffffffffffff821115614f2e57614f2d615216565b5b614f3782615245565b9050602081019050919050565b600081519050919050565b600081519050919050565b600082825260208201905092915050565b600082825260208201905092915050565b600081905092915050565b6000614f92826150df565b9150614f9d836150df565b9250827fffffffffffffffffffffffffffffffffffffffffffffffffffffffffffffffff03821115614fd257614fd16151b8565b5b828201905092915050565b6000614fe8826150df565b9150614ff3836150df565b9250817fffffffffffffffffffffffffffffffffffffffffffffffffffffffffffffffff048311821515161561502c5761502b6151b8565b5b828202905092915050565b6000615042826150df565b915061504d836150df565b9250828210156150605761505f6151b8565b5b828203905092915050565b6000615076826150bf565b9050919050565b60008115159050919050565b6000819050919050565b60007fffffffff0000000000000000000000000000000000000000000000000000000082169050919050565b600073ffffffffffffffffffffffffffffffffffffffff82169050919050565b6000819050919050565b82818337600083830152505050565b60005b838110156151165780820151818401526020810190506150fb565b83811115615125576000848401525b50505050565b6000615136826150df565b9150600082141561514a576151496151b8565b5b600182039050919050565b6000600282049050600182168061516d57607f821691505b60208210811415615181576151806151e7565b5b50919050565b61519082615245565b810181811067ffffffffffffffff821117156151af576151ae615216565b5b80604052505050565b7f4e487b7100000000000000000000000000000000000000000000000000000000600052601160045260246000fd5b7f4e487b7100000000000000000000000000000000000000000000000000000000600052602260045260246000fd5b7f4e487b7100000000000000000000000000000000000000000000000000000000600052604160045260246000fd5b6000601f19601f8301169050919050565b7f537472696e67733a20686578206c656e67746820696e73756666696369656e74600082015250565b7f4552433732315061757361626c653a20746f6b656e207472616e73666572207760008201527f68696c6520706175736564000000000000000000000000000000000000000000602082015250565b7f5061757361626c653a206e6f7420706175736564000000000000000000000000600082015250565b7f73616c65206861736e2774207374617274656400000000000000000000000000600082015250565b7f4552433732313a2063616c6c6572206973206e6f7420746f6b656e206f776e6560008201527f72206f7220617070726f76656400000000000000000000000000000000000000602082015250565b7f455243373231456e756d657261626c653a206f776e657220696e646578206f7560008201527f74206f6620626f756e6473000000000000000000000000000000000000000000602082015250565b7f4552433732313a207472616e7366657220746f206e6f6e20455243373231526560008201527f63656976657220696d706c656d656e7465720000000000000000000000000000602082015250565b7f4f776e61626c653a206e6577206f776e657220697320746865207a65726f206160008201527f6464726573730000000000000000000000000000000000000000000000000000602082015250565b7f4552433732313a207472616e736665722066726f6d20696e636f72726563742060008201527f6f776e6572000000000000000000000000000000000000000000000000000000602082015250565b7f4552433732313a20746f6b656e20616c7265616479206d696e74656400000000600082015250565b7f4552433732315072657365744d696e7465725061757365724175746f49643a2060008201527f6d75737420686176652070617573657220726f6c6520746f2070617573650000602082015250565b7f4552433732313a207472616e7366657220746f20746865207a65726f2061646460008201527f7265737300000000000000000000000000000000000000000000000000000000602082015250565b7f4552433732313a20617070726f766520746f2063616c6c657200000000000000600082015250565b7f796f7520646f6e2774206f776e6564207468697320746f6b656e000000000000600082015250565b7f736f6c64206f7574000000000000000000000000000000000000000000000000600082015250565b7f5061757361626c653a2070617573656400000000000000000000000000000000600082015250565b7f7072696365546f4d696e742068617320746f20626520706f7369746976650000600082015250565b7f4552433732313a2061646472657373207a65726f206973206e6f74206120766160008201527f6c6964206f776e65720000000000000000000000000000000000000000000000602082015250565b7f6f6e6c79206f776e65722063616e2073657420707269636520746f206d697400600082015250565b7f4552433732313a206d696e7420746f20746865207a65726f2061646472657373600082015250565b7f746f6b656e20646f6573206e6f74206578697374730000000000000000000000600082015250565b7f4f776e61626c653a2063616c6c6572206973206e6f7420746865206f776e6572600082015250565b7f4552433732313a20696e76616c696420746f6b656e2049440000000000000000600082015250565b7f4552433732313a20617070726f76616c20746f2063757272656e74206f776e6560008201527f7200000000000000000000000000000000000000000000000000000000000000602082015250565b7f4552433732313a20617070726f76652063616c6c6572206973206e6f7420746f60008201527f6b656e206f776e6572206f7220617070726f76656420666f7220616c6c000000602082015250565b7f455243373231456e756d657261626c653a20676c6f62616c20696e646578206f60008201527f7574206f6620626f756e64730000000000000000000000000000000000000000602082015250565b7f416363657373436f6e74726f6c3a206163636f756e7420000000000000000000600082015250565b7f455243373231456e756d657261626c653a20636f6e736563757469766520747260008201527f616e7366657273206e6f7420737570706f727465640000000000000000000000602082015250565b7f70617920746f206d696e74000000000000000000000000000000000000000000600082015250565b7f4552433732315072657365744d696e7465725061757365724175746f49643a2060008201527f6d7573742068617665206d696e74657220726f6c6520746f206d696e74000000602082015250565b7f4552433732315072657365744d696e7465725061757365724175746f49643a2060008201527f6d75737420686176652070617573657220726f6c6520746f20756e7061757365602082015250565b7f206973206d697373696e6720726f6c6520000000000000000000000000000000600082015250565b7f416363657373436f6e74726f6c3a2063616e206f6e6c792072656e6f756e636560008201527f20726f6c657320666f722073656c660000000000000000000000000000000000602082015250565b615a088161506b565b8114615a1357600080fd5b50565b615a1f8161507d565b8114615a2a57600080fd5b50565b615a3681615089565b8114615a4157600080fd5b50565b615a4d81615093565b8114615a5857600080fd5b50565b615a64816150df565b8114615a6f57600080fd5b5056fea2646970667358221220af3ec65be45e717b2cf1c182109e2510aea64fe0fcaf630bc15a4e9685d0aaeb64736f6c6343000804003368747470733a2f2f6e66742e616c6563747269636f2e776f726b6572732e6465762f",
  "linkReferences": {},
  "deployedLinkReferences": {}
}