{
  "_format": "hh-sol-artifact-1",
  "contractName": "TokenBat",
  "sourceName": "contracts/TokenBat.sol",
  "abi": [
    {
      "inputs": [],
      "stateMutability": "nonpayable",
      "type": "constructor"
    },
    {
      "anonymous": false,
      "inputs": [
        {
          "indexed": true,
          "internalType": "address",
          "name": "owner",
          "type": "address"
        },
        {
          "indexed": true,
          "internalType": "address",
          "name": "approved",
          "type": "address"
        },
        {
          "indexed": true,
          "internalType": "uint256",
          "name": "tokenId",
          "type": "uint256"
        }
      ],
      "name": "Approval",
      "type": "event"
    },
    {
      "anonymous": false,
      "inputs": [
        {
          "indexed": true,
          "internalType": "address",
          "name": "owner",
          "type": "address"
        },
        {
          "indexed": true,
          "internalType": "address",
          "name": "operator",
          "type": "address"
        },
        {
          "indexed": false,
          "internalType": "bool",
          "name": "approved",
          "type": "bool"
        }
      ],
      "name": "ApprovalForAll",
      "type": "event"
    },
    {
      "anonymous": false,
      "inputs": [
        {
          "indexed": false,
          "internalType": "uint256",
          "name": "tokenId",
          "type": "uint256"
        },
        {
          "indexed": false,
          "internalType": "address",
          "name": "owner",
          "type": "address"
        }
      ],
      "name": "Minted",
      "type": "event"
    },
    {
      "anonymous": false,
      "inputs": [
        {
          "indexed": true,
          "internalType": "address",
          "name": "previousOwner",
          "type": "address"
        },
        {
          "indexed": true,
          "internalType": "address",
          "name": "newOwner",
          "type": "address"
        }
      ],
      "name": "OwnershipTransferred",
      "type": "event"
    },
    {
      "anonymous": false,
      "inputs": [
        {
          "indexed": false,
          "internalType": "address",
          "name": "account",
          "type": "address"
        }
      ],
      "name": "Paused",
      "type": "event"
    },
    {
      "anonymous": false,
      "inputs": [
        {
          "indexed": false,
          "internalType": "uint256",
          "name": "tokenId",
          "type": "uint256"
        },
        {
          "indexed": false,
          "internalType": "address",
          "name": "owner",
          "type": "address"
        }
      ],
      "name": "Redeemed",
      "type": "event"
    },
    {
      "anonymous": false,
      "inputs": [
        {
          "indexed": true,
          "internalType": "bytes32",
          "name": "role",
          "type": "bytes32"
        },
        {
          "indexed": true,
          "internalType": "bytes32",
          "name": "previousAdminRole",
          "type": "bytes32"
        },
        {
          "indexed": true,
          "internalType": "bytes32",
          "name": "newAdminRole",
          "type": "bytes32"
        }
      ],
      "name": "RoleAdminChanged",
      "type": "event"
    },
    {
      "anonymous": false,
      "inputs": [
        {
          "indexed": true,
          "internalType": "bytes32",
          "name": "role",
          "type": "bytes32"
        },
        {
          "indexed": true,
          "internalType": "address",
          "name": "account",
          "type": "address"
        },
        {
          "indexed": true,
          "internalType": "address",
          "name": "sender",
          "type": "address"
        }
      ],
      "name": "RoleGranted",
      "type": "event"
    },
    {
      "anonymous": false,
      "inputs": [
        {
          "indexed": true,
          "internalType": "bytes32",
          "name": "role",
          "type": "bytes32"
        },
        {
          "indexed": true,
          "internalType": "address",
          "name": "account",
          "type": "address"
        },
        {
          "indexed": true,
          "internalType": "address",
          "name": "sender",
          "type": "address"
        }
      ],
      "name": "RoleRevoked",
      "type": "event"
    },
    {
      "anonymous": false,
      "inputs": [
        {
          "indexed": true,
          "internalType": "address",
          "name": "from",
          "type": "address"
        },
        {
          "indexed": true,
          "internalType": "address",
          "name": "to",
          "type": "address"
        },
        {
          "indexed": true,
          "internalType": "uint256",
          "name": "tokenId",
          "type": "uint256"
        }
      ],
      "name": "Transfer",
      "type": "event"
    },
    {
      "anonymous": false,
      "inputs": [
        {
          "indexed": false,
          "internalType": "address",
          "name": "account",
          "type": "address"
        }
      ],
      "name": "Unpaused",
      "type": "event"
    },
    {
      "inputs": [],
      "name": "DEFAULT_ADMIN_ROLE",
      "outputs": [
        {
          "internalType": "bytes32",
          "name": "",
          "type": "bytes32"
        }
      ],
      "stateMutability": "view",
      "type": "function"
    },
    {
      "inputs": [],
      "name": "MAX_TOKENS",
      "outputs": [
        {
          "internalType": "uint256",
          "name": "",
          "type": "uint256"
        }
      ],
      "stateMutability": "view",
      "type": "function"
    },
    {
      "inputs": [],
      "name": "MINTER_ROLE",
      "outputs": [
        {
          "internalType": "bytes32",
          "name": "",
          "type": "bytes32"
        }
      ],
      "stateMutability": "view",
      "type": "function"
    },
    {
      "inputs": [],
      "name": "PAUSER_ROLE",
      "outputs": [
        {
          "internalType": "bytes32",
          "name": "",
          "type": "bytes32"
        }
      ],
      "stateMutability": "view",
      "type": "function"
    },
    {
      "inputs": [
        {
          "internalType": "address",
          "name": "to",
          "type": "address"
        },
        {
          "internalType": "uint256",
          "name": "tokenId",
          "type": "uint256"
        }
      ],
      "name": "approve",
      "outputs": [],
      "stateMutability": "nonpayable",
      "type": "function"
    },
    {
      "inputs": [
        {
          "internalType": "address",
          "name": "owner",
          "type": "address"
        }
      ],
      "name": "balanceOf",
      "outputs": [
        {
          "internalType": "uint256",
          "name": "",
          "type": "uint256"
        }
      ],
      "stateMutability": "view",
      "type": "function"
    },
    {
      "inputs": [
        {
          "internalType": "uint256",
          "name": "tokenId",
          "type": "uint256"
        }
      ],
      "name": "burn",
      "outputs": [],
      "stateMutability": "nonpayable",
      "type": "function"
    },
    {
      "inputs": [
        {
          "internalType": "uint256",
          "name": "tokenId",
          "type": "uint256"
        }
      ],
      "name": "getApproved",
      "outputs": [
        {
          "internalType": "address",
          "name": "",
          "type": "address"
        }
      ],
      "stateMutability": "view",
      "type": "function"
    },
    {
      "inputs": [
        {
          "internalType": "bytes32",
          "name": "role",
          "type": "bytes32"
        }
      ],
      "name": "getRoleAdmin",
      "outputs": [
        {
          "internalType": "bytes32",
          "name": "",
          "type": "bytes32"
        }
      ],
      "stateMutability": "view",
      "type": "function"
    },
    {
      "inputs": [
        {
          "internalType": "bytes32",
          "name": "role",
          "type": "bytes32"
        },
        {
          "internalType": "uint256",
          "name": "index",
          "type": "uint256"
        }
      ],
      "name": "getRoleMember",
      "outputs": [
        {
          "internalType": "address",
          "name": "",
          "type": "address"
        }
      ],
      "stateMutability": "view",
      "type": "function"
    },
    {
      "inputs": [
        {
          "internalType": "bytes32",
          "name": "role",
          "type": "bytes32"
        }
      ],
      "name": "getRoleMemberCount",
      "outputs": [
        {
          "internalType": "uint256",
          "name": "",
          "type": "uint256"
        }
      ],
      "stateMutability": "view",
      "type": "function"
    },
    {
      "inputs": [
        {
          "internalType": "bytes32",
          "name": "role",
          "type": "bytes32"
        },
        {
          "internalType": "address",
          "name": "account",
          "type": "address"
        }
      ],
      "name": "grantRole",
      "outputs": [],
      "stateMutability": "nonpayable",
      "type": "function"
    },
    {
      "inputs": [
        {
          "internalType": "bytes32",
          "name": "role",
          "type": "bytes32"
        },
        {
          "internalType": "address",
          "name": "account",
          "type": "address"
        }
      ],
      "name": "hasRole",
      "outputs": [
        {
          "internalType": "bool",
          "name": "",
          "type": "bool"
        }
      ],
      "stateMutability": "view",
      "type": "function"
    },
    {
      "inputs": [],
      "name": "hasSaleStarted",
      "outputs": [
        {
          "internalType": "bool",
          "name": "",
          "type": "bool"
        }
      ],
      "stateMutability": "view",
      "type": "function"
    },
    {
      "inputs": [],
      "name": "hasSoldOut",
      "outputs": [
        {
          "internalType": "bool",
          "name": "",
          "type": "bool"
        }
      ],
      "stateMutability": "view",
      "type": "function"
    },
    {
      "inputs": [
        {
          "internalType": "address",
          "name": "_owner",
          "type": "address"
        },
        {
          "internalType": "address",
          "name": "_operator",
          "type": "address"
        }
      ],
      "name": "isApprovedForAll",
      "outputs": [
        {
          "internalType": "bool",
          "name": "isOperator",
          "type": "bool"
        }
      ],
      "stateMutability": "view",
      "type": "function"
    },
    {
      "inputs": [
        {
          "internalType": "address",
          "name": "to",
          "type": "address"
        }
      ],
      "name": "mint",
      "outputs": [],
      "stateMutability": "nonpayable",
      "type": "function"
    },
    {
      "inputs": [
        {
          "internalType": "uint256",
          "name": "quantity",
          "type": "uint256"
        },
        {
          "internalType": "address",
          "name": "receiver",
          "type": "address"
        }
      ],
      "name": "mintToken",
      "outputs": [],
      "stateMutability": "payable",
      "type": "function"
    },
    {
      "inputs": [],
      "name": "name",
      "outputs": [
        {
          "internalType": "string",
          "name": "",
          "type": "string"
        }
      ],
      "stateMutability": "view",
      "type": "function"
    },
    {
      "inputs": [],
      "name": "owner",
      "outputs": [
        {
          "internalType": "address",
          "name": "",
          "type": "address"
        }
      ],
      "stateMutability": "view",
      "type": "function"
    },
    {
      "inputs": [
        {
          "internalType": "uint256",
          "name": "tokenId",
          "type": "uint256"
        }
      ],
      "name": "ownerOf",
      "outputs": [
        {
          "internalType": "address",
          "name": "",
          "type": "address"
        }
      ],
      "stateMutability": "view",
      "type": "function"
    },
    {
      "inputs": [],
      "name": "pause",
      "outputs": [],
      "stateMutability": "nonpayable",
      "type": "function"
    },
    {
      "inputs": [],
      "name": "pauseSale",
      "outputs": [],
      "stateMutability": "nonpayable",
      "type": "function"
    },
    {
      "inputs": [],
      "name": "paused",
      "outputs": [
        {
          "internalType": "bool",
          "name": "",
          "type": "bool"
        }
      ],
      "stateMutability": "view",
      "type": "function"
    },
    {
      "inputs": [],
      "name": "priceToMint",
      "outputs": [
        {
          "internalType": "uint256",
          "name": "",
          "type": "uint256"
        }
      ],
      "stateMutability": "view",
      "type": "function"
    },
    {
      "inputs": [
        {
          "internalType": "uint256",
          "name": "_tokenId",
          "type": "uint256"
        },
        {
          "internalType": "address",
          "name": "receiver",
          "type": "address"
        }
      ],
      "name": "redeemToken",
      "outputs": [],
      "stateMutability": "nonpayable",
      "type": "function"
    },
    {
      "inputs": [],
      "name": "renounceOwnership",
      "outputs": [],
      "stateMutability": "nonpayable",
      "type": "function"
    },
    {
      "inputs": [
        {
          "internalType": "bytes32",
          "name": "role",
          "type": "bytes32"
        },
        {
          "internalType": "address",
          "name": "account",
          "type": "address"
        }
      ],
      "name": "renounceRole",
      "outputs": [],
      "stateMutability": "nonpayable",
      "type": "function"
    },
    {
      "inputs": [
        {
          "internalType": "bytes32",
          "name": "role",
          "type": "bytes32"
        },
        {
          "internalType": "address",
          "name": "account",
          "type": "address"
        }
      ],
      "name": "revokeRole",
      "outputs": [],
      "stateMutability": "nonpayable",
      "type": "function"
    },
    {
      "inputs": [
        {
          "internalType": "address",
          "name": "from",
          "type": "address"
        },
        {
          "internalType": "address",
          "name": "to",
          "type": "address"
        },
        {
          "internalType": "uint256",
          "name": "tokenId",
          "type": "uint256"
        }
      ],
      "name": "safeTransferFrom",
      "outputs": [],
      "stateMutability": "nonpayable",
      "type": "function"
    },
    {
      "inputs": [
        {
          "internalType": "address",
          "name": "from",
          "type": "address"
        },
        {
          "internalType": "address",
          "name": "to",
          "type": "address"
        },
        {
          "internalType": "uint256",
          "name": "tokenId",
          "type": "uint256"
        },
        {
          "internalType": "bytes",
          "name": "data",
          "type": "bytes"
        }
      ],
      "name": "safeTransferFrom",
      "outputs": [],
      "stateMutability": "nonpayable",
      "type": "function"
    },
    {
      "inputs": [
        {
          "internalType": "address",
          "name": "operator",
          "type": "address"
        },
        {
          "internalType": "bool",
          "name": "approved",
          "type": "bool"
        }
      ],
      "name": "setApprovalForAll",
      "outputs": [],
      "stateMutability": "nonpayable",
      "type": "function"
    },
    {
      "inputs": [
        {
          "internalType": "uint256",
          "name": "_priceToMint",
          "type": "uint256"
        }
      ],
      "name": "setPriceToMint",
      "outputs": [],
      "stateMutability": "nonpayable",
      "type": "function"
    },
    {
      "inputs": [],
      "name": "startSale",
      "outputs": [],
      "stateMutability": "nonpayable",
      "type": "function"
    },
    {
      "inputs": [
        {
          "internalType": "bytes4",
          "name": "interfaceId",
          "type": "bytes4"
        }
      ],
      "name": "supportsInterface",
      "outputs": [
        {
          "internalType": "bool",
          "name": "",
          "type": "bool"
        }
      ],
      "stateMutability": "view",
      "type": "function"
    },
    {
      "inputs": [],
      "name": "symbol",
      "outputs": [
        {
          "internalType": "string",
          "name": "",
          "type": "string"
        }
      ],
      "stateMutability": "view",
      "type": "function"
    },
    {
      "inputs": [
        {
          "internalType": "uint256",
          "name": "index",
          "type": "uint256"
        }
      ],
      "name": "tokenByIndex",
      "outputs": [
        {
          "internalType": "uint256",
          "name": "",
          "type": "uint256"
        }
      ],
      "stateMutability": "view",
      "type": "function"
    },
    {
      "inputs": [
        {
          "internalType": "uint256",
          "name": "tokenId",
          "type": "uint256"
        }
      ],
      "name": "tokenExists",
      "outputs": [
        {
          "internalType": "bool",
          "name": "",
          "type": "bool"
        }
      ],
      "stateMutability": "view",
      "type": "function"
    },
    {
      "inputs": [
        {
          "internalType": "address",
          "name": "owner",
          "type": "address"
        },
        {
          "internalType": "uint256",
          "name": "index",
          "type": "uint256"
        }
      ],
      "name": "tokenOfOwnerByIndex",
      "outputs": [
        {
          "internalType": "uint256",
          "name": "",
          "type": "uint256"
        }
      ],
      "stateMutability": "view",
      "type": "function"
    },
    {
      "inputs": [
        {
          "internalType": "uint256",
          "name": "tokenId",
          "type": "uint256"
        }
      ],
      "name": "tokenURI",
      "outputs": [
        {
          "internalType": "string",
          "name": "",
          "type": "string"
        }
      ],
      "stateMutability": "view",
      "type": "function"
    },
    {
      "inputs": [],
      "name": "totalSupply",
      "outputs": [
        {
          "internalType": "uint256",
          "name": "",
          "type": "uint256"
        }
      ],
      "stateMutability": "view",
      "type": "function"
    },
    {
      "inputs": [
        {
          "internalType": "address",
          "name": "from",
          "type": "address"
        },
        {
          "internalType": "address",
          "name": "to",
          "type": "address"
        },
        {
          "internalType": "uint256",
          "name": "tokenId",
          "type": "uint256"
        }
      ],
      "name": "transferFrom",
      "outputs": [],
      "stateMutability": "nonpayable",
      "type": "function"
    },
    {
      "inputs": [
        {
          "internalType": "address",
          "name": "newOwner",
          "type": "address"
        }
      ],
      "name": "transferOwnership",
      "outputs": [],
      "stateMutability": "nonpayable",
      "type": "function"
    },
    {
      "inputs": [],
      "name": "unpause",
      "outputs": [],
      "stateMutability": "nonpayable",
      "type": "function"
    }
  ],
  "bytecode": "0x60806040526000601160006101000a81548160ff0219169083151502179055503480156200002c57600080fd5b506040518060400160405280600881526020017f546f6b656e4261740000000000000000000000000000000000000000000000008152506040518060400160405280600881526020017f546f6b656e426174000000000000000000000000000000000000000000000000815250604051806060016040528060228152602001620061566022913982828160029080519060200190620000cd9291906200060f565b508060039080519060200190620000e69291906200060f565b5050506000600c60006101000a81548160ff02191690831515021790555080600e90805190602001906200011c9291906200060f565b50620001416000801b62000135620001ec60201b60201c565b6200020860201b60201c565b620001827f9f2df0fed2c77648de5860a4cc508cd0818c85b8b8a1ab4ceeef8d981c8956a662000176620001ec60201b60201c565b6200020860201b60201c565b620001c37f65d7a28e3265b37a6474929f336521b332c1681b933f6cb9f3376673440d862a620001b7620001ec60201b60201c565b6200020860201b60201c565b505050620001e6620001da620001ec60201b60201c565b6200021e60201b60201c565b62000724565b600062000203620002e460201b620019551760201c565b905090565b6200021a82826200039760201b60201c565b5050565b6000600f60009054906101000a900473ffffffffffffffffffffffffffffffffffffffff16905081600f60006101000a81548173ffffffffffffffffffffffffffffffffffffffff021916908373ffffffffffffffffffffffffffffffffffffffff1602179055508173ffffffffffffffffffffffffffffffffffffffff168173ffffffffffffffffffffffffffffffffffffffff167f8be0079c531659141344cd1fd0a4f28419497f9722a3daafe3b4186f6b6457e060405160405180910390a35050565b60003073ffffffffffffffffffffffffffffffffffffffff163373ffffffffffffffffffffffffffffffffffffffff1614156200039057600080368080601f016020809104026020016040519081016040528093929190818152602001838380828437600081840152601f19601f820116905080830192505050505050509050600080369050905073ffffffffffffffffffffffffffffffffffffffff81830151169250505062000394565b3390505b90565b620003ae8282620003df60201b62001a061760201c565b620003da8160016000858152602001908152602001600020620004d060201b62001ae61790919060201c565b505050565b620003f182826200050860201b60201c565b620004cc57600160008084815260200190815260200160002060000160008373ffffffffffffffffffffffffffffffffffffffff1673ffffffffffffffffffffffffffffffffffffffff16815260200190815260200160002060006101000a81548160ff02191690831515021790555062000471620001ec60201b60201c565b73ffffffffffffffffffffffffffffffffffffffff168173ffffffffffffffffffffffffffffffffffffffff16837f2f8788117e7eff1d82e926ec794901d17c78024a50270940304540a733656f0d60405160405180910390a45b5050565b600062000500836000018373ffffffffffffffffffffffffffffffffffffffff1660001b6200057260201b60201c565b905092915050565b600080600084815260200190815260200160002060000160008373ffffffffffffffffffffffffffffffffffffffff1673ffffffffffffffffffffffffffffffffffffffff16815260200190815260200160002060009054906101000a900460ff16905092915050565b6000620005868383620005ec60201b60201c565b620005e1578260000182908060018154018082558091505060019003906000526020600020016000909190919091505582600001805490508360010160008481526020019081526020016000208190555060019050620005e6565b600090505b92915050565b600080836001016000848152602001908152602001600020541415905092915050565b8280546200061d90620006bf565b90600052602060002090601f0160209004810192826200064157600085556200068d565b82601f106200065c57805160ff19168380011785556200068d565b828001600101855582156200068d579182015b828111156200068c5782518255916020019190600101906200066f565b5b5090506200069c9190620006a0565b5090565b5b80821115620006bb576000816000905550600101620006a1565b5090565b60006002820490506001821680620006d857607f821691505b60208210811415620006ef57620006ee620006f5565b5b50919050565b7f4e487b7100000000000000000000000000000000000000000000000000000000600052602260045260246000fd5b615a2280620007346000396000f3fe6080604052600436106102665760003560e01c80636a62784211610144578063b66a0e5d116100b6578063d53913931161007a578063d53913931461091c578063d547741f14610947578063e63ab1e914610970578063e985e9c51461099b578063f2fde38b146109d8578063f47c84c514610a0157610266565b8063b66a0e5d14610839578063b88d4fde14610850578063c3501ff614610879578063c87b56dd146108a2578063ca15c873146108df57610266565b80639010d07c116101085780639010d07c1461072457806391d148541461076157806395d89b411461079e578063a140ae23146107c9578063a217fddf146107e5578063a22cb4651461081057610266565b80636a6278421461066557806370a082311461068e578063715018a6146106cb5780638456cb59146106e25780638da5cb5b146106f957610266565b80632f2ff15d116101dd57806342966c68116101a157806342966c68146105555780634dc1dbec1461057e5780634f6ccce7146105a957806355367ba9146105e65780635c975abb146105fd5780636352211e1461062857610266565b80632f2ff15d146104865780632f745c59146104af57806336568abe146104ec5780633f4ba83a1461051557806342842e0e1461052c57610266565b8063095ea7b31161022f578063095ea7b31461037857806318160ddd146103a15780631c8b232d146103cc57806323b872dd146103f7578063248a9ca31461042057806329e0a2ac1461045d57610266565b8062923f9e1461026b57806301ffc9a7146102a857806303824f76146102e557806306fdde0314610310578063081812fc1461033b575b600080fd5b34801561027757600080fd5b50610292600480360381019061028d9190614383565b610a2c565b60405161029f91906149ec565b60405180910390f35b3480156102b457600080fd5b506102cf60048036038101906102ca9190614331565b610a3e565b6040516102dc91906149ec565b60405180910390f35b3480156102f157600080fd5b506102fa610a50565b60405161030791906149ec565b60405180910390f35b34801561031c57600080fd5b50610325610a72565b6040516103329190614a22565b60405180910390f35b34801561034757600080fd5b50610362600480360381019061035d9190614383565b610b04565b60405161036f9190614985565b60405180910390f35b34801561038457600080fd5b5061039f600480360381019061039a9190614254565b610b4a565b005b3480156103ad57600080fd5b506103b6610c62565b6040516103c39190614e04565b60405180910390f35b3480156103d857600080fd5b506103e1610c6f565b6040516103ee91906149ec565b60405180910390f35b34801561040357600080fd5b5061041e6004803603810190610419919061414e565b610c82565b005b34801561042c57600080fd5b5061044760048036038101906104429190614290565b610ce2565b6040516104549190614a07565b60405180910390f35b34801561046957600080fd5b50610484600480360381019061047f9190614383565b610d01565b005b34801561049257600080fd5b506104ad60048036038101906104a891906142b9565b610d56565b005b3480156104bb57600080fd5b506104d660048036038101906104d19190614254565b610d77565b6040516104e39190614e04565b60405180910390f35b3480156104f857600080fd5b50610513600480360381019061050e91906142b9565b610e1c565b005b34801561052157600080fd5b5061052a610e9f565b005b34801561053857600080fd5b50610553600480360381019061054e919061414e565b610f19565b005b34801561056157600080fd5b5061057c60048036038101906105779190614383565b610f39565b005b34801561058a57600080fd5b50610593610f95565b6040516105a09190614e04565b60405180910390f35b3480156105b557600080fd5b506105d060048036038101906105cb9190614383565b610f9b565b6040516105dd9190614e04565b60405180910390f35b3480156105f257600080fd5b506105fb611032565b005b34801561060957600080fd5b50610612611057565b60405161061f91906149ec565b60405180910390f35b34801561063457600080fd5b5061064f600480360381019061064a9190614383565b61106e565b60405161065c9190614985565b60405180910390f35b34801561067157600080fd5b5061068c600480360381019061068791906140e9565b6110f5565b005b34801561069a57600080fd5b506106b560048036038101906106b091906140e9565b611185565b6040516106c29190614e04565b60405180910390f35b3480156106d757600080fd5b506106e061123d565b005b3480156106ee57600080fd5b506106f7611251565b005b34801561070557600080fd5b5061070e6112cb565b60405161071b9190614985565b60405180910390f35b34801561073057600080fd5b5061074b600480360381019061074691906142f5565b6112f5565b6040516107589190614985565b60405180910390f35b34801561076d57600080fd5b50610788600480360381019061078391906142b9565b611324565b60405161079591906149ec565b60405180910390f35b3480156107aa57600080fd5b506107b361138e565b6040516107c09190614a22565b60405180910390f35b6107e360048036038101906107de91906143ac565b611420565b005b3480156107f157600080fd5b506107fa611690565b6040516108079190614a07565b60405180910390f35b34801561081c57600080fd5b5061083760048036038101906108329190614218565b611697565b005b34801561084557600080fd5b5061084e6116ad565b005b34801561085c57600080fd5b506108776004803603810190610872919061419d565b6116d2565b005b34801561088557600080fd5b506108a0600480360381019061089b91906143ac565b611734565b005b3480156108ae57600080fd5b506108c960048036038101906108c49190614383565b611771565b6040516108d69190614a22565b60405180910390f35b3480156108eb57600080fd5b5061090660048036038101906109019190614290565b6117d9565b6040516109139190614e04565b60405180910390f35b34801561092857600080fd5b506109316117fd565b60405161093e9190614a07565b60405180910390f35b34801561095357600080fd5b5061096e600480360381019061096991906142b9565b611821565b005b34801561097c57600080fd5b50610985611842565b6040516109929190614a07565b60405180910390f35b3480156109a757600080fd5b506109c260048036038101906109bd9190614112565b611866565b6040516109cf91906149ec565b60405180910390f35b3480156109e457600080fd5b506109ff60048036038101906109fa91906140e9565b6118cc565b005b348015610a0d57600080fd5b50610a16611950565b604051610a239190614e04565b60405180910390f35b6000610a3782611b16565b9050919050565b6000610a4982611b57565b9050919050565b60006040610a5c610c62565b10610a6a5760019050610a6f565b600090505b90565b606060028054610a81906150af565b80601f0160208091040260200160405190810160405280929190818152602001828054610aad906150af565b8015610afa5780601f10610acf57610100808354040283529160200191610afa565b820191906000526020600020905b815481529060010190602001808311610add57829003601f168201915b5050505050905090565b6000610b0f82611bd1565b6006600083815260200190815260200160002060009054906101000a900473ffffffffffffffffffffffffffffffffffffffff169050919050565b6000610b558261106e565b90508073ffffffffffffffffffffffffffffffffffffffff168373ffffffffffffffffffffffffffffffffffffffff161415610bc6576040517f08c379a0000000000000000000000000000000000000000000000000000000008152600401610bbd90614ce4565b60405180910390fd5b8073ffffffffffffffffffffffffffffffffffffffff16610be5611c1c565b73ffffffffffffffffffffffffffffffffffffffff161480610c145750610c1381610c0e611c1c565b611866565b5b610c53576040517f08c379a0000000000000000000000000000000000000000000000000000000008152600401610c4a90614d04565b60405180910390fd5b610c5d8383611c2b565b505050565b6000600a80549050905090565b601160009054906101000a900460ff1681565b610c93610c8d611c1c565b82611ce4565b610cd2576040517f08c379a0000000000000000000000000000000000000000000000000000000008152600401610cc990614ac4565b60405180910390fd5b610cdd838383611d79565b505050565b6000806000838152602001908152602001600020600101549050919050565b610d09612073565b60008111610d4c576040517f08c379a0000000000000000000000000000000000000000000000000000000008152600401610d4390614da4565b60405180910390fd5b8060108190555050565b610d5f82610ce2565b610d68816120f1565b610d728383612105565b505050565b6000610d8283611185565b8210610dc3576040517f08c379a0000000000000000000000000000000000000000000000000000000008152600401610dba90614ae4565b60405180910390fd5b600860008473ffffffffffffffffffffffffffffffffffffffff1673ffffffffffffffffffffffffffffffffffffffff168152602001908152602001600020600083815260200190815260200160002054905092915050565b610e24611c1c565b73ffffffffffffffffffffffffffffffffffffffff168173ffffffffffffffffffffffffffffffffffffffff1614610e91576040517f08c379a0000000000000000000000000000000000000000000000000000000008152600401610e8890614de4565b60405180910390fd5b610e9b8282612139565b5050565b610ed07f65d7a28e3265b37a6474929f336521b332c1681b933f6cb9f3376673440d862a610ecb611c1c565b611324565b610f0f576040517f08c379a0000000000000000000000000000000000000000000000000000000008152600401610f0690614dc4565b60405180910390fd5b610f1761216d565b565b610f34838383604051806020016040528060008152506116d2565b505050565b610f4a610f44611c1c565b82611ce4565b610f89576040517f08c379a0000000000000000000000000000000000000000000000000000000008152600401610f8090614ac4565b60405180910390fd5b610f92816121d0565b50565b60105481565b6000610fa5610c62565b8210610fe6576040517f08c379a0000000000000000000000000000000000000000000000000000000008152600401610fdd90614d24565b60405180910390fd5b600a8281548110611020577f4e487b7100000000000000000000000000000000000000000000000000000000600052603260045260246000fd5b90600052602060002001549050919050565b61103a612073565b6000601160006101000a81548160ff021916908315150217905550565b6000600c60009054906101000a900460ff16905090565b60008061107a8361231e565b9050600073ffffffffffffffffffffffffffffffffffffffff168173ffffffffffffffffffffffffffffffffffffffff1614156110ec576040517f08c379a00000000000000000000000000000000000000000000000000000000081526004016110e390614cc4565b60405180910390fd5b80915050919050565b6111267f9f2df0fed2c77648de5860a4cc508cd0818c85b8b8a1ab4ceeef8d981c8956a6611121611c1c565b611324565b611165576040517f08c379a000000000000000000000000000000000000000000000000000000000815260040161115c90614d84565b60405180910390fd5b61117881611173600d61235b565b612369565b611182600d612587565b50565b60008073ffffffffffffffffffffffffffffffffffffffff168273ffffffffffffffffffffffffffffffffffffffff1614156111f6576040517f08c379a00000000000000000000000000000000000000000000000000000000081526004016111ed90614c24565b60405180910390fd5b600560008373ffffffffffffffffffffffffffffffffffffffff1673ffffffffffffffffffffffffffffffffffffffff168152602001908152602001600020549050919050565b611245612073565b61124f600061259d565b565b6112827f65d7a28e3265b37a6474929f336521b332c1681b933f6cb9f3376673440d862a61127d611c1c565b611324565b6112c1576040517f08c379a00000000000000000000000000000000000000000000000000000000081526004016112b890614b84565b60405180910390fd5b6112c9612663565b565b6000600f60009054906101000a900473ffffffffffffffffffffffffffffffffffffffff16905090565b600061131c82600160008681526020019081526020016000206126c690919063ffffffff16565b905092915050565b600080600084815260200190815260200160002060000160008373ffffffffffffffffffffffffffffffffffffffff1673ffffffffffffffffffffffffffffffffffffffff16815260200190815260200160002060009054906101000a900460ff16905092915050565b60606003805461139d906150af565b80601f01602080910402602001604051908101604052809291908181526020018280546113c9906150af565b80156114165780601f106113eb57610100808354040283529160200191611416565b820191906000526020600020905b8154815290600101906020018083116113f957829003601f168201915b5050505050905090565b601160009054906101000a900460ff168061146d575061143e6112cb565b73ffffffffffffffffffffffffffffffffffffffff163373ffffffffffffffffffffffffffffffffffffffff16145b6114ac576040517f08c379a00000000000000000000000000000000000000000000000000000000081526004016114a390614aa4565b60405180910390fd5b600082116114ef576040517f08c379a00000000000000000000000000000000000000000000000000000000081526004016114e690614c44565b60405180910390fd5b6003821115611533576040517f08c379a000000000000000000000000000000000000000000000000000000000815260040161152a90614ca4565b60405180910390fd5b604061154f83611541610c62565b6126e090919063ffffffff16565b11158061158e575061155f6112cb565b73ffffffffffffffffffffffffffffffffffffffff163373ffffffffffffffffffffffffffffffffffffffff16145b6115cd576040517f08c379a00000000000000000000000000000000000000000000000000000000081526004016115c490614be4565b60405180910390fd5b601054341480156115de5750600034115b61161d576040517f08c379a000000000000000000000000000000000000000000000000000000000815260040161161490614d64565b60405180910390fd5b60005b8281101561168b576000611632610c62565b905061163e83826126f6565b7fb9203d657e9c0ec8274c818292ab0f58b04e1970050716891770eb1bab5d655e818460405161166f929190614e1f565b60405180910390a150808061168390615112565b915050611620565b505050565b6000801b81565b6116a96116a2611c1c565b8383612714565b5050565b6116b5612073565b6001601160006101000a81548160ff021916908315150217905550565b6116e36116dd611c1c565b83611ce4565b611722576040517f08c379a000000000000000000000000000000000000000000000000000000000815260040161171990614ac4565b60405180910390fd5b61172e84848484612881565b50505050565b7fc5fcfb68332ef11d542d4ab7e75045a5e4d66eb2d8f846f13a48356b32e534db8282604051611765929190614e1f565b60405180910390a15050565b606061177c82611bd1565b60006117866128dd565b905060008151116117a657604051806020016040528060008152506117d1565b806117b08461296f565b6040516020016117c1929190614927565b6040516020818303038152906040525b915050919050565b60006117f660016000848152602001908152602001600020612a93565b9050919050565b7f9f2df0fed2c77648de5860a4cc508cd0818c85b8b8a1ab4ceeef8d981c8956a681565b61182a82610ce2565b611833816120f1565b61183d8383612139565b505050565b7f65d7a28e3265b37a6474929f336521b332c1681b933f6cb9f3376673440d862a81565b60007358807bad0b376efc12f5ad86aac70e78ed67deae73ffffffffffffffffffffffffffffffffffffffff168273ffffffffffffffffffffffffffffffffffffffff1614156118b957600190506118c6565b6118c38383612aa8565b90505b92915050565b6118d4612073565b600073ffffffffffffffffffffffffffffffffffffffff168173ffffffffffffffffffffffffffffffffffffffff161415611944576040517f08c379a000000000000000000000000000000000000000000000000000000000815260040161193b90614b24565b60405180910390fd5b61194d8161259d565b50565b604081565b60003073ffffffffffffffffffffffffffffffffffffffff163373ffffffffffffffffffffffffffffffffffffffff1614156119ff57600080368080601f016020809104026020016040519081016040528093929190818152602001838380828437600081840152601f19601f820116905080830192505050505050509050600080369050905073ffffffffffffffffffffffffffffffffffffffff818301511692505050611a03565b3390505b90565b611a108282611324565b611ae257600160008084815260200190815260200160002060000160008373ffffffffffffffffffffffffffffffffffffffff1673ffffffffffffffffffffffffffffffffffffffff16815260200190815260200160002060006101000a81548160ff021916908315150217905550611a87611c1c565b73ffffffffffffffffffffffffffffffffffffffff168173ffffffffffffffffffffffffffffffffffffffff16837f2f8788117e7eff1d82e926ec794901d17c78024a50270940304540a733656f0d60405160405180910390a45b5050565b6000611b0e836000018373ffffffffffffffffffffffffffffffffffffffff1660001b612b3c565b905092915050565b60008073ffffffffffffffffffffffffffffffffffffffff16611b388361231e565b73ffffffffffffffffffffffffffffffffffffffff1614159050919050565b60007f780e9d63000000000000000000000000000000000000000000000000000000007bffffffffffffffffffffffffffffffffffffffffffffffffffffffff1916827bffffffffffffffffffffffffffffffffffffffffffffffffffffffff19161480611bca5750611bc982612bac565b5b9050919050565b611bda81611b16565b611c19576040517f08c379a0000000000000000000000000000000000000000000000000000000008152600401611c1090614cc4565b60405180910390fd5b50565b6000611c26611955565b905090565b816006600083815260200190815260200160002060006101000a81548173ffffffffffffffffffffffffffffffffffffffff021916908373ffffffffffffffffffffffffffffffffffffffff160217905550808273ffffffffffffffffffffffffffffffffffffffff16611c9e8361106e565b73ffffffffffffffffffffffffffffffffffffffff167f8c5be1e5ebec7d5bd14f71427d1e84f3dd0314c0f7b2291e5b200ac8c7c3b92560405160405180910390a45050565b600080611cf08361106e565b90508073ffffffffffffffffffffffffffffffffffffffff168473ffffffffffffffffffffffffffffffffffffffff161480611d325750611d318185611866565b5b80611d7057508373ffffffffffffffffffffffffffffffffffffffff16611d5884610b04565b73ffffffffffffffffffffffffffffffffffffffff16145b91505092915050565b8273ffffffffffffffffffffffffffffffffffffffff16611d998261106e565b73ffffffffffffffffffffffffffffffffffffffff1614611def576040517f08c379a0000000000000000000000000000000000000000000000000000000008152600401611de690614b44565b60405180910390fd5b600073ffffffffffffffffffffffffffffffffffffffff168273ffffffffffffffffffffffffffffffffffffffff161415611e5f576040517f08c379a0000000000000000000000000000000000000000000000000000000008152600401611e5690614ba4565b60405180910390fd5b611e6c8383836001612c8e565b8273ffffffffffffffffffffffffffffffffffffffff16611e8c8261106e565b73ffffffffffffffffffffffffffffffffffffffff1614611ee2576040517f08c379a0000000000000000000000000000000000000000000000000000000008152600401611ed990614b44565b60405180910390fd5b6006600082815260200190815260200160002060006101000a81549073ffffffffffffffffffffffffffffffffffffffff02191690556001600560008573ffffffffffffffffffffffffffffffffffffffff1673ffffffffffffffffffffffffffffffffffffffff168152602001908152602001600020600082825403925050819055506001600560008473ffffffffffffffffffffffffffffffffffffffff1673ffffffffffffffffffffffffffffffffffffffff16815260200190815260200160002060008282540192505081905550816004600083815260200190815260200160002060006101000a81548173ffffffffffffffffffffffffffffffffffffffff021916908373ffffffffffffffffffffffffffffffffffffffff160217905550808273ffffffffffffffffffffffffffffffffffffffff168473ffffffffffffffffffffffffffffffffffffffff167fddf252ad1be2c89b69c2b068fc378daa952ba7f163c4a11628f55a4df523b3ef60405160405180910390a461206e8383836001612ca0565b505050565b61207b611c1c565b73ffffffffffffffffffffffffffffffffffffffff166120996112cb565b73ffffffffffffffffffffffffffffffffffffffff16146120ef576040517f08c379a00000000000000000000000000000000000000000000000000000000081526004016120e690614c84565b60405180910390fd5b565b612102816120fd611c1c565b612ca6565b50565b61210f8282611a06565b6121348160016000858152602001908152602001600020611ae690919063ffffffff16565b505050565b6121438282612d2b565b6121688160016000858152602001908152602001600020612e0c90919063ffffffff16565b505050565b612175612e3c565b6000600c60006101000a81548160ff0219169083151502179055507f5db9ee0a495bf2e6ff9c91a7834c1ba4fdd244a5e8aa4e537bd38aeae4b073aa6121b9611c1c565b6040516121c69190614985565b60405180910390a1565b60006121db8261106e565b90506121eb816000846001612c8e565b6121f48261106e565b90506006600083815260200190815260200160002060006101000a81549073ffffffffffffffffffffffffffffffffffffffff02191690556001600560008373ffffffffffffffffffffffffffffffffffffffff1673ffffffffffffffffffffffffffffffffffffffff168152602001908152602001600020600082825403925050819055506004600083815260200190815260200160002060006101000a81549073ffffffffffffffffffffffffffffffffffffffff021916905581600073ffffffffffffffffffffffffffffffffffffffff168273ffffffffffffffffffffffffffffffffffffffff167fddf252ad1be2c89b69c2b068fc378daa952ba7f163c4a11628f55a4df523b3ef60405160405180910390a461231a816000846001612ca0565b5050565b60006004600083815260200190815260200160002060009054906101000a900473ffffffffffffffffffffffffffffffffffffffff169050919050565b600081600001549050919050565b600073ffffffffffffffffffffffffffffffffffffffff168273ffffffffffffffffffffffffffffffffffffffff1614156123d9576040517f08c379a00000000000000000000000000000000000000000000000000000000081526004016123d090614c64565b60405180910390fd5b6123e281611b16565b15612422576040517f08c379a000000000000000000000000000000000000000000000000000000000815260040161241990614b64565b60405180910390fd5b612430600083836001612c8e565b61243981611b16565b15612479576040517f08c379a000000000000000000000000000000000000000000000000000000000815260040161247090614b64565b60405180910390fd5b6001600560008473ffffffffffffffffffffffffffffffffffffffff1673ffffffffffffffffffffffffffffffffffffffff16815260200190815260200160002060008282540192505081905550816004600083815260200190815260200160002060006101000a81548173ffffffffffffffffffffffffffffffffffffffff021916908373ffffffffffffffffffffffffffffffffffffffff160217905550808273ffffffffffffffffffffffffffffffffffffffff16600073ffffffffffffffffffffffffffffffffffffffff167fddf252ad1be2c89b69c2b068fc378daa952ba7f163c4a11628f55a4df523b3ef60405160405180910390a4612583600083836001612ca0565b5050565b6001816000016000828254019250508190555050565b6000600f60009054906101000a900473ffffffffffffffffffffffffffffffffffffffff16905081600f60006101000a81548173ffffffffffffffffffffffffffffffffffffffff021916908373ffffffffffffffffffffffffffffffffffffffff1602179055508173ffffffffffffffffffffffffffffffffffffffff168173ffffffffffffffffffffffffffffffffffffffff167f8be0079c531659141344cd1fd0a4f28419497f9722a3daafe3b4186f6b6457e060405160405180910390a35050565b61266b612e85565b6001600c60006101000a81548160ff0219169083151502179055507f62e78cea01bee320cd4e420270b5ea74000d11b0c9f74754ebdbfc544b05a2586126af611c1c565b6040516126bc9190614985565b60405180910390a1565b60006126d58360000183612ecf565b60001c905092915050565b600081836126ee9190614ee1565b905092915050565b612710828260405180602001604052806000815250612f20565b5050565b8173ffffffffffffffffffffffffffffffffffffffff168373ffffffffffffffffffffffffffffffffffffffff161415612783576040517f08c379a000000000000000000000000000000000000000000000000000000000815260040161277a90614bc4565b60405180910390fd5b80600760008573ffffffffffffffffffffffffffffffffffffffff1673ffffffffffffffffffffffffffffffffffffffff16815260200190815260200160002060008473ffffffffffffffffffffffffffffffffffffffff1673ffffffffffffffffffffffffffffffffffffffff16815260200190815260200160002060006101000a81548160ff0219169083151502179055508173ffffffffffffffffffffffffffffffffffffffff168373ffffffffffffffffffffffffffffffffffffffff167f17307eab39ab6107e8899845ad3d59bd9653f200f220920489ca2b5937696c318360405161287491906149ec565b60405180910390a3505050565b61288c848484611d79565b61289884848484612f7b565b6128d7576040517f08c379a00000000000000000000000000000000000000000000000000000000081526004016128ce90614b04565b60405180910390fd5b50505050565b6060600e80546128ec906150af565b80601f0160208091040260200160405190810160405280929190818152602001828054612918906150af565b80156129655780601f1061293a57610100808354040283529160200191612965565b820191906000526020600020905b81548152906001019060200180831161294857829003601f168201915b5050505050905090565b60606000600161297e84613112565b01905060008167ffffffffffffffff8111156129c3577f4e487b7100000000000000000000000000000000000000000000000000000000600052604160045260246000fd5b6040519080825280601f01601f1916602001820160405280156129f55781602001600182028036833780820191505090505b509050600082602001820190505b600115612a88578080600190039150507f3031323334353637383961626364656600000000000000000000000000000000600a86061a8153600a8581612a72577f4e487b7100000000000000000000000000000000000000000000000000000000600052601260045260246000fd5b0494506000851415612a8357612a88565b612a03565b819350505050919050565b6000612aa182600001613349565b9050919050565b6000600760008473ffffffffffffffffffffffffffffffffffffffff1673ffffffffffffffffffffffffffffffffffffffff16815260200190815260200160002060008373ffffffffffffffffffffffffffffffffffffffff1673ffffffffffffffffffffffffffffffffffffffff16815260200190815260200160002060009054906101000a900460ff16905092915050565b6000612b48838361335a565b612ba1578260000182908060018154018082558091505060019003906000526020600020016000909190919091505582600001805490508360010160008481526020019081526020016000208190555060019050612ba6565b600090505b92915050565b60007f80ac58cd000000000000000000000000000000000000000000000000000000007bffffffffffffffffffffffffffffffffffffffffffffffffffffffff1916827bffffffffffffffffffffffffffffffffffffffffffffffffffffffff19161480612c7757507f5b5e139f000000000000000000000000000000000000000000000000000000007bffffffffffffffffffffffffffffffffffffffffffffffffffffffff1916827bffffffffffffffffffffffffffffffffffffffffffffffffffffffff1916145b80612c875750612c868261337d565b5b9050919050565b612c9a848484846133f7565b50505050565b50505050565b612cb08282611324565b612d2757612cbd81613451565b612ccb8360001c602061347e565b604051602001612cdc92919061494b565b6040516020818303038152906040526040517f08c379a0000000000000000000000000000000000000000000000000000000008152600401612d1e9190614a22565b60405180910390fd5b5050565b612d358282611324565b15612e0857600080600084815260200190815260200160002060000160008373ffffffffffffffffffffffffffffffffffffffff1673ffffffffffffffffffffffffffffffffffffffff16815260200190815260200160002060006101000a81548160ff021916908315150217905550612dad611c1c565b73ffffffffffffffffffffffffffffffffffffffff168173ffffffffffffffffffffffffffffffffffffffff16837ff6391f5c32d9c69d2a47ea670b442974b53935d1edc7fd64eb21e047a839171b60405160405180910390a45b5050565b6000612e34836000018373ffffffffffffffffffffffffffffffffffffffff1660001b613778565b905092915050565b612e44611057565b612e83576040517f08c379a0000000000000000000000000000000000000000000000000000000008152600401612e7a90614a84565b60405180910390fd5b565b612e8d611057565b15612ecd576040517f08c379a0000000000000000000000000000000000000000000000000000000008152600401612ec490614c04565b60405180910390fd5b565b6000826000018281548110612f0d577f4e487b7100000000000000000000000000000000000000000000000000000000600052603260045260246000fd5b9060005260206000200154905092915050565b612f2a8383612369565b612f376000848484612f7b565b612f76576040517f08c379a0000000000000000000000000000000000000000000000000000000008152600401612f6d90614b04565b60405180910390fd5b505050565b6000612f9c8473ffffffffffffffffffffffffffffffffffffffff166138fe565b15613105578373ffffffffffffffffffffffffffffffffffffffff1663150b7a02612fc5611c1c565b8786866040518563ffffffff1660e01b8152600401612fe794939291906149a0565b602060405180830381600087803b15801561300157600080fd5b505af192505050801561303257506040513d601f19601f8201168201806040525081019061302f919061435a565b60015b6130b5573d8060008114613062576040519150601f19603f3d011682016040523d82523d6000602084013e613067565b606091505b506000815114156130ad576040517f08c379a00000000000000000000000000000000000000000000000000000000081526004016130a490614b04565b60405180910390fd5b805181602001fd5b63150b7a0260e01b7bffffffffffffffffffffffffffffffffffffffffffffffffffffffff1916817bffffffffffffffffffffffffffffffffffffffffffffffffffffffff19161491505061310a565b600190505b949350505050565b600080600090507a184f03e93ff9f4daa797ed6e38ed64bf6a1f0100000000000000008310613196577a184f03e93ff9f4daa797ed6e38ed64bf6a1f010000000000000000838161318c577f4e487b7100000000000000000000000000000000000000000000000000000000600052601260045260246000fd5b0492506040810190505b6d04ee2d6d415b85acef810000000083106131f9576d04ee2d6d415b85acef810000000083816131ef577f4e487b7100000000000000000000000000000000000000000000000000000000600052601260045260246000fd5b0492506020810190505b662386f26fc10000831061324e57662386f26fc100008381613244577f4e487b7100000000000000000000000000000000000000000000000000000000600052601260045260246000fd5b0492506010810190505b6305f5e100831061329d576305f5e1008381613293577f4e487b7100000000000000000000000000000000000000000000000000000000600052601260045260246000fd5b0492506008810190505b61271083106132e85761271083816132de577f4e487b7100000000000000000000000000000000000000000000000000000000600052601260045260246000fd5b0492506004810190505b606483106133315760648381613327577f4e487b7100000000000000000000000000000000000000000000000000000000600052601260045260246000fd5b0492506002810190505b600a8310613340576001810190505b80915050919050565b600081600001805490509050919050565b600080836001016000848152602001908152602001600020541415905092915050565b60007f5a05180f000000000000000000000000000000000000000000000000000000007bffffffffffffffffffffffffffffffffffffffffffffffffffffffff1916827bffffffffffffffffffffffffffffffffffffffffffffffffffffffff191614806133f057506133ef82613921565b5b9050919050565b6134038484848461399b565b61340b611057565b1561344b576040517f08c379a000000000000000000000000000000000000000000000000000000000815260040161344290614a64565b60405180910390fd5b50505050565b60606134778273ffffffffffffffffffffffffffffffffffffffff16601460ff1661347e565b9050919050565b6060600060028360026134919190614f37565b61349b9190614ee1565b67ffffffffffffffff8111156134da577f4e487b7100000000000000000000000000000000000000000000000000000000600052604160045260246000fd5b6040519080825280601f01601f19166020018201604052801561350c5781602001600182028036833780820191505090505b5090507f30000000000000000000000000000000000000000000000000000000000000008160008151811061356a577f4e487b7100000000000000000000000000000000000000000000000000000000600052603260045260246000fd5b60200101907effffffffffffffffffffffffffffffffffffffffffffffffffffffffffffff1916908160001a9053507f7800000000000000000000000000000000000000000000000000000000000000816001815181106135f4577f4e487b7100000000000000000000000000000000000000000000000000000000600052603260045260246000fd5b60200101907effffffffffffffffffffffffffffffffffffffffffffffffffffffffffffff1916908160001a905350600060018460026136349190614f37565b61363e9190614ee1565b90505b600181111561372a577f3031323334353637383961626364656600000000000000000000000000000000600f8616601081106136a6577f4e487b7100000000000000000000000000000000000000000000000000000000600052603260045260246000fd5b1a60f81b8282815181106136e3577f4e487b7100000000000000000000000000000000000000000000000000000000600052603260045260246000fd5b60200101907effffffffffffffffffffffffffffffffffffffffffffffffffffffffffffff1916908160001a905350600485901c94508061372390615085565b9050613641565b506000841461376e576040517f08c379a000000000000000000000000000000000000000000000000000000000815260040161376590614a44565b60405180910390fd5b8091505092915050565b600080836001016000848152602001908152602001600020549050600081146138f25760006001826137aa9190614f91565b90506000600186600001805490506137c29190614f91565b905081811461387d576000866000018281548110613809577f4e487b7100000000000000000000000000000000000000000000000000000000600052603260045260246000fd5b9060005260206000200154905080876000018481548110613853577f4e487b7100000000000000000000000000000000000000000000000000000000600052603260045260246000fd5b90600052602060002001819055508387600101600083815260200190815260200160002081905550505b856000018054806138b7577f4e487b7100000000000000000000000000000000000000000000000000000000600052603160045260246000fd5b6001900381819060005260206000200160009055905585600101600086815260200190815260200160002060009055600193505050506138f8565b60009150505b92915050565b6000808273ffffffffffffffffffffffffffffffffffffffff163b119050919050565b60007f7965db0b000000000000000000000000000000000000000000000000000000007bffffffffffffffffffffffffffffffffffffffffffffffffffffffff1916827bffffffffffffffffffffffffffffffffffffffffffffffffffffffff19161480613994575061399382613afb565b5b9050919050565b6139a784848484613b65565b60018111156139eb576040517f08c379a00000000000000000000000000000000000000000000000000000000081526004016139e290614d44565b60405180910390fd5b6000829050600073ffffffffffffffffffffffffffffffffffffffff168573ffffffffffffffffffffffffffffffffffffffff161415613a3357613a2e81613c8b565b613a72565b8373ffffffffffffffffffffffffffffffffffffffff168573ffffffffffffffffffffffffffffffffffffffff1614613a7157613a708582613cd4565b5b5b600073ffffffffffffffffffffffffffffffffffffffff168473ffffffffffffffffffffffffffffffffffffffff161415613ab557613ab081613e41565b613af4565b8473ffffffffffffffffffffffffffffffffffffffff168473ffffffffffffffffffffffffffffffffffffffff1614613af357613af28482613f84565b5b5b5050505050565b60007f01ffc9a7000000000000000000000000000000000000000000000000000000007bffffffffffffffffffffffffffffffffffffffffffffffffffffffff1916827bffffffffffffffffffffffffffffffffffffffffffffffffffffffff1916149050919050565b6001811115613c8557600073ffffffffffffffffffffffffffffffffffffffff168473ffffffffffffffffffffffffffffffffffffffff1614613bf95780600560008673ffffffffffffffffffffffffffffffffffffffff1673ffffffffffffffffffffffffffffffffffffffff1681526020019081526020016000206000828254613bf19190614f91565b925050819055505b600073ffffffffffffffffffffffffffffffffffffffff168373ffffffffffffffffffffffffffffffffffffffff1614613c845780600560008573ffffffffffffffffffffffffffffffffffffffff1673ffffffffffffffffffffffffffffffffffffffff1681526020019081526020016000206000828254613c7c9190614ee1565b925050819055505b5b50505050565b600a80549050600b600083815260200190815260200160002081905550600a81908060018154018082558091505060019003906000526020600020016000909190919091505550565b60006001613ce184611185565b613ceb9190614f91565b9050600060096000848152602001908152602001600020549050818114613dd0576000600860008673ffffffffffffffffffffffffffffffffffffffff1673ffffffffffffffffffffffffffffffffffffffff168152602001908152602001600020600084815260200190815260200160002054905080600860008773ffffffffffffffffffffffffffffffffffffffff1673ffffffffffffffffffffffffffffffffffffffff168152602001908152602001600020600084815260200190815260200160002081905550816009600083815260200190815260200160002081905550505b6009600084815260200190815260200160002060009055600860008573ffffffffffffffffffffffffffffffffffffffff1673ffffffffffffffffffffffffffffffffffffffff16815260200190815260200160002060008381526020019081526020016000206000905550505050565b60006001600a80549050613e559190614f91565b90506000600b60008481526020019081526020016000205490506000600a8381548110613eab577f4e487b7100000000000000000000000000000000000000000000000000000000600052603260045260246000fd5b9060005260206000200154905080600a8381548110613ef3577f4e487b7100000000000000000000000000000000000000000000000000000000600052603260045260246000fd5b906000526020600020018190555081600b600083815260200190815260200160002081905550600b600085815260200190815260200160002060009055600a805480613f68577f4e487b7100000000000000000000000000000000000000000000000000000000600052603160045260246000fd5b6001900381819060005260206000200160009055905550505050565b6000613f8f83611185565b905081600860008573ffffffffffffffffffffffffffffffffffffffff1673ffffffffffffffffffffffffffffffffffffffff168152602001908152602001600020600083815260200190815260200160002081905550806009600084815260200190815260200160002081905550505050565b600061401661401184614e6d565b614e48565b90508281526020810184848401111561402e57600080fd5b614039848285615043565b509392505050565b60008135905061405081615979565b92915050565b60008135905061406581615990565b92915050565b60008135905061407a816159a7565b92915050565b60008135905061408f816159be565b92915050565b6000815190506140a4816159be565b92915050565b600082601f8301126140bb57600080fd5b81356140cb848260208601614003565b91505092915050565b6000813590506140e3816159d5565b92915050565b6000602082840312156140fb57600080fd5b600061410984828501614041565b91505092915050565b6000806040838503121561412557600080fd5b600061413385828601614041565b925050602061414485828601614041565b9150509250929050565b60008060006060848603121561416357600080fd5b600061417186828701614041565b935050602061418286828701614041565b9250506040614193868287016140d4565b9150509250925092565b600080600080608085870312156141b357600080fd5b60006141c187828801614041565b94505060206141d287828801614041565b93505060406141e3878288016140d4565b925050606085013567ffffffffffffffff81111561420057600080fd5b61420c878288016140aa565b91505092959194509250565b6000806040838503121561422b57600080fd5b600061423985828601614041565b925050602061424a85828601614056565b9150509250929050565b6000806040838503121561426757600080fd5b600061427585828601614041565b9250506020614286858286016140d4565b9150509250929050565b6000602082840312156142a257600080fd5b60006142b08482850161406b565b91505092915050565b600080604083850312156142cc57600080fd5b60006142da8582860161406b565b92505060206142eb85828601614041565b9150509250929050565b6000806040838503121561430857600080fd5b60006143168582860161406b565b9250506020614327858286016140d4565b9150509250929050565b60006020828403121561434357600080fd5b600061435184828501614080565b91505092915050565b60006020828403121561436c57600080fd5b600061437a84828501614095565b91505092915050565b60006020828403121561439557600080fd5b60006143a3848285016140d4565b91505092915050565b600080604083850312156143bf57600080fd5b60006143cd858286016140d4565b92505060206143de85828601614041565b9150509250929050565b6143f181614fc5565b82525050565b61440081614fd7565b82525050565b61440f81614fe3565b82525050565b600061442082614e9e565b61442a8185614eb4565b935061443a818560208601615052565b614443816151e8565b840191505092915050565b600061445982614ea9565b6144638185614ec5565b9350614473818560208601615052565b61447c816151e8565b840191505092915050565b600061449282614ea9565b61449c8185614ed6565b93506144ac818560208601615052565b80840191505092915050565b60006144c5602083614ec5565b91506144d0826151f9565b602082019050919050565b60006144e8602b83614ec5565b91506144f382615222565b604082019050919050565b600061450b601483614ec5565b915061451682615271565b602082019050919050565b600061452e601383614ec5565b91506145398261529a565b602082019050919050565b6000614551602d83614ec5565b915061455c826152c3565b604082019050919050565b6000614574602b83614ec5565b915061457f82615312565b604082019050919050565b6000614597603283614ec5565b91506145a282615361565b604082019050919050565b60006145ba602683614ec5565b91506145c5826153b0565b604082019050919050565b60006145dd602583614ec5565b91506145e8826153ff565b604082019050919050565b6000614600601c83614ec5565b915061460b8261544e565b602082019050919050565b6000614623603e83614ec5565b915061462e82615477565b604082019050919050565b6000614646602483614ec5565b9150614651826154c6565b604082019050919050565b6000614669601983614ec5565b915061467482615515565b602082019050919050565b600061468c600883614ec5565b91506146978261553e565b602082019050919050565b60006146af601083614ec5565b91506146ba82615567565b602082019050919050565b60006146d2602983614ec5565b91506146dd82615590565b604082019050919050565b60006146f5601783614ec5565b9150614700826155df565b602082019050919050565b6000614718602083614ec5565b915061472382615608565b602082019050919050565b600061473b602083614ec5565b915061474682615631565b602082019050919050565b600061475e600983614ec5565b91506147698261565a565b602082019050919050565b6000614781601883614ec5565b915061478c82615683565b602082019050919050565b60006147a4602183614ec5565b91506147af826156ac565b604082019050919050565b60006147c7603d83614ec5565b91506147d2826156fb565b604082019050919050565b60006147ea602c83614ec5565b91506147f58261574a565b604082019050919050565b600061480d601783614ed6565b915061481882615799565b601782019050919050565b6000614830603583614ec5565b915061483b826157c2565b604082019050919050565b6000614853600b83614ec5565b915061485e82615811565b602082019050919050565b6000614876603d83614ec5565b91506148818261583a565b604082019050919050565b6000614899601283614ec5565b91506148a482615889565b602082019050919050565b60006148bc604083614ec5565b91506148c7826158b2565b604082019050919050565b60006148df601183614ed6565b91506148ea82615901565b601182019050919050565b6000614902602f83614ec5565b915061490d8261592a565b604082019050919050565b61492181615039565b82525050565b60006149338285614487565b915061493f8284614487565b91508190509392505050565b600061495682614800565b91506149628285614487565b915061496d826148d2565b91506149798284614487565b91508190509392505050565b600060208201905061499a60008301846143e8565b92915050565b60006080820190506149b560008301876143e8565b6149c260208301866143e8565b6149cf6040830185614918565b81810360608301526149e18184614415565b905095945050505050565b6000602082019050614a0160008301846143f7565b92915050565b6000602082019050614a1c6000830184614406565b92915050565b60006020820190508181036000830152614a3c818461444e565b905092915050565b60006020820190508181036000830152614a5d816144b8565b9050919050565b60006020820190508181036000830152614a7d816144db565b9050919050565b60006020820190508181036000830152614a9d816144fe565b9050919050565b60006020820190508181036000830152614abd81614521565b9050919050565b60006020820190508181036000830152614add81614544565b9050919050565b60006020820190508181036000830152614afd81614567565b9050919050565b60006020820190508181036000830152614b1d8161458a565b9050919050565b60006020820190508181036000830152614b3d816145ad565b9050919050565b60006020820190508181036000830152614b5d816145d0565b9050919050565b60006020820190508181036000830152614b7d816145f3565b9050919050565b60006020820190508181036000830152614b9d81614616565b9050919050565b60006020820190508181036000830152614bbd81614639565b9050919050565b60006020820190508181036000830152614bdd8161465c565b9050919050565b60006020820190508181036000830152614bfd8161467f565b9050919050565b60006020820190508181036000830152614c1d816146a2565b9050919050565b60006020820190508181036000830152614c3d816146c5565b9050919050565b60006020820190508181036000830152614c5d816146e8565b9050919050565b60006020820190508181036000830152614c7d8161470b565b9050919050565b60006020820190508181036000830152614c9d8161472e565b9050919050565b60006020820190508181036000830152614cbd81614751565b9050919050565b60006020820190508181036000830152614cdd81614774565b9050919050565b60006020820190508181036000830152614cfd81614797565b9050919050565b60006020820190508181036000830152614d1d816147ba565b9050919050565b60006020820190508181036000830152614d3d816147dd565b9050919050565b60006020820190508181036000830152614d5d81614823565b9050919050565b60006020820190508181036000830152614d7d81614846565b9050919050565b60006020820190508181036000830152614d9d81614869565b9050919050565b60006020820190508181036000830152614dbd8161488c565b9050919050565b60006020820190508181036000830152614ddd816148af565b9050919050565b60006020820190508181036000830152614dfd816148f5565b9050919050565b6000602082019050614e196000830184614918565b92915050565b6000604082019050614e346000830185614918565b614e4160208301846143e8565b9392505050565b6000614e52614e63565b9050614e5e82826150e1565b919050565b6000604051905090565b600067ffffffffffffffff821115614e8857614e876151b9565b5b614e91826151e8565b9050602081019050919050565b600081519050919050565b600081519050919050565b600082825260208201905092915050565b600082825260208201905092915050565b600081905092915050565b6000614eec82615039565b9150614ef783615039565b9250827fffffffffffffffffffffffffffffffffffffffffffffffffffffffffffffffff03821115614f2c57614f2b61515b565b5b828201905092915050565b6000614f4282615039565b9150614f4d83615039565b9250817fffffffffffffffffffffffffffffffffffffffffffffffffffffffffffffffff0483118215151615614f8657614f8561515b565b5b828202905092915050565b6000614f9c82615039565b9150614fa783615039565b925082821015614fba57614fb961515b565b5b828203905092915050565b6000614fd082615019565b9050919050565b60008115159050919050565b6000819050919050565b60007fffffffff0000000000000000000000000000000000000000000000000000000082169050919050565b600073ffffffffffffffffffffffffffffffffffffffff82169050919050565b6000819050919050565b82818337600083830152505050565b60005b83811015615070578082015181840152602081019050615055565b8381111561507f576000848401525b50505050565b600061509082615039565b915060008214156150a4576150a361515b565b5b600182039050919050565b600060028204905060018216806150c757607f821691505b602082108114156150db576150da61518a565b5b50919050565b6150ea826151e8565b810181811067ffffffffffffffff82111715615109576151086151b9565b5b80604052505050565b600061511d82615039565b91507fffffffffffffffffffffffffffffffffffffffffffffffffffffffffffffffff8214156151505761514f61515b565b5b600182019050919050565b7f4e487b7100000000000000000000000000000000000000000000000000000000600052601160045260246000fd5b7f4e487b7100000000000000000000000000000000000000000000000000000000600052602260045260246000fd5b7f4e487b7100000000000000000000000000000000000000000000000000000000600052604160045260246000fd5b6000601f19601f8301169050919050565b7f537472696e67733a20686578206c656e67746820696e73756666696369656e74600082015250565b7f4552433732315061757361626c653a20746f6b656e207472616e73666572207760008201527f68696c6520706175736564000000000000000000000000000000000000000000602082015250565b7f5061757361626c653a206e6f7420706175736564000000000000000000000000600082015250565b7f73616c65206861736e2774207374617274656400000000000000000000000000600082015250565b7f4552433732313a2063616c6c6572206973206e6f7420746f6b656e206f776e6560008201527f72206f7220617070726f76656400000000000000000000000000000000000000602082015250565b7f455243373231456e756d657261626c653a206f776e657220696e646578206f7560008201527f74206f6620626f756e6473000000000000000000000000000000000000000000602082015250565b7f4552433732313a207472616e7366657220746f206e6f6e20455243373231526560008201527f63656976657220696d706c656d656e7465720000000000000000000000000000602082015250565b7f4f776e61626c653a206e6577206f776e657220697320746865207a65726f206160008201527f6464726573730000000000000000000000000000000000000000000000000000602082015250565b7f4552433732313a207472616e736665722066726f6d20696e636f72726563742060008201527f6f776e6572000000000000000000000000000000000000000000000000000000602082015250565b7f4552433732313a20746f6b656e20616c7265616479206d696e74656400000000600082015250565b7f4552433732315072657365744d696e7465725061757365724175746f49643a2060008201527f6d75737420686176652070617573657220726f6c6520746f2070617573650000602082015250565b7f4552433732313a207472616e7366657220746f20746865207a65726f2061646460008201527f7265737300000000000000000000000000000000000000000000000000000000602082015250565b7f4552433732313a20617070726f766520746f2063616c6c657200000000000000600082015250565b7f736f6c64206f7574000000000000000000000000000000000000000000000000600082015250565b7f5061757361626c653a2070617573656400000000000000000000000000000000600082015250565b7f4552433732313a2061646472657373207a65726f206973206e6f74206120766160008201527f6c6964206f776e65720000000000000000000000000000000000000000000000602082015250565b7f7175616e746974792063616e6e6f74206265207a65726f000000000000000000600082015250565b7f4552433732313a206d696e7420746f20746865207a65726f2061646472657373600082015250565b7f4f776e61626c653a2063616c6c6572206973206e6f7420746865206f776e6572600082015250565b7f6578636565647320330000000000000000000000000000000000000000000000600082015250565b7f4552433732313a20696e76616c696420746f6b656e2049440000000000000000600082015250565b7f4552433732313a20617070726f76616c20746f2063757272656e74206f776e6560008201527f7200000000000000000000000000000000000000000000000000000000000000602082015250565b7f4552433732313a20617070726f76652063616c6c6572206973206e6f7420746f60008201527f6b656e206f776e6572206f7220617070726f76656420666f7220616c6c000000602082015250565b7f455243373231456e756d657261626c653a20676c6f62616c20696e646578206f60008201527f7574206f6620626f756e64730000000000000000000000000000000000000000602082015250565b7f416363657373436f6e74726f6c3a206163636f756e7420000000000000000000600082015250565b7f455243373231456e756d657261626c653a20636f6e736563757469766520747260008201527f616e7366657273206e6f7420737570706f727465640000000000000000000000602082015250565b7f70617920746f206d696e74000000000000000000000000000000000000000000600082015250565b7f4552433732315072657365744d696e7465725061757365724175746f49643a2060008201527f6d7573742068617665206d696e74657220726f6c6520746f206d696e74000000602082015250565b7f707269636520706f73697469766520706c730000000000000000000000000000600082015250565b7f4552433732315072657365744d696e7465725061757365724175746f49643a2060008201527f6d75737420686176652070617573657220726f6c6520746f20756e7061757365602082015250565b7f206973206d697373696e6720726f6c6520000000000000000000000000000000600082015250565b7f416363657373436f6e74726f6c3a2063616e206f6e6c792072656e6f756e636560008201527f20726f6c657320666f722073656c660000000000000000000000000000000000602082015250565b61598281614fc5565b811461598d57600080fd5b50565b61599981614fd7565b81146159a457600080fd5b50565b6159b081614fe3565b81146159bb57600080fd5b50565b6159c781614fed565b81146159d257600080fd5b50565b6159de81615039565b81146159e957600080fd5b5056fea2646970667358221220e41631c74d5acd96d6fe5c505f009aa96fb2ecb7a4ab4b8029857def69ebc41264736f6c6343000804003368747470733a2f2f6e66742e616c6563747269636f2e776f726b6572732e6465762f",
  "linkReferences": {},
  "deployedLinkReferences": {}
}