{
  "_format": "hh-sol-artifact-1",
  "contractName": "TokenBat",
  "sourceName": "contracts/TokenBat.sol",
  "abi": [
    {
      "inputs": [],
      "stateMutability": "nonpayable",
      "type": "constructor"
    },
    {
      "anonymous": false,
      "inputs": [
        {
          "indexed": true,
          "internalType": "address",
          "name": "owner",
          "type": "address"
        },
        {
          "indexed": true,
          "internalType": "address",
          "name": "approved",
          "type": "address"
        },
        {
          "indexed": true,
          "internalType": "uint256",
          "name": "tokenId",
          "type": "uint256"
        }
      ],
      "name": "Approval",
      "type": "event"
    },
    {
      "anonymous": false,
      "inputs": [
        {
          "indexed": true,
          "internalType": "address",
          "name": "owner",
          "type": "address"
        },
        {
          "indexed": true,
          "internalType": "address",
          "name": "operator",
          "type": "address"
        },
        {
          "indexed": false,
          "internalType": "bool",
          "name": "approved",
          "type": "bool"
        }
      ],
      "name": "ApprovalForAll",
      "type": "event"
    },
    {
      "anonymous": false,
      "inputs": [
        {
          "indexed": false,
          "internalType": "uint256",
          "name": "tokenId",
          "type": "uint256"
        },
        {
          "indexed": false,
          "internalType": "address",
          "name": "owner",
          "type": "address"
        }
      ],
      "name": "Minted",
      "type": "event"
    },
    {
      "anonymous": false,
      "inputs": [
        {
          "indexed": true,
          "internalType": "address",
          "name": "previousOwner",
          "type": "address"
        },
        {
          "indexed": true,
          "internalType": "address",
          "name": "newOwner",
          "type": "address"
        }
      ],
      "name": "OwnershipTransferred",
      "type": "event"
    },
    {
      "anonymous": false,
      "inputs": [
        {
          "indexed": false,
          "internalType": "address",
          "name": "account",
          "type": "address"
        }
      ],
      "name": "Paused",
      "type": "event"
    },
    {
      "anonymous": false,
      "inputs": [
        {
          "indexed": false,
          "internalType": "uint256",
          "name": "tokenId",
          "type": "uint256"
        },
        {
          "indexed": false,
          "internalType": "address",
          "name": "owner",
          "type": "address"
        }
      ],
      "name": "Redeemed",
      "type": "event"
    },
    {
      "anonymous": false,
      "inputs": [
        {
          "indexed": true,
          "internalType": "bytes32",
          "name": "role",
          "type": "bytes32"
        },
        {
          "indexed": true,
          "internalType": "bytes32",
          "name": "previousAdminRole",
          "type": "bytes32"
        },
        {
          "indexed": true,
          "internalType": "bytes32",
          "name": "newAdminRole",
          "type": "bytes32"
        }
      ],
      "name": "RoleAdminChanged",
      "type": "event"
    },
    {
      "anonymous": false,
      "inputs": [
        {
          "indexed": true,
          "internalType": "bytes32",
          "name": "role",
          "type": "bytes32"
        },
        {
          "indexed": true,
          "internalType": "address",
          "name": "account",
          "type": "address"
        },
        {
          "indexed": true,
          "internalType": "address",
          "name": "sender",
          "type": "address"
        }
      ],
      "name": "RoleGranted",
      "type": "event"
    },
    {
      "anonymous": false,
      "inputs": [
        {
          "indexed": true,
          "internalType": "bytes32",
          "name": "role",
          "type": "bytes32"
        },
        {
          "indexed": true,
          "internalType": "address",
          "name": "account",
          "type": "address"
        },
        {
          "indexed": true,
          "internalType": "address",
          "name": "sender",
          "type": "address"
        }
      ],
      "name": "RoleRevoked",
      "type": "event"
    },
    {
      "anonymous": false,
      "inputs": [
        {
          "indexed": true,
          "internalType": "address",
          "name": "from",
          "type": "address"
        },
        {
          "indexed": true,
          "internalType": "address",
          "name": "to",
          "type": "address"
        },
        {
          "indexed": true,
          "internalType": "uint256",
          "name": "tokenId",
          "type": "uint256"
        }
      ],
      "name": "Transfer",
      "type": "event"
    },
    {
      "anonymous": false,
      "inputs": [
        {
          "indexed": false,
          "internalType": "address",
          "name": "account",
          "type": "address"
        }
      ],
      "name": "Unpaused",
      "type": "event"
    },
    {
      "inputs": [],
      "name": "DEFAULT_ADMIN_ROLE",
      "outputs": [
        {
          "internalType": "bytes32",
          "name": "",
          "type": "bytes32"
        }
      ],
      "stateMutability": "view",
      "type": "function"
    },
    {
      "inputs": [],
      "name": "MAX_TOKENS",
      "outputs": [
        {
          "internalType": "uint256",
          "name": "",
          "type": "uint256"
        }
      ],
      "stateMutability": "view",
      "type": "function"
    },
    {
      "inputs": [],
      "name": "MINTER_ROLE",
      "outputs": [
        {
          "internalType": "bytes32",
          "name": "",
          "type": "bytes32"
        }
      ],
      "stateMutability": "view",
      "type": "function"
    },
    {
      "inputs": [],
      "name": "PAUSER_ROLE",
      "outputs": [
        {
          "internalType": "bytes32",
          "name": "",
          "type": "bytes32"
        }
      ],
      "stateMutability": "view",
      "type": "function"
    },
    {
      "inputs": [
        {
          "internalType": "address",
          "name": "to",
          "type": "address"
        },
        {
          "internalType": "uint256",
          "name": "tokenId",
          "type": "uint256"
        }
      ],
      "name": "approve",
      "outputs": [],
      "stateMutability": "nonpayable",
      "type": "function"
    },
    {
      "inputs": [
        {
          "internalType": "address",
          "name": "owner",
          "type": "address"
        }
      ],
      "name": "balanceOf",
      "outputs": [
        {
          "internalType": "uint256",
          "name": "",
          "type": "uint256"
        }
      ],
      "stateMutability": "view",
      "type": "function"
    },
    {
      "inputs": [
        {
          "internalType": "uint256",
          "name": "tokenId",
          "type": "uint256"
        }
      ],
      "name": "burn",
      "outputs": [],
      "stateMutability": "nonpayable",
      "type": "function"
    },
    {
      "inputs": [
        {
          "internalType": "uint256",
          "name": "tokenId",
          "type": "uint256"
        }
      ],
      "name": "getApproved",
      "outputs": [
        {
          "internalType": "address",
          "name": "",
          "type": "address"
        }
      ],
      "stateMutability": "view",
      "type": "function"
    },
    {
      "inputs": [
        {
          "internalType": "bytes32",
          "name": "role",
          "type": "bytes32"
        }
      ],
      "name": "getRoleAdmin",
      "outputs": [
        {
          "internalType": "bytes32",
          "name": "",
          "type": "bytes32"
        }
      ],
      "stateMutability": "view",
      "type": "function"
    },
    {
      "inputs": [
        {
          "internalType": "bytes32",
          "name": "role",
          "type": "bytes32"
        },
        {
          "internalType": "uint256",
          "name": "index",
          "type": "uint256"
        }
      ],
      "name": "getRoleMember",
      "outputs": [
        {
          "internalType": "address",
          "name": "",
          "type": "address"
        }
      ],
      "stateMutability": "view",
      "type": "function"
    },
    {
      "inputs": [
        {
          "internalType": "bytes32",
          "name": "role",
          "type": "bytes32"
        }
      ],
      "name": "getRoleMemberCount",
      "outputs": [
        {
          "internalType": "uint256",
          "name": "",
          "type": "uint256"
        }
      ],
      "stateMutability": "view",
      "type": "function"
    },
    {
      "inputs": [
        {
          "internalType": "bytes32",
          "name": "role",
          "type": "bytes32"
        },
        {
          "internalType": "address",
          "name": "account",
          "type": "address"
        }
      ],
      "name": "grantRole",
      "outputs": [],
      "stateMutability": "nonpayable",
      "type": "function"
    },
    {
      "inputs": [
        {
          "internalType": "bytes32",
          "name": "role",
          "type": "bytes32"
        },
        {
          "internalType": "address",
          "name": "account",
          "type": "address"
        }
      ],
      "name": "hasRole",
      "outputs": [
        {
          "internalType": "bool",
          "name": "",
          "type": "bool"
        }
      ],
      "stateMutability": "view",
      "type": "function"
    },
    {
      "inputs": [],
      "name": "hasSaleStarted",
      "outputs": [
        {
          "internalType": "bool",
          "name": "",
          "type": "bool"
        }
      ],
      "stateMutability": "view",
      "type": "function"
    },
    {
      "inputs": [],
      "name": "hasSoldOut",
      "outputs": [
        {
          "internalType": "bool",
          "name": "",
          "type": "bool"
        }
      ],
      "stateMutability": "view",
      "type": "function"
    },
    {
      "inputs": [
        {
          "internalType": "address",
          "name": "_owner",
          "type": "address"
        },
        {
          "internalType": "address",
          "name": "_operator",
          "type": "address"
        }
      ],
      "name": "isApprovedForAll",
      "outputs": [
        {
          "internalType": "bool",
          "name": "isOperator",
          "type": "bool"
        }
      ],
      "stateMutability": "view",
      "type": "function"
    },
    {
      "inputs": [
        {
          "internalType": "address",
          "name": "to",
          "type": "address"
        }
      ],
      "name": "mint",
      "outputs": [],
      "stateMutability": "nonpayable",
      "type": "function"
    },
    {
      "inputs": [
        {
          "internalType": "uint256",
          "name": "quantity",
          "type": "uint256"
        },
        {
          "internalType": "address",
          "name": "receiver",
          "type": "address"
        }
      ],
      "name": "mintToken",
      "outputs": [],
      "stateMutability": "payable",
      "type": "function"
    },
    {
      "inputs": [],
      "name": "name",
      "outputs": [
        {
          "internalType": "string",
          "name": "",
          "type": "string"
        }
      ],
      "stateMutability": "view",
      "type": "function"
    },
    {
      "inputs": [],
      "name": "owner",
      "outputs": [
        {
          "internalType": "address",
          "name": "",
          "type": "address"
        }
      ],
      "stateMutability": "view",
      "type": "function"
    },
    {
      "inputs": [
        {
          "internalType": "uint256",
          "name": "tokenId",
          "type": "uint256"
        }
      ],
      "name": "ownerOf",
      "outputs": [
        {
          "internalType": "address",
          "name": "",
          "type": "address"
        }
      ],
      "stateMutability": "view",
      "type": "function"
    },
    {
      "inputs": [],
      "name": "pause",
      "outputs": [],
      "stateMutability": "nonpayable",
      "type": "function"
    },
    {
      "inputs": [],
      "name": "pauseSale",
      "outputs": [],
      "stateMutability": "nonpayable",
      "type": "function"
    },
    {
      "inputs": [],
      "name": "paused",
      "outputs": [
        {
          "internalType": "bool",
          "name": "",
          "type": "bool"
        }
      ],
      "stateMutability": "view",
      "type": "function"
    },
    {
      "inputs": [
        {
          "internalType": "uint256",
          "name": "_tokenId",
          "type": "uint256"
        },
        {
          "internalType": "address",
          "name": "receiver",
          "type": "address"
        }
      ],
      "name": "redeemToken",
      "outputs": [],
      "stateMutability": "nonpayable",
      "type": "function"
    },
    {
      "inputs": [],
      "name": "renounceOwnership",
      "outputs": [],
      "stateMutability": "nonpayable",
      "type": "function"
    },
    {
      "inputs": [
        {
          "internalType": "bytes32",
          "name": "role",
          "type": "bytes32"
        },
        {
          "internalType": "address",
          "name": "account",
          "type": "address"
        }
      ],
      "name": "renounceRole",
      "outputs": [],
      "stateMutability": "nonpayable",
      "type": "function"
    },
    {
      "inputs": [
        {
          "internalType": "bytes32",
          "name": "role",
          "type": "bytes32"
        },
        {
          "internalType": "address",
          "name": "account",
          "type": "address"
        }
      ],
      "name": "revokeRole",
      "outputs": [],
      "stateMutability": "nonpayable",
      "type": "function"
    },
    {
      "inputs": [
        {
          "internalType": "address",
          "name": "from",
          "type": "address"
        },
        {
          "internalType": "address",
          "name": "to",
          "type": "address"
        },
        {
          "internalType": "uint256",
          "name": "tokenId",
          "type": "uint256"
        }
      ],
      "name": "safeTransferFrom",
      "outputs": [],
      "stateMutability": "nonpayable",
      "type": "function"
    },
    {
      "inputs": [
        {
          "internalType": "address",
          "name": "from",
          "type": "address"
        },
        {
          "internalType": "address",
          "name": "to",
          "type": "address"
        },
        {
          "internalType": "uint256",
          "name": "tokenId",
          "type": "uint256"
        },
        {
          "internalType": "bytes",
          "name": "data",
          "type": "bytes"
        }
      ],
      "name": "safeTransferFrom",
      "outputs": [],
      "stateMutability": "nonpayable",
      "type": "function"
    },
    {
      "inputs": [
        {
          "internalType": "address payable",
          "name": "_to",
          "type": "address"
        },
        {
          "internalType": "uint256",
          "name": "_priceToPay",
          "type": "uint256"
        }
      ],
      "name": "sendEther",
      "outputs": [
        {
          "internalType": "bool",
          "name": "",
          "type": "bool"
        }
      ],
      "stateMutability": "payable",
      "type": "function"
    },
    {
      "inputs": [
        {
          "internalType": "address",
          "name": "operator",
          "type": "address"
        },
        {
          "internalType": "bool",
          "name": "approved",
          "type": "bool"
        }
      ],
      "name": "setApprovalForAll",
      "outputs": [],
      "stateMutability": "nonpayable",
      "type": "function"
    },
    {
      "inputs": [],
      "name": "startSale",
      "outputs": [],
      "stateMutability": "nonpayable",
      "type": "function"
    },
    {
      "inputs": [
        {
          "internalType": "bytes4",
          "name": "interfaceId",
          "type": "bytes4"
        }
      ],
      "name": "supportsInterface",
      "outputs": [
        {
          "internalType": "bool",
          "name": "",
          "type": "bool"
        }
      ],
      "stateMutability": "view",
      "type": "function"
    },
    {
      "inputs": [],
      "name": "symbol",
      "outputs": [
        {
          "internalType": "string",
          "name": "",
          "type": "string"
        }
      ],
      "stateMutability": "view",
      "type": "function"
    },
    {
      "inputs": [
        {
          "internalType": "uint256",
          "name": "index",
          "type": "uint256"
        }
      ],
      "name": "tokenByIndex",
      "outputs": [
        {
          "internalType": "uint256",
          "name": "",
          "type": "uint256"
        }
      ],
      "stateMutability": "view",
      "type": "function"
    },
    {
      "inputs": [
        {
          "internalType": "uint256",
          "name": "tokenId",
          "type": "uint256"
        }
      ],
      "name": "tokenExists",
      "outputs": [
        {
          "internalType": "bool",
          "name": "",
          "type": "bool"
        }
      ],
      "stateMutability": "view",
      "type": "function"
    },
    {
      "inputs": [
        {
          "internalType": "address",
          "name": "owner",
          "type": "address"
        },
        {
          "internalType": "uint256",
          "name": "index",
          "type": "uint256"
        }
      ],
      "name": "tokenOfOwnerByIndex",
      "outputs": [
        {
          "internalType": "uint256",
          "name": "",
          "type": "uint256"
        }
      ],
      "stateMutability": "view",
      "type": "function"
    },
    {
      "inputs": [
        {
          "internalType": "uint256",
          "name": "tokenId",
          "type": "uint256"
        }
      ],
      "name": "tokenURI",
      "outputs": [
        {
          "internalType": "string",
          "name": "",
          "type": "string"
        }
      ],
      "stateMutability": "view",
      "type": "function"
    },
    {
      "inputs": [],
      "name": "totalSupply",
      "outputs": [
        {
          "internalType": "uint256",
          "name": "",
          "type": "uint256"
        }
      ],
      "stateMutability": "view",
      "type": "function"
    },
    {
      "inputs": [
        {
          "internalType": "address",
          "name": "from",
          "type": "address"
        },
        {
          "internalType": "address",
          "name": "to",
          "type": "address"
        },
        {
          "internalType": "uint256",
          "name": "tokenId",
          "type": "uint256"
        }
      ],
      "name": "transferFrom",
      "outputs": [],
      "stateMutability": "nonpayable",
      "type": "function"
    },
    {
      "inputs": [
        {
          "internalType": "address",
          "name": "newOwner",
          "type": "address"
        }
      ],
      "name": "transferOwnership",
      "outputs": [],
      "stateMutability": "nonpayable",
      "type": "function"
    },
    {
      "inputs": [],
      "name": "unpause",
      "outputs": [],
      "stateMutability": "nonpayable",
      "type": "function"
    },
    {
      "inputs": [
        {
          "internalType": "address payable",
          "name": "_to",
          "type": "address"
        },
        {
          "internalType": "uint256",
          "name": "_amount",
          "type": "uint256"
        }
      ],
      "name": "withdrawEther",
      "outputs": [
        {
          "internalType": "bool",
          "name": "",
          "type": "bool"
        }
      ],
      "stateMutability": "payable",
      "type": "function"
    }
  ],
  "bytecode": "0x60806040526000600f60146101000a81548160ff0219169083151502179055506000600f60156101000a81548160ff0219169083151502179055503480156200004757600080fd5b506040518060400160405280600881526020017f546f6b656e4261740000000000000000000000000000000000000000000000008152506040518060400160405280600881526020017f546f6b656e426174000000000000000000000000000000000000000000000000815250604051806060016040528060228152602001620065906022913982828160029080519060200190620000e89291906200062a565b508060039080519060200190620001019291906200062a565b5050506000600c60006101000a81548160ff02191690831515021790555080600e9080519060200190620001379291906200062a565b506200015c6000801b620001506200020760201b60201c565b6200022360201b60201c565b6200019d7f9f2df0fed2c77648de5860a4cc508cd0818c85b8b8a1ab4ceeef8d981c8956a6620001916200020760201b60201c565b6200022360201b60201c565b620001de7f65d7a28e3265b37a6474929f336521b332c1681b933f6cb9f3376673440d862a620001d26200020760201b60201c565b6200022360201b60201c565b50505062000201620001f56200020760201b60201c565b6200023960201b60201c565b6200073f565b60006200021e620002ff60201b62001bb61760201c565b905090565b620002358282620003b260201b60201c565b5050565b6000600f60009054906101000a900473ffffffffffffffffffffffffffffffffffffffff16905081600f60006101000a81548173ffffffffffffffffffffffffffffffffffffffff021916908373ffffffffffffffffffffffffffffffffffffffff1602179055508173ffffffffffffffffffffffffffffffffffffffff168173ffffffffffffffffffffffffffffffffffffffff167f8be0079c531659141344cd1fd0a4f28419497f9722a3daafe3b4186f6b6457e060405160405180910390a35050565b60003073ffffffffffffffffffffffffffffffffffffffff163373ffffffffffffffffffffffffffffffffffffffff161415620003ab57600080368080601f016020809104026020016040519081016040528093929190818152602001838380828437600081840152601f19601f820116905080830192505050505050509050600080369050905073ffffffffffffffffffffffffffffffffffffffff818301511692505050620003af565b3390505b90565b620003c98282620003fa60201b62001c671760201c565b620003f58160016000858152602001908152602001600020620004eb60201b62001d471790919060201c565b505050565b6200040c82826200052360201b60201c565b620004e757600160008084815260200190815260200160002060000160008373ffffffffffffffffffffffffffffffffffffffff1673ffffffffffffffffffffffffffffffffffffffff16815260200190815260200160002060006101000a81548160ff0219169083151502179055506200048c6200020760201b60201c565b73ffffffffffffffffffffffffffffffffffffffff168173ffffffffffffffffffffffffffffffffffffffff16837f2f8788117e7eff1d82e926ec794901d17c78024a50270940304540a733656f0d60405160405180910390a45b5050565b60006200051b836000018373ffffffffffffffffffffffffffffffffffffffff1660001b6200058d60201b60201c565b905092915050565b600080600084815260200190815260200160002060000160008373ffffffffffffffffffffffffffffffffffffffff1673ffffffffffffffffffffffffffffffffffffffff16815260200190815260200160002060009054906101000a900460ff16905092915050565b6000620005a183836200060760201b60201c565b620005fc57826000018290806001815401808255809150506001900390600052602060002001600090919091909150558260000180549050836001016000848152602001908152602001600020819055506001905062000601565b600090505b92915050565b600080836001016000848152602001908152602001600020541415905092915050565b8280546200063890620006da565b90600052602060002090601f0160209004810192826200065c5760008555620006a8565b82601f106200067757805160ff1916838001178555620006a8565b82800160010185558215620006a8579182015b82811115620006a75782518255916020019190600101906200068a565b5b509050620006b79190620006bb565b5090565b5b80821115620006d6576000816000905550600101620006bc565b5090565b60006002820490506001821680620006f357607f821691505b602082108114156200070a576200070962000710565b5b50919050565b7f4e487b7100000000000000000000000000000000000000000000000000000000600052602260045260246000fd5b615e41806200074f6000396000f3fe6080604052600436106102665760003560e01c806370a0823111610144578063b88d4fde116100b6578063d53913931161007a578063d539139314610928578063d547741f14610953578063e63ab1e91461097c578063e985e9c5146109a7578063f2fde38b146109e4578063f47c84c514610a0d57610266565b8063b88d4fde1461082c578063c1756a2c14610855578063c3501ff614610885578063c87b56dd146108ae578063ca15c873146108eb57610266565b806391d148541161010857806391d148541461073d57806395d89b411461077a578063a140ae23146107a5578063a217fddf146107c1578063a22cb465146107ec578063b66a0e5d1461081557610266565b806370a082311461066a578063715018a6146106a75780638456cb59146106be5780638da5cb5b146106d55780639010d07c1461070057610266565b80632f745c59116101dd5780634f6ccce7116101a15780634f6ccce714610555578063522f68151461059257806355367ba9146105c25780635c975abb146105d95780636352211e146106045780636a6278421461064157610266565b80632f745c591461048657806336568abe146104c35780633f4ba83a146104ec57806342842e0e1461050357806342966c681461052c57610266565b8063095ea7b31161022f578063095ea7b31461037857806318160ddd146103a15780631c8b232d146103cc57806323b872dd146103f7578063248a9ca3146104205780632f2ff15d1461045d57610266565b8062923f9e1461026b57806301ffc9a7146102a857806303824f76146102e557806306fdde0314610310578063081812fc1461033b575b600080fd5b34801561027757600080fd5b50610292600480360381019061028d9190614635565b610a38565b60405161029f9190614d1c565b60405180910390f35b3480156102b457600080fd5b506102cf60048036038101906102ca91906145e3565b610a4a565b6040516102dc9190614d1c565b60405180910390f35b3480156102f157600080fd5b506102fa610a5c565b6040516103079190614d1c565b60405180910390f35b34801561031c57600080fd5b50610325610a7e565b6040516103329190614d52565b60405180910390f35b34801561034757600080fd5b50610362600480360381019061035d9190614635565b610b10565b60405161036f9190614cb5565b60405180910390f35b34801561038457600080fd5b5061039f600480360381019061039a9190614506565b610b56565b005b3480156103ad57600080fd5b506103b6610c6e565b6040516103c39190615174565b60405180910390f35b3480156103d857600080fd5b506103e1610c7b565b6040516103ee9190614d1c565b60405180910390f35b34801561040357600080fd5b5061041e60048036038101906104199190614400565b610c8e565b005b34801561042c57600080fd5b5061044760048036038101906104429190614542565b610cee565b6040516104549190614d37565b60405180910390f35b34801561046957600080fd5b50610484600480360381019061047f919061456b565b610d0d565b005b34801561049257600080fd5b506104ad60048036038101906104a89190614506565b610d2e565b6040516104ba9190615174565b60405180910390f35b3480156104cf57600080fd5b506104ea60048036038101906104e5919061456b565b610dd3565b005b3480156104f857600080fd5b50610501610e56565b005b34801561050f57600080fd5b5061052a60048036038101906105259190614400565b610ed0565b005b34801561053857600080fd5b50610553600480360381019061054e9190614635565b610ef0565b005b34801561056157600080fd5b5061057c60048036038101906105779190614635565b610f4c565b6040516105899190615174565b60405180910390f35b6105ac60048036038101906105a79190614388565b610fe3565b6040516105b99190614d1c565b60405180910390f35b3480156105ce57600080fd5b506105d7611163565b005b3480156105e557600080fd5b506105ee611188565b6040516105fb9190614d1c565b60405180910390f35b34801561061057600080fd5b5061062b60048036038101906106269190614635565b61119f565b6040516106389190614cb5565b60405180910390f35b34801561064d57600080fd5b506106686004803603810190610663919061435f565b611226565b005b34801561067657600080fd5b50610691600480360381019061068c919061435f565b6112b6565b60405161069e9190615174565b60405180910390f35b3480156106b357600080fd5b506106bc61136e565b005b3480156106ca57600080fd5b506106d3611382565b005b3480156106e157600080fd5b506106ea6113fc565b6040516106f79190614cb5565b60405180910390f35b34801561070c57600080fd5b50610727600480360381019061072291906145a7565b611426565b6040516107349190614cb5565b60405180910390f35b34801561074957600080fd5b50610764600480360381019061075f919061456b565b611455565b6040516107719190614d1c565b60405180910390f35b34801561078657600080fd5b5061078f6114bf565b60405161079c9190614d52565b60405180910390f35b6107bf60048036038101906107ba919061465e565b611551565b005b3480156107cd57600080fd5b506107d6611771565b6040516107e39190614d37565b60405180910390f35b3480156107f857600080fd5b50610813600480360381019061080e91906144ca565b611778565b005b34801561082157600080fd5b5061082a61178e565b005b34801561083857600080fd5b50610853600480360381019061084e919061444f565b6117b3565b005b61086f600480360381019061086a9190614388565b611815565b60405161087c9190614d1c565b60405180910390f35b34801561089157600080fd5b506108ac60048036038101906108a7919061465e565b611995565b005b3480156108ba57600080fd5b506108d560048036038101906108d09190614635565b6119d2565b6040516108e29190614d52565b60405180910390f35b3480156108f757600080fd5b50610912600480360381019061090d9190614542565b611a3a565b60405161091f9190615174565b60405180910390f35b34801561093457600080fd5b5061093d611a5e565b60405161094a9190614d37565b60405180910390f35b34801561095f57600080fd5b5061097a6004803603810190610975919061456b565b611a82565b005b34801561098857600080fd5b50610991611aa3565b60405161099e9190614d37565b60405180910390f35b3480156109b357600080fd5b506109ce60048036038101906109c991906143c4565b611ac7565b6040516109db9190614d1c565b60405180910390f35b3480156109f057600080fd5b50610a0b6004803603810190610a06919061435f565b611b2d565b005b348015610a1957600080fd5b50610a22611bb1565b604051610a2f9190615174565b60405180910390f35b6000610a4382611d77565b9050919050565b6000610a5582611db8565b9050919050565b60006040610a68610c6e565b10610a765760019050610a7b565b600090505b90565b606060028054610a8d9061543c565b80601f0160208091040260200160405190810160405280929190818152602001828054610ab99061543c565b8015610b065780601f10610adb57610100808354040283529160200191610b06565b820191906000526020600020905b815481529060010190602001808311610ae957829003601f168201915b5050505050905090565b6000610b1b82611e32565b6006600083815260200190815260200160002060009054906101000a900473ffffffffffffffffffffffffffffffffffffffff169050919050565b6000610b618261119f565b90508073ffffffffffffffffffffffffffffffffffffffff168373ffffffffffffffffffffffffffffffffffffffff161415610bd2576040517f08c379a0000000000000000000000000000000000000000000000000000000008152600401610bc990615054565b60405180910390fd5b8073ffffffffffffffffffffffffffffffffffffffff16610bf1611e7d565b73ffffffffffffffffffffffffffffffffffffffff161480610c205750610c1f81610c1a611e7d565b611ac7565b5b610c5f576040517f08c379a0000000000000000000000000000000000000000000000000000000008152600401610c5690615074565b60405180910390fd5b610c698383611e8c565b505050565b6000600a80549050905090565b600f60159054906101000a900460ff1681565b610c9f610c99611e7d565b82611f45565b610cde576040517f08c379a0000000000000000000000000000000000000000000000000000000008152600401610cd590614df4565b60405180910390fd5b610ce9838383611fda565b505050565b6000806000838152602001908152602001600020600101549050919050565b610d1682610cee565b610d1f816122d4565b610d2983836122e8565b505050565b6000610d39836112b6565b8210610d7a576040517f08c379a0000000000000000000000000000000000000000000000000000000008152600401610d7190614e14565b60405180910390fd5b600860008473ffffffffffffffffffffffffffffffffffffffff1673ffffffffffffffffffffffffffffffffffffffff168152602001908152602001600020600083815260200190815260200160002054905092915050565b610ddb611e7d565b73ffffffffffffffffffffffffffffffffffffffff168173ffffffffffffffffffffffffffffffffffffffff1614610e48576040517f08c379a0000000000000000000000000000000000000000000000000000000008152600401610e3f90615154565b60405180910390fd5b610e52828261231c565b5050565b610e877f65d7a28e3265b37a6474929f336521b332c1681b933f6cb9f3376673440d862a610e82611e7d565b611455565b610ec6576040517f08c379a0000000000000000000000000000000000000000000000000000000008152600401610ebd90615114565b60405180910390fd5b610ece612350565b565b610eeb838383604051806020016040528060008152506117b3565b505050565b610f01610efb611e7d565b82611f45565b610f40576040517f08c379a0000000000000000000000000000000000000000000000000000000008152600401610f3790614df4565b60405180910390fd5b610f49816123b3565b50565b6000610f56610c6e565b8210610f97576040517f08c379a0000000000000000000000000000000000000000000000000000000008152600401610f8e90615094565b60405180910390fd5b600a8281548110610fd1577f4e487b7100000000000000000000000000000000000000000000000000000000600052603260045260246000fd5b90600052602060002001549050919050565b6000600f60149054906101000a900460ff1615611035576040517f08c379a000000000000000000000000000000000000000000000000000000000815260040161102c906150f4565b60405180910390fd5b6001600f60146101000a81548160ff021916908315150217905550813414611092576040517f08c379a000000000000000000000000000000000000000000000000000000000815260040161108990614fd4565b60405180910390fd5b60008373ffffffffffffffffffffffffffffffffffffffff16836040516110b890614c66565b60006040518083038185875af1925050503d80600081146110f5576040519150601f19603f3d011682016040523d82523d6000602084013e6110fa565b606091505b505090508061113e576040517f08c379a000000000000000000000000000000000000000000000000000000000815260040161113590615134565b60405180910390fd5b6000600f60146101000a81548160ff0219169083151502179055508091505092915050565b61116b612501565b6000600f60156101000a81548160ff021916908315150217905550565b6000600c60009054906101000a900460ff16905090565b6000806111ab8361257f565b9050600073ffffffffffffffffffffffffffffffffffffffff168173ffffffffffffffffffffffffffffffffffffffff16141561121d576040517f08c379a000000000000000000000000000000000000000000000000000000000815260040161121490615034565b60405180910390fd5b80915050919050565b6112577f9f2df0fed2c77648de5860a4cc508cd0818c85b8b8a1ab4ceeef8d981c8956a6611252611e7d565b611455565b611296576040517f08c379a000000000000000000000000000000000000000000000000000000000815260040161128d906150d4565b60405180910390fd5b6112a9816112a4600d6125bc565b6125ca565b6112b3600d6127e8565b50565b60008073ffffffffffffffffffffffffffffffffffffffff168273ffffffffffffffffffffffffffffffffffffffff161415611327576040517f08c379a000000000000000000000000000000000000000000000000000000000815260040161131e90614f74565b60405180910390fd5b600560008373ffffffffffffffffffffffffffffffffffffffff1673ffffffffffffffffffffffffffffffffffffffff168152602001908152602001600020549050919050565b611376612501565b61138060006127fe565b565b6113b37f65d7a28e3265b37a6474929f336521b332c1681b933f6cb9f3376673440d862a6113ae611e7d565b611455565b6113f2576040517f08c379a00000000000000000000000000000000000000000000000000000000081526004016113e990614eb4565b60405180910390fd5b6113fa6128c4565b565b6000600f60009054906101000a900473ffffffffffffffffffffffffffffffffffffffff16905090565b600061144d826001600086815260200190815260200160002061292790919063ffffffff16565b905092915050565b600080600084815260200190815260200160002060000160008373ffffffffffffffffffffffffffffffffffffffff1673ffffffffffffffffffffffffffffffffffffffff16815260200190815260200160002060009054906101000a900460ff16905092915050565b6060600380546114ce9061543c565b80601f01602080910402602001604051908101604052809291908181526020018280546114fa9061543c565b80156115475780601f1061151c57610100808354040283529160200191611547565b820191906000526020600020905b81548152906001019060200180831161152a57829003601f168201915b5050505050905090565b600f60159054906101000a900460ff168061159e575061156f6113fc565b73ffffffffffffffffffffffffffffffffffffffff163373ffffffffffffffffffffffffffffffffffffffff16145b6115dd576040517f08c379a00000000000000000000000000000000000000000000000000000000081526004016115d490614dd4565b60405180910390fd5b60008211611620576040517f08c379a000000000000000000000000000000000000000000000000000000000815260040161161790614f94565b60405180910390fd5b6003821115611664576040517f08c379a000000000000000000000000000000000000000000000000000000000815260040161165b90615014565b60405180910390fd5b604061168083611672610c6e565b61294190919063ffffffff16565b1115806116bf57506116906113fc565b73ffffffffffffffffffffffffffffffffffffffff163373ffffffffffffffffffffffffffffffffffffffff16145b6116fe576040517f08c379a00000000000000000000000000000000000000000000000000000000081526004016116f590614f14565b60405180910390fd5b60005b8281101561176c576000611713610c6e565b905061171f8382612957565b7fb9203d657e9c0ec8274c818292ab0f58b04e1970050716891770eb1bab5d655e818460405161175092919061518f565b60405180910390a15080806117649061549f565b915050611701565b505050565b6000801b81565b61178a611783611e7d565b8383612975565b5050565b611796612501565b6001600f60156101000a81548160ff021916908315150217905550565b6117c46117be611e7d565b83611f45565b611803576040517f08c379a00000000000000000000000000000000000000000000000000000000081526004016117fa90614df4565b60405180910390fd5b61180f84848484612ae2565b50505050565b6000600f60149054906101000a900460ff1615611867576040517f08c379a000000000000000000000000000000000000000000000000000000000815260040161185e906150f4565b60405180910390fd5b6001600f60146101000a81548160ff0219169083151502179055508134146118c4576040517f08c379a00000000000000000000000000000000000000000000000000000000081526004016118bb90614fd4565b60405180910390fd5b60008373ffffffffffffffffffffffffffffffffffffffff16836040516118ea90614c66565b60006040518083038185875af1925050503d8060008114611927576040519150601f19603f3d011682016040523d82523d6000602084013e61192c565b606091505b5050905080611970576040517f08c379a000000000000000000000000000000000000000000000000000000000815260040161196790614f34565b60405180910390fd5b6000600f60146101000a81548160ff0219169083151502179055508091505092915050565b7fc5fcfb68332ef11d542d4ab7e75045a5e4d66eb2d8f846f13a48356b32e534db82826040516119c692919061518f565b60405180910390a15050565b60606119dd82611e32565b60006119e7612b3e565b90506000815111611a075760405180602001604052806000815250611a32565b80611a1184612bd0565b604051602001611a22929190614c42565b6040516020818303038152906040525b915050919050565b6000611a5760016000848152602001908152602001600020612cf4565b9050919050565b7f9f2df0fed2c77648de5860a4cc508cd0818c85b8b8a1ab4ceeef8d981c8956a681565b611a8b82610cee565b611a94816122d4565b611a9e838361231c565b505050565b7f65d7a28e3265b37a6474929f336521b332c1681b933f6cb9f3376673440d862a81565b60007358807bad0b376efc12f5ad86aac70e78ed67deae73ffffffffffffffffffffffffffffffffffffffff168273ffffffffffffffffffffffffffffffffffffffff161415611b1a5760019050611b27565b611b248383612d09565b90505b92915050565b611b35612501565b600073ffffffffffffffffffffffffffffffffffffffff168173ffffffffffffffffffffffffffffffffffffffff161415611ba5576040517f08c379a0000000000000000000000000000000000000000000000000000000008152600401611b9c90614e54565b60405180910390fd5b611bae816127fe565b50565b604081565b60003073ffffffffffffffffffffffffffffffffffffffff163373ffffffffffffffffffffffffffffffffffffffff161415611c6057600080368080601f016020809104026020016040519081016040528093929190818152602001838380828437600081840152601f19601f820116905080830192505050505050509050600080369050905073ffffffffffffffffffffffffffffffffffffffff818301511692505050611c64565b3390505b90565b611c718282611455565b611d4357600160008084815260200190815260200160002060000160008373ffffffffffffffffffffffffffffffffffffffff1673ffffffffffffffffffffffffffffffffffffffff16815260200190815260200160002060006101000a81548160ff021916908315150217905550611ce8611e7d565b73ffffffffffffffffffffffffffffffffffffffff168173ffffffffffffffffffffffffffffffffffffffff16837f2f8788117e7eff1d82e926ec794901d17c78024a50270940304540a733656f0d60405160405180910390a45b5050565b6000611d6f836000018373ffffffffffffffffffffffffffffffffffffffff1660001b612d9d565b905092915050565b60008073ffffffffffffffffffffffffffffffffffffffff16611d998361257f565b73ffffffffffffffffffffffffffffffffffffffff1614159050919050565b60007f780e9d63000000000000000000000000000000000000000000000000000000007bffffffffffffffffffffffffffffffffffffffffffffffffffffffff1916827bffffffffffffffffffffffffffffffffffffffffffffffffffffffff19161480611e2b5750611e2a82612e0d565b5b9050919050565b611e3b81611d77565b611e7a576040517f08c379a0000000000000000000000000000000000000000000000000000000008152600401611e7190615034565b60405180910390fd5b50565b6000611e87611bb6565b905090565b816006600083815260200190815260200160002060006101000a81548173ffffffffffffffffffffffffffffffffffffffff021916908373ffffffffffffffffffffffffffffffffffffffff160217905550808273ffffffffffffffffffffffffffffffffffffffff16611eff8361119f565b73ffffffffffffffffffffffffffffffffffffffff167f8c5be1e5ebec7d5bd14f71427d1e84f3dd0314c0f7b2291e5b200ac8c7c3b92560405160405180910390a45050565b600080611f518361119f565b90508073ffffffffffffffffffffffffffffffffffffffff168473ffffffffffffffffffffffffffffffffffffffff161480611f935750611f928185611ac7565b5b80611fd157508373ffffffffffffffffffffffffffffffffffffffff16611fb984610b10565b73ffffffffffffffffffffffffffffffffffffffff16145b91505092915050565b8273ffffffffffffffffffffffffffffffffffffffff16611ffa8261119f565b73ffffffffffffffffffffffffffffffffffffffff1614612050576040517f08c379a000000000000000000000000000000000000000000000000000000000815260040161204790614e74565b60405180910390fd5b600073ffffffffffffffffffffffffffffffffffffffff168273ffffffffffffffffffffffffffffffffffffffff1614156120c0576040517f08c379a00000000000000000000000000000000000000000000000000000000081526004016120b790614ed4565b60405180910390fd5b6120cd8383836001612eef565b8273ffffffffffffffffffffffffffffffffffffffff166120ed8261119f565b73ffffffffffffffffffffffffffffffffffffffff1614612143576040517f08c379a000000000000000000000000000000000000000000000000000000000815260040161213a90614e74565b60405180910390fd5b6006600082815260200190815260200160002060006101000a81549073ffffffffffffffffffffffffffffffffffffffff02191690556001600560008573ffffffffffffffffffffffffffffffffffffffff1673ffffffffffffffffffffffffffffffffffffffff168152602001908152602001600020600082825403925050819055506001600560008473ffffffffffffffffffffffffffffffffffffffff1673ffffffffffffffffffffffffffffffffffffffff16815260200190815260200160002060008282540192505081905550816004600083815260200190815260200160002060006101000a81548173ffffffffffffffffffffffffffffffffffffffff021916908373ffffffffffffffffffffffffffffffffffffffff160217905550808273ffffffffffffffffffffffffffffffffffffffff168473ffffffffffffffffffffffffffffffffffffffff167fddf252ad1be2c89b69c2b068fc378daa952ba7f163c4a11628f55a4df523b3ef60405160405180910390a46122cf8383836001612f01565b505050565b6122e5816122e0611e7d565b612f07565b50565b6122f28282611c67565b6123178160016000858152602001908152602001600020611d4790919063ffffffff16565b505050565b6123268282612f8c565b61234b816001600085815260200190815260200160002061306d90919063ffffffff16565b505050565b61235861309d565b6000600c60006101000a81548160ff0219169083151502179055507f5db9ee0a495bf2e6ff9c91a7834c1ba4fdd244a5e8aa4e537bd38aeae4b073aa61239c611e7d565b6040516123a99190614cb5565b60405180910390a1565b60006123be8261119f565b90506123ce816000846001612eef565b6123d78261119f565b90506006600083815260200190815260200160002060006101000a81549073ffffffffffffffffffffffffffffffffffffffff02191690556001600560008373ffffffffffffffffffffffffffffffffffffffff1673ffffffffffffffffffffffffffffffffffffffff168152602001908152602001600020600082825403925050819055506004600083815260200190815260200160002060006101000a81549073ffffffffffffffffffffffffffffffffffffffff021916905581600073ffffffffffffffffffffffffffffffffffffffff168273ffffffffffffffffffffffffffffffffffffffff167fddf252ad1be2c89b69c2b068fc378daa952ba7f163c4a11628f55a4df523b3ef60405160405180910390a46124fd816000846001612f01565b5050565b612509611e7d565b73ffffffffffffffffffffffffffffffffffffffff166125276113fc565b73ffffffffffffffffffffffffffffffffffffffff161461257d576040517f08c379a000000000000000000000000000000000000000000000000000000000815260040161257490614ff4565b60405180910390fd5b565b60006004600083815260200190815260200160002060009054906101000a900473ffffffffffffffffffffffffffffffffffffffff169050919050565b600081600001549050919050565b600073ffffffffffffffffffffffffffffffffffffffff168273ffffffffffffffffffffffffffffffffffffffff16141561263a576040517f08c379a000000000000000000000000000000000000000000000000000000000815260040161263190614fb4565b60405180910390fd5b61264381611d77565b15612683576040517f08c379a000000000000000000000000000000000000000000000000000000000815260040161267a90614e94565b60405180910390fd5b612691600083836001612eef565b61269a81611d77565b156126da576040517f08c379a00000000000000000000000000000000000000000000000000000000081526004016126d190614e94565b60405180910390fd5b6001600560008473ffffffffffffffffffffffffffffffffffffffff1673ffffffffffffffffffffffffffffffffffffffff16815260200190815260200160002060008282540192505081905550816004600083815260200190815260200160002060006101000a81548173ffffffffffffffffffffffffffffffffffffffff021916908373ffffffffffffffffffffffffffffffffffffffff160217905550808273ffffffffffffffffffffffffffffffffffffffff16600073ffffffffffffffffffffffffffffffffffffffff167fddf252ad1be2c89b69c2b068fc378daa952ba7f163c4a11628f55a4df523b3ef60405160405180910390a46127e4600083836001612f01565b5050565b6001816000016000828254019250508190555050565b6000600f60009054906101000a900473ffffffffffffffffffffffffffffffffffffffff16905081600f60006101000a81548173ffffffffffffffffffffffffffffffffffffffff021916908373ffffffffffffffffffffffffffffffffffffffff1602179055508173ffffffffffffffffffffffffffffffffffffffff168173ffffffffffffffffffffffffffffffffffffffff167f8be0079c531659141344cd1fd0a4f28419497f9722a3daafe3b4186f6b6457e060405160405180910390a35050565b6128cc6130e6565b6001600c60006101000a81548160ff0219169083151502179055507f62e78cea01bee320cd4e420270b5ea74000d11b0c9f74754ebdbfc544b05a258612910611e7d565b60405161291d9190614cb5565b60405180910390a1565b60006129368360000183613130565b60001c905092915050565b6000818361294f919061525c565b905092915050565b612971828260405180602001604052806000815250613181565b5050565b8173ffffffffffffffffffffffffffffffffffffffff168373ffffffffffffffffffffffffffffffffffffffff1614156129e4576040517f08c379a00000000000000000000000000000000000000000000000000000000081526004016129db90614ef4565b60405180910390fd5b80600760008573ffffffffffffffffffffffffffffffffffffffff1673ffffffffffffffffffffffffffffffffffffffff16815260200190815260200160002060008473ffffffffffffffffffffffffffffffffffffffff1673ffffffffffffffffffffffffffffffffffffffff16815260200190815260200160002060006101000a81548160ff0219169083151502179055508173ffffffffffffffffffffffffffffffffffffffff168373ffffffffffffffffffffffffffffffffffffffff167f17307eab39ab6107e8899845ad3d59bd9653f200f220920489ca2b5937696c3183604051612ad59190614d1c565b60405180910390a3505050565b612aed848484611fda565b612af9848484846131dc565b612b38576040517f08c379a0000000000000000000000000000000000000000000000000000000008152600401612b2f90614e34565b60405180910390fd5b50505050565b6060600e8054612b4d9061543c565b80601f0160208091040260200160405190810160405280929190818152602001828054612b799061543c565b8015612bc65780601f10612b9b57610100808354040283529160200191612bc6565b820191906000526020600020905b815481529060010190602001808311612ba957829003601f168201915b5050505050905090565b606060006001612bdf84613373565b01905060008167ffffffffffffffff811115612c24577f4e487b7100000000000000000000000000000000000000000000000000000000600052604160045260246000fd5b6040519080825280601f01601f191660200182016040528015612c565781602001600182028036833780820191505090505b509050600082602001820190505b600115612ce9578080600190039150507f3031323334353637383961626364656600000000000000000000000000000000600a86061a8153600a8581612cd3577f4e487b7100000000000000000000000000000000000000000000000000000000600052601260045260246000fd5b0494506000851415612ce457612ce9565b612c64565b819350505050919050565b6000612d02826000016135aa565b9050919050565b6000600760008473ffffffffffffffffffffffffffffffffffffffff1673ffffffffffffffffffffffffffffffffffffffff16815260200190815260200160002060008373ffffffffffffffffffffffffffffffffffffffff1673ffffffffffffffffffffffffffffffffffffffff16815260200190815260200160002060009054906101000a900460ff16905092915050565b6000612da983836135bb565b612e02578260000182908060018154018082558091505060019003906000526020600020016000909190919091505582600001805490508360010160008481526020019081526020016000208190555060019050612e07565b600090505b92915050565b60007f80ac58cd000000000000000000000000000000000000000000000000000000007bffffffffffffffffffffffffffffffffffffffffffffffffffffffff1916827bffffffffffffffffffffffffffffffffffffffffffffffffffffffff19161480612ed857507f5b5e139f000000000000000000000000000000000000000000000000000000007bffffffffffffffffffffffffffffffffffffffffffffffffffffffff1916827bffffffffffffffffffffffffffffffffffffffffffffffffffffffff1916145b80612ee85750612ee7826135de565b5b9050919050565b612efb84848484613658565b50505050565b50505050565b612f118282611455565b612f8857612f1e816136b2565b612f2c8360001c60206136df565b604051602001612f3d929190614c7b565b6040516020818303038152906040526040517f08c379a0000000000000000000000000000000000000000000000000000000008152600401612f7f9190614d52565b60405180910390fd5b5050565b612f968282611455565b1561306957600080600084815260200190815260200160002060000160008373ffffffffffffffffffffffffffffffffffffffff1673ffffffffffffffffffffffffffffffffffffffff16815260200190815260200160002060006101000a81548160ff02191690831515021790555061300e611e7d565b73ffffffffffffffffffffffffffffffffffffffff168173ffffffffffffffffffffffffffffffffffffffff16837ff6391f5c32d9c69d2a47ea670b442974b53935d1edc7fd64eb21e047a839171b60405160405180910390a45b5050565b6000613095836000018373ffffffffffffffffffffffffffffffffffffffff1660001b6139d9565b905092915050565b6130a5611188565b6130e4576040517f08c379a00000000000000000000000000000000000000000000000000000000081526004016130db90614db4565b60405180910390fd5b565b6130ee611188565b1561312e576040517f08c379a000000000000000000000000000000000000000000000000000000000815260040161312590614f54565b60405180910390fd5b565b600082600001828154811061316e577f4e487b7100000000000000000000000000000000000000000000000000000000600052603260045260246000fd5b9060005260206000200154905092915050565b61318b83836125ca565b61319860008484846131dc565b6131d7576040517f08c379a00000000000000000000000000000000000000000000000000000000081526004016131ce90614e34565b60405180910390fd5b505050565b60006131fd8473ffffffffffffffffffffffffffffffffffffffff16613b5f565b15613366578373ffffffffffffffffffffffffffffffffffffffff1663150b7a02613226611e7d565b8786866040518563ffffffff1660e01b81526004016132489493929190614cd0565b602060405180830381600087803b15801561326257600080fd5b505af192505050801561329357506040513d601f19601f82011682018060405250810190613290919061460c565b60015b613316573d80600081146132c3576040519150601f19603f3d011682016040523d82523d6000602084013e6132c8565b606091505b5060008151141561330e576040517f08c379a000000000000000000000000000000000000000000000000000000000815260040161330590614e34565b60405180910390fd5b805181602001fd5b63150b7a0260e01b7bffffffffffffffffffffffffffffffffffffffffffffffffffffffff1916817bffffffffffffffffffffffffffffffffffffffffffffffffffffffff19161491505061336b565b600190505b949350505050565b600080600090507a184f03e93ff9f4daa797ed6e38ed64bf6a1f01000000000000000083106133f7577a184f03e93ff9f4daa797ed6e38ed64bf6a1f01000000000000000083816133ed577f4e487b7100000000000000000000000000000000000000000000000000000000600052601260045260246000fd5b0492506040810190505b6d04ee2d6d415b85acef8100000000831061345a576d04ee2d6d415b85acef81000000008381613450577f4e487b7100000000000000000000000000000000000000000000000000000000600052601260045260246000fd5b0492506020810190505b662386f26fc1000083106134af57662386f26fc1000083816134a5577f4e487b7100000000000000000000000000000000000000000000000000000000600052601260045260246000fd5b0492506010810190505b6305f5e10083106134fe576305f5e10083816134f4577f4e487b7100000000000000000000000000000000000000000000000000000000600052601260045260246000fd5b0492506008810190505b612710831061354957612710838161353f577f4e487b7100000000000000000000000000000000000000000000000000000000600052601260045260246000fd5b0492506004810190505b606483106135925760648381613588577f4e487b7100000000000000000000000000000000000000000000000000000000600052601260045260246000fd5b0492506002810190505b600a83106135a1576001810190505b80915050919050565b600081600001805490509050919050565b600080836001016000848152602001908152602001600020541415905092915050565b60007f5a05180f000000000000000000000000000000000000000000000000000000007bffffffffffffffffffffffffffffffffffffffffffffffffffffffff1916827bffffffffffffffffffffffffffffffffffffffffffffffffffffffff19161480613651575061365082613b82565b5b9050919050565b61366484848484613bfc565b61366c611188565b156136ac576040517f08c379a00000000000000000000000000000000000000000000000000000000081526004016136a390614d94565b60405180910390fd5b50505050565b60606136d88273ffffffffffffffffffffffffffffffffffffffff16601460ff166136df565b9050919050565b6060600060028360026136f291906152b2565b6136fc919061525c565b67ffffffffffffffff81111561373b577f4e487b7100000000000000000000000000000000000000000000000000000000600052604160045260246000fd5b6040519080825280601f01601f19166020018201604052801561376d5781602001600182028036833780820191505090505b5090507f3000000000000000000000000000000000000000000000000000000000000000816000815181106137cb577f4e487b7100000000000000000000000000000000000000000000000000000000600052603260045260246000fd5b60200101907effffffffffffffffffffffffffffffffffffffffffffffffffffffffffffff1916908160001a9053507f780000000000000000000000000000000000000000000000000000000000000081600181518110613855577f4e487b7100000000000000000000000000000000000000000000000000000000600052603260045260246000fd5b60200101907effffffffffffffffffffffffffffffffffffffffffffffffffffffffffffff1916908160001a9053506000600184600261389591906152b2565b61389f919061525c565b90505b600181111561398b577f3031323334353637383961626364656600000000000000000000000000000000600f861660108110613907577f4e487b7100000000000000000000000000000000000000000000000000000000600052603260045260246000fd5b1a60f81b828281518110613944577f4e487b7100000000000000000000000000000000000000000000000000000000600052603260045260246000fd5b60200101907effffffffffffffffffffffffffffffffffffffffffffffffffffffffffffff1916908160001a905350600485901c94508061398490615412565b90506138a2565b50600084146139cf576040517f08c379a00000000000000000000000000000000000000000000000000000000081526004016139c690614d74565b60405180910390fd5b8091505092915050565b60008083600101600084815260200190815260200160002054905060008114613b53576000600182613a0b919061530c565b9050600060018660000180549050613a23919061530c565b9050818114613ade576000866000018281548110613a6a577f4e487b7100000000000000000000000000000000000000000000000000000000600052603260045260246000fd5b9060005260206000200154905080876000018481548110613ab4577f4e487b7100000000000000000000000000000000000000000000000000000000600052603260045260246000fd5b90600052602060002001819055508387600101600083815260200190815260200160002081905550505b85600001805480613b18577f4e487b7100000000000000000000000000000000000000000000000000000000600052603160045260246000fd5b600190038181906000526020600020016000905590558560010160008681526020019081526020016000206000905560019350505050613b59565b60009150505b92915050565b6000808273ffffffffffffffffffffffffffffffffffffffff163b119050919050565b60007f7965db0b000000000000000000000000000000000000000000000000000000007bffffffffffffffffffffffffffffffffffffffffffffffffffffffff1916827bffffffffffffffffffffffffffffffffffffffffffffffffffffffff19161480613bf55750613bf482613d5c565b5b9050919050565b613c0884848484613dc6565b6001811115613c4c576040517f08c379a0000000000000000000000000000000000000000000000000000000008152600401613c43906150b4565b60405180910390fd5b6000829050600073ffffffffffffffffffffffffffffffffffffffff168573ffffffffffffffffffffffffffffffffffffffff161415613c9457613c8f81613eec565b613cd3565b8373ffffffffffffffffffffffffffffffffffffffff168573ffffffffffffffffffffffffffffffffffffffff1614613cd257613cd18582613f35565b5b5b600073ffffffffffffffffffffffffffffffffffffffff168473ffffffffffffffffffffffffffffffffffffffff161415613d1657613d11816140a2565b613d55565b8473ffffffffffffffffffffffffffffffffffffffff168473ffffffffffffffffffffffffffffffffffffffff1614613d5457613d5384826141e5565b5b5b5050505050565b60007f01ffc9a7000000000000000000000000000000000000000000000000000000007bffffffffffffffffffffffffffffffffffffffffffffffffffffffff1916827bffffffffffffffffffffffffffffffffffffffffffffffffffffffff1916149050919050565b6001811115613ee657600073ffffffffffffffffffffffffffffffffffffffff168473ffffffffffffffffffffffffffffffffffffffff1614613e5a5780600560008673ffffffffffffffffffffffffffffffffffffffff1673ffffffffffffffffffffffffffffffffffffffff1681526020019081526020016000206000828254613e52919061530c565b925050819055505b600073ffffffffffffffffffffffffffffffffffffffff168373ffffffffffffffffffffffffffffffffffffffff1614613ee55780600560008573ffffffffffffffffffffffffffffffffffffffff1673ffffffffffffffffffffffffffffffffffffffff1681526020019081526020016000206000828254613edd919061525c565b925050819055505b5b50505050565b600a80549050600b600083815260200190815260200160002081905550600a81908060018154018082558091505060019003906000526020600020016000909190919091505550565b60006001613f42846112b6565b613f4c919061530c565b9050600060096000848152602001908152602001600020549050818114614031576000600860008673ffffffffffffffffffffffffffffffffffffffff1673ffffffffffffffffffffffffffffffffffffffff168152602001908152602001600020600084815260200190815260200160002054905080600860008773ffffffffffffffffffffffffffffffffffffffff1673ffffffffffffffffffffffffffffffffffffffff168152602001908152602001600020600084815260200190815260200160002081905550816009600083815260200190815260200160002081905550505b6009600084815260200190815260200160002060009055600860008573ffffffffffffffffffffffffffffffffffffffff1673ffffffffffffffffffffffffffffffffffffffff16815260200190815260200160002060008381526020019081526020016000206000905550505050565b60006001600a805490506140b6919061530c565b90506000600b60008481526020019081526020016000205490506000600a838154811061410c577f4e487b7100000000000000000000000000000000000000000000000000000000600052603260045260246000fd5b9060005260206000200154905080600a8381548110614154577f4e487b7100000000000000000000000000000000000000000000000000000000600052603260045260246000fd5b906000526020600020018190555081600b600083815260200190815260200160002081905550600b600085815260200190815260200160002060009055600a8054806141c9577f4e487b7100000000000000000000000000000000000000000000000000000000600052603160045260246000fd5b6001900381819060005260206000200160009055905550505050565b60006141f0836112b6565b905081600860008573ffffffffffffffffffffffffffffffffffffffff1673ffffffffffffffffffffffffffffffffffffffff168152602001908152602001600020600083815260200190815260200160002081905550806009600084815260200190815260200160002081905550505050565b6000614277614272846151dd565b6151b8565b90508281526020810184848401111561428f57600080fd5b61429a8482856153d0565b509392505050565b6000813590506142b181615d81565b92915050565b6000813590506142c681615d98565b92915050565b6000813590506142db81615daf565b92915050565b6000813590506142f081615dc6565b92915050565b60008135905061430581615ddd565b92915050565b60008151905061431a81615ddd565b92915050565b600082601f83011261433157600080fd5b8135614341848260208601614264565b91505092915050565b60008135905061435981615df4565b92915050565b60006020828403121561437157600080fd5b600061437f848285016142a2565b91505092915050565b6000806040838503121561439b57600080fd5b60006143a9858286016142b7565b92505060206143ba8582860161434a565b9150509250929050565b600080604083850312156143d757600080fd5b60006143e5858286016142a2565b92505060206143f6858286016142a2565b9150509250929050565b60008060006060848603121561441557600080fd5b6000614423868287016142a2565b9350506020614434868287016142a2565b92505060406144458682870161434a565b9150509250925092565b6000806000806080858703121561446557600080fd5b6000614473878288016142a2565b9450506020614484878288016142a2565b93505060406144958782880161434a565b925050606085013567ffffffffffffffff8111156144b257600080fd5b6144be87828801614320565b91505092959194509250565b600080604083850312156144dd57600080fd5b60006144eb858286016142a2565b92505060206144fc858286016142cc565b9150509250929050565b6000806040838503121561451957600080fd5b6000614527858286016142a2565b92505060206145388582860161434a565b9150509250929050565b60006020828403121561455457600080fd5b6000614562848285016142e1565b91505092915050565b6000806040838503121561457e57600080fd5b600061458c858286016142e1565b925050602061459d858286016142a2565b9150509250929050565b600080604083850312156145ba57600080fd5b60006145c8858286016142e1565b92505060206145d98582860161434a565b9150509250929050565b6000602082840312156145f557600080fd5b6000614603848285016142f6565b91505092915050565b60006020828403121561461e57600080fd5b600061462c8482850161430b565b91505092915050565b60006020828403121561464757600080fd5b60006146558482850161434a565b91505092915050565b6000806040838503121561467157600080fd5b600061467f8582860161434a565b9250506020614690858286016142a2565b9150509250929050565b6146a381615340565b82525050565b6146b281615364565b82525050565b6146c181615370565b82525050565b60006146d28261520e565b6146dc8185615224565b93506146ec8185602086016153df565b6146f581615575565b840191505092915050565b600061470b82615219565b6147158185615240565b93506147258185602086016153df565b61472e81615575565b840191505092915050565b600061474482615219565b61474e8185615251565b935061475e8185602086016153df565b80840191505092915050565b6000614777602083615240565b915061478282615586565b602082019050919050565b600061479a602b83615240565b91506147a5826155af565b604082019050919050565b60006147bd601483615240565b91506147c8826155fe565b602082019050919050565b60006147e0601383615240565b91506147eb82615627565b602082019050919050565b6000614803602d83615240565b915061480e82615650565b604082019050919050565b6000614826602b83615240565b91506148318261569f565b604082019050919050565b6000614849603283615240565b9150614854826156ee565b604082019050919050565b600061486c602683615240565b91506148778261573d565b604082019050919050565b600061488f602583615240565b915061489a8261578c565b604082019050919050565b60006148b2601c83615240565b91506148bd826157db565b602082019050919050565b60006148d5603e83615240565b91506148e082615804565b604082019050919050565b60006148f8602483615240565b915061490382615853565b604082019050919050565b600061491b601983615240565b9150614926826158a2565b602082019050919050565b600061493e600883615240565b9150614949826158cb565b602082019050919050565b6000614961600e83615240565b915061496c826158f4565b602082019050919050565b6000614984601083615240565b915061498f8261591d565b602082019050919050565b60006149a7602983615240565b91506149b282615946565b604082019050919050565b60006149ca601783615240565b91506149d582615995565b602082019050919050565b60006149ed602083615240565b91506149f8826159be565b602082019050919050565b6000614a10602783615240565b9150614a1b826159e7565b604082019050919050565b6000614a33602083615240565b9150614a3e82615a36565b602082019050919050565b6000614a56600983615240565b9150614a6182615a5f565b602082019050919050565b6000614a79601883615240565b9150614a8482615a88565b602082019050919050565b6000614a9c602183615240565b9150614aa782615ab1565b604082019050919050565b6000614abf600083615235565b9150614aca82615b00565b600082019050919050565b6000614ae2603d83615240565b9150614aed82615b03565b604082019050919050565b6000614b05602c83615240565b9150614b1082615b52565b604082019050919050565b6000614b28601783615251565b9150614b3382615ba1565b601782019050919050565b6000614b4b603583615240565b9150614b5682615bca565b604082019050919050565b6000614b6e603d83615240565b9150614b7982615c19565b604082019050919050565b6000614b91601383615240565b9150614b9c82615c68565b602082019050919050565b6000614bb4604083615240565b9150614bbf82615c91565b604082019050919050565b6000614bd7601283615240565b9150614be282615ce0565b602082019050919050565b6000614bfa601183615251565b9150614c0582615d09565b601182019050919050565b6000614c1d602f83615240565b9150614c2882615d32565b604082019050919050565b614c3c816153c6565b82525050565b6000614c4e8285614739565b9150614c5a8284614739565b91508190509392505050565b6000614c7182614ab2565b9150819050919050565b6000614c8682614b1b565b9150614c928285614739565b9150614c9d82614bed565b9150614ca98284614739565b91508190509392505050565b6000602082019050614cca600083018461469a565b92915050565b6000608082019050614ce5600083018761469a565b614cf2602083018661469a565b614cff6040830185614c33565b8181036060830152614d1181846146c7565b905095945050505050565b6000602082019050614d3160008301846146a9565b92915050565b6000602082019050614d4c60008301846146b8565b92915050565b60006020820190508181036000830152614d6c8184614700565b905092915050565b60006020820190508181036000830152614d8d8161476a565b9050919050565b60006020820190508181036000830152614dad8161478d565b9050919050565b60006020820190508181036000830152614dcd816147b0565b9050919050565b60006020820190508181036000830152614ded816147d3565b9050919050565b60006020820190508181036000830152614e0d816147f6565b9050919050565b60006020820190508181036000830152614e2d81614819565b9050919050565b60006020820190508181036000830152614e4d8161483c565b9050919050565b60006020820190508181036000830152614e6d8161485f565b9050919050565b60006020820190508181036000830152614e8d81614882565b9050919050565b60006020820190508181036000830152614ead816148a5565b9050919050565b60006020820190508181036000830152614ecd816148c8565b9050919050565b60006020820190508181036000830152614eed816148eb565b9050919050565b60006020820190508181036000830152614f0d8161490e565b9050919050565b60006020820190508181036000830152614f2d81614931565b9050919050565b60006020820190508181036000830152614f4d81614954565b9050919050565b60006020820190508181036000830152614f6d81614977565b9050919050565b60006020820190508181036000830152614f8d8161499a565b9050919050565b60006020820190508181036000830152614fad816149bd565b9050919050565b60006020820190508181036000830152614fcd816149e0565b9050919050565b60006020820190508181036000830152614fed81614a03565b9050919050565b6000602082019050818103600083015261500d81614a26565b9050919050565b6000602082019050818103600083015261502d81614a49565b9050919050565b6000602082019050818103600083015261504d81614a6c565b9050919050565b6000602082019050818103600083015261506d81614a8f565b9050919050565b6000602082019050818103600083015261508d81614ad5565b9050919050565b600060208201905081810360008301526150ad81614af8565b9050919050565b600060208201905081810360008301526150cd81614b3e565b9050919050565b600060208201905081810360008301526150ed81614b61565b9050919050565b6000602082019050818103600083015261510d81614b84565b9050919050565b6000602082019050818103600083015261512d81614ba7565b9050919050565b6000602082019050818103600083015261514d81614bca565b9050919050565b6000602082019050818103600083015261516d81614c10565b9050919050565b60006020820190506151896000830184614c33565b92915050565b60006040820190506151a46000830185614c33565b6151b1602083018461469a565b9392505050565b60006151c26151d3565b90506151ce828261546e565b919050565b6000604051905090565b600067ffffffffffffffff8211156151f8576151f7615546565b5b61520182615575565b9050602081019050919050565b600081519050919050565b600081519050919050565b600082825260208201905092915050565b600081905092915050565b600082825260208201905092915050565b600081905092915050565b6000615267826153c6565b9150615272836153c6565b9250827fffffffffffffffffffffffffffffffffffffffffffffffffffffffffffffffff038211156152a7576152a66154e8565b5b828201905092915050565b60006152bd826153c6565b91506152c8836153c6565b9250817fffffffffffffffffffffffffffffffffffffffffffffffffffffffffffffffff0483118215151615615301576153006154e8565b5b828202905092915050565b6000615317826153c6565b9150615322836153c6565b925082821015615335576153346154e8565b5b828203905092915050565b600061534b826153a6565b9050919050565b600061535d826153a6565b9050919050565b60008115159050919050565b6000819050919050565b60007fffffffff0000000000000000000000000000000000000000000000000000000082169050919050565b600073ffffffffffffffffffffffffffffffffffffffff82169050919050565b6000819050919050565b82818337600083830152505050565b60005b838110156153fd5780820151818401526020810190506153e2565b8381111561540c576000848401525b50505050565b600061541d826153c6565b91506000821415615431576154306154e8565b5b600182039050919050565b6000600282049050600182168061545457607f821691505b6020821081141561546857615467615517565b5b50919050565b61547782615575565b810181811067ffffffffffffffff8211171561549657615495615546565b5b80604052505050565b60006154aa826153c6565b91507fffffffffffffffffffffffffffffffffffffffffffffffffffffffffffffffff8214156154dd576154dc6154e8565b5b600182019050919050565b7f4e487b7100000000000000000000000000000000000000000000000000000000600052601160045260246000fd5b7f4e487b7100000000000000000000000000000000000000000000000000000000600052602260045260246000fd5b7f4e487b7100000000000000000000000000000000000000000000000000000000600052604160045260246000fd5b6000601f19601f8301169050919050565b7f537472696e67733a20686578206c656e67746820696e73756666696369656e74600082015250565b7f4552433732315061757361626c653a20746f6b656e207472616e73666572207760008201527f68696c6520706175736564000000000000000000000000000000000000000000602082015250565b7f5061757361626c653a206e6f7420706175736564000000000000000000000000600082015250565b7f73616c65206861736e2774207374617274656400000000000000000000000000600082015250565b7f4552433732313a2063616c6c6572206973206e6f7420746f6b656e206f776e6560008201527f72206f7220617070726f76656400000000000000000000000000000000000000602082015250565b7f455243373231456e756d657261626c653a206f776e657220696e646578206f7560008201527f74206f6620626f756e6473000000000000000000000000000000000000000000602082015250565b7f4552433732313a207472616e7366657220746f206e6f6e20455243373231526560008201527f63656976657220696d706c656d656e7465720000000000000000000000000000602082015250565b7f4f776e61626c653a206e6577206f776e657220697320746865207a65726f206160008201527f6464726573730000000000000000000000000000000000000000000000000000602082015250565b7f4552433732313a207472616e736665722066726f6d20696e636f72726563742060008201527f6f776e6572000000000000000000000000000000000000000000000000000000602082015250565b7f4552433732313a20746f6b656e20616c7265616479206d696e74656400000000600082015250565b7f4552433732315072657365744d696e7465725061757365724175746f49643a2060008201527f6d75737420686176652070617573657220726f6c6520746f2070617573650000602082015250565b7f4552433732313a207472616e7366657220746f20746865207a65726f2061646460008201527f7265737300000000000000000000000000000000000000000000000000000000602082015250565b7f4552433732313a20617070726f766520746f2063616c6c657200000000000000600082015250565b7f736f6c64206f7574000000000000000000000000000000000000000000000000600082015250565b7f5061796d656e74204661696c6564000000000000000000000000000000000000600082015250565b7f5061757361626c653a2070617573656400000000000000000000000000000000600082015250565b7f4552433732313a2061646472657373207a65726f206973206e6f74206120766160008201527f6c6964206f776e65720000000000000000000000000000000000000000000000602082015250565b7f7175616e746974792063616e6e6f74206265207a65726f000000000000000000600082015250565b7f4552433732313a206d696e7420746f20746865207a65726f2061646472657373600082015250565b7f456c206d6f6e746f2064656c207061676f206e6f20657320696775616c20616c60008201527f2070726563696f00000000000000000000000000000000000000000000000000602082015250565b7f4f776e61626c653a2063616c6c6572206973206e6f7420746865206f776e6572600082015250565b7f6578636565647320330000000000000000000000000000000000000000000000600082015250565b7f4552433732313a20696e76616c696420746f6b656e2049440000000000000000600082015250565b7f4552433732313a20617070726f76616c20746f2063757272656e74206f776e6560008201527f7200000000000000000000000000000000000000000000000000000000000000602082015250565b50565b7f4552433732313a20617070726f76652063616c6c6572206973206e6f7420746f60008201527f6b656e206f776e6572206f7220617070726f76656420666f7220616c6c000000602082015250565b7f455243373231456e756d657261626c653a20676c6f62616c20696e646578206f60008201527f7574206f6620626f756e64730000000000000000000000000000000000000000602082015250565b7f416363657373436f6e74726f6c3a206163636f756e7420000000000000000000600082015250565b7f455243373231456e756d657261626c653a20636f6e736563757469766520747260008201527f616e7366657273206e6f7420737570706f727465640000000000000000000000602082015250565b7f4552433732315072657365744d696e7465725061757365724175746f49643a2060008201527f6d7573742068617665206d696e74657220726f6c6520746f206d696e74000000602082015250565b7f5265656e7472616e637920446574656374656400000000000000000000000000600082015250565b7f4552433732315072657365744d696e7465725061757365724175746f49643a2060008201527f6d75737420686176652070617573657220726f6c6520746f20756e7061757365602082015250565b7f5472616e73616374696f6e204661696c65640000000000000000000000000000600082015250565b7f206973206d697373696e6720726f6c6520000000000000000000000000000000600082015250565b7f416363657373436f6e74726f6c3a2063616e206f6e6c792072656e6f756e636560008201527f20726f6c657320666f722073656c660000000000000000000000000000000000602082015250565b615d8a81615340565b8114615d9557600080fd5b50565b615da181615352565b8114615dac57600080fd5b50565b615db881615364565b8114615dc357600080fd5b50565b615dcf81615370565b8114615dda57600080fd5b50565b615de68161537a565b8114615df157600080fd5b50565b615dfd816153c6565b8114615e0857600080fd5b5056fea264697066735822122049e59a139909a1a99d3edf64540ce722b36db0a517c0d9bba6dba36b517fa6a164736f6c6343000804003368747470733a2f2f6e66742e616c6563747269636f2e776f726b6572732e6465762f",
  "linkReferences": {},
  "deployedLinkReferences": {}
}