{
  "_format": "hh-sol-artifact-1",
  "contractName": "TokenBat",
  "sourceName": "contracts/TokenBat.sol",
  "abi": [
    {
      "inputs": [],
      "stateMutability": "nonpayable",
      "type": "constructor"
    },
    {
      "anonymous": false,
      "inputs": [
        {
          "indexed": true,
          "internalType": "address",
          "name": "owner",
          "type": "address"
        },
        {
          "indexed": true,
          "internalType": "address",
          "name": "approved",
          "type": "address"
        },
        {
          "indexed": true,
          "internalType": "uint256",
          "name": "tokenId",
          "type": "uint256"
        }
      ],
      "name": "Approval",
      "type": "event"
    },
    {
      "anonymous": false,
      "inputs": [
        {
          "indexed": true,
          "internalType": "address",
          "name": "owner",
          "type": "address"
        },
        {
          "indexed": true,
          "internalType": "address",
          "name": "operator",
          "type": "address"
        },
        {
          "indexed": false,
          "internalType": "bool",
          "name": "approved",
          "type": "bool"
        }
      ],
      "name": "ApprovalForAll",
      "type": "event"
    },
    {
      "anonymous": false,
      "inputs": [
        {
          "indexed": false,
          "internalType": "uint256",
          "name": "tokenId",
          "type": "uint256"
        },
        {
          "indexed": false,
          "internalType": "address",
          "name": "owner",
          "type": "address"
        }
      ],
      "name": "Minted",
      "type": "event"
    },
    {
      "anonymous": false,
      "inputs": [
        {
          "indexed": true,
          "internalType": "address",
          "name": "previousOwner",
          "type": "address"
        },
        {
          "indexed": true,
          "internalType": "address",
          "name": "newOwner",
          "type": "address"
        }
      ],
      "name": "OwnershipTransferred",
      "type": "event"
    },
    {
      "anonymous": false,
      "inputs": [
        {
          "indexed": false,
          "internalType": "address",
          "name": "account",
          "type": "address"
        }
      ],
      "name": "Paused",
      "type": "event"
    },
    {
      "anonymous": false,
      "inputs": [
        {
          "indexed": false,
          "internalType": "uint256",
          "name": "tokenId",
          "type": "uint256"
        }
      ],
      "name": "Redeemed",
      "type": "event"
    },
    {
      "anonymous": false,
      "inputs": [
        {
          "indexed": true,
          "internalType": "bytes32",
          "name": "role",
          "type": "bytes32"
        },
        {
          "indexed": true,
          "internalType": "bytes32",
          "name": "previousAdminRole",
          "type": "bytes32"
        },
        {
          "indexed": true,
          "internalType": "bytes32",
          "name": "newAdminRole",
          "type": "bytes32"
        }
      ],
      "name": "RoleAdminChanged",
      "type": "event"
    },
    {
      "anonymous": false,
      "inputs": [
        {
          "indexed": true,
          "internalType": "bytes32",
          "name": "role",
          "type": "bytes32"
        },
        {
          "indexed": true,
          "internalType": "address",
          "name": "account",
          "type": "address"
        },
        {
          "indexed": true,
          "internalType": "address",
          "name": "sender",
          "type": "address"
        }
      ],
      "name": "RoleGranted",
      "type": "event"
    },
    {
      "anonymous": false,
      "inputs": [
        {
          "indexed": true,
          "internalType": "bytes32",
          "name": "role",
          "type": "bytes32"
        },
        {
          "indexed": true,
          "internalType": "address",
          "name": "account",
          "type": "address"
        },
        {
          "indexed": true,
          "internalType": "address",
          "name": "sender",
          "type": "address"
        }
      ],
      "name": "RoleRevoked",
      "type": "event"
    },
    {
      "anonymous": false,
      "inputs": [],
      "name": "SaleStarted",
      "type": "event"
    },
    {
      "anonymous": false,
      "inputs": [
        {
          "indexed": true,
          "internalType": "address",
          "name": "from",
          "type": "address"
        },
        {
          "indexed": true,
          "internalType": "address",
          "name": "to",
          "type": "address"
        },
        {
          "indexed": true,
          "internalType": "uint256",
          "name": "tokenId",
          "type": "uint256"
        }
      ],
      "name": "Transfer",
      "type": "event"
    },
    {
      "anonymous": false,
      "inputs": [
        {
          "indexed": false,
          "internalType": "address",
          "name": "account",
          "type": "address"
        }
      ],
      "name": "Unpaused",
      "type": "event"
    },
    {
      "anonymous": false,
      "inputs": [
        {
          "indexed": false,
          "internalType": "uint256",
          "name": "balance",
          "type": "uint256"
        },
        {
          "indexed": false,
          "internalType": "uint256",
          "name": "amount",
          "type": "uint256"
        },
        {
          "indexed": false,
          "internalType": "uint256",
          "name": "owner_current_balance",
          "type": "uint256"
        }
      ],
      "name": "Withdrawed",
      "type": "event"
    },
    {
      "inputs": [],
      "name": "DEFAULT_ADMIN_ROLE",
      "outputs": [
        {
          "internalType": "bytes32",
          "name": "",
          "type": "bytes32"
        }
      ],
      "stateMutability": "view",
      "type": "function"
    },
    {
      "inputs": [],
      "name": "MAX_TOKENS",
      "outputs": [
        {
          "internalType": "uint256",
          "name": "",
          "type": "uint256"
        }
      ],
      "stateMutability": "view",
      "type": "function"
    },
    {
      "inputs": [],
      "name": "MINTER_ROLE",
      "outputs": [
        {
          "internalType": "bytes32",
          "name": "",
          "type": "bytes32"
        }
      ],
      "stateMutability": "view",
      "type": "function"
    },
    {
      "inputs": [],
      "name": "PAUSER_ROLE",
      "outputs": [
        {
          "internalType": "bytes32",
          "name": "",
          "type": "bytes32"
        }
      ],
      "stateMutability": "view",
      "type": "function"
    },
    {
      "inputs": [
        {
          "internalType": "address",
          "name": "to",
          "type": "address"
        },
        {
          "internalType": "uint256",
          "name": "tokenId",
          "type": "uint256"
        }
      ],
      "name": "approve",
      "outputs": [],
      "stateMutability": "nonpayable",
      "type": "function"
    },
    {
      "inputs": [
        {
          "internalType": "address",
          "name": "owner",
          "type": "address"
        }
      ],
      "name": "balanceOf",
      "outputs": [
        {
          "internalType": "uint256",
          "name": "",
          "type": "uint256"
        }
      ],
      "stateMutability": "view",
      "type": "function"
    },
    {
      "inputs": [
        {
          "internalType": "uint256",
          "name": "tokenId",
          "type": "uint256"
        }
      ],
      "name": "burn",
      "outputs": [],
      "stateMutability": "nonpayable",
      "type": "function"
    },
    {
      "inputs": [
        {
          "internalType": "uint256",
          "name": "tokenId",
          "type": "uint256"
        }
      ],
      "name": "getApproved",
      "outputs": [
        {
          "internalType": "address",
          "name": "",
          "type": "address"
        }
      ],
      "stateMutability": "view",
      "type": "function"
    },
    {
      "inputs": [],
      "name": "getOwner",
      "outputs": [
        {
          "internalType": "address",
          "name": "",
          "type": "address"
        }
      ],
      "stateMutability": "view",
      "type": "function"
    },
    {
      "inputs": [
        {
          "internalType": "bytes32",
          "name": "role",
          "type": "bytes32"
        }
      ],
      "name": "getRoleAdmin",
      "outputs": [
        {
          "internalType": "bytes32",
          "name": "",
          "type": "bytes32"
        }
      ],
      "stateMutability": "view",
      "type": "function"
    },
    {
      "inputs": [
        {
          "internalType": "bytes32",
          "name": "role",
          "type": "bytes32"
        },
        {
          "internalType": "uint256",
          "name": "index",
          "type": "uint256"
        }
      ],
      "name": "getRoleMember",
      "outputs": [
        {
          "internalType": "address",
          "name": "",
          "type": "address"
        }
      ],
      "stateMutability": "view",
      "type": "function"
    },
    {
      "inputs": [
        {
          "internalType": "bytes32",
          "name": "role",
          "type": "bytes32"
        }
      ],
      "name": "getRoleMemberCount",
      "outputs": [
        {
          "internalType": "uint256",
          "name": "",
          "type": "uint256"
        }
      ],
      "stateMutability": "view",
      "type": "function"
    },
    {
      "inputs": [
        {
          "internalType": "bytes32",
          "name": "role",
          "type": "bytes32"
        },
        {
          "internalType": "address",
          "name": "account",
          "type": "address"
        }
      ],
      "name": "grantRole",
      "outputs": [],
      "stateMutability": "nonpayable",
      "type": "function"
    },
    {
      "inputs": [
        {
          "internalType": "bytes32",
          "name": "role",
          "type": "bytes32"
        },
        {
          "internalType": "address",
          "name": "account",
          "type": "address"
        }
      ],
      "name": "hasRole",
      "outputs": [
        {
          "internalType": "bool",
          "name": "",
          "type": "bool"
        }
      ],
      "stateMutability": "view",
      "type": "function"
    },
    {
      "inputs": [],
      "name": "hasSaleStarted",
      "outputs": [
        {
          "internalType": "bool",
          "name": "",
          "type": "bool"
        }
      ],
      "stateMutability": "view",
      "type": "function"
    },
    {
      "inputs": [],
      "name": "hasSoldOut",
      "outputs": [
        {
          "internalType": "bool",
          "name": "",
          "type": "bool"
        }
      ],
      "stateMutability": "view",
      "type": "function"
    },
    {
      "inputs": [
        {
          "internalType": "address",
          "name": "_owner",
          "type": "address"
        },
        {
          "internalType": "address",
          "name": "_operator",
          "type": "address"
        }
      ],
      "name": "isApprovedForAll",
      "outputs": [
        {
          "internalType": "bool",
          "name": "isOperator",
          "type": "bool"
        }
      ],
      "stateMutability": "view",
      "type": "function"
    },
    {
      "inputs": [
        {
          "internalType": "address",
          "name": "to",
          "type": "address"
        }
      ],
      "name": "mint",
      "outputs": [],
      "stateMutability": "nonpayable",
      "type": "function"
    },
    {
      "inputs": [
        {
          "internalType": "address",
          "name": "receiver",
          "type": "address"
        }
      ],
      "name": "mintToken",
      "outputs": [],
      "stateMutability": "payable",
      "type": "function"
    },
    {
      "inputs": [],
      "name": "name",
      "outputs": [
        {
          "internalType": "string",
          "name": "",
          "type": "string"
        }
      ],
      "stateMutability": "view",
      "type": "function"
    },
    {
      "inputs": [],
      "name": "owner",
      "outputs": [
        {
          "internalType": "address",
          "name": "",
          "type": "address"
        }
      ],
      "stateMutability": "view",
      "type": "function"
    },
    {
      "inputs": [
        {
          "internalType": "uint256",
          "name": "tokenId",
          "type": "uint256"
        }
      ],
      "name": "ownerOf",
      "outputs": [
        {
          "internalType": "address",
          "name": "",
          "type": "address"
        }
      ],
      "stateMutability": "view",
      "type": "function"
    },
    {
      "inputs": [],
      "name": "pause",
      "outputs": [],
      "stateMutability": "nonpayable",
      "type": "function"
    },
    {
      "inputs": [],
      "name": "pauseSale",
      "outputs": [],
      "stateMutability": "nonpayable",
      "type": "function"
    },
    {
      "inputs": [],
      "name": "paused",
      "outputs": [
        {
          "internalType": "bool",
          "name": "",
          "type": "bool"
        }
      ],
      "stateMutability": "view",
      "type": "function"
    },
    {
      "inputs": [],
      "name": "priceToMint",
      "outputs": [
        {
          "internalType": "uint256",
          "name": "",
          "type": "uint256"
        }
      ],
      "stateMutability": "view",
      "type": "function"
    },
    {
      "inputs": [
        {
          "internalType": "uint256",
          "name": "tokenId",
          "type": "uint256"
        }
      ],
      "name": "redeemToken",
      "outputs": [],
      "stateMutability": "nonpayable",
      "type": "function"
    },
    {
      "inputs": [],
      "name": "renounceOwnership",
      "outputs": [],
      "stateMutability": "nonpayable",
      "type": "function"
    },
    {
      "inputs": [
        {
          "internalType": "bytes32",
          "name": "role",
          "type": "bytes32"
        },
        {
          "internalType": "address",
          "name": "account",
          "type": "address"
        }
      ],
      "name": "renounceRole",
      "outputs": [],
      "stateMutability": "nonpayable",
      "type": "function"
    },
    {
      "inputs": [
        {
          "internalType": "bytes32",
          "name": "role",
          "type": "bytes32"
        },
        {
          "internalType": "address",
          "name": "account",
          "type": "address"
        }
      ],
      "name": "revokeRole",
      "outputs": [],
      "stateMutability": "nonpayable",
      "type": "function"
    },
    {
      "inputs": [
        {
          "internalType": "address",
          "name": "from",
          "type": "address"
        },
        {
          "internalType": "address",
          "name": "to",
          "type": "address"
        },
        {
          "internalType": "uint256",
          "name": "tokenId",
          "type": "uint256"
        }
      ],
      "name": "safeTransferFrom",
      "outputs": [],
      "stateMutability": "nonpayable",
      "type": "function"
    },
    {
      "inputs": [
        {
          "internalType": "address",
          "name": "from",
          "type": "address"
        },
        {
          "internalType": "address",
          "name": "to",
          "type": "address"
        },
        {
          "internalType": "uint256",
          "name": "tokenId",
          "type": "uint256"
        },
        {
          "internalType": "bytes",
          "name": "data",
          "type": "bytes"
        }
      ],
      "name": "safeTransferFrom",
      "outputs": [],
      "stateMutability": "nonpayable",
      "type": "function"
    },
    {
      "inputs": [
        {
          "internalType": "address",
          "name": "operator",
          "type": "address"
        },
        {
          "internalType": "bool",
          "name": "approved",
          "type": "bool"
        }
      ],
      "name": "setApprovalForAll",
      "outputs": [],
      "stateMutability": "nonpayable",
      "type": "function"
    },
    {
      "inputs": [
        {
          "internalType": "uint256",
          "name": "_priceToMint",
          "type": "uint256"
        }
      ],
      "name": "setPriceToMint",
      "outputs": [],
      "stateMutability": "nonpayable",
      "type": "function"
    },
    {
      "inputs": [],
      "name": "startSale",
      "outputs": [],
      "stateMutability": "nonpayable",
      "type": "function"
    },
    {
      "inputs": [
        {
          "internalType": "bytes4",
          "name": "interfaceId",
          "type": "bytes4"
        }
      ],
      "name": "supportsInterface",
      "outputs": [
        {
          "internalType": "bool",
          "name": "",
          "type": "bool"
        }
      ],
      "stateMutability": "view",
      "type": "function"
    },
    {
      "inputs": [],
      "name": "symbol",
      "outputs": [
        {
          "internalType": "string",
          "name": "",
          "type": "string"
        }
      ],
      "stateMutability": "view",
      "type": "function"
    },
    {
      "inputs": [
        {
          "internalType": "uint256",
          "name": "index",
          "type": "uint256"
        }
      ],
      "name": "tokenByIndex",
      "outputs": [
        {
          "internalType": "uint256",
          "name": "",
          "type": "uint256"
        }
      ],
      "stateMutability": "view",
      "type": "function"
    },
    {
      "inputs": [
        {
          "internalType": "uint256",
          "name": "tokenId",
          "type": "uint256"
        }
      ],
      "name": "tokenExists",
      "outputs": [
        {
          "internalType": "bool",
          "name": "",
          "type": "bool"
        }
      ],
      "stateMutability": "view",
      "type": "function"
    },
    {
      "inputs": [
        {
          "internalType": "address",
          "name": "owner",
          "type": "address"
        },
        {
          "internalType": "uint256",
          "name": "index",
          "type": "uint256"
        }
      ],
      "name": "tokenOfOwnerByIndex",
      "outputs": [
        {
          "internalType": "uint256",
          "name": "",
          "type": "uint256"
        }
      ],
      "stateMutability": "view",
      "type": "function"
    },
    {
      "inputs": [
        {
          "internalType": "uint256",
          "name": "tokenId",
          "type": "uint256"
        }
      ],
      "name": "tokenURI",
      "outputs": [
        {
          "internalType": "string",
          "name": "",
          "type": "string"
        }
      ],
      "stateMutability": "view",
      "type": "function"
    },
    {
      "inputs": [],
      "name": "totalSupply",
      "outputs": [
        {
          "internalType": "uint256",
          "name": "",
          "type": "uint256"
        }
      ],
      "stateMutability": "view",
      "type": "function"
    },
    {
      "inputs": [
        {
          "internalType": "address",
          "name": "from",
          "type": "address"
        },
        {
          "internalType": "address",
          "name": "to",
          "type": "address"
        },
        {
          "internalType": "uint256",
          "name": "tokenId",
          "type": "uint256"
        }
      ],
      "name": "transferFrom",
      "outputs": [],
      "stateMutability": "nonpayable",
      "type": "function"
    },
    {
      "inputs": [
        {
          "internalType": "address",
          "name": "newOwner",
          "type": "address"
        }
      ],
      "name": "transferOwnership",
      "outputs": [],
      "stateMutability": "nonpayable",
      "type": "function"
    },
    {
      "inputs": [],
      "name": "unpause",
      "outputs": [],
      "stateMutability": "nonpayable",
      "type": "function"
    },
    {
      "inputs": [],
      "name": "withdrawBalance",
      "outputs": [
        {
          "internalType": "bool",
          "name": "",
          "type": "bool"
        }
      ],
      "stateMutability": "nonpayable",
      "type": "function"
    }
  ],
  "bytecode": "0x60806040526000600f60146101000a81548160ff0219169083151502179055506618de76816d800060115560006012556000601360006101000a81548160ff0219169083151502179055503480156200005757600080fd5b506040518060400160405280600881526020017f546f6b656e4261740000000000000000000000000000000000000000000000008152506040518060400160405280600881526020017f546f6b656e426174000000000000000000000000000000000000000000000000815250604051806060016040528060228152602001620066326022913982828160029080519060200190620000f89291906200063a565b508060039080519060200190620001119291906200063a565b5050506000600c60006101000a81548160ff02191690831515021790555080600e9080519060200190620001479291906200063a565b506200016c6000801b620001606200021760201b60201c565b6200023360201b60201c565b620001ad7f9f2df0fed2c77648de5860a4cc508cd0818c85b8b8a1ab4ceeef8d981c8956a6620001a16200021760201b60201c565b6200023360201b60201c565b620001ee7f65d7a28e3265b37a6474929f336521b332c1681b933f6cb9f3376673440d862a620001e26200021760201b60201c565b6200023360201b60201c565b50505062000211620002056200021760201b60201c565b6200024960201b60201c565b6200074f565b60006200022e6200030f60201b62001c6a1760201c565b905090565b620002458282620003c260201b60201c565b5050565b6000600f60009054906101000a900473ffffffffffffffffffffffffffffffffffffffff16905081600f60006101000a81548173ffffffffffffffffffffffffffffffffffffffff021916908373ffffffffffffffffffffffffffffffffffffffff1602179055508173ffffffffffffffffffffffffffffffffffffffff168173ffffffffffffffffffffffffffffffffffffffff167f8be0079c531659141344cd1fd0a4f28419497f9722a3daafe3b4186f6b6457e060405160405180910390a35050565b60003073ffffffffffffffffffffffffffffffffffffffff163373ffffffffffffffffffffffffffffffffffffffff161415620003bb57600080368080601f016020809104026020016040519081016040528093929190818152602001838380828437600081840152601f19601f820116905080830192505050505050509050600080369050905073ffffffffffffffffffffffffffffffffffffffff818301511692505050620003bf565b3390505b90565b620003d982826200040a60201b62001d1b1760201c565b620004058160016000858152602001908152602001600020620004fb60201b62001dfb1790919060201c565b505050565b6200041c82826200053360201b60201c565b620004f757600160008084815260200190815260200160002060000160008373ffffffffffffffffffffffffffffffffffffffff1673ffffffffffffffffffffffffffffffffffffffff16815260200190815260200160002060006101000a81548160ff0219169083151502179055506200049c6200021760201b60201c565b73ffffffffffffffffffffffffffffffffffffffff168173ffffffffffffffffffffffffffffffffffffffff16837f2f8788117e7eff1d82e926ec794901d17c78024a50270940304540a733656f0d60405160405180910390a45b5050565b60006200052b836000018373ffffffffffffffffffffffffffffffffffffffff1660001b6200059d60201b60201c565b905092915050565b600080600084815260200190815260200160002060000160008373ffffffffffffffffffffffffffffffffffffffff1673ffffffffffffffffffffffffffffffffffffffff16815260200190815260200160002060009054906101000a900460ff16905092915050565b6000620005b183836200061760201b60201c565b6200060c57826000018290806001815401808255809150506001900390600052602060002001600090919091909150558260000180549050836001016000848152602001908152602001600020819055506001905062000611565b600090505b92915050565b600080836001016000848152602001908152602001600020541415905092915050565b8280546200064890620006ea565b90600052602060002090601f0160209004810192826200066c5760008555620006b8565b82601f106200068757805160ff1916838001178555620006b8565b82800160010185558215620006b8579182015b82811115620006b75782518255916020019190600101906200069a565b5b509050620006c79190620006cb565b5090565b5b80821115620006e6576000816000905550600101620006cc565b5090565b600060028204905060018216806200070357607f821691505b602082108114156200071a576200071962000720565b5b50919050565b7f4e487b7100000000000000000000000000000000000000000000000000000000600052602260045260246000fd5b615ed3806200075f6000396000f3fe60806040526004361061027c5760003560e01c80635fd8c7101161014f578063a217fddf116100c1578063d53913931161007a578063d539139314610988578063d547741f146109b3578063e63ab1e9146109dc578063e985e9c514610a07578063f2fde38b14610a44578063f47c84c514610a6d5761027c565b8063a217fddf1461087a578063a22cb465146108a5578063b66a0e5d146108ce578063b88d4fde146108e5578063c87b56dd1461090e578063ca15c8731461094b5761027c565b80638456cb59116101135780638456cb5914610768578063893d20e81461077f5780638da5cb5b146107aa5780639010d07c146107d557806391d148541461081257806395d89b411461084f5761027c565b80635fd8c710146106835780636352211e146106ae5780636a627842146106eb57806370a0823114610714578063715018a6146107515761027c565b8063248a9ca3116101f357806342842e0e116101ac57806342842e0e1461058757806342966c68146105b05780634dc1dbec146105d95780634f6ccce71461060457806355367ba9146106415780635c975abb146106585761027c565b8063248a9ca31461047b57806329e0a2ac146104b85780632f2ff15d146104e15780632f745c591461050a57806336568abe146105475780633f4ba83a146105705761027c565b806306fdde031161024557806306fdde031461036b578063081812fc14610396578063095ea7b3146103d357806318160ddd146103fc5780631c8b232d1461042757806323b872dd146104525761027c565b8062923f9e1461028157806301173a74146102be578063013054c2146102da57806301ffc9a71461030357806303824f7614610340575b600080fd5b34801561028d57600080fd5b506102a860048036038101906102a39190614698565b610a98565b6040516102b59190614d66565b60405180910390f35b6102d860048036038101906102d391906143fe565b610aaa565b005b3480156102e657600080fd5b5061030160048036038101906102fc9190614698565b610c81565b005b34801561030f57600080fd5b5061032a60048036038101906103259190614646565b610d82565b6040516103379190614d66565b60405180910390f35b34801561034c57600080fd5b50610355610d94565b6040516103629190614d66565b60405180910390f35b34801561037757600080fd5b50610380610db7565b60405161038d9190614d9c565b60405180910390f35b3480156103a257600080fd5b506103bd60048036038101906103b89190614698565b610e49565b6040516103ca9190614cff565b60405180910390f35b3480156103df57600080fd5b506103fa60048036038101906103f59190614569565b610e8f565b005b34801561040857600080fd5b50610411610fa7565b60405161041e91906151de565b60405180910390f35b34801561043357600080fd5b5061043c610fb4565b6040516104499190614d66565b60405180910390f35b34801561045e57600080fd5b5061047960048036038101906104749190614463565b610fc7565b005b34801561048757600080fd5b506104a2600480360381019061049d91906145a5565b611027565b6040516104af9190614d81565b60405180910390f35b3480156104c457600080fd5b506104df60048036038101906104da9190614698565b611046565b005b3480156104ed57600080fd5b50610508600480360381019061050391906145ce565b611110565b005b34801561051657600080fd5b50610531600480360381019061052c9190614569565b611131565b60405161053e91906151de565b60405180910390f35b34801561055357600080fd5b5061056e600480360381019061056991906145ce565b6111d6565b005b34801561057c57600080fd5b50610585611259565b005b34801561059357600080fd5b506105ae60048036038101906105a99190614463565b6112d3565b005b3480156105bc57600080fd5b506105d760048036038101906105d29190614698565b6112f3565b005b3480156105e557600080fd5b506105ee61134f565b6040516105fb91906151de565b60405180910390f35b34801561061057600080fd5b5061062b60048036038101906106269190614698565b611355565b60405161063891906151de565b60405180910390f35b34801561064d57600080fd5b506106566113ec565b005b34801561066457600080fd5b5061066d611411565b60405161067a9190614d66565b60405180910390f35b34801561068f57600080fd5b50610698611428565b6040516106a59190614d66565b60405180910390f35b3480156106ba57600080fd5b506106d560048036038101906106d09190614698565b6115f4565b6040516106e29190614cff565b60405180910390f35b3480156106f757600080fd5b50610712600480360381019061070d91906143fe565b61167b565b005b34801561072057600080fd5b5061073b600480360381019061073691906143fe565b61170b565b60405161074891906151de565b60405180910390f35b34801561075d57600080fd5b506107666117c3565b005b34801561077457600080fd5b5061077d6117d7565b005b34801561078b57600080fd5b50610794611851565b6040516107a19190614cff565b60405180910390f35b3480156107b657600080fd5b506107bf611860565b6040516107cc9190614cff565b60405180910390f35b3480156107e157600080fd5b506107fc60048036038101906107f7919061460a565b61188a565b6040516108099190614cff565b60405180910390f35b34801561081e57600080fd5b50610839600480360381019061083491906145ce565b6118b9565b6040516108469190614d66565b60405180910390f35b34801561085b57600080fd5b50610864611923565b6040516108719190614d9c565b60405180910390f35b34801561088657600080fd5b5061088f6119b5565b60405161089c9190614d81565b60405180910390f35b3480156108b157600080fd5b506108cc60048036038101906108c7919061452d565b6119bc565b005b3480156108da57600080fd5b506108e36119d2565b005b3480156108f157600080fd5b5061090c600480360381019061090791906144b2565b611a23565b005b34801561091a57600080fd5b5061093560048036038101906109309190614698565b611a85565b6040516109429190614d9c565b60405180910390f35b34801561095757600080fd5b50610972600480360381019061096d91906145a5565b611aed565b60405161097f91906151de565b60405180910390f35b34801561099457600080fd5b5061099d611b11565b6040516109aa9190614d81565b60405180910390f35b3480156109bf57600080fd5b506109da60048036038101906109d591906145ce565b611b35565b005b3480156109e857600080fd5b506109f1611b56565b6040516109fe9190614d81565b60405180910390f35b348015610a1357600080fd5b50610a2e6004803603810190610a299190614427565b611b7a565b604051610a3b9190614d66565b60405180910390f35b348015610a5057600080fd5b50610a6b6004803603810190610a6691906143fe565b611be0565b005b348015610a7957600080fd5b50610a82611c64565b604051610a8f91906151de565b60405180910390f35b6000610aa382611e2b565b9050919050565b601360009054906101000a900460ff1680610af75750610ac8611860565b73ffffffffffffffffffffffffffffffffffffffff163373ffffffffffffffffffffffffffffffffffffffff16145b610b36576040517f08c379a0000000000000000000000000000000000000000000000000000000008152600401610b2d90614e1e565b60405180910390fd5b6107af610b546001610b46610fa7565b611e6c90919063ffffffff16565b111580610b935750610b64611860565b73ffffffffffffffffffffffffffffffffffffffff163373ffffffffffffffffffffffffffffffffffffffff16145b610bd2576040517f08c379a0000000000000000000000000000000000000000000000000000000008152600401610bc990614f7e565b60405180910390fd5b60115434148015610be35750600034115b610c22576040517f08c379a0000000000000000000000000000000000000000000000000000000008152600401610c199061513e565b60405180910390fd5b6000610c2e6010611e82565b9050610c3a8282611e90565b610c446010611eae565b7fb9203d657e9c0ec8274c818292ab0f58b04e1970050716891770eb1bab5d655e8183604051610c759291906151f9565b60405180910390a15050565b610c8a81611e2b565b610cc9576040517f08c379a0000000000000000000000000000000000000000000000000000000008152600401610cc09061503e565b60405180910390fd5b3373ffffffffffffffffffffffffffffffffffffffff16610ce9826115f4565b73ffffffffffffffffffffffffffffffffffffffff1614610d3f576040517f08c379a0000000000000000000000000000000000000000000000000000000008152600401610d3690614f5e565b60405180910390fd5b610d4881611ec4565b7f82498456531a1065f689ba348ce20bda781238c424cf36748dd40bc282831e0381604051610d7791906151de565b60405180910390a150565b6000610d8d82612012565b9050919050565b60006107af610da1610fa7565b10610daf5760019050610db4565b600090505b90565b606060028054610dc6906154fc565b80601f0160208091040260200160405190810160405280929190818152602001828054610df2906154fc565b8015610e3f5780601f10610e1457610100808354040283529160200191610e3f565b820191906000526020600020905b815481529060010190602001808311610e2257829003601f168201915b5050505050905090565b6000610e548261208c565b6006600083815260200190815260200160002060009054906101000a900473ffffffffffffffffffffffffffffffffffffffff169050919050565b6000610e9a826115f4565b90508073ffffffffffffffffffffffffffffffffffffffff168373ffffffffffffffffffffffffffffffffffffffff161415610f0b576040517f08c379a0000000000000000000000000000000000000000000000000000000008152600401610f029061509e565b60405180910390fd5b8073ffffffffffffffffffffffffffffffffffffffff16610f2a6120d7565b73ffffffffffffffffffffffffffffffffffffffff161480610f595750610f5881610f536120d7565b611b7a565b5b610f98576040517f08c379a0000000000000000000000000000000000000000000000000000000008152600401610f8f906150de565b60405180910390fd5b610fa283836120e6565b505050565b6000600a80549050905090565b601360009054906101000a900460ff1681565b610fd8610fd26120d7565b8261219f565b611017576040517f08c379a000000000000000000000000000000000000000000000000000000000815260040161100e90614e3e565b60405180910390fd5b611022838383612234565b505050565b6000806000838152602001908152602001600020600101549050919050565b61104e61252e565b611056611860565b73ffffffffffffffffffffffffffffffffffffffff163373ffffffffffffffffffffffffffffffffffffffff16146110c3576040517f08c379a00000000000000000000000000000000000000000000000000000000081526004016110ba90614ffe565b60405180910390fd5b60008111611106576040517f08c379a00000000000000000000000000000000000000000000000000000000081526004016110fd90614fbe565b60405180910390fd5b8060118190555050565b61111982611027565b611122816125ac565b61112c83836125c0565b505050565b600061113c8361170b565b821061117d576040517f08c379a000000000000000000000000000000000000000000000000000000000815260040161117490614e5e565b60405180910390fd5b600860008473ffffffffffffffffffffffffffffffffffffffff1673ffffffffffffffffffffffffffffffffffffffff168152602001908152602001600020600083815260200190815260200160002054905092915050565b6111de6120d7565b73ffffffffffffffffffffffffffffffffffffffff168173ffffffffffffffffffffffffffffffffffffffff161461124b576040517f08c379a0000000000000000000000000000000000000000000000000000000008152600401611242906151be565b60405180910390fd5b61125582826125f4565b5050565b61128a7f65d7a28e3265b37a6474929f336521b332c1681b933f6cb9f3376673440d862a6112856120d7565b6118b9565b6112c9576040517f08c379a00000000000000000000000000000000000000000000000000000000081526004016112c09061519e565b60405180910390fd5b6112d1612628565b565b6112ee83838360405180602001604052806000815250611a23565b505050565b6113046112fe6120d7565b8261219f565b611343576040517f08c379a000000000000000000000000000000000000000000000000000000000815260040161133a90614e3e565b60405180910390fd5b61134c81611ec4565b50565b60115481565b600061135f610fa7565b82106113a0576040517f08c379a0000000000000000000000000000000000000000000000000000000008152600401611397906150fe565b60405180910390fd5b600a82815481106113da577f4e487b7100000000000000000000000000000000000000000000000000000000600052603260045260246000fd5b90600052602060002001549050919050565b6113f461252e565b6000601360006101000a81548160ff021916908315150217905550565b6000600c60009054906101000a900460ff16905090565b600061143261252e565b600f60149054906101000a900460ff1615611482576040517f08c379a00000000000000000000000000000000000000000000000000000000081526004016114799061517e565b60405180910390fd5b6001600f60146101000a81548160ff02191690831515021790555060006064600a476114ae9190615384565b6114b89190615353565b476114c391906153de565b905060006114cf611860565b73ffffffffffffffffffffffffffffffffffffffff16826040516114f290614cb0565b60006040518083038185875af1925050503d806000811461152f576040519150601f19603f3d011682016040523d82523d6000602084013e611534565b606091505b5050905080611578576040517f08c379a000000000000000000000000000000000000000000000000000000000815260040161156f906150be565b60405180910390fd5b6000600f60146101000a81548160ff0219169083151502179055507fe492f03a13f16d9ab77da04e06cc43e6eb0a495bab6bc3d0018b7d6714e6359f47836115be611860565b73ffffffffffffffffffffffffffffffffffffffff16316040516115e493929190615222565b60405180910390a1809250505090565b6000806116008361268b565b9050600073ffffffffffffffffffffffffffffffffffffffff168173ffffffffffffffffffffffffffffffffffffffff161415611672576040517f08c379a00000000000000000000000000000000000000000000000000000000081526004016116699061507e565b60405180910390fd5b80915050919050565b6116ac7f9f2df0fed2c77648de5860a4cc508cd0818c85b8b8a1ab4ceeef8d981c8956a66116a76120d7565b6118b9565b6116eb576040517f08c379a00000000000000000000000000000000000000000000000000000000081526004016116e29061515e565b60405180910390fd5b6116fe816116f9600d611e82565b6126c8565b611708600d611eae565b50565b60008073ffffffffffffffffffffffffffffffffffffffff168273ffffffffffffffffffffffffffffffffffffffff16141561177c576040517f08c379a000000000000000000000000000000000000000000000000000000000815260040161177390614fde565b60405180910390fd5b600560008373ffffffffffffffffffffffffffffffffffffffff1673ffffffffffffffffffffffffffffffffffffffff168152602001908152602001600020549050919050565b6117cb61252e565b6117d560006128e6565b565b6118087f65d7a28e3265b37a6474929f336521b332c1681b933f6cb9f3376673440d862a6118036120d7565b6118b9565b611847576040517f08c379a000000000000000000000000000000000000000000000000000000000815260040161183e90614efe565b60405180910390fd5b61184f6129ac565b565b600061185b611860565b905090565b6000600f60009054906101000a900473ffffffffffffffffffffffffffffffffffffffff16905090565b60006118b18260016000868152602001908152602001600020612a0f90919063ffffffff16565b905092915050565b600080600084815260200190815260200160002060000160008373ffffffffffffffffffffffffffffffffffffffff1673ffffffffffffffffffffffffffffffffffffffff16815260200190815260200160002060009054906101000a900460ff16905092915050565b606060038054611932906154fc565b80601f016020809104026020016040519081016040528092919081815260200182805461195e906154fc565b80156119ab5780601f10611980576101008083540402835291602001916119ab565b820191906000526020600020905b81548152906001019060200180831161198e57829003601f168201915b5050505050905090565b6000801b81565b6119ce6119c76120d7565b8383612a29565b5050565b6119da61252e565b6001601360006101000a81548160ff0219169083151502179055507f912ee23dde46ec889d6748212cce445d667f7041597691dc89e8549ad8bc0acb60405160405180910390a1565b611a34611a2e6120d7565b8361219f565b611a73576040517f08c379a0000000000000000000000000000000000000000000000000000000008152600401611a6a90614e3e565b60405180910390fd5b611a7f84848484612b96565b50505050565b6060611a908261208c565b6000611a9a612bf2565b90506000815111611aba5760405180602001604052806000815250611ae5565b80611ac484612c84565b604051602001611ad5929190614c8c565b6040516020818303038152906040525b915050919050565b6000611b0a60016000848152602001908152602001600020612da8565b9050919050565b7f9f2df0fed2c77648de5860a4cc508cd0818c85b8b8a1ab4ceeef8d981c8956a681565b611b3e82611027565b611b47816125ac565b611b5183836125f4565b505050565b7f65d7a28e3265b37a6474929f336521b332c1681b933f6cb9f3376673440d862a81565b60007358807bad0b376efc12f5ad86aac70e78ed67deae73ffffffffffffffffffffffffffffffffffffffff168273ffffffffffffffffffffffffffffffffffffffff161415611bcd5760019050611bda565b611bd78383612dbd565b90505b92915050565b611be861252e565b600073ffffffffffffffffffffffffffffffffffffffff168173ffffffffffffffffffffffffffffffffffffffff161415611c58576040517f08c379a0000000000000000000000000000000000000000000000000000000008152600401611c4f90614e9e565b60405180910390fd5b611c61816128e6565b50565b6107af81565b60003073ffffffffffffffffffffffffffffffffffffffff163373ffffffffffffffffffffffffffffffffffffffff161415611d1457600080368080601f016020809104026020016040519081016040528093929190818152602001838380828437600081840152601f19601f820116905080830192505050505050509050600080369050905073ffffffffffffffffffffffffffffffffffffffff818301511692505050611d18565b3390505b90565b611d2582826118b9565b611df757600160008084815260200190815260200160002060000160008373ffffffffffffffffffffffffffffffffffffffff1673ffffffffffffffffffffffffffffffffffffffff16815260200190815260200160002060006101000a81548160ff021916908315150217905550611d9c6120d7565b73ffffffffffffffffffffffffffffffffffffffff168173ffffffffffffffffffffffffffffffffffffffff16837f2f8788117e7eff1d82e926ec794901d17c78024a50270940304540a733656f0d60405160405180910390a45b5050565b6000611e23836000018373ffffffffffffffffffffffffffffffffffffffff1660001b612e51565b905092915050565b60008073ffffffffffffffffffffffffffffffffffffffff16611e4d8361268b565b73ffffffffffffffffffffffffffffffffffffffff1614159050919050565b60008183611e7a91906152fd565b905092915050565b600081600001549050919050565b611eaa828260405180602001604052806000815250612ec1565b5050565b6001816000016000828254019250508190555050565b6000611ecf826115f4565b9050611edf816000846001612f1c565b611ee8826115f4565b90506006600083815260200190815260200160002060006101000a81549073ffffffffffffffffffffffffffffffffffffffff02191690556001600560008373ffffffffffffffffffffffffffffffffffffffff1673ffffffffffffffffffffffffffffffffffffffff168152602001908152602001600020600082825403925050819055506004600083815260200190815260200160002060006101000a81549073ffffffffffffffffffffffffffffffffffffffff021916905581600073ffffffffffffffffffffffffffffffffffffffff168273ffffffffffffffffffffffffffffffffffffffff167fddf252ad1be2c89b69c2b068fc378daa952ba7f163c4a11628f55a4df523b3ef60405160405180910390a461200e816000846001612f2e565b5050565b60007f780e9d63000000000000000000000000000000000000000000000000000000007bffffffffffffffffffffffffffffffffffffffffffffffffffffffff1916827bffffffffffffffffffffffffffffffffffffffffffffffffffffffff19161480612085575061208482612f34565b5b9050919050565b61209581611e2b565b6120d4576040517f08c379a00000000000000000000000000000000000000000000000000000000081526004016120cb9061507e565b60405180910390fd5b50565b60006120e1611c6a565b905090565b816006600083815260200190815260200160002060006101000a81548173ffffffffffffffffffffffffffffffffffffffff021916908373ffffffffffffffffffffffffffffffffffffffff160217905550808273ffffffffffffffffffffffffffffffffffffffff16612159836115f4565b73ffffffffffffffffffffffffffffffffffffffff167f8c5be1e5ebec7d5bd14f71427d1e84f3dd0314c0f7b2291e5b200ac8c7c3b92560405160405180910390a45050565b6000806121ab836115f4565b90508073ffffffffffffffffffffffffffffffffffffffff168473ffffffffffffffffffffffffffffffffffffffff1614806121ed57506121ec8185611b7a565b5b8061222b57508373ffffffffffffffffffffffffffffffffffffffff1661221384610e49565b73ffffffffffffffffffffffffffffffffffffffff16145b91505092915050565b8273ffffffffffffffffffffffffffffffffffffffff16612254826115f4565b73ffffffffffffffffffffffffffffffffffffffff16146122aa576040517f08c379a00000000000000000000000000000000000000000000000000000000081526004016122a190614ebe565b60405180910390fd5b600073ffffffffffffffffffffffffffffffffffffffff168273ffffffffffffffffffffffffffffffffffffffff16141561231a576040517f08c379a000000000000000000000000000000000000000000000000000000000815260040161231190614f1e565b60405180910390fd5b6123278383836001612f1c565b8273ffffffffffffffffffffffffffffffffffffffff16612347826115f4565b73ffffffffffffffffffffffffffffffffffffffff161461239d576040517f08c379a000000000000000000000000000000000000000000000000000000000815260040161239490614ebe565b60405180910390fd5b6006600082815260200190815260200160002060006101000a81549073ffffffffffffffffffffffffffffffffffffffff02191690556001600560008573ffffffffffffffffffffffffffffffffffffffff1673ffffffffffffffffffffffffffffffffffffffff168152602001908152602001600020600082825403925050819055506001600560008473ffffffffffffffffffffffffffffffffffffffff1673ffffffffffffffffffffffffffffffffffffffff16815260200190815260200160002060008282540192505081905550816004600083815260200190815260200160002060006101000a81548173ffffffffffffffffffffffffffffffffffffffff021916908373ffffffffffffffffffffffffffffffffffffffff160217905550808273ffffffffffffffffffffffffffffffffffffffff168473ffffffffffffffffffffffffffffffffffffffff167fddf252ad1be2c89b69c2b068fc378daa952ba7f163c4a11628f55a4df523b3ef60405160405180910390a46125298383836001612f2e565b505050565b6125366120d7565b73ffffffffffffffffffffffffffffffffffffffff16612554611860565b73ffffffffffffffffffffffffffffffffffffffff16146125aa576040517f08c379a00000000000000000000000000000000000000000000000000000000081526004016125a19061505e565b60405180910390fd5b565b6125bd816125b86120d7565b613016565b50565b6125ca8282611d1b565b6125ef8160016000858152602001908152602001600020611dfb90919063ffffffff16565b505050565b6125fe828261309b565b612623816001600085815260200190815260200160002061317c90919063ffffffff16565b505050565b6126306131ac565b6000600c60006101000a81548160ff0219169083151502179055507f5db9ee0a495bf2e6ff9c91a7834c1ba4fdd244a5e8aa4e537bd38aeae4b073aa6126746120d7565b6040516126819190614cff565b60405180910390a1565b60006004600083815260200190815260200160002060009054906101000a900473ffffffffffffffffffffffffffffffffffffffff169050919050565b600073ffffffffffffffffffffffffffffffffffffffff168273ffffffffffffffffffffffffffffffffffffffff161415612738576040517f08c379a000000000000000000000000000000000000000000000000000000000815260040161272f9061501e565b60405180910390fd5b61274181611e2b565b15612781576040517f08c379a000000000000000000000000000000000000000000000000000000000815260040161277890614ede565b60405180910390fd5b61278f600083836001612f1c565b61279881611e2b565b156127d8576040517f08c379a00000000000000000000000000000000000000000000000000000000081526004016127cf90614ede565b60405180910390fd5b6001600560008473ffffffffffffffffffffffffffffffffffffffff1673ffffffffffffffffffffffffffffffffffffffff16815260200190815260200160002060008282540192505081905550816004600083815260200190815260200160002060006101000a81548173ffffffffffffffffffffffffffffffffffffffff021916908373ffffffffffffffffffffffffffffffffffffffff160217905550808273ffffffffffffffffffffffffffffffffffffffff16600073ffffffffffffffffffffffffffffffffffffffff167fddf252ad1be2c89b69c2b068fc378daa952ba7f163c4a11628f55a4df523b3ef60405160405180910390a46128e2600083836001612f2e565b5050565b6000600f60009054906101000a900473ffffffffffffffffffffffffffffffffffffffff16905081600f60006101000a81548173ffffffffffffffffffffffffffffffffffffffff021916908373ffffffffffffffffffffffffffffffffffffffff1602179055508173ffffffffffffffffffffffffffffffffffffffff168173ffffffffffffffffffffffffffffffffffffffff167f8be0079c531659141344cd1fd0a4f28419497f9722a3daafe3b4186f6b6457e060405160405180910390a35050565b6129b46131f5565b6001600c60006101000a81548160ff0219169083151502179055507f62e78cea01bee320cd4e420270b5ea74000d11b0c9f74754ebdbfc544b05a2586129f86120d7565b604051612a059190614cff565b60405180910390a1565b6000612a1e836000018361323f565b60001c905092915050565b8173ffffffffffffffffffffffffffffffffffffffff168373ffffffffffffffffffffffffffffffffffffffff161415612a98576040517f08c379a0000000000000000000000000000000000000000000000000000000008152600401612a8f90614f3e565b60405180910390fd5b80600760008573ffffffffffffffffffffffffffffffffffffffff1673ffffffffffffffffffffffffffffffffffffffff16815260200190815260200160002060008473ffffffffffffffffffffffffffffffffffffffff1673ffffffffffffffffffffffffffffffffffffffff16815260200190815260200160002060006101000a81548160ff0219169083151502179055508173ffffffffffffffffffffffffffffffffffffffff168373ffffffffffffffffffffffffffffffffffffffff167f17307eab39ab6107e8899845ad3d59bd9653f200f220920489ca2b5937696c3183604051612b899190614d66565b60405180910390a3505050565b612ba1848484612234565b612bad84848484613290565b612bec576040517f08c379a0000000000000000000000000000000000000000000000000000000008152600401612be390614e7e565b60405180910390fd5b50505050565b6060600e8054612c01906154fc565b80601f0160208091040260200160405190810160405280929190818152602001828054612c2d906154fc565b8015612c7a5780601f10612c4f57610100808354040283529160200191612c7a565b820191906000526020600020905b815481529060010190602001808311612c5d57829003601f168201915b5050505050905090565b606060006001612c9384613427565b01905060008167ffffffffffffffff811115612cd8577f4e487b7100000000000000000000000000000000000000000000000000000000600052604160045260246000fd5b6040519080825280601f01601f191660200182016040528015612d0a5781602001600182028036833780820191505090505b509050600082602001820190505b600115612d9d578080600190039150507f3031323334353637383961626364656600000000000000000000000000000000600a86061a8153600a8581612d87577f4e487b7100000000000000000000000000000000000000000000000000000000600052601260045260246000fd5b0494506000851415612d9857612d9d565b612d18565b819350505050919050565b6000612db68260000161365e565b9050919050565b6000600760008473ffffffffffffffffffffffffffffffffffffffff1673ffffffffffffffffffffffffffffffffffffffff16815260200190815260200160002060008373ffffffffffffffffffffffffffffffffffffffff1673ffffffffffffffffffffffffffffffffffffffff16815260200190815260200160002060009054906101000a900460ff16905092915050565b6000612e5d838361366f565b612eb6578260000182908060018154018082558091505060019003906000526020600020016000909190919091505582600001805490508360010160008481526020019081526020016000208190555060019050612ebb565b600090505b92915050565b612ecb83836126c8565b612ed86000848484613290565b612f17576040517f08c379a0000000000000000000000000000000000000000000000000000000008152600401612f0e90614e7e565b60405180910390fd5b505050565b612f2884848484613692565b50505050565b50505050565b60007f80ac58cd000000000000000000000000000000000000000000000000000000007bffffffffffffffffffffffffffffffffffffffffffffffffffffffff1916827bffffffffffffffffffffffffffffffffffffffffffffffffffffffff19161480612fff57507f5b5e139f000000000000000000000000000000000000000000000000000000007bffffffffffffffffffffffffffffffffffffffffffffffffffffffff1916827bffffffffffffffffffffffffffffffffffffffffffffffffffffffff1916145b8061300f575061300e826136ec565b5b9050919050565b61302082826118b9565b6130975761302d81613766565b61303b8360001c6020613793565b60405160200161304c929190614cc5565b6040516020818303038152906040526040517f08c379a000000000000000000000000000000000000000000000000000000000815260040161308e9190614d9c565b60405180910390fd5b5050565b6130a582826118b9565b1561317857600080600084815260200190815260200160002060000160008373ffffffffffffffffffffffffffffffffffffffff1673ffffffffffffffffffffffffffffffffffffffff16815260200190815260200160002060006101000a81548160ff02191690831515021790555061311d6120d7565b73ffffffffffffffffffffffffffffffffffffffff168173ffffffffffffffffffffffffffffffffffffffff16837ff6391f5c32d9c69d2a47ea670b442974b53935d1edc7fd64eb21e047a839171b60405160405180910390a45b5050565b60006131a4836000018373ffffffffffffffffffffffffffffffffffffffff1660001b613a8d565b905092915050565b6131b4611411565b6131f3576040517f08c379a00000000000000000000000000000000000000000000000000000000081526004016131ea90614dfe565b60405180910390fd5b565b6131fd611411565b1561323d576040517f08c379a000000000000000000000000000000000000000000000000000000000815260040161323490614f9e565b60405180910390fd5b565b600082600001828154811061327d577f4e487b7100000000000000000000000000000000000000000000000000000000600052603260045260246000fd5b9060005260206000200154905092915050565b60006132b18473ffffffffffffffffffffffffffffffffffffffff16613c13565b1561341a578373ffffffffffffffffffffffffffffffffffffffff1663150b7a026132da6120d7565b8786866040518563ffffffff1660e01b81526004016132fc9493929190614d1a565b602060405180830381600087803b15801561331657600080fd5b505af192505050801561334757506040513d601f19601f82011682018060405250810190613344919061466f565b60015b6133ca573d8060008114613377576040519150601f19603f3d011682016040523d82523d6000602084013e61337c565b606091505b506000815114156133c2576040517f08c379a00000000000000000000000000000000000000000000000000000000081526004016133b990614e7e565b60405180910390fd5b805181602001fd5b63150b7a0260e01b7bffffffffffffffffffffffffffffffffffffffffffffffffffffffff1916817bffffffffffffffffffffffffffffffffffffffffffffffffffffffff19161491505061341f565b600190505b949350505050565b600080600090507a184f03e93ff9f4daa797ed6e38ed64bf6a1f01000000000000000083106134ab577a184f03e93ff9f4daa797ed6e38ed64bf6a1f01000000000000000083816134a1577f4e487b7100000000000000000000000000000000000000000000000000000000600052601260045260246000fd5b0492506040810190505b6d04ee2d6d415b85acef8100000000831061350e576d04ee2d6d415b85acef81000000008381613504577f4e487b7100000000000000000000000000000000000000000000000000000000600052601260045260246000fd5b0492506020810190505b662386f26fc10000831061356357662386f26fc100008381613559577f4e487b7100000000000000000000000000000000000000000000000000000000600052601260045260246000fd5b0492506010810190505b6305f5e10083106135b2576305f5e10083816135a8577f4e487b7100000000000000000000000000000000000000000000000000000000600052601260045260246000fd5b0492506008810190505b61271083106135fd5761271083816135f3577f4e487b7100000000000000000000000000000000000000000000000000000000600052601260045260246000fd5b0492506004810190505b60648310613646576064838161363c577f4e487b7100000000000000000000000000000000000000000000000000000000600052601260045260246000fd5b0492506002810190505b600a8310613655576001810190505b80915050919050565b600081600001805490509050919050565b600080836001016000848152602001908152602001600020541415905092915050565b61369e84848484613c36565b6136a6611411565b156136e6576040517f08c379a00000000000000000000000000000000000000000000000000000000081526004016136dd90614dde565b60405180910390fd5b50505050565b60007f5a05180f000000000000000000000000000000000000000000000000000000007bffffffffffffffffffffffffffffffffffffffffffffffffffffffff1916827bffffffffffffffffffffffffffffffffffffffffffffffffffffffff1916148061375f575061375e82613d96565b5b9050919050565b606061378c8273ffffffffffffffffffffffffffffffffffffffff16601460ff16613793565b9050919050565b6060600060028360026137a69190615384565b6137b091906152fd565b67ffffffffffffffff8111156137ef577f4e487b7100000000000000000000000000000000000000000000000000000000600052604160045260246000fd5b6040519080825280601f01601f1916602001820160405280156138215781602001600182028036833780820191505090505b5090507f30000000000000000000000000000000000000000000000000000000000000008160008151811061387f577f4e487b7100000000000000000000000000000000000000000000000000000000600052603260045260246000fd5b60200101907effffffffffffffffffffffffffffffffffffffffffffffffffffffffffffff1916908160001a9053507f780000000000000000000000000000000000000000000000000000000000000081600181518110613909577f4e487b7100000000000000000000000000000000000000000000000000000000600052603260045260246000fd5b60200101907effffffffffffffffffffffffffffffffffffffffffffffffffffffffffffff1916908160001a905350600060018460026139499190615384565b61395391906152fd565b90505b6001811115613a3f577f3031323334353637383961626364656600000000000000000000000000000000600f8616601081106139bb577f4e487b7100000000000000000000000000000000000000000000000000000000600052603260045260246000fd5b1a60f81b8282815181106139f8577f4e487b7100000000000000000000000000000000000000000000000000000000600052603260045260246000fd5b60200101907effffffffffffffffffffffffffffffffffffffffffffffffffffffffffffff1916908160001a905350600485901c945080613a38906154d2565b9050613956565b5060008414613a83576040517f08c379a0000000000000000000000000000000000000000000000000000000008152600401613a7a90614dbe565b60405180910390fd5b8091505092915050565b60008083600101600084815260200190815260200160002054905060008114613c07576000600182613abf91906153de565b9050600060018660000180549050613ad791906153de565b9050818114613b92576000866000018281548110613b1e577f4e487b7100000000000000000000000000000000000000000000000000000000600052603260045260246000fd5b9060005260206000200154905080876000018481548110613b68577f4e487b7100000000000000000000000000000000000000000000000000000000600052603260045260246000fd5b90600052602060002001819055508387600101600083815260200190815260200160002081905550505b85600001805480613bcc577f4e487b7100000000000000000000000000000000000000000000000000000000600052603160045260246000fd5b600190038181906000526020600020016000905590558560010160008681526020019081526020016000206000905560019350505050613c0d565b60009150505b92915050565b6000808273ffffffffffffffffffffffffffffffffffffffff163b119050919050565b613c4284848484613e10565b6001811115613c86576040517f08c379a0000000000000000000000000000000000000000000000000000000008152600401613c7d9061511e565b60405180910390fd5b6000829050600073ffffffffffffffffffffffffffffffffffffffff168573ffffffffffffffffffffffffffffffffffffffff161415613cce57613cc981613f36565b613d0d565b8373ffffffffffffffffffffffffffffffffffffffff168573ffffffffffffffffffffffffffffffffffffffff1614613d0c57613d0b8582613f7f565b5b5b600073ffffffffffffffffffffffffffffffffffffffff168473ffffffffffffffffffffffffffffffffffffffff161415613d5057613d4b816140ec565b613d8f565b8473ffffffffffffffffffffffffffffffffffffffff168473ffffffffffffffffffffffffffffffffffffffff1614613d8e57613d8d848261422f565b5b5b5050505050565b60007f7965db0b000000000000000000000000000000000000000000000000000000007bffffffffffffffffffffffffffffffffffffffffffffffffffffffff1916827bffffffffffffffffffffffffffffffffffffffffffffffffffffffff19161480613e095750613e08826142ae565b5b9050919050565b6001811115613f3057600073ffffffffffffffffffffffffffffffffffffffff168473ffffffffffffffffffffffffffffffffffffffff1614613ea45780600560008673ffffffffffffffffffffffffffffffffffffffff1673ffffffffffffffffffffffffffffffffffffffff1681526020019081526020016000206000828254613e9c91906153de565b925050819055505b600073ffffffffffffffffffffffffffffffffffffffff168373ffffffffffffffffffffffffffffffffffffffff1614613f2f5780600560008573ffffffffffffffffffffffffffffffffffffffff1673ffffffffffffffffffffffffffffffffffffffff1681526020019081526020016000206000828254613f2791906152fd565b925050819055505b5b50505050565b600a80549050600b600083815260200190815260200160002081905550600a81908060018154018082558091505060019003906000526020600020016000909190919091505550565b60006001613f8c8461170b565b613f9691906153de565b905060006009600084815260200190815260200160002054905081811461407b576000600860008673ffffffffffffffffffffffffffffffffffffffff1673ffffffffffffffffffffffffffffffffffffffff168152602001908152602001600020600084815260200190815260200160002054905080600860008773ffffffffffffffffffffffffffffffffffffffff1673ffffffffffffffffffffffffffffffffffffffff168152602001908152602001600020600084815260200190815260200160002081905550816009600083815260200190815260200160002081905550505b6009600084815260200190815260200160002060009055600860008573ffffffffffffffffffffffffffffffffffffffff1673ffffffffffffffffffffffffffffffffffffffff16815260200190815260200160002060008381526020019081526020016000206000905550505050565b60006001600a8054905061410091906153de565b90506000600b60008481526020019081526020016000205490506000600a8381548110614156577f4e487b7100000000000000000000000000000000000000000000000000000000600052603260045260246000fd5b9060005260206000200154905080600a838154811061419e577f4e487b7100000000000000000000000000000000000000000000000000000000600052603260045260246000fd5b906000526020600020018190555081600b600083815260200190815260200160002081905550600b600085815260200190815260200160002060009055600a805480614213577f4e487b7100000000000000000000000000000000000000000000000000000000600052603160045260246000fd5b6001900381819060005260206000200160009055905550505050565b600061423a8361170b565b905081600860008573ffffffffffffffffffffffffffffffffffffffff1673ffffffffffffffffffffffffffffffffffffffff168152602001908152602001600020600083815260200190815260200160002081905550806009600084815260200190815260200160002081905550505050565b60007f01ffc9a7000000000000000000000000000000000000000000000000000000007bffffffffffffffffffffffffffffffffffffffffffffffffffffffff1916827bffffffffffffffffffffffffffffffffffffffffffffffffffffffff1916149050919050565b600061432b6143268461527e565b615259565b90508281526020810184848401111561434357600080fd5b61434e848285615490565b509392505050565b60008135905061436581615e2a565b92915050565b60008135905061437a81615e41565b92915050565b60008135905061438f81615e58565b92915050565b6000813590506143a481615e6f565b92915050565b6000815190506143b981615e6f565b92915050565b600082601f8301126143d057600080fd5b81356143e0848260208601614318565b91505092915050565b6000813590506143f881615e86565b92915050565b60006020828403121561441057600080fd5b600061441e84828501614356565b91505092915050565b6000806040838503121561443a57600080fd5b600061444885828601614356565b925050602061445985828601614356565b9150509250929050565b60008060006060848603121561447857600080fd5b600061448686828701614356565b935050602061449786828701614356565b92505060406144a8868287016143e9565b9150509250925092565b600080600080608085870312156144c857600080fd5b60006144d687828801614356565b94505060206144e787828801614356565b93505060406144f8878288016143e9565b925050606085013567ffffffffffffffff81111561451557600080fd5b614521878288016143bf565b91505092959194509250565b6000806040838503121561454057600080fd5b600061454e85828601614356565b925050602061455f8582860161436b565b9150509250929050565b6000806040838503121561457c57600080fd5b600061458a85828601614356565b925050602061459b858286016143e9565b9150509250929050565b6000602082840312156145b757600080fd5b60006145c584828501614380565b91505092915050565b600080604083850312156145e157600080fd5b60006145ef85828601614380565b925050602061460085828601614356565b9150509250929050565b6000806040838503121561461d57600080fd5b600061462b85828601614380565b925050602061463c858286016143e9565b9150509250929050565b60006020828403121561465857600080fd5b600061466684828501614395565b91505092915050565b60006020828403121561468157600080fd5b600061468f848285016143aa565b91505092915050565b6000602082840312156146aa57600080fd5b60006146b8848285016143e9565b91505092915050565b6146ca81615412565b82525050565b6146d981615424565b82525050565b6146e881615430565b82525050565b60006146f9826152af565b61470381856152c5565b935061471381856020860161549f565b61471c8161561b565b840191505092915050565b6000614732826152ba565b61473c81856152e1565b935061474c81856020860161549f565b6147558161561b565b840191505092915050565b600061476b826152ba565b61477581856152f2565b935061478581856020860161549f565b80840191505092915050565b600061479e6020836152e1565b91506147a98261562c565b602082019050919050565b60006147c1602b836152e1565b91506147cc82615655565b604082019050919050565b60006147e46014836152e1565b91506147ef826156a4565b602082019050919050565b60006148076013836152e1565b9150614812826156cd565b602082019050919050565b600061482a602d836152e1565b9150614835826156f6565b604082019050919050565b600061484d602b836152e1565b915061485882615745565b604082019050919050565b60006148706032836152e1565b915061487b82615794565b604082019050919050565b60006148936026836152e1565b915061489e826157e3565b604082019050919050565b60006148b66025836152e1565b91506148c182615832565b604082019050919050565b60006148d9601c836152e1565b91506148e482615881565b602082019050919050565b60006148fc603e836152e1565b9150614907826158aa565b604082019050919050565b600061491f6024836152e1565b915061492a826158f9565b604082019050919050565b60006149426019836152e1565b915061494d82615948565b602082019050919050565b6000614965601a836152e1565b915061497082615971565b602082019050919050565b60006149886008836152e1565b91506149938261599a565b602082019050919050565b60006149ab6010836152e1565b91506149b6826159c3565b602082019050919050565b60006149ce601e836152e1565b91506149d9826159ec565b602082019050919050565b60006149f16029836152e1565b91506149fc82615a15565b604082019050919050565b6000614a14601f836152e1565b9150614a1f82615a64565b602082019050919050565b6000614a376020836152e1565b9150614a4282615a8d565b602082019050919050565b6000614a5a6015836152e1565b9150614a6582615ab6565b602082019050919050565b6000614a7d6020836152e1565b9150614a8882615adf565b602082019050919050565b6000614aa06018836152e1565b9150614aab82615b08565b602082019050919050565b6000614ac36021836152e1565b9150614ace82615b31565b604082019050919050565b6000614ae66012836152e1565b9150614af182615b80565b602082019050919050565b6000614b096000836152d6565b9150614b1482615ba9565b600082019050919050565b6000614b2c603d836152e1565b9150614b3782615bac565b604082019050919050565b6000614b4f602c836152e1565b9150614b5a82615bfb565b604082019050919050565b6000614b726017836152f2565b9150614b7d82615c4a565b601782019050919050565b6000614b956035836152e1565b9150614ba082615c73565b604082019050919050565b6000614bb8600b836152e1565b9150614bc382615cc2565b602082019050919050565b6000614bdb603d836152e1565b9150614be682615ceb565b604082019050919050565b6000614bfe6013836152e1565b9150614c0982615d3a565b602082019050919050565b6000614c216040836152e1565b9150614c2c82615d63565b604082019050919050565b6000614c446011836152f2565b9150614c4f82615db2565b601182019050919050565b6000614c67602f836152e1565b9150614c7282615ddb565b604082019050919050565b614c8681615486565b82525050565b6000614c988285614760565b9150614ca48284614760565b91508190509392505050565b6000614cbb82614afc565b9150819050919050565b6000614cd082614b65565b9150614cdc8285614760565b9150614ce782614c37565b9150614cf38284614760565b91508190509392505050565b6000602082019050614d1460008301846146c1565b92915050565b6000608082019050614d2f60008301876146c1565b614d3c60208301866146c1565b614d496040830185614c7d565b8181036060830152614d5b81846146ee565b905095945050505050565b6000602082019050614d7b60008301846146d0565b92915050565b6000602082019050614d9660008301846146df565b92915050565b60006020820190508181036000830152614db68184614727565b905092915050565b60006020820190508181036000830152614dd781614791565b9050919050565b60006020820190508181036000830152614df7816147b4565b9050919050565b60006020820190508181036000830152614e17816147d7565b9050919050565b60006020820190508181036000830152614e37816147fa565b9050919050565b60006020820190508181036000830152614e578161481d565b9050919050565b60006020820190508181036000830152614e7781614840565b9050919050565b60006020820190508181036000830152614e9781614863565b9050919050565b60006020820190508181036000830152614eb781614886565b9050919050565b60006020820190508181036000830152614ed7816148a9565b9050919050565b60006020820190508181036000830152614ef7816148cc565b9050919050565b60006020820190508181036000830152614f17816148ef565b9050919050565b60006020820190508181036000830152614f3781614912565b9050919050565b60006020820190508181036000830152614f5781614935565b9050919050565b60006020820190508181036000830152614f7781614958565b9050919050565b60006020820190508181036000830152614f978161497b565b9050919050565b60006020820190508181036000830152614fb78161499e565b9050919050565b60006020820190508181036000830152614fd7816149c1565b9050919050565b60006020820190508181036000830152614ff7816149e4565b9050919050565b6000602082019050818103600083015261501781614a07565b9050919050565b6000602082019050818103600083015261503781614a2a565b9050919050565b6000602082019050818103600083015261505781614a4d565b9050919050565b6000602082019050818103600083015261507781614a70565b9050919050565b6000602082019050818103600083015261509781614a93565b9050919050565b600060208201905081810360008301526150b781614ab6565b9050919050565b600060208201905081810360008301526150d781614ad9565b9050919050565b600060208201905081810360008301526150f781614b1f565b9050919050565b6000602082019050818103600083015261511781614b42565b9050919050565b6000602082019050818103600083015261513781614b88565b9050919050565b6000602082019050818103600083015261515781614bab565b9050919050565b6000602082019050818103600083015261517781614bce565b9050919050565b6000602082019050818103600083015261519781614bf1565b9050919050565b600060208201905081810360008301526151b781614c14565b9050919050565b600060208201905081810360008301526151d781614c5a565b9050919050565b60006020820190506151f36000830184614c7d565b92915050565b600060408201905061520e6000830185614c7d565b61521b60208301846146c1565b9392505050565b60006060820190506152376000830186614c7d565b6152446020830185614c7d565b6152516040830184614c7d565b949350505050565b6000615263615274565b905061526f828261552e565b919050565b6000604051905090565b600067ffffffffffffffff821115615299576152986155ec565b5b6152a28261561b565b9050602081019050919050565b600081519050919050565b600081519050919050565b600082825260208201905092915050565b600081905092915050565b600082825260208201905092915050565b600081905092915050565b600061530882615486565b915061531383615486565b9250827fffffffffffffffffffffffffffffffffffffffffffffffffffffffffffffffff038211156153485761534761555f565b5b828201905092915050565b600061535e82615486565b915061536983615486565b9250826153795761537861558e565b5b828204905092915050565b600061538f82615486565b915061539a83615486565b9250817fffffffffffffffffffffffffffffffffffffffffffffffffffffffffffffffff04831182151516156153d3576153d261555f565b5b828202905092915050565b60006153e982615486565b91506153f483615486565b9250828210156154075761540661555f565b5b828203905092915050565b600061541d82615466565b9050919050565b60008115159050919050565b6000819050919050565b60007fffffffff0000000000000000000000000000000000000000000000000000000082169050919050565b600073ffffffffffffffffffffffffffffffffffffffff82169050919050565b6000819050919050565b82818337600083830152505050565b60005b838110156154bd5780820151818401526020810190506154a2565b838111156154cc576000848401525b50505050565b60006154dd82615486565b915060008214156154f1576154f061555f565b5b600182039050919050565b6000600282049050600182168061551457607f821691505b60208210811415615528576155276155bd565b5b50919050565b6155378261561b565b810181811067ffffffffffffffff82111715615556576155556155ec565b5b80604052505050565b7f4e487b7100000000000000000000000000000000000000000000000000000000600052601160045260246000fd5b7f4e487b7100000000000000000000000000000000000000000000000000000000600052601260045260246000fd5b7f4e487b7100000000000000000000000000000000000000000000000000000000600052602260045260246000fd5b7f4e487b7100000000000000000000000000000000000000000000000000000000600052604160045260246000fd5b6000601f19601f8301169050919050565b7f537472696e67733a20686578206c656e67746820696e73756666696369656e74600082015250565b7f4552433732315061757361626c653a20746f6b656e207472616e73666572207760008201527f68696c6520706175736564000000000000000000000000000000000000000000602082015250565b7f5061757361626c653a206e6f7420706175736564000000000000000000000000600082015250565b7f73616c65206861736e2774207374617274656400000000000000000000000000600082015250565b7f4552433732313a2063616c6c6572206973206e6f7420746f6b656e206f776e6560008201527f72206f7220617070726f76656400000000000000000000000000000000000000602082015250565b7f455243373231456e756d657261626c653a206f776e657220696e646578206f7560008201527f74206f6620626f756e6473000000000000000000000000000000000000000000602082015250565b7f4552433732313a207472616e7366657220746f206e6f6e20455243373231526560008201527f63656976657220696d706c656d656e7465720000000000000000000000000000602082015250565b7f4f776e61626c653a206e6577206f776e657220697320746865207a65726f206160008201527f6464726573730000000000000000000000000000000000000000000000000000602082015250565b7f4552433732313a207472616e736665722066726f6d20696e636f72726563742060008201527f6f776e6572000000000000000000000000000000000000000000000000000000602082015250565b7f4552433732313a20746f6b656e20616c7265616479206d696e74656400000000600082015250565b7f4552433732315072657365744d696e7465725061757365724175746f49643a2060008201527f6d75737420686176652070617573657220726f6c6520746f2070617573650000602082015250565b7f4552433732313a207472616e7366657220746f20746865207a65726f2061646460008201527f7265737300000000000000000000000000000000000000000000000000000000602082015250565b7f4552433732313a20617070726f766520746f2063616c6c657200000000000000600082015250565b7f796f7520646f6e2774206f776e6564207468697320746f6b656e000000000000600082015250565b7f736f6c64206f7574000000000000000000000000000000000000000000000000600082015250565b7f5061757361626c653a2070617573656400000000000000000000000000000000600082015250565b7f7072696365546f4d696e742068617320746f20626520706f7369746976650000600082015250565b7f4552433732313a2061646472657373207a65726f206973206e6f74206120766160008201527f6c6964206f776e65720000000000000000000000000000000000000000000000602082015250565b7f6f6e6c79206f776e65722063616e2073657420707269636520746f206d697400600082015250565b7f4552433732313a206d696e7420746f20746865207a65726f2061646472657373600082015250565b7f746f6b656e20646f6573206e6f74206578697374730000000000000000000000600082015250565b7f4f776e61626c653a2063616c6c6572206973206e6f7420746865206f776e6572600082015250565b7f4552433732313a20696e76616c696420746f6b656e2049440000000000000000600082015250565b7f4552433732313a20617070726f76616c20746f2063757272656e74206f776e6560008201527f7200000000000000000000000000000000000000000000000000000000000000602082015250565b7f5472616e73616374696f6e206661696c65640000000000000000000000000000600082015250565b50565b7f4552433732313a20617070726f76652063616c6c6572206973206e6f7420746f60008201527f6b656e206f776e6572206f7220617070726f76656420666f7220616c6c000000602082015250565b7f455243373231456e756d657261626c653a20676c6f62616c20696e646578206f60008201527f7574206f6620626f756e64730000000000000000000000000000000000000000602082015250565b7f416363657373436f6e74726f6c3a206163636f756e7420000000000000000000600082015250565b7f455243373231456e756d657261626c653a20636f6e736563757469766520747260008201527f616e7366657273206e6f7420737570706f727465640000000000000000000000602082015250565b7f70617920746f206d696e74000000000000000000000000000000000000000000600082015250565b7f4552433732315072657365744d696e7465725061757365724175746f49643a2060008201527f6d7573742068617665206d696e74657220726f6c6520746f206d696e74000000602082015250565b7f5265656e7472616e637920446574656374656400000000000000000000000000600082015250565b7f4552433732315072657365744d696e7465725061757365724175746f49643a2060008201527f6d75737420686176652070617573657220726f6c6520746f20756e7061757365602082015250565b7f206973206d697373696e6720726f6c6520000000000000000000000000000000600082015250565b7f416363657373436f6e74726f6c3a2063616e206f6e6c792072656e6f756e636560008201527f20726f6c657320666f722073656c660000000000000000000000000000000000602082015250565b615e3381615412565b8114615e3e57600080fd5b50565b615e4a81615424565b8114615e5557600080fd5b50565b615e6181615430565b8114615e6c57600080fd5b50565b615e788161543a565b8114615e8357600080fd5b50565b615e8f81615486565b8114615e9a57600080fd5b5056fea26469706673582212209c3c3037a4d0d6818312740632d0e2dfdcc006504aaccf02daf2bf1c2a8a40f064736f6c6343000804003368747470733a2f2f6e66742e616c6563747269636f2e776f726b6572732e6465762f",
  "linkReferences": {},
  "deployedLinkReferences": {}
}