{
  "_format": "hh-sol-artifact-1",
  "contractName": "TokenBat",
  "sourceName": "contracts/TokenBat.sol",
  "abi": [
    {
      "inputs": [],
      "stateMutability": "nonpayable",
      "type": "constructor"
    },
    {
      "anonymous": false,
      "inputs": [
        {
          "indexed": true,
          "internalType": "address",
          "name": "owner",
          "type": "address"
        },
        {
          "indexed": true,
          "internalType": "address",
          "name": "approved",
          "type": "address"
        },
        {
          "indexed": true,
          "internalType": "uint256",
          "name": "tokenId",
          "type": "uint256"
        }
      ],
      "name": "Approval",
      "type": "event"
    },
    {
      "anonymous": false,
      "inputs": [
        {
          "indexed": true,
          "internalType": "address",
          "name": "owner",
          "type": "address"
        },
        {
          "indexed": true,
          "internalType": "address",
          "name": "operator",
          "type": "address"
        },
        {
          "indexed": false,
          "internalType": "bool",
          "name": "approved",
          "type": "bool"
        }
      ],
      "name": "ApprovalForAll",
      "type": "event"
    },
    {
      "anonymous": false,
      "inputs": [
        {
          "indexed": false,
          "internalType": "uint256",
          "name": "tokenId",
          "type": "uint256"
        },
        {
          "indexed": false,
          "internalType": "address",
          "name": "owner",
          "type": "address"
        }
      ],
      "name": "Minted",
      "type": "event"
    },
    {
      "anonymous": false,
      "inputs": [
        {
          "indexed": true,
          "internalType": "address",
          "name": "previousOwner",
          "type": "address"
        },
        {
          "indexed": true,
          "internalType": "address",
          "name": "newOwner",
          "type": "address"
        }
      ],
      "name": "OwnershipTransferred",
      "type": "event"
    },
    {
      "anonymous": false,
      "inputs": [
        {
          "indexed": false,
          "internalType": "address",
          "name": "account",
          "type": "address"
        }
      ],
      "name": "Paused",
      "type": "event"
    },
    {
      "anonymous": false,
      "inputs": [
        {
          "indexed": false,
          "internalType": "uint256",
          "name": "tokenId",
          "type": "uint256"
        }
      ],
      "name": "Redeemed",
      "type": "event"
    },
    {
      "anonymous": false,
      "inputs": [
        {
          "indexed": true,
          "internalType": "bytes32",
          "name": "role",
          "type": "bytes32"
        },
        {
          "indexed": true,
          "internalType": "bytes32",
          "name": "previousAdminRole",
          "type": "bytes32"
        },
        {
          "indexed": true,
          "internalType": "bytes32",
          "name": "newAdminRole",
          "type": "bytes32"
        }
      ],
      "name": "RoleAdminChanged",
      "type": "event"
    },
    {
      "anonymous": false,
      "inputs": [
        {
          "indexed": true,
          "internalType": "bytes32",
          "name": "role",
          "type": "bytes32"
        },
        {
          "indexed": true,
          "internalType": "address",
          "name": "account",
          "type": "address"
        },
        {
          "indexed": true,
          "internalType": "address",
          "name": "sender",
          "type": "address"
        }
      ],
      "name": "RoleGranted",
      "type": "event"
    },
    {
      "anonymous": false,
      "inputs": [
        {
          "indexed": true,
          "internalType": "bytes32",
          "name": "role",
          "type": "bytes32"
        },
        {
          "indexed": true,
          "internalType": "address",
          "name": "account",
          "type": "address"
        },
        {
          "indexed": true,
          "internalType": "address",
          "name": "sender",
          "type": "address"
        }
      ],
      "name": "RoleRevoked",
      "type": "event"
    },
    {
      "anonymous": false,
      "inputs": [],
      "name": "SaleStarted",
      "type": "event"
    },
    {
      "anonymous": false,
      "inputs": [
        {
          "indexed": true,
          "internalType": "address",
          "name": "from",
          "type": "address"
        },
        {
          "indexed": true,
          "internalType": "address",
          "name": "to",
          "type": "address"
        },
        {
          "indexed": true,
          "internalType": "uint256",
          "name": "tokenId",
          "type": "uint256"
        }
      ],
      "name": "Transfer",
      "type": "event"
    },
    {
      "anonymous": false,
      "inputs": [
        {
          "indexed": false,
          "internalType": "address",
          "name": "account",
          "type": "address"
        }
      ],
      "name": "Unpaused",
      "type": "event"
    },
    {
      "anonymous": false,
      "inputs": [
        {
          "indexed": false,
          "internalType": "uint256",
          "name": "balance",
          "type": "uint256"
        },
        {
          "indexed": false,
          "internalType": "uint256",
          "name": "amount",
          "type": "uint256"
        },
        {
          "indexed": false,
          "internalType": "uint256",
          "name": "owner_current_balance",
          "type": "uint256"
        }
      ],
      "name": "Withdrawed",
      "type": "event"
    },
    {
      "inputs": [],
      "name": "DEFAULT_ADMIN_ROLE",
      "outputs": [
        {
          "internalType": "bytes32",
          "name": "",
          "type": "bytes32"
        }
      ],
      "stateMutability": "view",
      "type": "function"
    },
    {
      "inputs": [],
      "name": "MAX_TOKENS",
      "outputs": [
        {
          "internalType": "uint256",
          "name": "",
          "type": "uint256"
        }
      ],
      "stateMutability": "view",
      "type": "function"
    },
    {
      "inputs": [],
      "name": "MINTER_ROLE",
      "outputs": [
        {
          "internalType": "bytes32",
          "name": "",
          "type": "bytes32"
        }
      ],
      "stateMutability": "view",
      "type": "function"
    },
    {
      "inputs": [],
      "name": "PAUSER_ROLE",
      "outputs": [
        {
          "internalType": "bytes32",
          "name": "",
          "type": "bytes32"
        }
      ],
      "stateMutability": "view",
      "type": "function"
    },
    {
      "inputs": [
        {
          "internalType": "address",
          "name": "to",
          "type": "address"
        },
        {
          "internalType": "uint256",
          "name": "tokenId",
          "type": "uint256"
        }
      ],
      "name": "approve",
      "outputs": [],
      "stateMutability": "nonpayable",
      "type": "function"
    },
    {
      "inputs": [
        {
          "internalType": "address",
          "name": "owner",
          "type": "address"
        }
      ],
      "name": "balanceOf",
      "outputs": [
        {
          "internalType": "uint256",
          "name": "",
          "type": "uint256"
        }
      ],
      "stateMutability": "view",
      "type": "function"
    },
    {
      "inputs": [
        {
          "internalType": "uint256",
          "name": "tokenId",
          "type": "uint256"
        }
      ],
      "name": "burn",
      "outputs": [],
      "stateMutability": "nonpayable",
      "type": "function"
    },
    {
      "inputs": [
        {
          "internalType": "uint256",
          "name": "tokenId",
          "type": "uint256"
        }
      ],
      "name": "getApproved",
      "outputs": [
        {
          "internalType": "address",
          "name": "",
          "type": "address"
        }
      ],
      "stateMutability": "view",
      "type": "function"
    },
    {
      "inputs": [],
      "name": "getOwner",
      "outputs": [
        {
          "internalType": "address",
          "name": "",
          "type": "address"
        }
      ],
      "stateMutability": "view",
      "type": "function"
    },
    {
      "inputs": [
        {
          "internalType": "bytes32",
          "name": "role",
          "type": "bytes32"
        }
      ],
      "name": "getRoleAdmin",
      "outputs": [
        {
          "internalType": "bytes32",
          "name": "",
          "type": "bytes32"
        }
      ],
      "stateMutability": "view",
      "type": "function"
    },
    {
      "inputs": [
        {
          "internalType": "bytes32",
          "name": "role",
          "type": "bytes32"
        },
        {
          "internalType": "uint256",
          "name": "index",
          "type": "uint256"
        }
      ],
      "name": "getRoleMember",
      "outputs": [
        {
          "internalType": "address",
          "name": "",
          "type": "address"
        }
      ],
      "stateMutability": "view",
      "type": "function"
    },
    {
      "inputs": [
        {
          "internalType": "bytes32",
          "name": "role",
          "type": "bytes32"
        }
      ],
      "name": "getRoleMemberCount",
      "outputs": [
        {
          "internalType": "uint256",
          "name": "",
          "type": "uint256"
        }
      ],
      "stateMutability": "view",
      "type": "function"
    },
    {
      "inputs": [
        {
          "internalType": "bytes32",
          "name": "role",
          "type": "bytes32"
        },
        {
          "internalType": "address",
          "name": "account",
          "type": "address"
        }
      ],
      "name": "grantRole",
      "outputs": [],
      "stateMutability": "nonpayable",
      "type": "function"
    },
    {
      "inputs": [
        {
          "internalType": "bytes32",
          "name": "role",
          "type": "bytes32"
        },
        {
          "internalType": "address",
          "name": "account",
          "type": "address"
        }
      ],
      "name": "hasRole",
      "outputs": [
        {
          "internalType": "bool",
          "name": "",
          "type": "bool"
        }
      ],
      "stateMutability": "view",
      "type": "function"
    },
    {
      "inputs": [],
      "name": "hasSaleStarted",
      "outputs": [
        {
          "internalType": "bool",
          "name": "",
          "type": "bool"
        }
      ],
      "stateMutability": "view",
      "type": "function"
    },
    {
      "inputs": [],
      "name": "hasSoldOut",
      "outputs": [
        {
          "internalType": "bool",
          "name": "",
          "type": "bool"
        }
      ],
      "stateMutability": "view",
      "type": "function"
    },
    {
      "inputs": [
        {
          "internalType": "address",
          "name": "_owner",
          "type": "address"
        },
        {
          "internalType": "address",
          "name": "_operator",
          "type": "address"
        }
      ],
      "name": "isApprovedForAll",
      "outputs": [
        {
          "internalType": "bool",
          "name": "isOperator",
          "type": "bool"
        }
      ],
      "stateMutability": "view",
      "type": "function"
    },
    {
      "inputs": [
        {
          "internalType": "address",
          "name": "to",
          "type": "address"
        }
      ],
      "name": "mint",
      "outputs": [],
      "stateMutability": "nonpayable",
      "type": "function"
    },
    {
      "inputs": [
        {
          "internalType": "address",
          "name": "receiver",
          "type": "address"
        }
      ],
      "name": "mintToken",
      "outputs": [],
      "stateMutability": "payable",
      "type": "function"
    },
    {
      "inputs": [],
      "name": "name",
      "outputs": [
        {
          "internalType": "string",
          "name": "",
          "type": "string"
        }
      ],
      "stateMutability": "view",
      "type": "function"
    },
    {
      "inputs": [],
      "name": "owner",
      "outputs": [
        {
          "internalType": "address",
          "name": "",
          "type": "address"
        }
      ],
      "stateMutability": "view",
      "type": "function"
    },
    {
      "inputs": [
        {
          "internalType": "uint256",
          "name": "tokenId",
          "type": "uint256"
        }
      ],
      "name": "ownerOf",
      "outputs": [
        {
          "internalType": "address",
          "name": "",
          "type": "address"
        }
      ],
      "stateMutability": "view",
      "type": "function"
    },
    {
      "inputs": [],
      "name": "pause",
      "outputs": [],
      "stateMutability": "nonpayable",
      "type": "function"
    },
    {
      "inputs": [],
      "name": "pauseSale",
      "outputs": [],
      "stateMutability": "nonpayable",
      "type": "function"
    },
    {
      "inputs": [],
      "name": "paused",
      "outputs": [
        {
          "internalType": "bool",
          "name": "",
          "type": "bool"
        }
      ],
      "stateMutability": "view",
      "type": "function"
    },
    {
      "inputs": [],
      "name": "priceToMint",
      "outputs": [
        {
          "internalType": "uint256",
          "name": "",
          "type": "uint256"
        }
      ],
      "stateMutability": "view",
      "type": "function"
    },
    {
      "inputs": [
        {
          "internalType": "uint256",
          "name": "tokenId",
          "type": "uint256"
        }
      ],
      "name": "redeemToken",
      "outputs": [],
      "stateMutability": "nonpayable",
      "type": "function"
    },
    {
      "inputs": [],
      "name": "renounceOwnership",
      "outputs": [],
      "stateMutability": "nonpayable",
      "type": "function"
    },
    {
      "inputs": [
        {
          "internalType": "bytes32",
          "name": "role",
          "type": "bytes32"
        },
        {
          "internalType": "address",
          "name": "account",
          "type": "address"
        }
      ],
      "name": "renounceRole",
      "outputs": [],
      "stateMutability": "nonpayable",
      "type": "function"
    },
    {
      "inputs": [
        {
          "internalType": "bytes32",
          "name": "role",
          "type": "bytes32"
        },
        {
          "internalType": "address",
          "name": "account",
          "type": "address"
        }
      ],
      "name": "revokeRole",
      "outputs": [],
      "stateMutability": "nonpayable",
      "type": "function"
    },
    {
      "inputs": [
        {
          "internalType": "address",
          "name": "from",
          "type": "address"
        },
        {
          "internalType": "address",
          "name": "to",
          "type": "address"
        },
        {
          "internalType": "uint256",
          "name": "tokenId",
          "type": "uint256"
        }
      ],
      "name": "safeTransferFrom",
      "outputs": [],
      "stateMutability": "nonpayable",
      "type": "function"
    },
    {
      "inputs": [
        {
          "internalType": "address",
          "name": "from",
          "type": "address"
        },
        {
          "internalType": "address",
          "name": "to",
          "type": "address"
        },
        {
          "internalType": "uint256",
          "name": "tokenId",
          "type": "uint256"
        },
        {
          "internalType": "bytes",
          "name": "data",
          "type": "bytes"
        }
      ],
      "name": "safeTransferFrom",
      "outputs": [],
      "stateMutability": "nonpayable",
      "type": "function"
    },
    {
      "inputs": [
        {
          "internalType": "address",
          "name": "operator",
          "type": "address"
        },
        {
          "internalType": "bool",
          "name": "approved",
          "type": "bool"
        }
      ],
      "name": "setApprovalForAll",
      "outputs": [],
      "stateMutability": "nonpayable",
      "type": "function"
    },
    {
      "inputs": [
        {
          "internalType": "uint256",
          "name": "_priceToMint",
          "type": "uint256"
        }
      ],
      "name": "setPriceToMint",
      "outputs": [],
      "stateMutability": "nonpayable",
      "type": "function"
    },
    {
      "inputs": [],
      "name": "startSale",
      "outputs": [],
      "stateMutability": "nonpayable",
      "type": "function"
    },
    {
      "inputs": [
        {
          "internalType": "bytes4",
          "name": "interfaceId",
          "type": "bytes4"
        }
      ],
      "name": "supportsInterface",
      "outputs": [
        {
          "internalType": "bool",
          "name": "",
          "type": "bool"
        }
      ],
      "stateMutability": "view",
      "type": "function"
    },
    {
      "inputs": [],
      "name": "symbol",
      "outputs": [
        {
          "internalType": "string",
          "name": "",
          "type": "string"
        }
      ],
      "stateMutability": "view",
      "type": "function"
    },
    {
      "inputs": [
        {
          "internalType": "uint256",
          "name": "index",
          "type": "uint256"
        }
      ],
      "name": "tokenByIndex",
      "outputs": [
        {
          "internalType": "uint256",
          "name": "",
          "type": "uint256"
        }
      ],
      "stateMutability": "view",
      "type": "function"
    },
    {
      "inputs": [
        {
          "internalType": "uint256",
          "name": "tokenId",
          "type": "uint256"
        }
      ],
      "name": "tokenExists",
      "outputs": [
        {
          "internalType": "bool",
          "name": "",
          "type": "bool"
        }
      ],
      "stateMutability": "view",
      "type": "function"
    },
    {
      "inputs": [
        {
          "internalType": "address",
          "name": "owner",
          "type": "address"
        },
        {
          "internalType": "uint256",
          "name": "index",
          "type": "uint256"
        }
      ],
      "name": "tokenOfOwnerByIndex",
      "outputs": [
        {
          "internalType": "uint256",
          "name": "",
          "type": "uint256"
        }
      ],
      "stateMutability": "view",
      "type": "function"
    },
    {
      "inputs": [
        {
          "internalType": "uint256",
          "name": "tokenId",
          "type": "uint256"
        }
      ],
      "name": "tokenURI",
      "outputs": [
        {
          "internalType": "string",
          "name": "",
          "type": "string"
        }
      ],
      "stateMutability": "view",
      "type": "function"
    },
    {
      "inputs": [],
      "name": "totalSupply",
      "outputs": [
        {
          "internalType": "uint256",
          "name": "",
          "type": "uint256"
        }
      ],
      "stateMutability": "view",
      "type": "function"
    },
    {
      "inputs": [
        {
          "internalType": "address",
          "name": "from",
          "type": "address"
        },
        {
          "internalType": "address",
          "name": "to",
          "type": "address"
        },
        {
          "internalType": "uint256",
          "name": "tokenId",
          "type": "uint256"
        }
      ],
      "name": "transferFrom",
      "outputs": [],
      "stateMutability": "nonpayable",
      "type": "function"
    },
    {
      "inputs": [
        {
          "internalType": "address",
          "name": "newOwner",
          "type": "address"
        }
      ],
      "name": "transferOwnership",
      "outputs": [],
      "stateMutability": "nonpayable",
      "type": "function"
    },
    {
      "inputs": [],
      "name": "unpause",
      "outputs": [],
      "stateMutability": "nonpayable",
      "type": "function"
    },
    {
      "inputs": [],
      "name": "withdrawBalance",
      "outputs": [
        {
          "internalType": "bool",
          "name": "",
          "type": "bool"
        }
      ],
      "stateMutability": "nonpayable",
      "type": "function"
    }
  ],
  "bytecode": "0x6080604052600f805460ff60a01b191690556618de76816d800060115560006012556013805460ff191690553480156200003857600080fd5b5060405180604001604052806008815260200167151bdad95b90985d60c21b81525060405180604001604052806008815260200167151bdad95b90985d60c21b81525060405180606001604052806022815260200162003aca60229139825183908390620000ae906002906020850190620003b2565b508051620000c4906003906020840190620003b2565b5050600c805460ff19169055508051620000e690600e906020840190620003b2565b50620000fd6000620000f76200017e565b6200019a565b6200012c7f9f2df0fed2c77648de5860a4cc508cd0818c85b8b8a1ab4ceeef8d981c8956a6620000f76200017e565b6200015b7f65d7a28e3265b37a6474929f336521b332c1681b933f6cb9f3376673440d862a620000f76200017e565b50505062000178620001726200017e60201b60201c565b620001aa565b62000495565b600062000195620001fc60201b6200191c1760201c565b905090565b620001a682826200025b565b5050565b600f80546001600160a01b038381166001600160a01b0319831681179093556040519116919082907f8be0079c531659141344cd1fd0a4f28419497f9722a3daafe3b4186f6b6457e090600090a35050565b6000333014156200025557600080368080601f0160208091040260200160405190810160405280939291908181526020018383808284376000920191909152505050503601516001600160a01b03169150620002589050565b50335b90565b6200027282826200029e60201b620019781760201c565b60008281526001602090815260409091206200029991839062001a1762000340821b17901c565b505050565b6000828152602081815260408083206001600160a01b038516845290915290205460ff16620001a6576000828152602081815260408083206001600160a01b03851684529091529020805460ff19166001179055620002fc6200017e565b6001600160a01b0316816001600160a01b0316837f2f8788117e7eff1d82e926ec794901d17c78024a50270940304540a733656f0d60405160405180910390a45050565b600062000357836001600160a01b03841662000360565b90505b92915050565b6000818152600183016020526040812054620003a9575081546001818101845560008481526020808220909301849055845484825282860190935260409020919091556200035a565b5060006200035a565b828054620003c09062000458565b90600052602060002090601f016020900481019282620003e457600085556200042f565b82601f10620003ff57805160ff19168380011785556200042f565b828001600101855582156200042f579182015b828111156200042f57825182559160200191906001019062000412565b506200043d92915062000441565b5090565b5b808211156200043d576000815560010162000442565b600181811c908216806200046d57607f821691505b602082108114156200048f57634e487b7160e01b600052602260045260246000fd5b50919050565b61362580620004a56000396000f3fe6080604052600436106102fc5760003560e01c80635fd8c7101161018f578063a217fddf116100e1578063d53913931161008a578063e985e9c511610064578063e985e9c514610858578063f2fde38b14610878578063f47c84c51461089857600080fd5b8063d5391393146107d0578063d547741f14610804578063e63ab1e91461082457600080fd5b8063b88d4fde116100bb578063b88d4fde14610770578063c87b56dd14610790578063ca15c873146107b057600080fd5b8063a217fddf14610726578063a22cb4651461073b578063b66a0e5d1461075b57600080fd5b80638456cb59116101435780639010d07c1161011d5780639010d07c146106ad57806391d14854146106cd57806395d89b411461071157600080fd5b80638456cb5914610665578063893d20e81461067a5780638da5cb5b1461068f57600080fd5b80636a627842116101745780636a6278421461061057806370a0823114610630578063715018a61461065057600080fd5b80635fd8c710146105db5780636352211e146105f057600080fd5b8063248a9ca31161025357806342842e0e116101fc5780634f6ccce7116101d65780634f6ccce71461058e57806355367ba9146105ae5780635c975abb146105c357600080fd5b806342842e0e1461053857806342966c68146105585780634dc1dbec1461057857600080fd5b80632f745c591161022d5780632f745c59146104e357806336568abe146105035780633f4ba83a1461052357600080fd5b8063248a9ca31461047357806329e0a2ac146104a35780632f2ff15d146104c357600080fd5b806306fdde03116102b557806318160ddd1161028f57806318160ddd1461041a5780631c8b232d1461043957806323b872dd1461045357600080fd5b806306fdde03146103a0578063081812fc146103c2578063095ea7b3146103fa57600080fd5b8063013054c2116102e6578063013054c21461034b57806301ffc9a71461036b57806303824f761461038b57600080fd5b8062923f9e1461030157806301173a7414610336575b600080fd5b34801561030d57600080fd5b5061032161031c3660046130e8565b6108ae565b60405190151581526020015b60405180910390f35b61034961034436600461311d565b6108cf565b005b34801561035757600080fd5b506103496103663660046130e8565b610a7c565b34801561037757600080fd5b5061032161038636600461314e565b610b7f565b34801561039757600080fd5b50610321610b8a565b3480156103ac57600080fd5b506103b5610bac565b60405161032d91906131c3565b3480156103ce57600080fd5b506103e26103dd3660046130e8565b610c3e565b6040516001600160a01b03909116815260200161032d565b34801561040657600080fd5b506103496104153660046131d6565b610c65565b34801561042657600080fd5b50600a545b60405190815260200161032d565b34801561044557600080fd5b506013546103219060ff1681565b34801561045f57600080fd5b5061034961046e366004613200565b610da9565b34801561047f57600080fd5b5061042b61048e3660046130e8565b60009081526020819052604090206001015490565b3480156104af57600080fd5b506103496104be3660046130e8565b610e27565b3480156104cf57600080fd5b506103496104de36600461323c565b610ede565b3480156104ef57600080fd5b5061042b6104fe3660046131d6565b610f03565b34801561050f57600080fd5b5061034961051e36600461323c565b610fab565b34801561052f57600080fd5b50610349611047565b34801561054457600080fd5b50610349610553366004613200565b6110f1565b34801561056457600080fd5b506103496105733660046130e8565b61110c565b34801561058457600080fd5b5061042b60115481565b34801561059a57600080fd5b5061042b6105a93660046130e8565b611185565b3480156105ba57600080fd5b50610349611229565b3480156105cf57600080fd5b50600c5460ff16610321565b3480156105e757600080fd5b5061032161123d565b3480156105fc57600080fd5b506103e261060b3660046130e8565b6113fd565b34801561061c57600080fd5b5061034961062b36600461311d565b611462565b34801561063c57600080fd5b5061042b61064b36600461311d565b611520565b34801561065c57600080fd5b506103496115ba565b34801561067157600080fd5b506103496115cc565b34801561068657600080fd5b506103e2611672565b34801561069b57600080fd5b50600f546001600160a01b03166103e2565b3480156106b957600080fd5b506103e26106c8366004613268565b61168b565b3480156106d957600080fd5b506103216106e836600461323c565b6000918252602082815260408084206001600160a01b0393909316845291905290205460ff1690565b34801561071d57600080fd5b506103b56116aa565b34801561073257600080fd5b5061042b600081565b34801561074757600080fd5b5061034961075636600461328a565b6116b9565b34801561076757600080fd5b506103496116cb565b34801561077c57600080fd5b5061034961078b3660046132dc565b61170b565b34801561079c57600080fd5b506103b56107ab3660046130e8565b611790565b3480156107bc57600080fd5b5061042b6107cb3660046130e8565b6117f6565b3480156107dc57600080fd5b5061042b7f9f2df0fed2c77648de5860a4cc508cd0818c85b8b8a1ab4ceeef8d981c8956a681565b34801561081057600080fd5b5061034961081f36600461323c565b61180d565b34801561083057600080fd5b5061042b7f65d7a28e3265b37a6474929f336521b332c1681b933f6cb9f3376673440d862a81565b34801561086457600080fd5b506103216108733660046133b8565b611832565b34801561088457600080fd5b5061034961089336600461311d565b61188f565b3480156108a457600080fd5b5061042b6107af81565b6000818152600460205260408120546001600160a01b031615155b92915050565b60135460ff16806108ea5750600f546001600160a01b031633145b61093b5760405162461bcd60e51b815260206004820152601360248201527f73616c65206861736e277420737461727465640000000000000000000000000060448201526064015b60405180910390fd5b6107af610952600161094c600a5490565b90611a2c565b1115806109695750600f546001600160a01b031633145b6109b55760405162461bcd60e51b815260206004820152600860248201527f736f6c64206f75740000000000000000000000000000000000000000000000006044820152606401610932565b601154341480156109c65750600034115b610a125760405162461bcd60e51b815260206004820152600b60248201527f70617920746f206d696e740000000000000000000000000000000000000000006044820152606401610932565b6000610a1d60105490565b9050610a298282611a38565b610a37601080546001019055565b604080518281526001600160a01b03841660208201527fb9203d657e9c0ec8274c818292ab0f58b04e1970050716891770eb1bab5d655e910160405180910390a15050565b6000818152600460205260409020546001600160a01b0316610ae05760405162461bcd60e51b815260206004820152601560248201527f746f6b656e20646f6573206e6f742065786973747300000000000000000000006044820152606401610932565b33610aea826113fd565b6001600160a01b031614610b405760405162461bcd60e51b815260206004820152601a60248201527f796f7520646f6e2774206f776e6564207468697320746f6b656e0000000000006044820152606401610932565b610b4981611a52565b6040518181527f82498456531a1065f689ba348ce20bda781238c424cf36748dd40bc282831e039060200160405180910390a150565b60006108c982611af5565b60006107af610b98600a5490565b10610ba35750600190565b50600090565b90565b606060028054610bbb906133e2565b80601f0160208091040260200160405190810160405280929190818152602001828054610be7906133e2565b8015610c345780601f10610c0957610100808354040283529160200191610c34565b820191906000526020600020905b815481529060010190602001808311610c1757829003601f168201915b5050505050905090565b6000610c4982611b33565b506000908152600660205260409020546001600160a01b031690565b6000610c70826113fd565b9050806001600160a01b0316836001600160a01b03161415610cfa5760405162461bcd60e51b815260206004820152602160248201527f4552433732313a20617070726f76616c20746f2063757272656e74206f776e6560448201527f72000000000000000000000000000000000000000000000000000000000000006064820152608401610932565b806001600160a01b0316610d0c611b97565b6001600160a01b03161480610d285750610d2881610873611b97565b610d9a5760405162461bcd60e51b815260206004820152603d60248201527f4552433732313a20617070726f76652063616c6c6572206973206e6f7420746f60448201527f6b656e206f776e6572206f7220617070726f76656420666f7220616c6c0000006064820152608401610932565b610da48383611ba1565b505050565b610dba610db4611b97565b82611c0f565b610e1c5760405162461bcd60e51b815260206004820152602d60248201527f4552433732313a2063616c6c6572206973206e6f7420746f6b656e206f776e6560448201526c1c881bdc88185c1c1c9bdd9959609a1b6064820152608401610932565b610da4838383611c6e565b610e2f611e74565b600f546001600160a01b03163314610e895760405162461bcd60e51b815260206004820152601f60248201527f6f6e6c79206f776e65722063616e2073657420707269636520746f206d6974006044820152606401610932565b60008111610ed95760405162461bcd60e51b815260206004820152601e60248201527f7072696365546f4d696e742068617320746f20626520706f73697469766500006044820152606401610932565b601155565b600082815260208190526040902060010154610ef981611eed565b610da48383611efe565b6000610f0e83611520565b8210610f825760405162461bcd60e51b815260206004820152602b60248201527f455243373231456e756d657261626c653a206f776e657220696e646578206f7560448201527f74206f6620626f756e64730000000000000000000000000000000000000000006064820152608401610932565b506001600160a01b03919091166000908152600860209081526040808320938352929052205490565b610fb3611b97565b6001600160a01b0316816001600160a01b0316146110395760405162461bcd60e51b815260206004820152602f60248201527f416363657373436f6e74726f6c3a2063616e206f6e6c792072656e6f756e636560448201527f20726f6c657320666f722073656c6600000000000000000000000000000000006064820152608401610932565b6110438282611f20565b5050565b6110737f65d7a28e3265b37a6474929f336521b332c1681b933f6cb9f3376673440d862a6106e8611b97565b6110e7576040805162461bcd60e51b81526020600482015260248101919091527f4552433732315072657365744d696e7465725061757365724175746f49643a2060448201527f6d75737420686176652070617573657220726f6c6520746f20756e70617573656064820152608401610932565b6110ef611f42565b565b610da48383836040518060200160405280600081525061170b565b611117610db4611b97565b6111795760405162461bcd60e51b815260206004820152602d60248201527f4552433732313a2063616c6c6572206973206e6f7420746f6b656e206f776e6560448201526c1c881bdc88185c1c1c9bdd9959609a1b6064820152608401610932565b61118281611a52565b50565b6000611190600a5490565b82106112045760405162461bcd60e51b815260206004820152602c60248201527f455243373231456e756d657261626c653a20676c6f62616c20696e646578206f60448201527f7574206f6620626f756e647300000000000000000000000000000000000000006064820152608401610932565b600a82815481106112175761121761341d565b90600052602060002001549050919050565b611231611e74565b6013805460ff19169055565b6000611247611e74565b600f54600160a01b900460ff16156112a15760405162461bcd60e51b815260206004820152601360248201527f5265656e7472616e6379204465746563746564000000000000000000000000006044820152606401610932565b600f805460ff60a01b1916600160a01b179055600060646112c347600a613449565b6112cd9190613468565b6112d7904761348a565b905060006112ed600f546001600160a01b031690565b6001600160a01b03168260405160006040518083038185875af1925050503d8060008114611337576040519150601f19603f3d011682016040523d82523d6000602084013e61133c565b606091505b505090508061138d5760405162461bcd60e51b815260206004820152601260248201527f5472616e73616374696f6e206661696c656400000000000000000000000000006044820152606401610932565b600f805460ff60a01b191690557fe492f03a13f16d9ab77da04e06cc43e6eb0a495bab6bc3d0018b7d6714e6359f47836113cf600f546001600160a01b031690565b6040805193845260208401929092526001600160a01b0316319082015260600160405180910390a191505090565b6000818152600460205260408120546001600160a01b0316806108c95760405162461bcd60e51b815260206004820152601860248201527f4552433732313a20696e76616c696420746f6b656e20494400000000000000006044820152606401610932565b61148e7f9f2df0fed2c77648de5860a4cc508cd0818c85b8b8a1ab4ceeef8d981c8956a66106e8611b97565b6115005760405162461bcd60e51b815260206004820152603d60248201527f4552433732315072657365744d696e7465725061757365724175746f49643a2060448201527f6d7573742068617665206d696e74657220726f6c6520746f206d696e740000006064820152608401610932565b6115128161150d600d5490565b611f9a565b611182600d80546001019055565b60006001600160a01b03821661159e5760405162461bcd60e51b815260206004820152602960248201527f4552433732313a2061646472657373207a65726f206973206e6f74206120766160448201527f6c6964206f776e657200000000000000000000000000000000000000000000006064820152608401610932565b506001600160a01b031660009081526005602052604090205490565b6115c2611e74565b6110ef6000612133565b6115f87f65d7a28e3265b37a6474929f336521b332c1681b933f6cb9f3376673440d862a6106e8611b97565b61166a5760405162461bcd60e51b815260206004820152603e60248201527f4552433732315072657365744d696e7465725061757365724175746f49643a2060448201527f6d75737420686176652070617573657220726f6c6520746f20706175736500006064820152608401610932565b6110ef612185565b6000611686600f546001600160a01b031690565b905090565b60008281526001602052604081206116a390836121c3565b9392505050565b606060038054610bbb906133e2565b6110436116c4611b97565b83836121cf565b6116d3611e74565b6013805460ff191660011790556040517f912ee23dde46ec889d6748212cce445d667f7041597691dc89e8549ad8bc0acb90600090a1565b61171c611716611b97565b83611c0f565b61177e5760405162461bcd60e51b815260206004820152602d60248201527f4552433732313a2063616c6c6572206973206e6f7420746f6b656e206f776e6560448201526c1c881bdc88185c1c1c9bdd9959609a1b6064820152608401610932565b61178a8484848461229e565b50505050565b606061179b82611b33565b60006117a561231c565b905060008151116117c557604051806020016040528060008152506116a3565b806117cf8461232b565b6040516020016117e09291906134a1565b6040516020818303038152906040529392505050565b60008181526001602052604081206108c9906123d5565b60008281526020819052604090206001015461182881611eed565b610da48383611f20565b60006001600160a01b0382167358807bad0b376efc12f5ad86aac70e78ed67deae1415611861575060016108c9565b6001600160a01b0380841660009081526007602090815260408083209386168352929052205460ff166116a3565b611897611e74565b6001600160a01b0381166119135760405162461bcd60e51b815260206004820152602660248201527f4f776e61626c653a206e6577206f776e657220697320746865207a65726f206160448201527f64647265737300000000000000000000000000000000000000000000000000006064820152608401610932565b61118281612133565b60003330141561197357600080368080601f0160208091040260200160405190810160405280939291908181526020018383808284376000920191909152505050503601516001600160a01b03169150610ba99050565b503390565b6000828152602081815260408083206001600160a01b038516845290915290205460ff16611043576000828152602081815260408083206001600160a01b03851684529091529020805460ff191660011790556119d3611b97565b6001600160a01b0316816001600160a01b0316837f2f8788117e7eff1d82e926ec794901d17c78024a50270940304540a733656f0d60405160405180910390a45050565b60006116a3836001600160a01b0384166123df565b60006116a382846134d0565b61104382826040518060200160405280600081525061242e565b6000611a5d826113fd565b9050611a6d8160008460016124ac565b611a76826113fd565b600083815260066020908152604080832080546001600160a01b03199081169091556001600160a01b0385168085526005845282852080546000190190558785526004909352818420805490911690555192935084927fddf252ad1be2c89b69c2b068fc378daa952ba7f163c4a11628f55a4df523b3ef908390a45050565b60006001600160e01b031982167f780e9d630000000000000000000000000000000000000000000000000000000014806108c957506108c9826124b8565b6000818152600460205260409020546001600160a01b03166111825760405162461bcd60e51b815260206004820152601860248201527f4552433732313a20696e76616c696420746f6b656e20494400000000000000006044820152606401610932565b600061168661191c565b600081815260066020526040902080546001600160a01b0319166001600160a01b0384169081179091558190611bd6826113fd565b6001600160a01b03167f8c5be1e5ebec7d5bd14f71427d1e84f3dd0314c0f7b2291e5b200ac8c7c3b92560405160405180910390a45050565b600080611c1b836113fd565b9050806001600160a01b0316846001600160a01b03161480611c425750611c428185611832565b80611c665750836001600160a01b0316611c5b84610c3e565b6001600160a01b0316145b949350505050565b826001600160a01b0316611c81826113fd565b6001600160a01b031614611ce55760405162461bcd60e51b815260206004820152602560248201527f4552433732313a207472616e736665722066726f6d20696e636f72726563742060448201526437bbb732b960d91b6064820152608401610932565b6001600160a01b038216611d605760405162461bcd60e51b8152602060048201526024808201527f4552433732313a207472616e7366657220746f20746865207a65726f2061646460448201527f72657373000000000000000000000000000000000000000000000000000000006064820152608401610932565b611d6d83838360016124ac565b826001600160a01b0316611d80826113fd565b6001600160a01b031614611de45760405162461bcd60e51b815260206004820152602560248201527f4552433732313a207472616e736665722066726f6d20696e636f72726563742060448201526437bbb732b960d91b6064820152608401610932565b600081815260066020908152604080832080546001600160a01b03199081169091556001600160a01b0387811680865260058552838620805460001901905590871680865283862080546001019055868652600490945282852080549092168417909155905184937fddf252ad1be2c89b69c2b068fc378daa952ba7f163c4a11628f55a4df523b3ef91a4505050565b611e7c611b97565b6001600160a01b0316611e97600f546001600160a01b031690565b6001600160a01b0316146110ef5760405162461bcd60e51b815260206004820181905260248201527f4f776e61626c653a2063616c6c6572206973206e6f7420746865206f776e65726044820152606401610932565b61118281611ef9611b97565b61252a565b611f088282611978565b6000828152600160205260409020610da49082611a17565b611f2a828261259d565b6000828152600160205260409020610da4908261263a565b611f4a61264f565b600c805460ff191690557f5db9ee0a495bf2e6ff9c91a7834c1ba4fdd244a5e8aa4e537bd38aeae4b073aa611f7d611b97565b6040516001600160a01b03909116815260200160405180910390a1565b6001600160a01b038216611ff05760405162461bcd60e51b815260206004820181905260248201527f4552433732313a206d696e7420746f20746865207a65726f20616464726573736044820152606401610932565b6000818152600460205260409020546001600160a01b0316156120555760405162461bcd60e51b815260206004820152601c60248201527f4552433732313a20746f6b656e20616c7265616479206d696e746564000000006044820152606401610932565b6120636000838360016124ac565b6000818152600460205260409020546001600160a01b0316156120c85760405162461bcd60e51b815260206004820152601c60248201527f4552433732313a20746f6b656e20616c7265616479206d696e746564000000006044820152606401610932565b6001600160a01b038216600081815260056020908152604080832080546001019055848352600490915280822080546001600160a01b0319168417905551839291907fddf252ad1be2c89b69c2b068fc378daa952ba7f163c4a11628f55a4df523b3ef908290a45050565b600f80546001600160a01b038381166001600160a01b0319831681179093556040519116919082907f8be0079c531659141344cd1fd0a4f28419497f9722a3daafe3b4186f6b6457e090600090a35050565b61218d6126a1565b600c805460ff191660011790557f62e78cea01bee320cd4e420270b5ea74000d11b0c9f74754ebdbfc544b05a258611f7d611b97565b60006116a383836126f4565b816001600160a01b0316836001600160a01b031614156122315760405162461bcd60e51b815260206004820152601960248201527f4552433732313a20617070726f766520746f2063616c6c6572000000000000006044820152606401610932565b6001600160a01b03838116600081815260076020908152604080832094871680845294825291829020805460ff191686151590811790915591519182527f17307eab39ab6107e8899845ad3d59bd9653f200f220920489ca2b5937696c31910160405180910390a3505050565b6122a9848484611c6e565b6122b58484848461271e565b61178a5760405162461bcd60e51b815260206004820152603260248201527f4552433732313a207472616e7366657220746f206e6f6e20455243373231526560448201527131b2b4bb32b91034b6b83632b6b2b73a32b960711b6064820152608401610932565b6060600e8054610bbb906133e2565b6060600061233883612896565b600101905060008167ffffffffffffffff811115612358576123586132c6565b6040519080825280601f01601f191660200182016040528015612382576020820181803683370190505b5090508181016020015b600019017f3031323334353637383961626364656600000000000000000000000000000000600a86061a8153600a85049450846123c8576123cd565b61238c565b509392505050565b60006108c9825490565b6000818152600183016020526040812054612426575081546001818101845560008481526020808220909301849055845484825282860190935260409020919091556108c9565b5060006108c9565b6124388383611f9a565b612445600084848461271e565b610da45760405162461bcd60e51b815260206004820152603260248201527f4552433732313a207472616e7366657220746f206e6f6e20455243373231526560448201527131b2b4bb32b91034b6b83632b6b2b73a32b960711b6064820152608401610932565b61178a84848484612978565b60006001600160e01b031982167f80ac58cd00000000000000000000000000000000000000000000000000000000148061251b57506001600160e01b031982167f5b5e139f00000000000000000000000000000000000000000000000000000000145b806108c957506108c9826129fd565b6000828152602081815260408083206001600160a01b038516845290915290205460ff166110435761255b81612a3b565b612566836020612a4d565b6040516020016125779291906134e8565b60408051601f198184030181529082905262461bcd60e51b8252610932916004016131c3565b6000828152602081815260408083206001600160a01b038516845290915290205460ff1615611043576000828152602081815260408083206001600160a01b03851684529091529020805460ff191690556125f6611b97565b6001600160a01b0316816001600160a01b0316837ff6391f5c32d9c69d2a47ea670b442974b53935d1edc7fd64eb21e047a839171b60405160405180910390a45050565b60006116a3836001600160a01b038416612c2e565b600c5460ff166110ef5760405162461bcd60e51b815260206004820152601460248201527f5061757361626c653a206e6f74207061757365640000000000000000000000006044820152606401610932565b600c5460ff16156110ef5760405162461bcd60e51b815260206004820152601060248201527f5061757361626c653a20706175736564000000000000000000000000000000006044820152606401610932565b600082600001828154811061270b5761270b61341d565b9060005260206000200154905092915050565b60006001600160a01b0384163b1561288b57836001600160a01b031663150b7a02612747611b97565b8786866040518563ffffffff1660e01b81526004016127699493929190613569565b602060405180830381600087803b15801561278357600080fd5b505af19250505080156127b3575060408051601f3d908101601f191682019092526127b0918101906135a5565b60015b612858573d8080156127e1576040519150601f19603f3d011682016040523d82523d6000602084013e6127e6565b606091505b5080516128505760405162461bcd60e51b815260206004820152603260248201527f4552433732313a207472616e7366657220746f206e6f6e20455243373231526560448201527131b2b4bb32b91034b6b83632b6b2b73a32b960711b6064820152608401610932565b805181602001fd5b6001600160e01b0319167f150b7a0200000000000000000000000000000000000000000000000000000000149050611c66565b506001949350505050565b6000807a184f03e93ff9f4daa797ed6e38ed64bf6a1f01000000000000000083106128df577a184f03e93ff9f4daa797ed6e38ed64bf6a1f010000000000000000830492506040015b6d04ee2d6d415b85acef8100000000831061290b576d04ee2d6d415b85acef8100000000830492506020015b662386f26fc10000831061292957662386f26fc10000830492506010015b6305f5e1008310612941576305f5e100830492506008015b612710831061295557612710830492506004015b60648310612967576064830492506002015b600a83106108c95760010192915050565b61298484848484612d21565b600c5460ff161561178a5760405162461bcd60e51b815260206004820152602b60248201527f4552433732315061757361626c653a20746f6b656e207472616e73666572207760448201527f68696c65207061757365640000000000000000000000000000000000000000006064820152608401610932565b60006001600160e01b031982167f5a05180f0000000000000000000000000000000000000000000000000000000014806108c957506108c982612e69565b60606108c96001600160a01b03831660145b60606000612a5c836002613449565b612a679060026134d0565b67ffffffffffffffff811115612a7f57612a7f6132c6565b6040519080825280601f01601f191660200182016040528015612aa9576020820181803683370190505b5090507f300000000000000000000000000000000000000000000000000000000000000081600081518110612ae057612ae061341d565b60200101906001600160f81b031916908160001a9053507f780000000000000000000000000000000000000000000000000000000000000081600181518110612b2b57612b2b61341d565b60200101906001600160f81b031916908160001a9053506000612b4f846002613449565b612b5a9060016134d0565b90505b6001811115612bdf577f303132333435363738396162636465660000000000000000000000000000000085600f1660108110612b9b57612b9b61341d565b1a60f81b828281518110612bb157612bb161341d565b60200101906001600160f81b031916908160001a90535060049490941c93612bd8816135c2565b9050612b5d565b5083156116a35760405162461bcd60e51b815260206004820181905260248201527f537472696e67733a20686578206c656e67746820696e73756666696369656e746044820152606401610932565b60008181526001830160205260408120548015612d17576000612c5260018361348a565b8554909150600090612c669060019061348a565b9050818114612ccb576000866000018281548110612c8657612c8661341d565b9060005260206000200154905080876000018481548110612ca957612ca961341d565b6000918252602080832090910192909255918252600188019052604090208390555b8554869080612cdc57612cdc6135d9565b6001900381819060005260206000200160009055905585600101600086815260200190815260200160002060009055600193505050506108c9565b60009150506108c9565b612d2d84848484612ed0565b6001811115612da45760405162461bcd60e51b815260206004820152603560248201527f455243373231456e756d657261626c653a20636f6e736563757469766520747260448201527f616e7366657273206e6f7420737570706f7274656400000000000000000000006064820152608401610932565b816001600160a01b038516612e0057612dfb81600a80546000838152600b60205260408120829055600182018355919091527fc65a7bb8d6351c1cf70c95a316cc6a92839c986682d98bc35f958f4883f9d2a80155565b612e23565b836001600160a01b0316856001600160a01b031614612e2357612e238582612f58565b6001600160a01b038416612e3f57612e3a81612ff5565b612e62565b846001600160a01b0316846001600160a01b031614612e6257612e6284826130a4565b5050505050565b60006001600160e01b031982167f7965db0b0000000000000000000000000000000000000000000000000000000014806108c957507f01ffc9a7000000000000000000000000000000000000000000000000000000006001600160e01b03198316146108c9565b600181111561178a576001600160a01b03841615612f16576001600160a01b03841660009081526005602052604081208054839290612f1090849061348a565b90915550505b6001600160a01b0383161561178a576001600160a01b03831660009081526005602052604081208054839290612f4d9084906134d0565b909155505050505050565b60006001612f6584611520565b612f6f919061348a565b600083815260096020526040902054909150808214612fc2576001600160a01b03841660009081526008602090815260408083208584528252808320548484528184208190558352600990915290208190555b5060009182526009602090815260408084208490556001600160a01b039094168352600881528383209183525290812055565b600a546000906130079060019061348a565b6000838152600b6020526040812054600a805493945090928490811061302f5761302f61341d565b9060005260206000200154905080600a83815481106130505761305061341d565b6000918252602080832090910192909255828152600b9091526040808220849055858252812055600a805480613088576130886135d9565b6001900381819060005260206000200160009055905550505050565b60006130af83611520565b6001600160a01b039093166000908152600860209081526040808320868452825280832085905593825260099052919091209190915550565b6000602082840312156130fa57600080fd5b5035919050565b80356001600160a01b038116811461311857600080fd5b919050565b60006020828403121561312f57600080fd5b6116a382613101565b6001600160e01b03198116811461118257600080fd5b60006020828403121561316057600080fd5b81356116a381613138565b60005b8381101561318657818101518382015260200161316e565b8381111561178a5750506000910152565b600081518084526131af81602086016020860161316b565b601f01601f19169290920160200192915050565b6020815260006116a36020830184613197565b600080604083850312156131e957600080fd5b6131f283613101565b946020939093013593505050565b60008060006060848603121561321557600080fd5b61321e84613101565b925061322c60208501613101565b9150604084013590509250925092565b6000806040838503121561324f57600080fd5b8235915061325f60208401613101565b90509250929050565b6000806040838503121561327b57600080fd5b50508035926020909101359150565b6000806040838503121561329d57600080fd5b6132a683613101565b9150602083013580151581146132bb57600080fd5b809150509250929050565b634e487b7160e01b600052604160045260246000fd5b600080600080608085870312156132f257600080fd5b6132fb85613101565b935061330960208601613101565b925060408501359150606085013567ffffffffffffffff8082111561332d57600080fd5b818701915087601f83011261334157600080fd5b813581811115613353576133536132c6565b604051601f8201601f19908116603f0116810190838211818310171561337b5761337b6132c6565b816040528281528a602084870101111561339457600080fd5b82602086016020830137600060208483010152809550505050505092959194509250565b600080604083850312156133cb57600080fd5b6133d483613101565b915061325f60208401613101565b600181811c908216806133f657607f821691505b6020821081141561341757634e487b7160e01b600052602260045260246000fd5b50919050565b634e487b7160e01b600052603260045260246000fd5b634e487b7160e01b600052601160045260246000fd5b600081600019048311821515161561346357613463613433565b500290565b60008261348557634e487b7160e01b600052601260045260246000fd5b500490565b60008282101561349c5761349c613433565b500390565b600083516134b381846020880161316b565b8351908301906134c781836020880161316b565b01949350505050565b600082198211156134e3576134e3613433565b500190565b7f416363657373436f6e74726f6c3a206163636f756e742000000000000000000081526000835161352081601785016020880161316b565b7f206973206d697373696e6720726f6c6520000000000000000000000000000000601791840191820152835161355d81602884016020880161316b565b01602801949350505050565b60006001600160a01b0380871683528086166020840152508360408301526080606083015261359b6080830184613197565b9695505050505050565b6000602082840312156135b757600080fd5b81516116a381613138565b6000816135d1576135d1613433565b506000190190565b634e487b7160e01b600052603160045260246000fdfea2646970667358221220804c26e865a66a0e470ce3eb0e00c1ebec1bffc333070111e41e77c6105a71a864736f6c6343000809003368747470733a2f2f6e66742e616c6563747269636f2e776f726b6572732e6465762f",
  "linkReferences": {},
  "deployedLinkReferences": {}
}