{
  "_format": "hh-sol-artifact-1",
  "contractName": "TokenBat",
  "sourceName": "contracts/TokenBat.sol",
  "abi": [
    {
      "inputs": [],
      "stateMutability": "nonpayable",
      "type": "constructor"
    },
    {
      "anonymous": false,
      "inputs": [
        {
          "indexed": true,
          "internalType": "address",
          "name": "owner",
          "type": "address"
        },
        {
          "indexed": true,
          "internalType": "address",
          "name": "approved",
          "type": "address"
        },
        {
          "indexed": true,
          "internalType": "uint256",
          "name": "tokenId",
          "type": "uint256"
        }
      ],
      "name": "Approval",
      "type": "event"
    },
    {
      "anonymous": false,
      "inputs": [
        {
          "indexed": true,
          "internalType": "address",
          "name": "owner",
          "type": "address"
        },
        {
          "indexed": true,
          "internalType": "address",
          "name": "operator",
          "type": "address"
        },
        {
          "indexed": false,
          "internalType": "bool",
          "name": "approved",
          "type": "bool"
        }
      ],
      "name": "ApprovalForAll",
      "type": "event"
    },
    {
      "anonymous": false,
      "inputs": [
        {
          "indexed": false,
          "internalType": "uint256",
          "name": "tokenId",
          "type": "uint256"
        },
        {
          "indexed": false,
          "internalType": "address",
          "name": "owner",
          "type": "address"
        }
      ],
      "name": "Minted",
      "type": "event"
    },
    {
      "anonymous": false,
      "inputs": [
        {
          "indexed": true,
          "internalType": "address",
          "name": "previousOwner",
          "type": "address"
        },
        {
          "indexed": true,
          "internalType": "address",
          "name": "newOwner",
          "type": "address"
        }
      ],
      "name": "OwnershipTransferred",
      "type": "event"
    },
    {
      "anonymous": false,
      "inputs": [
        {
          "indexed": false,
          "internalType": "address",
          "name": "account",
          "type": "address"
        }
      ],
      "name": "Paused",
      "type": "event"
    },
    {
      "anonymous": false,
      "inputs": [
        {
          "indexed": false,
          "internalType": "uint256",
          "name": "tokenId",
          "type": "uint256"
        },
        {
          "indexed": false,
          "internalType": "address",
          "name": "owner",
          "type": "address"
        }
      ],
      "name": "Redeemed",
      "type": "event"
    },
    {
      "anonymous": false,
      "inputs": [
        {
          "indexed": true,
          "internalType": "bytes32",
          "name": "role",
          "type": "bytes32"
        },
        {
          "indexed": true,
          "internalType": "bytes32",
          "name": "previousAdminRole",
          "type": "bytes32"
        },
        {
          "indexed": true,
          "internalType": "bytes32",
          "name": "newAdminRole",
          "type": "bytes32"
        }
      ],
      "name": "RoleAdminChanged",
      "type": "event"
    },
    {
      "anonymous": false,
      "inputs": [
        {
          "indexed": true,
          "internalType": "bytes32",
          "name": "role",
          "type": "bytes32"
        },
        {
          "indexed": true,
          "internalType": "address",
          "name": "account",
          "type": "address"
        },
        {
          "indexed": true,
          "internalType": "address",
          "name": "sender",
          "type": "address"
        }
      ],
      "name": "RoleGranted",
      "type": "event"
    },
    {
      "anonymous": false,
      "inputs": [
        {
          "indexed": true,
          "internalType": "bytes32",
          "name": "role",
          "type": "bytes32"
        },
        {
          "indexed": true,
          "internalType": "address",
          "name": "account",
          "type": "address"
        },
        {
          "indexed": true,
          "internalType": "address",
          "name": "sender",
          "type": "address"
        }
      ],
      "name": "RoleRevoked",
      "type": "event"
    },
    {
      "anonymous": false,
      "inputs": [
        {
          "indexed": true,
          "internalType": "address",
          "name": "from",
          "type": "address"
        },
        {
          "indexed": true,
          "internalType": "address",
          "name": "to",
          "type": "address"
        },
        {
          "indexed": true,
          "internalType": "uint256",
          "name": "tokenId",
          "type": "uint256"
        }
      ],
      "name": "Transfer",
      "type": "event"
    },
    {
      "anonymous": false,
      "inputs": [
        {
          "indexed": false,
          "internalType": "address",
          "name": "account",
          "type": "address"
        }
      ],
      "name": "Unpaused",
      "type": "event"
    },
    {
      "inputs": [],
      "name": "DEFAULT_ADMIN_ROLE",
      "outputs": [
        {
          "internalType": "bytes32",
          "name": "",
          "type": "bytes32"
        }
      ],
      "stateMutability": "view",
      "type": "function"
    },
    {
      "inputs": [],
      "name": "MAX_TOKENS",
      "outputs": [
        {
          "internalType": "uint256",
          "name": "",
          "type": "uint256"
        }
      ],
      "stateMutability": "view",
      "type": "function"
    },
    {
      "inputs": [],
      "name": "MINTER_ROLE",
      "outputs": [
        {
          "internalType": "bytes32",
          "name": "",
          "type": "bytes32"
        }
      ],
      "stateMutability": "view",
      "type": "function"
    },
    {
      "inputs": [],
      "name": "PAUSER_ROLE",
      "outputs": [
        {
          "internalType": "bytes32",
          "name": "",
          "type": "bytes32"
        }
      ],
      "stateMutability": "view",
      "type": "function"
    },
    {
      "inputs": [
        {
          "internalType": "address",
          "name": "to",
          "type": "address"
        },
        {
          "internalType": "uint256",
          "name": "tokenId",
          "type": "uint256"
        }
      ],
      "name": "approve",
      "outputs": [],
      "stateMutability": "nonpayable",
      "type": "function"
    },
    {
      "inputs": [
        {
          "internalType": "address",
          "name": "owner",
          "type": "address"
        }
      ],
      "name": "balanceOf",
      "outputs": [
        {
          "internalType": "uint256",
          "name": "",
          "type": "uint256"
        }
      ],
      "stateMutability": "view",
      "type": "function"
    },
    {
      "inputs": [
        {
          "internalType": "uint256",
          "name": "tokenId",
          "type": "uint256"
        }
      ],
      "name": "burn",
      "outputs": [],
      "stateMutability": "nonpayable",
      "type": "function"
    },
    {
      "inputs": [
        {
          "internalType": "uint256",
          "name": "tokenId",
          "type": "uint256"
        }
      ],
      "name": "getApproved",
      "outputs": [
        {
          "internalType": "address",
          "name": "",
          "type": "address"
        }
      ],
      "stateMutability": "view",
      "type": "function"
    },
    {
      "inputs": [
        {
          "internalType": "bytes32",
          "name": "role",
          "type": "bytes32"
        }
      ],
      "name": "getRoleAdmin",
      "outputs": [
        {
          "internalType": "bytes32",
          "name": "",
          "type": "bytes32"
        }
      ],
      "stateMutability": "view",
      "type": "function"
    },
    {
      "inputs": [
        {
          "internalType": "bytes32",
          "name": "role",
          "type": "bytes32"
        },
        {
          "internalType": "uint256",
          "name": "index",
          "type": "uint256"
        }
      ],
      "name": "getRoleMember",
      "outputs": [
        {
          "internalType": "address",
          "name": "",
          "type": "address"
        }
      ],
      "stateMutability": "view",
      "type": "function"
    },
    {
      "inputs": [
        {
          "internalType": "bytes32",
          "name": "role",
          "type": "bytes32"
        }
      ],
      "name": "getRoleMemberCount",
      "outputs": [
        {
          "internalType": "uint256",
          "name": "",
          "type": "uint256"
        }
      ],
      "stateMutability": "view",
      "type": "function"
    },
    {
      "inputs": [
        {
          "internalType": "bytes32",
          "name": "role",
          "type": "bytes32"
        },
        {
          "internalType": "address",
          "name": "account",
          "type": "address"
        }
      ],
      "name": "grantRole",
      "outputs": [],
      "stateMutability": "nonpayable",
      "type": "function"
    },
    {
      "inputs": [
        {
          "internalType": "bytes32",
          "name": "role",
          "type": "bytes32"
        },
        {
          "internalType": "address",
          "name": "account",
          "type": "address"
        }
      ],
      "name": "hasRole",
      "outputs": [
        {
          "internalType": "bool",
          "name": "",
          "type": "bool"
        }
      ],
      "stateMutability": "view",
      "type": "function"
    },
    {
      "inputs": [],
      "name": "hasSaleStarted",
      "outputs": [
        {
          "internalType": "bool",
          "name": "",
          "type": "bool"
        }
      ],
      "stateMutability": "view",
      "type": "function"
    },
    {
      "inputs": [],
      "name": "hasSoldOut",
      "outputs": [
        {
          "internalType": "bool",
          "name": "",
          "type": "bool"
        }
      ],
      "stateMutability": "view",
      "type": "function"
    },
    {
      "inputs": [
        {
          "internalType": "address",
          "name": "_owner",
          "type": "address"
        },
        {
          "internalType": "address",
          "name": "_operator",
          "type": "address"
        }
      ],
      "name": "isApprovedForAll",
      "outputs": [
        {
          "internalType": "bool",
          "name": "isOperator",
          "type": "bool"
        }
      ],
      "stateMutability": "view",
      "type": "function"
    },
    {
      "inputs": [
        {
          "internalType": "address",
          "name": "to",
          "type": "address"
        }
      ],
      "name": "mint",
      "outputs": [],
      "stateMutability": "nonpayable",
      "type": "function"
    },
    {
      "inputs": [
        {
          "internalType": "uint256",
          "name": "quantity",
          "type": "uint256"
        },
        {
          "internalType": "address",
          "name": "receiver",
          "type": "address"
        }
      ],
      "name": "mintToken",
      "outputs": [],
      "stateMutability": "payable",
      "type": "function"
    },
    {
      "inputs": [],
      "name": "name",
      "outputs": [
        {
          "internalType": "string",
          "name": "",
          "type": "string"
        }
      ],
      "stateMutability": "view",
      "type": "function"
    },
    {
      "inputs": [],
      "name": "owner",
      "outputs": [
        {
          "internalType": "address",
          "name": "",
          "type": "address"
        }
      ],
      "stateMutability": "view",
      "type": "function"
    },
    {
      "inputs": [
        {
          "internalType": "uint256",
          "name": "tokenId",
          "type": "uint256"
        }
      ],
      "name": "ownerOf",
      "outputs": [
        {
          "internalType": "address",
          "name": "",
          "type": "address"
        }
      ],
      "stateMutability": "view",
      "type": "function"
    },
    {
      "inputs": [],
      "name": "pause",
      "outputs": [],
      "stateMutability": "nonpayable",
      "type": "function"
    },
    {
      "inputs": [],
      "name": "pauseSale",
      "outputs": [],
      "stateMutability": "nonpayable",
      "type": "function"
    },
    {
      "inputs": [],
      "name": "paused",
      "outputs": [
        {
          "internalType": "bool",
          "name": "",
          "type": "bool"
        }
      ],
      "stateMutability": "view",
      "type": "function"
    },
    {
      "inputs": [],
      "name": "priceToMint",
      "outputs": [
        {
          "internalType": "uint256",
          "name": "",
          "type": "uint256"
        }
      ],
      "stateMutability": "view",
      "type": "function"
    },
    {
      "inputs": [
        {
          "internalType": "uint256",
          "name": "_tokenId",
          "type": "uint256"
        },
        {
          "internalType": "address",
          "name": "receiver",
          "type": "address"
        }
      ],
      "name": "redeemToken",
      "outputs": [],
      "stateMutability": "nonpayable",
      "type": "function"
    },
    {
      "inputs": [],
      "name": "renounceOwnership",
      "outputs": [],
      "stateMutability": "nonpayable",
      "type": "function"
    },
    {
      "inputs": [
        {
          "internalType": "bytes32",
          "name": "role",
          "type": "bytes32"
        },
        {
          "internalType": "address",
          "name": "account",
          "type": "address"
        }
      ],
      "name": "renounceRole",
      "outputs": [],
      "stateMutability": "nonpayable",
      "type": "function"
    },
    {
      "inputs": [
        {
          "internalType": "bytes32",
          "name": "role",
          "type": "bytes32"
        },
        {
          "internalType": "address",
          "name": "account",
          "type": "address"
        }
      ],
      "name": "revokeRole",
      "outputs": [],
      "stateMutability": "nonpayable",
      "type": "function"
    },
    {
      "inputs": [
        {
          "internalType": "address",
          "name": "from",
          "type": "address"
        },
        {
          "internalType": "address",
          "name": "to",
          "type": "address"
        },
        {
          "internalType": "uint256",
          "name": "tokenId",
          "type": "uint256"
        }
      ],
      "name": "safeTransferFrom",
      "outputs": [],
      "stateMutability": "nonpayable",
      "type": "function"
    },
    {
      "inputs": [
        {
          "internalType": "address",
          "name": "from",
          "type": "address"
        },
        {
          "internalType": "address",
          "name": "to",
          "type": "address"
        },
        {
          "internalType": "uint256",
          "name": "tokenId",
          "type": "uint256"
        },
        {
          "internalType": "bytes",
          "name": "data",
          "type": "bytes"
        }
      ],
      "name": "safeTransferFrom",
      "outputs": [],
      "stateMutability": "nonpayable",
      "type": "function"
    },
    {
      "inputs": [
        {
          "internalType": "address",
          "name": "operator",
          "type": "address"
        },
        {
          "internalType": "bool",
          "name": "approved",
          "type": "bool"
        }
      ],
      "name": "setApprovalForAll",
      "outputs": [],
      "stateMutability": "nonpayable",
      "type": "function"
    },
    {
      "inputs": [
        {
          "internalType": "uint256",
          "name": "_priceToMint",
          "type": "uint256"
        }
      ],
      "name": "setPriceToMint",
      "outputs": [],
      "stateMutability": "nonpayable",
      "type": "function"
    },
    {
      "inputs": [],
      "name": "startSale",
      "outputs": [],
      "stateMutability": "nonpayable",
      "type": "function"
    },
    {
      "inputs": [
        {
          "internalType": "bytes4",
          "name": "interfaceId",
          "type": "bytes4"
        }
      ],
      "name": "supportsInterface",
      "outputs": [
        {
          "internalType": "bool",
          "name": "",
          "type": "bool"
        }
      ],
      "stateMutability": "view",
      "type": "function"
    },
    {
      "inputs": [],
      "name": "symbol",
      "outputs": [
        {
          "internalType": "string",
          "name": "",
          "type": "string"
        }
      ],
      "stateMutability": "view",
      "type": "function"
    },
    {
      "inputs": [
        {
          "internalType": "uint256",
          "name": "index",
          "type": "uint256"
        }
      ],
      "name": "tokenByIndex",
      "outputs": [
        {
          "internalType": "uint256",
          "name": "",
          "type": "uint256"
        }
      ],
      "stateMutability": "view",
      "type": "function"
    },
    {
      "inputs": [
        {
          "internalType": "uint256",
          "name": "tokenId",
          "type": "uint256"
        }
      ],
      "name": "tokenExists",
      "outputs": [
        {
          "internalType": "bool",
          "name": "",
          "type": "bool"
        }
      ],
      "stateMutability": "view",
      "type": "function"
    },
    {
      "inputs": [
        {
          "internalType": "address",
          "name": "owner",
          "type": "address"
        },
        {
          "internalType": "uint256",
          "name": "index",
          "type": "uint256"
        }
      ],
      "name": "tokenOfOwnerByIndex",
      "outputs": [
        {
          "internalType": "uint256",
          "name": "",
          "type": "uint256"
        }
      ],
      "stateMutability": "view",
      "type": "function"
    },
    {
      "inputs": [
        {
          "internalType": "uint256",
          "name": "tokenId",
          "type": "uint256"
        }
      ],
      "name": "tokenURI",
      "outputs": [
        {
          "internalType": "string",
          "name": "",
          "type": "string"
        }
      ],
      "stateMutability": "view",
      "type": "function"
    },
    {
      "inputs": [],
      "name": "totalSupply",
      "outputs": [
        {
          "internalType": "uint256",
          "name": "",
          "type": "uint256"
        }
      ],
      "stateMutability": "view",
      "type": "function"
    },
    {
      "inputs": [
        {
          "internalType": "address",
          "name": "from",
          "type": "address"
        },
        {
          "internalType": "address",
          "name": "to",
          "type": "address"
        },
        {
          "internalType": "uint256",
          "name": "tokenId",
          "type": "uint256"
        }
      ],
      "name": "transferFrom",
      "outputs": [],
      "stateMutability": "nonpayable",
      "type": "function"
    },
    {
      "inputs": [
        {
          "internalType": "address",
          "name": "newOwner",
          "type": "address"
        }
      ],
      "name": "transferOwnership",
      "outputs": [],
      "stateMutability": "nonpayable",
      "type": "function"
    },
    {
      "inputs": [],
      "name": "unpause",
      "outputs": [],
      "stateMutability": "nonpayable",
      "type": "function"
    }
  ],
  "bytecode": "0x60806040526000601160006101000a81548160ff0219169083151502179055503480156200002c57600080fd5b506040518060400160405280600881526020017f546f6b656e4261740000000000000000000000000000000000000000000000008152506040518060400160405280600881526020017f546f6b656e426174000000000000000000000000000000000000000000000000815250604051806060016040528060228152602001620062376022913982828160029080519060200190620000cd9291906200060f565b508060039080519060200190620000e69291906200060f565b5050506000600c60006101000a81548160ff02191690831515021790555080600e90805190602001906200011c9291906200060f565b50620001416000801b62000135620001ec60201b60201c565b6200020860201b60201c565b620001827f9f2df0fed2c77648de5860a4cc508cd0818c85b8b8a1ab4ceeef8d981c8956a662000176620001ec60201b60201c565b6200020860201b60201c565b620001c37f65d7a28e3265b37a6474929f336521b332c1681b933f6cb9f3376673440d862a620001b7620001ec60201b60201c565b6200020860201b60201c565b505050620001e6620001da620001ec60201b60201c565b6200021e60201b60201c565b62000724565b600062000203620002e460201b620019ca1760201c565b905090565b6200021a82826200039760201b60201c565b5050565b6000600f60009054906101000a900473ffffffffffffffffffffffffffffffffffffffff16905081600f60006101000a81548173ffffffffffffffffffffffffffffffffffffffff021916908373ffffffffffffffffffffffffffffffffffffffff1602179055508173ffffffffffffffffffffffffffffffffffffffff168173ffffffffffffffffffffffffffffffffffffffff167f8be0079c531659141344cd1fd0a4f28419497f9722a3daafe3b4186f6b6457e060405160405180910390a35050565b60003073ffffffffffffffffffffffffffffffffffffffff163373ffffffffffffffffffffffffffffffffffffffff1614156200039057600080368080601f016020809104026020016040519081016040528093929190818152602001838380828437600081840152601f19601f820116905080830192505050505050509050600080369050905073ffffffffffffffffffffffffffffffffffffffff81830151169250505062000394565b3390505b90565b620003ae8282620003df60201b62001a7b1760201c565b620003da8160016000858152602001908152602001600020620004d060201b62001b5b1790919060201c565b505050565b620003f182826200050860201b60201c565b620004cc57600160008084815260200190815260200160002060000160008373ffffffffffffffffffffffffffffffffffffffff1673ffffffffffffffffffffffffffffffffffffffff16815260200190815260200160002060006101000a81548160ff02191690831515021790555062000471620001ec60201b60201c565b73ffffffffffffffffffffffffffffffffffffffff168173ffffffffffffffffffffffffffffffffffffffff16837f2f8788117e7eff1d82e926ec794901d17c78024a50270940304540a733656f0d60405160405180910390a45b5050565b600062000500836000018373ffffffffffffffffffffffffffffffffffffffff1660001b6200057260201b60201c565b905092915050565b600080600084815260200190815260200160002060000160008373ffffffffffffffffffffffffffffffffffffffff1673ffffffffffffffffffffffffffffffffffffffff16815260200190815260200160002060009054906101000a900460ff16905092915050565b6000620005868383620005ec60201b60201c565b620005e1578260000182908060018154018082558091505060019003906000526020600020016000909190919091505582600001805490508360010160008481526020019081526020016000208190555060019050620005e6565b600090505b92915050565b600080836001016000848152602001908152602001600020541415905092915050565b8280546200061d90620006bf565b90600052602060002090601f0160209004810192826200064157600085556200068d565b82601f106200065c57805160ff19168380011785556200068d565b828001600101855582156200068d579182015b828111156200068c5782518255916020019190600101906200066f565b5b5090506200069c9190620006a0565b5090565b5b80821115620006bb576000816000905550600101620006a1565b5090565b60006002820490506001821680620006d857607f821691505b60208210811415620006ef57620006ee620006f5565b5b50919050565b7f4e487b7100000000000000000000000000000000000000000000000000000000600052602260045260246000fd5b615b0380620007346000396000f3fe6080604052600436106102665760003560e01c80636a62784211610144578063b66a0e5d116100b6578063d53913931161007a578063d53913931461091c578063d547741f14610947578063e63ab1e914610970578063e985e9c51461099b578063f2fde38b146109d8578063f47c84c514610a0157610266565b8063b66a0e5d14610839578063b88d4fde14610850578063c3501ff614610879578063c87b56dd146108a2578063ca15c873146108df57610266565b80639010d07c116101085780639010d07c1461072457806391d148541461076157806395d89b411461079e578063a140ae23146107c9578063a217fddf146107e5578063a22cb4651461081057610266565b80636a6278421461066557806370a082311461068e578063715018a6146106cb5780638456cb59146106e25780638da5cb5b146106f957610266565b80632f2ff15d116101dd57806342966c68116101a157806342966c68146105555780634dc1dbec1461057e5780634f6ccce7146105a957806355367ba9146105e65780635c975abb146105fd5780636352211e1461062857610266565b80632f2ff15d146104865780632f745c59146104af57806336568abe146104ec5780633f4ba83a1461051557806342842e0e1461052c57610266565b8063095ea7b31161022f578063095ea7b31461037857806318160ddd146103a15780631c8b232d146103cc57806323b872dd146103f7578063248a9ca31461042057806329e0a2ac1461045d57610266565b8062923f9e1461026b57806301ffc9a7146102a857806303824f76146102e557806306fdde0314610310578063081812fc1461033b575b600080fd5b34801561027757600080fd5b50610292600480360381019061028d91906143f8565b610a2c565b60405161029f9190614a84565b60405180910390f35b3480156102b457600080fd5b506102cf60048036038101906102ca91906143a6565b610a3e565b6040516102dc9190614a84565b60405180910390f35b3480156102f157600080fd5b506102fa610a50565b6040516103079190614a84565b60405180910390f35b34801561031c57600080fd5b50610325610a72565b6040516103329190614aba565b60405180910390f35b34801561034757600080fd5b50610362600480360381019061035d91906143f8565b610b04565b60405161036f9190614a1d565b60405180910390f35b34801561038457600080fd5b5061039f600480360381019061039a91906142c9565b610b4a565b005b3480156103ad57600080fd5b506103b6610c62565b6040516103c39190614ebc565b60405180910390f35b3480156103d857600080fd5b506103e1610c6f565b6040516103ee9190614a84565b60405180910390f35b34801561040357600080fd5b5061041e600480360381019061041991906141c3565b610c82565b005b34801561042c57600080fd5b5061044760048036038101906104429190614305565b610ce2565b6040516104549190614a9f565b60405180910390f35b34801561046957600080fd5b50610484600480360381019061047f91906143f8565b610d01565b005b34801561049257600080fd5b506104ad60048036038101906104a8919061432e565b610dcb565b005b3480156104bb57600080fd5b506104d660048036038101906104d191906142c9565b610dec565b6040516104e39190614ebc565b60405180910390f35b3480156104f857600080fd5b50610513600480360381019061050e919061432e565b610e91565b005b34801561052157600080fd5b5061052a610f14565b005b34801561053857600080fd5b50610553600480360381019061054e91906141c3565b610f8e565b005b34801561056157600080fd5b5061057c600480360381019061057791906143f8565b610fae565b005b34801561058a57600080fd5b5061059361100a565b6040516105a09190614ebc565b60405180910390f35b3480156105b557600080fd5b506105d060048036038101906105cb91906143f8565b611010565b6040516105dd9190614ebc565b60405180910390f35b3480156105f257600080fd5b506105fb6110a7565b005b34801561060957600080fd5b506106126110cc565b60405161061f9190614a84565b60405180910390f35b34801561063457600080fd5b5061064f600480360381019061064a91906143f8565b6110e3565b60405161065c9190614a1d565b60405180910390f35b34801561067157600080fd5b5061068c6004803603810190610687919061415e565b61116a565b005b34801561069a57600080fd5b506106b560048036038101906106b0919061415e565b6111fa565b6040516106c29190614ebc565b60405180910390f35b3480156106d757600080fd5b506106e06112b2565b005b3480156106ee57600080fd5b506106f76112c6565b005b34801561070557600080fd5b5061070e611340565b60405161071b9190614a1d565b60405180910390f35b34801561073057600080fd5b5061074b6004803603810190610746919061436a565b61136a565b6040516107589190614a1d565b60405180910390f35b34801561076d57600080fd5b506107886004803603810190610783919061432e565b611399565b6040516107959190614a84565b60405180910390f35b3480156107aa57600080fd5b506107b3611403565b6040516107c09190614aba565b60405180910390f35b6107e360048036038101906107de9190614421565b611495565b005b3480156107f157600080fd5b506107fa611705565b6040516108079190614a9f565b60405180910390f35b34801561081c57600080fd5b506108376004803603810190610832919061428d565b61170c565b005b34801561084557600080fd5b5061084e611722565b005b34801561085c57600080fd5b5061087760048036038101906108729190614212565b611747565b005b34801561088557600080fd5b506108a0600480360381019061089b9190614421565b6117a9565b005b3480156108ae57600080fd5b506108c960048036038101906108c491906143f8565b6117e6565b6040516108d69190614aba565b60405180910390f35b3480156108eb57600080fd5b5061090660048036038101906109019190614305565b61184e565b6040516109139190614ebc565b60405180910390f35b34801561092857600080fd5b50610931611872565b60405161093e9190614a9f565b60405180910390f35b34801561095357600080fd5b5061096e6004803603810190610969919061432e565b611896565b005b34801561097c57600080fd5b506109856118b7565b6040516109929190614a9f565b60405180910390f35b3480156109a757600080fd5b506109c260048036038101906109bd9190614187565b6118db565b6040516109cf9190614a84565b60405180910390f35b3480156109e457600080fd5b506109ff60048036038101906109fa919061415e565b611941565b005b348015610a0d57600080fd5b50610a166119c5565b604051610a239190614ebc565b60405180910390f35b6000610a3782611b8b565b9050919050565b6000610a4982611bcc565b9050919050565b60006040610a5c610c62565b10610a6a5760019050610a6f565b600090505b90565b606060028054610a8190615167565b80601f0160208091040260200160405190810160405280929190818152602001828054610aad90615167565b8015610afa5780601f10610acf57610100808354040283529160200191610afa565b820191906000526020600020905b815481529060010190602001808311610add57829003601f168201915b5050505050905090565b6000610b0f82611c46565b6006600083815260200190815260200160002060009054906101000a900473ffffffffffffffffffffffffffffffffffffffff169050919050565b6000610b55826110e3565b90508073ffffffffffffffffffffffffffffffffffffffff168373ffffffffffffffffffffffffffffffffffffffff161415610bc6576040517f08c379a0000000000000000000000000000000000000000000000000000000008152600401610bbd90614d9c565b60405180910390fd5b8073ffffffffffffffffffffffffffffffffffffffff16610be5611c91565b73ffffffffffffffffffffffffffffffffffffffff161480610c145750610c1381610c0e611c91565b6118db565b5b610c53576040517f08c379a0000000000000000000000000000000000000000000000000000000008152600401610c4a90614dbc565b60405180910390fd5b610c5d8383611ca0565b505050565b6000600a80549050905090565b601160009054906101000a900460ff1681565b610c93610c8d611c91565b82611d59565b610cd2576040517f08c379a0000000000000000000000000000000000000000000000000000000008152600401610cc990614b5c565b60405180910390fd5b610cdd838383611dee565b505050565b6000806000838152602001908152602001600020600101549050919050565b610d096120e8565b610d11611340565b73ffffffffffffffffffffffffffffffffffffffff163373ffffffffffffffffffffffffffffffffffffffff1614610d7e576040517f08c379a0000000000000000000000000000000000000000000000000000000008152600401610d7590614cdc565b60405180910390fd5b60008111610dc1576040517f08c379a0000000000000000000000000000000000000000000000000000000008152600401610db890614e5c565b60405180910390fd5b8060108190555050565b610dd482610ce2565b610ddd81612166565b610de7838361217a565b505050565b6000610df7836111fa565b8210610e38576040517f08c379a0000000000000000000000000000000000000000000000000000000008152600401610e2f90614b7c565b60405180910390fd5b600860008473ffffffffffffffffffffffffffffffffffffffff1673ffffffffffffffffffffffffffffffffffffffff168152602001908152602001600020600083815260200190815260200160002054905092915050565b610e99611c91565b73ffffffffffffffffffffffffffffffffffffffff168173ffffffffffffffffffffffffffffffffffffffff1614610f06576040517f08c379a0000000000000000000000000000000000000000000000000000000008152600401610efd90614e9c565b60405180910390fd5b610f1082826121ae565b5050565b610f457f65d7a28e3265b37a6474929f336521b332c1681b933f6cb9f3376673440d862a610f40611c91565b611399565b610f84576040517f08c379a0000000000000000000000000000000000000000000000000000000008152600401610f7b90614e7c565b60405180910390fd5b610f8c6121e2565b565b610fa983838360405180602001604052806000815250611747565b505050565b610fbf610fb9611c91565b82611d59565b610ffe576040517f08c379a0000000000000000000000000000000000000000000000000000000008152600401610ff590614b5c565b60405180910390fd5b61100781612245565b50565b60105481565b600061101a610c62565b821061105b576040517f08c379a000000000000000000000000000000000000000000000000000000000815260040161105290614ddc565b60405180910390fd5b600a8281548110611095577f4e487b7100000000000000000000000000000000000000000000000000000000600052603260045260246000fd5b90600052602060002001549050919050565b6110af6120e8565b6000601160006101000a81548160ff021916908315150217905550565b6000600c60009054906101000a900460ff16905090565b6000806110ef83612393565b9050600073ffffffffffffffffffffffffffffffffffffffff168173ffffffffffffffffffffffffffffffffffffffff161415611161576040517f08c379a000000000000000000000000000000000000000000000000000000000815260040161115890614d7c565b60405180910390fd5b80915050919050565b61119b7f9f2df0fed2c77648de5860a4cc508cd0818c85b8b8a1ab4ceeef8d981c8956a6611196611c91565b611399565b6111da576040517f08c379a00000000000000000000000000000000000000000000000000000000081526004016111d190614e3c565b60405180910390fd5b6111ed816111e8600d6123d0565b6123de565b6111f7600d6125fc565b50565b60008073ffffffffffffffffffffffffffffffffffffffff168273ffffffffffffffffffffffffffffffffffffffff16141561126b576040517f08c379a000000000000000000000000000000000000000000000000000000000815260040161126290614cbc565b60405180910390fd5b600560008373ffffffffffffffffffffffffffffffffffffffff1673ffffffffffffffffffffffffffffffffffffffff168152602001908152602001600020549050919050565b6112ba6120e8565b6112c46000612612565b565b6112f77f65d7a28e3265b37a6474929f336521b332c1681b933f6cb9f3376673440d862a6112f2611c91565b611399565b611336576040517f08c379a000000000000000000000000000000000000000000000000000000000815260040161132d90614c1c565b60405180910390fd5b61133e6126d8565b565b6000600f60009054906101000a900473ffffffffffffffffffffffffffffffffffffffff16905090565b6000611391826001600086815260200190815260200160002061273b90919063ffffffff16565b905092915050565b600080600084815260200190815260200160002060000160008373ffffffffffffffffffffffffffffffffffffffff1673ffffffffffffffffffffffffffffffffffffffff16815260200190815260200160002060009054906101000a900460ff16905092915050565b60606003805461141290615167565b80601f016020809104026020016040519081016040528092919081815260200182805461143e90615167565b801561148b5780601f106114605761010080835404028352916020019161148b565b820191906000526020600020905b81548152906001019060200180831161146e57829003601f168201915b5050505050905090565b601160009054906101000a900460ff16806114e257506114b3611340565b73ffffffffffffffffffffffffffffffffffffffff163373ffffffffffffffffffffffffffffffffffffffff16145b611521576040517f08c379a000000000000000000000000000000000000000000000000000000000815260040161151890614b3c565b60405180910390fd5b60008211611564576040517f08c379a000000000000000000000000000000000000000000000000000000000815260040161155b90614cfc565b60405180910390fd5b60038211156115a8576040517f08c379a000000000000000000000000000000000000000000000000000000000815260040161159f90614d5c565b60405180910390fd5b60406115c4836115b6610c62565b61275590919063ffffffff16565b11158061160357506115d4611340565b73ffffffffffffffffffffffffffffffffffffffff163373ffffffffffffffffffffffffffffffffffffffff16145b611642576040517f08c379a000000000000000000000000000000000000000000000000000000000815260040161163990614c7c565b60405180910390fd5b601054341480156116535750600034115b611692576040517f08c379a000000000000000000000000000000000000000000000000000000000815260040161168990614e1c565b60405180910390fd5b60005b828110156117005760006116a7610c62565b90506116b3838261276b565b7fb9203d657e9c0ec8274c818292ab0f58b04e1970050716891770eb1bab5d655e81846040516116e4929190614ed7565b60405180910390a15080806116f8906151ca565b915050611695565b505050565b6000801b81565b61171e611717611c91565b8383612789565b5050565b61172a6120e8565b6001601160006101000a81548160ff021916908315150217905550565b611758611752611c91565b83611d59565b611797576040517f08c379a000000000000000000000000000000000000000000000000000000000815260040161178e90614b5c565b60405180910390fd5b6117a3848484846128f6565b50505050565b7fc5fcfb68332ef11d542d4ab7e75045a5e4d66eb2d8f846f13a48356b32e534db82826040516117da929190614ed7565b60405180910390a15050565b60606117f182611c46565b60006117fb612952565b9050600081511161181b5760405180602001604052806000815250611846565b80611825846129e4565b6040516020016118369291906149bf565b6040516020818303038152906040525b915050919050565b600061186b60016000848152602001908152602001600020612b08565b9050919050565b7f9f2df0fed2c77648de5860a4cc508cd0818c85b8b8a1ab4ceeef8d981c8956a681565b61189f82610ce2565b6118a881612166565b6118b283836121ae565b505050565b7f65d7a28e3265b37a6474929f336521b332c1681b933f6cb9f3376673440d862a81565b60007358807bad0b376efc12f5ad86aac70e78ed67deae73ffffffffffffffffffffffffffffffffffffffff168273ffffffffffffffffffffffffffffffffffffffff16141561192e576001905061193b565b6119388383612b1d565b90505b92915050565b6119496120e8565b600073ffffffffffffffffffffffffffffffffffffffff168173ffffffffffffffffffffffffffffffffffffffff1614156119b9576040517f08c379a00000000000000000000000000000000000000000000000000000000081526004016119b090614bbc565b60405180910390fd5b6119c281612612565b50565b604081565b60003073ffffffffffffffffffffffffffffffffffffffff163373ffffffffffffffffffffffffffffffffffffffff161415611a7457600080368080601f016020809104026020016040519081016040528093929190818152602001838380828437600081840152601f19601f820116905080830192505050505050509050600080369050905073ffffffffffffffffffffffffffffffffffffffff818301511692505050611a78565b3390505b90565b611a858282611399565b611b5757600160008084815260200190815260200160002060000160008373ffffffffffffffffffffffffffffffffffffffff1673ffffffffffffffffffffffffffffffffffffffff16815260200190815260200160002060006101000a81548160ff021916908315150217905550611afc611c91565b73ffffffffffffffffffffffffffffffffffffffff168173ffffffffffffffffffffffffffffffffffffffff16837f2f8788117e7eff1d82e926ec794901d17c78024a50270940304540a733656f0d60405160405180910390a45b5050565b6000611b83836000018373ffffffffffffffffffffffffffffffffffffffff1660001b612bb1565b905092915050565b60008073ffffffffffffffffffffffffffffffffffffffff16611bad83612393565b73ffffffffffffffffffffffffffffffffffffffff1614159050919050565b60007f780e9d63000000000000000000000000000000000000000000000000000000007bffffffffffffffffffffffffffffffffffffffffffffffffffffffff1916827bffffffffffffffffffffffffffffffffffffffffffffffffffffffff19161480611c3f5750611c3e82612c21565b5b9050919050565b611c4f81611b8b565b611c8e576040517f08c379a0000000000000000000000000000000000000000000000000000000008152600401611c8590614d7c565b60405180910390fd5b50565b6000611c9b6119ca565b905090565b816006600083815260200190815260200160002060006101000a81548173ffffffffffffffffffffffffffffffffffffffff021916908373ffffffffffffffffffffffffffffffffffffffff160217905550808273ffffffffffffffffffffffffffffffffffffffff16611d13836110e3565b73ffffffffffffffffffffffffffffffffffffffff167f8c5be1e5ebec7d5bd14f71427d1e84f3dd0314c0f7b2291e5b200ac8c7c3b92560405160405180910390a45050565b600080611d65836110e3565b90508073ffffffffffffffffffffffffffffffffffffffff168473ffffffffffffffffffffffffffffffffffffffff161480611da75750611da681856118db565b5b80611de557508373ffffffffffffffffffffffffffffffffffffffff16611dcd84610b04565b73ffffffffffffffffffffffffffffffffffffffff16145b91505092915050565b8273ffffffffffffffffffffffffffffffffffffffff16611e0e826110e3565b73ffffffffffffffffffffffffffffffffffffffff1614611e64576040517f08c379a0000000000000000000000000000000000000000000000000000000008152600401611e5b90614bdc565b60405180910390fd5b600073ffffffffffffffffffffffffffffffffffffffff168273ffffffffffffffffffffffffffffffffffffffff161415611ed4576040517f08c379a0000000000000000000000000000000000000000000000000000000008152600401611ecb90614c3c565b60405180910390fd5b611ee18383836001612d03565b8273ffffffffffffffffffffffffffffffffffffffff16611f01826110e3565b73ffffffffffffffffffffffffffffffffffffffff1614611f57576040517f08c379a0000000000000000000000000000000000000000000000000000000008152600401611f4e90614bdc565b60405180910390fd5b6006600082815260200190815260200160002060006101000a81549073ffffffffffffffffffffffffffffffffffffffff02191690556001600560008573ffffffffffffffffffffffffffffffffffffffff1673ffffffffffffffffffffffffffffffffffffffff168152602001908152602001600020600082825403925050819055506001600560008473ffffffffffffffffffffffffffffffffffffffff1673ffffffffffffffffffffffffffffffffffffffff16815260200190815260200160002060008282540192505081905550816004600083815260200190815260200160002060006101000a81548173ffffffffffffffffffffffffffffffffffffffff021916908373ffffffffffffffffffffffffffffffffffffffff160217905550808273ffffffffffffffffffffffffffffffffffffffff168473ffffffffffffffffffffffffffffffffffffffff167fddf252ad1be2c89b69c2b068fc378daa952ba7f163c4a11628f55a4df523b3ef60405160405180910390a46120e38383836001612d15565b505050565b6120f0611c91565b73ffffffffffffffffffffffffffffffffffffffff1661210e611340565b73ffffffffffffffffffffffffffffffffffffffff1614612164576040517f08c379a000000000000000000000000000000000000000000000000000000000815260040161215b90614d3c565b60405180910390fd5b565b61217781612172611c91565b612d1b565b50565b6121848282611a7b565b6121a98160016000858152602001908152602001600020611b5b90919063ffffffff16565b505050565b6121b88282612da0565b6121dd8160016000858152602001908152602001600020612e8190919063ffffffff16565b505050565b6121ea612eb1565b6000600c60006101000a81548160ff0219169083151502179055507f5db9ee0a495bf2e6ff9c91a7834c1ba4fdd244a5e8aa4e537bd38aeae4b073aa61222e611c91565b60405161223b9190614a1d565b60405180910390a1565b6000612250826110e3565b9050612260816000846001612d03565b612269826110e3565b90506006600083815260200190815260200160002060006101000a81549073ffffffffffffffffffffffffffffffffffffffff02191690556001600560008373ffffffffffffffffffffffffffffffffffffffff1673ffffffffffffffffffffffffffffffffffffffff168152602001908152602001600020600082825403925050819055506004600083815260200190815260200160002060006101000a81549073ffffffffffffffffffffffffffffffffffffffff021916905581600073ffffffffffffffffffffffffffffffffffffffff168273ffffffffffffffffffffffffffffffffffffffff167fddf252ad1be2c89b69c2b068fc378daa952ba7f163c4a11628f55a4df523b3ef60405160405180910390a461238f816000846001612d15565b5050565b60006004600083815260200190815260200160002060009054906101000a900473ffffffffffffffffffffffffffffffffffffffff169050919050565b600081600001549050919050565b600073ffffffffffffffffffffffffffffffffffffffff168273ffffffffffffffffffffffffffffffffffffffff16141561244e576040517f08c379a000000000000000000000000000000000000000000000000000000000815260040161244590614d1c565b60405180910390fd5b61245781611b8b565b15612497576040517f08c379a000000000000000000000000000000000000000000000000000000000815260040161248e90614bfc565b60405180910390fd5b6124a5600083836001612d03565b6124ae81611b8b565b156124ee576040517f08c379a00000000000000000000000000000000000000000000000000000000081526004016124e590614bfc565b60405180910390fd5b6001600560008473ffffffffffffffffffffffffffffffffffffffff1673ffffffffffffffffffffffffffffffffffffffff16815260200190815260200160002060008282540192505081905550816004600083815260200190815260200160002060006101000a81548173ffffffffffffffffffffffffffffffffffffffff021916908373ffffffffffffffffffffffffffffffffffffffff160217905550808273ffffffffffffffffffffffffffffffffffffffff16600073ffffffffffffffffffffffffffffffffffffffff167fddf252ad1be2c89b69c2b068fc378daa952ba7f163c4a11628f55a4df523b3ef60405160405180910390a46125f8600083836001612d15565b5050565b6001816000016000828254019250508190555050565b6000600f60009054906101000a900473ffffffffffffffffffffffffffffffffffffffff16905081600f60006101000a81548173ffffffffffffffffffffffffffffffffffffffff021916908373ffffffffffffffffffffffffffffffffffffffff1602179055508173ffffffffffffffffffffffffffffffffffffffff168173ffffffffffffffffffffffffffffffffffffffff167f8be0079c531659141344cd1fd0a4f28419497f9722a3daafe3b4186f6b6457e060405160405180910390a35050565b6126e0612efa565b6001600c60006101000a81548160ff0219169083151502179055507f62e78cea01bee320cd4e420270b5ea74000d11b0c9f74754ebdbfc544b05a258612724611c91565b6040516127319190614a1d565b60405180910390a1565b600061274a8360000183612f44565b60001c905092915050565b600081836127639190614f99565b905092915050565b612785828260405180602001604052806000815250612f95565b5050565b8173ffffffffffffffffffffffffffffffffffffffff168373ffffffffffffffffffffffffffffffffffffffff1614156127f8576040517f08c379a00000000000000000000000000000000000000000000000000000000081526004016127ef90614c5c565b60405180910390fd5b80600760008573ffffffffffffffffffffffffffffffffffffffff1673ffffffffffffffffffffffffffffffffffffffff16815260200190815260200160002060008473ffffffffffffffffffffffffffffffffffffffff1673ffffffffffffffffffffffffffffffffffffffff16815260200190815260200160002060006101000a81548160ff0219169083151502179055508173ffffffffffffffffffffffffffffffffffffffff168373ffffffffffffffffffffffffffffffffffffffff167f17307eab39ab6107e8899845ad3d59bd9653f200f220920489ca2b5937696c31836040516128e99190614a84565b60405180910390a3505050565b612901848484611dee565b61290d84848484612ff0565b61294c576040517f08c379a000000000000000000000000000000000000000000000000000000000815260040161294390614b9c565b60405180910390fd5b50505050565b6060600e805461296190615167565b80601f016020809104026020016040519081016040528092919081815260200182805461298d90615167565b80156129da5780601f106129af576101008083540402835291602001916129da565b820191906000526020600020905b8154815290600101906020018083116129bd57829003601f168201915b5050505050905090565b6060600060016129f384613187565b01905060008167ffffffffffffffff811115612a38577f4e487b7100000000000000000000000000000000000000000000000000000000600052604160045260246000fd5b6040519080825280601f01601f191660200182016040528015612a6a5781602001600182028036833780820191505090505b509050600082602001820190505b600115612afd578080600190039150507f3031323334353637383961626364656600000000000000000000000000000000600a86061a8153600a8581612ae7577f4e487b7100000000000000000000000000000000000000000000000000000000600052601260045260246000fd5b0494506000851415612af857612afd565b612a78565b819350505050919050565b6000612b16826000016133be565b9050919050565b6000600760008473ffffffffffffffffffffffffffffffffffffffff1673ffffffffffffffffffffffffffffffffffffffff16815260200190815260200160002060008373ffffffffffffffffffffffffffffffffffffffff1673ffffffffffffffffffffffffffffffffffffffff16815260200190815260200160002060009054906101000a900460ff16905092915050565b6000612bbd83836133cf565b612c16578260000182908060018154018082558091505060019003906000526020600020016000909190919091505582600001805490508360010160008481526020019081526020016000208190555060019050612c1b565b600090505b92915050565b60007f80ac58cd000000000000000000000000000000000000000000000000000000007bffffffffffffffffffffffffffffffffffffffffffffffffffffffff1916827bffffffffffffffffffffffffffffffffffffffffffffffffffffffff19161480612cec57507f5b5e139f000000000000000000000000000000000000000000000000000000007bffffffffffffffffffffffffffffffffffffffffffffffffffffffff1916827bffffffffffffffffffffffffffffffffffffffffffffffffffffffff1916145b80612cfc5750612cfb826133f2565b5b9050919050565b612d0f8484848461346c565b50505050565b50505050565b612d258282611399565b612d9c57612d32816134c6565b612d408360001c60206134f3565b604051602001612d519291906149e3565b6040516020818303038152906040526040517f08c379a0000000000000000000000000000000000000000000000000000000008152600401612d939190614aba565b60405180910390fd5b5050565b612daa8282611399565b15612e7d57600080600084815260200190815260200160002060000160008373ffffffffffffffffffffffffffffffffffffffff1673ffffffffffffffffffffffffffffffffffffffff16815260200190815260200160002060006101000a81548160ff021916908315150217905550612e22611c91565b73ffffffffffffffffffffffffffffffffffffffff168173ffffffffffffffffffffffffffffffffffffffff16837ff6391f5c32d9c69d2a47ea670b442974b53935d1edc7fd64eb21e047a839171b60405160405180910390a45b5050565b6000612ea9836000018373ffffffffffffffffffffffffffffffffffffffff1660001b6137ed565b905092915050565b612eb96110cc565b612ef8576040517f08c379a0000000000000000000000000000000000000000000000000000000008152600401612eef90614b1c565b60405180910390fd5b565b612f026110cc565b15612f42576040517f08c379a0000000000000000000000000000000000000000000000000000000008152600401612f3990614c9c565b60405180910390fd5b565b6000826000018281548110612f82577f4e487b7100000000000000000000000000000000000000000000000000000000600052603260045260246000fd5b9060005260206000200154905092915050565b612f9f83836123de565b612fac6000848484612ff0565b612feb576040517f08c379a0000000000000000000000000000000000000000000000000000000008152600401612fe290614b9c565b60405180910390fd5b505050565b60006130118473ffffffffffffffffffffffffffffffffffffffff16613973565b1561317a578373ffffffffffffffffffffffffffffffffffffffff1663150b7a0261303a611c91565b8786866040518563ffffffff1660e01b815260040161305c9493929190614a38565b602060405180830381600087803b15801561307657600080fd5b505af19250505080156130a757506040513d601f19601f820116820180604052508101906130a491906143cf565b60015b61312a573d80600081146130d7576040519150601f19603f3d011682016040523d82523d6000602084013e6130dc565b606091505b50600081511415613122576040517f08c379a000000000000000000000000000000000000000000000000000000000815260040161311990614b9c565b60405180910390fd5b805181602001fd5b63150b7a0260e01b7bffffffffffffffffffffffffffffffffffffffffffffffffffffffff1916817bffffffffffffffffffffffffffffffffffffffffffffffffffffffff19161491505061317f565b600190505b949350505050565b600080600090507a184f03e93ff9f4daa797ed6e38ed64bf6a1f010000000000000000831061320b577a184f03e93ff9f4daa797ed6e38ed64bf6a1f0100000000000000008381613201577f4e487b7100000000000000000000000000000000000000000000000000000000600052601260045260246000fd5b0492506040810190505b6d04ee2d6d415b85acef8100000000831061326e576d04ee2d6d415b85acef81000000008381613264577f4e487b7100000000000000000000000000000000000000000000000000000000600052601260045260246000fd5b0492506020810190505b662386f26fc1000083106132c357662386f26fc1000083816132b9577f4e487b7100000000000000000000000000000000000000000000000000000000600052601260045260246000fd5b0492506010810190505b6305f5e1008310613312576305f5e1008381613308577f4e487b7100000000000000000000000000000000000000000000000000000000600052601260045260246000fd5b0492506008810190505b612710831061335d576127108381613353577f4e487b7100000000000000000000000000000000000000000000000000000000600052601260045260246000fd5b0492506004810190505b606483106133a6576064838161339c577f4e487b7100000000000000000000000000000000000000000000000000000000600052601260045260246000fd5b0492506002810190505b600a83106133b5576001810190505b80915050919050565b600081600001805490509050919050565b600080836001016000848152602001908152602001600020541415905092915050565b60007f5a05180f000000000000000000000000000000000000000000000000000000007bffffffffffffffffffffffffffffffffffffffffffffffffffffffff1916827bffffffffffffffffffffffffffffffffffffffffffffffffffffffff19161480613465575061346482613996565b5b9050919050565b61347884848484613a10565b6134806110cc565b156134c0576040517f08c379a00000000000000000000000000000000000000000000000000000000081526004016134b790614afc565b60405180910390fd5b50505050565b60606134ec8273ffffffffffffffffffffffffffffffffffffffff16601460ff166134f3565b9050919050565b6060600060028360026135069190614fef565b6135109190614f99565b67ffffffffffffffff81111561354f577f4e487b7100000000000000000000000000000000000000000000000000000000600052604160045260246000fd5b6040519080825280601f01601f1916602001820160405280156135815781602001600182028036833780820191505090505b5090507f3000000000000000000000000000000000000000000000000000000000000000816000815181106135df577f4e487b7100000000000000000000000000000000000000000000000000000000600052603260045260246000fd5b60200101907effffffffffffffffffffffffffffffffffffffffffffffffffffffffffffff1916908160001a9053507f780000000000000000000000000000000000000000000000000000000000000081600181518110613669577f4e487b7100000000000000000000000000000000000000000000000000000000600052603260045260246000fd5b60200101907effffffffffffffffffffffffffffffffffffffffffffffffffffffffffffff1916908160001a905350600060018460026136a99190614fef565b6136b39190614f99565b90505b600181111561379f577f3031323334353637383961626364656600000000000000000000000000000000600f86166010811061371b577f4e487b7100000000000000000000000000000000000000000000000000000000600052603260045260246000fd5b1a60f81b828281518110613758577f4e487b7100000000000000000000000000000000000000000000000000000000600052603260045260246000fd5b60200101907effffffffffffffffffffffffffffffffffffffffffffffffffffffffffffff1916908160001a905350600485901c9450806137989061513d565b90506136b6565b50600084146137e3576040517f08c379a00000000000000000000000000000000000000000000000000000000081526004016137da90614adc565b60405180910390fd5b8091505092915050565b6000808360010160008481526020019081526020016000205490506000811461396757600060018261381f9190615049565b90506000600186600001805490506138379190615049565b90508181146138f257600086600001828154811061387e577f4e487b7100000000000000000000000000000000000000000000000000000000600052603260045260246000fd5b90600052602060002001549050808760000184815481106138c8577f4e487b7100000000000000000000000000000000000000000000000000000000600052603260045260246000fd5b90600052602060002001819055508387600101600083815260200190815260200160002081905550505b8560000180548061392c577f4e487b7100000000000000000000000000000000000000000000000000000000600052603160045260246000fd5b60019003818190600052602060002001600090559055856001016000868152602001908152602001600020600090556001935050505061396d565b60009150505b92915050565b6000808273ffffffffffffffffffffffffffffffffffffffff163b119050919050565b60007f7965db0b000000000000000000000000000000000000000000000000000000007bffffffffffffffffffffffffffffffffffffffffffffffffffffffff1916827bffffffffffffffffffffffffffffffffffffffffffffffffffffffff19161480613a095750613a0882613b70565b5b9050919050565b613a1c84848484613bda565b6001811115613a60576040517f08c379a0000000000000000000000000000000000000000000000000000000008152600401613a5790614dfc565b60405180910390fd5b6000829050600073ffffffffffffffffffffffffffffffffffffffff168573ffffffffffffffffffffffffffffffffffffffff161415613aa857613aa381613d00565b613ae7565b8373ffffffffffffffffffffffffffffffffffffffff168573ffffffffffffffffffffffffffffffffffffffff1614613ae657613ae58582613d49565b5b5b600073ffffffffffffffffffffffffffffffffffffffff168473ffffffffffffffffffffffffffffffffffffffff161415613b2a57613b2581613eb6565b613b69565b8473ffffffffffffffffffffffffffffffffffffffff168473ffffffffffffffffffffffffffffffffffffffff1614613b6857613b678482613ff9565b5b5b5050505050565b60007f01ffc9a7000000000000000000000000000000000000000000000000000000007bffffffffffffffffffffffffffffffffffffffffffffffffffffffff1916827bffffffffffffffffffffffffffffffffffffffffffffffffffffffff1916149050919050565b6001811115613cfa57600073ffffffffffffffffffffffffffffffffffffffff168473ffffffffffffffffffffffffffffffffffffffff1614613c6e5780600560008673ffffffffffffffffffffffffffffffffffffffff1673ffffffffffffffffffffffffffffffffffffffff1681526020019081526020016000206000828254613c669190615049565b925050819055505b600073ffffffffffffffffffffffffffffffffffffffff168373ffffffffffffffffffffffffffffffffffffffff1614613cf95780600560008573ffffffffffffffffffffffffffffffffffffffff1673ffffffffffffffffffffffffffffffffffffffff1681526020019081526020016000206000828254613cf19190614f99565b925050819055505b5b50505050565b600a80549050600b600083815260200190815260200160002081905550600a81908060018154018082558091505060019003906000526020600020016000909190919091505550565b60006001613d56846111fa565b613d609190615049565b9050600060096000848152602001908152602001600020549050818114613e45576000600860008673ffffffffffffffffffffffffffffffffffffffff1673ffffffffffffffffffffffffffffffffffffffff168152602001908152602001600020600084815260200190815260200160002054905080600860008773ffffffffffffffffffffffffffffffffffffffff1673ffffffffffffffffffffffffffffffffffffffff168152602001908152602001600020600084815260200190815260200160002081905550816009600083815260200190815260200160002081905550505b6009600084815260200190815260200160002060009055600860008573ffffffffffffffffffffffffffffffffffffffff1673ffffffffffffffffffffffffffffffffffffffff16815260200190815260200160002060008381526020019081526020016000206000905550505050565b60006001600a80549050613eca9190615049565b90506000600b60008481526020019081526020016000205490506000600a8381548110613f20577f4e487b7100000000000000000000000000000000000000000000000000000000600052603260045260246000fd5b9060005260206000200154905080600a8381548110613f68577f4e487b7100000000000000000000000000000000000000000000000000000000600052603260045260246000fd5b906000526020600020018190555081600b600083815260200190815260200160002081905550600b600085815260200190815260200160002060009055600a805480613fdd577f4e487b7100000000000000000000000000000000000000000000000000000000600052603160045260246000fd5b6001900381819060005260206000200160009055905550505050565b6000614004836111fa565b905081600860008573ffffffffffffffffffffffffffffffffffffffff1673ffffffffffffffffffffffffffffffffffffffff168152602001908152602001600020600083815260200190815260200160002081905550806009600084815260200190815260200160002081905550505050565b600061408b61408684614f25565b614f00565b9050828152602081018484840111156140a357600080fd5b6140ae8482856150fb565b509392505050565b6000813590506140c581615a5a565b92915050565b6000813590506140da81615a71565b92915050565b6000813590506140ef81615a88565b92915050565b60008135905061410481615a9f565b92915050565b60008151905061411981615a9f565b92915050565b600082601f83011261413057600080fd5b8135614140848260208601614078565b91505092915050565b60008135905061415881615ab6565b92915050565b60006020828403121561417057600080fd5b600061417e848285016140b6565b91505092915050565b6000806040838503121561419a57600080fd5b60006141a8858286016140b6565b92505060206141b9858286016140b6565b9150509250929050565b6000806000606084860312156141d857600080fd5b60006141e6868287016140b6565b93505060206141f7868287016140b6565b925050604061420886828701614149565b9150509250925092565b6000806000806080858703121561422857600080fd5b6000614236878288016140b6565b9450506020614247878288016140b6565b935050604061425887828801614149565b925050606085013567ffffffffffffffff81111561427557600080fd5b6142818782880161411f565b91505092959194509250565b600080604083850312156142a057600080fd5b60006142ae858286016140b6565b92505060206142bf858286016140cb565b9150509250929050565b600080604083850312156142dc57600080fd5b60006142ea858286016140b6565b92505060206142fb85828601614149565b9150509250929050565b60006020828403121561431757600080fd5b6000614325848285016140e0565b91505092915050565b6000806040838503121561434157600080fd5b600061434f858286016140e0565b9250506020614360858286016140b6565b9150509250929050565b6000806040838503121561437d57600080fd5b600061438b858286016140e0565b925050602061439c85828601614149565b9150509250929050565b6000602082840312156143b857600080fd5b60006143c6848285016140f5565b91505092915050565b6000602082840312156143e157600080fd5b60006143ef8482850161410a565b91505092915050565b60006020828403121561440a57600080fd5b600061441884828501614149565b91505092915050565b6000806040838503121561443457600080fd5b600061444285828601614149565b9250506020614453858286016140b6565b9150509250929050565b6144668161507d565b82525050565b6144758161508f565b82525050565b6144848161509b565b82525050565b600061449582614f56565b61449f8185614f6c565b93506144af81856020860161510a565b6144b8816152a0565b840191505092915050565b60006144ce82614f61565b6144d88185614f7d565b93506144e881856020860161510a565b6144f1816152a0565b840191505092915050565b600061450782614f61565b6145118185614f8e565b935061452181856020860161510a565b80840191505092915050565b600061453a602083614f7d565b9150614545826152b1565b602082019050919050565b600061455d602b83614f7d565b9150614568826152da565b604082019050919050565b6000614580601483614f7d565b915061458b82615329565b602082019050919050565b60006145a3601383614f7d565b91506145ae82615352565b602082019050919050565b60006145c6602d83614f7d565b91506145d18261537b565b604082019050919050565b60006145e9602b83614f7d565b91506145f4826153ca565b604082019050919050565b600061460c603283614f7d565b915061461782615419565b604082019050919050565b600061462f602683614f7d565b915061463a82615468565b604082019050919050565b6000614652602583614f7d565b915061465d826154b7565b604082019050919050565b6000614675601c83614f7d565b915061468082615506565b602082019050919050565b6000614698603e83614f7d565b91506146a38261552f565b604082019050919050565b60006146bb602483614f7d565b91506146c68261557e565b604082019050919050565b60006146de601983614f7d565b91506146e9826155cd565b602082019050919050565b6000614701600883614f7d565b915061470c826155f6565b602082019050919050565b6000614724601083614f7d565b915061472f8261561f565b602082019050919050565b6000614747602983614f7d565b915061475282615648565b604082019050919050565b600061476a601f83614f7d565b915061477582615697565b602082019050919050565b600061478d601783614f7d565b9150614798826156c0565b602082019050919050565b60006147b0602083614f7d565b91506147bb826156e9565b602082019050919050565b60006147d3602083614f7d565b91506147de82615712565b602082019050919050565b60006147f6600983614f7d565b91506148018261573b565b602082019050919050565b6000614819601883614f7d565b915061482482615764565b602082019050919050565b600061483c602183614f7d565b91506148478261578d565b604082019050919050565b600061485f603d83614f7d565b915061486a826157dc565b604082019050919050565b6000614882602c83614f7d565b915061488d8261582b565b604082019050919050565b60006148a5601783614f8e565b91506148b08261587a565b601782019050919050565b60006148c8603583614f7d565b91506148d3826158a3565b604082019050919050565b60006148eb600b83614f7d565b91506148f6826158f2565b602082019050919050565b600061490e603d83614f7d565b91506149198261591b565b604082019050919050565b6000614931601283614f7d565b915061493c8261596a565b602082019050919050565b6000614954604083614f7d565b915061495f82615993565b604082019050919050565b6000614977601183614f8e565b9150614982826159e2565b601182019050919050565b600061499a602f83614f7d565b91506149a582615a0b565b604082019050919050565b6149b9816150f1565b82525050565b60006149cb82856144fc565b91506149d782846144fc565b91508190509392505050565b60006149ee82614898565b91506149fa82856144fc565b9150614a058261496a565b9150614a1182846144fc565b91508190509392505050565b6000602082019050614a32600083018461445d565b92915050565b6000608082019050614a4d600083018761445d565b614a5a602083018661445d565b614a6760408301856149b0565b8181036060830152614a79818461448a565b905095945050505050565b6000602082019050614a99600083018461446c565b92915050565b6000602082019050614ab4600083018461447b565b92915050565b60006020820190508181036000830152614ad481846144c3565b905092915050565b60006020820190508181036000830152614af58161452d565b9050919050565b60006020820190508181036000830152614b1581614550565b9050919050565b60006020820190508181036000830152614b3581614573565b9050919050565b60006020820190508181036000830152614b5581614596565b9050919050565b60006020820190508181036000830152614b75816145b9565b9050919050565b60006020820190508181036000830152614b95816145dc565b9050919050565b60006020820190508181036000830152614bb5816145ff565b9050919050565b60006020820190508181036000830152614bd581614622565b9050919050565b60006020820190508181036000830152614bf581614645565b9050919050565b60006020820190508181036000830152614c1581614668565b9050919050565b60006020820190508181036000830152614c358161468b565b9050919050565b60006020820190508181036000830152614c55816146ae565b9050919050565b60006020820190508181036000830152614c75816146d1565b9050919050565b60006020820190508181036000830152614c95816146f4565b9050919050565b60006020820190508181036000830152614cb581614717565b9050919050565b60006020820190508181036000830152614cd58161473a565b9050919050565b60006020820190508181036000830152614cf58161475d565b9050919050565b60006020820190508181036000830152614d1581614780565b9050919050565b60006020820190508181036000830152614d35816147a3565b9050919050565b60006020820190508181036000830152614d55816147c6565b9050919050565b60006020820190508181036000830152614d75816147e9565b9050919050565b60006020820190508181036000830152614d958161480c565b9050919050565b60006020820190508181036000830152614db58161482f565b9050919050565b60006020820190508181036000830152614dd581614852565b9050919050565b60006020820190508181036000830152614df581614875565b9050919050565b60006020820190508181036000830152614e15816148bb565b9050919050565b60006020820190508181036000830152614e35816148de565b9050919050565b60006020820190508181036000830152614e5581614901565b9050919050565b60006020820190508181036000830152614e7581614924565b9050919050565b60006020820190508181036000830152614e9581614947565b9050919050565b60006020820190508181036000830152614eb58161498d565b9050919050565b6000602082019050614ed160008301846149b0565b92915050565b6000604082019050614eec60008301856149b0565b614ef9602083018461445d565b9392505050565b6000614f0a614f1b565b9050614f168282615199565b919050565b6000604051905090565b600067ffffffffffffffff821115614f4057614f3f615271565b5b614f49826152a0565b9050602081019050919050565b600081519050919050565b600081519050919050565b600082825260208201905092915050565b600082825260208201905092915050565b600081905092915050565b6000614fa4826150f1565b9150614faf836150f1565b9250827fffffffffffffffffffffffffffffffffffffffffffffffffffffffffffffffff03821115614fe457614fe3615213565b5b828201905092915050565b6000614ffa826150f1565b9150615005836150f1565b9250817fffffffffffffffffffffffffffffffffffffffffffffffffffffffffffffffff048311821515161561503e5761503d615213565b5b828202905092915050565b6000615054826150f1565b915061505f836150f1565b92508282101561507257615071615213565b5b828203905092915050565b6000615088826150d1565b9050919050565b60008115159050919050565b6000819050919050565b60007fffffffff0000000000000000000000000000000000000000000000000000000082169050919050565b600073ffffffffffffffffffffffffffffffffffffffff82169050919050565b6000819050919050565b82818337600083830152505050565b60005b8381101561512857808201518184015260208101905061510d565b83811115615137576000848401525b50505050565b6000615148826150f1565b9150600082141561515c5761515b615213565b5b600182039050919050565b6000600282049050600182168061517f57607f821691505b6020821081141561519357615192615242565b5b50919050565b6151a2826152a0565b810181811067ffffffffffffffff821117156151c1576151c0615271565b5b80604052505050565b60006151d5826150f1565b91507fffffffffffffffffffffffffffffffffffffffffffffffffffffffffffffffff82141561520857615207615213565b5b600182019050919050565b7f4e487b7100000000000000000000000000000000000000000000000000000000600052601160045260246000fd5b7f4e487b7100000000000000000000000000000000000000000000000000000000600052602260045260246000fd5b7f4e487b7100000000000000000000000000000000000000000000000000000000600052604160045260246000fd5b6000601f19601f8301169050919050565b7f537472696e67733a20686578206c656e67746820696e73756666696369656e74600082015250565b7f4552433732315061757361626c653a20746f6b656e207472616e73666572207760008201527f68696c6520706175736564000000000000000000000000000000000000000000602082015250565b7f5061757361626c653a206e6f7420706175736564000000000000000000000000600082015250565b7f73616c65206861736e2774207374617274656400000000000000000000000000600082015250565b7f4552433732313a2063616c6c6572206973206e6f7420746f6b656e206f776e6560008201527f72206f7220617070726f76656400000000000000000000000000000000000000602082015250565b7f455243373231456e756d657261626c653a206f776e657220696e646578206f7560008201527f74206f6620626f756e6473000000000000000000000000000000000000000000602082015250565b7f4552433732313a207472616e7366657220746f206e6f6e20455243373231526560008201527f63656976657220696d706c656d656e7465720000000000000000000000000000602082015250565b7f4f776e61626c653a206e6577206f776e657220697320746865207a65726f206160008201527f6464726573730000000000000000000000000000000000000000000000000000602082015250565b7f4552433732313a207472616e736665722066726f6d20696e636f72726563742060008201527f6f776e6572000000000000000000000000000000000000000000000000000000602082015250565b7f4552433732313a20746f6b656e20616c7265616479206d696e74656400000000600082015250565b7f4552433732315072657365744d696e7465725061757365724175746f49643a2060008201527f6d75737420686176652070617573657220726f6c6520746f2070617573650000602082015250565b7f4552433732313a207472616e7366657220746f20746865207a65726f2061646460008201527f7265737300000000000000000000000000000000000000000000000000000000602082015250565b7f4552433732313a20617070726f766520746f2063616c6c657200000000000000600082015250565b7f736f6c64206f7574000000000000000000000000000000000000000000000000600082015250565b7f5061757361626c653a2070617573656400000000000000000000000000000000600082015250565b7f4552433732313a2061646472657373207a65726f206973206e6f74206120766160008201527f6c6964206f776e65720000000000000000000000000000000000000000000000602082015250565b7f6f6e6c79206f776e65722063616e2073657420707269636520746f206d697400600082015250565b7f7175616e746974792063616e6e6f74206265207a65726f000000000000000000600082015250565b7f4552433732313a206d696e7420746f20746865207a65726f2061646472657373600082015250565b7f4f776e61626c653a2063616c6c6572206973206e6f7420746865206f776e6572600082015250565b7f6578636565647320330000000000000000000000000000000000000000000000600082015250565b7f4552433732313a20696e76616c696420746f6b656e2049440000000000000000600082015250565b7f4552433732313a20617070726f76616c20746f2063757272656e74206f776e6560008201527f7200000000000000000000000000000000000000000000000000000000000000602082015250565b7f4552433732313a20617070726f76652063616c6c6572206973206e6f7420746f60008201527f6b656e206f776e6572206f7220617070726f76656420666f7220616c6c000000602082015250565b7f455243373231456e756d657261626c653a20676c6f62616c20696e646578206f60008201527f7574206f6620626f756e64730000000000000000000000000000000000000000602082015250565b7f416363657373436f6e74726f6c3a206163636f756e7420000000000000000000600082015250565b7f455243373231456e756d657261626c653a20636f6e736563757469766520747260008201527f616e7366657273206e6f7420737570706f727465640000000000000000000000602082015250565b7f70617920746f206d696e74000000000000000000000000000000000000000000600082015250565b7f4552433732315072657365744d696e7465725061757365724175746f49643a2060008201527f6d7573742068617665206d696e74657220726f6c6520746f206d696e74000000602082015250565b7f707269636520706f73697469766520706c730000000000000000000000000000600082015250565b7f4552433732315072657365744d696e7465725061757365724175746f49643a2060008201527f6d75737420686176652070617573657220726f6c6520746f20756e7061757365602082015250565b7f206973206d697373696e6720726f6c6520000000000000000000000000000000600082015250565b7f416363657373436f6e74726f6c3a2063616e206f6e6c792072656e6f756e636560008201527f20726f6c657320666f722073656c660000000000000000000000000000000000602082015250565b615a638161507d565b8114615a6e57600080fd5b50565b615a7a8161508f565b8114615a8557600080fd5b50565b615a918161509b565b8114615a9c57600080fd5b50565b615aa8816150a5565b8114615ab357600080fd5b50565b615abf816150f1565b8114615aca57600080fd5b5056fea2646970667358221220c6a2fb6021e69d43a9e25d9e832c038f7b5a5512bfe6dbef9e7aaf348c81c7d464736f6c6343000804003368747470733a2f2f6e66742e616c6563747269636f2e776f726b6572732e6465762f",
  "linkReferences": {},
  "deployedLinkReferences": {}
}