{
  "_format": "hh-sol-artifact-1",
  "contractName": "TokenBat",
  "sourceName": "contracts/TokenBat.sol",
  "abi": [
    {
      "inputs": [],
      "stateMutability": "nonpayable",
      "type": "constructor"
    },
    {
      "anonymous": false,
      "inputs": [
        {
          "indexed": true,
          "internalType": "address",
          "name": "owner",
          "type": "address"
        },
        {
          "indexed": true,
          "internalType": "address",
          "name": "approved",
          "type": "address"
        },
        {
          "indexed": true,
          "internalType": "uint256",
          "name": "tokenId",
          "type": "uint256"
        }
      ],
      "name": "Approval",
      "type": "event"
    },
    {
      "anonymous": false,
      "inputs": [
        {
          "indexed": true,
          "internalType": "address",
          "name": "owner",
          "type": "address"
        },
        {
          "indexed": true,
          "internalType": "address",
          "name": "operator",
          "type": "address"
        },
        {
          "indexed": false,
          "internalType": "bool",
          "name": "approved",
          "type": "bool"
        }
      ],
      "name": "ApprovalForAll",
      "type": "event"
    },
    {
      "anonymous": false,
      "inputs": [
        {
          "indexed": false,
          "internalType": "uint256",
          "name": "tokenId",
          "type": "uint256"
        },
        {
          "indexed": false,
          "internalType": "address",
          "name": "owner",
          "type": "address"
        }
      ],
      "name": "Minted",
      "type": "event"
    },
    {
      "anonymous": false,
      "inputs": [
        {
          "indexed": true,
          "internalType": "address",
          "name": "previousOwner",
          "type": "address"
        },
        {
          "indexed": true,
          "internalType": "address",
          "name": "newOwner",
          "type": "address"
        }
      ],
      "name": "OwnershipTransferred",
      "type": "event"
    },
    {
      "anonymous": false,
      "inputs": [
        {
          "indexed": false,
          "internalType": "address",
          "name": "account",
          "type": "address"
        }
      ],
      "name": "Paused",
      "type": "event"
    },
    {
      "anonymous": false,
      "inputs": [
        {
          "indexed": false,
          "internalType": "uint256",
          "name": "tokenId",
          "type": "uint256"
        },
        {
          "indexed": false,
          "internalType": "address",
          "name": "owner",
          "type": "address"
        }
      ],
      "name": "Redeemed",
      "type": "event"
    },
    {
      "anonymous": false,
      "inputs": [
        {
          "indexed": true,
          "internalType": "bytes32",
          "name": "role",
          "type": "bytes32"
        },
        {
          "indexed": true,
          "internalType": "bytes32",
          "name": "previousAdminRole",
          "type": "bytes32"
        },
        {
          "indexed": true,
          "internalType": "bytes32",
          "name": "newAdminRole",
          "type": "bytes32"
        }
      ],
      "name": "RoleAdminChanged",
      "type": "event"
    },
    {
      "anonymous": false,
      "inputs": [
        {
          "indexed": true,
          "internalType": "bytes32",
          "name": "role",
          "type": "bytes32"
        },
        {
          "indexed": true,
          "internalType": "address",
          "name": "account",
          "type": "address"
        },
        {
          "indexed": true,
          "internalType": "address",
          "name": "sender",
          "type": "address"
        }
      ],
      "name": "RoleGranted",
      "type": "event"
    },
    {
      "anonymous": false,
      "inputs": [
        {
          "indexed": true,
          "internalType": "bytes32",
          "name": "role",
          "type": "bytes32"
        },
        {
          "indexed": true,
          "internalType": "address",
          "name": "account",
          "type": "address"
        },
        {
          "indexed": true,
          "internalType": "address",
          "name": "sender",
          "type": "address"
        }
      ],
      "name": "RoleRevoked",
      "type": "event"
    },
    {
      "anonymous": false,
      "inputs": [
        {
          "indexed": true,
          "internalType": "address",
          "name": "from",
          "type": "address"
        },
        {
          "indexed": true,
          "internalType": "address",
          "name": "to",
          "type": "address"
        },
        {
          "indexed": true,
          "internalType": "uint256",
          "name": "tokenId",
          "type": "uint256"
        }
      ],
      "name": "Transfer",
      "type": "event"
    },
    {
      "anonymous": false,
      "inputs": [
        {
          "indexed": false,
          "internalType": "address",
          "name": "account",
          "type": "address"
        }
      ],
      "name": "Unpaused",
      "type": "event"
    },
    {
      "inputs": [],
      "name": "DEFAULT_ADMIN_ROLE",
      "outputs": [
        {
          "internalType": "bytes32",
          "name": "",
          "type": "bytes32"
        }
      ],
      "stateMutability": "view",
      "type": "function"
    },
    {
      "inputs": [],
      "name": "MAX_TOKENS",
      "outputs": [
        {
          "internalType": "uint256",
          "name": "",
          "type": "uint256"
        }
      ],
      "stateMutability": "view",
      "type": "function"
    },
    {
      "inputs": [],
      "name": "MINTER_ROLE",
      "outputs": [
        {
          "internalType": "bytes32",
          "name": "",
          "type": "bytes32"
        }
      ],
      "stateMutability": "view",
      "type": "function"
    },
    {
      "inputs": [],
      "name": "PAUSER_ROLE",
      "outputs": [
        {
          "internalType": "bytes32",
          "name": "",
          "type": "bytes32"
        }
      ],
      "stateMutability": "view",
      "type": "function"
    },
    {
      "inputs": [
        {
          "internalType": "address",
          "name": "to",
          "type": "address"
        },
        {
          "internalType": "uint256",
          "name": "tokenId",
          "type": "uint256"
        }
      ],
      "name": "approve",
      "outputs": [],
      "stateMutability": "nonpayable",
      "type": "function"
    },
    {
      "inputs": [
        {
          "internalType": "address",
          "name": "owner",
          "type": "address"
        }
      ],
      "name": "balanceOf",
      "outputs": [
        {
          "internalType": "uint256",
          "name": "",
          "type": "uint256"
        }
      ],
      "stateMutability": "view",
      "type": "function"
    },
    {
      "inputs": [
        {
          "internalType": "uint256",
          "name": "tokenId",
          "type": "uint256"
        }
      ],
      "name": "burn",
      "outputs": [],
      "stateMutability": "nonpayable",
      "type": "function"
    },
    {
      "inputs": [],
      "name": "debe",
      "outputs": [
        {
          "internalType": "uint256",
          "name": "",
          "type": "uint256"
        }
      ],
      "stateMutability": "view",
      "type": "function"
    },
    {
      "inputs": [
        {
          "internalType": "uint256",
          "name": "tokenId",
          "type": "uint256"
        }
      ],
      "name": "getApproved",
      "outputs": [
        {
          "internalType": "address",
          "name": "",
          "type": "address"
        }
      ],
      "stateMutability": "view",
      "type": "function"
    },
    {
      "inputs": [
        {
          "internalType": "bytes32",
          "name": "role",
          "type": "bytes32"
        }
      ],
      "name": "getRoleAdmin",
      "outputs": [
        {
          "internalType": "bytes32",
          "name": "",
          "type": "bytes32"
        }
      ],
      "stateMutability": "view",
      "type": "function"
    },
    {
      "inputs": [
        {
          "internalType": "bytes32",
          "name": "role",
          "type": "bytes32"
        },
        {
          "internalType": "uint256",
          "name": "index",
          "type": "uint256"
        }
      ],
      "name": "getRoleMember",
      "outputs": [
        {
          "internalType": "address",
          "name": "",
          "type": "address"
        }
      ],
      "stateMutability": "view",
      "type": "function"
    },
    {
      "inputs": [
        {
          "internalType": "bytes32",
          "name": "role",
          "type": "bytes32"
        }
      ],
      "name": "getRoleMemberCount",
      "outputs": [
        {
          "internalType": "uint256",
          "name": "",
          "type": "uint256"
        }
      ],
      "stateMutability": "view",
      "type": "function"
    },
    {
      "inputs": [
        {
          "internalType": "bytes32",
          "name": "role",
          "type": "bytes32"
        },
        {
          "internalType": "address",
          "name": "account",
          "type": "address"
        }
      ],
      "name": "grantRole",
      "outputs": [],
      "stateMutability": "nonpayable",
      "type": "function"
    },
    {
      "inputs": [],
      "name": "haber",
      "outputs": [
        {
          "internalType": "uint256",
          "name": "",
          "type": "uint256"
        }
      ],
      "stateMutability": "view",
      "type": "function"
    },
    {
      "inputs": [
        {
          "internalType": "bytes32",
          "name": "role",
          "type": "bytes32"
        },
        {
          "internalType": "address",
          "name": "account",
          "type": "address"
        }
      ],
      "name": "hasRole",
      "outputs": [
        {
          "internalType": "bool",
          "name": "",
          "type": "bool"
        }
      ],
      "stateMutability": "view",
      "type": "function"
    },
    {
      "inputs": [],
      "name": "hasSaleStarted",
      "outputs": [
        {
          "internalType": "bool",
          "name": "",
          "type": "bool"
        }
      ],
      "stateMutability": "view",
      "type": "function"
    },
    {
      "inputs": [],
      "name": "hasSoldOut",
      "outputs": [
        {
          "internalType": "bool",
          "name": "",
          "type": "bool"
        }
      ],
      "stateMutability": "view",
      "type": "function"
    },
    {
      "inputs": [
        {
          "internalType": "address",
          "name": "_owner",
          "type": "address"
        },
        {
          "internalType": "address",
          "name": "_operator",
          "type": "address"
        }
      ],
      "name": "isApprovedForAll",
      "outputs": [
        {
          "internalType": "bool",
          "name": "isOperator",
          "type": "bool"
        }
      ],
      "stateMutability": "view",
      "type": "function"
    },
    {
      "inputs": [
        {
          "internalType": "address",
          "name": "to",
          "type": "address"
        }
      ],
      "name": "mint",
      "outputs": [],
      "stateMutability": "nonpayable",
      "type": "function"
    },
    {
      "inputs": [
        {
          "internalType": "uint256",
          "name": "quantity",
          "type": "uint256"
        },
        {
          "internalType": "address",
          "name": "receiver",
          "type": "address"
        }
      ],
      "name": "mintToken",
      "outputs": [],
      "stateMutability": "payable",
      "type": "function"
    },
    {
      "inputs": [],
      "name": "name",
      "outputs": [
        {
          "internalType": "string",
          "name": "",
          "type": "string"
        }
      ],
      "stateMutability": "view",
      "type": "function"
    },
    {
      "inputs": [],
      "name": "owner",
      "outputs": [
        {
          "internalType": "address",
          "name": "",
          "type": "address"
        }
      ],
      "stateMutability": "view",
      "type": "function"
    },
    {
      "inputs": [
        {
          "internalType": "uint256",
          "name": "tokenId",
          "type": "uint256"
        }
      ],
      "name": "ownerOf",
      "outputs": [
        {
          "internalType": "address",
          "name": "",
          "type": "address"
        }
      ],
      "stateMutability": "view",
      "type": "function"
    },
    {
      "inputs": [],
      "name": "pause",
      "outputs": [],
      "stateMutability": "nonpayable",
      "type": "function"
    },
    {
      "inputs": [],
      "name": "pauseSale",
      "outputs": [],
      "stateMutability": "nonpayable",
      "type": "function"
    },
    {
      "inputs": [],
      "name": "paused",
      "outputs": [
        {
          "internalType": "bool",
          "name": "",
          "type": "bool"
        }
      ],
      "stateMutability": "view",
      "type": "function"
    },
    {
      "inputs": [],
      "name": "priceToPay",
      "outputs": [
        {
          "internalType": "uint256",
          "name": "",
          "type": "uint256"
        }
      ],
      "stateMutability": "view",
      "type": "function"
    },
    {
      "inputs": [
        {
          "internalType": "uint256",
          "name": "_tokenId",
          "type": "uint256"
        },
        {
          "internalType": "address",
          "name": "receiver",
          "type": "address"
        }
      ],
      "name": "redeemToken",
      "outputs": [],
      "stateMutability": "nonpayable",
      "type": "function"
    },
    {
      "inputs": [],
      "name": "renounceOwnership",
      "outputs": [],
      "stateMutability": "nonpayable",
      "type": "function"
    },
    {
      "inputs": [
        {
          "internalType": "bytes32",
          "name": "role",
          "type": "bytes32"
        },
        {
          "internalType": "address",
          "name": "account",
          "type": "address"
        }
      ],
      "name": "renounceRole",
      "outputs": [],
      "stateMutability": "nonpayable",
      "type": "function"
    },
    {
      "inputs": [
        {
          "internalType": "bytes32",
          "name": "role",
          "type": "bytes32"
        },
        {
          "internalType": "address",
          "name": "account",
          "type": "address"
        }
      ],
      "name": "revokeRole",
      "outputs": [],
      "stateMutability": "nonpayable",
      "type": "function"
    },
    {
      "inputs": [
        {
          "internalType": "address",
          "name": "from",
          "type": "address"
        },
        {
          "internalType": "address",
          "name": "to",
          "type": "address"
        },
        {
          "internalType": "uint256",
          "name": "tokenId",
          "type": "uint256"
        }
      ],
      "name": "safeTransferFrom",
      "outputs": [],
      "stateMutability": "nonpayable",
      "type": "function"
    },
    {
      "inputs": [
        {
          "internalType": "address",
          "name": "from",
          "type": "address"
        },
        {
          "internalType": "address",
          "name": "to",
          "type": "address"
        },
        {
          "internalType": "uint256",
          "name": "tokenId",
          "type": "uint256"
        },
        {
          "internalType": "bytes",
          "name": "data",
          "type": "bytes"
        }
      ],
      "name": "safeTransferFrom",
      "outputs": [],
      "stateMutability": "nonpayable",
      "type": "function"
    },
    {
      "inputs": [
        {
          "internalType": "address payable",
          "name": "_to",
          "type": "address"
        },
        {
          "internalType": "uint256",
          "name": "_priceToPay",
          "type": "uint256"
        }
      ],
      "name": "sendEther",
      "outputs": [
        {
          "internalType": "bool",
          "name": "",
          "type": "bool"
        }
      ],
      "stateMutability": "payable",
      "type": "function"
    },
    {
      "inputs": [
        {
          "internalType": "address",
          "name": "operator",
          "type": "address"
        },
        {
          "internalType": "bool",
          "name": "approved",
          "type": "bool"
        }
      ],
      "name": "setApprovalForAll",
      "outputs": [],
      "stateMutability": "nonpayable",
      "type": "function"
    },
    {
      "inputs": [],
      "name": "startSale",
      "outputs": [],
      "stateMutability": "nonpayable",
      "type": "function"
    },
    {
      "inputs": [
        {
          "internalType": "bytes4",
          "name": "interfaceId",
          "type": "bytes4"
        }
      ],
      "name": "supportsInterface",
      "outputs": [
        {
          "internalType": "bool",
          "name": "",
          "type": "bool"
        }
      ],
      "stateMutability": "view",
      "type": "function"
    },
    {
      "inputs": [],
      "name": "symbol",
      "outputs": [
        {
          "internalType": "string",
          "name": "",
          "type": "string"
        }
      ],
      "stateMutability": "view",
      "type": "function"
    },
    {
      "inputs": [
        {
          "internalType": "uint256",
          "name": "index",
          "type": "uint256"
        }
      ],
      "name": "tokenByIndex",
      "outputs": [
        {
          "internalType": "uint256",
          "name": "",
          "type": "uint256"
        }
      ],
      "stateMutability": "view",
      "type": "function"
    },
    {
      "inputs": [
        {
          "internalType": "uint256",
          "name": "tokenId",
          "type": "uint256"
        }
      ],
      "name": "tokenExists",
      "outputs": [
        {
          "internalType": "bool",
          "name": "",
          "type": "bool"
        }
      ],
      "stateMutability": "view",
      "type": "function"
    },
    {
      "inputs": [
        {
          "internalType": "address",
          "name": "owner",
          "type": "address"
        },
        {
          "internalType": "uint256",
          "name": "index",
          "type": "uint256"
        }
      ],
      "name": "tokenOfOwnerByIndex",
      "outputs": [
        {
          "internalType": "uint256",
          "name": "",
          "type": "uint256"
        }
      ],
      "stateMutability": "view",
      "type": "function"
    },
    {
      "inputs": [
        {
          "internalType": "uint256",
          "name": "tokenId",
          "type": "uint256"
        }
      ],
      "name": "tokenURI",
      "outputs": [
        {
          "internalType": "string",
          "name": "",
          "type": "string"
        }
      ],
      "stateMutability": "view",
      "type": "function"
    },
    {
      "inputs": [],
      "name": "totalSupply",
      "outputs": [
        {
          "internalType": "uint256",
          "name": "",
          "type": "uint256"
        }
      ],
      "stateMutability": "view",
      "type": "function"
    },
    {
      "inputs": [
        {
          "internalType": "address",
          "name": "from",
          "type": "address"
        },
        {
          "internalType": "address",
          "name": "to",
          "type": "address"
        },
        {
          "internalType": "uint256",
          "name": "tokenId",
          "type": "uint256"
        }
      ],
      "name": "transferFrom",
      "outputs": [],
      "stateMutability": "nonpayable",
      "type": "function"
    },
    {
      "inputs": [
        {
          "internalType": "address",
          "name": "newOwner",
          "type": "address"
        }
      ],
      "name": "transferOwnership",
      "outputs": [],
      "stateMutability": "nonpayable",
      "type": "function"
    },
    {
      "inputs": [],
      "name": "unpause",
      "outputs": [],
      "stateMutability": "nonpayable",
      "type": "function"
    },
    {
      "inputs": [
        {
          "internalType": "address payable",
          "name": "_to",
          "type": "address"
        },
        {
          "internalType": "uint256",
          "name": "_amount",
          "type": "uint256"
        }
      ],
      "name": "withdrawEther",
      "outputs": [
        {
          "internalType": "bool",
          "name": "",
          "type": "bool"
        }
      ],
      "stateMutability": "payable",
      "type": "function"
    }
  ],
  "bytecode": "0x60806040526000600f60146101000a81548160ff0219169083151502179055506000601360006101000a81548160ff0219169083151502179055503480156200004757600080fd5b506040518060400160405280600881526020017f546f6b656e4261740000000000000000000000000000000000000000000000008152506040518060400160405280600881526020017f546f6b656e426174000000000000000000000000000000000000000000000000815250604051806060016040528060228152602001620066446022913982828160029080519060200190620000e89291906200062a565b508060039080519060200190620001019291906200062a565b5050506000600c60006101000a81548160ff02191690831515021790555080600e9080519060200190620001379291906200062a565b506200015c6000801b620001506200020760201b60201c565b6200022360201b60201c565b6200019d7f9f2df0fed2c77648de5860a4cc508cd0818c85b8b8a1ab4ceeef8d981c8956a6620001916200020760201b60201c565b6200022360201b60201c565b620001de7f65d7a28e3265b37a6474929f336521b332c1681b933f6cb9f3376673440d862a620001d26200020760201b60201c565b6200022360201b60201c565b50505062000201620001f56200020760201b60201c565b6200023960201b60201c565b6200073f565b60006200021e620002ff60201b62001c6a1760201c565b905090565b620002358282620003b260201b60201c565b5050565b6000600f60009054906101000a900473ffffffffffffffffffffffffffffffffffffffff16905081600f60006101000a81548173ffffffffffffffffffffffffffffffffffffffff021916908373ffffffffffffffffffffffffffffffffffffffff1602179055508173ffffffffffffffffffffffffffffffffffffffff168173ffffffffffffffffffffffffffffffffffffffff167f8be0079c531659141344cd1fd0a4f28419497f9722a3daafe3b4186f6b6457e060405160405180910390a35050565b60003073ffffffffffffffffffffffffffffffffffffffff163373ffffffffffffffffffffffffffffffffffffffff161415620003ab57600080368080601f016020809104026020016040519081016040528093929190818152602001838380828437600081840152601f19601f820116905080830192505050505050509050600080369050905073ffffffffffffffffffffffffffffffffffffffff818301511692505050620003af565b3390505b90565b620003c98282620003fa60201b62001d1b1760201c565b620003f58160016000858152602001908152602001600020620004eb60201b62001dfb1790919060201c565b505050565b6200040c82826200052360201b60201c565b620004e757600160008084815260200190815260200160002060000160008373ffffffffffffffffffffffffffffffffffffffff1673ffffffffffffffffffffffffffffffffffffffff16815260200190815260200160002060006101000a81548160ff0219169083151502179055506200048c6200020760201b60201c565b73ffffffffffffffffffffffffffffffffffffffff168173ffffffffffffffffffffffffffffffffffffffff16837f2f8788117e7eff1d82e926ec794901d17c78024a50270940304540a733656f0d60405160405180910390a45b5050565b60006200051b836000018373ffffffffffffffffffffffffffffffffffffffff1660001b6200058d60201b60201c565b905092915050565b600080600084815260200190815260200160002060000160008373ffffffffffffffffffffffffffffffffffffffff1673ffffffffffffffffffffffffffffffffffffffff16815260200190815260200160002060009054906101000a900460ff16905092915050565b6000620005a183836200060760201b60201c565b620005fc57826000018290806001815401808255809150506001900390600052602060002001600090919091909150558260000180549050836001016000848152602001908152602001600020819055506001905062000601565b600090505b92915050565b600080836001016000848152602001908152602001600020541415905092915050565b8280546200063890620006da565b90600052602060002090601f0160209004810192826200065c5760008555620006a8565b82601f106200067757805160ff1916838001178555620006a8565b82800160010185558215620006a8579182015b82811115620006a75782518255916020019190600101906200068a565b5b509050620006b79190620006bb565b5090565b5b80821115620006d6576000816000905550600101620006bc565b5090565b60006002820490506001821680620006f357607f821691505b602082108114156200070a576200070962000710565b5b50919050565b7f4e487b7100000000000000000000000000000000000000000000000000000000600052602260045260246000fd5b615ef5806200074f6000396000f3fe6080604052600436106102875760003560e01c80636352211e1161015a578063b66a0e5d116100c1578063d53913931161007a578063d5391393146109ca578063d547741f146109f5578063e63ab1e914610a1e578063e985e9c514610a49578063f2fde38b14610a86578063f47c84c514610aaf57610287565b8063b66a0e5d146108b7578063b88d4fde146108ce578063c1756a2c146108f7578063c3501ff614610927578063c87b56dd14610950578063ca15c8731461098d57610287565b80639010d07c116101135780639010d07c146107a257806391d14854146107df57806395d89b411461081c578063a140ae2314610847578063a217fddf14610863578063a22cb4651461088e57610287565b80636352211e146106a65780636a627842146106e357806370a082311461070c578063715018a6146107495780638456cb59146107605780638da5cb5b1461077757610287565b8063248a9ca3116101fe57806342842e0e116101b757806342842e0e146105a557806342966c68146105ce5780634f6ccce7146105f7578063522f68151461063457806355367ba9146106645780635c975abb1461067b57610287565b8063248a9ca31461049757806327355fa9146104d45780632f2ff15d146104ff5780632f745c591461052857806336568abe146105655780633f4ba83a1461058e57610287565b8063095ea7b311610250578063095ea7b314610399578063098215e5146103c257806318160ddd146103ed5780631c8b232d14610418578063228215bb1461044357806323b872dd1461046e57610287565b8062923f9e1461028c57806301ffc9a7146102c957806303824f761461030657806306fdde0314610331578063081812fc1461035c575b600080fd5b34801561029857600080fd5b506102b360048036038101906102ae91906146e9565b610ada565b6040516102c09190614dd0565b60405180910390f35b3480156102d557600080fd5b506102f060048036038101906102eb9190614697565b610aec565b6040516102fd9190614dd0565b60405180910390f35b34801561031257600080fd5b5061031b610afe565b6040516103289190614dd0565b60405180910390f35b34801561033d57600080fd5b50610346610b20565b6040516103539190614e06565b60405180910390f35b34801561036857600080fd5b50610383600480360381019061037e91906146e9565b610bb2565b6040516103909190614d69565b60405180910390f35b3480156103a557600080fd5b506103c060048036038101906103bb91906145ba565b610bf8565b005b3480156103ce57600080fd5b506103d7610d10565b6040516103e49190615228565b60405180910390f35b3480156103f957600080fd5b50610402610d16565b60405161040f9190615228565b60405180910390f35b34801561042457600080fd5b5061042d610d23565b60405161043a9190614dd0565b60405180910390f35b34801561044f57600080fd5b50610458610d36565b6040516104659190615228565b60405180910390f35b34801561047a57600080fd5b50610495600480360381019061049091906144b4565b610d3c565b005b3480156104a357600080fd5b506104be60048036038101906104b991906145f6565b610d9c565b6040516104cb9190614deb565b60405180910390f35b3480156104e057600080fd5b506104e9610dbb565b6040516104f69190615228565b60405180910390f35b34801561050b57600080fd5b506105266004803603810190610521919061461f565b610dc1565b005b34801561053457600080fd5b5061054f600480360381019061054a91906145ba565b610de2565b60405161055c9190615228565b60405180910390f35b34801561057157600080fd5b5061058c6004803603810190610587919061461f565b610e87565b005b34801561059a57600080fd5b506105a3610f0a565b005b3480156105b157600080fd5b506105cc60048036038101906105c791906144b4565b610f84565b005b3480156105da57600080fd5b506105f560048036038101906105f091906146e9565b610fa4565b005b34801561060357600080fd5b5061061e600480360381019061061991906146e9565b611000565b60405161062b9190615228565b60405180910390f35b61064e6004803603810190610649919061443c565b611097565b60405161065b9190614dd0565b60405180910390f35b34801561067057600080fd5b50610679611217565b005b34801561068757600080fd5b5061069061123c565b60405161069d9190614dd0565b60405180910390f35b3480156106b257600080fd5b506106cd60048036038101906106c891906146e9565b611253565b6040516106da9190614d69565b60405180910390f35b3480156106ef57600080fd5b5061070a60048036038101906107059190614413565b6112da565b005b34801561071857600080fd5b50610733600480360381019061072e9190614413565b61136a565b6040516107409190615228565b60405180910390f35b34801561075557600080fd5b5061075e611422565b005b34801561076c57600080fd5b50610775611436565b005b34801561078357600080fd5b5061078c6114b0565b6040516107999190614d69565b60405180910390f35b3480156107ae57600080fd5b506107c960048036038101906107c4919061465b565b6114da565b6040516107d69190614d69565b60405180910390f35b3480156107eb57600080fd5b506108066004803603810190610801919061461f565b611509565b6040516108139190614dd0565b60405180910390f35b34801561082857600080fd5b50610831611573565b60405161083e9190614e06565b60405180910390f35b610861600480360381019061085c9190614712565b611605565b005b34801561086f57600080fd5b50610878611825565b6040516108859190614deb565b60405180910390f35b34801561089a57600080fd5b506108b560048036038101906108b0919061457e565b61182c565b005b3480156108c357600080fd5b506108cc611842565b005b3480156108da57600080fd5b506108f560048036038101906108f09190614503565b611867565b005b610911600480360381019061090c919061443c565b6118c9565b60405161091e9190614dd0565b60405180910390f35b34801561093357600080fd5b5061094e60048036038101906109499190614712565b611a49565b005b34801561095c57600080fd5b50610977600480360381019061097291906146e9565b611a86565b6040516109849190614e06565b60405180910390f35b34801561099957600080fd5b506109b460048036038101906109af91906145f6565b611aee565b6040516109c19190615228565b60405180910390f35b3480156109d657600080fd5b506109df611b12565b6040516109ec9190614deb565b60405180910390f35b348015610a0157600080fd5b50610a1c6004803603810190610a17919061461f565b611b36565b005b348015610a2a57600080fd5b50610a33611b57565b604051610a409190614deb565b60405180910390f35b348015610a5557600080fd5b50610a706004803603810190610a6b9190614478565b611b7b565b604051610a7d9190614dd0565b60405180910390f35b348015610a9257600080fd5b50610aad6004803603810190610aa89190614413565b611be1565b005b348015610abb57600080fd5b50610ac4611c65565b604051610ad19190615228565b60405180910390f35b6000610ae582611e2b565b9050919050565b6000610af782611e6c565b9050919050565b60006040610b0a610d16565b10610b185760019050610b1d565b600090505b90565b606060028054610b2f906154f0565b80601f0160208091040260200160405190810160405280929190818152602001828054610b5b906154f0565b8015610ba85780601f10610b7d57610100808354040283529160200191610ba8565b820191906000526020600020905b815481529060010190602001808311610b8b57829003601f168201915b5050505050905090565b6000610bbd82611ee6565b6006600083815260200190815260200160002060009054906101000a900473ffffffffffffffffffffffffffffffffffffffff169050919050565b6000610c0382611253565b90508073ffffffffffffffffffffffffffffffffffffffff168373ffffffffffffffffffffffffffffffffffffffff161415610c74576040517f08c379a0000000000000000000000000000000000000000000000000000000008152600401610c6b90615108565b60405180910390fd5b8073ffffffffffffffffffffffffffffffffffffffff16610c93611f31565b73ffffffffffffffffffffffffffffffffffffffff161480610cc25750610cc181610cbc611f31565b611b7b565b5b610d01576040517f08c379a0000000000000000000000000000000000000000000000000000000008152600401610cf890615128565b60405180910390fd5b610d0b8383611f40565b505050565b60125481565b6000600a80549050905090565b601360009054906101000a900460ff1681565b60115481565b610d4d610d47611f31565b82611ff9565b610d8c576040517f08c379a0000000000000000000000000000000000000000000000000000000008152600401610d8390614ea8565b60405180910390fd5b610d9783838361208e565b505050565b6000806000838152602001908152602001600020600101549050919050565b60105481565b610dca82610d9c565b610dd381612388565b610ddd838361239c565b505050565b6000610ded8361136a565b8210610e2e576040517f08c379a0000000000000000000000000000000000000000000000000000000008152600401610e2590614ec8565b60405180910390fd5b600860008473ffffffffffffffffffffffffffffffffffffffff1673ffffffffffffffffffffffffffffffffffffffff168152602001908152602001600020600083815260200190815260200160002054905092915050565b610e8f611f31565b73ffffffffffffffffffffffffffffffffffffffff168173ffffffffffffffffffffffffffffffffffffffff1614610efc576040517f08c379a0000000000000000000000000000000000000000000000000000000008152600401610ef390615208565b60405180910390fd5b610f0682826123d0565b5050565b610f3b7f65d7a28e3265b37a6474929f336521b332c1681b933f6cb9f3376673440d862a610f36611f31565b611509565b610f7a576040517f08c379a0000000000000000000000000000000000000000000000000000000008152600401610f71906151c8565b60405180910390fd5b610f82612404565b565b610f9f83838360405180602001604052806000815250611867565b505050565b610fb5610faf611f31565b82611ff9565b610ff4576040517f08c379a0000000000000000000000000000000000000000000000000000000008152600401610feb90614ea8565b60405180910390fd5b610ffd81612467565b50565b600061100a610d16565b821061104b576040517f08c379a000000000000000000000000000000000000000000000000000000000815260040161104290615148565b60405180910390fd5b600a8281548110611085577f4e487b7100000000000000000000000000000000000000000000000000000000600052603260045260246000fd5b90600052602060002001549050919050565b6000600f60149054906101000a900460ff16156110e9576040517f08c379a00000000000000000000000000000000000000000000000000000000081526004016110e0906151a8565b60405180910390fd5b6001600f60146101000a81548160ff021916908315150217905550813414611146576040517f08c379a000000000000000000000000000000000000000000000000000000000815260040161113d90615088565b60405180910390fd5b60008373ffffffffffffffffffffffffffffffffffffffff168360405161116c90614d1a565b60006040518083038185875af1925050503d80600081146111a9576040519150601f19603f3d011682016040523d82523d6000602084013e6111ae565b606091505b50509050806111f2576040517f08c379a00000000000000000000000000000000000000000000000000000000081526004016111e9906151e8565b60405180910390fd5b6000600f60146101000a81548160ff0219169083151502179055508091505092915050565b61121f6125b5565b6000601360006101000a81548160ff021916908315150217905550565b6000600c60009054906101000a900460ff16905090565b60008061125f83612633565b9050600073ffffffffffffffffffffffffffffffffffffffff168173ffffffffffffffffffffffffffffffffffffffff1614156112d1576040517f08c379a00000000000000000000000000000000000000000000000000000000081526004016112c8906150e8565b60405180910390fd5b80915050919050565b61130b7f9f2df0fed2c77648de5860a4cc508cd0818c85b8b8a1ab4ceeef8d981c8956a6611306611f31565b611509565b61134a576040517f08c379a000000000000000000000000000000000000000000000000000000000815260040161134190615188565b60405180910390fd5b61135d81611358600d612670565b61267e565b611367600d61289c565b50565b60008073ffffffffffffffffffffffffffffffffffffffff168273ffffffffffffffffffffffffffffffffffffffff1614156113db576040517f08c379a00000000000000000000000000000000000000000000000000000000081526004016113d290615028565b60405180910390fd5b600560008373ffffffffffffffffffffffffffffffffffffffff1673ffffffffffffffffffffffffffffffffffffffff168152602001908152602001600020549050919050565b61142a6125b5565b61143460006128b2565b565b6114677f65d7a28e3265b37a6474929f336521b332c1681b933f6cb9f3376673440d862a611462611f31565b611509565b6114a6576040517f08c379a000000000000000000000000000000000000000000000000000000000815260040161149d90614f68565b60405180910390fd5b6114ae612978565b565b6000600f60009054906101000a900473ffffffffffffffffffffffffffffffffffffffff16905090565b600061150182600160008681526020019081526020016000206129db90919063ffffffff16565b905092915050565b600080600084815260200190815260200160002060000160008373ffffffffffffffffffffffffffffffffffffffff1673ffffffffffffffffffffffffffffffffffffffff16815260200190815260200160002060009054906101000a900460ff16905092915050565b606060038054611582906154f0565b80601f01602080910402602001604051908101604052809291908181526020018280546115ae906154f0565b80156115fb5780601f106115d0576101008083540402835291602001916115fb565b820191906000526020600020905b8154815290600101906020018083116115de57829003601f168201915b5050505050905090565b601360009054906101000a900460ff168061165257506116236114b0565b73ffffffffffffffffffffffffffffffffffffffff163373ffffffffffffffffffffffffffffffffffffffff16145b611691576040517f08c379a000000000000000000000000000000000000000000000000000000000815260040161168890614e88565b60405180910390fd5b600082116116d4576040517f08c379a00000000000000000000000000000000000000000000000000000000081526004016116cb90615048565b60405180910390fd5b6003821115611718576040517f08c379a000000000000000000000000000000000000000000000000000000000815260040161170f906150c8565b60405180910390fd5b604061173483611726610d16565b6129f590919063ffffffff16565b11158061177357506117446114b0565b73ffffffffffffffffffffffffffffffffffffffff163373ffffffffffffffffffffffffffffffffffffffff16145b6117b2576040517f08c379a00000000000000000000000000000000000000000000000000000000081526004016117a990614fc8565b60405180910390fd5b60005b828110156118205760006117c7610d16565b90506117d38382612a0b565b7fb9203d657e9c0ec8274c818292ab0f58b04e1970050716891770eb1bab5d655e8184604051611804929190615243565b60405180910390a150808061181890615553565b9150506117b5565b505050565b6000801b81565b61183e611837611f31565b8383612a29565b5050565b61184a6125b5565b6001601360006101000a81548160ff021916908315150217905550565b611878611872611f31565b83611ff9565b6118b7576040517f08c379a00000000000000000000000000000000000000000000000000000000081526004016118ae90614ea8565b60405180910390fd5b6118c384848484612b96565b50505050565b6000600f60149054906101000a900460ff161561191b576040517f08c379a0000000000000000000000000000000000000000000000000000000008152600401611912906151a8565b60405180910390fd5b6001600f60146101000a81548160ff021916908315150217905550813414611978576040517f08c379a000000000000000000000000000000000000000000000000000000000815260040161196f90615088565b60405180910390fd5b60008373ffffffffffffffffffffffffffffffffffffffff168360405161199e90614d1a565b60006040518083038185875af1925050503d80600081146119db576040519150601f19603f3d011682016040523d82523d6000602084013e6119e0565b606091505b5050905080611a24576040517f08c379a0000000000000000000000000000000000000000000000000000000008152600401611a1b90614fe8565b60405180910390fd5b6000600f60146101000a81548160ff0219169083151502179055508091505092915050565b7fc5fcfb68332ef11d542d4ab7e75045a5e4d66eb2d8f846f13a48356b32e534db8282604051611a7a929190615243565b60405180910390a15050565b6060611a9182611ee6565b6000611a9b612bf2565b90506000815111611abb5760405180602001604052806000815250611ae6565b80611ac584612c84565b604051602001611ad6929190614cf6565b6040516020818303038152906040525b915050919050565b6000611b0b60016000848152602001908152602001600020612da8565b9050919050565b7f9f2df0fed2c77648de5860a4cc508cd0818c85b8b8a1ab4ceeef8d981c8956a681565b611b3f82610d9c565b611b4881612388565b611b5283836123d0565b505050565b7f65d7a28e3265b37a6474929f336521b332c1681b933f6cb9f3376673440d862a81565b60007358807bad0b376efc12f5ad86aac70e78ed67deae73ffffffffffffffffffffffffffffffffffffffff168273ffffffffffffffffffffffffffffffffffffffff161415611bce5760019050611bdb565b611bd88383612dbd565b90505b92915050565b611be96125b5565b600073ffffffffffffffffffffffffffffffffffffffff168173ffffffffffffffffffffffffffffffffffffffff161415611c59576040517f08c379a0000000000000000000000000000000000000000000000000000000008152600401611c5090614f08565b60405180910390fd5b611c62816128b2565b50565b604081565b60003073ffffffffffffffffffffffffffffffffffffffff163373ffffffffffffffffffffffffffffffffffffffff161415611d1457600080368080601f016020809104026020016040519081016040528093929190818152602001838380828437600081840152601f19601f820116905080830192505050505050509050600080369050905073ffffffffffffffffffffffffffffffffffffffff818301511692505050611d18565b3390505b90565b611d258282611509565b611df757600160008084815260200190815260200160002060000160008373ffffffffffffffffffffffffffffffffffffffff1673ffffffffffffffffffffffffffffffffffffffff16815260200190815260200160002060006101000a81548160ff021916908315150217905550611d9c611f31565b73ffffffffffffffffffffffffffffffffffffffff168173ffffffffffffffffffffffffffffffffffffffff16837f2f8788117e7eff1d82e926ec794901d17c78024a50270940304540a733656f0d60405160405180910390a45b5050565b6000611e23836000018373ffffffffffffffffffffffffffffffffffffffff1660001b612e51565b905092915050565b60008073ffffffffffffffffffffffffffffffffffffffff16611e4d83612633565b73ffffffffffffffffffffffffffffffffffffffff1614159050919050565b60007f780e9d63000000000000000000000000000000000000000000000000000000007bffffffffffffffffffffffffffffffffffffffffffffffffffffffff1916827bffffffffffffffffffffffffffffffffffffffffffffffffffffffff19161480611edf5750611ede82612ec1565b5b9050919050565b611eef81611e2b565b611f2e576040517f08c379a0000000000000000000000000000000000000000000000000000000008152600401611f25906150e8565b60405180910390fd5b50565b6000611f3b611c6a565b905090565b816006600083815260200190815260200160002060006101000a81548173ffffffffffffffffffffffffffffffffffffffff021916908373ffffffffffffffffffffffffffffffffffffffff160217905550808273ffffffffffffffffffffffffffffffffffffffff16611fb383611253565b73ffffffffffffffffffffffffffffffffffffffff167f8c5be1e5ebec7d5bd14f71427d1e84f3dd0314c0f7b2291e5b200ac8c7c3b92560405160405180910390a45050565b60008061200583611253565b90508073ffffffffffffffffffffffffffffffffffffffff168473ffffffffffffffffffffffffffffffffffffffff16148061204757506120468185611b7b565b5b8061208557508373ffffffffffffffffffffffffffffffffffffffff1661206d84610bb2565b73ffffffffffffffffffffffffffffffffffffffff16145b91505092915050565b8273ffffffffffffffffffffffffffffffffffffffff166120ae82611253565b73ffffffffffffffffffffffffffffffffffffffff1614612104576040517f08c379a00000000000000000000000000000000000000000000000000000000081526004016120fb90614f28565b60405180910390fd5b600073ffffffffffffffffffffffffffffffffffffffff168273ffffffffffffffffffffffffffffffffffffffff161415612174576040517f08c379a000000000000000000000000000000000000000000000000000000000815260040161216b90614f88565b60405180910390fd5b6121818383836001612fa3565b8273ffffffffffffffffffffffffffffffffffffffff166121a182611253565b73ffffffffffffffffffffffffffffffffffffffff16146121f7576040517f08c379a00000000000000000000000000000000000000000000000000000000081526004016121ee90614f28565b60405180910390fd5b6006600082815260200190815260200160002060006101000a81549073ffffffffffffffffffffffffffffffffffffffff02191690556001600560008573ffffffffffffffffffffffffffffffffffffffff1673ffffffffffffffffffffffffffffffffffffffff168152602001908152602001600020600082825403925050819055506001600560008473ffffffffffffffffffffffffffffffffffffffff1673ffffffffffffffffffffffffffffffffffffffff16815260200190815260200160002060008282540192505081905550816004600083815260200190815260200160002060006101000a81548173ffffffffffffffffffffffffffffffffffffffff021916908373ffffffffffffffffffffffffffffffffffffffff160217905550808273ffffffffffffffffffffffffffffffffffffffff168473ffffffffffffffffffffffffffffffffffffffff167fddf252ad1be2c89b69c2b068fc378daa952ba7f163c4a11628f55a4df523b3ef60405160405180910390a46123838383836001612fb5565b505050565b61239981612394611f31565b612fbb565b50565b6123a68282611d1b565b6123cb8160016000858152602001908152602001600020611dfb90919063ffffffff16565b505050565b6123da8282613040565b6123ff816001600085815260200190815260200160002061312190919063ffffffff16565b505050565b61240c613151565b6000600c60006101000a81548160ff0219169083151502179055507f5db9ee0a495bf2e6ff9c91a7834c1ba4fdd244a5e8aa4e537bd38aeae4b073aa612450611f31565b60405161245d9190614d69565b60405180910390a1565b600061247282611253565b9050612482816000846001612fa3565b61248b82611253565b90506006600083815260200190815260200160002060006101000a81549073ffffffffffffffffffffffffffffffffffffffff02191690556001600560008373ffffffffffffffffffffffffffffffffffffffff1673ffffffffffffffffffffffffffffffffffffffff168152602001908152602001600020600082825403925050819055506004600083815260200190815260200160002060006101000a81549073ffffffffffffffffffffffffffffffffffffffff021916905581600073ffffffffffffffffffffffffffffffffffffffff168273ffffffffffffffffffffffffffffffffffffffff167fddf252ad1be2c89b69c2b068fc378daa952ba7f163c4a11628f55a4df523b3ef60405160405180910390a46125b1816000846001612fb5565b5050565b6125bd611f31565b73ffffffffffffffffffffffffffffffffffffffff166125db6114b0565b73ffffffffffffffffffffffffffffffffffffffff1614612631576040517f08c379a0000000000000000000000000000000000000000000000000000000008152600401612628906150a8565b60405180910390fd5b565b60006004600083815260200190815260200160002060009054906101000a900473ffffffffffffffffffffffffffffffffffffffff169050919050565b600081600001549050919050565b600073ffffffffffffffffffffffffffffffffffffffff168273ffffffffffffffffffffffffffffffffffffffff1614156126ee576040517f08c379a00000000000000000000000000000000000000000000000000000000081526004016126e590615068565b60405180910390fd5b6126f781611e2b565b15612737576040517f08c379a000000000000000000000000000000000000000000000000000000000815260040161272e90614f48565b60405180910390fd5b612745600083836001612fa3565b61274e81611e2b565b1561278e576040517f08c379a000000000000000000000000000000000000000000000000000000000815260040161278590614f48565b60405180910390fd5b6001600560008473ffffffffffffffffffffffffffffffffffffffff1673ffffffffffffffffffffffffffffffffffffffff16815260200190815260200160002060008282540192505081905550816004600083815260200190815260200160002060006101000a81548173ffffffffffffffffffffffffffffffffffffffff021916908373ffffffffffffffffffffffffffffffffffffffff160217905550808273ffffffffffffffffffffffffffffffffffffffff16600073ffffffffffffffffffffffffffffffffffffffff167fddf252ad1be2c89b69c2b068fc378daa952ba7f163c4a11628f55a4df523b3ef60405160405180910390a4612898600083836001612fb5565b5050565b6001816000016000828254019250508190555050565b6000600f60009054906101000a900473ffffffffffffffffffffffffffffffffffffffff16905081600f60006101000a81548173ffffffffffffffffffffffffffffffffffffffff021916908373ffffffffffffffffffffffffffffffffffffffff1602179055508173ffffffffffffffffffffffffffffffffffffffff168173ffffffffffffffffffffffffffffffffffffffff167f8be0079c531659141344cd1fd0a4f28419497f9722a3daafe3b4186f6b6457e060405160405180910390a35050565b61298061319a565b6001600c60006101000a81548160ff0219169083151502179055507f62e78cea01bee320cd4e420270b5ea74000d11b0c9f74754ebdbfc544b05a2586129c4611f31565b6040516129d19190614d69565b60405180910390a1565b60006129ea83600001836131e4565b60001c905092915050565b60008183612a039190615310565b905092915050565b612a25828260405180602001604052806000815250613235565b5050565b8173ffffffffffffffffffffffffffffffffffffffff168373ffffffffffffffffffffffffffffffffffffffff161415612a98576040517f08c379a0000000000000000000000000000000000000000000000000000000008152600401612a8f90614fa8565b60405180910390fd5b80600760008573ffffffffffffffffffffffffffffffffffffffff1673ffffffffffffffffffffffffffffffffffffffff16815260200190815260200160002060008473ffffffffffffffffffffffffffffffffffffffff1673ffffffffffffffffffffffffffffffffffffffff16815260200190815260200160002060006101000a81548160ff0219169083151502179055508173ffffffffffffffffffffffffffffffffffffffff168373ffffffffffffffffffffffffffffffffffffffff167f17307eab39ab6107e8899845ad3d59bd9653f200f220920489ca2b5937696c3183604051612b899190614dd0565b60405180910390a3505050565b612ba184848461208e565b612bad84848484613290565b612bec576040517f08c379a0000000000000000000000000000000000000000000000000000000008152600401612be390614ee8565b60405180910390fd5b50505050565b6060600e8054612c01906154f0565b80601f0160208091040260200160405190810160405280929190818152602001828054612c2d906154f0565b8015612c7a5780601f10612c4f57610100808354040283529160200191612c7a565b820191906000526020600020905b815481529060010190602001808311612c5d57829003601f168201915b5050505050905090565b606060006001612c9384613427565b01905060008167ffffffffffffffff811115612cd8577f4e487b7100000000000000000000000000000000000000000000000000000000600052604160045260246000fd5b6040519080825280601f01601f191660200182016040528015612d0a5781602001600182028036833780820191505090505b509050600082602001820190505b600115612d9d578080600190039150507f3031323334353637383961626364656600000000000000000000000000000000600a86061a8153600a8581612d87577f4e487b7100000000000000000000000000000000000000000000000000000000600052601260045260246000fd5b0494506000851415612d9857612d9d565b612d18565b819350505050919050565b6000612db68260000161365e565b9050919050565b6000600760008473ffffffffffffffffffffffffffffffffffffffff1673ffffffffffffffffffffffffffffffffffffffff16815260200190815260200160002060008373ffffffffffffffffffffffffffffffffffffffff1673ffffffffffffffffffffffffffffffffffffffff16815260200190815260200160002060009054906101000a900460ff16905092915050565b6000612e5d838361366f565b612eb6578260000182908060018154018082558091505060019003906000526020600020016000909190919091505582600001805490508360010160008481526020019081526020016000208190555060019050612ebb565b600090505b92915050565b60007f80ac58cd000000000000000000000000000000000000000000000000000000007bffffffffffffffffffffffffffffffffffffffffffffffffffffffff1916827bffffffffffffffffffffffffffffffffffffffffffffffffffffffff19161480612f8c57507f5b5e139f000000000000000000000000000000000000000000000000000000007bffffffffffffffffffffffffffffffffffffffffffffffffffffffff1916827bffffffffffffffffffffffffffffffffffffffffffffffffffffffff1916145b80612f9c5750612f9b82613692565b5b9050919050565b612faf8484848461370c565b50505050565b50505050565b612fc58282611509565b61303c57612fd281613766565b612fe08360001c6020613793565b604051602001612ff1929190614d2f565b6040516020818303038152906040526040517f08c379a00000000000000000000000000000000000000000000000000000000081526004016130339190614e06565b60405180910390fd5b5050565b61304a8282611509565b1561311d57600080600084815260200190815260200160002060000160008373ffffffffffffffffffffffffffffffffffffffff1673ffffffffffffffffffffffffffffffffffffffff16815260200190815260200160002060006101000a81548160ff0219169083151502179055506130c2611f31565b73ffffffffffffffffffffffffffffffffffffffff168173ffffffffffffffffffffffffffffffffffffffff16837ff6391f5c32d9c69d2a47ea670b442974b53935d1edc7fd64eb21e047a839171b60405160405180910390a45b5050565b6000613149836000018373ffffffffffffffffffffffffffffffffffffffff1660001b613a8d565b905092915050565b61315961123c565b613198576040517f08c379a000000000000000000000000000000000000000000000000000000000815260040161318f90614e68565b60405180910390fd5b565b6131a261123c565b156131e2576040517f08c379a00000000000000000000000000000000000000000000000000000000081526004016131d990615008565b60405180910390fd5b565b6000826000018281548110613222577f4e487b7100000000000000000000000000000000000000000000000000000000600052603260045260246000fd5b9060005260206000200154905092915050565b61323f838361267e565b61324c6000848484613290565b61328b576040517f08c379a000000000000000000000000000000000000000000000000000000000815260040161328290614ee8565b60405180910390fd5b505050565b60006132b18473ffffffffffffffffffffffffffffffffffffffff16613c13565b1561341a578373ffffffffffffffffffffffffffffffffffffffff1663150b7a026132da611f31565b8786866040518563ffffffff1660e01b81526004016132fc9493929190614d84565b602060405180830381600087803b15801561331657600080fd5b505af192505050801561334757506040513d601f19601f8201168201806040525081019061334491906146c0565b60015b6133ca573d8060008114613377576040519150601f19603f3d011682016040523d82523d6000602084013e61337c565b606091505b506000815114156133c2576040517f08c379a00000000000000000000000000000000000000000000000000000000081526004016133b990614ee8565b60405180910390fd5b805181602001fd5b63150b7a0260e01b7bffffffffffffffffffffffffffffffffffffffffffffffffffffffff1916817bffffffffffffffffffffffffffffffffffffffffffffffffffffffff19161491505061341f565b600190505b949350505050565b600080600090507a184f03e93ff9f4daa797ed6e38ed64bf6a1f01000000000000000083106134ab577a184f03e93ff9f4daa797ed6e38ed64bf6a1f01000000000000000083816134a1577f4e487b7100000000000000000000000000000000000000000000000000000000600052601260045260246000fd5b0492506040810190505b6d04ee2d6d415b85acef8100000000831061350e576d04ee2d6d415b85acef81000000008381613504577f4e487b7100000000000000000000000000000000000000000000000000000000600052601260045260246000fd5b0492506020810190505b662386f26fc10000831061356357662386f26fc100008381613559577f4e487b7100000000000000000000000000000000000000000000000000000000600052601260045260246000fd5b0492506010810190505b6305f5e10083106135b2576305f5e10083816135a8577f4e487b7100000000000000000000000000000000000000000000000000000000600052601260045260246000fd5b0492506008810190505b61271083106135fd5761271083816135f3577f4e487b7100000000000000000000000000000000000000000000000000000000600052601260045260246000fd5b0492506004810190505b60648310613646576064838161363c577f4e487b7100000000000000000000000000000000000000000000000000000000600052601260045260246000fd5b0492506002810190505b600a8310613655576001810190505b80915050919050565b600081600001805490509050919050565b600080836001016000848152602001908152602001600020541415905092915050565b60007f5a05180f000000000000000000000000000000000000000000000000000000007bffffffffffffffffffffffffffffffffffffffffffffffffffffffff1916827bffffffffffffffffffffffffffffffffffffffffffffffffffffffff19161480613705575061370482613c36565b5b9050919050565b61371884848484613cb0565b61372061123c565b15613760576040517f08c379a000000000000000000000000000000000000000000000000000000000815260040161375790614e48565b60405180910390fd5b50505050565b606061378c8273ffffffffffffffffffffffffffffffffffffffff16601460ff16613793565b9050919050565b6060600060028360026137a69190615366565b6137b09190615310565b67ffffffffffffffff8111156137ef577f4e487b7100000000000000000000000000000000000000000000000000000000600052604160045260246000fd5b6040519080825280601f01601f1916602001820160405280156138215781602001600182028036833780820191505090505b5090507f30000000000000000000000000000000000000000000000000000000000000008160008151811061387f577f4e487b7100000000000000000000000000000000000000000000000000000000600052603260045260246000fd5b60200101907effffffffffffffffffffffffffffffffffffffffffffffffffffffffffffff1916908160001a9053507f780000000000000000000000000000000000000000000000000000000000000081600181518110613909577f4e487b7100000000000000000000000000000000000000000000000000000000600052603260045260246000fd5b60200101907effffffffffffffffffffffffffffffffffffffffffffffffffffffffffffff1916908160001a905350600060018460026139499190615366565b6139539190615310565b90505b6001811115613a3f577f3031323334353637383961626364656600000000000000000000000000000000600f8616601081106139bb577f4e487b7100000000000000000000000000000000000000000000000000000000600052603260045260246000fd5b1a60f81b8282815181106139f8577f4e487b7100000000000000000000000000000000000000000000000000000000600052603260045260246000fd5b60200101907effffffffffffffffffffffffffffffffffffffffffffffffffffffffffffff1916908160001a905350600485901c945080613a38906154c6565b9050613956565b5060008414613a83576040517f08c379a0000000000000000000000000000000000000000000000000000000008152600401613a7a90614e28565b60405180910390fd5b8091505092915050565b60008083600101600084815260200190815260200160002054905060008114613c07576000600182613abf91906153c0565b9050600060018660000180549050613ad791906153c0565b9050818114613b92576000866000018281548110613b1e577f4e487b7100000000000000000000000000000000000000000000000000000000600052603260045260246000fd5b9060005260206000200154905080876000018481548110613b68577f4e487b7100000000000000000000000000000000000000000000000000000000600052603260045260246000fd5b90600052602060002001819055508387600101600083815260200190815260200160002081905550505b85600001805480613bcc577f4e487b7100000000000000000000000000000000000000000000000000000000600052603160045260246000fd5b600190038181906000526020600020016000905590558560010160008681526020019081526020016000206000905560019350505050613c0d565b60009150505b92915050565b6000808273ffffffffffffffffffffffffffffffffffffffff163b119050919050565b60007f7965db0b000000000000000000000000000000000000000000000000000000007bffffffffffffffffffffffffffffffffffffffffffffffffffffffff1916827bffffffffffffffffffffffffffffffffffffffffffffffffffffffff19161480613ca95750613ca882613e10565b5b9050919050565b613cbc84848484613e7a565b6001811115613d00576040517f08c379a0000000000000000000000000000000000000000000000000000000008152600401613cf790615168565b60405180910390fd5b6000829050600073ffffffffffffffffffffffffffffffffffffffff168573ffffffffffffffffffffffffffffffffffffffff161415613d4857613d4381613fa0565b613d87565b8373ffffffffffffffffffffffffffffffffffffffff168573ffffffffffffffffffffffffffffffffffffffff1614613d8657613d858582613fe9565b5b5b600073ffffffffffffffffffffffffffffffffffffffff168473ffffffffffffffffffffffffffffffffffffffff161415613dca57613dc581614156565b613e09565b8473ffffffffffffffffffffffffffffffffffffffff168473ffffffffffffffffffffffffffffffffffffffff1614613e0857613e078482614299565b5b5b5050505050565b60007f01ffc9a7000000000000000000000000000000000000000000000000000000007bffffffffffffffffffffffffffffffffffffffffffffffffffffffff1916827bffffffffffffffffffffffffffffffffffffffffffffffffffffffff1916149050919050565b6001811115613f9a57600073ffffffffffffffffffffffffffffffffffffffff168473ffffffffffffffffffffffffffffffffffffffff1614613f0e5780600560008673ffffffffffffffffffffffffffffffffffffffff1673ffffffffffffffffffffffffffffffffffffffff1681526020019081526020016000206000828254613f0691906153c0565b925050819055505b600073ffffffffffffffffffffffffffffffffffffffff168373ffffffffffffffffffffffffffffffffffffffff1614613f995780600560008573ffffffffffffffffffffffffffffffffffffffff1673ffffffffffffffffffffffffffffffffffffffff1681526020019081526020016000206000828254613f919190615310565b925050819055505b5b50505050565b600a80549050600b600083815260200190815260200160002081905550600a81908060018154018082558091505060019003906000526020600020016000909190919091505550565b60006001613ff68461136a565b61400091906153c0565b90506000600960008481526020019081526020016000205490508181146140e5576000600860008673ffffffffffffffffffffffffffffffffffffffff1673ffffffffffffffffffffffffffffffffffffffff168152602001908152602001600020600084815260200190815260200160002054905080600860008773ffffffffffffffffffffffffffffffffffffffff1673ffffffffffffffffffffffffffffffffffffffff168152602001908152602001600020600084815260200190815260200160002081905550816009600083815260200190815260200160002081905550505b6009600084815260200190815260200160002060009055600860008573ffffffffffffffffffffffffffffffffffffffff1673ffffffffffffffffffffffffffffffffffffffff16815260200190815260200160002060008381526020019081526020016000206000905550505050565b60006001600a8054905061416a91906153c0565b90506000600b60008481526020019081526020016000205490506000600a83815481106141c0577f4e487b7100000000000000000000000000000000000000000000000000000000600052603260045260246000fd5b9060005260206000200154905080600a8381548110614208577f4e487b7100000000000000000000000000000000000000000000000000000000600052603260045260246000fd5b906000526020600020018190555081600b600083815260200190815260200160002081905550600b600085815260200190815260200160002060009055600a80548061427d577f4e487b7100000000000000000000000000000000000000000000000000000000600052603160045260246000fd5b6001900381819060005260206000200160009055905550505050565b60006142a48361136a565b905081600860008573ffffffffffffffffffffffffffffffffffffffff1673ffffffffffffffffffffffffffffffffffffffff168152602001908152602001600020600083815260200190815260200160002081905550806009600084815260200190815260200160002081905550505050565b600061432b61432684615291565b61526c565b90508281526020810184848401111561434357600080fd5b61434e848285615484565b509392505050565b60008135905061436581615e35565b92915050565b60008135905061437a81615e4c565b92915050565b60008135905061438f81615e63565b92915050565b6000813590506143a481615e7a565b92915050565b6000813590506143b981615e91565b92915050565b6000815190506143ce81615e91565b92915050565b600082601f8301126143e557600080fd5b81356143f5848260208601614318565b91505092915050565b60008135905061440d81615ea8565b92915050565b60006020828403121561442557600080fd5b600061443384828501614356565b91505092915050565b6000806040838503121561444f57600080fd5b600061445d8582860161436b565b925050602061446e858286016143fe565b9150509250929050565b6000806040838503121561448b57600080fd5b600061449985828601614356565b92505060206144aa85828601614356565b9150509250929050565b6000806000606084860312156144c957600080fd5b60006144d786828701614356565b93505060206144e886828701614356565b92505060406144f9868287016143fe565b9150509250925092565b6000806000806080858703121561451957600080fd5b600061452787828801614356565b945050602061453887828801614356565b9350506040614549878288016143fe565b925050606085013567ffffffffffffffff81111561456657600080fd5b614572878288016143d4565b91505092959194509250565b6000806040838503121561459157600080fd5b600061459f85828601614356565b92505060206145b085828601614380565b9150509250929050565b600080604083850312156145cd57600080fd5b60006145db85828601614356565b92505060206145ec858286016143fe565b9150509250929050565b60006020828403121561460857600080fd5b600061461684828501614395565b91505092915050565b6000806040838503121561463257600080fd5b600061464085828601614395565b925050602061465185828601614356565b9150509250929050565b6000806040838503121561466e57600080fd5b600061467c85828601614395565b925050602061468d858286016143fe565b9150509250929050565b6000602082840312156146a957600080fd5b60006146b7848285016143aa565b91505092915050565b6000602082840312156146d257600080fd5b60006146e0848285016143bf565b91505092915050565b6000602082840312156146fb57600080fd5b6000614709848285016143fe565b91505092915050565b6000806040838503121561472557600080fd5b6000614733858286016143fe565b925050602061474485828601614356565b9150509250929050565b614757816153f4565b82525050565b61476681615418565b82525050565b61477581615424565b82525050565b6000614786826152c2565b61479081856152d8565b93506147a0818560208601615493565b6147a981615629565b840191505092915050565b60006147bf826152cd565b6147c981856152f4565b93506147d9818560208601615493565b6147e281615629565b840191505092915050565b60006147f8826152cd565b6148028185615305565b9350614812818560208601615493565b80840191505092915050565b600061482b6020836152f4565b91506148368261563a565b602082019050919050565b600061484e602b836152f4565b915061485982615663565b604082019050919050565b60006148716014836152f4565b915061487c826156b2565b602082019050919050565b60006148946013836152f4565b915061489f826156db565b602082019050919050565b60006148b7602d836152f4565b91506148c282615704565b604082019050919050565b60006148da602b836152f4565b91506148e582615753565b604082019050919050565b60006148fd6032836152f4565b9150614908826157a2565b604082019050919050565b60006149206026836152f4565b915061492b826157f1565b604082019050919050565b60006149436025836152f4565b915061494e82615840565b604082019050919050565b6000614966601c836152f4565b91506149718261588f565b602082019050919050565b6000614989603e836152f4565b9150614994826158b8565b604082019050919050565b60006149ac6024836152f4565b91506149b782615907565b604082019050919050565b60006149cf6019836152f4565b91506149da82615956565b602082019050919050565b60006149f26008836152f4565b91506149fd8261597f565b602082019050919050565b6000614a15600e836152f4565b9150614a20826159a8565b602082019050919050565b6000614a386010836152f4565b9150614a43826159d1565b602082019050919050565b6000614a5b6029836152f4565b9150614a66826159fa565b604082019050919050565b6000614a7e6017836152f4565b9150614a8982615a49565b602082019050919050565b6000614aa16020836152f4565b9150614aac82615a72565b602082019050919050565b6000614ac46027836152f4565b9150614acf82615a9b565b604082019050919050565b6000614ae76020836152f4565b9150614af282615aea565b602082019050919050565b6000614b0a6009836152f4565b9150614b1582615b13565b602082019050919050565b6000614b2d6018836152f4565b9150614b3882615b3c565b602082019050919050565b6000614b506021836152f4565b9150614b5b82615b65565b604082019050919050565b6000614b736000836152e9565b9150614b7e82615bb4565b600082019050919050565b6000614b96603d836152f4565b9150614ba182615bb7565b604082019050919050565b6000614bb9602c836152f4565b9150614bc482615c06565b604082019050919050565b6000614bdc601783615305565b9150614be782615c55565b601782019050919050565b6000614bff6035836152f4565b9150614c0a82615c7e565b604082019050919050565b6000614c22603d836152f4565b9150614c2d82615ccd565b604082019050919050565b6000614c456013836152f4565b9150614c5082615d1c565b602082019050919050565b6000614c686040836152f4565b9150614c7382615d45565b604082019050919050565b6000614c8b6012836152f4565b9150614c9682615d94565b602082019050919050565b6000614cae601183615305565b9150614cb982615dbd565b601182019050919050565b6000614cd1602f836152f4565b9150614cdc82615de6565b604082019050919050565b614cf08161547a565b82525050565b6000614d0282856147ed565b9150614d0e82846147ed565b91508190509392505050565b6000614d2582614b66565b9150819050919050565b6000614d3a82614bcf565b9150614d4682856147ed565b9150614d5182614ca1565b9150614d5d82846147ed565b91508190509392505050565b6000602082019050614d7e600083018461474e565b92915050565b6000608082019050614d99600083018761474e565b614da6602083018661474e565b614db36040830185614ce7565b8181036060830152614dc5818461477b565b905095945050505050565b6000602082019050614de5600083018461475d565b92915050565b6000602082019050614e00600083018461476c565b92915050565b60006020820190508181036000830152614e2081846147b4565b905092915050565b60006020820190508181036000830152614e418161481e565b9050919050565b60006020820190508181036000830152614e6181614841565b9050919050565b60006020820190508181036000830152614e8181614864565b9050919050565b60006020820190508181036000830152614ea181614887565b9050919050565b60006020820190508181036000830152614ec1816148aa565b9050919050565b60006020820190508181036000830152614ee1816148cd565b9050919050565b60006020820190508181036000830152614f01816148f0565b9050919050565b60006020820190508181036000830152614f2181614913565b9050919050565b60006020820190508181036000830152614f4181614936565b9050919050565b60006020820190508181036000830152614f6181614959565b9050919050565b60006020820190508181036000830152614f818161497c565b9050919050565b60006020820190508181036000830152614fa18161499f565b9050919050565b60006020820190508181036000830152614fc1816149c2565b9050919050565b60006020820190508181036000830152614fe1816149e5565b9050919050565b6000602082019050818103600083015261500181614a08565b9050919050565b6000602082019050818103600083015261502181614a2b565b9050919050565b6000602082019050818103600083015261504181614a4e565b9050919050565b6000602082019050818103600083015261506181614a71565b9050919050565b6000602082019050818103600083015261508181614a94565b9050919050565b600060208201905081810360008301526150a181614ab7565b9050919050565b600060208201905081810360008301526150c181614ada565b9050919050565b600060208201905081810360008301526150e181614afd565b9050919050565b6000602082019050818103600083015261510181614b20565b9050919050565b6000602082019050818103600083015261512181614b43565b9050919050565b6000602082019050818103600083015261514181614b89565b9050919050565b6000602082019050818103600083015261516181614bac565b9050919050565b6000602082019050818103600083015261518181614bf2565b9050919050565b600060208201905081810360008301526151a181614c15565b9050919050565b600060208201905081810360008301526151c181614c38565b9050919050565b600060208201905081810360008301526151e181614c5b565b9050919050565b6000602082019050818103600083015261520181614c7e565b9050919050565b6000602082019050818103600083015261522181614cc4565b9050919050565b600060208201905061523d6000830184614ce7565b92915050565b60006040820190506152586000830185614ce7565b615265602083018461474e565b9392505050565b6000615276615287565b90506152828282615522565b919050565b6000604051905090565b600067ffffffffffffffff8211156152ac576152ab6155fa565b5b6152b582615629565b9050602081019050919050565b600081519050919050565b600081519050919050565b600082825260208201905092915050565b600081905092915050565b600082825260208201905092915050565b600081905092915050565b600061531b8261547a565b91506153268361547a565b9250827fffffffffffffffffffffffffffffffffffffffffffffffffffffffffffffffff0382111561535b5761535a61559c565b5b828201905092915050565b60006153718261547a565b915061537c8361547a565b9250817fffffffffffffffffffffffffffffffffffffffffffffffffffffffffffffffff04831182151516156153b5576153b461559c565b5b828202905092915050565b60006153cb8261547a565b91506153d68361547a565b9250828210156153e9576153e861559c565b5b828203905092915050565b60006153ff8261545a565b9050919050565b60006154118261545a565b9050919050565b60008115159050919050565b6000819050919050565b60007fffffffff0000000000000000000000000000000000000000000000000000000082169050919050565b600073ffffffffffffffffffffffffffffffffffffffff82169050919050565b6000819050919050565b82818337600083830152505050565b60005b838110156154b1578082015181840152602081019050615496565b838111156154c0576000848401525b50505050565b60006154d18261547a565b915060008214156154e5576154e461559c565b5b600182039050919050565b6000600282049050600182168061550857607f821691505b6020821081141561551c5761551b6155cb565b5b50919050565b61552b82615629565b810181811067ffffffffffffffff8211171561554a576155496155fa565b5b80604052505050565b600061555e8261547a565b91507fffffffffffffffffffffffffffffffffffffffffffffffffffffffffffffffff8214156155915761559061559c565b5b600182019050919050565b7f4e487b7100000000000000000000000000000000000000000000000000000000600052601160045260246000fd5b7f4e487b7100000000000000000000000000000000000000000000000000000000600052602260045260246000fd5b7f4e487b7100000000000000000000000000000000000000000000000000000000600052604160045260246000fd5b6000601f19601f8301169050919050565b7f537472696e67733a20686578206c656e67746820696e73756666696369656e74600082015250565b7f4552433732315061757361626c653a20746f6b656e207472616e73666572207760008201527f68696c6520706175736564000000000000000000000000000000000000000000602082015250565b7f5061757361626c653a206e6f7420706175736564000000000000000000000000600082015250565b7f73616c65206861736e2774207374617274656400000000000000000000000000600082015250565b7f4552433732313a2063616c6c6572206973206e6f7420746f6b656e206f776e6560008201527f72206f7220617070726f76656400000000000000000000000000000000000000602082015250565b7f455243373231456e756d657261626c653a206f776e657220696e646578206f7560008201527f74206f6620626f756e6473000000000000000000000000000000000000000000602082015250565b7f4552433732313a207472616e7366657220746f206e6f6e20455243373231526560008201527f63656976657220696d706c656d656e7465720000000000000000000000000000602082015250565b7f4f776e61626c653a206e6577206f776e657220697320746865207a65726f206160008201527f6464726573730000000000000000000000000000000000000000000000000000602082015250565b7f4552433732313a207472616e736665722066726f6d20696e636f72726563742060008201527f6f776e6572000000000000000000000000000000000000000000000000000000602082015250565b7f4552433732313a20746f6b656e20616c7265616479206d696e74656400000000600082015250565b7f4552433732315072657365744d696e7465725061757365724175746f49643a2060008201527f6d75737420686176652070617573657220726f6c6520746f2070617573650000602082015250565b7f4552433732313a207472616e7366657220746f20746865207a65726f2061646460008201527f7265737300000000000000000000000000000000000000000000000000000000602082015250565b7f4552433732313a20617070726f766520746f2063616c6c657200000000000000600082015250565b7f736f6c64206f7574000000000000000000000000000000000000000000000000600082015250565b7f5061796d656e74204661696c6564000000000000000000000000000000000000600082015250565b7f5061757361626c653a2070617573656400000000000000000000000000000000600082015250565b7f4552433732313a2061646472657373207a65726f206973206e6f74206120766160008201527f6c6964206f776e65720000000000000000000000000000000000000000000000602082015250565b7f7175616e746974792063616e6e6f74206265207a65726f000000000000000000600082015250565b7f4552433732313a206d696e7420746f20746865207a65726f2061646472657373600082015250565b7f456c206d6f6e746f2064656c207061676f206e6f20657320696775616c20616c60008201527f2070726563696f00000000000000000000000000000000000000000000000000602082015250565b7f4f776e61626c653a2063616c6c6572206973206e6f7420746865206f776e6572600082015250565b7f6578636565647320330000000000000000000000000000000000000000000000600082015250565b7f4552433732313a20696e76616c696420746f6b656e2049440000000000000000600082015250565b7f4552433732313a20617070726f76616c20746f2063757272656e74206f776e6560008201527f7200000000000000000000000000000000000000000000000000000000000000602082015250565b50565b7f4552433732313a20617070726f76652063616c6c6572206973206e6f7420746f60008201527f6b656e206f776e6572206f7220617070726f76656420666f7220616c6c000000602082015250565b7f455243373231456e756d657261626c653a20676c6f62616c20696e646578206f60008201527f7574206f6620626f756e64730000000000000000000000000000000000000000602082015250565b7f416363657373436f6e74726f6c3a206163636f756e7420000000000000000000600082015250565b7f455243373231456e756d657261626c653a20636f6e736563757469766520747260008201527f616e7366657273206e6f7420737570706f727465640000000000000000000000602082015250565b7f4552433732315072657365744d696e7465725061757365724175746f49643a2060008201527f6d7573742068617665206d696e74657220726f6c6520746f206d696e74000000602082015250565b7f5265656e7472616e637920446574656374656400000000000000000000000000600082015250565b7f4552433732315072657365744d696e7465725061757365724175746f49643a2060008201527f6d75737420686176652070617573657220726f6c6520746f20756e7061757365602082015250565b7f5472616e73616374696f6e204661696c65640000000000000000000000000000600082015250565b7f206973206d697373696e6720726f6c6520000000000000000000000000000000600082015250565b7f416363657373436f6e74726f6c3a2063616e206f6e6c792072656e6f756e636560008201527f20726f6c657320666f722073656c660000000000000000000000000000000000602082015250565b615e3e816153f4565b8114615e4957600080fd5b50565b615e5581615406565b8114615e6057600080fd5b50565b615e6c81615418565b8114615e7757600080fd5b50565b615e8381615424565b8114615e8e57600080fd5b50565b615e9a8161542e565b8114615ea557600080fd5b50565b615eb18161547a565b8114615ebc57600080fd5b5056fea26469706673582212209b2277d32d59c54eb97ef0ffab29ac4b3d6c3088689936b9024121708f1b888764736f6c6343000804003368747470733a2f2f6e66742e616c6563747269636f2e776f726b6572732e6465762f",
  "linkReferences": {},
  "deployedLinkReferences": {}
}