{
  "_format": "hh-sol-artifact-1",
  "contractName": "TokenBat",
  "sourceName": "contracts/TokenBat.sol",
  "abi": [
    {
      "inputs": [],
      "stateMutability": "nonpayable",
      "type": "constructor"
    },
    {
      "anonymous": false,
      "inputs": [
        {
          "indexed": true,
          "internalType": "address",
          "name": "owner",
          "type": "address"
        },
        {
          "indexed": true,
          "internalType": "address",
          "name": "approved",
          "type": "address"
        },
        {
          "indexed": true,
          "internalType": "uint256",
          "name": "tokenId",
          "type": "uint256"
        }
      ],
      "name": "Approval",
      "type": "event"
    },
    {
      "anonymous": false,
      "inputs": [
        {
          "indexed": true,
          "internalType": "address",
          "name": "owner",
          "type": "address"
        },
        {
          "indexed": true,
          "internalType": "address",
          "name": "operator",
          "type": "address"
        },
        {
          "indexed": false,
          "internalType": "bool",
          "name": "approved",
          "type": "bool"
        }
      ],
      "name": "ApprovalForAll",
      "type": "event"
    },
    {
      "anonymous": false,
      "inputs": [
        {
          "indexed": false,
          "internalType": "uint256",
          "name": "tokenId",
          "type": "uint256"
        },
        {
          "indexed": false,
          "internalType": "address",
          "name": "owner",
          "type": "address"
        }
      ],
      "name": "Minted",
      "type": "event"
    },
    {
      "anonymous": false,
      "inputs": [
        {
          "indexed": true,
          "internalType": "address",
          "name": "previousOwner",
          "type": "address"
        },
        {
          "indexed": true,
          "internalType": "address",
          "name": "newOwner",
          "type": "address"
        }
      ],
      "name": "OwnershipTransferred",
      "type": "event"
    },
    {
      "anonymous": false,
      "inputs": [
        {
          "indexed": false,
          "internalType": "address",
          "name": "account",
          "type": "address"
        }
      ],
      "name": "Paused",
      "type": "event"
    },
    {
      "anonymous": false,
      "inputs": [
        {
          "indexed": true,
          "internalType": "bytes32",
          "name": "role",
          "type": "bytes32"
        },
        {
          "indexed": true,
          "internalType": "bytes32",
          "name": "previousAdminRole",
          "type": "bytes32"
        },
        {
          "indexed": true,
          "internalType": "bytes32",
          "name": "newAdminRole",
          "type": "bytes32"
        }
      ],
      "name": "RoleAdminChanged",
      "type": "event"
    },
    {
      "anonymous": false,
      "inputs": [
        {
          "indexed": true,
          "internalType": "bytes32",
          "name": "role",
          "type": "bytes32"
        },
        {
          "indexed": true,
          "internalType": "address",
          "name": "account",
          "type": "address"
        },
        {
          "indexed": true,
          "internalType": "address",
          "name": "sender",
          "type": "address"
        }
      ],
      "name": "RoleGranted",
      "type": "event"
    },
    {
      "anonymous": false,
      "inputs": [
        {
          "indexed": true,
          "internalType": "bytes32",
          "name": "role",
          "type": "bytes32"
        },
        {
          "indexed": true,
          "internalType": "address",
          "name": "account",
          "type": "address"
        },
        {
          "indexed": true,
          "internalType": "address",
          "name": "sender",
          "type": "address"
        }
      ],
      "name": "RoleRevoked",
      "type": "event"
    },
    {
      "anonymous": false,
      "inputs": [
        {
          "indexed": true,
          "internalType": "address",
          "name": "from",
          "type": "address"
        },
        {
          "indexed": true,
          "internalType": "address",
          "name": "to",
          "type": "address"
        },
        {
          "indexed": true,
          "internalType": "uint256",
          "name": "tokenId",
          "type": "uint256"
        }
      ],
      "name": "Transfer",
      "type": "event"
    },
    {
      "anonymous": false,
      "inputs": [
        {
          "indexed": false,
          "internalType": "address",
          "name": "account",
          "type": "address"
        }
      ],
      "name": "Unpaused",
      "type": "event"
    },
    {
      "inputs": [],
      "name": "DEFAULT_ADMIN_ROLE",
      "outputs": [
        {
          "internalType": "bytes32",
          "name": "",
          "type": "bytes32"
        }
      ],
      "stateMutability": "view",
      "type": "function"
    },
    {
      "inputs": [],
      "name": "MAX_TOKENS",
      "outputs": [
        {
          "internalType": "uint256",
          "name": "",
          "type": "uint256"
        }
      ],
      "stateMutability": "view",
      "type": "function"
    },
    {
      "inputs": [],
      "name": "MINTER_ROLE",
      "outputs": [
        {
          "internalType": "bytes32",
          "name": "",
          "type": "bytes32"
        }
      ],
      "stateMutability": "view",
      "type": "function"
    },
    {
      "inputs": [],
      "name": "PAUSER_ROLE",
      "outputs": [
        {
          "internalType": "bytes32",
          "name": "",
          "type": "bytes32"
        }
      ],
      "stateMutability": "view",
      "type": "function"
    },
    {
      "inputs": [
        {
          "internalType": "address",
          "name": "to",
          "type": "address"
        },
        {
          "internalType": "uint256",
          "name": "tokenId",
          "type": "uint256"
        }
      ],
      "name": "approve",
      "outputs": [],
      "stateMutability": "nonpayable",
      "type": "function"
    },
    {
      "inputs": [
        {
          "internalType": "address",
          "name": "owner",
          "type": "address"
        }
      ],
      "name": "balanceOf",
      "outputs": [
        {
          "internalType": "uint256",
          "name": "",
          "type": "uint256"
        }
      ],
      "stateMutability": "view",
      "type": "function"
    },
    {
      "inputs": [
        {
          "internalType": "uint256",
          "name": "tokenId",
          "type": "uint256"
        }
      ],
      "name": "burn",
      "outputs": [],
      "stateMutability": "nonpayable",
      "type": "function"
    },
    {
      "inputs": [
        {
          "internalType": "uint256",
          "name": "tokenId",
          "type": "uint256"
        }
      ],
      "name": "getApproved",
      "outputs": [
        {
          "internalType": "address",
          "name": "",
          "type": "address"
        }
      ],
      "stateMutability": "view",
      "type": "function"
    },
    {
      "inputs": [
        {
          "internalType": "bytes32",
          "name": "role",
          "type": "bytes32"
        }
      ],
      "name": "getRoleAdmin",
      "outputs": [
        {
          "internalType": "bytes32",
          "name": "",
          "type": "bytes32"
        }
      ],
      "stateMutability": "view",
      "type": "function"
    },
    {
      "inputs": [
        {
          "internalType": "bytes32",
          "name": "role",
          "type": "bytes32"
        },
        {
          "internalType": "uint256",
          "name": "index",
          "type": "uint256"
        }
      ],
      "name": "getRoleMember",
      "outputs": [
        {
          "internalType": "address",
          "name": "",
          "type": "address"
        }
      ],
      "stateMutability": "view",
      "type": "function"
    },
    {
      "inputs": [
        {
          "internalType": "bytes32",
          "name": "role",
          "type": "bytes32"
        }
      ],
      "name": "getRoleMemberCount",
      "outputs": [
        {
          "internalType": "uint256",
          "name": "",
          "type": "uint256"
        }
      ],
      "stateMutability": "view",
      "type": "function"
    },
    {
      "inputs": [
        {
          "internalType": "bytes32",
          "name": "role",
          "type": "bytes32"
        },
        {
          "internalType": "address",
          "name": "account",
          "type": "address"
        }
      ],
      "name": "grantRole",
      "outputs": [],
      "stateMutability": "nonpayable",
      "type": "function"
    },
    {
      "inputs": [
        {
          "internalType": "bytes32",
          "name": "role",
          "type": "bytes32"
        },
        {
          "internalType": "address",
          "name": "account",
          "type": "address"
        }
      ],
      "name": "hasRole",
      "outputs": [
        {
          "internalType": "bool",
          "name": "",
          "type": "bool"
        }
      ],
      "stateMutability": "view",
      "type": "function"
    },
    {
      "inputs": [],
      "name": "hasSaleStarted",
      "outputs": [
        {
          "internalType": "bool",
          "name": "",
          "type": "bool"
        }
      ],
      "stateMutability": "view",
      "type": "function"
    },
    {
      "inputs": [],
      "name": "hasSoldOut",
      "outputs": [
        {
          "internalType": "bool",
          "name": "",
          "type": "bool"
        }
      ],
      "stateMutability": "view",
      "type": "function"
    },
    {
      "inputs": [
        {
          "internalType": "address",
          "name": "_owner",
          "type": "address"
        },
        {
          "internalType": "address",
          "name": "_operator",
          "type": "address"
        }
      ],
      "name": "isApprovedForAll",
      "outputs": [
        {
          "internalType": "bool",
          "name": "isOperator",
          "type": "bool"
        }
      ],
      "stateMutability": "view",
      "type": "function"
    },
    {
      "inputs": [
        {
          "internalType": "address",
          "name": "to",
          "type": "address"
        }
      ],
      "name": "mint",
      "outputs": [],
      "stateMutability": "nonpayable",
      "type": "function"
    },
    {
      "inputs": [
        {
          "internalType": "uint256",
          "name": "quantity",
          "type": "uint256"
        },
        {
          "internalType": "address",
          "name": "receiver",
          "type": "address"
        }
      ],
      "name": "mintToken",
      "outputs": [],
      "stateMutability": "payable",
      "type": "function"
    },
    {
      "inputs": [],
      "name": "name",
      "outputs": [
        {
          "internalType": "string",
          "name": "",
          "type": "string"
        }
      ],
      "stateMutability": "view",
      "type": "function"
    },
    {
      "inputs": [],
      "name": "owner",
      "outputs": [
        {
          "internalType": "address",
          "name": "",
          "type": "address"
        }
      ],
      "stateMutability": "view",
      "type": "function"
    },
    {
      "inputs": [
        {
          "internalType": "uint256",
          "name": "tokenId",
          "type": "uint256"
        }
      ],
      "name": "ownerOf",
      "outputs": [
        {
          "internalType": "address",
          "name": "",
          "type": "address"
        }
      ],
      "stateMutability": "view",
      "type": "function"
    },
    {
      "inputs": [],
      "name": "pause",
      "outputs": [],
      "stateMutability": "nonpayable",
      "type": "function"
    },
    {
      "inputs": [],
      "name": "pauseSale",
      "outputs": [],
      "stateMutability": "nonpayable",
      "type": "function"
    },
    {
      "inputs": [],
      "name": "paused",
      "outputs": [
        {
          "internalType": "bool",
          "name": "",
          "type": "bool"
        }
      ],
      "stateMutability": "view",
      "type": "function"
    },
    {
      "inputs": [],
      "name": "renounceOwnership",
      "outputs": [],
      "stateMutability": "nonpayable",
      "type": "function"
    },
    {
      "inputs": [
        {
          "internalType": "bytes32",
          "name": "role",
          "type": "bytes32"
        },
        {
          "internalType": "address",
          "name": "account",
          "type": "address"
        }
      ],
      "name": "renounceRole",
      "outputs": [],
      "stateMutability": "nonpayable",
      "type": "function"
    },
    {
      "inputs": [
        {
          "internalType": "bytes32",
          "name": "role",
          "type": "bytes32"
        },
        {
          "internalType": "address",
          "name": "account",
          "type": "address"
        }
      ],
      "name": "revokeRole",
      "outputs": [],
      "stateMutability": "nonpayable",
      "type": "function"
    },
    {
      "inputs": [
        {
          "internalType": "address",
          "name": "from",
          "type": "address"
        },
        {
          "internalType": "address",
          "name": "to",
          "type": "address"
        },
        {
          "internalType": "uint256",
          "name": "tokenId",
          "type": "uint256"
        }
      ],
      "name": "safeTransferFrom",
      "outputs": [],
      "stateMutability": "nonpayable",
      "type": "function"
    },
    {
      "inputs": [
        {
          "internalType": "address",
          "name": "from",
          "type": "address"
        },
        {
          "internalType": "address",
          "name": "to",
          "type": "address"
        },
        {
          "internalType": "uint256",
          "name": "tokenId",
          "type": "uint256"
        },
        {
          "internalType": "bytes",
          "name": "data",
          "type": "bytes"
        }
      ],
      "name": "safeTransferFrom",
      "outputs": [],
      "stateMutability": "nonpayable",
      "type": "function"
    },
    {
      "inputs": [
        {
          "internalType": "address payable",
          "name": "_to",
          "type": "address"
        },
        {
          "internalType": "uint256",
          "name": "_priceToPay",
          "type": "uint256"
        }
      ],
      "name": "sendEther",
      "outputs": [
        {
          "internalType": "bool",
          "name": "",
          "type": "bool"
        }
      ],
      "stateMutability": "payable",
      "type": "function"
    },
    {
      "inputs": [
        {
          "internalType": "address",
          "name": "operator",
          "type": "address"
        },
        {
          "internalType": "bool",
          "name": "approved",
          "type": "bool"
        }
      ],
      "name": "setApprovalForAll",
      "outputs": [],
      "stateMutability": "nonpayable",
      "type": "function"
    },
    {
      "inputs": [],
      "name": "startSale",
      "outputs": [],
      "stateMutability": "nonpayable",
      "type": "function"
    },
    {
      "inputs": [
        {
          "internalType": "bytes4",
          "name": "interfaceId",
          "type": "bytes4"
        }
      ],
      "name": "supportsInterface",
      "outputs": [
        {
          "internalType": "bool",
          "name": "",
          "type": "bool"
        }
      ],
      "stateMutability": "view",
      "type": "function"
    },
    {
      "inputs": [],
      "name": "symbol",
      "outputs": [
        {
          "internalType": "string",
          "name": "",
          "type": "string"
        }
      ],
      "stateMutability": "view",
      "type": "function"
    },
    {
      "inputs": [
        {
          "internalType": "uint256",
          "name": "index",
          "type": "uint256"
        }
      ],
      "name": "tokenByIndex",
      "outputs": [
        {
          "internalType": "uint256",
          "name": "",
          "type": "uint256"
        }
      ],
      "stateMutability": "view",
      "type": "function"
    },
    {
      "inputs": [
        {
          "internalType": "uint256",
          "name": "tokenId",
          "type": "uint256"
        }
      ],
      "name": "tokenExists",
      "outputs": [
        {
          "internalType": "bool",
          "name": "",
          "type": "bool"
        }
      ],
      "stateMutability": "view",
      "type": "function"
    },
    {
      "inputs": [
        {
          "internalType": "address",
          "name": "owner",
          "type": "address"
        },
        {
          "internalType": "uint256",
          "name": "index",
          "type": "uint256"
        }
      ],
      "name": "tokenOfOwnerByIndex",
      "outputs": [
        {
          "internalType": "uint256",
          "name": "",
          "type": "uint256"
        }
      ],
      "stateMutability": "view",
      "type": "function"
    },
    {
      "inputs": [
        {
          "internalType": "uint256",
          "name": "tokenId",
          "type": "uint256"
        }
      ],
      "name": "tokenURI",
      "outputs": [
        {
          "internalType": "string",
          "name": "",
          "type": "string"
        }
      ],
      "stateMutability": "view",
      "type": "function"
    },
    {
      "inputs": [],
      "name": "totalSupply",
      "outputs": [
        {
          "internalType": "uint256",
          "name": "",
          "type": "uint256"
        }
      ],
      "stateMutability": "view",
      "type": "function"
    },
    {
      "inputs": [
        {
          "internalType": "address",
          "name": "from",
          "type": "address"
        },
        {
          "internalType": "address",
          "name": "to",
          "type": "address"
        },
        {
          "internalType": "uint256",
          "name": "tokenId",
          "type": "uint256"
        }
      ],
      "name": "transferFrom",
      "outputs": [],
      "stateMutability": "nonpayable",
      "type": "function"
    },
    {
      "inputs": [
        {
          "internalType": "address",
          "name": "newOwner",
          "type": "address"
        }
      ],
      "name": "transferOwnership",
      "outputs": [],
      "stateMutability": "nonpayable",
      "type": "function"
    },
    {
      "inputs": [],
      "name": "unpause",
      "outputs": [],
      "stateMutability": "nonpayable",
      "type": "function"
    },
    {
      "inputs": [
        {
          "internalType": "address payable",
          "name": "_to",
          "type": "address"
        },
        {
          "internalType": "uint256",
          "name": "_amount",
          "type": "uint256"
        }
      ],
      "name": "withdrawEther",
      "outputs": [
        {
          "internalType": "bool",
          "name": "",
          "type": "bool"
        }
      ],
      "stateMutability": "payable",
      "type": "function"
    }
  ],
  "bytecode": "0x60806040526000600f60146101000a81548160ff0219169083151502179055506000600f60156101000a81548160ff0219169083151502179055503480156200004757600080fd5b506040518060400160405280600881526020017f546f6b656e4261740000000000000000000000000000000000000000000000008152506040518060400160405280600881526020017f546f6b656e4261740000000000000000000000000000000000000000000000008152506040518060600160405280602281526020016200651f6022913982828160029080519060200190620000e89291906200062a565b508060039080519060200190620001019291906200062a565b5050506000600c60006101000a81548160ff02191690831515021790555080600e9080519060200190620001379291906200062a565b506200015c6000801b620001506200020760201b60201c565b6200022360201b60201c565b6200019d7f9f2df0fed2c77648de5860a4cc508cd0818c85b8b8a1ab4ceeef8d981c8956a6620001916200020760201b60201c565b6200022360201b60201c565b620001de7f65d7a28e3265b37a6474929f336521b332c1681b933f6cb9f3376673440d862a620001d26200020760201b60201c565b6200022360201b60201c565b50505062000201620001f56200020760201b60201c565b6200023960201b60201c565b6200073f565b60006200021e620002ff60201b62001b451760201c565b905090565b620002358282620003b260201b60201c565b5050565b6000600f60009054906101000a900473ffffffffffffffffffffffffffffffffffffffff16905081600f60006101000a81548173ffffffffffffffffffffffffffffffffffffffff021916908373ffffffffffffffffffffffffffffffffffffffff1602179055508173ffffffffffffffffffffffffffffffffffffffff168173ffffffffffffffffffffffffffffffffffffffff167f8be0079c531659141344cd1fd0a4f28419497f9722a3daafe3b4186f6b6457e060405160405180910390a35050565b60003073ffffffffffffffffffffffffffffffffffffffff163373ffffffffffffffffffffffffffffffffffffffff161415620003ab57600080368080601f016020809104026020016040519081016040528093929190818152602001838380828437600081840152601f19601f820116905080830192505050505050509050600080369050905073ffffffffffffffffffffffffffffffffffffffff818301511692505050620003af565b3390505b90565b620003c98282620003fa60201b62001bf61760201c565b620003f58160016000858152602001908152602001600020620004eb60201b62001cd61790919060201c565b505050565b6200040c82826200052360201b60201c565b620004e757600160008084815260200190815260200160002060000160008373ffffffffffffffffffffffffffffffffffffffff1673ffffffffffffffffffffffffffffffffffffffff16815260200190815260200160002060006101000a81548160ff0219169083151502179055506200048c6200020760201b60201c565b73ffffffffffffffffffffffffffffffffffffffff168173ffffffffffffffffffffffffffffffffffffffff16837f2f8788117e7eff1d82e926ec794901d17c78024a50270940304540a733656f0d60405160405180910390a45b5050565b60006200051b836000018373ffffffffffffffffffffffffffffffffffffffff1660001b6200058d60201b60201c565b905092915050565b600080600084815260200190815260200160002060000160008373ffffffffffffffffffffffffffffffffffffffff1673ffffffffffffffffffffffffffffffffffffffff16815260200190815260200160002060009054906101000a900460ff16905092915050565b6000620005a183836200060760201b60201c565b620005fc57826000018290806001815401808255809150506001900390600052602060002001600090919091909150558260000180549050836001016000848152602001908152602001600020819055506001905062000601565b600090505b92915050565b600080836001016000848152602001908152602001600020541415905092915050565b8280546200063890620006da565b90600052602060002090601f0160209004810192826200065c5760008555620006a8565b82601f106200067757805160ff1916838001178555620006a8565b82800160010185558215620006a8579182015b82811115620006a75782518255916020019190600101906200068a565b5b509050620006b79190620006bb565b5090565b5b80821115620006d6576000816000905550600101620006bc565b5090565b60006002820490506001821680620006f357607f821691505b602082108114156200070a576200070962000710565b5b50919050565b7f4e487b7100000000000000000000000000000000000000000000000000000000600052602260045260246000fd5b615dd0806200074f6000396000f3fe60806040526004361061025b5760003560e01c80636a62784211610144578063b66a0e5d116100b6578063d53913931161007a578063d5391393146108f4578063d547741f1461091f578063e63ab1e914610948578063e985e9c514610973578063f2fde38b146109b0578063f47c84c5146109d95761025b565b8063b66a0e5d1461080a578063b88d4fde14610821578063c1756a2c1461084a578063c87b56dd1461087a578063ca15c873146108b75761025b565b80639010d07c116101085780639010d07c146106f557806391d148541461073257806395d89b411461076f578063a140ae231461079a578063a217fddf146107b6578063a22cb465146107e15761025b565b80636a6278421461063657806370a082311461065f578063715018a61461069c5780638456cb59146106b35780638da5cb5b146106ca5761025b565b80632f2ff15d116101dd57806342966c68116101a157806342966c68146105215780634f6ccce71461054a578063522f68151461058757806355367ba9146105b75780635c975abb146105ce5780636352211e146105f95761025b565b80632f2ff15d146104525780632f745c591461047b57806336568abe146104b85780633f4ba83a146104e157806342842e0e146104f85761025b565b8063095ea7b311610224578063095ea7b31461036d57806318160ddd146103965780631c8b232d146103c157806323b872dd146103ec578063248a9ca3146104155761025b565b8062923f9e1461026057806301ffc9a71461029d57806303824f76146102da57806306fdde0314610305578063081812fc14610330575b600080fd5b34801561026c57600080fd5b50610287600480360381019061028291906145c4565b610a04565b6040516102949190614cab565b60405180910390f35b3480156102a957600080fd5b506102c460048036038101906102bf9190614572565b610a16565b6040516102d19190614cab565b60405180910390f35b3480156102e657600080fd5b506102ef610a28565b6040516102fc9190614cab565b60405180910390f35b34801561031157600080fd5b5061031a610a4a565b6040516103279190614ce1565b60405180910390f35b34801561033c57600080fd5b50610357600480360381019061035291906145c4565b610adc565b6040516103649190614c44565b60405180910390f35b34801561037957600080fd5b50610394600480360381019061038f9190614495565b610b22565b005b3480156103a257600080fd5b506103ab610c3a565b6040516103b89190615103565b60405180910390f35b3480156103cd57600080fd5b506103d6610c47565b6040516103e39190614cab565b60405180910390f35b3480156103f857600080fd5b50610413600480360381019061040e919061438f565b610c5a565b005b34801561042157600080fd5b5061043c600480360381019061043791906144d1565b610cba565b6040516104499190614cc6565b60405180910390f35b34801561045e57600080fd5b50610479600480360381019061047491906144fa565b610cd9565b005b34801561048757600080fd5b506104a2600480360381019061049d9190614495565b610cfa565b6040516104af9190615103565b60405180910390f35b3480156104c457600080fd5b506104df60048036038101906104da91906144fa565b610d9f565b005b3480156104ed57600080fd5b506104f6610e22565b005b34801561050457600080fd5b5061051f600480360381019061051a919061438f565b610e9c565b005b34801561052d57600080fd5b50610548600480360381019061054391906145c4565b610ebc565b005b34801561055657600080fd5b50610571600480360381019061056c91906145c4565b610f18565b60405161057e9190615103565b60405180910390f35b6105a1600480360381019061059c9190614317565b610faf565b6040516105ae9190614cab565b60405180910390f35b3480156105c357600080fd5b506105cc61112f565b005b3480156105da57600080fd5b506105e3611154565b6040516105f09190614cab565b60405180910390f35b34801561060557600080fd5b50610620600480360381019061061b91906145c4565b61116b565b60405161062d9190614c44565b60405180910390f35b34801561064257600080fd5b5061065d600480360381019061065891906142ee565b6111f2565b005b34801561066b57600080fd5b50610686600480360381019061068191906142ee565b611282565b6040516106939190615103565b60405180910390f35b3480156106a857600080fd5b506106b161133a565b005b3480156106bf57600080fd5b506106c861134e565b005b3480156106d657600080fd5b506106df6113c8565b6040516106ec9190614c44565b60405180910390f35b34801561070157600080fd5b5061071c60048036038101906107179190614536565b6113f2565b6040516107299190614c44565b60405180910390f35b34801561073e57600080fd5b50610759600480360381019061075491906144fa565b611421565b6040516107669190614cab565b60405180910390f35b34801561077b57600080fd5b5061078461148b565b6040516107919190614ce1565b60405180910390f35b6107b460048036038101906107af91906145ed565b61151d565b005b3480156107c257600080fd5b506107cb61173d565b6040516107d89190614cc6565b60405180910390f35b3480156107ed57600080fd5b5061080860048036038101906108039190614459565b611744565b005b34801561081657600080fd5b5061081f61175a565b005b34801561082d57600080fd5b50610848600480360381019061084391906143de565b61177f565b005b610864600480360381019061085f9190614317565b6117e1565b6040516108719190614cab565b60405180910390f35b34801561088657600080fd5b506108a1600480360381019061089c91906145c4565b611961565b6040516108ae9190614ce1565b60405180910390f35b3480156108c357600080fd5b506108de60048036038101906108d991906144d1565b6119c9565b6040516108eb9190615103565b60405180910390f35b34801561090057600080fd5b506109096119ed565b6040516109169190614cc6565b60405180910390f35b34801561092b57600080fd5b50610946600480360381019061094191906144fa565b611a11565b005b34801561095457600080fd5b5061095d611a32565b60405161096a9190614cc6565b60405180910390f35b34801561097f57600080fd5b5061099a60048036038101906109959190614353565b611a56565b6040516109a79190614cab565b60405180910390f35b3480156109bc57600080fd5b506109d760048036038101906109d291906142ee565b611abc565b005b3480156109e557600080fd5b506109ee611b40565b6040516109fb9190615103565b60405180910390f35b6000610a0f82611d06565b9050919050565b6000610a2182611d47565b9050919050565b60006040610a34610c3a565b10610a425760019050610a47565b600090505b90565b606060028054610a59906153cb565b80601f0160208091040260200160405190810160405280929190818152602001828054610a85906153cb565b8015610ad25780601f10610aa757610100808354040283529160200191610ad2565b820191906000526020600020905b815481529060010190602001808311610ab557829003601f168201915b5050505050905090565b6000610ae782611dc1565b6006600083815260200190815260200160002060009054906101000a900473ffffffffffffffffffffffffffffffffffffffff169050919050565b6000610b2d8261116b565b90508073ffffffffffffffffffffffffffffffffffffffff168373ffffffffffffffffffffffffffffffffffffffff161415610b9e576040517f08c379a0000000000000000000000000000000000000000000000000000000008152600401610b9590614fe3565b60405180910390fd5b8073ffffffffffffffffffffffffffffffffffffffff16610bbd611e0c565b73ffffffffffffffffffffffffffffffffffffffff161480610bec5750610beb81610be6611e0c565b611a56565b5b610c2b576040517f08c379a0000000000000000000000000000000000000000000000000000000008152600401610c2290615003565b60405180910390fd5b610c358383611e1b565b505050565b6000600a80549050905090565b600f60159054906101000a900460ff1681565b610c6b610c65611e0c565b82611ed4565b610caa576040517f08c379a0000000000000000000000000000000000000000000000000000000008152600401610ca190614d83565b60405180910390fd5b610cb5838383611f69565b505050565b6000806000838152602001908152602001600020600101549050919050565b610ce282610cba565b610ceb81612263565b610cf58383612277565b505050565b6000610d0583611282565b8210610d46576040517f08c379a0000000000000000000000000000000000000000000000000000000008152600401610d3d90614da3565b60405180910390fd5b600860008473ffffffffffffffffffffffffffffffffffffffff1673ffffffffffffffffffffffffffffffffffffffff168152602001908152602001600020600083815260200190815260200160002054905092915050565b610da7611e0c565b73ffffffffffffffffffffffffffffffffffffffff168173ffffffffffffffffffffffffffffffffffffffff1614610e14576040517f08c379a0000000000000000000000000000000000000000000000000000000008152600401610e0b906150e3565b60405180910390fd5b610e1e82826122ab565b5050565b610e537f65d7a28e3265b37a6474929f336521b332c1681b933f6cb9f3376673440d862a610e4e611e0c565b611421565b610e92576040517f08c379a0000000000000000000000000000000000000000000000000000000008152600401610e89906150a3565b60405180910390fd5b610e9a6122df565b565b610eb78383836040518060200160405280600081525061177f565b505050565b610ecd610ec7611e0c565b82611ed4565b610f0c576040517f08c379a0000000000000000000000000000000000000000000000000000000008152600401610f0390614d83565b60405180910390fd5b610f1581612342565b50565b6000610f22610c3a565b8210610f63576040517f08c379a0000000000000000000000000000000000000000000000000000000008152600401610f5a90615023565b60405180910390fd5b600a8281548110610f9d577f4e487b7100000000000000000000000000000000000000000000000000000000600052603260045260246000fd5b90600052602060002001549050919050565b6000600f60149054906101000a900460ff1615611001576040517f08c379a0000000000000000000000000000000000000000000000000000000008152600401610ff890615083565b60405180910390fd5b6001600f60146101000a81548160ff02191690831515021790555081341461105e576040517f08c379a000000000000000000000000000000000000000000000000000000000815260040161105590614f63565b60405180910390fd5b60008373ffffffffffffffffffffffffffffffffffffffff168360405161108490614bf5565b60006040518083038185875af1925050503d80600081146110c1576040519150601f19603f3d011682016040523d82523d6000602084013e6110c6565b606091505b505090508061110a576040517f08c379a0000000000000000000000000000000000000000000000000000000008152600401611101906150c3565b60405180910390fd5b6000600f60146101000a81548160ff0219169083151502179055508091505092915050565b611137612490565b6000600f60156101000a81548160ff021916908315150217905550565b6000600c60009054906101000a900460ff16905090565b6000806111778361250e565b9050600073ffffffffffffffffffffffffffffffffffffffff168173ffffffffffffffffffffffffffffffffffffffff1614156111e9576040517f08c379a00000000000000000000000000000000000000000000000000000000081526004016111e090614fc3565b60405180910390fd5b80915050919050565b6112237f9f2df0fed2c77648de5860a4cc508cd0818c85b8b8a1ab4ceeef8d981c8956a661121e611e0c565b611421565b611262576040517f08c379a000000000000000000000000000000000000000000000000000000000815260040161125990615063565b60405180910390fd5b61127581611270600d61254b565b612559565b61127f600d612777565b50565b60008073ffffffffffffffffffffffffffffffffffffffff168273ffffffffffffffffffffffffffffffffffffffff1614156112f3576040517f08c379a00000000000000000000000000000000000000000000000000000000081526004016112ea90614f03565b60405180910390fd5b600560008373ffffffffffffffffffffffffffffffffffffffff1673ffffffffffffffffffffffffffffffffffffffff168152602001908152602001600020549050919050565b611342612490565b61134c600061278d565b565b61137f7f65d7a28e3265b37a6474929f336521b332c1681b933f6cb9f3376673440d862a61137a611e0c565b611421565b6113be576040517f08c379a00000000000000000000000000000000000000000000000000000000081526004016113b590614e43565b60405180910390fd5b6113c6612853565b565b6000600f60009054906101000a900473ffffffffffffffffffffffffffffffffffffffff16905090565b600061141982600160008681526020019081526020016000206128b690919063ffffffff16565b905092915050565b600080600084815260200190815260200160002060000160008373ffffffffffffffffffffffffffffffffffffffff1673ffffffffffffffffffffffffffffffffffffffff16815260200190815260200160002060009054906101000a900460ff16905092915050565b60606003805461149a906153cb565b80601f01602080910402602001604051908101604052809291908181526020018280546114c6906153cb565b80156115135780601f106114e857610100808354040283529160200191611513565b820191906000526020600020905b8154815290600101906020018083116114f657829003601f168201915b5050505050905090565b600f60159054906101000a900460ff168061156a575061153b6113c8565b73ffffffffffffffffffffffffffffffffffffffff163373ffffffffffffffffffffffffffffffffffffffff16145b6115a9576040517f08c379a00000000000000000000000000000000000000000000000000000000081526004016115a090614d63565b60405180910390fd5b600082116115ec576040517f08c379a00000000000000000000000000000000000000000000000000000000081526004016115e390614f23565b60405180910390fd5b6003821115611630576040517f08c379a000000000000000000000000000000000000000000000000000000000815260040161162790614fa3565b60405180910390fd5b604061164c8361163e610c3a565b6128d090919063ffffffff16565b11158061168b575061165c6113c8565b73ffffffffffffffffffffffffffffffffffffffff163373ffffffffffffffffffffffffffffffffffffffff16145b6116ca576040517f08c379a00000000000000000000000000000000000000000000000000000000081526004016116c190614ea3565b60405180910390fd5b60005b828110156117385760006116df610c3a565b90506116eb83826128e6565b7fb9203d657e9c0ec8274c818292ab0f58b04e1970050716891770eb1bab5d655e818460405161171c92919061511e565b60405180910390a15080806117309061542e565b9150506116cd565b505050565b6000801b81565b61175661174f611e0c565b8383612904565b5050565b611762612490565b6001600f60156101000a81548160ff021916908315150217905550565b61179061178a611e0c565b83611ed4565b6117cf576040517f08c379a00000000000000000000000000000000000000000000000000000000081526004016117c690614d83565b60405180910390fd5b6117db84848484612a71565b50505050565b6000600f60149054906101000a900460ff1615611833576040517f08c379a000000000000000000000000000000000000000000000000000000000815260040161182a90615083565b60405180910390fd5b6001600f60146101000a81548160ff021916908315150217905550813414611890576040517f08c379a000000000000000000000000000000000000000000000000000000000815260040161188790614f63565b60405180910390fd5b60008373ffffffffffffffffffffffffffffffffffffffff16836040516118b690614bf5565b60006040518083038185875af1925050503d80600081146118f3576040519150601f19603f3d011682016040523d82523d6000602084013e6118f8565b606091505b505090508061193c576040517f08c379a000000000000000000000000000000000000000000000000000000000815260040161193390614ec3565b60405180910390fd5b6000600f60146101000a81548160ff0219169083151502179055508091505092915050565b606061196c82611dc1565b6000611976612acd565b9050600081511161199657604051806020016040528060008152506119c1565b806119a084612b5f565b6040516020016119b1929190614bd1565b6040516020818303038152906040525b915050919050565b60006119e660016000848152602001908152602001600020612c83565b9050919050565b7f9f2df0fed2c77648de5860a4cc508cd0818c85b8b8a1ab4ceeef8d981c8956a681565b611a1a82610cba565b611a2381612263565b611a2d83836122ab565b505050565b7f65d7a28e3265b37a6474929f336521b332c1681b933f6cb9f3376673440d862a81565b60007358807bad0b376efc12f5ad86aac70e78ed67deae73ffffffffffffffffffffffffffffffffffffffff168273ffffffffffffffffffffffffffffffffffffffff161415611aa95760019050611ab6565b611ab38383612c98565b90505b92915050565b611ac4612490565b600073ffffffffffffffffffffffffffffffffffffffff168173ffffffffffffffffffffffffffffffffffffffff161415611b34576040517f08c379a0000000000000000000000000000000000000000000000000000000008152600401611b2b90614de3565b60405180910390fd5b611b3d8161278d565b50565b604081565b60003073ffffffffffffffffffffffffffffffffffffffff163373ffffffffffffffffffffffffffffffffffffffff161415611bef57600080368080601f016020809104026020016040519081016040528093929190818152602001838380828437600081840152601f19601f820116905080830192505050505050509050600080369050905073ffffffffffffffffffffffffffffffffffffffff818301511692505050611bf3565b3390505b90565b611c008282611421565b611cd257600160008084815260200190815260200160002060000160008373ffffffffffffffffffffffffffffffffffffffff1673ffffffffffffffffffffffffffffffffffffffff16815260200190815260200160002060006101000a81548160ff021916908315150217905550611c77611e0c565b73ffffffffffffffffffffffffffffffffffffffff168173ffffffffffffffffffffffffffffffffffffffff16837f2f8788117e7eff1d82e926ec794901d17c78024a50270940304540a733656f0d60405160405180910390a45b5050565b6000611cfe836000018373ffffffffffffffffffffffffffffffffffffffff1660001b612d2c565b905092915050565b60008073ffffffffffffffffffffffffffffffffffffffff16611d288361250e565b73ffffffffffffffffffffffffffffffffffffffff1614159050919050565b60007f780e9d63000000000000000000000000000000000000000000000000000000007bffffffffffffffffffffffffffffffffffffffffffffffffffffffff1916827bffffffffffffffffffffffffffffffffffffffffffffffffffffffff19161480611dba5750611db982612d9c565b5b9050919050565b611dca81611d06565b611e09576040517f08c379a0000000000000000000000000000000000000000000000000000000008152600401611e0090614fc3565b60405180910390fd5b50565b6000611e16611b45565b905090565b816006600083815260200190815260200160002060006101000a81548173ffffffffffffffffffffffffffffffffffffffff021916908373ffffffffffffffffffffffffffffffffffffffff160217905550808273ffffffffffffffffffffffffffffffffffffffff16611e8e8361116b565b73ffffffffffffffffffffffffffffffffffffffff167f8c5be1e5ebec7d5bd14f71427d1e84f3dd0314c0f7b2291e5b200ac8c7c3b92560405160405180910390a45050565b600080611ee08361116b565b90508073ffffffffffffffffffffffffffffffffffffffff168473ffffffffffffffffffffffffffffffffffffffff161480611f225750611f218185611a56565b5b80611f6057508373ffffffffffffffffffffffffffffffffffffffff16611f4884610adc565b73ffffffffffffffffffffffffffffffffffffffff16145b91505092915050565b8273ffffffffffffffffffffffffffffffffffffffff16611f898261116b565b73ffffffffffffffffffffffffffffffffffffffff1614611fdf576040517f08c379a0000000000000000000000000000000000000000000000000000000008152600401611fd690614e03565b60405180910390fd5b600073ffffffffffffffffffffffffffffffffffffffff168273ffffffffffffffffffffffffffffffffffffffff16141561204f576040517f08c379a000000000000000000000000000000000000000000000000000000000815260040161204690614e63565b60405180910390fd5b61205c8383836001612e7e565b8273ffffffffffffffffffffffffffffffffffffffff1661207c8261116b565b73ffffffffffffffffffffffffffffffffffffffff16146120d2576040517f08c379a00000000000000000000000000000000000000000000000000000000081526004016120c990614e03565b60405180910390fd5b6006600082815260200190815260200160002060006101000a81549073ffffffffffffffffffffffffffffffffffffffff02191690556001600560008573ffffffffffffffffffffffffffffffffffffffff1673ffffffffffffffffffffffffffffffffffffffff168152602001908152602001600020600082825403925050819055506001600560008473ffffffffffffffffffffffffffffffffffffffff1673ffffffffffffffffffffffffffffffffffffffff16815260200190815260200160002060008282540192505081905550816004600083815260200190815260200160002060006101000a81548173ffffffffffffffffffffffffffffffffffffffff021916908373ffffffffffffffffffffffffffffffffffffffff160217905550808273ffffffffffffffffffffffffffffffffffffffff168473ffffffffffffffffffffffffffffffffffffffff167fddf252ad1be2c89b69c2b068fc378daa952ba7f163c4a11628f55a4df523b3ef60405160405180910390a461225e8383836001612e90565b505050565b6122748161226f611e0c565b612e96565b50565b6122818282611bf6565b6122a68160016000858152602001908152602001600020611cd690919063ffffffff16565b505050565b6122b58282612f1b565b6122da8160016000858152602001908152602001600020612ffc90919063ffffffff16565b505050565b6122e761302c565b6000600c60006101000a81548160ff0219169083151502179055507f5db9ee0a495bf2e6ff9c91a7834c1ba4fdd244a5e8aa4e537bd38aeae4b073aa61232b611e0c565b6040516123389190614c44565b60405180910390a1565b600061234d8261116b565b905061235d816000846001612e7e565b6123668261116b565b90506006600083815260200190815260200160002060006101000a81549073ffffffffffffffffffffffffffffffffffffffff02191690556001600560008373ffffffffffffffffffffffffffffffffffffffff1673ffffffffffffffffffffffffffffffffffffffff168152602001908152602001600020600082825403925050819055506004600083815260200190815260200160002060006101000a81549073ffffffffffffffffffffffffffffffffffffffff021916905581600073ffffffffffffffffffffffffffffffffffffffff168273ffffffffffffffffffffffffffffffffffffffff167fddf252ad1be2c89b69c2b068fc378daa952ba7f163c4a11628f55a4df523b3ef60405160405180910390a461248c816000846001612e90565b5050565b612498611e0c565b73ffffffffffffffffffffffffffffffffffffffff166124b66113c8565b73ffffffffffffffffffffffffffffffffffffffff161461250c576040517f08c379a000000000000000000000000000000000000000000000000000000000815260040161250390614f83565b60405180910390fd5b565b60006004600083815260200190815260200160002060009054906101000a900473ffffffffffffffffffffffffffffffffffffffff169050919050565b600081600001549050919050565b600073ffffffffffffffffffffffffffffffffffffffff168273ffffffffffffffffffffffffffffffffffffffff1614156125c9576040517f08c379a00000000000000000000000000000000000000000000000000000000081526004016125c090614f43565b60405180910390fd5b6125d281611d06565b15612612576040517f08c379a000000000000000000000000000000000000000000000000000000000815260040161260990614e23565b60405180910390fd5b612620600083836001612e7e565b61262981611d06565b15612669576040517f08c379a000000000000000000000000000000000000000000000000000000000815260040161266090614e23565b60405180910390fd5b6001600560008473ffffffffffffffffffffffffffffffffffffffff1673ffffffffffffffffffffffffffffffffffffffff16815260200190815260200160002060008282540192505081905550816004600083815260200190815260200160002060006101000a81548173ffffffffffffffffffffffffffffffffffffffff021916908373ffffffffffffffffffffffffffffffffffffffff160217905550808273ffffffffffffffffffffffffffffffffffffffff16600073ffffffffffffffffffffffffffffffffffffffff167fddf252ad1be2c89b69c2b068fc378daa952ba7f163c4a11628f55a4df523b3ef60405160405180910390a4612773600083836001612e90565b5050565b6001816000016000828254019250508190555050565b6000600f60009054906101000a900473ffffffffffffffffffffffffffffffffffffffff16905081600f60006101000a81548173ffffffffffffffffffffffffffffffffffffffff021916908373ffffffffffffffffffffffffffffffffffffffff1602179055508173ffffffffffffffffffffffffffffffffffffffff168173ffffffffffffffffffffffffffffffffffffffff167f8be0079c531659141344cd1fd0a4f28419497f9722a3daafe3b4186f6b6457e060405160405180910390a35050565b61285b613075565b6001600c60006101000a81548160ff0219169083151502179055507f62e78cea01bee320cd4e420270b5ea74000d11b0c9f74754ebdbfc544b05a25861289f611e0c565b6040516128ac9190614c44565b60405180910390a1565b60006128c583600001836130bf565b60001c905092915050565b600081836128de91906151eb565b905092915050565b612900828260405180602001604052806000815250613110565b5050565b8173ffffffffffffffffffffffffffffffffffffffff168373ffffffffffffffffffffffffffffffffffffffff161415612973576040517f08c379a000000000000000000000000000000000000000000000000000000000815260040161296a90614e83565b60405180910390fd5b80600760008573ffffffffffffffffffffffffffffffffffffffff1673ffffffffffffffffffffffffffffffffffffffff16815260200190815260200160002060008473ffffffffffffffffffffffffffffffffffffffff1673ffffffffffffffffffffffffffffffffffffffff16815260200190815260200160002060006101000a81548160ff0219169083151502179055508173ffffffffffffffffffffffffffffffffffffffff168373ffffffffffffffffffffffffffffffffffffffff167f17307eab39ab6107e8899845ad3d59bd9653f200f220920489ca2b5937696c3183604051612a649190614cab565b60405180910390a3505050565b612a7c848484611f69565b612a888484848461316b565b612ac7576040517f08c379a0000000000000000000000000000000000000000000000000000000008152600401612abe90614dc3565b60405180910390fd5b50505050565b6060600e8054612adc906153cb565b80601f0160208091040260200160405190810160405280929190818152602001828054612b08906153cb565b8015612b555780601f10612b2a57610100808354040283529160200191612b55565b820191906000526020600020905b815481529060010190602001808311612b3857829003601f168201915b5050505050905090565b606060006001612b6e84613302565b01905060008167ffffffffffffffff811115612bb3577f4e487b7100000000000000000000000000000000000000000000000000000000600052604160045260246000fd5b6040519080825280601f01601f191660200182016040528015612be55781602001600182028036833780820191505090505b509050600082602001820190505b600115612c78578080600190039150507f3031323334353637383961626364656600000000000000000000000000000000600a86061a8153600a8581612c62577f4e487b7100000000000000000000000000000000000000000000000000000000600052601260045260246000fd5b0494506000851415612c7357612c78565b612bf3565b819350505050919050565b6000612c9182600001613539565b9050919050565b6000600760008473ffffffffffffffffffffffffffffffffffffffff1673ffffffffffffffffffffffffffffffffffffffff16815260200190815260200160002060008373ffffffffffffffffffffffffffffffffffffffff1673ffffffffffffffffffffffffffffffffffffffff16815260200190815260200160002060009054906101000a900460ff16905092915050565b6000612d38838361354a565b612d91578260000182908060018154018082558091505060019003906000526020600020016000909190919091505582600001805490508360010160008481526020019081526020016000208190555060019050612d96565b600090505b92915050565b60007f80ac58cd000000000000000000000000000000000000000000000000000000007bffffffffffffffffffffffffffffffffffffffffffffffffffffffff1916827bffffffffffffffffffffffffffffffffffffffffffffffffffffffff19161480612e6757507f5b5e139f000000000000000000000000000000000000000000000000000000007bffffffffffffffffffffffffffffffffffffffffffffffffffffffff1916827bffffffffffffffffffffffffffffffffffffffffffffffffffffffff1916145b80612e775750612e768261356d565b5b9050919050565b612e8a848484846135e7565b50505050565b50505050565b612ea08282611421565b612f1757612ead81613641565b612ebb8360001c602061366e565b604051602001612ecc929190614c0a565b6040516020818303038152906040526040517f08c379a0000000000000000000000000000000000000000000000000000000008152600401612f0e9190614ce1565b60405180910390fd5b5050565b612f258282611421565b15612ff857600080600084815260200190815260200160002060000160008373ffffffffffffffffffffffffffffffffffffffff1673ffffffffffffffffffffffffffffffffffffffff16815260200190815260200160002060006101000a81548160ff021916908315150217905550612f9d611e0c565b73ffffffffffffffffffffffffffffffffffffffff168173ffffffffffffffffffffffffffffffffffffffff16837ff6391f5c32d9c69d2a47ea670b442974b53935d1edc7fd64eb21e047a839171b60405160405180910390a45b5050565b6000613024836000018373ffffffffffffffffffffffffffffffffffffffff1660001b613968565b905092915050565b613034611154565b613073576040517f08c379a000000000000000000000000000000000000000000000000000000000815260040161306a90614d43565b60405180910390fd5b565b61307d611154565b156130bd576040517f08c379a00000000000000000000000000000000000000000000000000000000081526004016130b490614ee3565b60405180910390fd5b565b60008260000182815481106130fd577f4e487b7100000000000000000000000000000000000000000000000000000000600052603260045260246000fd5b9060005260206000200154905092915050565b61311a8383612559565b613127600084848461316b565b613166576040517f08c379a000000000000000000000000000000000000000000000000000000000815260040161315d90614dc3565b60405180910390fd5b505050565b600061318c8473ffffffffffffffffffffffffffffffffffffffff16613aee565b156132f5578373ffffffffffffffffffffffffffffffffffffffff1663150b7a026131b5611e0c565b8786866040518563ffffffff1660e01b81526004016131d79493929190614c5f565b602060405180830381600087803b1580156131f157600080fd5b505af192505050801561322257506040513d601f19601f8201168201806040525081019061321f919061459b565b60015b6132a5573d8060008114613252576040519150601f19603f3d011682016040523d82523d6000602084013e613257565b606091505b5060008151141561329d576040517f08c379a000000000000000000000000000000000000000000000000000000000815260040161329490614dc3565b60405180910390fd5b805181602001fd5b63150b7a0260e01b7bffffffffffffffffffffffffffffffffffffffffffffffffffffffff1916817bffffffffffffffffffffffffffffffffffffffffffffffffffffffff1916149150506132fa565b600190505b949350505050565b600080600090507a184f03e93ff9f4daa797ed6e38ed64bf6a1f0100000000000000008310613386577a184f03e93ff9f4daa797ed6e38ed64bf6a1f010000000000000000838161337c577f4e487b7100000000000000000000000000000000000000000000000000000000600052601260045260246000fd5b0492506040810190505b6d04ee2d6d415b85acef810000000083106133e9576d04ee2d6d415b85acef810000000083816133df577f4e487b7100000000000000000000000000000000000000000000000000000000600052601260045260246000fd5b0492506020810190505b662386f26fc10000831061343e57662386f26fc100008381613434577f4e487b7100000000000000000000000000000000000000000000000000000000600052601260045260246000fd5b0492506010810190505b6305f5e100831061348d576305f5e1008381613483577f4e487b7100000000000000000000000000000000000000000000000000000000600052601260045260246000fd5b0492506008810190505b61271083106134d85761271083816134ce577f4e487b7100000000000000000000000000000000000000000000000000000000600052601260045260246000fd5b0492506004810190505b606483106135215760648381613517577f4e487b7100000000000000000000000000000000000000000000000000000000600052601260045260246000fd5b0492506002810190505b600a8310613530576001810190505b80915050919050565b600081600001805490509050919050565b600080836001016000848152602001908152602001600020541415905092915050565b60007f5a05180f000000000000000000000000000000000000000000000000000000007bffffffffffffffffffffffffffffffffffffffffffffffffffffffff1916827bffffffffffffffffffffffffffffffffffffffffffffffffffffffff191614806135e057506135df82613b11565b5b9050919050565b6135f384848484613b8b565b6135fb611154565b1561363b576040517f08c379a000000000000000000000000000000000000000000000000000000000815260040161363290614d23565b60405180910390fd5b50505050565b60606136678273ffffffffffffffffffffffffffffffffffffffff16601460ff1661366e565b9050919050565b6060600060028360026136819190615241565b61368b91906151eb565b67ffffffffffffffff8111156136ca577f4e487b7100000000000000000000000000000000000000000000000000000000600052604160045260246000fd5b6040519080825280601f01601f1916602001820160405280156136fc5781602001600182028036833780820191505090505b5090507f30000000000000000000000000000000000000000000000000000000000000008160008151811061375a577f4e487b7100000000000000000000000000000000000000000000000000000000600052603260045260246000fd5b60200101907effffffffffffffffffffffffffffffffffffffffffffffffffffffffffffff1916908160001a9053507f7800000000000000000000000000000000000000000000000000000000000000816001815181106137e4577f4e487b7100000000000000000000000000000000000000000000000000000000600052603260045260246000fd5b60200101907effffffffffffffffffffffffffffffffffffffffffffffffffffffffffffff1916908160001a905350600060018460026138249190615241565b61382e91906151eb565b90505b600181111561391a577f3031323334353637383961626364656600000000000000000000000000000000600f861660108110613896577f4e487b7100000000000000000000000000000000000000000000000000000000600052603260045260246000fd5b1a60f81b8282815181106138d3577f4e487b7100000000000000000000000000000000000000000000000000000000600052603260045260246000fd5b60200101907effffffffffffffffffffffffffffffffffffffffffffffffffffffffffffff1916908160001a905350600485901c945080613913906153a1565b9050613831565b506000841461395e576040517f08c379a000000000000000000000000000000000000000000000000000000000815260040161395590614d03565b60405180910390fd5b8091505092915050565b60008083600101600084815260200190815260200160002054905060008114613ae257600060018261399a919061529b565b90506000600186600001805490506139b2919061529b565b9050818114613a6d5760008660000182815481106139f9577f4e487b7100000000000000000000000000000000000000000000000000000000600052603260045260246000fd5b9060005260206000200154905080876000018481548110613a43577f4e487b7100000000000000000000000000000000000000000000000000000000600052603260045260246000fd5b90600052602060002001819055508387600101600083815260200190815260200160002081905550505b85600001805480613aa7577f4e487b7100000000000000000000000000000000000000000000000000000000600052603160045260246000fd5b600190038181906000526020600020016000905590558560010160008681526020019081526020016000206000905560019350505050613ae8565b60009150505b92915050565b6000808273ffffffffffffffffffffffffffffffffffffffff163b119050919050565b60007f7965db0b000000000000000000000000000000000000000000000000000000007bffffffffffffffffffffffffffffffffffffffffffffffffffffffff1916827bffffffffffffffffffffffffffffffffffffffffffffffffffffffff19161480613b845750613b8382613ceb565b5b9050919050565b613b9784848484613d55565b6001811115613bdb576040517f08c379a0000000000000000000000000000000000000000000000000000000008152600401613bd290615043565b60405180910390fd5b6000829050600073ffffffffffffffffffffffffffffffffffffffff168573ffffffffffffffffffffffffffffffffffffffff161415613c2357613c1e81613e7b565b613c62565b8373ffffffffffffffffffffffffffffffffffffffff168573ffffffffffffffffffffffffffffffffffffffff1614613c6157613c608582613ec4565b5b5b600073ffffffffffffffffffffffffffffffffffffffff168473ffffffffffffffffffffffffffffffffffffffff161415613ca557613ca081614031565b613ce4565b8473ffffffffffffffffffffffffffffffffffffffff168473ffffffffffffffffffffffffffffffffffffffff1614613ce357613ce28482614174565b5b5b5050505050565b60007f01ffc9a7000000000000000000000000000000000000000000000000000000007bffffffffffffffffffffffffffffffffffffffffffffffffffffffff1916827bffffffffffffffffffffffffffffffffffffffffffffffffffffffff1916149050919050565b6001811115613e7557600073ffffffffffffffffffffffffffffffffffffffff168473ffffffffffffffffffffffffffffffffffffffff1614613de95780600560008673ffffffffffffffffffffffffffffffffffffffff1673ffffffffffffffffffffffffffffffffffffffff1681526020019081526020016000206000828254613de1919061529b565b925050819055505b600073ffffffffffffffffffffffffffffffffffffffff168373ffffffffffffffffffffffffffffffffffffffff1614613e745780600560008573ffffffffffffffffffffffffffffffffffffffff1673ffffffffffffffffffffffffffffffffffffffff1681526020019081526020016000206000828254613e6c91906151eb565b925050819055505b5b50505050565b600a80549050600b600083815260200190815260200160002081905550600a81908060018154018082558091505060019003906000526020600020016000909190919091505550565b60006001613ed184611282565b613edb919061529b565b9050600060096000848152602001908152602001600020549050818114613fc0576000600860008673ffffffffffffffffffffffffffffffffffffffff1673ffffffffffffffffffffffffffffffffffffffff168152602001908152602001600020600084815260200190815260200160002054905080600860008773ffffffffffffffffffffffffffffffffffffffff1673ffffffffffffffffffffffffffffffffffffffff168152602001908152602001600020600084815260200190815260200160002081905550816009600083815260200190815260200160002081905550505b6009600084815260200190815260200160002060009055600860008573ffffffffffffffffffffffffffffffffffffffff1673ffffffffffffffffffffffffffffffffffffffff16815260200190815260200160002060008381526020019081526020016000206000905550505050565b60006001600a80549050614045919061529b565b90506000600b60008481526020019081526020016000205490506000600a838154811061409b577f4e487b7100000000000000000000000000000000000000000000000000000000600052603260045260246000fd5b9060005260206000200154905080600a83815481106140e3577f4e487b7100000000000000000000000000000000000000000000000000000000600052603260045260246000fd5b906000526020600020018190555081600b600083815260200190815260200160002081905550600b600085815260200190815260200160002060009055600a805480614158577f4e487b7100000000000000000000000000000000000000000000000000000000600052603160045260246000fd5b6001900381819060005260206000200160009055905550505050565b600061417f83611282565b905081600860008573ffffffffffffffffffffffffffffffffffffffff1673ffffffffffffffffffffffffffffffffffffffff168152602001908152602001600020600083815260200190815260200160002081905550806009600084815260200190815260200160002081905550505050565b60006142066142018461516c565b615147565b90508281526020810184848401111561421e57600080fd5b61422984828561535f565b509392505050565b60008135905061424081615d10565b92915050565b60008135905061425581615d27565b92915050565b60008135905061426a81615d3e565b92915050565b60008135905061427f81615d55565b92915050565b60008135905061429481615d6c565b92915050565b6000815190506142a981615d6c565b92915050565b600082601f8301126142c057600080fd5b81356142d08482602086016141f3565b91505092915050565b6000813590506142e881615d83565b92915050565b60006020828403121561430057600080fd5b600061430e84828501614231565b91505092915050565b6000806040838503121561432a57600080fd5b600061433885828601614246565b9250506020614349858286016142d9565b9150509250929050565b6000806040838503121561436657600080fd5b600061437485828601614231565b925050602061438585828601614231565b9150509250929050565b6000806000606084860312156143a457600080fd5b60006143b286828701614231565b93505060206143c386828701614231565b92505060406143d4868287016142d9565b9150509250925092565b600080600080608085870312156143f457600080fd5b600061440287828801614231565b945050602061441387828801614231565b9350506040614424878288016142d9565b925050606085013567ffffffffffffffff81111561444157600080fd5b61444d878288016142af565b91505092959194509250565b6000806040838503121561446c57600080fd5b600061447a85828601614231565b925050602061448b8582860161425b565b9150509250929050565b600080604083850312156144a857600080fd5b60006144b685828601614231565b92505060206144c7858286016142d9565b9150509250929050565b6000602082840312156144e357600080fd5b60006144f184828501614270565b91505092915050565b6000806040838503121561450d57600080fd5b600061451b85828601614270565b925050602061452c85828601614231565b9150509250929050565b6000806040838503121561454957600080fd5b600061455785828601614270565b9250506020614568858286016142d9565b9150509250929050565b60006020828403121561458457600080fd5b600061459284828501614285565b91505092915050565b6000602082840312156145ad57600080fd5b60006145bb8482850161429a565b91505092915050565b6000602082840312156145d657600080fd5b60006145e4848285016142d9565b91505092915050565b6000806040838503121561460057600080fd5b600061460e858286016142d9565b925050602061461f85828601614231565b9150509250929050565b614632816152cf565b82525050565b614641816152f3565b82525050565b614650816152ff565b82525050565b60006146618261519d565b61466b81856151b3565b935061467b81856020860161536e565b61468481615504565b840191505092915050565b600061469a826151a8565b6146a481856151cf565b93506146b481856020860161536e565b6146bd81615504565b840191505092915050565b60006146d3826151a8565b6146dd81856151e0565b93506146ed81856020860161536e565b80840191505092915050565b60006147066020836151cf565b915061471182615515565b602082019050919050565b6000614729602b836151cf565b91506147348261553e565b604082019050919050565b600061474c6014836151cf565b91506147578261558d565b602082019050919050565b600061476f6013836151cf565b915061477a826155b6565b602082019050919050565b6000614792602d836151cf565b915061479d826155df565b604082019050919050565b60006147b5602b836151cf565b91506147c08261562e565b604082019050919050565b60006147d86032836151cf565b91506147e38261567d565b604082019050919050565b60006147fb6026836151cf565b9150614806826156cc565b604082019050919050565b600061481e6025836151cf565b91506148298261571b565b604082019050919050565b6000614841601c836151cf565b915061484c8261576a565b602082019050919050565b6000614864603e836151cf565b915061486f82615793565b604082019050919050565b60006148876024836151cf565b9150614892826157e2565b604082019050919050565b60006148aa6019836151cf565b91506148b582615831565b602082019050919050565b60006148cd6008836151cf565b91506148d88261585a565b602082019050919050565b60006148f0600e836151cf565b91506148fb82615883565b602082019050919050565b60006149136010836151cf565b915061491e826158ac565b602082019050919050565b60006149366029836151cf565b9150614941826158d5565b604082019050919050565b60006149596017836151cf565b915061496482615924565b602082019050919050565b600061497c6020836151cf565b91506149878261594d565b602082019050919050565b600061499f6027836151cf565b91506149aa82615976565b604082019050919050565b60006149c26020836151cf565b91506149cd826159c5565b602082019050919050565b60006149e56009836151cf565b91506149f0826159ee565b602082019050919050565b6000614a086018836151cf565b9150614a1382615a17565b602082019050919050565b6000614a2b6021836151cf565b9150614a3682615a40565b604082019050919050565b6000614a4e6000836151c4565b9150614a5982615a8f565b600082019050919050565b6000614a71603d836151cf565b9150614a7c82615a92565b604082019050919050565b6000614a94602c836151cf565b9150614a9f82615ae1565b604082019050919050565b6000614ab76017836151e0565b9150614ac282615b30565b601782019050919050565b6000614ada6035836151cf565b9150614ae582615b59565b604082019050919050565b6000614afd603d836151cf565b9150614b0882615ba8565b604082019050919050565b6000614b206013836151cf565b9150614b2b82615bf7565b602082019050919050565b6000614b436040836151cf565b9150614b4e82615c20565b604082019050919050565b6000614b666012836151cf565b9150614b7182615c6f565b602082019050919050565b6000614b896011836151e0565b9150614b9482615c98565b601182019050919050565b6000614bac602f836151cf565b9150614bb782615cc1565b604082019050919050565b614bcb81615355565b82525050565b6000614bdd82856146c8565b9150614be982846146c8565b91508190509392505050565b6000614c0082614a41565b9150819050919050565b6000614c1582614aaa565b9150614c2182856146c8565b9150614c2c82614b7c565b9150614c3882846146c8565b91508190509392505050565b6000602082019050614c596000830184614629565b92915050565b6000608082019050614c746000830187614629565b614c816020830186614629565b614c8e6040830185614bc2565b8181036060830152614ca08184614656565b905095945050505050565b6000602082019050614cc06000830184614638565b92915050565b6000602082019050614cdb6000830184614647565b92915050565b60006020820190508181036000830152614cfb818461468f565b905092915050565b60006020820190508181036000830152614d1c816146f9565b9050919050565b60006020820190508181036000830152614d3c8161471c565b9050919050565b60006020820190508181036000830152614d5c8161473f565b9050919050565b60006020820190508181036000830152614d7c81614762565b9050919050565b60006020820190508181036000830152614d9c81614785565b9050919050565b60006020820190508181036000830152614dbc816147a8565b9050919050565b60006020820190508181036000830152614ddc816147cb565b9050919050565b60006020820190508181036000830152614dfc816147ee565b9050919050565b60006020820190508181036000830152614e1c81614811565b9050919050565b60006020820190508181036000830152614e3c81614834565b9050919050565b60006020820190508181036000830152614e5c81614857565b9050919050565b60006020820190508181036000830152614e7c8161487a565b9050919050565b60006020820190508181036000830152614e9c8161489d565b9050919050565b60006020820190508181036000830152614ebc816148c0565b9050919050565b60006020820190508181036000830152614edc816148e3565b9050919050565b60006020820190508181036000830152614efc81614906565b9050919050565b60006020820190508181036000830152614f1c81614929565b9050919050565b60006020820190508181036000830152614f3c8161494c565b9050919050565b60006020820190508181036000830152614f5c8161496f565b9050919050565b60006020820190508181036000830152614f7c81614992565b9050919050565b60006020820190508181036000830152614f9c816149b5565b9050919050565b60006020820190508181036000830152614fbc816149d8565b9050919050565b60006020820190508181036000830152614fdc816149fb565b9050919050565b60006020820190508181036000830152614ffc81614a1e565b9050919050565b6000602082019050818103600083015261501c81614a64565b9050919050565b6000602082019050818103600083015261503c81614a87565b9050919050565b6000602082019050818103600083015261505c81614acd565b9050919050565b6000602082019050818103600083015261507c81614af0565b9050919050565b6000602082019050818103600083015261509c81614b13565b9050919050565b600060208201905081810360008301526150bc81614b36565b9050919050565b600060208201905081810360008301526150dc81614b59565b9050919050565b600060208201905081810360008301526150fc81614b9f565b9050919050565b60006020820190506151186000830184614bc2565b92915050565b60006040820190506151336000830185614bc2565b6151406020830184614629565b9392505050565b6000615151615162565b905061515d82826153fd565b919050565b6000604051905090565b600067ffffffffffffffff821115615187576151866154d5565b5b61519082615504565b9050602081019050919050565b600081519050919050565b600081519050919050565b600082825260208201905092915050565b600081905092915050565b600082825260208201905092915050565b600081905092915050565b60006151f682615355565b915061520183615355565b9250827fffffffffffffffffffffffffffffffffffffffffffffffffffffffffffffffff0382111561523657615235615477565b5b828201905092915050565b600061524c82615355565b915061525783615355565b9250817fffffffffffffffffffffffffffffffffffffffffffffffffffffffffffffffff04831182151516156152905761528f615477565b5b828202905092915050565b60006152a682615355565b91506152b183615355565b9250828210156152c4576152c3615477565b5b828203905092915050565b60006152da82615335565b9050919050565b60006152ec82615335565b9050919050565b60008115159050919050565b6000819050919050565b60007fffffffff0000000000000000000000000000000000000000000000000000000082169050919050565b600073ffffffffffffffffffffffffffffffffffffffff82169050919050565b6000819050919050565b82818337600083830152505050565b60005b8381101561538c578082015181840152602081019050615371565b8381111561539b576000848401525b50505050565b60006153ac82615355565b915060008214156153c0576153bf615477565b5b600182039050919050565b600060028204905060018216806153e357607f821691505b602082108114156153f7576153f66154a6565b5b50919050565b61540682615504565b810181811067ffffffffffffffff82111715615425576154246154d5565b5b80604052505050565b600061543982615355565b91507fffffffffffffffffffffffffffffffffffffffffffffffffffffffffffffffff82141561546c5761546b615477565b5b600182019050919050565b7f4e487b7100000000000000000000000000000000000000000000000000000000600052601160045260246000fd5b7f4e487b7100000000000000000000000000000000000000000000000000000000600052602260045260246000fd5b7f4e487b7100000000000000000000000000000000000000000000000000000000600052604160045260246000fd5b6000601f19601f8301169050919050565b7f537472696e67733a20686578206c656e67746820696e73756666696369656e74600082015250565b7f4552433732315061757361626c653a20746f6b656e207472616e73666572207760008201527f68696c6520706175736564000000000000000000000000000000000000000000602082015250565b7f5061757361626c653a206e6f7420706175736564000000000000000000000000600082015250565b7f73616c65206861736e2774207374617274656400000000000000000000000000600082015250565b7f4552433732313a2063616c6c6572206973206e6f7420746f6b656e206f776e6560008201527f72206f7220617070726f76656400000000000000000000000000000000000000602082015250565b7f455243373231456e756d657261626c653a206f776e657220696e646578206f7560008201527f74206f6620626f756e6473000000000000000000000000000000000000000000602082015250565b7f4552433732313a207472616e7366657220746f206e6f6e20455243373231526560008201527f63656976657220696d706c656d656e7465720000000000000000000000000000602082015250565b7f4f776e61626c653a206e6577206f776e657220697320746865207a65726f206160008201527f6464726573730000000000000000000000000000000000000000000000000000602082015250565b7f4552433732313a207472616e736665722066726f6d20696e636f72726563742060008201527f6f776e6572000000000000000000000000000000000000000000000000000000602082015250565b7f4552433732313a20746f6b656e20616c7265616479206d696e74656400000000600082015250565b7f4552433732315072657365744d696e7465725061757365724175746f49643a2060008201527f6d75737420686176652070617573657220726f6c6520746f2070617573650000602082015250565b7f4552433732313a207472616e7366657220746f20746865207a65726f2061646460008201527f7265737300000000000000000000000000000000000000000000000000000000602082015250565b7f4552433732313a20617070726f766520746f2063616c6c657200000000000000600082015250565b7f736f6c64206f7574000000000000000000000000000000000000000000000000600082015250565b7f5061796d656e74204661696c6564000000000000000000000000000000000000600082015250565b7f5061757361626c653a2070617573656400000000000000000000000000000000600082015250565b7f4552433732313a2061646472657373207a65726f206973206e6f74206120766160008201527f6c6964206f776e65720000000000000000000000000000000000000000000000602082015250565b7f7175616e746974792063616e6e6f74206265207a65726f000000000000000000600082015250565b7f4552433732313a206d696e7420746f20746865207a65726f2061646472657373600082015250565b7f456c206d6f6e746f2064656c207061676f206e6f20657320696775616c20616c60008201527f2070726563696f00000000000000000000000000000000000000000000000000602082015250565b7f4f776e61626c653a2063616c6c6572206973206e6f7420746865206f776e6572600082015250565b7f6578636565647320330000000000000000000000000000000000000000000000600082015250565b7f4552433732313a20696e76616c696420746f6b656e2049440000000000000000600082015250565b7f4552433732313a20617070726f76616c20746f2063757272656e74206f776e6560008201527f7200000000000000000000000000000000000000000000000000000000000000602082015250565b50565b7f4552433732313a20617070726f76652063616c6c6572206973206e6f7420746f60008201527f6b656e206f776e6572206f7220617070726f76656420666f7220616c6c000000602082015250565b7f455243373231456e756d657261626c653a20676c6f62616c20696e646578206f60008201527f7574206f6620626f756e64730000000000000000000000000000000000000000602082015250565b7f416363657373436f6e74726f6c3a206163636f756e7420000000000000000000600082015250565b7f455243373231456e756d657261626c653a20636f6e736563757469766520747260008201527f616e7366657273206e6f7420737570706f727465640000000000000000000000602082015250565b7f4552433732315072657365744d696e7465725061757365724175746f49643a2060008201527f6d7573742068617665206d696e74657220726f6c6520746f206d696e74000000602082015250565b7f5265656e7472616e637920446574656374656400000000000000000000000000600082015250565b7f4552433732315072657365744d696e7465725061757365724175746f49643a2060008201527f6d75737420686176652070617573657220726f6c6520746f20756e7061757365602082015250565b7f5472616e73616374696f6e204661696c65640000000000000000000000000000600082015250565b7f206973206d697373696e6720726f6c6520000000000000000000000000000000600082015250565b7f416363657373436f6e74726f6c3a2063616e206f6e6c792072656e6f756e636560008201527f20726f6c657320666f722073656c660000000000000000000000000000000000602082015250565b615d19816152cf565b8114615d2457600080fd5b50565b615d30816152e1565b8114615d3b57600080fd5b50565b615d47816152f3565b8114615d5257600080fd5b50565b615d5e816152ff565b8114615d6957600080fd5b50565b615d7581615309565b8114615d8057600080fd5b50565b615d8c81615355565b8114615d9757600080fd5b5056fea2646970667358221220c5adbd13b8989eb122a014217dbfa749ef7eecf0705862a3dcf55534a4360c9664736f6c6343000804003368747470733a2f2f6e66742e616c6563747269636f2e776f726b6572732e6465762f",
  "linkReferences": {},
  "deployedLinkReferences": {}
}