{
  "_format": "hh-sol-artifact-1",
  "contractName": "TokenBat",
  "sourceName": "contracts/TokenBat.sol",
  "abi": [
    {
      "inputs": [],
      "stateMutability": "nonpayable",
      "type": "constructor"
    },
    {
      "anonymous": false,
      "inputs": [
        {
          "indexed": true,
          "internalType": "address",
          "name": "owner",
          "type": "address"
        },
        {
          "indexed": true,
          "internalType": "address",
          "name": "approved",
          "type": "address"
        },
        {
          "indexed": true,
          "internalType": "uint256",
          "name": "tokenId",
          "type": "uint256"
        }
      ],
      "name": "Approval",
      "type": "event"
    },
    {
      "anonymous": false,
      "inputs": [
        {
          "indexed": true,
          "internalType": "address",
          "name": "owner",
          "type": "address"
        },
        {
          "indexed": true,
          "internalType": "address",
          "name": "operator",
          "type": "address"
        },
        {
          "indexed": false,
          "internalType": "bool",
          "name": "approved",
          "type": "bool"
        }
      ],
      "name": "ApprovalForAll",
      "type": "event"
    },
    {
      "anonymous": false,
      "inputs": [
        {
          "indexed": false,
          "internalType": "uint256",
          "name": "tokenId",
          "type": "uint256"
        },
        {
          "indexed": false,
          "internalType": "address",
          "name": "owner",
          "type": "address"
        }
      ],
      "name": "Minted",
      "type": "event"
    },
    {
      "anonymous": false,
      "inputs": [
        {
          "indexed": true,
          "internalType": "address",
          "name": "previousOwner",
          "type": "address"
        },
        {
          "indexed": true,
          "internalType": "address",
          "name": "newOwner",
          "type": "address"
        }
      ],
      "name": "OwnershipTransferred",
      "type": "event"
    },
    {
      "anonymous": false,
      "inputs": [
        {
          "indexed": false,
          "internalType": "address",
          "name": "account",
          "type": "address"
        }
      ],
      "name": "Paused",
      "type": "event"
    },
    {
      "anonymous": false,
      "inputs": [
        {
          "indexed": false,
          "internalType": "uint256",
          "name": "tokenId",
          "type": "uint256"
        }
      ],
      "name": "Redeemed",
      "type": "event"
    },
    {
      "anonymous": false,
      "inputs": [
        {
          "indexed": true,
          "internalType": "bytes32",
          "name": "role",
          "type": "bytes32"
        },
        {
          "indexed": true,
          "internalType": "bytes32",
          "name": "previousAdminRole",
          "type": "bytes32"
        },
        {
          "indexed": true,
          "internalType": "bytes32",
          "name": "newAdminRole",
          "type": "bytes32"
        }
      ],
      "name": "RoleAdminChanged",
      "type": "event"
    },
    {
      "anonymous": false,
      "inputs": [
        {
          "indexed": true,
          "internalType": "bytes32",
          "name": "role",
          "type": "bytes32"
        },
        {
          "indexed": true,
          "internalType": "address",
          "name": "account",
          "type": "address"
        },
        {
          "indexed": true,
          "internalType": "address",
          "name": "sender",
          "type": "address"
        }
      ],
      "name": "RoleGranted",
      "type": "event"
    },
    {
      "anonymous": false,
      "inputs": [
        {
          "indexed": true,
          "internalType": "bytes32",
          "name": "role",
          "type": "bytes32"
        },
        {
          "indexed": true,
          "internalType": "address",
          "name": "account",
          "type": "address"
        },
        {
          "indexed": true,
          "internalType": "address",
          "name": "sender",
          "type": "address"
        }
      ],
      "name": "RoleRevoked",
      "type": "event"
    },
    {
      "anonymous": false,
      "inputs": [
        {
          "indexed": true,
          "internalType": "address",
          "name": "from",
          "type": "address"
        },
        {
          "indexed": true,
          "internalType": "address",
          "name": "to",
          "type": "address"
        },
        {
          "indexed": true,
          "internalType": "uint256",
          "name": "tokenId",
          "type": "uint256"
        }
      ],
      "name": "Transfer",
      "type": "event"
    },
    {
      "anonymous": false,
      "inputs": [
        {
          "indexed": false,
          "internalType": "address",
          "name": "account",
          "type": "address"
        }
      ],
      "name": "Unpaused",
      "type": "event"
    },
    {
      "inputs": [],
      "name": "DEFAULT_ADMIN_ROLE",
      "outputs": [
        {
          "internalType": "bytes32",
          "name": "",
          "type": "bytes32"
        }
      ],
      "stateMutability": "view",
      "type": "function"
    },
    {
      "inputs": [],
      "name": "MAX_TOKENS",
      "outputs": [
        {
          "internalType": "uint256",
          "name": "",
          "type": "uint256"
        }
      ],
      "stateMutability": "view",
      "type": "function"
    },
    {
      "inputs": [],
      "name": "MINTER_ROLE",
      "outputs": [
        {
          "internalType": "bytes32",
          "name": "",
          "type": "bytes32"
        }
      ],
      "stateMutability": "view",
      "type": "function"
    },
    {
      "inputs": [],
      "name": "PAUSER_ROLE",
      "outputs": [
        {
          "internalType": "bytes32",
          "name": "",
          "type": "bytes32"
        }
      ],
      "stateMutability": "view",
      "type": "function"
    },
    {
      "inputs": [
        {
          "internalType": "address",
          "name": "to",
          "type": "address"
        },
        {
          "internalType": "uint256",
          "name": "tokenId",
          "type": "uint256"
        }
      ],
      "name": "approve",
      "outputs": [],
      "stateMutability": "nonpayable",
      "type": "function"
    },
    {
      "inputs": [
        {
          "internalType": "address",
          "name": "owner",
          "type": "address"
        }
      ],
      "name": "balanceOf",
      "outputs": [
        {
          "internalType": "uint256",
          "name": "",
          "type": "uint256"
        }
      ],
      "stateMutability": "view",
      "type": "function"
    },
    {
      "inputs": [
        {
          "internalType": "uint256",
          "name": "tokenId",
          "type": "uint256"
        }
      ],
      "name": "burn",
      "outputs": [],
      "stateMutability": "nonpayable",
      "type": "function"
    },
    {
      "inputs": [
        {
          "internalType": "uint256",
          "name": "tokenId",
          "type": "uint256"
        }
      ],
      "name": "getApproved",
      "outputs": [
        {
          "internalType": "address",
          "name": "",
          "type": "address"
        }
      ],
      "stateMutability": "view",
      "type": "function"
    },
    {
      "inputs": [
        {
          "internalType": "bytes32",
          "name": "role",
          "type": "bytes32"
        }
      ],
      "name": "getRoleAdmin",
      "outputs": [
        {
          "internalType": "bytes32",
          "name": "",
          "type": "bytes32"
        }
      ],
      "stateMutability": "view",
      "type": "function"
    },
    {
      "inputs": [
        {
          "internalType": "bytes32",
          "name": "role",
          "type": "bytes32"
        },
        {
          "internalType": "uint256",
          "name": "index",
          "type": "uint256"
        }
      ],
      "name": "getRoleMember",
      "outputs": [
        {
          "internalType": "address",
          "name": "",
          "type": "address"
        }
      ],
      "stateMutability": "view",
      "type": "function"
    },
    {
      "inputs": [
        {
          "internalType": "bytes32",
          "name": "role",
          "type": "bytes32"
        }
      ],
      "name": "getRoleMemberCount",
      "outputs": [
        {
          "internalType": "uint256",
          "name": "",
          "type": "uint256"
        }
      ],
      "stateMutability": "view",
      "type": "function"
    },
    {
      "inputs": [
        {
          "internalType": "bytes32",
          "name": "role",
          "type": "bytes32"
        },
        {
          "internalType": "address",
          "name": "account",
          "type": "address"
        }
      ],
      "name": "grantRole",
      "outputs": [],
      "stateMutability": "nonpayable",
      "type": "function"
    },
    {
      "inputs": [
        {
          "internalType": "bytes32",
          "name": "role",
          "type": "bytes32"
        },
        {
          "internalType": "address",
          "name": "account",
          "type": "address"
        }
      ],
      "name": "hasRole",
      "outputs": [
        {
          "internalType": "bool",
          "name": "",
          "type": "bool"
        }
      ],
      "stateMutability": "view",
      "type": "function"
    },
    {
      "inputs": [],
      "name": "hasSaleStarted",
      "outputs": [
        {
          "internalType": "bool",
          "name": "",
          "type": "bool"
        }
      ],
      "stateMutability": "view",
      "type": "function"
    },
    {
      "inputs": [],
      "name": "hasSoldOut",
      "outputs": [
        {
          "internalType": "bool",
          "name": "",
          "type": "bool"
        }
      ],
      "stateMutability": "view",
      "type": "function"
    },
    {
      "inputs": [
        {
          "internalType": "address",
          "name": "_owner",
          "type": "address"
        },
        {
          "internalType": "address",
          "name": "_operator",
          "type": "address"
        }
      ],
      "name": "isApprovedForAll",
      "outputs": [
        {
          "internalType": "bool",
          "name": "isOperator",
          "type": "bool"
        }
      ],
      "stateMutability": "view",
      "type": "function"
    },
    {
      "inputs": [
        {
          "internalType": "address",
          "name": "to",
          "type": "address"
        }
      ],
      "name": "mint",
      "outputs": [],
      "stateMutability": "nonpayable",
      "type": "function"
    },
    {
      "inputs": [
        {
          "internalType": "address",
          "name": "receiver",
          "type": "address"
        }
      ],
      "name": "mintToken",
      "outputs": [],
      "stateMutability": "payable",
      "type": "function"
    },
    {
      "inputs": [],
      "name": "name",
      "outputs": [
        {
          "internalType": "string",
          "name": "",
          "type": "string"
        }
      ],
      "stateMutability": "view",
      "type": "function"
    },
    {
      "inputs": [],
      "name": "owner",
      "outputs": [
        {
          "internalType": "address",
          "name": "",
          "type": "address"
        }
      ],
      "stateMutability": "view",
      "type": "function"
    },
    {
      "inputs": [
        {
          "internalType": "uint256",
          "name": "tokenId",
          "type": "uint256"
        }
      ],
      "name": "ownerOf",
      "outputs": [
        {
          "internalType": "address",
          "name": "",
          "type": "address"
        }
      ],
      "stateMutability": "view",
      "type": "function"
    },
    {
      "inputs": [],
      "name": "pause",
      "outputs": [],
      "stateMutability": "nonpayable",
      "type": "function"
    },
    {
      "inputs": [],
      "name": "pauseSale",
      "outputs": [],
      "stateMutability": "nonpayable",
      "type": "function"
    },
    {
      "inputs": [],
      "name": "paused",
      "outputs": [
        {
          "internalType": "bool",
          "name": "",
          "type": "bool"
        }
      ],
      "stateMutability": "view",
      "type": "function"
    },
    {
      "inputs": [],
      "name": "priceToMint",
      "outputs": [
        {
          "internalType": "uint256",
          "name": "",
          "type": "uint256"
        }
      ],
      "stateMutability": "view",
      "type": "function"
    },
    {
      "inputs": [
        {
          "internalType": "uint256",
          "name": "tokenId",
          "type": "uint256"
        }
      ],
      "name": "redeemToken",
      "outputs": [],
      "stateMutability": "nonpayable",
      "type": "function"
    },
    {
      "inputs": [],
      "name": "renounceOwnership",
      "outputs": [],
      "stateMutability": "nonpayable",
      "type": "function"
    },
    {
      "inputs": [
        {
          "internalType": "bytes32",
          "name": "role",
          "type": "bytes32"
        },
        {
          "internalType": "address",
          "name": "account",
          "type": "address"
        }
      ],
      "name": "renounceRole",
      "outputs": [],
      "stateMutability": "nonpayable",
      "type": "function"
    },
    {
      "inputs": [
        {
          "internalType": "bytes32",
          "name": "role",
          "type": "bytes32"
        },
        {
          "internalType": "address",
          "name": "account",
          "type": "address"
        }
      ],
      "name": "revokeRole",
      "outputs": [],
      "stateMutability": "nonpayable",
      "type": "function"
    },
    {
      "inputs": [
        {
          "internalType": "address",
          "name": "from",
          "type": "address"
        },
        {
          "internalType": "address",
          "name": "to",
          "type": "address"
        },
        {
          "internalType": "uint256",
          "name": "tokenId",
          "type": "uint256"
        }
      ],
      "name": "safeTransferFrom",
      "outputs": [],
      "stateMutability": "nonpayable",
      "type": "function"
    },
    {
      "inputs": [
        {
          "internalType": "address",
          "name": "from",
          "type": "address"
        },
        {
          "internalType": "address",
          "name": "to",
          "type": "address"
        },
        {
          "internalType": "uint256",
          "name": "tokenId",
          "type": "uint256"
        },
        {
          "internalType": "bytes",
          "name": "data",
          "type": "bytes"
        }
      ],
      "name": "safeTransferFrom",
      "outputs": [],
      "stateMutability": "nonpayable",
      "type": "function"
    },
    {
      "inputs": [
        {
          "internalType": "address",
          "name": "operator",
          "type": "address"
        },
        {
          "internalType": "bool",
          "name": "approved",
          "type": "bool"
        }
      ],
      "name": "setApprovalForAll",
      "outputs": [],
      "stateMutability": "nonpayable",
      "type": "function"
    },
    {
      "inputs": [
        {
          "internalType": "uint256",
          "name": "_priceToMint",
          "type": "uint256"
        }
      ],
      "name": "setPriceToMint",
      "outputs": [],
      "stateMutability": "nonpayable",
      "type": "function"
    },
    {
      "inputs": [],
      "name": "startSale",
      "outputs": [],
      "stateMutability": "nonpayable",
      "type": "function"
    },
    {
      "inputs": [
        {
          "internalType": "bytes4",
          "name": "interfaceId",
          "type": "bytes4"
        }
      ],
      "name": "supportsInterface",
      "outputs": [
        {
          "internalType": "bool",
          "name": "",
          "type": "bool"
        }
      ],
      "stateMutability": "view",
      "type": "function"
    },
    {
      "inputs": [],
      "name": "symbol",
      "outputs": [
        {
          "internalType": "string",
          "name": "",
          "type": "string"
        }
      ],
      "stateMutability": "view",
      "type": "function"
    },
    {
      "inputs": [
        {
          "internalType": "uint256",
          "name": "index",
          "type": "uint256"
        }
      ],
      "name": "tokenByIndex",
      "outputs": [
        {
          "internalType": "uint256",
          "name": "",
          "type": "uint256"
        }
      ],
      "stateMutability": "view",
      "type": "function"
    },
    {
      "inputs": [
        {
          "internalType": "uint256",
          "name": "tokenId",
          "type": "uint256"
        }
      ],
      "name": "tokenExists",
      "outputs": [
        {
          "internalType": "bool",
          "name": "",
          "type": "bool"
        }
      ],
      "stateMutability": "view",
      "type": "function"
    },
    {
      "inputs": [
        {
          "internalType": "address",
          "name": "owner",
          "type": "address"
        },
        {
          "internalType": "uint256",
          "name": "index",
          "type": "uint256"
        }
      ],
      "name": "tokenOfOwnerByIndex",
      "outputs": [
        {
          "internalType": "uint256",
          "name": "",
          "type": "uint256"
        }
      ],
      "stateMutability": "view",
      "type": "function"
    },
    {
      "inputs": [
        {
          "internalType": "uint256",
          "name": "tokenId",
          "type": "uint256"
        }
      ],
      "name": "tokenURI",
      "outputs": [
        {
          "internalType": "string",
          "name": "",
          "type": "string"
        }
      ],
      "stateMutability": "view",
      "type": "function"
    },
    {
      "inputs": [],
      "name": "totalSupply",
      "outputs": [
        {
          "internalType": "uint256",
          "name": "",
          "type": "uint256"
        }
      ],
      "stateMutability": "view",
      "type": "function"
    },
    {
      "inputs": [
        {
          "internalType": "address",
          "name": "from",
          "type": "address"
        },
        {
          "internalType": "address",
          "name": "to",
          "type": "address"
        },
        {
          "internalType": "uint256",
          "name": "tokenId",
          "type": "uint256"
        }
      ],
      "name": "transferFrom",
      "outputs": [],
      "stateMutability": "nonpayable",
      "type": "function"
    },
    {
      "inputs": [
        {
          "internalType": "address",
          "name": "newOwner",
          "type": "address"
        }
      ],
      "name": "transferOwnership",
      "outputs": [],
      "stateMutability": "nonpayable",
      "type": "function"
    },
    {
      "inputs": [],
      "name": "unpause",
      "outputs": [],
      "stateMutability": "nonpayable",
      "type": "function"
    },
    {
      "inputs": [],
      "name": "withdrawBalance",
      "outputs": [],
      "stateMutability": "nonpayable",
      "type": "function"
    }
  ],
  "bytecode": "0x60806040526000600f60146101000a81548160ff0219169083151502179055506000601260006101000a81548160ff0219169083151502179055503480156200004757600080fd5b506040518060400160405280600881526020017f546f6b656e4261740000000000000000000000000000000000000000000000008152506040518060400160405280600881526020017f546f6b656e426174000000000000000000000000000000000000000000000000815250604051806060016040528060228152602001620065046022913982828160029080519060200190620000e89291906200062a565b508060039080519060200190620001019291906200062a565b5050506000600c60006101000a81548160ff02191690831515021790555080600e9080519060200190620001379291906200062a565b506200015c6000801b620001506200020760201b60201c565b6200022360201b60201c565b6200019d7f9f2df0fed2c77648de5860a4cc508cd0818c85b8b8a1ab4ceeef8d981c8956a6620001916200020760201b60201c565b6200022360201b60201c565b620001de7f65d7a28e3265b37a6474929f336521b332c1681b933f6cb9f3376673440d862a620001d26200020760201b60201c565b6200022360201b60201c565b50505062000201620001f56200020760201b60201c565b6200023960201b60201c565b6200073f565b60006200021e620002ff60201b62001b831760201c565b905090565b620002358282620003b260201b60201c565b5050565b6000600f60009054906101000a900473ffffffffffffffffffffffffffffffffffffffff16905081600f60006101000a81548173ffffffffffffffffffffffffffffffffffffffff021916908373ffffffffffffffffffffffffffffffffffffffff1602179055508173ffffffffffffffffffffffffffffffffffffffff168173ffffffffffffffffffffffffffffffffffffffff167f8be0079c531659141344cd1fd0a4f28419497f9722a3daafe3b4186f6b6457e060405160405180910390a35050565b60003073ffffffffffffffffffffffffffffffffffffffff163373ffffffffffffffffffffffffffffffffffffffff161415620003ab57600080368080601f016020809104026020016040519081016040528093929190818152602001838380828437600081840152601f19601f820116905080830192505050505050509050600080369050905073ffffffffffffffffffffffffffffffffffffffff818301511692505050620003af565b3390505b90565b620003c98282620003fa60201b62001c341760201c565b620003f58160016000858152602001908152602001600020620004eb60201b62001d141790919060201c565b505050565b6200040c82826200052360201b60201c565b620004e757600160008084815260200190815260200160002060000160008373ffffffffffffffffffffffffffffffffffffffff1673ffffffffffffffffffffffffffffffffffffffff16815260200190815260200160002060006101000a81548160ff0219169083151502179055506200048c6200020760201b60201c565b73ffffffffffffffffffffffffffffffffffffffff168173ffffffffffffffffffffffffffffffffffffffff16837f2f8788117e7eff1d82e926ec794901d17c78024a50270940304540a733656f0d60405160405180910390a45b5050565b60006200051b836000018373ffffffffffffffffffffffffffffffffffffffff1660001b6200058d60201b60201c565b905092915050565b600080600084815260200190815260200160002060000160008373ffffffffffffffffffffffffffffffffffffffff1673ffffffffffffffffffffffffffffffffffffffff16815260200190815260200160002060009054906101000a900460ff16905092915050565b6000620005a183836200060760201b60201c565b620005fc57826000018290806001815401808255809150506001900390600052602060002001600090919091909150558260000180549050836001016000848152602001908152602001600020819055506001905062000601565b600090505b92915050565b600080836001016000848152602001908152602001600020541415905092915050565b8280546200063890620006da565b90600052602060002090601f0160209004810192826200065c5760008555620006a8565b82601f106200067757805160ff1916838001178555620006a8565b82800160010185558215620006a8579182015b82811115620006a75782518255916020019190600101906200068a565b5b509050620006b79190620006bb565b5090565b5b80821115620006d6576000816000905550600101620006bc565b5090565b60006002820490506001821680620006f357607f821691505b602082108114156200070a576200070962000710565b5b50919050565b7f4e487b7100000000000000000000000000000000000000000000000000000000600052602260045260246000fd5b615db5806200074f6000396000f3fe6080604052600436106102715760003560e01c80635c975abb1161014f578063a217fddf116100c1578063d53913931161007a578063d53913931461093e578063d547741f14610969578063e63ab1e914610992578063e985e9c5146109bd578063f2fde38b146109fa578063f47c84c514610a2357610271565b8063a217fddf14610830578063a22cb4651461085b578063b66a0e5d14610884578063b88d4fde1461089b578063c87b56dd146108c4578063ca15c8731461090157610271565b8063715018a611610113578063715018a6146107325780638456cb59146107495780638da5cb5b146107605780639010d07c1461078b57806391d14854146107c857806395d89b411461080557610271565b80635c975abb1461064d5780635fd8c710146106785780636352211e1461068f5780636a627842146106cc57806370a08231146106f557610271565b8063248a9ca3116101e85780633f4ba83a116101ac5780633f4ba83a1461056557806342842e0e1461057c57806342966c68146105a55780634dc1dbec146105ce5780634f6ccce7146105f957806355367ba91461063657610271565b8063248a9ca31461047057806329e0a2ac146104ad5780632f2ff15d146104d65780632f745c59146104ff57806336568abe1461053c57610271565b806306fdde031161023a57806306fdde0314610360578063081812fc1461038b578063095ea7b3146103c857806318160ddd146103f15780631c8b232d1461041c57806323b872dd1461044757610271565b8062923f9e1461027657806301173a74146102b3578063013054c2146102cf57806301ffc9a7146102f857806303824f7614610335575b600080fd5b34801561028257600080fd5b5061029d600480360381019061029891906145b1565b610a4e565b6040516102aa9190614c7f565b60405180910390f35b6102cd60048036038101906102c89190614317565b610a60565b005b3480156102db57600080fd5b506102f660048036038101906102f191906145b1565b610c36565b005b34801561030457600080fd5b5061031f600480360381019061031a919061455f565b610d37565b60405161032c9190614c7f565b60405180910390f35b34801561034157600080fd5b5061034a610d49565b6040516103579190614c7f565b60405180910390f35b34801561036c57600080fd5b50610375610d6b565b6040516103829190614cb5565b60405180910390f35b34801561039757600080fd5b506103b260048036038101906103ad91906145b1565b610dfd565b6040516103bf9190614c18565b60405180910390f35b3480156103d457600080fd5b506103ef60048036038101906103ea9190614482565b610e43565b005b3480156103fd57600080fd5b50610406610f5b565b60405161041391906150f7565b60405180910390f35b34801561042857600080fd5b50610431610f68565b60405161043e9190614c7f565b60405180910390f35b34801561045357600080fd5b5061046e6004803603810190610469919061437c565b610f7b565b005b34801561047c57600080fd5b50610497600480360381019061049291906144be565b610fdb565b6040516104a49190614c9a565b60405180910390f35b3480156104b957600080fd5b506104d460048036038101906104cf91906145b1565b610ffa565b005b3480156104e257600080fd5b506104fd60048036038101906104f891906144e7565b6110c4565b005b34801561050b57600080fd5b5061052660048036038101906105219190614482565b6110e5565b60405161053391906150f7565b60405180910390f35b34801561054857600080fd5b50610563600480360381019061055e91906144e7565b61118a565b005b34801561057157600080fd5b5061057a61120d565b005b34801561058857600080fd5b506105a3600480360381019061059e919061437c565b611287565b005b3480156105b157600080fd5b506105cc60048036038101906105c791906145b1565b6112a7565b005b3480156105da57600080fd5b506105e3611303565b6040516105f091906150f7565b60405180910390f35b34801561060557600080fd5b50610620600480360381019061061b91906145b1565b611309565b60405161062d91906150f7565b60405180910390f35b34801561064257600080fd5b5061064b6113a0565b005b34801561065957600080fd5b506106626113c5565b60405161066f9190614c7f565b60405180910390f35b34801561068457600080fd5b5061068d6113dc565b005b34801561069b57600080fd5b506106b660048036038101906106b191906145b1565b611549565b6040516106c39190614c18565b60405180910390f35b3480156106d857600080fd5b506106f360048036038101906106ee9190614317565b6115d0565b005b34801561070157600080fd5b5061071c60048036038101906107179190614317565b611660565b60405161072991906150f7565b60405180910390f35b34801561073e57600080fd5b50610747611718565b005b34801561075557600080fd5b5061075e61172c565b005b34801561076c57600080fd5b506107756117a6565b6040516107829190614c18565b60405180910390f35b34801561079757600080fd5b506107b260048036038101906107ad9190614523565b6117d0565b6040516107bf9190614c18565b60405180910390f35b3480156107d457600080fd5b506107ef60048036038101906107ea91906144e7565b6117ff565b6040516107fc9190614c7f565b60405180910390f35b34801561081157600080fd5b5061081a611869565b6040516108279190614cb5565b60405180910390f35b34801561083c57600080fd5b506108456118fb565b6040516108529190614c9a565b60405180910390f35b34801561086757600080fd5b50610882600480360381019061087d9190614446565b611902565b005b34801561089057600080fd5b50610899611918565b005b3480156108a757600080fd5b506108c260048036038101906108bd91906143cb565b61193d565b005b3480156108d057600080fd5b506108eb60048036038101906108e691906145b1565b61199f565b6040516108f89190614cb5565b60405180910390f35b34801561090d57600080fd5b50610928600480360381019061092391906144be565b611a07565b60405161093591906150f7565b60405180910390f35b34801561094a57600080fd5b50610953611a2b565b6040516109609190614c9a565b60405180910390f35b34801561097557600080fd5b50610990600480360381019061098b91906144e7565b611a4f565b005b34801561099e57600080fd5b506109a7611a70565b6040516109b49190614c9a565b60405180910390f35b3480156109c957600080fd5b506109e460048036038101906109df9190614340565b611a94565b6040516109f19190614c7f565b60405180910390f35b348015610a0657600080fd5b50610a216004803603810190610a1c9190614317565b611afa565b005b348015610a2f57600080fd5b50610a38611b7e565b604051610a4591906150f7565b60405180910390f35b6000610a5982611d44565b9050919050565b601260009054906101000a900460ff1680610aad5750610a7e6117a6565b73ffffffffffffffffffffffffffffffffffffffff163373ffffffffffffffffffffffffffffffffffffffff16145b610aec576040517f08c379a0000000000000000000000000000000000000000000000000000000008152600401610ae390614d37565b60405180910390fd5b6040610b096001610afb610f5b565b611d8590919063ffffffff16565b111580610b485750610b196117a6565b73ffffffffffffffffffffffffffffffffffffffff163373ffffffffffffffffffffffffffffffffffffffff16145b610b87576040517f08c379a0000000000000000000000000000000000000000000000000000000008152600401610b7e90614e97565b60405180910390fd5b60115434148015610b985750600034115b610bd7576040517f08c379a0000000000000000000000000000000000000000000000000000000008152600401610bce90615057565b60405180910390fd5b6000610be36010611d9b565b9050610bef8282611da9565b610bf96010611dc7565b7fb9203d657e9c0ec8274c818292ab0f58b04e1970050716891770eb1bab5d655e8183604051610c2a929190615112565b60405180910390a15050565b610c3f81611d44565b610c7e576040517f08c379a0000000000000000000000000000000000000000000000000000000008152600401610c7590614f57565b60405180910390fd5b3373ffffffffffffffffffffffffffffffffffffffff16610c9e82611549565b73ffffffffffffffffffffffffffffffffffffffff1614610cf4576040517f08c379a0000000000000000000000000000000000000000000000000000000008152600401610ceb90614e77565b60405180910390fd5b610cfd81611ddd565b7f82498456531a1065f689ba348ce20bda781238c424cf36748dd40bc282831e0381604051610d2c91906150f7565b60405180910390a150565b6000610d4282611f2b565b9050919050565b60006040610d55610f5b565b10610d635760019050610d68565b600090505b90565b606060028054610d7a906153de565b80601f0160208091040260200160405190810160405280929190818152602001828054610da6906153de565b8015610df35780601f10610dc857610100808354040283529160200191610df3565b820191906000526020600020905b815481529060010190602001808311610dd657829003601f168201915b5050505050905090565b6000610e0882611fa5565b6006600083815260200190815260200160002060009054906101000a900473ffffffffffffffffffffffffffffffffffffffff169050919050565b6000610e4e82611549565b90508073ffffffffffffffffffffffffffffffffffffffff168373ffffffffffffffffffffffffffffffffffffffff161415610ebf576040517f08c379a0000000000000000000000000000000000000000000000000000000008152600401610eb690614fb7565b60405180910390fd5b8073ffffffffffffffffffffffffffffffffffffffff16610ede611ff0565b73ffffffffffffffffffffffffffffffffffffffff161480610f0d5750610f0c81610f07611ff0565b611a94565b5b610f4c576040517f08c379a0000000000000000000000000000000000000000000000000000000008152600401610f4390614ff7565b60405180910390fd5b610f568383611fff565b505050565b6000600a80549050905090565b601260009054906101000a900460ff1681565b610f8c610f86611ff0565b826120b8565b610fcb576040517f08c379a0000000000000000000000000000000000000000000000000000000008152600401610fc290614d57565b60405180910390fd5b610fd683838361214d565b505050565b6000806000838152602001908152602001600020600101549050919050565b611002612447565b61100a6117a6565b73ffffffffffffffffffffffffffffffffffffffff163373ffffffffffffffffffffffffffffffffffffffff1614611077576040517f08c379a000000000000000000000000000000000000000000000000000000000815260040161106e90614f17565b60405180910390fd5b600081116110ba576040517f08c379a00000000000000000000000000000000000000000000000000000000081526004016110b190614ed7565b60405180910390fd5b8060118190555050565b6110cd82610fdb565b6110d6816124c5565b6110e083836124d9565b505050565b60006110f083611660565b8210611131576040517f08c379a000000000000000000000000000000000000000000000000000000000815260040161112890614d77565b60405180910390fd5b600860008473ffffffffffffffffffffffffffffffffffffffff1673ffffffffffffffffffffffffffffffffffffffff168152602001908152602001600020600083815260200190815260200160002054905092915050565b611192611ff0565b73ffffffffffffffffffffffffffffffffffffffff168173ffffffffffffffffffffffffffffffffffffffff16146111ff576040517f08c379a00000000000000000000000000000000000000000000000000000000081526004016111f6906150d7565b60405180910390fd5b611209828261250d565b5050565b61123e7f65d7a28e3265b37a6474929f336521b332c1681b933f6cb9f3376673440d862a611239611ff0565b6117ff565b61127d576040517f08c379a0000000000000000000000000000000000000000000000000000000008152600401611274906150b7565b60405180910390fd5b611285612541565b565b6112a28383836040518060200160405280600081525061193d565b505050565b6112b86112b2611ff0565b826120b8565b6112f7576040517f08c379a00000000000000000000000000000000000000000000000000000000081526004016112ee90614d57565b60405180910390fd5b61130081611ddd565b50565b60115481565b6000611313610f5b565b8210611354576040517f08c379a000000000000000000000000000000000000000000000000000000000815260040161134b90615017565b60405180910390fd5b600a828154811061138e577f4e487b7100000000000000000000000000000000000000000000000000000000600052603260045260246000fd5b90600052602060002001549050919050565b6113a8612447565b6000601260006101000a81548160ff021916908315150217905550565b6000600c60009054906101000a900460ff16905090565b6113e4612447565b600f60149054906101000a900460ff1615611434576040517f08c379a000000000000000000000000000000000000000000000000000000000815260040161142b90615097565b60405180910390fd5b6001600f60146101000a81548160ff02191690831515021790555060006064600a476114609190615266565b61146a9190615235565b4761147591906152c0565b905060006114816117a6565b73ffffffffffffffffffffffffffffffffffffffff16826040516114a490614bc9565b60006040518083038185875af1925050503d80600081146114e1576040519150601f19603f3d011682016040523d82523d6000602084013e6114e6565b606091505b505090508061152a576040517f08c379a000000000000000000000000000000000000000000000000000000000815260040161152190614fd7565b60405180910390fd5b6000600f60146101000a81548160ff0219169083151502179055505050565b600080611555836125a4565b9050600073ffffffffffffffffffffffffffffffffffffffff168173ffffffffffffffffffffffffffffffffffffffff1614156115c7576040517f08c379a00000000000000000000000000000000000000000000000000000000081526004016115be90614f97565b60405180910390fd5b80915050919050565b6116017f9f2df0fed2c77648de5860a4cc508cd0818c85b8b8a1ab4ceeef8d981c8956a66115fc611ff0565b6117ff565b611640576040517f08c379a000000000000000000000000000000000000000000000000000000000815260040161163790615077565b60405180910390fd5b6116538161164e600d611d9b565b6125e1565b61165d600d611dc7565b50565b60008073ffffffffffffffffffffffffffffffffffffffff168273ffffffffffffffffffffffffffffffffffffffff1614156116d1576040517f08c379a00000000000000000000000000000000000000000000000000000000081526004016116c890614ef7565b60405180910390fd5b600560008373ffffffffffffffffffffffffffffffffffffffff1673ffffffffffffffffffffffffffffffffffffffff168152602001908152602001600020549050919050565b611720612447565b61172a60006127ff565b565b61175d7f65d7a28e3265b37a6474929f336521b332c1681b933f6cb9f3376673440d862a611758611ff0565b6117ff565b61179c576040517f08c379a000000000000000000000000000000000000000000000000000000000815260040161179390614e17565b60405180910390fd5b6117a46128c5565b565b6000600f60009054906101000a900473ffffffffffffffffffffffffffffffffffffffff16905090565b60006117f7826001600086815260200190815260200160002061292890919063ffffffff16565b905092915050565b600080600084815260200190815260200160002060000160008373ffffffffffffffffffffffffffffffffffffffff1673ffffffffffffffffffffffffffffffffffffffff16815260200190815260200160002060009054906101000a900460ff16905092915050565b606060038054611878906153de565b80601f01602080910402602001604051908101604052809291908181526020018280546118a4906153de565b80156118f15780601f106118c6576101008083540402835291602001916118f1565b820191906000526020600020905b8154815290600101906020018083116118d457829003601f168201915b5050505050905090565b6000801b81565b61191461190d611ff0565b8383612942565b5050565b611920612447565b6001601260006101000a81548160ff021916908315150217905550565b61194e611948611ff0565b836120b8565b61198d576040517f08c379a000000000000000000000000000000000000000000000000000000000815260040161198490614d57565b60405180910390fd5b61199984848484612aaf565b50505050565b60606119aa82611fa5565b60006119b4612b0b565b905060008151116119d457604051806020016040528060008152506119ff565b806119de84612b9d565b6040516020016119ef929190614ba5565b6040516020818303038152906040525b915050919050565b6000611a2460016000848152602001908152602001600020612cc1565b9050919050565b7f9f2df0fed2c77648de5860a4cc508cd0818c85b8b8a1ab4ceeef8d981c8956a681565b611a5882610fdb565b611a61816124c5565b611a6b838361250d565b505050565b7f65d7a28e3265b37a6474929f336521b332c1681b933f6cb9f3376673440d862a81565b60007358807bad0b376efc12f5ad86aac70e78ed67deae73ffffffffffffffffffffffffffffffffffffffff168273ffffffffffffffffffffffffffffffffffffffff161415611ae75760019050611af4565b611af18383612cd6565b90505b92915050565b611b02612447565b600073ffffffffffffffffffffffffffffffffffffffff168173ffffffffffffffffffffffffffffffffffffffff161415611b72576040517f08c379a0000000000000000000000000000000000000000000000000000000008152600401611b6990614db7565b60405180910390fd5b611b7b816127ff565b50565b604081565b60003073ffffffffffffffffffffffffffffffffffffffff163373ffffffffffffffffffffffffffffffffffffffff161415611c2d57600080368080601f016020809104026020016040519081016040528093929190818152602001838380828437600081840152601f19601f820116905080830192505050505050509050600080369050905073ffffffffffffffffffffffffffffffffffffffff818301511692505050611c31565b3390505b90565b611c3e82826117ff565b611d1057600160008084815260200190815260200160002060000160008373ffffffffffffffffffffffffffffffffffffffff1673ffffffffffffffffffffffffffffffffffffffff16815260200190815260200160002060006101000a81548160ff021916908315150217905550611cb5611ff0565b73ffffffffffffffffffffffffffffffffffffffff168173ffffffffffffffffffffffffffffffffffffffff16837f2f8788117e7eff1d82e926ec794901d17c78024a50270940304540a733656f0d60405160405180910390a45b5050565b6000611d3c836000018373ffffffffffffffffffffffffffffffffffffffff1660001b612d6a565b905092915050565b60008073ffffffffffffffffffffffffffffffffffffffff16611d66836125a4565b73ffffffffffffffffffffffffffffffffffffffff1614159050919050565b60008183611d9391906151df565b905092915050565b600081600001549050919050565b611dc3828260405180602001604052806000815250612dda565b5050565b6001816000016000828254019250508190555050565b6000611de882611549565b9050611df8816000846001612e35565b611e0182611549565b90506006600083815260200190815260200160002060006101000a81549073ffffffffffffffffffffffffffffffffffffffff02191690556001600560008373ffffffffffffffffffffffffffffffffffffffff1673ffffffffffffffffffffffffffffffffffffffff168152602001908152602001600020600082825403925050819055506004600083815260200190815260200160002060006101000a81549073ffffffffffffffffffffffffffffffffffffffff021916905581600073ffffffffffffffffffffffffffffffffffffffff168273ffffffffffffffffffffffffffffffffffffffff167fddf252ad1be2c89b69c2b068fc378daa952ba7f163c4a11628f55a4df523b3ef60405160405180910390a4611f27816000846001612e47565b5050565b60007f780e9d63000000000000000000000000000000000000000000000000000000007bffffffffffffffffffffffffffffffffffffffffffffffffffffffff1916827bffffffffffffffffffffffffffffffffffffffffffffffffffffffff19161480611f9e5750611f9d82612e4d565b5b9050919050565b611fae81611d44565b611fed576040517f08c379a0000000000000000000000000000000000000000000000000000000008152600401611fe490614f97565b60405180910390fd5b50565b6000611ffa611b83565b905090565b816006600083815260200190815260200160002060006101000a81548173ffffffffffffffffffffffffffffffffffffffff021916908373ffffffffffffffffffffffffffffffffffffffff160217905550808273ffffffffffffffffffffffffffffffffffffffff1661207283611549565b73ffffffffffffffffffffffffffffffffffffffff167f8c5be1e5ebec7d5bd14f71427d1e84f3dd0314c0f7b2291e5b200ac8c7c3b92560405160405180910390a45050565b6000806120c483611549565b90508073ffffffffffffffffffffffffffffffffffffffff168473ffffffffffffffffffffffffffffffffffffffff16148061210657506121058185611a94565b5b8061214457508373ffffffffffffffffffffffffffffffffffffffff1661212c84610dfd565b73ffffffffffffffffffffffffffffffffffffffff16145b91505092915050565b8273ffffffffffffffffffffffffffffffffffffffff1661216d82611549565b73ffffffffffffffffffffffffffffffffffffffff16146121c3576040517f08c379a00000000000000000000000000000000000000000000000000000000081526004016121ba90614dd7565b60405180910390fd5b600073ffffffffffffffffffffffffffffffffffffffff168273ffffffffffffffffffffffffffffffffffffffff161415612233576040517f08c379a000000000000000000000000000000000000000000000000000000000815260040161222a90614e37565b60405180910390fd5b6122408383836001612e35565b8273ffffffffffffffffffffffffffffffffffffffff1661226082611549565b73ffffffffffffffffffffffffffffffffffffffff16146122b6576040517f08c379a00000000000000000000000000000000000000000000000000000000081526004016122ad90614dd7565b60405180910390fd5b6006600082815260200190815260200160002060006101000a81549073ffffffffffffffffffffffffffffffffffffffff02191690556001600560008573ffffffffffffffffffffffffffffffffffffffff1673ffffffffffffffffffffffffffffffffffffffff168152602001908152602001600020600082825403925050819055506001600560008473ffffffffffffffffffffffffffffffffffffffff1673ffffffffffffffffffffffffffffffffffffffff16815260200190815260200160002060008282540192505081905550816004600083815260200190815260200160002060006101000a81548173ffffffffffffffffffffffffffffffffffffffff021916908373ffffffffffffffffffffffffffffffffffffffff160217905550808273ffffffffffffffffffffffffffffffffffffffff168473ffffffffffffffffffffffffffffffffffffffff167fddf252ad1be2c89b69c2b068fc378daa952ba7f163c4a11628f55a4df523b3ef60405160405180910390a46124428383836001612e47565b505050565b61244f611ff0565b73ffffffffffffffffffffffffffffffffffffffff1661246d6117a6565b73ffffffffffffffffffffffffffffffffffffffff16146124c3576040517f08c379a00000000000000000000000000000000000000000000000000000000081526004016124ba90614f77565b60405180910390fd5b565b6124d6816124d1611ff0565b612f2f565b50565b6124e38282611c34565b6125088160016000858152602001908152602001600020611d1490919063ffffffff16565b505050565b6125178282612fb4565b61253c816001600085815260200190815260200160002061309590919063ffffffff16565b505050565b6125496130c5565b6000600c60006101000a81548160ff0219169083151502179055507f5db9ee0a495bf2e6ff9c91a7834c1ba4fdd244a5e8aa4e537bd38aeae4b073aa61258d611ff0565b60405161259a9190614c18565b60405180910390a1565b60006004600083815260200190815260200160002060009054906101000a900473ffffffffffffffffffffffffffffffffffffffff169050919050565b600073ffffffffffffffffffffffffffffffffffffffff168273ffffffffffffffffffffffffffffffffffffffff161415612651576040517f08c379a000000000000000000000000000000000000000000000000000000000815260040161264890614f37565b60405180910390fd5b61265a81611d44565b1561269a576040517f08c379a000000000000000000000000000000000000000000000000000000000815260040161269190614df7565b60405180910390fd5b6126a8600083836001612e35565b6126b181611d44565b156126f1576040517f08c379a00000000000000000000000000000000000000000000000000000000081526004016126e890614df7565b60405180910390fd5b6001600560008473ffffffffffffffffffffffffffffffffffffffff1673ffffffffffffffffffffffffffffffffffffffff16815260200190815260200160002060008282540192505081905550816004600083815260200190815260200160002060006101000a81548173ffffffffffffffffffffffffffffffffffffffff021916908373ffffffffffffffffffffffffffffffffffffffff160217905550808273ffffffffffffffffffffffffffffffffffffffff16600073ffffffffffffffffffffffffffffffffffffffff167fddf252ad1be2c89b69c2b068fc378daa952ba7f163c4a11628f55a4df523b3ef60405160405180910390a46127fb600083836001612e47565b5050565b6000600f60009054906101000a900473ffffffffffffffffffffffffffffffffffffffff16905081600f60006101000a81548173ffffffffffffffffffffffffffffffffffffffff021916908373ffffffffffffffffffffffffffffffffffffffff1602179055508173ffffffffffffffffffffffffffffffffffffffff168173ffffffffffffffffffffffffffffffffffffffff167f8be0079c531659141344cd1fd0a4f28419497f9722a3daafe3b4186f6b6457e060405160405180910390a35050565b6128cd61310e565b6001600c60006101000a81548160ff0219169083151502179055507f62e78cea01bee320cd4e420270b5ea74000d11b0c9f74754ebdbfc544b05a258612911611ff0565b60405161291e9190614c18565b60405180910390a1565b60006129378360000183613158565b60001c905092915050565b8173ffffffffffffffffffffffffffffffffffffffff168373ffffffffffffffffffffffffffffffffffffffff1614156129b1576040517f08c379a00000000000000000000000000000000000000000000000000000000081526004016129a890614e57565b60405180910390fd5b80600760008573ffffffffffffffffffffffffffffffffffffffff1673ffffffffffffffffffffffffffffffffffffffff16815260200190815260200160002060008473ffffffffffffffffffffffffffffffffffffffff1673ffffffffffffffffffffffffffffffffffffffff16815260200190815260200160002060006101000a81548160ff0219169083151502179055508173ffffffffffffffffffffffffffffffffffffffff168373ffffffffffffffffffffffffffffffffffffffff167f17307eab39ab6107e8899845ad3d59bd9653f200f220920489ca2b5937696c3183604051612aa29190614c7f565b60405180910390a3505050565b612aba84848461214d565b612ac6848484846131a9565b612b05576040517f08c379a0000000000000000000000000000000000000000000000000000000008152600401612afc90614d97565b60405180910390fd5b50505050565b6060600e8054612b1a906153de565b80601f0160208091040260200160405190810160405280929190818152602001828054612b46906153de565b8015612b935780601f10612b6857610100808354040283529160200191612b93565b820191906000526020600020905b815481529060010190602001808311612b7657829003601f168201915b5050505050905090565b606060006001612bac84613340565b01905060008167ffffffffffffffff811115612bf1577f4e487b7100000000000000000000000000000000000000000000000000000000600052604160045260246000fd5b6040519080825280601f01601f191660200182016040528015612c235781602001600182028036833780820191505090505b509050600082602001820190505b600115612cb6578080600190039150507f3031323334353637383961626364656600000000000000000000000000000000600a86061a8153600a8581612ca0577f4e487b7100000000000000000000000000000000000000000000000000000000600052601260045260246000fd5b0494506000851415612cb157612cb6565b612c31565b819350505050919050565b6000612ccf82600001613577565b9050919050565b6000600760008473ffffffffffffffffffffffffffffffffffffffff1673ffffffffffffffffffffffffffffffffffffffff16815260200190815260200160002060008373ffffffffffffffffffffffffffffffffffffffff1673ffffffffffffffffffffffffffffffffffffffff16815260200190815260200160002060009054906101000a900460ff16905092915050565b6000612d768383613588565b612dcf578260000182908060018154018082558091505060019003906000526020600020016000909190919091505582600001805490508360010160008481526020019081526020016000208190555060019050612dd4565b600090505b92915050565b612de483836125e1565b612df160008484846131a9565b612e30576040517f08c379a0000000000000000000000000000000000000000000000000000000008152600401612e2790614d97565b60405180910390fd5b505050565b612e41848484846135ab565b50505050565b50505050565b60007f80ac58cd000000000000000000000000000000000000000000000000000000007bffffffffffffffffffffffffffffffffffffffffffffffffffffffff1916827bffffffffffffffffffffffffffffffffffffffffffffffffffffffff19161480612f1857507f5b5e139f000000000000000000000000000000000000000000000000000000007bffffffffffffffffffffffffffffffffffffffffffffffffffffffff1916827bffffffffffffffffffffffffffffffffffffffffffffffffffffffff1916145b80612f285750612f2782613605565b5b9050919050565b612f3982826117ff565b612fb057612f468161367f565b612f548360001c60206136ac565b604051602001612f65929190614bde565b6040516020818303038152906040526040517f08c379a0000000000000000000000000000000000000000000000000000000008152600401612fa79190614cb5565b60405180910390fd5b5050565b612fbe82826117ff565b1561309157600080600084815260200190815260200160002060000160008373ffffffffffffffffffffffffffffffffffffffff1673ffffffffffffffffffffffffffffffffffffffff16815260200190815260200160002060006101000a81548160ff021916908315150217905550613036611ff0565b73ffffffffffffffffffffffffffffffffffffffff168173ffffffffffffffffffffffffffffffffffffffff16837ff6391f5c32d9c69d2a47ea670b442974b53935d1edc7fd64eb21e047a839171b60405160405180910390a45b5050565b60006130bd836000018373ffffffffffffffffffffffffffffffffffffffff1660001b6139a6565b905092915050565b6130cd6113c5565b61310c576040517f08c379a000000000000000000000000000000000000000000000000000000000815260040161310390614d17565b60405180910390fd5b565b6131166113c5565b15613156576040517f08c379a000000000000000000000000000000000000000000000000000000000815260040161314d90614eb7565b60405180910390fd5b565b6000826000018281548110613196577f4e487b7100000000000000000000000000000000000000000000000000000000600052603260045260246000fd5b9060005260206000200154905092915050565b60006131ca8473ffffffffffffffffffffffffffffffffffffffff16613b2c565b15613333578373ffffffffffffffffffffffffffffffffffffffff1663150b7a026131f3611ff0565b8786866040518563ffffffff1660e01b81526004016132159493929190614c33565b602060405180830381600087803b15801561322f57600080fd5b505af192505050801561326057506040513d601f19601f8201168201806040525081019061325d9190614588565b60015b6132e3573d8060008114613290576040519150601f19603f3d011682016040523d82523d6000602084013e613295565b606091505b506000815114156132db576040517f08c379a00000000000000000000000000000000000000000000000000000000081526004016132d290614d97565b60405180910390fd5b805181602001fd5b63150b7a0260e01b7bffffffffffffffffffffffffffffffffffffffffffffffffffffffff1916817bffffffffffffffffffffffffffffffffffffffffffffffffffffffff191614915050613338565b600190505b949350505050565b600080600090507a184f03e93ff9f4daa797ed6e38ed64bf6a1f01000000000000000083106133c4577a184f03e93ff9f4daa797ed6e38ed64bf6a1f01000000000000000083816133ba577f4e487b7100000000000000000000000000000000000000000000000000000000600052601260045260246000fd5b0492506040810190505b6d04ee2d6d415b85acef81000000008310613427576d04ee2d6d415b85acef8100000000838161341d577f4e487b7100000000000000000000000000000000000000000000000000000000600052601260045260246000fd5b0492506020810190505b662386f26fc10000831061347c57662386f26fc100008381613472577f4e487b7100000000000000000000000000000000000000000000000000000000600052601260045260246000fd5b0492506010810190505b6305f5e10083106134cb576305f5e10083816134c1577f4e487b7100000000000000000000000000000000000000000000000000000000600052601260045260246000fd5b0492506008810190505b612710831061351657612710838161350c577f4e487b7100000000000000000000000000000000000000000000000000000000600052601260045260246000fd5b0492506004810190505b6064831061355f5760648381613555577f4e487b7100000000000000000000000000000000000000000000000000000000600052601260045260246000fd5b0492506002810190505b600a831061356e576001810190505b80915050919050565b600081600001805490509050919050565b600080836001016000848152602001908152602001600020541415905092915050565b6135b784848484613b4f565b6135bf6113c5565b156135ff576040517f08c379a00000000000000000000000000000000000000000000000000000000081526004016135f690614cf7565b60405180910390fd5b50505050565b60007f5a05180f000000000000000000000000000000000000000000000000000000007bffffffffffffffffffffffffffffffffffffffffffffffffffffffff1916827bffffffffffffffffffffffffffffffffffffffffffffffffffffffff19161480613678575061367782613caf565b5b9050919050565b60606136a58273ffffffffffffffffffffffffffffffffffffffff16601460ff166136ac565b9050919050565b6060600060028360026136bf9190615266565b6136c991906151df565b67ffffffffffffffff811115613708577f4e487b7100000000000000000000000000000000000000000000000000000000600052604160045260246000fd5b6040519080825280601f01601f19166020018201604052801561373a5781602001600182028036833780820191505090505b5090507f300000000000000000000000000000000000000000000000000000000000000081600081518110613798577f4e487b7100000000000000000000000000000000000000000000000000000000600052603260045260246000fd5b60200101907effffffffffffffffffffffffffffffffffffffffffffffffffffffffffffff1916908160001a9053507f780000000000000000000000000000000000000000000000000000000000000081600181518110613822577f4e487b7100000000000000000000000000000000000000000000000000000000600052603260045260246000fd5b60200101907effffffffffffffffffffffffffffffffffffffffffffffffffffffffffffff1916908160001a905350600060018460026138629190615266565b61386c91906151df565b90505b6001811115613958577f3031323334353637383961626364656600000000000000000000000000000000600f8616601081106138d4577f4e487b7100000000000000000000000000000000000000000000000000000000600052603260045260246000fd5b1a60f81b828281518110613911577f4e487b7100000000000000000000000000000000000000000000000000000000600052603260045260246000fd5b60200101907effffffffffffffffffffffffffffffffffffffffffffffffffffffffffffff1916908160001a905350600485901c945080613951906153b4565b905061386f565b506000841461399c576040517f08c379a000000000000000000000000000000000000000000000000000000000815260040161399390614cd7565b60405180910390fd5b8091505092915050565b60008083600101600084815260200190815260200160002054905060008114613b205760006001826139d891906152c0565b90506000600186600001805490506139f091906152c0565b9050818114613aab576000866000018281548110613a37577f4e487b7100000000000000000000000000000000000000000000000000000000600052603260045260246000fd5b9060005260206000200154905080876000018481548110613a81577f4e487b7100000000000000000000000000000000000000000000000000000000600052603260045260246000fd5b90600052602060002001819055508387600101600083815260200190815260200160002081905550505b85600001805480613ae5577f4e487b7100000000000000000000000000000000000000000000000000000000600052603160045260246000fd5b600190038181906000526020600020016000905590558560010160008681526020019081526020016000206000905560019350505050613b26565b60009150505b92915050565b6000808273ffffffffffffffffffffffffffffffffffffffff163b119050919050565b613b5b84848484613d29565b6001811115613b9f576040517f08c379a0000000000000000000000000000000000000000000000000000000008152600401613b9690615037565b60405180910390fd5b6000829050600073ffffffffffffffffffffffffffffffffffffffff168573ffffffffffffffffffffffffffffffffffffffff161415613be757613be281613e4f565b613c26565b8373ffffffffffffffffffffffffffffffffffffffff168573ffffffffffffffffffffffffffffffffffffffff1614613c2557613c248582613e98565b5b5b600073ffffffffffffffffffffffffffffffffffffffff168473ffffffffffffffffffffffffffffffffffffffff161415613c6957613c6481614005565b613ca8565b8473ffffffffffffffffffffffffffffffffffffffff168473ffffffffffffffffffffffffffffffffffffffff1614613ca757613ca68482614148565b5b5b5050505050565b60007f7965db0b000000000000000000000000000000000000000000000000000000007bffffffffffffffffffffffffffffffffffffffffffffffffffffffff1916827bffffffffffffffffffffffffffffffffffffffffffffffffffffffff19161480613d225750613d21826141c7565b5b9050919050565b6001811115613e4957600073ffffffffffffffffffffffffffffffffffffffff168473ffffffffffffffffffffffffffffffffffffffff1614613dbd5780600560008673ffffffffffffffffffffffffffffffffffffffff1673ffffffffffffffffffffffffffffffffffffffff1681526020019081526020016000206000828254613db591906152c0565b925050819055505b600073ffffffffffffffffffffffffffffffffffffffff168373ffffffffffffffffffffffffffffffffffffffff1614613e485780600560008573ffffffffffffffffffffffffffffffffffffffff1673ffffffffffffffffffffffffffffffffffffffff1681526020019081526020016000206000828254613e4091906151df565b925050819055505b5b50505050565b600a80549050600b600083815260200190815260200160002081905550600a81908060018154018082558091505060019003906000526020600020016000909190919091505550565b60006001613ea584611660565b613eaf91906152c0565b9050600060096000848152602001908152602001600020549050818114613f94576000600860008673ffffffffffffffffffffffffffffffffffffffff1673ffffffffffffffffffffffffffffffffffffffff168152602001908152602001600020600084815260200190815260200160002054905080600860008773ffffffffffffffffffffffffffffffffffffffff1673ffffffffffffffffffffffffffffffffffffffff168152602001908152602001600020600084815260200190815260200160002081905550816009600083815260200190815260200160002081905550505b6009600084815260200190815260200160002060009055600860008573ffffffffffffffffffffffffffffffffffffffff1673ffffffffffffffffffffffffffffffffffffffff16815260200190815260200160002060008381526020019081526020016000206000905550505050565b60006001600a8054905061401991906152c0565b90506000600b60008481526020019081526020016000205490506000600a838154811061406f577f4e487b7100000000000000000000000000000000000000000000000000000000600052603260045260246000fd5b9060005260206000200154905080600a83815481106140b7577f4e487b7100000000000000000000000000000000000000000000000000000000600052603260045260246000fd5b906000526020600020018190555081600b600083815260200190815260200160002081905550600b600085815260200190815260200160002060009055600a80548061412c577f4e487b7100000000000000000000000000000000000000000000000000000000600052603160045260246000fd5b6001900381819060005260206000200160009055905550505050565b600061415383611660565b905081600860008573ffffffffffffffffffffffffffffffffffffffff1673ffffffffffffffffffffffffffffffffffffffff168152602001908152602001600020600083815260200190815260200160002081905550806009600084815260200190815260200160002081905550505050565b60007f01ffc9a7000000000000000000000000000000000000000000000000000000007bffffffffffffffffffffffffffffffffffffffffffffffffffffffff1916827bffffffffffffffffffffffffffffffffffffffffffffffffffffffff1916149050919050565b600061424461423f84615160565b61513b565b90508281526020810184848401111561425c57600080fd5b614267848285615372565b509392505050565b60008135905061427e81615d0c565b92915050565b60008135905061429381615d23565b92915050565b6000813590506142a881615d3a565b92915050565b6000813590506142bd81615d51565b92915050565b6000815190506142d281615d51565b92915050565b600082601f8301126142e957600080fd5b81356142f9848260208601614231565b91505092915050565b60008135905061431181615d68565b92915050565b60006020828403121561432957600080fd5b60006143378482850161426f565b91505092915050565b6000806040838503121561435357600080fd5b60006143618582860161426f565b92505060206143728582860161426f565b9150509250929050565b60008060006060848603121561439157600080fd5b600061439f8682870161426f565b93505060206143b08682870161426f565b92505060406143c186828701614302565b9150509250925092565b600080600080608085870312156143e157600080fd5b60006143ef8782880161426f565b94505060206144008782880161426f565b935050604061441187828801614302565b925050606085013567ffffffffffffffff81111561442e57600080fd5b61443a878288016142d8565b91505092959194509250565b6000806040838503121561445957600080fd5b60006144678582860161426f565b925050602061447885828601614284565b9150509250929050565b6000806040838503121561449557600080fd5b60006144a38582860161426f565b92505060206144b485828601614302565b9150509250929050565b6000602082840312156144d057600080fd5b60006144de84828501614299565b91505092915050565b600080604083850312156144fa57600080fd5b600061450885828601614299565b92505060206145198582860161426f565b9150509250929050565b6000806040838503121561453657600080fd5b600061454485828601614299565b925050602061455585828601614302565b9150509250929050565b60006020828403121561457157600080fd5b600061457f848285016142ae565b91505092915050565b60006020828403121561459a57600080fd5b60006145a8848285016142c3565b91505092915050565b6000602082840312156145c357600080fd5b60006145d184828501614302565b91505092915050565b6145e3816152f4565b82525050565b6145f281615306565b82525050565b61460181615312565b82525050565b600061461282615191565b61461c81856151a7565b935061462c818560208601615381565b614635816154fd565b840191505092915050565b600061464b8261519c565b61465581856151c3565b9350614665818560208601615381565b61466e816154fd565b840191505092915050565b60006146848261519c565b61468e81856151d4565b935061469e818560208601615381565b80840191505092915050565b60006146b76020836151c3565b91506146c28261550e565b602082019050919050565b60006146da602b836151c3565b91506146e582615537565b604082019050919050565b60006146fd6014836151c3565b915061470882615586565b602082019050919050565b60006147206013836151c3565b915061472b826155af565b602082019050919050565b6000614743602d836151c3565b915061474e826155d8565b604082019050919050565b6000614766602b836151c3565b915061477182615627565b604082019050919050565b60006147896032836151c3565b915061479482615676565b604082019050919050565b60006147ac6026836151c3565b91506147b7826156c5565b604082019050919050565b60006147cf6025836151c3565b91506147da82615714565b604082019050919050565b60006147f2601c836151c3565b91506147fd82615763565b602082019050919050565b6000614815603e836151c3565b91506148208261578c565b604082019050919050565b60006148386024836151c3565b9150614843826157db565b604082019050919050565b600061485b6019836151c3565b91506148668261582a565b602082019050919050565b600061487e601a836151c3565b915061488982615853565b602082019050919050565b60006148a16008836151c3565b91506148ac8261587c565b602082019050919050565b60006148c46010836151c3565b91506148cf826158a5565b602082019050919050565b60006148e7601e836151c3565b91506148f2826158ce565b602082019050919050565b600061490a6029836151c3565b9150614915826158f7565b604082019050919050565b600061492d601f836151c3565b915061493882615946565b602082019050919050565b60006149506020836151c3565b915061495b8261596f565b602082019050919050565b60006149736015836151c3565b915061497e82615998565b602082019050919050565b60006149966020836151c3565b91506149a1826159c1565b602082019050919050565b60006149b96018836151c3565b91506149c4826159ea565b602082019050919050565b60006149dc6021836151c3565b91506149e782615a13565b604082019050919050565b60006149ff6012836151c3565b9150614a0a82615a62565b602082019050919050565b6000614a226000836151b8565b9150614a2d82615a8b565b600082019050919050565b6000614a45603d836151c3565b9150614a5082615a8e565b604082019050919050565b6000614a68602c836151c3565b9150614a7382615add565b604082019050919050565b6000614a8b6017836151d4565b9150614a9682615b2c565b601782019050919050565b6000614aae6035836151c3565b9150614ab982615b55565b604082019050919050565b6000614ad1600b836151c3565b9150614adc82615ba4565b602082019050919050565b6000614af4603d836151c3565b9150614aff82615bcd565b604082019050919050565b6000614b176013836151c3565b9150614b2282615c1c565b602082019050919050565b6000614b3a6040836151c3565b9150614b4582615c45565b604082019050919050565b6000614b5d6011836151d4565b9150614b6882615c94565b601182019050919050565b6000614b80602f836151c3565b9150614b8b82615cbd565b604082019050919050565b614b9f81615368565b82525050565b6000614bb18285614679565b9150614bbd8284614679565b91508190509392505050565b6000614bd482614a15565b9150819050919050565b6000614be982614a7e565b9150614bf58285614679565b9150614c0082614b50565b9150614c0c8284614679565b91508190509392505050565b6000602082019050614c2d60008301846145da565b92915050565b6000608082019050614c4860008301876145da565b614c5560208301866145da565b614c626040830185614b96565b8181036060830152614c748184614607565b905095945050505050565b6000602082019050614c9460008301846145e9565b92915050565b6000602082019050614caf60008301846145f8565b92915050565b60006020820190508181036000830152614ccf8184614640565b905092915050565b60006020820190508181036000830152614cf0816146aa565b9050919050565b60006020820190508181036000830152614d10816146cd565b9050919050565b60006020820190508181036000830152614d30816146f0565b9050919050565b60006020820190508181036000830152614d5081614713565b9050919050565b60006020820190508181036000830152614d7081614736565b9050919050565b60006020820190508181036000830152614d9081614759565b9050919050565b60006020820190508181036000830152614db08161477c565b9050919050565b60006020820190508181036000830152614dd08161479f565b9050919050565b60006020820190508181036000830152614df0816147c2565b9050919050565b60006020820190508181036000830152614e10816147e5565b9050919050565b60006020820190508181036000830152614e3081614808565b9050919050565b60006020820190508181036000830152614e508161482b565b9050919050565b60006020820190508181036000830152614e708161484e565b9050919050565b60006020820190508181036000830152614e9081614871565b9050919050565b60006020820190508181036000830152614eb081614894565b9050919050565b60006020820190508181036000830152614ed0816148b7565b9050919050565b60006020820190508181036000830152614ef0816148da565b9050919050565b60006020820190508181036000830152614f10816148fd565b9050919050565b60006020820190508181036000830152614f3081614920565b9050919050565b60006020820190508181036000830152614f5081614943565b9050919050565b60006020820190508181036000830152614f7081614966565b9050919050565b60006020820190508181036000830152614f9081614989565b9050919050565b60006020820190508181036000830152614fb0816149ac565b9050919050565b60006020820190508181036000830152614fd0816149cf565b9050919050565b60006020820190508181036000830152614ff0816149f2565b9050919050565b6000602082019050818103600083015261501081614a38565b9050919050565b6000602082019050818103600083015261503081614a5b565b9050919050565b6000602082019050818103600083015261505081614aa1565b9050919050565b6000602082019050818103600083015261507081614ac4565b9050919050565b6000602082019050818103600083015261509081614ae7565b9050919050565b600060208201905081810360008301526150b081614b0a565b9050919050565b600060208201905081810360008301526150d081614b2d565b9050919050565b600060208201905081810360008301526150f081614b73565b9050919050565b600060208201905061510c6000830184614b96565b92915050565b60006040820190506151276000830185614b96565b61513460208301846145da565b9392505050565b6000615145615156565b90506151518282615410565b919050565b6000604051905090565b600067ffffffffffffffff82111561517b5761517a6154ce565b5b615184826154fd565b9050602081019050919050565b600081519050919050565b600081519050919050565b600082825260208201905092915050565b600081905092915050565b600082825260208201905092915050565b600081905092915050565b60006151ea82615368565b91506151f583615368565b9250827fffffffffffffffffffffffffffffffffffffffffffffffffffffffffffffffff0382111561522a57615229615441565b5b828201905092915050565b600061524082615368565b915061524b83615368565b92508261525b5761525a615470565b5b828204905092915050565b600061527182615368565b915061527c83615368565b9250817fffffffffffffffffffffffffffffffffffffffffffffffffffffffffffffffff04831182151516156152b5576152b4615441565b5b828202905092915050565b60006152cb82615368565b91506152d683615368565b9250828210156152e9576152e8615441565b5b828203905092915050565b60006152ff82615348565b9050919050565b60008115159050919050565b6000819050919050565b60007fffffffff0000000000000000000000000000000000000000000000000000000082169050919050565b600073ffffffffffffffffffffffffffffffffffffffff82169050919050565b6000819050919050565b82818337600083830152505050565b60005b8381101561539f578082015181840152602081019050615384565b838111156153ae576000848401525b50505050565b60006153bf82615368565b915060008214156153d3576153d2615441565b5b600182039050919050565b600060028204905060018216806153f657607f821691505b6020821081141561540a5761540961549f565b5b50919050565b615419826154fd565b810181811067ffffffffffffffff82111715615438576154376154ce565b5b80604052505050565b7f4e487b7100000000000000000000000000000000000000000000000000000000600052601160045260246000fd5b7f4e487b7100000000000000000000000000000000000000000000000000000000600052601260045260246000fd5b7f4e487b7100000000000000000000000000000000000000000000000000000000600052602260045260246000fd5b7f4e487b7100000000000000000000000000000000000000000000000000000000600052604160045260246000fd5b6000601f19601f8301169050919050565b7f537472696e67733a20686578206c656e67746820696e73756666696369656e74600082015250565b7f4552433732315061757361626c653a20746f6b656e207472616e73666572207760008201527f68696c6520706175736564000000000000000000000000000000000000000000602082015250565b7f5061757361626c653a206e6f7420706175736564000000000000000000000000600082015250565b7f73616c65206861736e2774207374617274656400000000000000000000000000600082015250565b7f4552433732313a2063616c6c6572206973206e6f7420746f6b656e206f776e6560008201527f72206f7220617070726f76656400000000000000000000000000000000000000602082015250565b7f455243373231456e756d657261626c653a206f776e657220696e646578206f7560008201527f74206f6620626f756e6473000000000000000000000000000000000000000000602082015250565b7f4552433732313a207472616e7366657220746f206e6f6e20455243373231526560008201527f63656976657220696d706c656d656e7465720000000000000000000000000000602082015250565b7f4f776e61626c653a206e6577206f776e657220697320746865207a65726f206160008201527f6464726573730000000000000000000000000000000000000000000000000000602082015250565b7f4552433732313a207472616e736665722066726f6d20696e636f72726563742060008201527f6f776e6572000000000000000000000000000000000000000000000000000000602082015250565b7f4552433732313a20746f6b656e20616c7265616479206d696e74656400000000600082015250565b7f4552433732315072657365744d696e7465725061757365724175746f49643a2060008201527f6d75737420686176652070617573657220726f6c6520746f2070617573650000602082015250565b7f4552433732313a207472616e7366657220746f20746865207a65726f2061646460008201527f7265737300000000000000000000000000000000000000000000000000000000602082015250565b7f4552433732313a20617070726f766520746f2063616c6c657200000000000000600082015250565b7f796f7520646f6e2774206f776e6564207468697320746f6b656e000000000000600082015250565b7f736f6c64206f7574000000000000000000000000000000000000000000000000600082015250565b7f5061757361626c653a2070617573656400000000000000000000000000000000600082015250565b7f7072696365546f4d696e742068617320746f20626520706f7369746976650000600082015250565b7f4552433732313a2061646472657373207a65726f206973206e6f74206120766160008201527f6c6964206f776e65720000000000000000000000000000000000000000000000602082015250565b7f6f6e6c79206f776e65722063616e2073657420707269636520746f206d697400600082015250565b7f4552433732313a206d696e7420746f20746865207a65726f2061646472657373600082015250565b7f746f6b656e20646f6573206e6f74206578697374730000000000000000000000600082015250565b7f4f776e61626c653a2063616c6c6572206973206e6f7420746865206f776e6572600082015250565b7f4552433732313a20696e76616c696420746f6b656e2049440000000000000000600082015250565b7f4552433732313a20617070726f76616c20746f2063757272656e74206f776e6560008201527f7200000000000000000000000000000000000000000000000000000000000000602082015250565b7f5472616e73616374696f6e206661696c65640000000000000000000000000000600082015250565b50565b7f4552433732313a20617070726f76652063616c6c6572206973206e6f7420746f60008201527f6b656e206f776e6572206f7220617070726f76656420666f7220616c6c000000602082015250565b7f455243373231456e756d657261626c653a20676c6f62616c20696e646578206f60008201527f7574206f6620626f756e64730000000000000000000000000000000000000000602082015250565b7f416363657373436f6e74726f6c3a206163636f756e7420000000000000000000600082015250565b7f455243373231456e756d657261626c653a20636f6e736563757469766520747260008201527f616e7366657273206e6f7420737570706f727465640000000000000000000000602082015250565b7f70617920746f206d696e74000000000000000000000000000000000000000000600082015250565b7f4552433732315072657365744d696e7465725061757365724175746f49643a2060008201527f6d7573742068617665206d696e74657220726f6c6520746f206d696e74000000602082015250565b7f5265656e7472616e637920446574656374656400000000000000000000000000600082015250565b7f4552433732315072657365744d696e7465725061757365724175746f49643a2060008201527f6d75737420686176652070617573657220726f6c6520746f20756e7061757365602082015250565b7f206973206d697373696e6720726f6c6520000000000000000000000000000000600082015250565b7f416363657373436f6e74726f6c3a2063616e206f6e6c792072656e6f756e636560008201527f20726f6c657320666f722073656c660000000000000000000000000000000000602082015250565b615d15816152f4565b8114615d2057600080fd5b50565b615d2c81615306565b8114615d3757600080fd5b50565b615d4381615312565b8114615d4e57600080fd5b50565b615d5a8161531c565b8114615d6557600080fd5b50565b615d7181615368565b8114615d7c57600080fd5b5056fea2646970667358221220606d969d63fe7e3795f435df4ea55452d86d5646082bff62e9328d3b953c387364736f6c6343000804003368747470733a2f2f6e66742e616c6563747269636f2e776f726b6572732e6465762f",
  "linkReferences": {},
  "deployedLinkReferences": {}
}