{
  "_format": "hh-sol-artifact-1",
  "contractName": "SendEther",
  "sourceName": "contracts/SendEther.sol",
  "abi": [
    {
      "inputs": [
        {
          "internalType": "address payable",
          "name": "_to",
          "type": "address"
        },
        {
          "internalType": "uint256",
          "name": "_priceToPay",
          "type": "uint256"
        }
      ],
      "name": "sendEther",
      "outputs": [
        {
          "internalType": "bool",
          "name": "",
          "type": "bool"
        }
      ],
      "stateMutability": "payable",
      "type": "function"
    },
    {
      "inputs": [
        {
          "internalType": "address payable",
          "name": "_to",
          "type": "address"
        },
        {
          "internalType": "uint256",
          "name": "_amount",
          "type": "uint256"
        }
      ],
      "name": "withdrawEther",
      "outputs": [
        {
          "internalType": "bool",
          "name": "",
          "type": "bool"
        }
      ],
      "stateMutability": "payable",
      "type": "function"
    }
  ],
  "bytecode": "0x60806040526000805460ff1916905534801561001a57600080fd5b506103d98061002a6000396000f3fe6080604052600436106100295760003560e01c8063522f68151461002e578063c1756a2c14610055575b600080fd5b61004161003c36600461035e565b610068565b604051901515815260200160405180910390f35b61004161006336600461035e565b6101ee565b6000805460ff16156100c15760405162461bcd60e51b815260206004820152601360248201527f5265656e7472616e63792044657465637465640000000000000000000000000060448201526064015b60405180910390fd5b6000805460ff1916600117905534821461012d5760405162461bcd60e51b815260206004820152602760248201527f456c206d6f6e746f2064656c207061676f206e6f20657320696775616c20616c6044820152662070726563696f60c81b60648201526084016100b8565b60008373ffffffffffffffffffffffffffffffffffffffff168360405160006040518083038185875af1925050503d8060008114610187576040519150601f19603f3d011682016040523d82523d6000602084013e61018c565b606091505b50509050806101dd5760405162461bcd60e51b815260206004820152601260248201527f5472616e73616374696f6e204661696c6564000000000000000000000000000060448201526064016100b8565b6000805460ff191690559392505050565b6000805460ff16156102425760405162461bcd60e51b815260206004820152601360248201527f5265656e7472616e63792044657465637465640000000000000000000000000060448201526064016100b8565b6000805460ff191660011790553482146102ae5760405162461bcd60e51b815260206004820152602760248201527f456c206d6f6e746f2064656c207061676f206e6f20657320696775616c20616c6044820152662070726563696f60c81b60648201526084016100b8565b60008373ffffffffffffffffffffffffffffffffffffffff168360405160006040518083038185875af1925050503d8060008114610308576040519150601f19603f3d011682016040523d82523d6000602084013e61030d565b606091505b50509050806101dd5760405162461bcd60e51b815260206004820152600e60248201527f5061796d656e74204661696c656400000000000000000000000000000000000060448201526064016100b8565b6000806040838503121561037157600080fd5b823573ffffffffffffffffffffffffffffffffffffffff8116811461039557600080fd5b94602093909301359350505056fea26469706673582212204b75066b70f8fcf5616ab218c2f2c76d20c54a815d60f04ad93d4ad2d0fa639e64736f6c63430008090033",
  "linkReferences": {},
  "deployedLinkReferences": {}
}