{
  "_format": "hh-sol-artifact-1",
  "contractName": "SendEther",
  "sourceName": "contracts/SendEther.sol",
  "abi": [
    {
      "inputs": [
        {
          "internalType": "address payable",
          "name": "_to",
          "type": "address"
        },
        {
          "internalType": "uint256",
          "name": "_priceToPay",
          "type": "uint256"
        }
      ],
      "name": "sendEther",
      "outputs": [
        {
          "internalType": "bool",
          "name": "",
          "type": "bool"
        }
      ],
      "stateMutability": "payable",
      "type": "function"
    },
    {
      "inputs": [
        {
          "internalType": "address payable",
          "name": "_to",
          "type": "address"
        },
        {
          "internalType": "uint256",
          "name": "_amount",
          "type": "uint256"
        }
      ],
      "name": "withdrawEther",
      "outputs": [
        {
          "internalType": "bool",
          "name": "",
          "type": "bool"
        }
      ],
      "stateMutability": "payable",
      "type": "function"
    }
  ],
  "bytecode": "0x608060405260008060006101000a81548160ff02191690831515021790555034801561002a57600080fd5b506106f18061003a6000396000f3fe6080604052600436106100295760003560e01c8063522f68151461002e578063c1756a2c1461005e575b600080fd5b610048600480360381019061004391906103b2565b61008e565b60405161005591906104c1565b60405180910390f35b610078600480360381019061007391906103b2565b61020b565b60405161008591906104c1565b60405180910390f35b60008060009054906101000a900460ff16156100df576040517f08c379a00000000000000000000000000000000000000000000000000000000081526004016100d69061051c565b60405180910390fd5b60016000806101000a81548160ff02191690831515021790555081341461013b576040517f08c379a0000000000000000000000000000000000000000000000000000000008152600401610132906104fc565b60405180910390fd5b60008373ffffffffffffffffffffffffffffffffffffffff1683604051610161906104ac565b60006040518083038185875af1925050503d806000811461019e576040519150601f19603f3d011682016040523d82523d6000602084013e6101a3565b606091505b50509050806101e7576040517f08c379a00000000000000000000000000000000000000000000000000000000081526004016101de9061053c565b60405180910390fd5b60008060006101000a81548160ff0219169083151502179055508091505092915050565b60008060009054906101000a900460ff161561025c576040517f08c379a00000000000000000000000000000000000000000000000000000000081526004016102539061051c565b60405180910390fd5b60016000806101000a81548160ff0219169083151502179055508134146102b8576040517f08c379a00000000000000000000000000000000000000000000000000000000081526004016102af906104fc565b60405180910390fd5b60008373ffffffffffffffffffffffffffffffffffffffff16836040516102de906104ac565b60006040518083038185875af1925050503d806000811461031b576040519150601f19603f3d011682016040523d82523d6000602084013e610320565b606091505b5050905080610364576040517f08c379a000000000000000000000000000000000000000000000000000000000815260040161035b906104dc565b60405180910390fd5b60008060006101000a81548160ff0219169083151502179055508091505092915050565b6000813590506103978161068d565b92915050565b6000813590506103ac816106a4565b92915050565b600080604083850312156103c557600080fd5b60006103d385828601610388565b92505060206103e48582860161039d565b9150509250929050565b6103f78161058a565b82525050565b600061040a600e83610567565b9150610415826105c0565b602082019050919050565b600061042d602783610567565b9150610438826105e9565b604082019050919050565b600061045060008361055c565b915061045b82610638565b600082019050919050565b6000610473601383610567565b915061047e8261063b565b602082019050919050565b6000610496601283610567565b91506104a182610664565b602082019050919050565b60006104b782610443565b9150819050919050565b60006020820190506104d660008301846103ee565b92915050565b600060208201905081810360008301526104f5816103fd565b9050919050565b6000602082019050818103600083015261051581610420565b9050919050565b6000602082019050818103600083015261053581610466565b9050919050565b6000602082019050818103600083015261055581610489565b9050919050565b600081905092915050565b600082825260208201905092915050565b600061058382610596565b9050919050565b60008115159050919050565b600073ffffffffffffffffffffffffffffffffffffffff82169050919050565b6000819050919050565b7f5061796d656e74204661696c6564000000000000000000000000000000000000600082015250565b7f456c206d6f6e746f2064656c207061676f206e6f20657320696775616c20616c60008201527f2070726563696f00000000000000000000000000000000000000000000000000602082015250565b50565b7f5265656e7472616e637920446574656374656400000000000000000000000000600082015250565b7f5472616e73616374696f6e204661696c65640000000000000000000000000000600082015250565b61069681610578565b81146106a157600080fd5b50565b6106ad816105b6565b81146106b857600080fd5b5056fea2646970667358221220f5c03f6cab54b1984bed084b8d7bfe5aedd3cd86bacaaca7b1f55e03deefdc3b64736f6c63430008040033",
  "linkReferences": {},
  "deployedLinkReferences": {}
}