{
  "_format": "hh-sol-artifact-1",
  "contractName": "BatteryFactory",
  "sourceName": "contracts/BatteryFactory.sol",
  "abi": [
    {
      "anonymous": false,
      "inputs": [
        {
          "indexed": false,
          "internalType": "address",
          "name": "sender",
          "type": "address"
        }
      ],
      "name": "LogDepositReceived",
      "type": "event"
    },
    {
      "anonymous": false,
      "inputs": [
        {
          "indexed": false,
          "internalType": "uint256",
          "name": "batId",
          "type": "uint256"
        },
        {
          "indexed": false,
          "internalType": "string",
          "name": "name",
          "type": "string"
        },
        {
          "indexed": false,
          "internalType": "uint256",
          "name": "dna",
          "type": "uint256"
        }
      ],
      "name": "NewBat",
      "type": "event"
    },
    {
      "stateMutability": "payable",
      "type": "fallback"
    },
    {
      "inputs": [],
      "name": "alectrico",
      "outputs": [
        {
          "internalType": "address",
          "name": "",
          "type": "address"
        }
      ],
      "stateMutability": "view",
      "type": "function"
    },
    {
      "inputs": [
        {
          "internalType": "uint256",
          "name": "",
          "type": "uint256"
        }
      ],
      "name": "batToOwner",
      "outputs": [
        {
          "internalType": "address",
          "name": "",
          "type": "address"
        }
      ],
      "stateMutability": "view",
      "type": "function"
    },
    {
      "inputs": [
        {
          "internalType": "uint256",
          "name": "",
          "type": "uint256"
        }
      ],
      "name": "bats",
      "outputs": [
        {
          "internalType": "string",
          "name": "name",
          "type": "string"
        },
        {
          "internalType": "uint256",
          "name": "dna",
          "type": "uint256"
        }
      ],
      "stateMutability": "view",
      "type": "function"
    },
    {
      "inputs": [
        {
          "internalType": "string",
          "name": "_name",
          "type": "string"
        }
      ],
      "name": "crearRandomBat",
      "outputs": [],
      "stateMutability": "payable",
      "type": "function"
    },
    {
      "inputs": [],
      "name": "cuantasBateriasHay",
      "outputs": [
        {
          "internalType": "uint256",
          "name": "",
          "type": "uint256"
        }
      ],
      "stateMutability": "view",
      "type": "function"
    },
    {
      "inputs": [],
      "name": "priceToMint",
      "outputs": [
        {
          "internalType": "uint256",
          "name": "",
          "type": "uint256"
        }
      ],
      "stateMutability": "view",
      "type": "function"
    }
  ],
  "bytecode": "0x6080604052601060008190556200001890600a62000175565b6001556618de76816d8000600255600380546001600160a01b03191673f9f84a5b6889273890ef18c2694eed446320aec61790553480156200005957600080fd5b506200018a565b634e487b7160e01b600052601160045260246000fd5b600181815b80851115620000b75781600019048211156200009b576200009b62000060565b80851615620000a957918102915b93841c93908002906200007b565b509250929050565b600082620000d0575060016200016f565b81620000df575060006200016f565b8160018114620000f85760028114620001035762000123565b60019150506200016f565b60ff84111562000117576200011762000060565b50506001821b6200016f565b5060208310610133831016604e8410600b841016171562000148575081810a6200016f565b62000154838362000076565b80600019048211156200016b576200016b62000060565b0290505b92915050565b6000620001838383620000bf565b9392505050565b6108f0806200019a6000396000f3fe6080604052600436106100655760003560e01c80634dc1dbec116100435780634dc1dbec1461018c5780638ca94b9a146101a2578063cc8fc3f8146101cf57610065565b80631624f525146100e75780631a14ab041461010f5780634545249b14610124575b361580610073575060025434145b6100b25760405162461bcd60e51b815260206004820152600b60248201526a1c185e481d1bc81b5a5b9d60aa1b60448201526064015b60405180910390fd5b6040513381527f15382559391789f1865e10e9c8b51327a9cb0381eae89973ada229e7a78c08f39060200160405180910390a1005b3480156100f357600080fd5b506100fc6101fd565b6040519081526020015b60405180910390f35b61012261011d366004610675565b610251565b005b34801561013057600080fd5b5061016761013f366004610726565b60056020526000908152604090205473ffffffffffffffffffffffffffffffffffffffff1681565b60405173ffffffffffffffffffffffffffffffffffffffff9091168152602001610106565b34801561019857600080fd5b506100fc60025481565b3480156101ae57600080fd5b506003546101679073ffffffffffffffffffffffffffffffffffffffff1681565b3480156101db57600080fd5b506101ef6101ea366004610726565b61031a565b60405161010692919061079b565b600061023d6040518060400160405280601581526020017f456e206375616e746173426174657269617348617900000000000000000000008152506103d6565b503360009081526006602052604090205490565b600060025434146102925760405162461bcd60e51b815260206004820152600b60248201526a1c185e481d1bc81b5a5b9d60aa1b60448201526064016100a9565b60035460405173ffffffffffffffffffffffffffffffffffffffff90911690661661d10e15c00090600081818185875af1925050503d80600081146102f3576040519150601f19603f3d011682016040523d82523d6000602084013e6102f8565b606091505b50508091505060006103098361044a565b9050610315838261048e565b505050565b6004818154811061032a57600080fd5b906000526020600020906002020160009150905080600001805461034d906107bd565b80601f0160208091040260200160405190810160405280929190818152602001828054610379906107bd565b80156103c65780601f1061039b576101008083540402835291602001916103c6565b820191906000526020600020905b8154815290600101906020018083116103a957829003601f168201915b5050505050908060010154905082565b610447816040516024016103ea91906107f8565b60408051601f198184030181529190526020810180517bffffffffffffffffffffffffffffffffffffffffffffffffffffffff167f41304fac000000000000000000000000000000000000000000000000000000001790526105a5565b50565b6000808260405160200161045e919061080b565b6040516020818303038152906040528051906020012060001c9050600154816104879190610827565b9392505050565b6040805180820190915282815260208082018390526004805460018101825560009190915282518051849360029093027f8a35acfbc15ff81a39ae7d344fd709f28e8600b4aa8c65c6b64bfe7fe36bd19b01926104ef9284929101906105c6565b506020919091015160019182015560045460009161050c9161085f565b90507f3db8c0fa424d10e773a16ad027819a01285866a5de0980dec3c42eacbf93b3df81858560405161054193929190610876565b60405180910390a1600081815260056020908152604080832080547fffffffffffffffffffffffff0000000000000000000000000000000000000000163390811790915583526006909152812080549161059a8361089f565b919050555050505050565b80516a636f6e736f6c652e6c6f67602083016000808483855afa5050505050565b8280546105d2906107bd565b90600052602060002090601f0160209004810192826105f4576000855561063a565b82601f1061060d57805160ff191683800117855561063a565b8280016001018555821561063a579182015b8281111561063a57825182559160200191906001019061061f565b5061064692915061064a565b5090565b5b80821115610646576000815560010161064b565b634e487b7160e01b600052604160045260246000fd5b60006020828403121561068757600080fd5b813567ffffffffffffffff8082111561069f57600080fd5b818401915084601f8301126106b357600080fd5b8135818111156106c5576106c561065f565b604051601f8201601f19908116603f011681019083821181831017156106ed576106ed61065f565b8160405282815287602084870101111561070657600080fd5b826020860160208301376000928101602001929092525095945050505050565b60006020828403121561073857600080fd5b5035919050565b60005b8381101561075a578181015183820152602001610742565b83811115610769576000848401525b50505050565b6000815180845261078781602086016020860161073f565b601f01601f19169290920160200192915050565b6040815260006107ae604083018561076f565b90508260208301529392505050565b600181811c908216806107d157607f821691505b602082108114156107f257634e487b7160e01b600052602260045260246000fd5b50919050565b602081526000610487602083018461076f565b6000825161081d81846020870161073f565b9190910192915050565b60008261084457634e487b7160e01b600052601260045260246000fd5b500690565b634e487b7160e01b600052601160045260246000fd5b60008282101561087157610871610849565b500390565b83815260606020820152600061088f606083018561076f565b9050826040830152949350505050565b60006000198214156108b3576108b3610849565b506001019056fea26469706673582212209eef387de29e13b1e27094b87883638290902ba15817071a452a5224588ddef364736f6c63430008090033",
  "linkReferences": {},
  "deployedLinkReferences": {}
}