{
  "_format": "hh-sol-artifact-1",
  "contractName": "BatteryFactory",
  "sourceName": "contracts/BatteryFactory.sol",
  "abi": [
    {
      "anonymous": false,
      "inputs": [
        {
          "indexed": false,
          "internalType": "uint256",
          "name": "batId",
          "type": "uint256"
        },
        {
          "indexed": false,
          "internalType": "string",
          "name": "name",
          "type": "string"
        },
        {
          "indexed": false,
          "internalType": "uint256",
          "name": "dna",
          "type": "uint256"
        }
      ],
      "name": "NewBat",
      "type": "event"
    },
    {
      "inputs": [],
      "name": "alectrico",
      "outputs": [
        {
          "internalType": "address",
          "name": "",
          "type": "address"
        }
      ],
      "stateMutability": "view",
      "type": "function"
    },
    {
      "inputs": [
        {
          "internalType": "uint256",
          "name": "",
          "type": "uint256"
        }
      ],
      "name": "batToOwner",
      "outputs": [
        {
          "internalType": "address",
          "name": "",
          "type": "address"
        }
      ],
      "stateMutability": "view",
      "type": "function"
    },
    {
      "inputs": [
        {
          "internalType": "uint256",
          "name": "",
          "type": "uint256"
        }
      ],
      "name": "bats",
      "outputs": [
        {
          "internalType": "string",
          "name": "name",
          "type": "string"
        },
        {
          "internalType": "uint256",
          "name": "dna",
          "type": "uint256"
        }
      ],
      "stateMutability": "view",
      "type": "function"
    },
    {
      "inputs": [
        {
          "internalType": "string",
          "name": "_name",
          "type": "string"
        }
      ],
      "name": "crearRandomBat",
      "outputs": [],
      "stateMutability": "payable",
      "type": "function"
    },
    {
      "inputs": [],
      "name": "cuantasBateriasHay",
      "outputs": [
        {
          "internalType": "uint256",
          "name": "",
          "type": "uint256"
        }
      ],
      "stateMutability": "view",
      "type": "function"
    },
    {
      "inputs": [],
      "name": "priceToMint",
      "outputs": [
        {
          "internalType": "uint256",
          "name": "",
          "type": "uint256"
        }
      ],
      "stateMutability": "view",
      "type": "function"
    }
  ],
  "bytecode": "0x60806040526010600081905561001690600a610158565b6001556618de76816d8000600255600380546001600160a01b03191673f9f84a5b6889273890ef18c2694eed446320aec617905534801561005657600080fd5b5061016b565b634e487b7160e01b600052601160045260246000fd5b600181815b808511156100ad5781600019048211156100935761009361005c565b808516156100a057918102915b93841c9390800290610077565b509250929050565b6000826100c457506001610152565b816100d157506000610152565b81600181146100e757600281146100f15761010d565b6001915050610152565b60ff8411156101025761010261005c565b50506001821b610152565b5060208310610133831016604e8410600b8410161715610130575081810a610152565b61013a8383610072565b806000190482111561014e5761014e61005c565b0290505b92915050565b600061016483836100b5565b9392505050565b6107ac8061017a6000396000f3fe6080604052600436106100655760003560e01c80634dc1dbec116100435780634dc1dbec146101185780638ca94b9a1461012e578063cc8fc3f81461015b57600080fd5b80631624f5251461006a5780631a14ab041461009b5780634545249b146100b0575b600080fd5b34801561007657600080fd5b50336000908152600660205260409020545b6040519081526020015b60405180910390f35b6100ae6100a9366004610544565b610189565b005b3480156100bc57600080fd5b506100f36100cb3660046105f5565b60056020526000908152604090205473ffffffffffffffffffffffffffffffffffffffff1681565b60405173ffffffffffffffffffffffffffffffffffffffff9091168152602001610092565b34801561012457600080fd5b5061008860025481565b34801561013a57600080fd5b506003546100f39073ffffffffffffffffffffffffffffffffffffffff1681565b34801561016757600080fd5b5061017b6101763660046105f5565b61027e565b60405161009292919061066a565b6002543414801561019a5750600034115b6101de576040517f08c379a0000000000000000000000000000000000000000000000000000000008152602060048201526000602482015260440160405180910390fd5b33600090815260066020526040902054156101f857600080fd5b60035460405160009173ffffffffffffffffffffffffffffffffffffffff1690661661d10e15c000908381818185875af1925050503d8060008114610259576040519150601f19603f3d011682016040523d82523d6000602084013e61025e565b606091505b50509050600061026d8361033a565b9050610279838261037e565b505050565b6004818154811061028e57600080fd5b90600052602060002090600202016000915090508060000180546102b19061068c565b80601f01602080910402602001604051908101604052809291908181526020018280546102dd9061068c565b801561032a5780601f106102ff5761010080835404028352916020019161032a565b820191906000526020600020905b81548152906001019060200180831161030d57829003601f168201915b5050505050908060010154905082565b6000808260405160200161034e91906106c7565b6040516020818303038152906040528051906020012060001c90506001548161037791906106e3565b9392505050565b6040805180820190915282815260208082018390526004805460018101825560009190915282518051849360029093027f8a35acfbc15ff81a39ae7d344fd709f28e8600b4aa8c65c6b64bfe7fe36bd19b01926103df928492910190610495565b50602091909101516001918201556004546000916103fc9161071b565b90507f3db8c0fa424d10e773a16ad027819a01285866a5de0980dec3c42eacbf93b3df81858560405161043193929190610732565b60405180910390a1600081815260056020908152604080832080547fffffffffffffffffffffffff0000000000000000000000000000000000000000163390811790915583526006909152812080549161048a8361075b565b919050555050505050565b8280546104a19061068c565b90600052602060002090601f0160209004810192826104c35760008555610509565b82601f106104dc57805160ff1916838001178555610509565b82800160010185558215610509579182015b828111156105095782518255916020019190600101906104ee565b50610515929150610519565b5090565b5b80821115610515576000815560010161051a565b634e487b7160e01b600052604160045260246000fd5b60006020828403121561055657600080fd5b813567ffffffffffffffff8082111561056e57600080fd5b818401915084601f83011261058257600080fd5b8135818111156105945761059461052e565b604051601f8201601f19908116603f011681019083821181831017156105bc576105bc61052e565b816040528281528760208487010111156105d557600080fd5b826020860160208301376000928101602001929092525095945050505050565b60006020828403121561060757600080fd5b5035919050565b60005b83811015610629578181015183820152602001610611565b83811115610638576000848401525b50505050565b6000815180845261065681602086016020860161060e565b601f01601f19169290920160200192915050565b60408152600061067d604083018561063e565b90508260208301529392505050565b600181811c908216806106a057607f821691505b602082108114156106c157634e487b7160e01b600052602260045260246000fd5b50919050565b600082516106d981846020870161060e565b9190910192915050565b60008261070057634e487b7160e01b600052601260045260246000fd5b500690565b634e487b7160e01b600052601160045260246000fd5b60008282101561072d5761072d610705565b500390565b83815260606020820152600061074b606083018561063e565b9050826040830152949350505050565b600060001982141561076f5761076f610705565b506001019056fea2646970667358221220f15aaf7e492d20b429e04429a6df380977670becdcd5a9083b473c99c113147f64736f6c63430008090033",
  "linkReferences": {},
  "deployedLinkReferences": {}
}