{
  "_format": "hh-sol-artifact-1",
  "contractName": "BatteryFactory",
  "sourceName": "contracts/BatteryFactory.sol",
  "abi": [
    {
      "anonymous": false,
      "inputs": [
        {
          "indexed": false,
          "internalType": "uint256",
          "name": "batId",
          "type": "uint256"
        },
        {
          "indexed": false,
          "internalType": "string",
          "name": "name",
          "type": "string"
        },
        {
          "indexed": false,
          "internalType": "uint256",
          "name": "dna",
          "type": "uint256"
        }
      ],
      "name": "NewBat",
      "type": "event"
    },
    {
      "inputs": [
        {
          "internalType": "uint256",
          "name": "",
          "type": "uint256"
        }
      ],
      "name": "batToOwner",
      "outputs": [
        {
          "internalType": "address",
          "name": "",
          "type": "address"
        }
      ],
      "stateMutability": "view",
      "type": "function"
    },
    {
      "inputs": [
        {
          "internalType": "uint256",
          "name": "",
          "type": "uint256"
        }
      ],
      "name": "bats",
      "outputs": [
        {
          "internalType": "string",
          "name": "name",
          "type": "string"
        },
        {
          "internalType": "uint256",
          "name": "dna",
          "type": "uint256"
        }
      ],
      "stateMutability": "view",
      "type": "function"
    },
    {
      "inputs": [
        {
          "internalType": "string",
          "name": "_name",
          "type": "string"
        }
      ],
      "name": "crearRandomBat",
      "outputs": [],
      "stateMutability": "nonpayable",
      "type": "function"
    },
    {
      "inputs": [],
      "name": "cuantasBateriasHay",
      "outputs": [
        {
          "internalType": "uint256",
          "name": "",
          "type": "uint256"
        }
      ],
      "stateMutability": "view",
      "type": "function"
    }
  ],
  "bytecode": "0x60806040526010600055600054600a6200001a91906200008c565b6001553480156200002a57600080fd5b506200020f565b6000808291508390505b600185111562000083578086048111156200005b576200005a620001d3565b5b60018516156200006b5780820291505b80810290506200007b8562000202565b94506200003b565b94509492505050565b60006200009982620001c9565b9150620000a683620001c9565b9250620000d57fffffffffffffffffffffffffffffffffffffffffffffffffffffffffffffffff8484620000dd565b905092915050565b600082620000ef5760019050620001c2565b81620000ff5760009050620001c2565b8160018114620001185760028114620001235762000159565b6001915050620001c2565b60ff841115620001385762000137620001d3565b5b8360020a915084821115620001525762000151620001d3565b5b50620001c2565b5060208310610133831016604e8410600b8410161715620001935782820a9050838111156200018d576200018c620001d3565b5b620001c2565b620001a2848484600162000031565b92509050818404811115620001bc57620001bb620001d3565b5b81810290505b9392505050565b6000819050919050565b7f4e487b7100000000000000000000000000000000000000000000000000000000600052601160045260246000fd5b60008160011c9050919050565b610a2d806200021f6000396000f3fe608060405234801561001057600080fd5b506004361061004c5760003560e01c80631624f525146100515780631a14ab041461006f5780634545249b1461008b578063cc8fc3f8146100bb575b600080fd5b6100596100ec565b60405161006691906106ae565b60405180910390f35b6100896004803603810190610084919061055a565b610133565b005b6100a560048036038101906100a0919061059b565b61019a565b6040516100b29190610663565b60405180910390f35b6100d560048036038101906100d0919061059b565b6101cd565b6040516100e392919061067e565b60405180910390f35b6000600460003373ffffffffffffffffffffffffffffffffffffffff1673ffffffffffffffffffffffffffffffffffffffff16815260200190815260200160002054905090565b6000600460003373ffffffffffffffffffffffffffffffffffffffff1673ffffffffffffffffffffffffffffffffffffffff168152602001908152602001600020541461017f57600080fd5b600061018a82610289565b905061019682826102ce565b5050565b60036020528060005260406000206000915054906101000a900473ffffffffffffffffffffffffffffffffffffffff1681565b600281815481106101dd57600080fd5b906000526020600020906002020160009150905080600001805461020090610836565b80601f016020809104026020016040519081016040528092919081815260200182805461022c90610836565b80156102795780601f1061024e57610100808354040283529160200191610279565b820191906000526020600020905b81548152906001019060200180831161025c57829003601f168201915b5050505050908060010154905082565b6000808260405160200161029d919061064c565b6040516020818303038152906040528051906020012060001c9050600154816102c691906108e2565b915050919050565b600060405180604001604052808481526020018381525090506002819080600181540180825580915050600190039060005260206000209060020201600090919091909150600082015181600001908051906020019061032f92919061043a565b50602082015181600101555050600060016002805490506103509190610784565b90507f3db8c0fa424d10e773a16ad027819a01285866a5de0980dec3c42eacbf93b3df818585604051610385939291906106c9565b60405180910390a1336003600083815260200190815260200160002060006101000a81548173ffffffffffffffffffffffffffffffffffffffff021916908373ffffffffffffffffffffffffffffffffffffffff160217905550600460003373ffffffffffffffffffffffffffffffffffffffff1673ffffffffffffffffffffffffffffffffffffffff168152602001908152602001600020600081548092919061042f90610899565b919050555050505050565b82805461044690610836565b90600052602060002090601f01602090048101928261046857600085556104af565b82601f1061048157805160ff19168380011785556104af565b828001600101855582156104af579182015b828111156104ae578251825591602001919060010190610493565b5b5090506104bc91906104c0565b5090565b5b808211156104d95760008160009055506001016104c1565b5090565b60006104f06104eb8461072c565b610707565b90508281526020810184848401111561050857600080fd5b6105138482856107f4565b509392505050565b600082601f83011261052c57600080fd5b813561053c8482602086016104dd565b91505092915050565b600081359050610554816109e0565b92915050565b60006020828403121561056c57600080fd5b600082013567ffffffffffffffff81111561058657600080fd5b6105928482850161051b565b91505092915050565b6000602082840312156105ad57600080fd5b60006105bb84828501610545565b91505092915050565b6105cd816107b8565b82525050565b60006105de8261075d565b6105e88185610768565b93506105f8818560208601610803565b610601816109cf565b840191505092915050565b60006106178261075d565b6106218185610779565b9350610631818560208601610803565b80840191505092915050565b610646816107ea565b82525050565b6000610658828461060c565b915081905092915050565b600060208201905061067860008301846105c4565b92915050565b6000604082019050818103600083015261069881856105d3565b90506106a7602083018461063d565b9392505050565b60006020820190506106c3600083018461063d565b92915050565b60006060820190506106de600083018661063d565b81810360208301526106f081856105d3565b90506106ff604083018461063d565b949350505050565b6000610711610722565b905061071d8282610868565b919050565b6000604051905090565b600067ffffffffffffffff821115610747576107466109a0565b5b610750826109cf565b9050602081019050919050565b600081519050919050565b600082825260208201905092915050565b600081905092915050565b600061078f826107ea565b915061079a836107ea565b9250828210156107ad576107ac610913565b5b828203905092915050565b60006107c3826107ca565b9050919050565b600073ffffffffffffffffffffffffffffffffffffffff82169050919050565b6000819050919050565b82818337600083830152505050565b60005b83811015610821578082015181840152602081019050610806565b83811115610830576000848401525b50505050565b6000600282049050600182168061084e57607f821691505b6020821081141561086257610861610971565b5b50919050565b610871826109cf565b810181811067ffffffffffffffff821117156108905761088f6109a0565b5b80604052505050565b60006108a4826107ea565b91507fffffffffffffffffffffffffffffffffffffffffffffffffffffffffffffffff8214156108d7576108d6610913565b5b600182019050919050565b60006108ed826107ea565b91506108f8836107ea565b92508261090857610907610942565b5b828206905092915050565b7f4e487b7100000000000000000000000000000000000000000000000000000000600052601160045260246000fd5b7f4e487b7100000000000000000000000000000000000000000000000000000000600052601260045260246000fd5b7f4e487b7100000000000000000000000000000000000000000000000000000000600052602260045260246000fd5b7f4e487b7100000000000000000000000000000000000000000000000000000000600052604160045260246000fd5b6000601f19601f8301169050919050565b6109e9816107ea565b81146109f457600080fd5b5056fea2646970667358221220ed469a01f98f31130bfd87d11aa0a8fa95a94fd11d2f9a4d67255783414dd56564736f6c63430008040033",
  "linkReferences": {},
  "deployedLinkReferences": {}
}