{
  "_format": "hh-sol-artifact-1",
  "contractName": "BatteryFactory",
  "sourceName": "contracts/BatteryFactory.sol",
  "abi": [
    {
      "anonymous": false,
      "inputs": [
        {
          "indexed": false,
          "internalType": "uint256",
          "name": "batId",
          "type": "uint256"
        },
        {
          "indexed": false,
          "internalType": "string",
          "name": "name",
          "type": "string"
        },
        {
          "indexed": false,
          "internalType": "uint256",
          "name": "dna",
          "type": "uint256"
        }
      ],
      "name": "NewBat",
      "type": "event"
    },
    {
      "inputs": [],
      "name": "alectrico",
      "outputs": [
        {
          "internalType": "address",
          "name": "",
          "type": "address"
        }
      ],
      "stateMutability": "view",
      "type": "function"
    },
    {
      "inputs": [
        {
          "internalType": "uint256",
          "name": "",
          "type": "uint256"
        }
      ],
      "name": "batToBurned",
      "outputs": [
        {
          "internalType": "bool",
          "name": "",
          "type": "bool"
        }
      ],
      "stateMutability": "view",
      "type": "function"
    },
    {
      "inputs": [
        {
          "internalType": "uint256",
          "name": "",
          "type": "uint256"
        }
      ],
      "name": "batToOwner",
      "outputs": [
        {
          "internalType": "address",
          "name": "",
          "type": "address"
        }
      ],
      "stateMutability": "view",
      "type": "function"
    },
    {
      "inputs": [
        {
          "internalType": "uint256",
          "name": "",
          "type": "uint256"
        }
      ],
      "name": "bats",
      "outputs": [
        {
          "internalType": "string",
          "name": "name",
          "type": "string"
        },
        {
          "internalType": "uint256",
          "name": "dna",
          "type": "uint256"
        }
      ],
      "stateMutability": "view",
      "type": "function"
    },
    {
      "inputs": [
        {
          "internalType": "uint256",
          "name": "_batId",
          "type": "uint256"
        }
      ],
      "name": "burnBat",
      "outputs": [
        {
          "internalType": "uint256",
          "name": "",
          "type": "uint256"
        }
      ],
      "stateMutability": "nonpayable",
      "type": "function"
    },
    {
      "inputs": [
        {
          "internalType": "string",
          "name": "_name",
          "type": "string"
        }
      ],
      "name": "crearRandomBat",
      "outputs": [],
      "stateMutability": "payable",
      "type": "function"
    },
    {
      "inputs": [],
      "name": "cuantasBateriasHay",
      "outputs": [
        {
          "internalType": "uint256",
          "name": "",
          "type": "uint256"
        }
      ],
      "stateMutability": "view",
      "type": "function"
    },
    {
      "inputs": [],
      "name": "priceToMint",
      "outputs": [
        {
          "internalType": "uint256",
          "name": "",
          "type": "uint256"
        }
      ],
      "stateMutability": "view",
      "type": "function"
    }
  ],
  "bytecode": "0x60806040526010600055600054600a6200001a9190620000ec565b6001556618de76816d800060025573f9f84a5b6889273890ef18c2694eed446320aec6600360006101000a81548173ffffffffffffffffffffffffffffffffffffffff021916908373ffffffffffffffffffffffffffffffffffffffff1602179055503480156200008a57600080fd5b506200026f565b6000808291508390505b6001851115620000e357808604811115620000bb57620000ba62000233565b5b6001851615620000cb5780820291505b8081029050620000db8562000262565b94506200009b565b94509492505050565b6000620000f98262000229565b9150620001068362000229565b9250620001357fffffffffffffffffffffffffffffffffffffffffffffffffffffffffffffffff84846200013d565b905092915050565b6000826200014f576001905062000222565b816200015f576000905062000222565b81600181146200017857600281146200018357620001b9565b600191505062000222565b60ff84111562000198576200019762000233565b5b8360020a915084821115620001b257620001b162000233565b5b5062000222565b5060208310610133831016604e8410600b8410161715620001f35782820a905083811115620001ed57620001ec62000233565b5b62000222565b62000202848484600162000091565b925090508184048111156200021c576200021b62000233565b5b81810290505b9392505050565b6000819050919050565b7f4e487b7100000000000000000000000000000000000000000000000000000000600052601160045260246000fd5b60008160011c9050919050565b610e73806200027f6000396000f3fe60806040526004361061007b5760003560e01c80634dc1dbec1161004e5780634dc1dbec146101415780638ca94b9a1461016c5780639c09668414610197578063cc8fc3f8146101d45761007b565b80631624f525146100805780631a14ab04146100ab578063328f528a146100c75780634545249b14610104575b600080fd5b34801561008c57600080fd5b50610095610212565b6040516100a29190610ab1565b60405180910390f35b6100c560048036038101906100c09190610875565b610259565b005b3480156100d357600080fd5b506100ee60048036038101906100e991906108b6565b6103a6565b6040516100fb9190610a26565b60405180910390f35b34801561011057600080fd5b5061012b600480360381019061012691906108b6565b6103c6565b6040516101389190610a0b565b60405180910390f35b34801561014d57600080fd5b506101566103f9565b6040516101639190610ab1565b60405180910390f35b34801561017857600080fd5b506101816103ff565b60405161018e9190610a0b565b60405180910390f35b3480156101a357600080fd5b506101be60048036038101906101b991906108b6565b610425565b6040516101cb9190610ab1565b60405180910390f35b3480156101e057600080fd5b506101fb60048036038101906101f691906108b6565b6104e8565b604051610209929190610a41565b60405180910390f35b6000600760003373ffffffffffffffffffffffffffffffffffffffff1673ffffffffffffffffffffffffffffffffffffffff16815260200190815260200160002054905090565b6002543414801561026a5750600034115b6102a9576040517f08c379a00000000000000000000000000000000000000000000000000000000081526004016102a090610a91565b60405180910390fd5b6000600760003373ffffffffffffffffffffffffffffffffffffffff1673ffffffffffffffffffffffffffffffffffffffff16815260200190815260200160002054146102f557600080fd5b6000600360009054906101000a900473ffffffffffffffffffffffffffffffffffffffff1673ffffffffffffffffffffffffffffffffffffffff16661661d10e15c000604051610344906109f6565b60006040518083038185875af1925050503d8060008114610381576040519150601f19603f3d011682016040523d82523d6000602084013e610386565b606091505b505090506000610395836105a4565b90506103a183826105e9565b505050565b60066020528060005260406000206000915054906101000a900460ff1681565b60056020528060005260406000206000915054906101000a900473ffffffffffffffffffffffffffffffffffffffff1681565b60025481565b600360009054906101000a900473ffffffffffffffffffffffffffffffffffffffff1681565b6000600360009054906101000a900473ffffffffffffffffffffffffffffffffffffffff1673ffffffffffffffffffffffffffffffffffffffff163373ffffffffffffffffffffffffffffffffffffffff16146104b7576040517f08c379a00000000000000000000000000000000000000000000000000000000081526004016104ae90610a71565b60405180910390fd5b60016006600084815260200190815260200160002060006101000a81548160ff021916908315150217905550919050565b600481815481106104f857600080fd5b906000526020600020906002020160009150905080600001805461051b90610c50565b80601f016020809104026020016040519081016040528092919081815260200182805461054790610c50565b80156105945780601f1061056957610100808354040283529160200191610594565b820191906000526020600020905b81548152906001019060200180831161057757829003601f168201915b5050505050908060010154905082565b600080826040516020016105b891906109df565b6040516020818303038152906040528051906020012060001c9050600154816105e19190610cfc565b915050919050565b600060405180604001604052808481526020018381525090506004819080600181540180825580915050600190039060005260206000209060020201600090919091909150600082015181600001908051906020019061064a929190610755565b506020820151816001015550506000600160048054905061066b9190610b92565b90507f3db8c0fa424d10e773a16ad027819a01285866a5de0980dec3c42eacbf93b3df8185856040516106a093929190610acc565b60405180910390a1336005600083815260200190815260200160002060006101000a81548173ffffffffffffffffffffffffffffffffffffffff021916908373ffffffffffffffffffffffffffffffffffffffff160217905550600760003373ffffffffffffffffffffffffffffffffffffffff1673ffffffffffffffffffffffffffffffffffffffff168152602001908152602001600020600081548092919061074a90610cb3565b919050555050505050565b82805461076190610c50565b90600052602060002090601f01602090048101928261078357600085556107ca565b82601f1061079c57805160ff19168380011785556107ca565b828001600101855582156107ca579182015b828111156107c95782518255916020019190600101906107ae565b5b5090506107d791906107db565b5090565b5b808211156107f45760008160009055506001016107dc565b5090565b600061080b61080684610b2f565b610b0a565b90508281526020810184848401111561082357600080fd5b61082e848285610c0e565b509392505050565b600082601f83011261084757600080fd5b81356108578482602086016107f8565b91505092915050565b60008135905061086f81610e26565b92915050565b60006020828403121561088757600080fd5b600082013567ffffffffffffffff8111156108a157600080fd5b6108ad84828501610836565b91505092915050565b6000602082840312156108c857600080fd5b60006108d684828501610860565b91505092915050565b6108e881610bc6565b82525050565b6108f781610bd8565b82525050565b600061090882610b60565b6109128185610b76565b9350610922818560208601610c1d565b61092b81610de9565b840191505092915050565b600061094182610b60565b61094b8185610b87565b935061095b818560208601610c1d565b80840191505092915050565b6000610974600083610b6b565b915061097f82610dfa565b600082019050919050565b6000610997600083610b76565b91506109a282610dfa565b600082019050919050565b60006109ba600b83610b76565b91506109c582610dfd565b602082019050919050565b6109d981610c04565b82525050565b60006109eb8284610936565b915081905092915050565b6000610a0182610967565b9150819050919050565b6000602082019050610a2060008301846108df565b92915050565b6000602082019050610a3b60008301846108ee565b92915050565b60006040820190508181036000830152610a5b81856108fd565b9050610a6a60208301846109d0565b9392505050565b60006020820190508181036000830152610a8a8161098a565b9050919050565b60006020820190508181036000830152610aaa816109ad565b9050919050565b6000602082019050610ac660008301846109d0565b92915050565b6000606082019050610ae160008301866109d0565b8181036020830152610af381856108fd565b9050610b0260408301846109d0565b949350505050565b6000610b14610b25565b9050610b208282610c82565b919050565b6000604051905090565b600067ffffffffffffffff821115610b4a57610b49610dba565b5b610b5382610de9565b9050602081019050919050565b600081519050919050565b600081905092915050565b600082825260208201905092915050565b600081905092915050565b6000610b9d82610c04565b9150610ba883610c04565b925082821015610bbb57610bba610d2d565b5b828203905092915050565b6000610bd182610be4565b9050919050565b60008115159050919050565b600073ffffffffffffffffffffffffffffffffffffffff82169050919050565b6000819050919050565b82818337600083830152505050565b60005b83811015610c3b578082015181840152602081019050610c20565b83811115610c4a576000848401525b50505050565b60006002820490506001821680610c6857607f821691505b60208210811415610c7c57610c7b610d8b565b5b50919050565b610c8b82610de9565b810181811067ffffffffffffffff82111715610caa57610ca9610dba565b5b80604052505050565b6000610cbe82610c04565b91507fffffffffffffffffffffffffffffffffffffffffffffffffffffffffffffffff821415610cf157610cf0610d2d565b5b600182019050919050565b6000610d0782610c04565b9150610d1283610c04565b925082610d2257610d21610d5c565b5b828206905092915050565b7f4e487b7100000000000000000000000000000000000000000000000000000000600052601160045260246000fd5b7f4e487b7100000000000000000000000000000000000000000000000000000000600052601260045260246000fd5b7f4e487b7100000000000000000000000000000000000000000000000000000000600052602260045260246000fd5b7f4e487b7100000000000000000000000000000000000000000000000000000000600052604160045260246000fd5b6000601f19601f8301169050919050565b50565b7f70617920746f206d696e74000000000000000000000000000000000000000000600082015250565b610e2f81610c04565b8114610e3a57600080fd5b5056fea2646970667358221220ac2200a79377d193f68ee6e282815fb17645adc36c5ae6254085c74553a46fa864736f6c63430008040033",
  "linkReferences": {},
  "deployedLinkReferences": {}
}