{
  "_format": "hh-sol-artifact-1",
  "contractName": "RondaFactory",
  "sourceName": "contracts/RondaFactory.sol",
  "abi": [
    {
      "anonymous": false,
      "inputs": [
        {
          "indexed": false,
          "internalType": "uint256",
          "name": "zombieId",
          "type": "uint256"
        },
        {
          "indexed": false,
          "internalType": "string",
          "name": "name",
          "type": "string"
        },
        {
          "indexed": false,
          "internalType": "uint256",
          "name": "dna",
          "type": "uint256"
        }
      ],
      "name": "NewZombie",
      "type": "event"
    },
    {
      "anonymous": false,
      "inputs": [
        {
          "indexed": false,
          "internalType": "uint256",
          "name": "id",
          "type": "uint256"
        },
        {
          "indexed": false,
          "internalType": "string",
          "name": "nombre",
          "type": "string"
        },
        {
          "indexed": false,
          "internalType": "string",
          "name": "comuna",
          "type": "string"
        },
        {
          "indexed": false,
          "internalType": "string",
          "name": "descripcion",
          "type": "string"
        },
        {
          "indexed": false,
          "internalType": "string",
          "name": "tipo",
          "type": "string"
        }
      ],
      "name": "RondaNueva",
      "type": "event"
    },
    {
      "inputs": [
        {
          "internalType": "uint256",
          "name": "_zombieId",
          "type": "uint256"
        },
        {
          "internalType": "address",
          "name": "direccion",
          "type": "address"
        }
      ],
      "name": "_setAddressToZombie",
      "outputs": [],
      "stateMutability": "nonpayable",
      "type": "function"
    },
    {
      "inputs": [
        {
          "internalType": "uint256",
          "name": "_ronda_id",
          "type": "uint256"
        },
        {
          "internalType": "address",
          "name": "_zombie_address",
          "type": "address"
        }
      ],
      "name": "asignarRondaAZombie",
      "outputs": [],
      "stateMutability": "nonpayable",
      "type": "function"
    },
    {
      "inputs": [
        {
          "internalType": "string",
          "name": "_name",
          "type": "string"
        }
      ],
      "name": "crearRandomZombie",
      "outputs": [],
      "stateMutability": "nonpayable",
      "type": "function"
    },
    {
      "inputs": [
        {
          "internalType": "string",
          "name": "_nombre",
          "type": "string"
        },
        {
          "internalType": "string",
          "name": "_fono",
          "type": "string"
        },
        {
          "internalType": "string",
          "name": "_direccion",
          "type": "string"
        },
        {
          "internalType": "string",
          "name": "_comuna",
          "type": "string"
        },
        {
          "internalType": "string",
          "name": "_descripcion",
          "type": "string"
        },
        {
          "internalType": "string",
          "name": "_tipo",
          "type": "string"
        }
      ],
      "name": "crearRonda",
      "outputs": [],
      "stateMutability": "nonpayable",
      "type": "function"
    },
    {
      "inputs": [
        {
          "internalType": "string",
          "name": "_nombre",
          "type": "string"
        },
        {
          "internalType": "string",
          "name": "_fono",
          "type": "string"
        },
        {
          "internalType": "string",
          "name": "_direccion",
          "type": "string"
        },
        {
          "internalType": "string",
          "name": "_comuna",
          "type": "string"
        },
        {
          "internalType": "string",
          "name": "_descripcion",
          "type": "string"
        },
        {
          "internalType": "string",
          "name": "_tipo",
          "type": "string"
        }
      ],
      "name": "crearRondaConEvento",
      "outputs": [],
      "stateMutability": "nonpayable",
      "type": "function"
    },
    {
      "inputs": [
        {
          "internalType": "string",
          "name": "_name",
          "type": "string"
        },
        {
          "internalType": "address",
          "name": "direccion",
          "type": "address"
        }
      ],
      "name": "crearZombieElectrico",
      "outputs": [],
      "stateMutability": "nonpayable",
      "type": "function"
    },
    {
      "inputs": [],
      "name": "cuantasRondasHay",
      "outputs": [
        {
          "internalType": "uint256",
          "name": "",
          "type": "uint256"
        }
      ],
      "stateMutability": "view",
      "type": "function"
    },
    {
      "inputs": [],
      "name": "cuantosZombiesTengo",
      "outputs": [
        {
          "internalType": "uint256",
          "name": "",
          "type": "uint256"
        }
      ],
      "stateMutability": "view",
      "type": "function"
    },
    {
      "inputs": [
        {
          "internalType": "address",
          "name": "",
          "type": "address"
        }
      ],
      "name": "direccionToZombie",
      "outputs": [
        {
          "internalType": "uint256",
          "name": "",
          "type": "uint256"
        }
      ],
      "stateMutability": "view",
      "type": "function"
    },
    {
      "inputs": [
        {
          "internalType": "uint256",
          "name": "_zombieId",
          "type": "uint256"
        },
        {
          "internalType": "uint256",
          "name": "_targetDna",
          "type": "uint256"
        }
      ],
      "name": "feedAndMultiply",
      "outputs": [],
      "stateMutability": "nonpayable",
      "type": "function"
    },
    {
      "inputs": [],
      "name": "getMyNumber",
      "outputs": [
        {
          "internalType": "uint256",
          "name": "",
          "type": "uint256"
        }
      ],
      "stateMutability": "view",
      "type": "function"
    },
    {
      "inputs": [
        {
          "internalType": "uint256",
          "name": "_ronda_id",
          "type": "uint256"
        }
      ],
      "name": "getZombieFromRonda",
      "outputs": [
        {
          "internalType": "address",
          "name": "",
          "type": "address"
        }
      ],
      "stateMutability": "view",
      "type": "function"
    },
    {
      "inputs": [
        {
          "internalType": "address",
          "name": "direccion",
          "type": "address"
        }
      ],
      "name": "getZombieId",
      "outputs": [
        {
          "internalType": "uint256",
          "name": "",
          "type": "uint256"
        }
      ],
      "stateMutability": "view",
      "type": "function"
    },
    {
      "inputs": [
        {
          "internalType": "address",
          "name": "",
          "type": "address"
        }
      ],
      "name": "ownerRondaCount",
      "outputs": [
        {
          "internalType": "uint256",
          "name": "",
          "type": "uint256"
        }
      ],
      "stateMutability": "view",
      "type": "function"
    },
    {
      "inputs": [
        {
          "internalType": "uint256",
          "name": "",
          "type": "uint256"
        }
      ],
      "name": "rondaToOwner",
      "outputs": [
        {
          "internalType": "address",
          "name": "",
          "type": "address"
        }
      ],
      "stateMutability": "view",
      "type": "function"
    },
    {
      "inputs": [
        {
          "internalType": "uint256",
          "name": "",
          "type": "uint256"
        }
      ],
      "name": "rondaToZombie",
      "outputs": [
        {
          "internalType": "address",
          "name": "",
          "type": "address"
        }
      ],
      "stateMutability": "view",
      "type": "function"
    },
    {
      "inputs": [
        {
          "internalType": "uint256",
          "name": "",
          "type": "uint256"
        }
      ],
      "name": "rondas",
      "outputs": [
        {
          "internalType": "string",
          "name": "nombre",
          "type": "string"
        },
        {
          "internalType": "string",
          "name": "fono",
          "type": "string"
        },
        {
          "internalType": "string",
          "name": "direccion",
          "type": "string"
        },
        {
          "internalType": "string",
          "name": "comuna",
          "type": "string"
        },
        {
          "internalType": "string",
          "name": "descripcion",
          "type": "string"
        },
        {
          "internalType": "string",
          "name": "tipo",
          "type": "string"
        }
      ],
      "stateMutability": "view",
      "type": "function"
    },
    {
      "inputs": [
        {
          "internalType": "uint256",
          "name": "_myNumber",
          "type": "uint256"
        }
      ],
      "name": "setMyNumber",
      "outputs": [],
      "stateMutability": "nonpayable",
      "type": "function"
    },
    {
      "inputs": [
        {
          "internalType": "uint256",
          "name": "",
          "type": "uint256"
        }
      ],
      "name": "zombieToDireccion",
      "outputs": [
        {
          "internalType": "address",
          "name": "",
          "type": "address"
        }
      ],
      "stateMutability": "view",
      "type": "function"
    },
    {
      "inputs": [
        {
          "internalType": "uint256",
          "name": "",
          "type": "uint256"
        }
      ],
      "name": "zombieToOwner",
      "outputs": [
        {
          "internalType": "address",
          "name": "",
          "type": "address"
        }
      ],
      "stateMutability": "view",
      "type": "function"
    },
    {
      "inputs": [
        {
          "internalType": "uint256",
          "name": "",
          "type": "uint256"
        }
      ],
      "name": "zombies",
      "outputs": [
        {
          "internalType": "string",
          "name": "name",
          "type": "string"
        },
        {
          "internalType": "uint256",
          "name": "dna",
          "type": "uint256"
        }
      ],
      "stateMutability": "view",
      "type": "function"
    }
  ],
  "bytecode": "0x60806040526010600055600054600a6200001a91906200008c565b6001553480156200002a57600080fd5b506200020f565b6000808291508390505b600185111562000083578086048111156200005b576200005a620001d3565b5b60018516156200006b5780820291505b80810290506200007b8562000202565b94506200003b565b94509492505050565b60006200009982620001c9565b9150620000a683620001c9565b9250620000d57fffffffffffffffffffffffffffffffffffffffffffffffffffffffffffffffff8484620000dd565b905092915050565b600082620000ef5760019050620001c2565b81620000ff5760009050620001c2565b8160018114620001185760028114620001235762000159565b6001915050620001c2565b60ff841115620001385762000137620001d3565b5b8360020a915084821115620001525762000151620001d3565b5b50620001c2565b5060208310610133831016604e8410600b8410161715620001935782820a9050838111156200018d576200018c620001d3565b5b620001c2565b620001a2848484600162000031565b92509050818404811115620001bc57620001bb620001d3565b5b81810290505b9392505050565b6000819050919050565b7f4e487b7100000000000000000000000000000000000000000000000000000000600052601160045260246000fd5b60008160011c9050919050565b612477806200021f6000396000f3fe608060405234801561001057600080fd5b50600436106101375760003560e01c80636ffd773c116100b8578063a6a2c2341161007c578063a6a2c23414610388578063aa5ddcdd146103a6578063ab88ddf2146103c2578063b32e737f146103f2578063c20d415614610410578063ff283c421461042c57610137565b80636ffd773c146102e85780637168b5a8146103045780637bc6fb6414610320578063899cbc481461033c57806399f120d31461036c57610137565b806351d240d3116100ff57806351d240d314610207578063528b7b8f1461023757806355d42133146102675780635c184725146102975780635e2ac28d146102b357610137565b80630dedffb81461013c5780631a777c65146101585780632052465e14610188578063302b8596146101b95780634717351e146101e9575b600080fd5b61015660048036038101906101519190611c15565b61045c565b005b610172600480360381019061016d9190611bb0565b610588565b60405161017f9190611d70565b60405180910390f35b6101a2600480360381019061019d9190611bb0565b6105bb565b6040516101b0929190611f37565b60405180910390f35b6101d360048036038101906101ce9190611bb0565b610677565b6040516101e09190611d70565b60405180910390f35b6101f16106aa565b6040516101fe9190611f67565b60405180910390f35b610221600480360381019061021c9190611bb0565b6106b7565b60405161022e9190611d70565b60405180910390f35b610251600480360381019061024c9190611bb0565b6106ea565b60405161025e9190611d70565b60405180910390f35b610281600480360381019061027c91906119d9565b61071d565b60405161028e9190611f67565b60405180910390f35b6102b160048036038101906102ac9190611a02565b6107a5565b005b6102cd60048036038101906102c89190611bb0565b61084b565b6040516102df96959493929190611e52565b60405180910390f35b61030260048036038101906102fd9190611bb0565b610bc7565b005b61031e60048036038101906103199190611bd9565b610c0e565b005b61033a60048036038101906103359190611a97565b610d13565b005b61035660048036038101906103519190611bb0565b610f26565b6040516103639190611d70565b60405180910390f35b61038660048036038101906103819190611a97565b610f63565b005b610390610f93565b60405161039d9190611f67565b60405180910390f35b6103c060048036038101906103bb9190611a43565b611018565b005b6103dc60048036038101906103d791906119d9565b611046565b6040516103e99190611f67565b60405180910390f35b6103fa61105e565b6040516104079190611f67565b60405180910390f35b61042a60048036038101906104259190611bd9565b6110a5565b005b610446600480360381019061044191906119d9565b6110fb565b6040516104539190611f67565b60405180910390f35b6003600083815260200190815260200160002060009054906101000a900473ffffffffffffffffffffffffffffffffffffffff1673ffffffffffffffffffffffffffffffffffffffff163373ffffffffffffffffffffffffffffffffffffffff16146104c757600080fd5b600060028381548110610503577f4e487b7100000000000000000000000000000000000000000000000000000000600052603260045260246000fd5b90600052602060002090600202019050600154826105219190612315565b9150600060028383600101546105379190612130565b6105419190612186565b90506105826040518060400160405280600681526020017f4e6f4e616d65000000000000000000000000000000000000000000000000000081525082611113565b50505050565b600a6020528060005260406000206000915054906101000a900473ffffffffffffffffffffffffffffffffffffffff1681565b600281815481106105cb57600080fd5b90600052602060002090600202016000915090508060000180546105ee90612269565b80601f016020809104026020016040519081016040528092919081815260200182805461061a90612269565b80156106675780601f1061063c57610100808354040283529160200191610667565b820191906000526020600020905b81548152906001019060200180831161064a57829003601f168201915b5050505050908060010154905082565b60096020528060005260406000206000915054906101000a900473ffffffffffffffffffffffffffffffffffffffff1681565b6000600880549050905090565b60066020528060005260406000206000915054906101000a900473ffffffffffffffffffffffffffffffffffffffff1681565b60036020528060005260406000206000915054906101000a900473ffffffffffffffffffffffffffffffffffffffff1681565b600061075e6040518060400160405280600e81526020017f456e206765745a6f6d62696549640000000000000000000000000000000000008152508361137a565b600760008373ffffffffffffffffffffffffffffffffffffffff1673ffffffffffffffffffffffffffffffffffffffff168152602001908152602001600020549050919050565b6107e46040518060400160405280601481526020017f456e20637265617252616e646f6d5a6f6d62696500000000000000000000000081525082611416565b6000600460003373ffffffffffffffffffffffffffffffffffffffff1673ffffffffffffffffffffffffffffffffffffffff168152602001908152602001600020541461083057600080fd5b600061083b826114b2565b90506108478282611113565b5050565b6008818154811061085b57600080fd5b906000526020600020906006020160009150905080600001805461087e90612269565b80601f01602080910402602001604051908101604052809291908181526020018280546108aa90612269565b80156108f75780601f106108cc576101008083540402835291602001916108f7565b820191906000526020600020905b8154815290600101906020018083116108da57829003601f168201915b50505050509080600101805461090c90612269565b80601f016020809104026020016040519081016040528092919081815260200182805461093890612269565b80156109855780601f1061095a57610100808354040283529160200191610985565b820191906000526020600020905b81548152906001019060200180831161096857829003601f168201915b50505050509080600201805461099a90612269565b80601f01602080910402602001604051908101604052809291908181526020018280546109c690612269565b8015610a135780601f106109e857610100808354040283529160200191610a13565b820191906000526020600020905b8154815290600101906020018083116109f657829003601f168201915b505050505090806003018054610a2890612269565b80601f0160208091040260200160405190810160405280929190818152602001828054610a5490612269565b8015610aa15780601f10610a7657610100808354040283529160200191610aa1565b820191906000526020600020905b815481529060010190602001808311610a8457829003601f168201915b505050505090806004018054610ab690612269565b80601f0160208091040260200160405190810160405280929190818152602001828054610ae290612269565b8015610b2f5780601f10610b0457610100808354040283529160200191610b2f565b820191906000526020600020905b815481529060010190602001808311610b1257829003601f168201915b505050505090806005018054610b4490612269565b80601f0160208091040260200160405190810160405280929190818152602001828054610b7090612269565b8015610bbd5780601f10610b9257610100808354040283529160200191610bbd565b820191906000526020600020905b815481529060010190602001808311610ba057829003601f168201915b5050505050905086565b80600560003373ffffffffffffffffffffffffffffffffffffffff1673ffffffffffffffffffffffffffffffffffffffff1681526020019081526020016000208190555050565b6003600083815260200190815260200160002060009054906101000a900473ffffffffffffffffffffffffffffffffffffffff1673ffffffffffffffffffffffffffffffffffffffff163373ffffffffffffffffffffffffffffffffffffffff1614610c7957600080fd5b806006600084815260200190815260200160002060006101000a81548173ffffffffffffffffffffffffffffffffffffffff021916908373ffffffffffffffffffffffffffffffffffffffff16021790555081600760008373ffffffffffffffffffffffffffffffffffffffff1673ffffffffffffffffffffffffffffffffffffffff168152602001908152602001600020819055505050565b60006040518060c0016040528088815260200187815260200186815260200185815260200184815260200183815250905060088190806001815401808255809150506001900390600052602060002090600602016000909190919091506000820151816000019080519060200190610d8c9291906118a4565b506020820151816001019080519060200190610da99291906118a4565b506040820151816002019080519060200190610dc69291906118a4565b506060820151816003019080519060200190610de39291906118a4565b506080820151816004019080519060200190610e009291906118a4565b5060a0820151816005019080519060200190610e1d9291906118a4565b50505060006001600880549050610e3491906121b7565b90507f69444e7b4a6c6668a9a3031c71832d2acb765c63091be2bb60681f7bcb91c0f98189878787604051610e6d959493929190611f82565b60405180910390a1336009600083815260200190815260200160002060006101000a81548173ffffffffffffffffffffffffffffffffffffffff021916908373ffffffffffffffffffffffffffffffffffffffff160217905550600b60003373ffffffffffffffffffffffffffffffffffffffff1673ffffffffffffffffffffffffffffffffffffffff1681526020019081526020016000206000815480929190610f17906122cc565b91905055505050505050505050565b6000600a600083815260200190815260200160002060009054906101000a900473ffffffffffffffffffffffffffffffffffffffff169050919050565b610f71868686868686610d13565b610f8b6001600880549050610f8691906121b7565b611537565b505050505050565b6000610fd36040518060400160405280601681526020017f456e206375616e746f735a6f6d6269657354656e676f000000000000000000008152506116a1565b600460003373ffffffffffffffffffffffffffffffffffffffff1673ffffffffffffffffffffffffffffffffffffffff16815260200190815260200160002054905090565b611021826107a5565b6000600160028054905061103591906121b7565b90506110418183610c0e565b505050565b60076020528060005260406000206000915090505481565b6000600560003373ffffffffffffffffffffffffffffffffffffffff1673ffffffffffffffffffffffffffffffffffffffff16815260200190815260200160002054905090565b80600a600084815260200190815260200160002060006101000a81548173ffffffffffffffffffffffffffffffffffffffff021916908373ffffffffffffffffffffffffffffffffffffffff1602179055505050565b600b6020528060005260406000206000915090505481565b6111896040518060400160405280601681526020017f456e205f63726561725a6f6d626965205f6e616d653a00000000000000000000815250836040518060400160405280600581526020017f5f646e613a0000000000000000000000000000000000000000000000000000008152508461173a565b60006040518060400160405280848152602001838152509050600281908060018154018082558091505060019003906000526020600020906002020160009091909190915060008201518160000190805190602001906111ea9291906118a4565b506020820151816001015550506000600160028054905061120b91906121b7565b90507f88f026aacbbecc90c18411df4b1185fd8d9be2470f1962f192bf84a27d0704b781858560405161124093929190611ff1565b60405180910390a1336003600083815260200190815260200160002060006101000a81548173ffffffffffffffffffffffffffffffffffffffff021916908373ffffffffffffffffffffffffffffffffffffffff160217905550600460003373ffffffffffffffffffffffffffffffffffffffff1673ffffffffffffffffffffffffffffffffffffffff16815260200190815260200160002060008154809291906112ea906122cc565b91905055506000600460003373ffffffffffffffffffffffffffffffffffffffff1673ffffffffffffffffffffffffffffffffffffffff1681526020019081526020016000205490506113736040518060400160405280602081526020017f50726f706965746172696f202573207469656e65202564207a6f6d626965732e81525033836117dc565b5050505050565b6114128282604051602401611390929190611dad565b6040516020818303038152906040527f319af333000000000000000000000000000000000000000000000000000000007bffffffffffffffffffffffffffffffffffffffffffffffffffffffff19166020820180517bffffffffffffffffffffffffffffffffffffffffffffffffffffffff838183161783525050505061187b565b5050565b6114ae828260405160240161142c929190611e1b565b6040516020818303038152906040527f4b5c4277000000000000000000000000000000000000000000000000000000007bffffffffffffffffffffffffffffffffffffffffffffffffffffffff19166020820180517bffffffffffffffffffffffffffffffffffffffffffffffffffffffff838183161783525050505061187b565b5050565b60006114f36040518060400160405280601581526020017f456e205f67656e657261746552616e646f6d446e61000000000000000000000081525083611416565b6000826040516020016115069190611d59565b6040516020818303038152906040528051906020012060001c90506001548161152f9190612315565b915050919050565b7f69444e7b4a6c6668a9a3031c71832d2acb765c63091be2bb60681f7bcb91c0f98160088381548110611593577f4e487b7100000000000000000000000000000000000000000000000000000000600052603260045260246000fd5b9060005260206000209060060201600001600884815481106115de577f4e487b7100000000000000000000000000000000000000000000000000000000600052603260045260246000fd5b906000526020600020906006020160030160088581548110611629577f4e487b7100000000000000000000000000000000000000000000000000000000600052603260045260246000fd5b906000526020600020906006020160040160088681548110611674577f4e487b7100000000000000000000000000000000000000000000000000000000600052603260045260246000fd5b906000526020600020906006020160050160405161169695949392919061202f565b60405180910390a150565b611737816040516024016116b59190611d8b565b6040516020818303038152906040527f41304fac000000000000000000000000000000000000000000000000000000007bffffffffffffffffffffffffffffffffffffffffffffffffffffffff19166020820180517bffffffffffffffffffffffffffffffffffffffffffffffffffffffff838183161783525050505061187b565b50565b6117d6848484846040516024016117549493929190611edd565b6040516020818303038152906040527f8eafb02b000000000000000000000000000000000000000000000000000000007bffffffffffffffffffffffffffffffffffffffffffffffffffffffff19166020820180517bffffffffffffffffffffffffffffffffffffffffffffffffffffffff838183161783525050505061187b565b50505050565b6118768383836040516024016117f493929190611ddd565b6040516020818303038152906040527f0d26b925000000000000000000000000000000000000000000000000000000007bffffffffffffffffffffffffffffffffffffffffffffffffffffffff19166020820180517bffffffffffffffffffffffffffffffffffffffffffffffffffffffff838183161783525050505061187b565b505050565b60008151905060006a636f6e736f6c652e6c6f679050602083016000808483855afa5050505050565b8280546118b090612269565b90600052602060002090601f0160209004810192826118d25760008555611919565b82601f106118eb57805160ff1916838001178555611919565b82800160010185558215611919579182015b828111156119185782518255916020019190600101906118fd565b5b509050611926919061192a565b5090565b5b8082111561194357600081600090555060010161192b565b5090565b600061195a611955846120c3565b61209e565b90508281526020810184848401111561197257600080fd5b61197d848285612227565b509392505050565b60008135905061199481612413565b92915050565b600082601f8301126119ab57600080fd5b81356119bb848260208601611947565b91505092915050565b6000813590506119d38161242a565b92915050565b6000602082840312156119eb57600080fd5b60006119f984828501611985565b91505092915050565b600060208284031215611a1457600080fd5b600082013567ffffffffffffffff811115611a2e57600080fd5b611a3a8482850161199a565b91505092915050565b60008060408385031215611a5657600080fd5b600083013567ffffffffffffffff811115611a7057600080fd5b611a7c8582860161199a565b9250506020611a8d85828601611985565b9150509250929050565b60008060008060008060c08789031215611ab057600080fd5b600087013567ffffffffffffffff811115611aca57600080fd5b611ad689828a0161199a565b965050602087013567ffffffffffffffff811115611af357600080fd5b611aff89828a0161199a565b955050604087013567ffffffffffffffff811115611b1c57600080fd5b611b2889828a0161199a565b945050606087013567ffffffffffffffff811115611b4557600080fd5b611b5189828a0161199a565b935050608087013567ffffffffffffffff811115611b6e57600080fd5b611b7a89828a0161199a565b92505060a087013567ffffffffffffffff811115611b9757600080fd5b611ba389828a0161199a565b9150509295509295509295565b600060208284031215611bc257600080fd5b6000611bd0848285016119c4565b91505092915050565b60008060408385031215611bec57600080fd5b6000611bfa858286016119c4565b9250506020611c0b85828601611985565b9150509250929050565b60008060408385031215611c2857600080fd5b6000611c36858286016119c4565b9250506020611c47858286016119c4565b9150509250929050565b611c5a816121eb565b82525050565b6000611c6b82612109565b611c758185612114565b9350611c85818560208601612236565b611c8e81612402565b840191505092915050565b6000611ca482612109565b611cae8185612125565b9350611cbe818560208601612236565b80840191505092915050565b60008154611cd781612269565b611ce18186612114565b94506001821660008114611cfc5760018114611d0e57611d41565b60ff1983168652602086019350611d41565b611d17856120f4565b60005b83811015611d3957815481890152600182019150602081019050611d1a565b808801955050505b50505092915050565b611d538161221d565b82525050565b6000611d658284611c99565b915081905092915050565b6000602082019050611d856000830184611c51565b92915050565b60006020820190508181036000830152611da58184611c60565b905092915050565b60006040820190508181036000830152611dc78185611c60565b9050611dd66020830184611c51565b9392505050565b60006060820190508181036000830152611df78186611c60565b9050611e066020830185611c51565b611e136040830184611d4a565b949350505050565b60006040820190508181036000830152611e358185611c60565b90508181036020830152611e498184611c60565b90509392505050565b600060c0820190508181036000830152611e6c8189611c60565b90508181036020830152611e808188611c60565b90508181036040830152611e948187611c60565b90508181036060830152611ea88186611c60565b90508181036080830152611ebc8185611c60565b905081810360a0830152611ed08184611c60565b9050979650505050505050565b60006080820190508181036000830152611ef78187611c60565b90508181036020830152611f0b8186611c60565b90508181036040830152611f1f8185611c60565b9050611f2e6060830184611d4a565b95945050505050565b60006040820190508181036000830152611f518185611c60565b9050611f606020830184611d4a565b9392505050565b6000602082019050611f7c6000830184611d4a565b92915050565b600060a082019050611f976000830188611d4a565b8181036020830152611fa98187611c60565b90508181036040830152611fbd8186611c60565b90508181036060830152611fd18185611c60565b90508181036080830152611fe58184611c60565b90509695505050505050565b60006060820190506120066000830186611d4a565b81810360208301526120188185611c60565b90506120276040830184611d4a565b949350505050565b600060a0820190506120446000830188611d4a565b81810360208301526120568187611cca565b9050818103604083015261206a8186611cca565b9050818103606083015261207e8185611cca565b905081810360808301526120928184611cca565b90509695505050505050565b60006120a86120b9565b90506120b4828261229b565b919050565b6000604051905090565b600067ffffffffffffffff8211156120de576120dd6123d3565b5b6120e782612402565b9050602081019050919050565b60008190508160005260206000209050919050565b600081519050919050565b600082825260208201905092915050565b600081905092915050565b600061213b8261221d565b91506121468361221d565b9250827fffffffffffffffffffffffffffffffffffffffffffffffffffffffffffffffff0382111561217b5761217a612346565b5b828201905092915050565b60006121918261221d565b915061219c8361221d565b9250826121ac576121ab612375565b5b828204905092915050565b60006121c28261221d565b91506121cd8361221d565b9250828210156121e0576121df612346565b5b828203905092915050565b60006121f6826121fd565b9050919050565b600073ffffffffffffffffffffffffffffffffffffffff82169050919050565b6000819050919050565b82818337600083830152505050565b60005b83811015612254578082015181840152602081019050612239565b83811115612263576000848401525b50505050565b6000600282049050600182168061228157607f821691505b60208210811415612295576122946123a4565b5b50919050565b6122a482612402565b810181811067ffffffffffffffff821117156122c3576122c26123d3565b5b80604052505050565b60006122d78261221d565b91507fffffffffffffffffffffffffffffffffffffffffffffffffffffffffffffffff82141561230a57612309612346565b5b600182019050919050565b60006123208261221d565b915061232b8361221d565b92508261233b5761233a612375565b5b828206905092915050565b7f4e487b7100000000000000000000000000000000000000000000000000000000600052601160045260246000fd5b7f4e487b7100000000000000000000000000000000000000000000000000000000600052601260045260246000fd5b7f4e487b7100000000000000000000000000000000000000000000000000000000600052602260045260246000fd5b7f4e487b7100000000000000000000000000000000000000000000000000000000600052604160045260246000fd5b6000601f19601f8301169050919050565b61241c816121eb565b811461242757600080fd5b50565b6124338161221d565b811461243e57600080fd5b5056fea26469706673582212207e54b74351d268e992e7ac55305de787373f7d2d4a8788e623ae1c7fa3f11bec64736f6c63430008040033",
  "linkReferences": {},
  "deployedLinkReferences": {}
}