{
  "_format": "hh-sol-artifact-1",
  "contractName": "RondaFactory",
  "sourceName": "contracts/RondaFactory.sol",
  "abi": [
    {
      "anonymous": false,
      "inputs": [
        {
          "indexed": false,
          "internalType": "uint256",
          "name": "zombieId",
          "type": "uint256"
        },
        {
          "indexed": false,
          "internalType": "string",
          "name": "name",
          "type": "string"
        },
        {
          "indexed": false,
          "internalType": "uint256",
          "name": "dna",
          "type": "uint256"
        }
      ],
      "name": "NewZombie",
      "type": "event"
    },
    {
      "anonymous": false,
      "inputs": [
        {
          "indexed": false,
          "internalType": "uint256",
          "name": "id",
          "type": "uint256"
        },
        {
          "indexed": false,
          "internalType": "string",
          "name": "nombre",
          "type": "string"
        },
        {
          "indexed": false,
          "internalType": "string",
          "name": "comuna",
          "type": "string"
        },
        {
          "indexed": false,
          "internalType": "string",
          "name": "descripcion",
          "type": "string"
        },
        {
          "indexed": false,
          "internalType": "string",
          "name": "tipo",
          "type": "string"
        }
      ],
      "name": "RondaNueva",
      "type": "event"
    },
    {
      "inputs": [
        {
          "internalType": "uint256",
          "name": "_zombieId",
          "type": "uint256"
        },
        {
          "internalType": "address",
          "name": "direccion",
          "type": "address"
        }
      ],
      "name": "_setAddressToZombie",
      "outputs": [],
      "stateMutability": "nonpayable",
      "type": "function"
    },
    {
      "inputs": [
        {
          "internalType": "uint256",
          "name": "_ronda_id",
          "type": "uint256"
        },
        {
          "internalType": "address",
          "name": "_zombie_address",
          "type": "address"
        }
      ],
      "name": "asignarRondaAZombie",
      "outputs": [],
      "stateMutability": "nonpayable",
      "type": "function"
    },
    {
      "inputs": [
        {
          "internalType": "string",
          "name": "_name",
          "type": "string"
        }
      ],
      "name": "crearRandomZombie",
      "outputs": [],
      "stateMutability": "nonpayable",
      "type": "function"
    },
    {
      "inputs": [
        {
          "internalType": "string",
          "name": "_nombre",
          "type": "string"
        },
        {
          "internalType": "string",
          "name": "_fono",
          "type": "string"
        },
        {
          "internalType": "string",
          "name": "_direccion",
          "type": "string"
        },
        {
          "internalType": "string",
          "name": "_comuna",
          "type": "string"
        },
        {
          "internalType": "string",
          "name": "_descripcion",
          "type": "string"
        },
        {
          "internalType": "string",
          "name": "_tipo",
          "type": "string"
        }
      ],
      "name": "crearRonda",
      "outputs": [],
      "stateMutability": "nonpayable",
      "type": "function"
    },
    {
      "inputs": [
        {
          "internalType": "string",
          "name": "_nombre",
          "type": "string"
        },
        {
          "internalType": "string",
          "name": "_fono",
          "type": "string"
        },
        {
          "internalType": "string",
          "name": "_direccion",
          "type": "string"
        },
        {
          "internalType": "string",
          "name": "_comuna",
          "type": "string"
        },
        {
          "internalType": "string",
          "name": "_descripcion",
          "type": "string"
        },
        {
          "internalType": "string",
          "name": "_tipo",
          "type": "string"
        }
      ],
      "name": "crearRondaConEvento",
      "outputs": [],
      "stateMutability": "nonpayable",
      "type": "function"
    },
    {
      "inputs": [
        {
          "internalType": "string",
          "name": "_name",
          "type": "string"
        },
        {
          "internalType": "address",
          "name": "direccion",
          "type": "address"
        }
      ],
      "name": "crearZombieElectrico",
      "outputs": [],
      "stateMutability": "nonpayable",
      "type": "function"
    },
    {
      "inputs": [],
      "name": "cuantasRondasHay",
      "outputs": [
        {
          "internalType": "uint256",
          "name": "",
          "type": "uint256"
        }
      ],
      "stateMutability": "view",
      "type": "function"
    },
    {
      "inputs": [],
      "name": "cuantosZombiesTengo",
      "outputs": [
        {
          "internalType": "uint256",
          "name": "",
          "type": "uint256"
        }
      ],
      "stateMutability": "view",
      "type": "function"
    },
    {
      "inputs": [
        {
          "internalType": "address",
          "name": "",
          "type": "address"
        }
      ],
      "name": "direccionToZombie",
      "outputs": [
        {
          "internalType": "uint256",
          "name": "",
          "type": "uint256"
        }
      ],
      "stateMutability": "view",
      "type": "function"
    },
    {
      "inputs": [
        {
          "internalType": "uint256",
          "name": "_zombieId",
          "type": "uint256"
        },
        {
          "internalType": "uint256",
          "name": "_targetDna",
          "type": "uint256"
        }
      ],
      "name": "feedAndMultiply",
      "outputs": [],
      "stateMutability": "nonpayable",
      "type": "function"
    },
    {
      "inputs": [],
      "name": "getMyNumber",
      "outputs": [
        {
          "internalType": "uint256",
          "name": "",
          "type": "uint256"
        }
      ],
      "stateMutability": "view",
      "type": "function"
    },
    {
      "inputs": [
        {
          "internalType": "uint256",
          "name": "_ronda_id",
          "type": "uint256"
        }
      ],
      "name": "getZombieFromRonda",
      "outputs": [
        {
          "internalType": "address",
          "name": "",
          "type": "address"
        }
      ],
      "stateMutability": "view",
      "type": "function"
    },
    {
      "inputs": [
        {
          "internalType": "address",
          "name": "direccion",
          "type": "address"
        }
      ],
      "name": "getZombieId",
      "outputs": [
        {
          "internalType": "uint256",
          "name": "",
          "type": "uint256"
        }
      ],
      "stateMutability": "view",
      "type": "function"
    },
    {
      "inputs": [
        {
          "internalType": "address",
          "name": "",
          "type": "address"
        }
      ],
      "name": "ownerRondaCount",
      "outputs": [
        {
          "internalType": "uint256",
          "name": "",
          "type": "uint256"
        }
      ],
      "stateMutability": "view",
      "type": "function"
    },
    {
      "inputs": [
        {
          "internalType": "uint256",
          "name": "",
          "type": "uint256"
        }
      ],
      "name": "rondaToOwner",
      "outputs": [
        {
          "internalType": "address",
          "name": "",
          "type": "address"
        }
      ],
      "stateMutability": "view",
      "type": "function"
    },
    {
      "inputs": [
        {
          "internalType": "uint256",
          "name": "",
          "type": "uint256"
        }
      ],
      "name": "rondaToZombie",
      "outputs": [
        {
          "internalType": "address",
          "name": "",
          "type": "address"
        }
      ],
      "stateMutability": "view",
      "type": "function"
    },
    {
      "inputs": [
        {
          "internalType": "uint256",
          "name": "",
          "type": "uint256"
        }
      ],
      "name": "rondas",
      "outputs": [
        {
          "internalType": "string",
          "name": "nombre",
          "type": "string"
        },
        {
          "internalType": "string",
          "name": "fono",
          "type": "string"
        },
        {
          "internalType": "string",
          "name": "direccion",
          "type": "string"
        },
        {
          "internalType": "string",
          "name": "comuna",
          "type": "string"
        },
        {
          "internalType": "string",
          "name": "descripcion",
          "type": "string"
        },
        {
          "internalType": "string",
          "name": "tipo",
          "type": "string"
        }
      ],
      "stateMutability": "view",
      "type": "function"
    },
    {
      "inputs": [
        {
          "internalType": "uint256",
          "name": "_myNumber",
          "type": "uint256"
        }
      ],
      "name": "setMyNumber",
      "outputs": [],
      "stateMutability": "nonpayable",
      "type": "function"
    },
    {
      "inputs": [
        {
          "internalType": "uint256",
          "name": "",
          "type": "uint256"
        }
      ],
      "name": "zombieToDireccion",
      "outputs": [
        {
          "internalType": "address",
          "name": "",
          "type": "address"
        }
      ],
      "stateMutability": "view",
      "type": "function"
    },
    {
      "inputs": [
        {
          "internalType": "uint256",
          "name": "",
          "type": "uint256"
        }
      ],
      "name": "zombieToOwner",
      "outputs": [
        {
          "internalType": "address",
          "name": "",
          "type": "address"
        }
      ],
      "stateMutability": "view",
      "type": "function"
    },
    {
      "inputs": [
        {
          "internalType": "uint256",
          "name": "",
          "type": "uint256"
        }
      ],
      "name": "zombies",
      "outputs": [
        {
          "internalType": "string",
          "name": "name",
          "type": "string"
        },
        {
          "internalType": "uint256",
          "name": "dna",
          "type": "uint256"
        }
      ],
      "stateMutability": "view",
      "type": "function"
    }
  ],
  "bytecode": "0x6080604052601060008190556200001890600a62000144565b6001553480156200002857600080fd5b5062000159565b634e487b7160e01b600052601160045260246000fd5b600181815b80851115620000865781600019048211156200006a576200006a6200002f565b808516156200007857918102915b93841c93908002906200004a565b509250929050565b6000826200009f575060016200013e565b81620000ae575060006200013e565b8160018114620000c75760028114620000d257620000f2565b60019150506200013e565b60ff841115620000e657620000e66200002f565b50506001821b6200013e565b5060208310610133831016604e8410600b841016171562000117575081810a6200013e565b62000123838362000045565b80600019048211156200013a576200013a6200002f565b0290505b92915050565b60006200015283836200008e565b9392505050565b6119a680620001696000396000f3fe608060405234801561001057600080fd5b50600436106101775760003560e01c80636ffd773c116100d8578063a6a2c2341161008c578063b32e737f11610066578063b32e737f1461038d578063c20d4156146103a2578063ff283c42146103eb57600080fd5b8063a6a2c23414610352578063aa5ddcdd1461035a578063ab88ddf21461036d57600080fd5b80637bc6fb64116100bd5780637bc6fb6414610303578063899cbc481461031657806399f120d31461033f57600080fd5b80636ffd773c146102d05780637168b5a8146102f057600080fd5b806351d240d31161012f57806355d421331161011457806355d42133146102855780635c184725146102985780635e2ac28d146102ab57600080fd5b806351d240d314610233578063528b7b8f1461025c57600080fd5b80632052465e116101605780632052465e146101d7578063302b8596146101f85780634717351e1461022157600080fd5b80630dedffb81461017c5780631a777c6514610191575b600080fd5b61018f61018a366004611251565b61040b565b005b6101ba61019f366004611273565b600a602052600090815260409020546001600160a01b031681565b6040516001600160a01b0390911681526020015b60405180910390f35b6101ea6101e5366004611273565b6104c8565b6040516101ce9291906112e4565b6101ba610206366004611273565b6009602052600090815260409020546001600160a01b031681565b6008545b6040519081526020016101ce565b6101ba610241366004611273565b6006602052600090815260409020546001600160a01b031681565b6101ba61026a366004611273565b6003602052600090815260409020546001600160a01b031681565b610225610293366004611322565b610584565b61018f6102a63660046113e0565b6105e1565b6102be6102b9366004611273565b610655565b6040516101ce9695949392919061141d565b61018f6102de366004611273565b33600090815260056020526040902055565b61018f6102fe36600461149f565b6109d1565b61018f6103113660046114cb565b610a3a565b6101ba610324366004611273565b6000908152600a60205260409020546001600160a01b031690565b61018f61034d3660046114cb565b610beb565b610225610c19565b61018f6103683660046115c0565b610c6d565b61022561037b366004611322565b60076020526000908152604090205481565b33600090815260056020526040902054610225565b61018f6103b036600461149f565b6000918252600a6020526040909120805473ffffffffffffffffffffffffffffffffffffffff19166001600160a01b03909216919091179055565b6102256103f9366004611322565b600b6020526000908152604090205481565b6000828152600360205260409020546001600160a01b0316331461042e57600080fd5b60006002838154811061044357610443611605565b90600052602060002090600202019050600154826104619190611631565b915060006002838360010154610477919061165b565b6104819190611673565b90506104c26040518060400160405280600681526020017f4e6f4e616d65000000000000000000000000000000000000000000000000000081525082610c99565b50505050565b600281815481106104d857600080fd5b90600052602060002090600202016000915090508060000180546104fb90611687565b80601f016020809104026020016040519081016040528092919081815260200182805461052790611687565b80156105745780601f1061054957610100808354040283529160200191610574565b820191906000526020600020905b81548152906001019060200180831161055757829003601f168201915b5050505050908060010154905082565b60006105c56040518060400160405280600e81526020017f456e206765745a6f6d626965496400000000000000000000000000000000000081525083610e6c565b506001600160a01b031660009081526007602052604090205490565b6106206040518060400160405280601481526020017f456e20637265617252616e646f6d5a6f6d62696500000000000000000000000081525082610eca565b336000908152600460205260409020541561063a57600080fd5b600061064582610f28565b90506106518282610c99565b5050565b6008818154811061066557600080fd5b906000526020600020906006020160009150905080600001805461068890611687565b80601f01602080910402602001604051908101604052809291908181526020018280546106b490611687565b80156107015780601f106106d657610100808354040283529160200191610701565b820191906000526020600020905b8154815290600101906020018083116106e457829003601f168201915b50505050509080600101805461071690611687565b80601f016020809104026020016040519081016040528092919081815260200182805461074290611687565b801561078f5780601f106107645761010080835404028352916020019161078f565b820191906000526020600020905b81548152906001019060200180831161077257829003601f168201915b5050505050908060020180546107a490611687565b80601f01602080910402602001604051908101604052809291908181526020018280546107d090611687565b801561081d5780601f106107f25761010080835404028352916020019161081d565b820191906000526020600020905b81548152906001019060200180831161080057829003601f168201915b50505050509080600301805461083290611687565b80601f016020809104026020016040519081016040528092919081815260200182805461085e90611687565b80156108ab5780601f10610880576101008083540402835291602001916108ab565b820191906000526020600020905b81548152906001019060200180831161088e57829003601f168201915b5050505050908060040180546108c090611687565b80601f01602080910402602001604051908101604052809291908181526020018280546108ec90611687565b80156109395780601f1061090e57610100808354040283529160200191610939565b820191906000526020600020905b81548152906001019060200180831161091c57829003601f168201915b50505050509080600501805461094e90611687565b80601f016020809104026020016040519081016040528092919081815260200182805461097a90611687565b80156109c75780601f1061099c576101008083540402835291602001916109c7565b820191906000526020600020905b8154815290600101906020018083116109aa57829003601f168201915b5050505050905086565b6000828152600360205260409020546001600160a01b031633146109f457600080fd5b600082815260066020908152604080832080546001600160a01b0390951673ffffffffffffffffffffffffffffffffffffffff1990951685179055928252600790522055565b6040805160c0810182528781526020808201889052918101869052606081018590526080810184905260a0810183905260088054600181018255600091909152815180519293849360069093027ff3f7a9fe364faab93b216da50a3214154f22a0a2b415b23a84c8169e8b636ee30192610ab792849201906111b8565b506020828101518051610ad092600185019201906111b8565b5060408201518051610aec9160028401916020909101906111b8565b5060608201518051610b089160038401916020909101906111b8565b5060808201518051610b249160048401916020909101906111b8565b5060a08201518051610b409160058401916020909101906111b8565b505060085460009150610b55906001906116c2565b90507f69444e7b4a6c6668a9a3031c71832d2acb765c63091be2bb60681f7bcb91c0f98189878787604051610b8e9594939291906116d9565b60405180910390a16000818152600960209081526040808320805473ffffffffffffffffffffffffffffffffffffffff1916339081179091558352600b9091528120805491610bdc83611738565b91905055505050505050505050565b610bf9868686868686610a3a565b600854610c1190610c0c906001906116c2565b610fac565b505050505050565b6000610c596040518060400160405280601681526020017f456e206375616e746f735a6f6d6269657354656e676f0000000000000000000081525061107a565b503360009081526004602052604090205490565b610c76826105e1565b600254600090610c88906001906116c2565b9050610c9481836109d1565b505050565b610d0f6040518060400160405280601681526020017f456e205f63726561725a6f6d626965205f6e616d653a00000000000000000000815250836040518060400160405280600581526020017f5f646e613a000000000000000000000000000000000000000000000000000000815250846110d9565b604080518082019091528281526020808201839052600280546001810182556000829052835180518594929093027f405787fa12a823e0f2b7631cc41b3ba8828b3321ca811111fa75cd3aa3bb5ace0192610d6d92849201906111b8565b5060209190910151600191820155600254600091610d8a916116c2565b90507f88f026aacbbecc90c18411df4b1185fd8d9be2470f1962f192bf84a27d0704b7818585604051610dbf93929190611753565b60405180910390a16000818152600360209081526040808320805473ffffffffffffffffffffffffffffffffffffffff191633908117909155835260049091528120805491610e0d83611738565b9091555050336000818152600460209081526040918290205482518084019093528183527f50726f706965746172696f202573207469656e65202564207a6f6d626965732e9183019190915291610e6591908361113b565b5050505050565b6106518282604051602401610e8292919061177c565b60408051601f198184030181529190526020810180516001600160e01b03167f319af33300000000000000000000000000000000000000000000000000000000179052611197565b6106518282604051602401610ee09291906117a7565b60408051601f198184030181529190526020810180516001600160e01b03167f4b5c427700000000000000000000000000000000000000000000000000000000179052611197565b6000610f696040518060400160405280601581526020017f456e205f67656e657261746552616e646f6d446e61000000000000000000000081525083610eca565b600082604051602001610f7c91906117d5565b6040516020818303038152906040528051906020012060001c905060015481610fa59190611631565b9392505050565b7f69444e7b4a6c6668a9a3031c71832d2acb765c63091be2bb60681f7bcb91c0f98160088381548110610fe157610fe1611605565b90600052602060002090600602016000016008848154811061100557611005611605565b90600052602060002090600602016003016008858154811061102957611029611605565b90600052602060002090600602016004016008868154811061104d5761104d611605565b906000526020600020906006020160050160405161106f959493929190611891565b60405180910390a150565b6110d68160405160240161108e91906118e4565b60408051601f198184030181529190526020810180516001600160e01b03167f41304fac00000000000000000000000000000000000000000000000000000000179052611197565b50565b6104c2848484846040516024016110f394939291906118f7565b60408051601f198184030181529190526020810180516001600160e01b03167f8eafb02b00000000000000000000000000000000000000000000000000000000179052611197565b610c9483838360405160240161115393929190611942565b60408051601f198184030181529190526020810180516001600160e01b03167f0d26b925000000000000000000000000000000000000000000000000000000001790525b80516a636f6e736f6c652e6c6f67602083016000808483855afa5050505050565b8280546111c490611687565b90600052602060002090601f0160209004810192826111e6576000855561122c565b82601f106111ff57805160ff191683800117855561122c565b8280016001018555821561122c579182015b8281111561122c578251825591602001919060010190611211565b5061123892915061123c565b5090565b5b80821115611238576000815560010161123d565b6000806040838503121561126457600080fd5b50508035926020909101359150565b60006020828403121561128557600080fd5b5035919050565b60005b838110156112a757818101518382015260200161128f565b838111156104c25750506000910152565b600081518084526112d081602086016020860161128c565b601f01601f19169290920160200192915050565b6040815260006112f760408301856112b8565b90508260208301529392505050565b80356001600160a01b038116811461131d57600080fd5b919050565b60006020828403121561133457600080fd5b610fa582611306565b634e487b7160e01b600052604160045260246000fd5b600082601f83011261136457600080fd5b813567ffffffffffffffff8082111561137f5761137f61133d565b604051601f8301601f19908116603f011681019082821181831017156113a7576113a761133d565b816040528381528660208588010111156113c057600080fd5b836020870160208301376000602085830101528094505050505092915050565b6000602082840312156113f257600080fd5b813567ffffffffffffffff81111561140957600080fd5b61141584828501611353565b949350505050565b60c08152600061143060c08301896112b8565b828103602084015261144281896112b8565b9050828103604084015261145681886112b8565b9050828103606084015261146a81876112b8565b9050828103608084015261147e81866112b8565b905082810360a084015261149281856112b8565b9998505050505050505050565b600080604083850312156114b257600080fd5b823591506114c260208401611306565b90509250929050565b60008060008060008060c087890312156114e457600080fd5b863567ffffffffffffffff808211156114fc57600080fd5b6115088a838b01611353565b9750602089013591508082111561151e57600080fd5b61152a8a838b01611353565b9650604089013591508082111561154057600080fd5b61154c8a838b01611353565b9550606089013591508082111561156257600080fd5b61156e8a838b01611353565b9450608089013591508082111561158457600080fd5b6115908a838b01611353565b935060a08901359150808211156115a657600080fd5b506115b389828a01611353565b9150509295509295509295565b600080604083850312156115d357600080fd5b823567ffffffffffffffff8111156115ea57600080fd5b6115f685828601611353565b9250506114c260208401611306565b634e487b7160e01b600052603260045260246000fd5b634e487b7160e01b600052601260045260246000fd5b6000826116405761164061161b565b500690565b634e487b7160e01b600052601160045260246000fd5b6000821982111561166e5761166e611645565b500190565b6000826116825761168261161b565b500490565b600181811c9082168061169b57607f821691505b602082108114156116bc57634e487b7160e01b600052602260045260246000fd5b50919050565b6000828210156116d4576116d4611645565b500390565b85815260a0602082015260006116f260a08301876112b8565b828103604084015261170481876112b8565b9050828103606084015261171881866112b8565b9050828103608084015261172c81856112b8565b98975050505050505050565b600060001982141561174c5761174c611645565b5060010190565b83815260606020820152600061176c60608301856112b8565b9050826040830152949350505050565b60408152600061178f60408301856112b8565b90506001600160a01b03831660208301529392505050565b6040815260006117ba60408301856112b8565b82810360208401526117cc81856112b8565b95945050505050565b600082516117e781846020870161128c565b9190910192915050565b8054600090600181811c908083168061180b57607f831692505b602080841082141561182d57634e487b7160e01b600052602260045260246000fd5b83885260208801828015611848576001811461185957611884565b60ff19871682528282019750611884565b60008981526020902060005b8781101561187e57815484820152908601908401611865565b83019850505b5050505050505092915050565b85815260a0602082015260006118aa60a08301876117f1565b82810360408401526118bc81876117f1565b905082810360608401526118d081866117f1565b9050828103608084015261172c81856117f1565b602081526000610fa560208301846112b8565b60808152600061190a60808301876112b8565b828103602084015261191c81876112b8565b9050828103604084015261193081866112b8565b91505082606083015295945050505050565b60608152600061195560608301866112b8565b6001600160a01b03949094166020830152506040015291905056fea26469706673582212200d174b8e847b3aa23b6adb1357f1a503d8a08d63563183f3ed59ec2bd7a82b3564736f6c63430008090033",
  "linkReferences": {},
  "deployedLinkReferences": {}
}