{
  "_format": "hh-sol-artifact-1",
  "contractName": "ZombieFactory",
  "sourceName": "contracts/ZombieFactory.sol",
  "abi": [
    {
      "anonymous": false,
      "inputs": [
        {
          "indexed": false,
          "internalType": "uint256",
          "name": "zombieId",
          "type": "uint256"
        },
        {
          "indexed": false,
          "internalType": "string",
          "name": "name",
          "type": "string"
        },
        {
          "indexed": false,
          "internalType": "uint256",
          "name": "dna",
          "type": "uint256"
        }
      ],
      "name": "NewZombie",
      "type": "event"
    },
    {
      "inputs": [
        {
          "internalType": "uint256",
          "name": "_zombieId",
          "type": "uint256"
        },
        {
          "internalType": "address",
          "name": "direccion",
          "type": "address"
        }
      ],
      "name": "_setAddressToZombie",
      "outputs": [],
      "stateMutability": "nonpayable",
      "type": "function"
    },
    {
      "inputs": [
        {
          "internalType": "string",
          "name": "_name",
          "type": "string"
        }
      ],
      "name": "crearRandomZombie",
      "outputs": [],
      "stateMutability": "nonpayable",
      "type": "function"
    },
    {
      "inputs": [
        {
          "internalType": "string",
          "name": "_name",
          "type": "string"
        },
        {
          "internalType": "address",
          "name": "direccion",
          "type": "address"
        }
      ],
      "name": "crearZombieElectrico",
      "outputs": [],
      "stateMutability": "nonpayable",
      "type": "function"
    },
    {
      "inputs": [],
      "name": "cuantosZombiesTengo",
      "outputs": [
        {
          "internalType": "uint256",
          "name": "",
          "type": "uint256"
        }
      ],
      "stateMutability": "view",
      "type": "function"
    },
    {
      "inputs": [
        {
          "internalType": "address",
          "name": "",
          "type": "address"
        }
      ],
      "name": "direccionToZombie",
      "outputs": [
        {
          "internalType": "uint256",
          "name": "",
          "type": "uint256"
        }
      ],
      "stateMutability": "view",
      "type": "function"
    },
    {
      "inputs": [],
      "name": "getMyNumber",
      "outputs": [
        {
          "internalType": "uint256",
          "name": "",
          "type": "uint256"
        }
      ],
      "stateMutability": "view",
      "type": "function"
    },
    {
      "inputs": [
        {
          "internalType": "address",
          "name": "direccion",
          "type": "address"
        }
      ],
      "name": "getZombieId",
      "outputs": [
        {
          "internalType": "uint256",
          "name": "",
          "type": "uint256"
        }
      ],
      "stateMutability": "view",
      "type": "function"
    },
    {
      "inputs": [
        {
          "internalType": "uint256",
          "name": "_myNumber",
          "type": "uint256"
        }
      ],
      "name": "setMyNumber",
      "outputs": [],
      "stateMutability": "nonpayable",
      "type": "function"
    },
    {
      "inputs": [
        {
          "internalType": "uint256",
          "name": "",
          "type": "uint256"
        }
      ],
      "name": "zombieToDireccion",
      "outputs": [
        {
          "internalType": "address",
          "name": "",
          "type": "address"
        }
      ],
      "stateMutability": "view",
      "type": "function"
    },
    {
      "inputs": [
        {
          "internalType": "uint256",
          "name": "",
          "type": "uint256"
        }
      ],
      "name": "zombieToOwner",
      "outputs": [
        {
          "internalType": "address",
          "name": "",
          "type": "address"
        }
      ],
      "stateMutability": "view",
      "type": "function"
    },
    {
      "inputs": [
        {
          "internalType": "uint256",
          "name": "",
          "type": "uint256"
        }
      ],
      "name": "zombies",
      "outputs": [
        {
          "internalType": "string",
          "name": "name",
          "type": "string"
        },
        {
          "internalType": "uint256",
          "name": "dna",
          "type": "uint256"
        }
      ],
      "stateMutability": "view",
      "type": "function"
    }
  ],
  "bytecode": "0x6080604052601060008190556200001890600a62000144565b6001553480156200002857600080fd5b5062000159565b634e487b7160e01b600052601160045260246000fd5b600181815b80851115620000865781600019048211156200006a576200006a6200002f565b808516156200007857918102915b93841c93908002906200004a565b509250929050565b6000826200009f575060016200013e565b81620000ae575060006200013e565b8160018114620000c75760028114620000d257620000f2565b60019150506200013e565b60ff841115620000e657620000e66200002f565b50506001821b6200013e565b5060208310610133831016604e8410600b841016171562000117575081810a6200013e565b62000123838362000045565b80600019048211156200013a576200013a6200002f565b0290505b92915050565b60006200015283836200008e565b9392505050565b610da580620001696000396000f3fe608060405234801561001057600080fd5b50600436106100c95760003560e01c80636ffd773c11610081578063aa5ddcdd1161005b578063aa5ddcdd146101d3578063ab88ddf2146101e6578063b32e737f1461020657600080fd5b80636ffd773c146101985780637168b5a8146101b8578063a6a2c234146101cb57600080fd5b8063528b7b8f116100b2578063528b7b8f1461013957806355d42133146101625780635c1847251461018357600080fd5b80632052465e146100ce57806351d240d3146100f8575b600080fd5b6100e16100dc366004610985565b61021b565b6040516100ef9291906109f6565b60405180910390f35b610121610106366004610985565b6006602052600090815260409020546001600160a01b031681565b6040516001600160a01b0390911681526020016100ef565b610121610147366004610985565b6003602052600090815260409020546001600160a01b031681565b610175610170366004610a34565b6102d7565b6040519081526020016100ef565b610196610191366004610af2565b610334565b005b6101966101a6366004610985565b33600090815260056020526040902055565b6101966101c6366004610b2f565b6103a8565b610175610411565b6101966101e1366004610b5b565b610465565b6101756101f4366004610a34565b60076020526000908152604090205481565b33600090815260056020526040902054610175565b6002818154811061022b57600080fd5b906000526020600020906002020160009150905080600001805461024e90610ba0565b80601f016020809104026020016040519081016040528092919081815260200182805461027a90610ba0565b80156102c75780601f1061029c576101008083540402835291602001916102c7565b820191906000526020600020905b8154815290600101906020018083116102aa57829003601f168201915b5050505050908060010154905082565b60006103186040518060400160405280600e81526020017f456e206765745a6f6d626965496400000000000000000000000000000000000081525083610491565b506001600160a01b031660009081526007602052604090205490565b6103736040518060400160405280601481526020017f456e20637265617252616e646f6d5a6f6d626965000000000000000000000000815250826104ef565b336000908152600460205260409020541561038d57600080fd5b60006103988261054d565b90506103a482826105d1565b5050565b6000828152600360205260409020546001600160a01b031633146103cb57600080fd5b600082815260066020908152604080832080546001600160a01b0390951673ffffffffffffffffffffffffffffffffffffffff1990951685179055928252600790522055565b60006104516040518060400160405280601681526020017f456e206375616e746f735a6f6d6269657354656e676f000000000000000000008152506107a4565b503360009081526004602052604090205490565b61046e82610334565b60025460009061048090600190610bf1565b905061048c81836103a8565b505050565b6103a482826040516024016104a7929190610c08565b60408051601f198184030181529190526020810180516001600160e01b03167f319af33300000000000000000000000000000000000000000000000000000000179052610803565b6103a48282604051602401610505929190610c33565b60408051601f198184030181529190526020810180516001600160e01b03167f4b5c427700000000000000000000000000000000000000000000000000000000179052610803565b600061058e6040518060400160405280601581526020017f456e205f67656e657261746552616e646f6d446e610000000000000000000000815250836104ef565b6000826040516020016105a19190610c61565b6040516020818303038152906040528051906020012060001c9050600154816105ca9190610c7d565b9392505050565b6106476040518060400160405280601681526020017f456e205f63726561725a6f6d626965205f6e616d653a00000000000000000000815250836040518060400160405280600581526020017f5f646e613a00000000000000000000000000000000000000000000000000000081525084610824565b604080518082019091528281526020808201839052600280546001810182556000829052835180518594929093027f405787fa12a823e0f2b7631cc41b3ba8828b3321ca811111fa75cd3aa3bb5ace01926106a592849201906108ec565b50602091909101516001918201556002546000916106c291610bf1565b90507f88f026aacbbecc90c18411df4b1185fd8d9be2470f1962f192bf84a27d0704b78185856040516106f793929190610c9f565b60405180910390a16000818152600360209081526040808320805473ffffffffffffffffffffffffffffffffffffffff19163390811790915583526004909152812080549161074583610cc8565b9091555050336000818152600460209081526040918290205482518084019093528183527f50726f706965746172696f202573207469656e65202564207a6f6d626965732e918301919091529161079d91908361088c565b5050505050565b610800816040516024016107b89190610ce3565b60408051601f198184030181529190526020810180516001600160e01b03167f41304fac00000000000000000000000000000000000000000000000000000000179052610803565b50565b80516a636f6e736f6c652e6c6f67602083016000808483855afa5050505050565b6108868484848460405160240161083e9493929190610cf6565b60408051601f198184030181529190526020810180516001600160e01b03167f8eafb02b00000000000000000000000000000000000000000000000000000000179052610803565b50505050565b61048c8383836040516024016108a493929190610d41565b60408051601f198184030181529190526020810180516001600160e01b03167f0d26b92500000000000000000000000000000000000000000000000000000000179052610803565b8280546108f890610ba0565b90600052602060002090601f01602090048101928261091a5760008555610960565b82601f1061093357805160ff1916838001178555610960565b82800160010185558215610960579182015b82811115610960578251825591602001919060010190610945565b5061096c929150610970565b5090565b5b8082111561096c5760008155600101610971565b60006020828403121561099757600080fd5b5035919050565b60005b838110156109b95781810151838201526020016109a1565b838111156108865750506000910152565b600081518084526109e281602086016020860161099e565b601f01601f19169290920160200192915050565b604081526000610a0960408301856109ca565b90508260208301529392505050565b80356001600160a01b0381168114610a2f57600080fd5b919050565b600060208284031215610a4657600080fd5b6105ca82610a18565b634e487b7160e01b600052604160045260246000fd5b600082601f830112610a7657600080fd5b813567ffffffffffffffff80821115610a9157610a91610a4f565b604051601f8301601f19908116603f01168101908282118183101715610ab957610ab9610a4f565b81604052838152866020858801011115610ad257600080fd5b836020870160208301376000602085830101528094505050505092915050565b600060208284031215610b0457600080fd5b813567ffffffffffffffff811115610b1b57600080fd5b610b2784828501610a65565b949350505050565b60008060408385031215610b4257600080fd5b82359150610b5260208401610a18565b90509250929050565b60008060408385031215610b6e57600080fd5b823567ffffffffffffffff811115610b8557600080fd5b610b9185828601610a65565b925050610b5260208401610a18565b600181811c90821680610bb457607f821691505b60208210811415610bd557634e487b7160e01b600052602260045260246000fd5b50919050565b634e487b7160e01b600052601160045260246000fd5b600082821015610c0357610c03610bdb565b500390565b604081526000610c1b60408301856109ca565b90506001600160a01b03831660208301529392505050565b604081526000610c4660408301856109ca565b8281036020840152610c5881856109ca565b95945050505050565b60008251610c7381846020870161099e565b9190910192915050565b600082610c9a57634e487b7160e01b600052601260045260246000fd5b500690565b838152606060208201526000610cb860608301856109ca565b9050826040830152949350505050565b6000600019821415610cdc57610cdc610bdb565b5060010190565b6020815260006105ca60208301846109ca565b608081526000610d0960808301876109ca565b8281036020840152610d1b81876109ca565b90508281036040840152610d2f81866109ca565b91505082606083015295945050505050565b606081526000610d5460608301866109ca565b6001600160a01b03949094166020830152506040015291905056fea2646970667358221220788570a147e40d070648f735bb65d595d8c1b443cb9e26e2c3ba643cb19e0a3064736f6c63430008090033",
  "linkReferences": {},
  "deployedLinkReferences": {}
}