{
  "_format": "hh-sol-artifact-1",
  "contractName": "CFNFT",
  "sourceName": "contracts/CFNFT.sol",
  "abi": [
    {
      "inputs": [],
      "stateMutability": "nonpayable",
      "type": "constructor"
    },
    {
      "anonymous": false,
      "inputs": [
        {
          "indexed": true,
          "internalType": "address",
          "name": "owner",
          "type": "address"
        },
        {
          "indexed": true,
          "internalType": "address",
          "name": "approved",
          "type": "address"
        },
        {
          "indexed": true,
          "internalType": "uint256",
          "name": "tokenId",
          "type": "uint256"
        }
      ],
      "name": "Approval",
      "type": "event"
    },
    {
      "anonymous": false,
      "inputs": [
        {
          "indexed": true,
          "internalType": "address",
          "name": "owner",
          "type": "address"
        },
        {
          "indexed": true,
          "internalType": "address",
          "name": "operator",
          "type": "address"
        },
        {
          "indexed": false,
          "internalType": "bool",
          "name": "approved",
          "type": "bool"
        }
      ],
      "name": "ApprovalForAll",
      "type": "event"
    },
    {
      "anonymous": false,
      "inputs": [
        {
          "indexed": false,
          "internalType": "uint256",
          "name": "tokenId",
          "type": "uint256"
        },
        {
          "indexed": false,
          "internalType": "address",
          "name": "owner",
          "type": "address"
        }
      ],
      "name": "Minted",
      "type": "event"
    },
    {
      "anonymous": false,
      "inputs": [
        {
          "indexed": true,
          "internalType": "address",
          "name": "previousOwner",
          "type": "address"
        },
        {
          "indexed": true,
          "internalType": "address",
          "name": "newOwner",
          "type": "address"
        }
      ],
      "name": "OwnershipTransferred",
      "type": "event"
    },
    {
      "anonymous": false,
      "inputs": [
        {
          "indexed": false,
          "internalType": "address",
          "name": "account",
          "type": "address"
        }
      ],
      "name": "Paused",
      "type": "event"
    },
    {
      "anonymous": false,
      "inputs": [
        {
          "indexed": true,
          "internalType": "bytes32",
          "name": "role",
          "type": "bytes32"
        },
        {
          "indexed": true,
          "internalType": "bytes32",
          "name": "previousAdminRole",
          "type": "bytes32"
        },
        {
          "indexed": true,
          "internalType": "bytes32",
          "name": "newAdminRole",
          "type": "bytes32"
        }
      ],
      "name": "RoleAdminChanged",
      "type": "event"
    },
    {
      "anonymous": false,
      "inputs": [
        {
          "indexed": true,
          "internalType": "bytes32",
          "name": "role",
          "type": "bytes32"
        },
        {
          "indexed": true,
          "internalType": "address",
          "name": "account",
          "type": "address"
        },
        {
          "indexed": true,
          "internalType": "address",
          "name": "sender",
          "type": "address"
        }
      ],
      "name": "RoleGranted",
      "type": "event"
    },
    {
      "anonymous": false,
      "inputs": [
        {
          "indexed": true,
          "internalType": "bytes32",
          "name": "role",
          "type": "bytes32"
        },
        {
          "indexed": true,
          "internalType": "address",
          "name": "account",
          "type": "address"
        },
        {
          "indexed": true,
          "internalType": "address",
          "name": "sender",
          "type": "address"
        }
      ],
      "name": "RoleRevoked",
      "type": "event"
    },
    {
      "anonymous": false,
      "inputs": [
        {
          "indexed": true,
          "internalType": "address",
          "name": "from",
          "type": "address"
        },
        {
          "indexed": true,
          "internalType": "address",
          "name": "to",
          "type": "address"
        },
        {
          "indexed": true,
          "internalType": "uint256",
          "name": "tokenId",
          "type": "uint256"
        }
      ],
      "name": "Transfer",
      "type": "event"
    },
    {
      "anonymous": false,
      "inputs": [
        {
          "indexed": false,
          "internalType": "address",
          "name": "account",
          "type": "address"
        }
      ],
      "name": "Unpaused",
      "type": "event"
    },
    {
      "inputs": [],
      "name": "DEFAULT_ADMIN_ROLE",
      "outputs": [
        {
          "internalType": "bytes32",
          "name": "",
          "type": "bytes32"
        }
      ],
      "stateMutability": "view",
      "type": "function"
    },
    {
      "inputs": [],
      "name": "MAX_TOKENS",
      "outputs": [
        {
          "internalType": "uint256",
          "name": "",
          "type": "uint256"
        }
      ],
      "stateMutability": "view",
      "type": "function"
    },
    {
      "inputs": [],
      "name": "MINTER_ROLE",
      "outputs": [
        {
          "internalType": "bytes32",
          "name": "",
          "type": "bytes32"
        }
      ],
      "stateMutability": "view",
      "type": "function"
    },
    {
      "inputs": [],
      "name": "PAUSER_ROLE",
      "outputs": [
        {
          "internalType": "bytes32",
          "name": "",
          "type": "bytes32"
        }
      ],
      "stateMutability": "view",
      "type": "function"
    },
    {
      "inputs": [
        {
          "internalType": "address",
          "name": "to",
          "type": "address"
        },
        {
          "internalType": "uint256",
          "name": "tokenId",
          "type": "uint256"
        }
      ],
      "name": "approve",
      "outputs": [],
      "stateMutability": "nonpayable",
      "type": "function"
    },
    {
      "inputs": [
        {
          "internalType": "address",
          "name": "owner",
          "type": "address"
        }
      ],
      "name": "balanceOf",
      "outputs": [
        {
          "internalType": "uint256",
          "name": "",
          "type": "uint256"
        }
      ],
      "stateMutability": "view",
      "type": "function"
    },
    {
      "inputs": [
        {
          "internalType": "uint256",
          "name": "tokenId",
          "type": "uint256"
        }
      ],
      "name": "burn",
      "outputs": [],
      "stateMutability": "nonpayable",
      "type": "function"
    },
    {
      "inputs": [
        {
          "internalType": "uint256",
          "name": "tokenId",
          "type": "uint256"
        }
      ],
      "name": "getApproved",
      "outputs": [
        {
          "internalType": "address",
          "name": "",
          "type": "address"
        }
      ],
      "stateMutability": "view",
      "type": "function"
    },
    {
      "inputs": [
        {
          "internalType": "bytes32",
          "name": "role",
          "type": "bytes32"
        }
      ],
      "name": "getRoleAdmin",
      "outputs": [
        {
          "internalType": "bytes32",
          "name": "",
          "type": "bytes32"
        }
      ],
      "stateMutability": "view",
      "type": "function"
    },
    {
      "inputs": [
        {
          "internalType": "bytes32",
          "name": "role",
          "type": "bytes32"
        },
        {
          "internalType": "uint256",
          "name": "index",
          "type": "uint256"
        }
      ],
      "name": "getRoleMember",
      "outputs": [
        {
          "internalType": "address",
          "name": "",
          "type": "address"
        }
      ],
      "stateMutability": "view",
      "type": "function"
    },
    {
      "inputs": [
        {
          "internalType": "bytes32",
          "name": "role",
          "type": "bytes32"
        }
      ],
      "name": "getRoleMemberCount",
      "outputs": [
        {
          "internalType": "uint256",
          "name": "",
          "type": "uint256"
        }
      ],
      "stateMutability": "view",
      "type": "function"
    },
    {
      "inputs": [
        {
          "internalType": "bytes32",
          "name": "role",
          "type": "bytes32"
        },
        {
          "internalType": "address",
          "name": "account",
          "type": "address"
        }
      ],
      "name": "grantRole",
      "outputs": [],
      "stateMutability": "nonpayable",
      "type": "function"
    },
    {
      "inputs": [
        {
          "internalType": "bytes32",
          "name": "role",
          "type": "bytes32"
        },
        {
          "internalType": "address",
          "name": "account",
          "type": "address"
        }
      ],
      "name": "hasRole",
      "outputs": [
        {
          "internalType": "bool",
          "name": "",
          "type": "bool"
        }
      ],
      "stateMutability": "view",
      "type": "function"
    },
    {
      "inputs": [],
      "name": "hasSaleStarted",
      "outputs": [
        {
          "internalType": "bool",
          "name": "",
          "type": "bool"
        }
      ],
      "stateMutability": "view",
      "type": "function"
    },
    {
      "inputs": [],
      "name": "hasSoldOut",
      "outputs": [
        {
          "internalType": "bool",
          "name": "",
          "type": "bool"
        }
      ],
      "stateMutability": "view",
      "type": "function"
    },
    {
      "inputs": [
        {
          "internalType": "address",
          "name": "_owner",
          "type": "address"
        },
        {
          "internalType": "address",
          "name": "_operator",
          "type": "address"
        }
      ],
      "name": "isApprovedForAll",
      "outputs": [
        {
          "internalType": "bool",
          "name": "isOperator",
          "type": "bool"
        }
      ],
      "stateMutability": "view",
      "type": "function"
    },
    {
      "inputs": [
        {
          "internalType": "address",
          "name": "to",
          "type": "address"
        }
      ],
      "name": "mint",
      "outputs": [],
      "stateMutability": "nonpayable",
      "type": "function"
    },
    {
      "inputs": [
        {
          "internalType": "uint256",
          "name": "quantity",
          "type": "uint256"
        },
        {
          "internalType": "address",
          "name": "receiver",
          "type": "address"
        }
      ],
      "name": "mintToken",
      "outputs": [],
      "stateMutability": "payable",
      "type": "function"
    },
    {
      "inputs": [],
      "name": "name",
      "outputs": [
        {
          "internalType": "string",
          "name": "",
          "type": "string"
        }
      ],
      "stateMutability": "view",
      "type": "function"
    },
    {
      "inputs": [],
      "name": "owner",
      "outputs": [
        {
          "internalType": "address",
          "name": "",
          "type": "address"
        }
      ],
      "stateMutability": "view",
      "type": "function"
    },
    {
      "inputs": [
        {
          "internalType": "uint256",
          "name": "tokenId",
          "type": "uint256"
        }
      ],
      "name": "ownerOf",
      "outputs": [
        {
          "internalType": "address",
          "name": "",
          "type": "address"
        }
      ],
      "stateMutability": "view",
      "type": "function"
    },
    {
      "inputs": [],
      "name": "pause",
      "outputs": [],
      "stateMutability": "nonpayable",
      "type": "function"
    },
    {
      "inputs": [],
      "name": "pauseSale",
      "outputs": [],
      "stateMutability": "nonpayable",
      "type": "function"
    },
    {
      "inputs": [],
      "name": "paused",
      "outputs": [
        {
          "internalType": "bool",
          "name": "",
          "type": "bool"
        }
      ],
      "stateMutability": "view",
      "type": "function"
    },
    {
      "inputs": [],
      "name": "renounceOwnership",
      "outputs": [],
      "stateMutability": "nonpayable",
      "type": "function"
    },
    {
      "inputs": [
        {
          "internalType": "bytes32",
          "name": "role",
          "type": "bytes32"
        },
        {
          "internalType": "address",
          "name": "account",
          "type": "address"
        }
      ],
      "name": "renounceRole",
      "outputs": [],
      "stateMutability": "nonpayable",
      "type": "function"
    },
    {
      "inputs": [
        {
          "internalType": "bytes32",
          "name": "role",
          "type": "bytes32"
        },
        {
          "internalType": "address",
          "name": "account",
          "type": "address"
        }
      ],
      "name": "revokeRole",
      "outputs": [],
      "stateMutability": "nonpayable",
      "type": "function"
    },
    {
      "inputs": [
        {
          "internalType": "address",
          "name": "from",
          "type": "address"
        },
        {
          "internalType": "address",
          "name": "to",
          "type": "address"
        },
        {
          "internalType": "uint256",
          "name": "tokenId",
          "type": "uint256"
        }
      ],
      "name": "safeTransferFrom",
      "outputs": [],
      "stateMutability": "nonpayable",
      "type": "function"
    },
    {
      "inputs": [
        {
          "internalType": "address",
          "name": "from",
          "type": "address"
        },
        {
          "internalType": "address",
          "name": "to",
          "type": "address"
        },
        {
          "internalType": "uint256",
          "name": "tokenId",
          "type": "uint256"
        },
        {
          "internalType": "bytes",
          "name": "data",
          "type": "bytes"
        }
      ],
      "name": "safeTransferFrom",
      "outputs": [],
      "stateMutability": "nonpayable",
      "type": "function"
    },
    {
      "inputs": [
        {
          "internalType": "address",
          "name": "operator",
          "type": "address"
        },
        {
          "internalType": "bool",
          "name": "approved",
          "type": "bool"
        }
      ],
      "name": "setApprovalForAll",
      "outputs": [],
      "stateMutability": "nonpayable",
      "type": "function"
    },
    {
      "inputs": [],
      "name": "startSale",
      "outputs": [],
      "stateMutability": "nonpayable",
      "type": "function"
    },
    {
      "inputs": [
        {
          "internalType": "bytes4",
          "name": "interfaceId",
          "type": "bytes4"
        }
      ],
      "name": "supportsInterface",
      "outputs": [
        {
          "internalType": "bool",
          "name": "",
          "type": "bool"
        }
      ],
      "stateMutability": "view",
      "type": "function"
    },
    {
      "inputs": [],
      "name": "symbol",
      "outputs": [
        {
          "internalType": "string",
          "name": "",
          "type": "string"
        }
      ],
      "stateMutability": "view",
      "type": "function"
    },
    {
      "inputs": [
        {
          "internalType": "uint256",
          "name": "index",
          "type": "uint256"
        }
      ],
      "name": "tokenByIndex",
      "outputs": [
        {
          "internalType": "uint256",
          "name": "",
          "type": "uint256"
        }
      ],
      "stateMutability": "view",
      "type": "function"
    },
    {
      "inputs": [
        {
          "internalType": "uint256",
          "name": "tokenId",
          "type": "uint256"
        }
      ],
      "name": "tokenExists",
      "outputs": [
        {
          "internalType": "bool",
          "name": "",
          "type": "bool"
        }
      ],
      "stateMutability": "view",
      "type": "function"
    },
    {
      "inputs": [
        {
          "internalType": "address",
          "name": "owner",
          "type": "address"
        },
        {
          "internalType": "uint256",
          "name": "index",
          "type": "uint256"
        }
      ],
      "name": "tokenOfOwnerByIndex",
      "outputs": [
        {
          "internalType": "uint256",
          "name": "",
          "type": "uint256"
        }
      ],
      "stateMutability": "view",
      "type": "function"
    },
    {
      "inputs": [
        {
          "internalType": "uint256",
          "name": "tokenId",
          "type": "uint256"
        }
      ],
      "name": "tokenURI",
      "outputs": [
        {
          "internalType": "string",
          "name": "",
          "type": "string"
        }
      ],
      "stateMutability": "view",
      "type": "function"
    },
    {
      "inputs": [],
      "name": "totalSupply",
      "outputs": [
        {
          "internalType": "uint256",
          "name": "",
          "type": "uint256"
        }
      ],
      "stateMutability": "view",
      "type": "function"
    },
    {
      "inputs": [
        {
          "internalType": "address",
          "name": "from",
          "type": "address"
        },
        {
          "internalType": "address",
          "name": "to",
          "type": "address"
        },
        {
          "internalType": "uint256",
          "name": "tokenId",
          "type": "uint256"
        }
      ],
      "name": "transferFrom",
      "outputs": [],
      "stateMutability": "nonpayable",
      "type": "function"
    },
    {
      "inputs": [
        {
          "internalType": "address",
          "name": "newOwner",
          "type": "address"
        }
      ],
      "name": "transferOwnership",
      "outputs": [],
      "stateMutability": "nonpayable",
      "type": "function"
    },
    {
      "inputs": [],
      "name": "unpause",
      "outputs": [],
      "stateMutability": "nonpayable",
      "type": "function"
    }
  ],
  "bytecode": "0x60806040526000600f60146101000a81548160ff0219169083151502179055503480156200002c57600080fd5b506040518060400160405280600581526020017f43464e46540000000000000000000000000000000000000000000000000000008152506040518060400160405280600581526020017f43464e465400000000000000000000000000000000000000000000000000000081525060405180606001604052806025815260200162005efb6025913982828160029080519060200190620000cd9291906200060f565b508060039080519060200190620000e69291906200060f565b5050506000600c60006101000a81548160ff02191690831515021790555080600e90805190602001906200011c9291906200060f565b50620001416000801b62000135620001ec60201b60201c565b6200020860201b60201c565b620001827f9f2df0fed2c77648de5860a4cc508cd0818c85b8b8a1ab4ceeef8d981c8956a662000176620001ec60201b60201c565b6200020860201b60201c565b620001c37f65d7a28e3265b37a6474929f336521b332c1681b933f6cb9f3376673440d862a620001b7620001ec60201b60201c565b6200020860201b60201c565b505050620001e6620001da620001ec60201b60201c565b6200021e60201b60201c565b62000724565b600062000203620002e460201b620017d21760201c565b905090565b6200021a82826200039760201b60201c565b5050565b6000600f60009054906101000a900473ffffffffffffffffffffffffffffffffffffffff16905081600f60006101000a81548173ffffffffffffffffffffffffffffffffffffffff021916908373ffffffffffffffffffffffffffffffffffffffff1602179055508173ffffffffffffffffffffffffffffffffffffffff168173ffffffffffffffffffffffffffffffffffffffff167f8be0079c531659141344cd1fd0a4f28419497f9722a3daafe3b4186f6b6457e060405160405180910390a35050565b60003073ffffffffffffffffffffffffffffffffffffffff163373ffffffffffffffffffffffffffffffffffffffff1614156200039057600080368080601f016020809104026020016040519081016040528093929190818152602001838380828437600081840152601f19601f820116905080830192505050505050509050600080369050905073ffffffffffffffffffffffffffffffffffffffff81830151169250505062000394565b3390505b90565b620003ae8282620003df60201b620018831760201c565b620003da8160016000858152602001908152602001600020620004d060201b620019631790919060201c565b505050565b620003f182826200050860201b60201c565b620004cc57600160008084815260200190815260200160002060000160008373ffffffffffffffffffffffffffffffffffffffff1673ffffffffffffffffffffffffffffffffffffffff16815260200190815260200160002060006101000a81548160ff02191690831515021790555062000471620001ec60201b60201c565b73ffffffffffffffffffffffffffffffffffffffff168173ffffffffffffffffffffffffffffffffffffffff16837f2f8788117e7eff1d82e926ec794901d17c78024a50270940304540a733656f0d60405160405180910390a45b5050565b600062000500836000018373ffffffffffffffffffffffffffffffffffffffff1660001b6200057260201b60201c565b905092915050565b600080600084815260200190815260200160002060000160008373ffffffffffffffffffffffffffffffffffffffff1673ffffffffffffffffffffffffffffffffffffffff16815260200190815260200160002060009054906101000a900460ff16905092915050565b6000620005868383620005ec60201b60201c565b620005e1578260000182908060018154018082558091505060019003906000526020600020016000909190919091505582600001805490508360010160008481526020019081526020016000208190555060019050620005e6565b600090505b92915050565b600080836001016000848152602001908152602001600020541415905092915050565b8280546200061d90620006bf565b90600052602060002090601f0160209004810192826200064157600085556200068d565b82601f106200065c57805160ff19168380011785556200068d565b828001600101855582156200068d579182015b828111156200068c5782518255916020019190600101906200066f565b5b5090506200069c9190620006a0565b5090565b5b80821115620006bb576000816000905550600101620006a1565b5090565b60006002820490506001821680620006d857607f821691505b60208210811415620006ef57620006ee620006f5565b5b50919050565b7f4e487b7100000000000000000000000000000000000000000000000000000000600052602260045260246000fd5b6157c780620007346000396000f3fe6080604052600436106102455760003560e01c80636a62784211610139578063a22cb465116100b6578063d53913931161007a578063d53913931461087e578063d547741f146108a9578063e63ab1e9146108d2578063e985e9c5146108fd578063f2fde38b1461093a578063f47c84c51461096357610245565b8063a22cb4651461079b578063b66a0e5d146107c4578063b88d4fde146107db578063c87b56dd14610804578063ca15c8731461084157610245565b80639010d07c116100fd5780639010d07c146106af57806391d14854146106ec57806395d89b4114610729578063a140ae2314610754578063a217fddf1461077057610245565b80636a627842146105f057806370a0823114610619578063715018a6146106565780638456cb591461066d5780638da5cb5b1461068457610245565b80632f2ff15d116101c757806342966c681161018b57806342966c681461050b5780634f6ccce71461053457806355367ba9146105715780635c975abb146105885780636352211e146105b357610245565b80632f2ff15d1461043c5780632f745c591461046557806336568abe146104a25780633f4ba83a146104cb57806342842e0e146104e257610245565b8063095ea7b31161020e578063095ea7b31461035757806318160ddd146103805780631c8b232d146103ab57806323b872dd146103d6578063248a9ca3146103ff57610245565b8062923f9e1461024a57806301ffc9a71461028757806303824f76146102c457806306fdde03146102ef578063081812fc1461031a575b600080fd5b34801561025657600080fd5b50610271600480360381019061026c9190614200565b61098e565b60405161027e9190614823565b60405180910390f35b34801561029357600080fd5b506102ae60048036038101906102a991906141ae565b6109a0565b6040516102bb9190614823565b60405180910390f35b3480156102d057600080fd5b506102d96109b2565b6040516102e69190614823565b60405180910390f35b3480156102fb57600080fd5b506103046109d5565b6040516103119190614859565b60405180910390f35b34801561032657600080fd5b50610341600480360381019061033c9190614200565b610a67565b60405161034e91906147bc565b60405180910390f35b34801561036357600080fd5b5061037e600480360381019061037991906140d1565b610aad565b005b34801561038c57600080fd5b50610395610bc5565b6040516103a29190614bfb565b60405180910390f35b3480156103b757600080fd5b506103c0610bd2565b6040516103cd9190614823565b60405180910390f35b3480156103e257600080fd5b506103fd60048036038101906103f89190613fcb565b610be5565b005b34801561040b57600080fd5b506104266004803603810190610421919061410d565b610c45565b604051610433919061483e565b60405180910390f35b34801561044857600080fd5b50610463600480360381019061045e9190614136565b610c64565b005b34801561047157600080fd5b5061048c600480360381019061048791906140d1565b610c85565b6040516104999190614bfb565b60405180910390f35b3480156104ae57600080fd5b506104c960048036038101906104c49190614136565b610d2a565b005b3480156104d757600080fd5b506104e0610dad565b005b3480156104ee57600080fd5b5061050960048036038101906105049190613fcb565b610e27565b005b34801561051757600080fd5b50610532600480360381019061052d9190614200565b610e47565b005b34801561054057600080fd5b5061055b60048036038101906105569190614200565b610ea3565b6040516105689190614bfb565b60405180910390f35b34801561057d57600080fd5b50610586610f3a565b005b34801561059457600080fd5b5061059d610f5f565b6040516105aa9190614823565b60405180910390f35b3480156105bf57600080fd5b506105da60048036038101906105d59190614200565b610f76565b6040516105e791906147bc565b60405180910390f35b3480156105fc57600080fd5b5061061760048036038101906106129190613f66565b610ffd565b005b34801561062557600080fd5b50610640600480360381019061063b9190613f66565b61108d565b60405161064d9190614bfb565b60405180910390f35b34801561066257600080fd5b5061066b611145565b005b34801561067957600080fd5b50610682611159565b005b34801561069057600080fd5b506106996111d3565b6040516106a691906147bc565b60405180910390f35b3480156106bb57600080fd5b506106d660048036038101906106d19190614172565b6111fd565b6040516106e391906147bc565b60405180910390f35b3480156106f857600080fd5b50610713600480360381019061070e9190614136565b61122c565b6040516107209190614823565b60405180910390f35b34801561073557600080fd5b5061073e611296565b60405161074b9190614859565b60405180910390f35b61076e60048036038101906107699190614229565b611328565b005b34801561077c57600080fd5b50610785611549565b604051610792919061483e565b60405180910390f35b3480156107a757600080fd5b506107c260048036038101906107bd9190614095565b611550565b005b3480156107d057600080fd5b506107d9611566565b005b3480156107e757600080fd5b5061080260048036038101906107fd919061401a565b61158b565b005b34801561081057600080fd5b5061082b60048036038101906108269190614200565b6115ed565b6040516108389190614859565b60405180910390f35b34801561084d57600080fd5b506108686004803603810190610863919061410d565b611655565b6040516108759190614bfb565b60405180910390f35b34801561088a57600080fd5b50610893611679565b6040516108a0919061483e565b60405180910390f35b3480156108b557600080fd5b506108d060048036038101906108cb9190614136565b61169d565b005b3480156108de57600080fd5b506108e76116be565b6040516108f4919061483e565b60405180910390f35b34801561090957600080fd5b50610924600480360381019061091f9190613f8f565b6116e2565b6040516109319190614823565b60405180910390f35b34801561094657600080fd5b50610961600480360381019061095c9190613f66565b611748565b005b34801561096f57600080fd5b506109786117cc565b6040516109859190614bfb565b60405180910390f35b600061099982611993565b9050919050565b60006109ab826119d4565b9050919050565b60006108006109bf610bc5565b106109cd57600190506109d2565b600090505b90565b6060600280546109e490614ea6565b80601f0160208091040260200160405190810160405280929190818152602001828054610a1090614ea6565b8015610a5d5780601f10610a3257610100808354040283529160200191610a5d565b820191906000526020600020905b815481529060010190602001808311610a4057829003601f168201915b5050505050905090565b6000610a7282611a4e565b6006600083815260200190815260200160002060009054906101000a900473ffffffffffffffffffffffffffffffffffffffff169050919050565b6000610ab882610f76565b90508073ffffffffffffffffffffffffffffffffffffffff168373ffffffffffffffffffffffffffffffffffffffff161415610b29576040517f08c379a0000000000000000000000000000000000000000000000000000000008152600401610b2090614b1b565b60405180910390fd5b8073ffffffffffffffffffffffffffffffffffffffff16610b48611a99565b73ffffffffffffffffffffffffffffffffffffffff161480610b775750610b7681610b71611a99565b6116e2565b5b610bb6576040517f08c379a0000000000000000000000000000000000000000000000000000000008152600401610bad90614b3b565b60405180910390fd5b610bc08383611aa8565b505050565b6000600a80549050905090565b600f60149054906101000a900460ff1681565b610bf6610bf0611a99565b82611b61565b610c35576040517f08c379a0000000000000000000000000000000000000000000000000000000008152600401610c2c906148fb565b60405180910390fd5b610c40838383611bf6565b505050565b6000806000838152602001908152602001600020600101549050919050565b610c6d82610c45565b610c7681611ef0565b610c808383611f04565b505050565b6000610c908361108d565b8210610cd1576040517f08c379a0000000000000000000000000000000000000000000000000000000008152600401610cc89061491b565b60405180910390fd5b600860008473ffffffffffffffffffffffffffffffffffffffff1673ffffffffffffffffffffffffffffffffffffffff168152602001908152602001600020600083815260200190815260200160002054905092915050565b610d32611a99565b73ffffffffffffffffffffffffffffffffffffffff168173ffffffffffffffffffffffffffffffffffffffff1614610d9f576040517f08c379a0000000000000000000000000000000000000000000000000000000008152600401610d9690614bdb565b60405180910390fd5b610da98282611f38565b5050565b610dde7f65d7a28e3265b37a6474929f336521b332c1681b933f6cb9f3376673440d862a610dd9611a99565b61122c565b610e1d576040517f08c379a0000000000000000000000000000000000000000000000000000000008152600401610e1490614bbb565b60405180910390fd5b610e25611f6c565b565b610e428383836040518060200160405280600081525061158b565b505050565b610e58610e52611a99565b82611b61565b610e97576040517f08c379a0000000000000000000000000000000000000000000000000000000008152600401610e8e906148fb565b60405180910390fd5b610ea081611fcf565b50565b6000610ead610bc5565b8210610eee576040517f08c379a0000000000000000000000000000000000000000000000000000000008152600401610ee590614b5b565b60405180910390fd5b600a8281548110610f28577f4e487b7100000000000000000000000000000000000000000000000000000000600052603260045260246000fd5b90600052602060002001549050919050565b610f4261211d565b6000600f60146101000a81548160ff021916908315150217905550565b6000600c60009054906101000a900460ff16905090565b600080610f828361219b565b9050600073ffffffffffffffffffffffffffffffffffffffff168173ffffffffffffffffffffffffffffffffffffffff161415610ff4576040517f08c379a0000000000000000000000000000000000000000000000000000000008152600401610feb90614afb565b60405180910390fd5b80915050919050565b61102e7f9f2df0fed2c77648de5860a4cc508cd0818c85b8b8a1ab4ceeef8d981c8956a6611029611a99565b61122c565b61106d576040517f08c379a000000000000000000000000000000000000000000000000000000000815260040161106490614b9b565b60405180910390fd5b6110808161107b600d6121d8565b6121e6565b61108a600d612404565b50565b60008073ffffffffffffffffffffffffffffffffffffffff168273ffffffffffffffffffffffffffffffffffffffff1614156110fe576040517f08c379a00000000000000000000000000000000000000000000000000000000081526004016110f590614a5b565b60405180910390fd5b600560008373ffffffffffffffffffffffffffffffffffffffff1673ffffffffffffffffffffffffffffffffffffffff168152602001908152602001600020549050919050565b61114d61211d565b611157600061241a565b565b61118a7f65d7a28e3265b37a6474929f336521b332c1681b933f6cb9f3376673440d862a611185611a99565b61122c565b6111c9576040517f08c379a00000000000000000000000000000000000000000000000000000000081526004016111c0906149bb565b60405180910390fd5b6111d16124e0565b565b6000600f60009054906101000a900473ffffffffffffffffffffffffffffffffffffffff16905090565b6000611224826001600086815260200190815260200160002061254390919063ffffffff16565b905092915050565b600080600084815260200190815260200160002060000160008373ffffffffffffffffffffffffffffffffffffffff1673ffffffffffffffffffffffffffffffffffffffff16815260200190815260200160002060009054906101000a900460ff16905092915050565b6060600380546112a590614ea6565b80601f01602080910402602001604051908101604052809291908181526020018280546112d190614ea6565b801561131e5780601f106112f35761010080835404028352916020019161131e565b820191906000526020600020905b81548152906001019060200180831161130157829003601f168201915b5050505050905090565b600f60149054906101000a900460ff168061137557506113466111d3565b73ffffffffffffffffffffffffffffffffffffffff163373ffffffffffffffffffffffffffffffffffffffff16145b6113b4576040517f08c379a00000000000000000000000000000000000000000000000000000000081526004016113ab906148db565b60405180910390fd5b600082116113f7576040517f08c379a00000000000000000000000000000000000000000000000000000000081526004016113ee90614a7b565b60405180910390fd5b600382111561143b576040517f08c379a000000000000000000000000000000000000000000000000000000000815260040161143290614adb565b60405180910390fd5b6108006114588361144a610bc5565b61255d90919063ffffffff16565b11158061149757506114686111d3565b73ffffffffffffffffffffffffffffffffffffffff163373ffffffffffffffffffffffffffffffffffffffff16145b6114d6576040517f08c379a00000000000000000000000000000000000000000000000000000000081526004016114cd90614a1b565b60405180910390fd5b60005b828110156115445760006114eb610bc5565b90506114f78382612573565b7fb9203d657e9c0ec8274c818292ab0f58b04e1970050716891770eb1bab5d655e8184604051611528929190614c16565b60405180910390a150808061153c90614f09565b9150506114d9565b505050565b6000801b81565b61156261155b611a99565b8383612591565b5050565b61156e61211d565b6001600f60146101000a81548160ff021916908315150217905550565b61159c611596611a99565b83611b61565b6115db576040517f08c379a00000000000000000000000000000000000000000000000000000000081526004016115d2906148fb565b60405180910390fd5b6115e7848484846126fe565b50505050565b60606115f882611a4e565b600061160261275a565b90506000815111611622576040518060200160405280600081525061164d565b8061162c846127ec565b60405160200161163d92919061475e565b6040516020818303038152906040525b915050919050565b600061167260016000848152602001908152602001600020612910565b9050919050565b7f9f2df0fed2c77648de5860a4cc508cd0818c85b8b8a1ab4ceeef8d981c8956a681565b6116a682610c45565b6116af81611ef0565b6116b98383611f38565b505050565b7f65d7a28e3265b37a6474929f336521b332c1681b933f6cb9f3376673440d862a81565b60007358807bad0b376efc12f5ad86aac70e78ed67deae73ffffffffffffffffffffffffffffffffffffffff168273ffffffffffffffffffffffffffffffffffffffff1614156117355760019050611742565b61173f8383612925565b90505b92915050565b61175061211d565b600073ffffffffffffffffffffffffffffffffffffffff168173ffffffffffffffffffffffffffffffffffffffff1614156117c0576040517f08c379a00000000000000000000000000000000000000000000000000000000081526004016117b79061495b565b60405180910390fd5b6117c98161241a565b50565b61080081565b60003073ffffffffffffffffffffffffffffffffffffffff163373ffffffffffffffffffffffffffffffffffffffff16141561187c57600080368080601f016020809104026020016040519081016040528093929190818152602001838380828437600081840152601f19601f820116905080830192505050505050509050600080369050905073ffffffffffffffffffffffffffffffffffffffff818301511692505050611880565b3390505b90565b61188d828261122c565b61195f57600160008084815260200190815260200160002060000160008373ffffffffffffffffffffffffffffffffffffffff1673ffffffffffffffffffffffffffffffffffffffff16815260200190815260200160002060006101000a81548160ff021916908315150217905550611904611a99565b73ffffffffffffffffffffffffffffffffffffffff168173ffffffffffffffffffffffffffffffffffffffff16837f2f8788117e7eff1d82e926ec794901d17c78024a50270940304540a733656f0d60405160405180910390a45b5050565b600061198b836000018373ffffffffffffffffffffffffffffffffffffffff1660001b6129b9565b905092915050565b60008073ffffffffffffffffffffffffffffffffffffffff166119b58361219b565b73ffffffffffffffffffffffffffffffffffffffff1614159050919050565b60007f780e9d63000000000000000000000000000000000000000000000000000000007bffffffffffffffffffffffffffffffffffffffffffffffffffffffff1916827bffffffffffffffffffffffffffffffffffffffffffffffffffffffff19161480611a475750611a4682612a29565b5b9050919050565b611a5781611993565b611a96576040517f08c379a0000000000000000000000000000000000000000000000000000000008152600401611a8d90614afb565b60405180910390fd5b50565b6000611aa36117d2565b905090565b816006600083815260200190815260200160002060006101000a81548173ffffffffffffffffffffffffffffffffffffffff021916908373ffffffffffffffffffffffffffffffffffffffff160217905550808273ffffffffffffffffffffffffffffffffffffffff16611b1b83610f76565b73ffffffffffffffffffffffffffffffffffffffff167f8c5be1e5ebec7d5bd14f71427d1e84f3dd0314c0f7b2291e5b200ac8c7c3b92560405160405180910390a45050565b600080611b6d83610f76565b90508073ffffffffffffffffffffffffffffffffffffffff168473ffffffffffffffffffffffffffffffffffffffff161480611baf5750611bae81856116e2565b5b80611bed57508373ffffffffffffffffffffffffffffffffffffffff16611bd584610a67565b73ffffffffffffffffffffffffffffffffffffffff16145b91505092915050565b8273ffffffffffffffffffffffffffffffffffffffff16611c1682610f76565b73ffffffffffffffffffffffffffffffffffffffff1614611c6c576040517f08c379a0000000000000000000000000000000000000000000000000000000008152600401611c639061497b565b60405180910390fd5b600073ffffffffffffffffffffffffffffffffffffffff168273ffffffffffffffffffffffffffffffffffffffff161415611cdc576040517f08c379a0000000000000000000000000000000000000000000000000000000008152600401611cd3906149db565b60405180910390fd5b611ce98383836001612b0b565b8273ffffffffffffffffffffffffffffffffffffffff16611d0982610f76565b73ffffffffffffffffffffffffffffffffffffffff1614611d5f576040517f08c379a0000000000000000000000000000000000000000000000000000000008152600401611d569061497b565b60405180910390fd5b6006600082815260200190815260200160002060006101000a81549073ffffffffffffffffffffffffffffffffffffffff02191690556001600560008573ffffffffffffffffffffffffffffffffffffffff1673ffffffffffffffffffffffffffffffffffffffff168152602001908152602001600020600082825403925050819055506001600560008473ffffffffffffffffffffffffffffffffffffffff1673ffffffffffffffffffffffffffffffffffffffff16815260200190815260200160002060008282540192505081905550816004600083815260200190815260200160002060006101000a81548173ffffffffffffffffffffffffffffffffffffffff021916908373ffffffffffffffffffffffffffffffffffffffff160217905550808273ffffffffffffffffffffffffffffffffffffffff168473ffffffffffffffffffffffffffffffffffffffff167fddf252ad1be2c89b69c2b068fc378daa952ba7f163c4a11628f55a4df523b3ef60405160405180910390a4611eeb8383836001612b1d565b505050565b611f0181611efc611a99565b612b23565b50565b611f0e8282611883565b611f33816001600085815260200190815260200160002061196390919063ffffffff16565b505050565b611f428282612ba8565b611f678160016000858152602001908152602001600020612c8990919063ffffffff16565b505050565b611f74612cb9565b6000600c60006101000a81548160ff0219169083151502179055507f5db9ee0a495bf2e6ff9c91a7834c1ba4fdd244a5e8aa4e537bd38aeae4b073aa611fb8611a99565b604051611fc591906147bc565b60405180910390a1565b6000611fda82610f76565b9050611fea816000846001612b0b565b611ff382610f76565b90506006600083815260200190815260200160002060006101000a81549073ffffffffffffffffffffffffffffffffffffffff02191690556001600560008373ffffffffffffffffffffffffffffffffffffffff1673ffffffffffffffffffffffffffffffffffffffff168152602001908152602001600020600082825403925050819055506004600083815260200190815260200160002060006101000a81549073ffffffffffffffffffffffffffffffffffffffff021916905581600073ffffffffffffffffffffffffffffffffffffffff168273ffffffffffffffffffffffffffffffffffffffff167fddf252ad1be2c89b69c2b068fc378daa952ba7f163c4a11628f55a4df523b3ef60405160405180910390a4612119816000846001612b1d565b5050565b612125611a99565b73ffffffffffffffffffffffffffffffffffffffff166121436111d3565b73ffffffffffffffffffffffffffffffffffffffff1614612199576040517f08c379a000000000000000000000000000000000000000000000000000000000815260040161219090614abb565b60405180910390fd5b565b60006004600083815260200190815260200160002060009054906101000a900473ffffffffffffffffffffffffffffffffffffffff169050919050565b600081600001549050919050565b600073ffffffffffffffffffffffffffffffffffffffff168273ffffffffffffffffffffffffffffffffffffffff161415612256576040517f08c379a000000000000000000000000000000000000000000000000000000000815260040161224d90614a9b565b60405180910390fd5b61225f81611993565b1561229f576040517f08c379a00000000000000000000000000000000000000000000000000000000081526004016122969061499b565b60405180910390fd5b6122ad600083836001612b0b565b6122b681611993565b156122f6576040517f08c379a00000000000000000000000000000000000000000000000000000000081526004016122ed9061499b565b60405180910390fd5b6001600560008473ffffffffffffffffffffffffffffffffffffffff1673ffffffffffffffffffffffffffffffffffffffff16815260200190815260200160002060008282540192505081905550816004600083815260200190815260200160002060006101000a81548173ffffffffffffffffffffffffffffffffffffffff021916908373ffffffffffffffffffffffffffffffffffffffff160217905550808273ffffffffffffffffffffffffffffffffffffffff16600073ffffffffffffffffffffffffffffffffffffffff167fddf252ad1be2c89b69c2b068fc378daa952ba7f163c4a11628f55a4df523b3ef60405160405180910390a4612400600083836001612b1d565b5050565b6001816000016000828254019250508190555050565b6000600f60009054906101000a900473ffffffffffffffffffffffffffffffffffffffff16905081600f60006101000a81548173ffffffffffffffffffffffffffffffffffffffff021916908373ffffffffffffffffffffffffffffffffffffffff1602179055508173ffffffffffffffffffffffffffffffffffffffff168173ffffffffffffffffffffffffffffffffffffffff167f8be0079c531659141344cd1fd0a4f28419497f9722a3daafe3b4186f6b6457e060405160405180910390a35050565b6124e8612d02565b6001600c60006101000a81548160ff0219169083151502179055507f62e78cea01bee320cd4e420270b5ea74000d11b0c9f74754ebdbfc544b05a25861252c611a99565b60405161253991906147bc565b60405180910390a1565b60006125528360000183612d4c565b60001c905092915050565b6000818361256b9190614cd8565b905092915050565b61258d828260405180602001604052806000815250612d9d565b5050565b8173ffffffffffffffffffffffffffffffffffffffff168373ffffffffffffffffffffffffffffffffffffffff161415612600576040517f08c379a00000000000000000000000000000000000000000000000000000000081526004016125f7906149fb565b60405180910390fd5b80600760008573ffffffffffffffffffffffffffffffffffffffff1673ffffffffffffffffffffffffffffffffffffffff16815260200190815260200160002060008473ffffffffffffffffffffffffffffffffffffffff1673ffffffffffffffffffffffffffffffffffffffff16815260200190815260200160002060006101000a81548160ff0219169083151502179055508173ffffffffffffffffffffffffffffffffffffffff168373ffffffffffffffffffffffffffffffffffffffff167f17307eab39ab6107e8899845ad3d59bd9653f200f220920489ca2b5937696c31836040516126f19190614823565b60405180910390a3505050565b612709848484611bf6565b61271584848484612df8565b612754576040517f08c379a000000000000000000000000000000000000000000000000000000000815260040161274b9061493b565b60405180910390fd5b50505050565b6060600e805461276990614ea6565b80601f016020809104026020016040519081016040528092919081815260200182805461279590614ea6565b80156127e25780601f106127b7576101008083540402835291602001916127e2565b820191906000526020600020905b8154815290600101906020018083116127c557829003601f168201915b5050505050905090565b6060600060016127fb84612f8f565b01905060008167ffffffffffffffff811115612840577f4e487b7100000000000000000000000000000000000000000000000000000000600052604160045260246000fd5b6040519080825280601f01601f1916602001820160405280156128725781602001600182028036833780820191505090505b509050600082602001820190505b600115612905578080600190039150507f3031323334353637383961626364656600000000000000000000000000000000600a86061a8153600a85816128ef577f4e487b7100000000000000000000000000000000000000000000000000000000600052601260045260246000fd5b049450600085141561290057612905565b612880565b819350505050919050565b600061291e826000016131c6565b9050919050565b6000600760008473ffffffffffffffffffffffffffffffffffffffff1673ffffffffffffffffffffffffffffffffffffffff16815260200190815260200160002060008373ffffffffffffffffffffffffffffffffffffffff1673ffffffffffffffffffffffffffffffffffffffff16815260200190815260200160002060009054906101000a900460ff16905092915050565b60006129c583836131d7565b612a1e578260000182908060018154018082558091505060019003906000526020600020016000909190919091505582600001805490508360010160008481526020019081526020016000208190555060019050612a23565b600090505b92915050565b60007f80ac58cd000000000000000000000000000000000000000000000000000000007bffffffffffffffffffffffffffffffffffffffffffffffffffffffff1916827bffffffffffffffffffffffffffffffffffffffffffffffffffffffff19161480612af457507f5b5e139f000000000000000000000000000000000000000000000000000000007bffffffffffffffffffffffffffffffffffffffffffffffffffffffff1916827bffffffffffffffffffffffffffffffffffffffffffffffffffffffff1916145b80612b045750612b03826131fa565b5b9050919050565b612b1784848484613274565b50505050565b50505050565b612b2d828261122c565b612ba457612b3a816132ce565b612b488360001c60206132fb565b604051602001612b59929190614782565b6040516020818303038152906040526040517f08c379a0000000000000000000000000000000000000000000000000000000008152600401612b9b9190614859565b60405180910390fd5b5050565b612bb2828261122c565b15612c8557600080600084815260200190815260200160002060000160008373ffffffffffffffffffffffffffffffffffffffff1673ffffffffffffffffffffffffffffffffffffffff16815260200190815260200160002060006101000a81548160ff021916908315150217905550612c2a611a99565b73ffffffffffffffffffffffffffffffffffffffff168173ffffffffffffffffffffffffffffffffffffffff16837ff6391f5c32d9c69d2a47ea670b442974b53935d1edc7fd64eb21e047a839171b60405160405180910390a45b5050565b6000612cb1836000018373ffffffffffffffffffffffffffffffffffffffff1660001b6135f5565b905092915050565b612cc1610f5f565b612d00576040517f08c379a0000000000000000000000000000000000000000000000000000000008152600401612cf7906148bb565b60405180910390fd5b565b612d0a610f5f565b15612d4a576040517f08c379a0000000000000000000000000000000000000000000000000000000008152600401612d4190614a3b565b60405180910390fd5b565b6000826000018281548110612d8a577f4e487b7100000000000000000000000000000000000000000000000000000000600052603260045260246000fd5b9060005260206000200154905092915050565b612da783836121e6565b612db46000848484612df8565b612df3576040517f08c379a0000000000000000000000000000000000000000000000000000000008152600401612dea9061493b565b60405180910390fd5b505050565b6000612e198473ffffffffffffffffffffffffffffffffffffffff1661377b565b15612f82578373ffffffffffffffffffffffffffffffffffffffff1663150b7a02612e42611a99565b8786866040518563ffffffff1660e01b8152600401612e6494939291906147d7565b602060405180830381600087803b158015612e7e57600080fd5b505af1925050508015612eaf57506040513d601f19601f82011682018060405250810190612eac91906141d7565b60015b612f32573d8060008114612edf576040519150601f19603f3d011682016040523d82523d6000602084013e612ee4565b606091505b50600081511415612f2a576040517f08c379a0000000000000000000000000000000000000000000000000000000008152600401612f219061493b565b60405180910390fd5b805181602001fd5b63150b7a0260e01b7bffffffffffffffffffffffffffffffffffffffffffffffffffffffff1916817bffffffffffffffffffffffffffffffffffffffffffffffffffffffff191614915050612f87565b600190505b949350505050565b600080600090507a184f03e93ff9f4daa797ed6e38ed64bf6a1f0100000000000000008310613013577a184f03e93ff9f4daa797ed6e38ed64bf6a1f0100000000000000008381613009577f4e487b7100000000000000000000000000000000000000000000000000000000600052601260045260246000fd5b0492506040810190505b6d04ee2d6d415b85acef81000000008310613076576d04ee2d6d415b85acef8100000000838161306c577f4e487b7100000000000000000000000000000000000000000000000000000000600052601260045260246000fd5b0492506020810190505b662386f26fc1000083106130cb57662386f26fc1000083816130c1577f4e487b7100000000000000000000000000000000000000000000000000000000600052601260045260246000fd5b0492506010810190505b6305f5e100831061311a576305f5e1008381613110577f4e487b7100000000000000000000000000000000000000000000000000000000600052601260045260246000fd5b0492506008810190505b612710831061316557612710838161315b577f4e487b7100000000000000000000000000000000000000000000000000000000600052601260045260246000fd5b0492506004810190505b606483106131ae57606483816131a4577f4e487b7100000000000000000000000000000000000000000000000000000000600052601260045260246000fd5b0492506002810190505b600a83106131bd576001810190505b80915050919050565b600081600001805490509050919050565b600080836001016000848152602001908152602001600020541415905092915050565b60007f5a05180f000000000000000000000000000000000000000000000000000000007bffffffffffffffffffffffffffffffffffffffffffffffffffffffff1916827bffffffffffffffffffffffffffffffffffffffffffffffffffffffff1916148061326d575061326c8261379e565b5b9050919050565b61328084848484613818565b613288610f5f565b156132c8576040517f08c379a00000000000000000000000000000000000000000000000000000000081526004016132bf9061489b565b60405180910390fd5b50505050565b60606132f48273ffffffffffffffffffffffffffffffffffffffff16601460ff166132fb565b9050919050565b60606000600283600261330e9190614d2e565b6133189190614cd8565b67ffffffffffffffff811115613357577f4e487b7100000000000000000000000000000000000000000000000000000000600052604160045260246000fd5b6040519080825280601f01601f1916602001820160405280156133895781602001600182028036833780820191505090505b5090507f3000000000000000000000000000000000000000000000000000000000000000816000815181106133e7577f4e487b7100000000000000000000000000000000000000000000000000000000600052603260045260246000fd5b60200101907effffffffffffffffffffffffffffffffffffffffffffffffffffffffffffff1916908160001a9053507f780000000000000000000000000000000000000000000000000000000000000081600181518110613471577f4e487b7100000000000000000000000000000000000000000000000000000000600052603260045260246000fd5b60200101907effffffffffffffffffffffffffffffffffffffffffffffffffffffffffffff1916908160001a905350600060018460026134b19190614d2e565b6134bb9190614cd8565b90505b60018111156135a7577f3031323334353637383961626364656600000000000000000000000000000000600f861660108110613523577f4e487b7100000000000000000000000000000000000000000000000000000000600052603260045260246000fd5b1a60f81b828281518110613560577f4e487b7100000000000000000000000000000000000000000000000000000000600052603260045260246000fd5b60200101907effffffffffffffffffffffffffffffffffffffffffffffffffffffffffffff1916908160001a905350600485901c9450806135a090614e7c565b90506134be565b50600084146135eb576040517f08c379a00000000000000000000000000000000000000000000000000000000081526004016135e29061487b565b60405180910390fd5b8091505092915050565b6000808360010160008481526020019081526020016000205490506000811461376f5760006001826136279190614d88565b905060006001866000018054905061363f9190614d88565b90508181146136fa576000866000018281548110613686577f4e487b7100000000000000000000000000000000000000000000000000000000600052603260045260246000fd5b90600052602060002001549050808760000184815481106136d0577f4e487b7100000000000000000000000000000000000000000000000000000000600052603260045260246000fd5b90600052602060002001819055508387600101600083815260200190815260200160002081905550505b85600001805480613734577f4e487b7100000000000000000000000000000000000000000000000000000000600052603160045260246000fd5b600190038181906000526020600020016000905590558560010160008681526020019081526020016000206000905560019350505050613775565b60009150505b92915050565b6000808273ffffffffffffffffffffffffffffffffffffffff163b119050919050565b60007f7965db0b000000000000000000000000000000000000000000000000000000007bffffffffffffffffffffffffffffffffffffffffffffffffffffffff1916827bffffffffffffffffffffffffffffffffffffffffffffffffffffffff19161480613811575061381082613978565b5b9050919050565b613824848484846139e2565b6001811115613868576040517f08c379a000000000000000000000000000000000000000000000000000000000815260040161385f90614b7b565b60405180910390fd5b6000829050600073ffffffffffffffffffffffffffffffffffffffff168573ffffffffffffffffffffffffffffffffffffffff1614156138b0576138ab81613b08565b6138ef565b8373ffffffffffffffffffffffffffffffffffffffff168573ffffffffffffffffffffffffffffffffffffffff16146138ee576138ed8582613b51565b5b5b600073ffffffffffffffffffffffffffffffffffffffff168473ffffffffffffffffffffffffffffffffffffffff1614156139325761392d81613cbe565b613971565b8473ffffffffffffffffffffffffffffffffffffffff168473ffffffffffffffffffffffffffffffffffffffff16146139705761396f8482613e01565b5b5b5050505050565b60007f01ffc9a7000000000000000000000000000000000000000000000000000000007bffffffffffffffffffffffffffffffffffffffffffffffffffffffff1916827bffffffffffffffffffffffffffffffffffffffffffffffffffffffff1916149050919050565b6001811115613b0257600073ffffffffffffffffffffffffffffffffffffffff168473ffffffffffffffffffffffffffffffffffffffff1614613a765780600560008673ffffffffffffffffffffffffffffffffffffffff1673ffffffffffffffffffffffffffffffffffffffff1681526020019081526020016000206000828254613a6e9190614d88565b925050819055505b600073ffffffffffffffffffffffffffffffffffffffff168373ffffffffffffffffffffffffffffffffffffffff1614613b015780600560008573ffffffffffffffffffffffffffffffffffffffff1673ffffffffffffffffffffffffffffffffffffffff1681526020019081526020016000206000828254613af99190614cd8565b925050819055505b5b50505050565b600a80549050600b600083815260200190815260200160002081905550600a81908060018154018082558091505060019003906000526020600020016000909190919091505550565b60006001613b5e8461108d565b613b689190614d88565b9050600060096000848152602001908152602001600020549050818114613c4d576000600860008673ffffffffffffffffffffffffffffffffffffffff1673ffffffffffffffffffffffffffffffffffffffff168152602001908152602001600020600084815260200190815260200160002054905080600860008773ffffffffffffffffffffffffffffffffffffffff1673ffffffffffffffffffffffffffffffffffffffff168152602001908152602001600020600084815260200190815260200160002081905550816009600083815260200190815260200160002081905550505b6009600084815260200190815260200160002060009055600860008573ffffffffffffffffffffffffffffffffffffffff1673ffffffffffffffffffffffffffffffffffffffff16815260200190815260200160002060008381526020019081526020016000206000905550505050565b60006001600a80549050613cd29190614d88565b90506000600b60008481526020019081526020016000205490506000600a8381548110613d28577f4e487b7100000000000000000000000000000000000000000000000000000000600052603260045260246000fd5b9060005260206000200154905080600a8381548110613d70577f4e487b7100000000000000000000000000000000000000000000000000000000600052603260045260246000fd5b906000526020600020018190555081600b600083815260200190815260200160002081905550600b600085815260200190815260200160002060009055600a805480613de5577f4e487b7100000000000000000000000000000000000000000000000000000000600052603160045260246000fd5b6001900381819060005260206000200160009055905550505050565b6000613e0c8361108d565b905081600860008573ffffffffffffffffffffffffffffffffffffffff1673ffffffffffffffffffffffffffffffffffffffff168152602001908152602001600020600083815260200190815260200160002081905550806009600084815260200190815260200160002081905550505050565b6000613e93613e8e84614c64565b614c3f565b905082815260208101848484011115613eab57600080fd5b613eb6848285614e3a565b509392505050565b600081359050613ecd8161571e565b92915050565b600081359050613ee281615735565b92915050565b600081359050613ef78161574c565b92915050565b600081359050613f0c81615763565b92915050565b600081519050613f2181615763565b92915050565b600082601f830112613f3857600080fd5b8135613f48848260208601613e80565b91505092915050565b600081359050613f608161577a565b92915050565b600060208284031215613f7857600080fd5b6000613f8684828501613ebe565b91505092915050565b60008060408385031215613fa257600080fd5b6000613fb085828601613ebe565b9250506020613fc185828601613ebe565b9150509250929050565b600080600060608486031215613fe057600080fd5b6000613fee86828701613ebe565b9350506020613fff86828701613ebe565b925050604061401086828701613f51565b9150509250925092565b6000806000806080858703121561403057600080fd5b600061403e87828801613ebe565b945050602061404f87828801613ebe565b935050604061406087828801613f51565b925050606085013567ffffffffffffffff81111561407d57600080fd5b61408987828801613f27565b91505092959194509250565b600080604083850312156140a857600080fd5b60006140b685828601613ebe565b92505060206140c785828601613ed3565b9150509250929050565b600080604083850312156140e457600080fd5b60006140f285828601613ebe565b925050602061410385828601613f51565b9150509250929050565b60006020828403121561411f57600080fd5b600061412d84828501613ee8565b91505092915050565b6000806040838503121561414957600080fd5b600061415785828601613ee8565b925050602061416885828601613ebe565b9150509250929050565b6000806040838503121561418557600080fd5b600061419385828601613ee8565b92505060206141a485828601613f51565b9150509250929050565b6000602082840312156141c057600080fd5b60006141ce84828501613efd565b91505092915050565b6000602082840312156141e957600080fd5b60006141f784828501613f12565b91505092915050565b60006020828403121561421257600080fd5b600061422084828501613f51565b91505092915050565b6000806040838503121561423c57600080fd5b600061424a85828601613f51565b925050602061425b85828601613ebe565b9150509250929050565b61426e81614dbc565b82525050565b61427d81614dce565b82525050565b61428c81614dda565b82525050565b600061429d82614c95565b6142a78185614cab565b93506142b7818560208601614e49565b6142c081614fdf565b840191505092915050565b60006142d682614ca0565b6142e08185614cbc565b93506142f0818560208601614e49565b6142f981614fdf565b840191505092915050565b600061430f82614ca0565b6143198185614ccd565b9350614329818560208601614e49565b80840191505092915050565b6000614342602083614cbc565b915061434d82614ff0565b602082019050919050565b6000614365602b83614cbc565b915061437082615019565b604082019050919050565b6000614388601483614cbc565b915061439382615068565b602082019050919050565b60006143ab601383614cbc565b91506143b682615091565b602082019050919050565b60006143ce602d83614cbc565b91506143d9826150ba565b604082019050919050565b60006143f1602b83614cbc565b91506143fc82615109565b604082019050919050565b6000614414603283614cbc565b915061441f82615158565b604082019050919050565b6000614437602683614cbc565b9150614442826151a7565b604082019050919050565b600061445a602583614cbc565b9150614465826151f6565b604082019050919050565b600061447d601c83614cbc565b915061448882615245565b602082019050919050565b60006144a0603e83614cbc565b91506144ab8261526e565b604082019050919050565b60006144c3602483614cbc565b91506144ce826152bd565b604082019050919050565b60006144e6601983614cbc565b91506144f18261530c565b602082019050919050565b6000614509600883614cbc565b915061451482615335565b602082019050919050565b600061452c601083614cbc565b91506145378261535e565b602082019050919050565b600061454f602983614cbc565b915061455a82615387565b604082019050919050565b6000614572601783614cbc565b915061457d826153d6565b602082019050919050565b6000614595602083614cbc565b91506145a0826153ff565b602082019050919050565b60006145b8602083614cbc565b91506145c382615428565b602082019050919050565b60006145db600983614cbc565b91506145e682615451565b602082019050919050565b60006145fe601883614cbc565b91506146098261547a565b602082019050919050565b6000614621602183614cbc565b915061462c826154a3565b604082019050919050565b6000614644603d83614cbc565b915061464f826154f2565b604082019050919050565b6000614667602c83614cbc565b915061467282615541565b604082019050919050565b600061468a601783614ccd565b915061469582615590565b601782019050919050565b60006146ad603583614cbc565b91506146b8826155b9565b604082019050919050565b60006146d0603d83614cbc565b91506146db82615608565b604082019050919050565b60006146f3604083614cbc565b91506146fe82615657565b604082019050919050565b6000614716601183614ccd565b9150614721826156a6565b601182019050919050565b6000614739602f83614cbc565b9150614744826156cf565b604082019050919050565b61475881614e30565b82525050565b600061476a8285614304565b91506147768284614304565b91508190509392505050565b600061478d8261467d565b91506147998285614304565b91506147a482614709565b91506147b08284614304565b91508190509392505050565b60006020820190506147d16000830184614265565b92915050565b60006080820190506147ec6000830187614265565b6147f96020830186614265565b614806604083018561474f565b81810360608301526148188184614292565b905095945050505050565b60006020820190506148386000830184614274565b92915050565b60006020820190506148536000830184614283565b92915050565b6000602082019050818103600083015261487381846142cb565b905092915050565b6000602082019050818103600083015261489481614335565b9050919050565b600060208201905081810360008301526148b481614358565b9050919050565b600060208201905081810360008301526148d48161437b565b9050919050565b600060208201905081810360008301526148f48161439e565b9050919050565b60006020820190508181036000830152614914816143c1565b9050919050565b60006020820190508181036000830152614934816143e4565b9050919050565b6000602082019050818103600083015261495481614407565b9050919050565b600060208201905081810360008301526149748161442a565b9050919050565b600060208201905081810360008301526149948161444d565b9050919050565b600060208201905081810360008301526149b481614470565b9050919050565b600060208201905081810360008301526149d481614493565b9050919050565b600060208201905081810360008301526149f4816144b6565b9050919050565b60006020820190508181036000830152614a14816144d9565b9050919050565b60006020820190508181036000830152614a34816144fc565b9050919050565b60006020820190508181036000830152614a548161451f565b9050919050565b60006020820190508181036000830152614a7481614542565b9050919050565b60006020820190508181036000830152614a9481614565565b9050919050565b60006020820190508181036000830152614ab481614588565b9050919050565b60006020820190508181036000830152614ad4816145ab565b9050919050565b60006020820190508181036000830152614af4816145ce565b9050919050565b60006020820190508181036000830152614b14816145f1565b9050919050565b60006020820190508181036000830152614b3481614614565b9050919050565b60006020820190508181036000830152614b5481614637565b9050919050565b60006020820190508181036000830152614b748161465a565b9050919050565b60006020820190508181036000830152614b94816146a0565b9050919050565b60006020820190508181036000830152614bb4816146c3565b9050919050565b60006020820190508181036000830152614bd4816146e6565b9050919050565b60006020820190508181036000830152614bf48161472c565b9050919050565b6000602082019050614c10600083018461474f565b92915050565b6000604082019050614c2b600083018561474f565b614c386020830184614265565b9392505050565b6000614c49614c5a565b9050614c558282614ed8565b919050565b6000604051905090565b600067ffffffffffffffff821115614c7f57614c7e614fb0565b5b614c8882614fdf565b9050602081019050919050565b600081519050919050565b600081519050919050565b600082825260208201905092915050565b600082825260208201905092915050565b600081905092915050565b6000614ce382614e30565b9150614cee83614e30565b9250827fffffffffffffffffffffffffffffffffffffffffffffffffffffffffffffffff03821115614d2357614d22614f52565b5b828201905092915050565b6000614d3982614e30565b9150614d4483614e30565b9250817fffffffffffffffffffffffffffffffffffffffffffffffffffffffffffffffff0483118215151615614d7d57614d7c614f52565b5b828202905092915050565b6000614d9382614e30565b9150614d9e83614e30565b925082821015614db157614db0614f52565b5b828203905092915050565b6000614dc782614e10565b9050919050565b60008115159050919050565b6000819050919050565b60007fffffffff0000000000000000000000000000000000000000000000000000000082169050919050565b600073ffffffffffffffffffffffffffffffffffffffff82169050919050565b6000819050919050565b82818337600083830152505050565b60005b83811015614e67578082015181840152602081019050614e4c565b83811115614e76576000848401525b50505050565b6000614e8782614e30565b91506000821415614e9b57614e9a614f52565b5b600182039050919050565b60006002820490506001821680614ebe57607f821691505b60208210811415614ed257614ed1614f81565b5b50919050565b614ee182614fdf565b810181811067ffffffffffffffff82111715614f0057614eff614fb0565b5b80604052505050565b6000614f1482614e30565b91507fffffffffffffffffffffffffffffffffffffffffffffffffffffffffffffffff821415614f4757614f46614f52565b5b600182019050919050565b7f4e487b7100000000000000000000000000000000000000000000000000000000600052601160045260246000fd5b7f4e487b7100000000000000000000000000000000000000000000000000000000600052602260045260246000fd5b7f4e487b7100000000000000000000000000000000000000000000000000000000600052604160045260246000fd5b6000601f19601f8301169050919050565b7f537472696e67733a20686578206c656e67746820696e73756666696369656e74600082015250565b7f4552433732315061757361626c653a20746f6b656e207472616e73666572207760008201527f68696c6520706175736564000000000000000000000000000000000000000000602082015250565b7f5061757361626c653a206e6f7420706175736564000000000000000000000000600082015250565b7f73616c65206861736e2774207374617274656400000000000000000000000000600082015250565b7f4552433732313a2063616c6c6572206973206e6f7420746f6b656e206f776e6560008201527f72206f7220617070726f76656400000000000000000000000000000000000000602082015250565b7f455243373231456e756d657261626c653a206f776e657220696e646578206f7560008201527f74206f6620626f756e6473000000000000000000000000000000000000000000602082015250565b7f4552433732313a207472616e7366657220746f206e6f6e20455243373231526560008201527f63656976657220696d706c656d656e7465720000000000000000000000000000602082015250565b7f4f776e61626c653a206e6577206f776e657220697320746865207a65726f206160008201527f6464726573730000000000000000000000000000000000000000000000000000602082015250565b7f4552433732313a207472616e736665722066726f6d20696e636f72726563742060008201527f6f776e6572000000000000000000000000000000000000000000000000000000602082015250565b7f4552433732313a20746f6b656e20616c7265616479206d696e74656400000000600082015250565b7f4552433732315072657365744d696e7465725061757365724175746f49643a2060008201527f6d75737420686176652070617573657220726f6c6520746f2070617573650000602082015250565b7f4552433732313a207472616e7366657220746f20746865207a65726f2061646460008201527f7265737300000000000000000000000000000000000000000000000000000000602082015250565b7f4552433732313a20617070726f766520746f2063616c6c657200000000000000600082015250565b7f736f6c64206f7574000000000000000000000000000000000000000000000000600082015250565b7f5061757361626c653a2070617573656400000000000000000000000000000000600082015250565b7f4552433732313a2061646472657373207a65726f206973206e6f74206120766160008201527f6c6964206f776e65720000000000000000000000000000000000000000000000602082015250565b7f7175616e746974792063616e6e6f74206265207a65726f000000000000000000600082015250565b7f4552433732313a206d696e7420746f20746865207a65726f2061646472657373600082015250565b7f4f776e61626c653a2063616c6c6572206973206e6f7420746865206f776e6572600082015250565b7f6578636565647320330000000000000000000000000000000000000000000000600082015250565b7f4552433732313a20696e76616c696420746f6b656e2049440000000000000000600082015250565b7f4552433732313a20617070726f76616c20746f2063757272656e74206f776e6560008201527f7200000000000000000000000000000000000000000000000000000000000000602082015250565b7f4552433732313a20617070726f76652063616c6c6572206973206e6f7420746f60008201527f6b656e206f776e6572206f7220617070726f76656420666f7220616c6c000000602082015250565b7f455243373231456e756d657261626c653a20676c6f62616c20696e646578206f60008201527f7574206f6620626f756e64730000000000000000000000000000000000000000602082015250565b7f416363657373436f6e74726f6c3a206163636f756e7420000000000000000000600082015250565b7f455243373231456e756d657261626c653a20636f6e736563757469766520747260008201527f616e7366657273206e6f7420737570706f727465640000000000000000000000602082015250565b7f4552433732315072657365744d696e7465725061757365724175746f49643a2060008201527f6d7573742068617665206d696e74657220726f6c6520746f206d696e74000000602082015250565b7f4552433732315072657365744d696e7465725061757365724175746f49643a2060008201527f6d75737420686176652070617573657220726f6c6520746f20756e7061757365602082015250565b7f206973206d697373696e6720726f6c6520000000000000000000000000000000600082015250565b7f416363657373436f6e74726f6c3a2063616e206f6e6c792072656e6f756e636560008201527f20726f6c657320666f722073656c660000000000000000000000000000000000602082015250565b61572781614dbc565b811461573257600080fd5b50565b61573e81614dce565b811461574957600080fd5b50565b61575581614dda565b811461576057600080fd5b50565b61576c81614de4565b811461577757600080fd5b50565b61578381614e30565b811461578e57600080fd5b5056fea2646970667358221220b0c6c3c8f3a03f503dfeabc8ffa2361abfdc6f435049dd118a1fe7a27042aa2364736f6c6343000804003368747470733a2f2f6e66742e6578616d706c65732e776f726b6572732e6465762f6e66742f",
  "linkReferences": {},
  "deployedLinkReferences": {}
}