{
  "_format": "hh-sol-artifact-1",
  "contractName": "ZombieFactory",
  "sourceName": "contracts/ZombieFactory.sol",
  "abi": [
    {
      "anonymous": false,
      "inputs": [
        {
          "indexed": false,
          "internalType": "uint256",
          "name": "zombieId",
          "type": "uint256"
        },
        {
          "indexed": false,
          "internalType": "string",
          "name": "name",
          "type": "string"
        },
        {
          "indexed": false,
          "internalType": "uint256",
          "name": "dna",
          "type": "uint256"
        }
      ],
      "name": "NewZombie",
      "type": "event"
    },
    {
      "inputs": [
        {
          "internalType": "uint256",
          "name": "_zombieId",
          "type": "uint256"
        },
        {
          "internalType": "address",
          "name": "direccion",
          "type": "address"
        }
      ],
      "name": "_setAddressToZombie",
      "outputs": [],
      "stateMutability": "nonpayable",
      "type": "function"
    },
    {
      "inputs": [
        {
          "internalType": "string",
          "name": "_name",
          "type": "string"
        }
      ],
      "name": "crearRandomZombie",
      "outputs": [],
      "stateMutability": "nonpayable",
      "type": "function"
    },
    {
      "inputs": [
        {
          "internalType": "string",
          "name": "_name",
          "type": "string"
        },
        {
          "internalType": "address",
          "name": "direccion",
          "type": "address"
        }
      ],
      "name": "crearZombieElectrico",
      "outputs": [],
      "stateMutability": "nonpayable",
      "type": "function"
    },
    {
      "inputs": [],
      "name": "cuantosZombiesTengo",
      "outputs": [
        {
          "internalType": "uint256",
          "name": "",
          "type": "uint256"
        }
      ],
      "stateMutability": "view",
      "type": "function"
    },
    {
      "inputs": [
        {
          "internalType": "address",
          "name": "",
          "type": "address"
        }
      ],
      "name": "direccionToZombie",
      "outputs": [
        {
          "internalType": "uint256",
          "name": "",
          "type": "uint256"
        }
      ],
      "stateMutability": "view",
      "type": "function"
    },
    {
      "inputs": [],
      "name": "getMyNumber",
      "outputs": [
        {
          "internalType": "uint256",
          "name": "",
          "type": "uint256"
        }
      ],
      "stateMutability": "view",
      "type": "function"
    },
    {
      "inputs": [
        {
          "internalType": "address",
          "name": "direccion",
          "type": "address"
        }
      ],
      "name": "getZombieId",
      "outputs": [
        {
          "internalType": "uint256",
          "name": "",
          "type": "uint256"
        }
      ],
      "stateMutability": "view",
      "type": "function"
    },
    {
      "inputs": [
        {
          "internalType": "uint256",
          "name": "_myNumber",
          "type": "uint256"
        }
      ],
      "name": "setMyNumber",
      "outputs": [],
      "stateMutability": "nonpayable",
      "type": "function"
    },
    {
      "inputs": [
        {
          "internalType": "uint256",
          "name": "",
          "type": "uint256"
        }
      ],
      "name": "zombieToDireccion",
      "outputs": [
        {
          "internalType": "address",
          "name": "",
          "type": "address"
        }
      ],
      "stateMutability": "view",
      "type": "function"
    },
    {
      "inputs": [
        {
          "internalType": "uint256",
          "name": "",
          "type": "uint256"
        }
      ],
      "name": "zombieToOwner",
      "outputs": [
        {
          "internalType": "address",
          "name": "",
          "type": "address"
        }
      ],
      "stateMutability": "view",
      "type": "function"
    },
    {
      "inputs": [
        {
          "internalType": "uint256",
          "name": "",
          "type": "uint256"
        }
      ],
      "name": "zombies",
      "outputs": [
        {
          "internalType": "string",
          "name": "name",
          "type": "string"
        },
        {
          "internalType": "uint256",
          "name": "dna",
          "type": "uint256"
        }
      ],
      "stateMutability": "view",
      "type": "function"
    }
  ],
  "bytecode": "0x60806040526010600055600054600a6200001a91906200008c565b6001553480156200002a57600080fd5b506200020f565b6000808291508390505b600185111562000083578086048111156200005b576200005a620001d3565b5b60018516156200006b5780820291505b80810290506200007b8562000202565b94506200003b565b94509492505050565b60006200009982620001c9565b9150620000a683620001c9565b9250620000d57fffffffffffffffffffffffffffffffffffffffffffffffffffffffffffffffff8484620000dd565b905092915050565b600082620000ef5760019050620001c2565b81620000ff5760009050620001c2565b8160018114620001185760028114620001235762000159565b6001915050620001c2565b60ff841115620001385762000137620001d3565b5b8360020a915084821115620001525762000151620001d3565b5b50620001c2565b5060208310610133831016604e8410600b8410161715620001935782820a9050838111156200018d576200018c620001d3565b5b620001c2565b620001a2848484600162000031565b92509050818404811115620001bc57620001bb620001d3565b5b81810290505b9392505050565b6000819050919050565b7f4e487b7100000000000000000000000000000000000000000000000000000000600052601160045260246000fd5b60008160011c9050919050565b611519806200021f6000396000f3fe608060405234801561001057600080fd5b50600436106100a95760003560e01c80636ffd773c116100715780636ffd773c1461018b5780637168b5a8146101a7578063a6a2c234146101c3578063aa5ddcdd146101e1578063ab88ddf2146101fd578063b32e737f1461022d576100a9565b80632052465e146100ae57806351d240d3146100df578063528b7b8f1461010f57806355d421331461013f5780635c1847251461016f575b600080fd5b6100c860048036038101906100c39190610f13565b61024b565b6040516100d6929190611153565b60405180910390f35b6100f960048036038101906100f49190610f13565b610307565b6040516101069190611017565b60405180910390f35b61012960048036038101906101249190610f13565b61033a565b6040516101369190611017565b60405180910390f35b61015960048036038101906101549190610e55565b61036d565b6040516101669190611183565b60405180910390f35b61018960048036038101906101849190610e7e565b6103f5565b005b6101a560048036038101906101a09190610f13565b61049b565b005b6101c160048036038101906101bc9190610f3c565b6104e2565b005b6101cb6105e7565b6040516101d89190611183565b60405180910390f35b6101fb60048036038101906101f69190610ebf565b61066c565b005b61021760048036038101906102129190610e55565b61069a565b6040516102249190611183565b60405180910390f35b6102356106b2565b6040516102429190611183565b60405180910390f35b6002818154811061025b57600080fd5b906000526020600020906002020160009150905080600001805461027e9061130b565b80601f01602080910402602001604051908101604052809291908181526020018280546102aa9061130b565b80156102f75780601f106102cc576101008083540402835291602001916102f7565b820191906000526020600020905b8154815290600101906020018083116102da57829003601f168201915b5050505050908060010154905082565b60066020528060005260406000206000915054906101000a900473ffffffffffffffffffffffffffffffffffffffff1681565b60036020528060005260406000206000915054906101000a900473ffffffffffffffffffffffffffffffffffffffff1681565b60006103ae6040518060400160405280600e81526020017f456e206765745a6f6d6269654964000000000000000000000000000000000000815250836106f9565b600760008373ffffffffffffffffffffffffffffffffffffffff1673ffffffffffffffffffffffffffffffffffffffff168152602001908152602001600020549050919050565b6104346040518060400160405280601481526020017f456e20637265617252616e646f6d5a6f6d62696500000000000000000000000081525082610795565b6000600460003373ffffffffffffffffffffffffffffffffffffffff1673ffffffffffffffffffffffffffffffffffffffff168152602001908152602001600020541461048057600080fd5b600061048b82610831565b905061049782826108b6565b5050565b80600560003373ffffffffffffffffffffffffffffffffffffffff1673ffffffffffffffffffffffffffffffffffffffff1681526020019081526020016000208190555050565b6003600083815260200190815260200160002060009054906101000a900473ffffffffffffffffffffffffffffffffffffffff1673ffffffffffffffffffffffffffffffffffffffff163373ffffffffffffffffffffffffffffffffffffffff161461054d57600080fd5b806006600084815260200190815260200160002060006101000a81548173ffffffffffffffffffffffffffffffffffffffff021916908373ffffffffffffffffffffffffffffffffffffffff16021790555081600760008373ffffffffffffffffffffffffffffffffffffffff1673ffffffffffffffffffffffffffffffffffffffff168152602001908152602001600020819055505050565b60006106276040518060400160405280601681526020017f456e206375616e746f735a6f6d6269657354656e676f00000000000000000000815250610b1d565b600460003373ffffffffffffffffffffffffffffffffffffffff1673ffffffffffffffffffffffffffffffffffffffff16815260200190815260200160002054905090565b610675826103f5565b600060016002805490506106899190611259565b905061069581836104e2565b505050565b60076020528060005260406000206000915090505481565b6000600560003373ffffffffffffffffffffffffffffffffffffffff1673ffffffffffffffffffffffffffffffffffffffff16815260200190815260200160002054905090565b610791828260405160240161070f929190611054565b6040516020818303038152906040527f319af333000000000000000000000000000000000000000000000000000000007bffffffffffffffffffffffffffffffffffffffffffffffffffffffff19166020820180517bffffffffffffffffffffffffffffffffffffffffffffffffffffffff8381831617835250505050610bb6565b5050565b61082d82826040516024016107ab9291906110c2565b6040516020818303038152906040527f4b5c4277000000000000000000000000000000000000000000000000000000007bffffffffffffffffffffffffffffffffffffffffffffffffffffffff19166020820180517bffffffffffffffffffffffffffffffffffffffffffffffffffffffff8381831617835250505050610bb6565b5050565b60006108726040518060400160405280601581526020017f456e205f67656e657261746552616e646f6d446e61000000000000000000000081525083610795565b6000826040516020016108859190611000565b6040516020818303038152906040528051906020012060001c9050600154816108ae91906113b7565b915050919050565b61092c6040518060400160405280601681526020017f456e205f63726561725a6f6d626965205f6e616d653a00000000000000000000815250836040518060400160405280600581526020017f5f646e613a00000000000000000000000000000000000000000000000000000081525084610bdf565b600060405180604001604052808481526020018381525090506002819080600181540180825580915050600190039060005260206000209060020201600090919091909150600082015181600001908051906020019061098d929190610d20565b50602082015181600101555050600060016002805490506109ae9190611259565b90507f88f026aacbbecc90c18411df4b1185fd8d9be2470f1962f192bf84a27d0704b78185856040516109e39392919061119e565b60405180910390a1336003600083815260200190815260200160002060006101000a81548173ffffffffffffffffffffffffffffffffffffffff021916908373ffffffffffffffffffffffffffffffffffffffff160217905550600460003373ffffffffffffffffffffffffffffffffffffffff1673ffffffffffffffffffffffffffffffffffffffff1681526020019081526020016000206000815480929190610a8d9061136e565b91905055506000600460003373ffffffffffffffffffffffffffffffffffffffff1673ffffffffffffffffffffffffffffffffffffffff168152602001908152602001600020549050610b166040518060400160405280602081526020017f50726f706965746172696f202573207469656e65202564207a6f6d626965732e8152503383610c81565b5050505050565b610bb381604051602401610b319190611032565b6040516020818303038152906040527f41304fac000000000000000000000000000000000000000000000000000000007bffffffffffffffffffffffffffffffffffffffffffffffffffffffff19166020820180517bffffffffffffffffffffffffffffffffffffffffffffffffffffffff8381831617835250505050610bb6565b50565b60008151905060006a636f6e736f6c652e6c6f679050602083016000808483855afa5050505050565b610c7b84848484604051602401610bf994939291906110f9565b6040516020818303038152906040527f9fd009f5000000000000000000000000000000000000000000000000000000007bffffffffffffffffffffffffffffffffffffffffffffffffffffffff19166020820180517bffffffffffffffffffffffffffffffffffffffffffffffffffffffff8381831617835250505050610bb6565b50505050565b610d1b838383604051602401610c9993929190611084565b6040516020818303038152906040527f07c81217000000000000000000000000000000000000000000000000000000007bffffffffffffffffffffffffffffffffffffffffffffffffffffffff19166020820180517bffffffffffffffffffffffffffffffffffffffffffffffffffffffff8381831617835250505050610bb6565b505050565b828054610d2c9061130b565b90600052602060002090601f016020900481019282610d4e5760008555610d95565b82601f10610d6757805160ff1916838001178555610d95565b82800160010185558215610d95579182015b82811115610d94578251825591602001919060010190610d79565b5b509050610da29190610da6565b5090565b5b80821115610dbf576000816000905550600101610da7565b5090565b6000610dd6610dd184611201565b6111dc565b905082815260208101848484011115610dee57600080fd5b610df98482856112c9565b509392505050565b600081359050610e10816114b5565b92915050565b600082601f830112610e2757600080fd5b8135610e37848260208601610dc3565b91505092915050565b600081359050610e4f816114cc565b92915050565b600060208284031215610e6757600080fd5b6000610e7584828501610e01565b91505092915050565b600060208284031215610e9057600080fd5b600082013567ffffffffffffffff811115610eaa57600080fd5b610eb684828501610e16565b91505092915050565b60008060408385031215610ed257600080fd5b600083013567ffffffffffffffff811115610eec57600080fd5b610ef885828601610e16565b9250506020610f0985828601610e01565b9150509250929050565b600060208284031215610f2557600080fd5b6000610f3384828501610e40565b91505092915050565b60008060408385031215610f4f57600080fd5b6000610f5d85828601610e40565b9250506020610f6e85828601610e01565b9150509250929050565b610f818161128d565b82525050565b6000610f9282611232565b610f9c818561123d565b9350610fac8185602086016112d8565b610fb5816114a4565b840191505092915050565b6000610fcb82611232565b610fd5818561124e565b9350610fe58185602086016112d8565b80840191505092915050565b610ffa816112bf565b82525050565b600061100c8284610fc0565b915081905092915050565b600060208201905061102c6000830184610f78565b92915050565b6000602082019050818103600083015261104c8184610f87565b905092915050565b6000604082019050818103600083015261106e8185610f87565b905061107d6020830184610f78565b9392505050565b6000606082019050818103600083015261109e8186610f87565b90506110ad6020830185610f78565b6110ba6040830184610ff1565b949350505050565b600060408201905081810360008301526110dc8185610f87565b905081810360208301526110f08184610f87565b90509392505050565b600060808201905081810360008301526111138187610f87565b905081810360208301526111278186610f87565b9050818103604083015261113b8185610f87565b905061114a6060830184610ff1565b95945050505050565b6000604082019050818103600083015261116d8185610f87565b905061117c6020830184610ff1565b9392505050565b60006020820190506111986000830184610ff1565b92915050565b60006060820190506111b36000830186610ff1565b81810360208301526111c58185610f87565b90506111d46040830184610ff1565b949350505050565b60006111e66111f7565b90506111f2828261133d565b919050565b6000604051905090565b600067ffffffffffffffff82111561121c5761121b611475565b5b611225826114a4565b9050602081019050919050565b600081519050919050565b600082825260208201905092915050565b600081905092915050565b6000611264826112bf565b915061126f836112bf565b925082821015611282576112816113e8565b5b828203905092915050565b60006112988261129f565b9050919050565b600073ffffffffffffffffffffffffffffffffffffffff82169050919050565b6000819050919050565b82818337600083830152505050565b60005b838110156112f65780820151818401526020810190506112db565b83811115611305576000848401525b50505050565b6000600282049050600182168061132357607f821691505b6020821081141561133757611336611446565b5b50919050565b611346826114a4565b810181811067ffffffffffffffff8211171561136557611364611475565b5b80604052505050565b6000611379826112bf565b91507fffffffffffffffffffffffffffffffffffffffffffffffffffffffffffffffff8214156113ac576113ab6113e8565b5b600182019050919050565b60006113c2826112bf565b91506113cd836112bf565b9250826113dd576113dc611417565b5b828206905092915050565b7f4e487b7100000000000000000000000000000000000000000000000000000000600052601160045260246000fd5b7f4e487b7100000000000000000000000000000000000000000000000000000000600052601260045260246000fd5b7f4e487b7100000000000000000000000000000000000000000000000000000000600052602260045260246000fd5b7f4e487b7100000000000000000000000000000000000000000000000000000000600052604160045260246000fd5b6000601f19601f8301169050919050565b6114be8161128d565b81146114c957600080fd5b50565b6114d5816112bf565b81146114e057600080fd5b5056fea26469706673582212206a421d9b7fb8abb50e3abdf4e3b8b769a62c832d6ad8f228d1e1f4da890d362f64736f6c63430008040033",
  "linkReferences": {},
  "deployedLinkReferences": {}
}