{
  "_format": "hh-sol-artifact-1",
  "contractName": "ReceiveEther",
  "sourceName": "contracts/ReceiveEther.sol",
  "abi": [
    {
      "inputs": [],
      "name": "getBalance",
      "outputs": [
        {
          "internalType": "uint256",
          "name": "",
          "type": "uint256"
        }
      ],
      "stateMutability": "view",
      "type": "function"
    },
    {
      "stateMutability": "payable",
      "type": "receive"
    }
  ],
  "bytecode": "0x6080604052348015600f57600080fd5b5060808061001e6000396000f3fe60806040526004361060205760003560e01c806312065fe014602b57600080fd5b36602657005b600080fd5b348015603657600080fd5b504760405190815260200160405180910390f3fea264697066735822122002435c0b58be6b5a718451f3d4acf05948baa81a0bea0c4eda8b95b3f0aeaa8264736f6c63430008090033",
  "linkReferences": {},
  "deployedLinkReferences": {}
}