{
  "_format": "hh-sol-artifact-1",
  "contractName": "Recarga",
  "sourceName": "contracts/Recarga.sol",
  "abi": [
    {
      "anonymous": false,
      "inputs": [
        {
          "indexed": false,
          "internalType": "address",
          "name": "sender",
          "type": "address"
        }
      ],
      "name": "LogDepositReceived",
      "type": "event"
    },
    {
      "inputs": [],
      "name": "alectrico",
      "outputs": [
        {
          "internalType": "address",
          "name": "",
          "type": "address"
        }
      ],
      "stateMutability": "view",
      "type": "function"
    },
    {
      "inputs": [],
      "name": "priceToMint",
      "outputs": [
        {
          "internalType": "uint256",
          "name": "",
          "type": "uint256"
        }
      ],
      "stateMutability": "view",
      "type": "function"
    },
    {
      "stateMutability": "payable",
      "type": "receive"
    }
  ],
  "bytecode": "0x60806040526618de76816d8000600055600180546001600160a01b03191673f9f84a5b6889273890ef18c2694eed446320aec617905534801561004157600080fd5b506101d3806100516000396000f3fe60806040526004361061002d5760003560e01c80634dc1dbec146101225780638ca94b9a1461014b57600080fd5b3661011d5760008054341461007c576040517f08c379a0000000000000000000000000000000000000000000000000000000008152602060048201526000602482015260440160405180910390fd5b60015460405173ffffffffffffffffffffffffffffffffffffffff90911690661661d10e15c00090600081818185875af1925050503d80600081146100dd576040519150601f19603f3d011682016040523d82523d6000602084013e6100e2565b606091505b50506040513381529091507f15382559391789f1865e10e9c8b51327a9cb0381eae89973ada229e7a78c08f39060200160405180910390a150005b600080fd5b34801561012e57600080fd5b5061013860005481565b6040519081526020015b60405180910390f35b34801561015757600080fd5b506001546101789073ffffffffffffffffffffffffffffffffffffffff1681565b60405173ffffffffffffffffffffffffffffffffffffffff909116815260200161014256fea26469706673582212204132cc3ac05cc442638e53f6b51e6f480770a510fb53e81ad5ac29cc26f30b7b64736f6c63430008090033",
  "linkReferences": {},
  "deployedLinkReferences": {}
}